{
	"contracts/DvTicket.sol": {
		"DvTicket": {
			"abi": [
				{
					"inputs": [
						{
							"internalType": "address",
							"name": "_tokenAddress",
							"type": "address"
						},
						{
							"internalType": "string",
							"name": "__name",
							"type": "string"
						},
						{
							"internalType": "string",
							"name": "__symbol",
							"type": "string"
						},
						{
							"internalType": "string",
							"name": "__tokenURI",
							"type": "string"
						},
						{
							"internalType": "address",
							"name": "_factory",
							"type": "address"
						},
						{
							"internalType": "address",
							"name": "_owner",
							"type": "address"
						}
					],
					"stateMutability": "nonpayable",
					"type": "constructor"
				},
				{
					"anonymous": false,
					"inputs": [
						{
							"indexed": true,
							"internalType": "address",
							"name": "customer",
							"type": "address"
						},
						{
							"indexed": true,
							"internalType": "uint256",
							"name": "ticketId",
							"type": "uint256"
						}
					],
					"name": "booked",
					"type": "event"
				},
				{
					"anonymous": false,
					"inputs": [
						{
							"indexed": true,
							"internalType": "address",
							"name": "sender",
							"type": "address"
						},
						{
							"indexed": true,
							"internalType": "address",
							"name": "reciver",
							"type": "address"
						},
						{
							"indexed": true,
							"internalType": "uint256",
							"name": "ticketId",
							"type": "uint256"
						}
					],
					"name": "transferred",
					"type": "event"
				},
				{
					"inputs": [
						{
							"internalType": "address",
							"name": "owner",
							"type": "address"
						}
					],
					"name": "balanceOf",
					"outputs": [
						{
							"internalType": "uint256",
							"name": "",
							"type": "uint256"
						}
					],
					"stateMutability": "view",
					"type": "function"
				},
				{
					"inputs": [],
					"name": "detach",
					"outputs": [],
					"stateMutability": "nonpayable",
					"type": "function"
				},
				{
					"inputs": [],
					"name": "getRoyalty",
					"outputs": [
						{
							"internalType": "uint256",
							"name": "",
							"type": "uint256"
						}
					],
					"stateMutability": "view",
					"type": "function"
				},
				{
					"inputs": [
						{
							"internalType": "uint256",
							"name": "tax",
							"type": "uint256"
						},
						{
							"internalType": "uint256",
							"name": "_totalSupply",
							"type": "uint256"
						},
						{
							"internalType": "uint256",
							"name": "_price",
							"type": "uint256"
						}
					],
					"name": "initialize",
					"outputs": [],
					"stateMutability": "nonpayable",
					"type": "function"
				},
				{
					"inputs": [
						{
							"internalType": "uint256",
							"name": "ticketId",
							"type": "uint256"
						}
					],
					"name": "isForSale",
					"outputs": [
						{
							"internalType": "bool",
							"name": "",
							"type": "bool"
						}
					],
					"stateMutability": "view",
					"type": "function"
				},
				{
					"inputs": [
						{
							"internalType": "uint256",
							"name": "ticketId",
							"type": "uint256"
						},
						{
							"internalType": "uint256",
							"name": "_price",
							"type": "uint256"
						}
					],
					"name": "offer",
					"outputs": [],
					"stateMutability": "payable",
					"type": "function"
				},
				{
					"inputs": [],
					"name": "owner",
					"outputs": [
						{
							"internalType": "address",
							"name": "",
							"type": "address"
						}
					],
					"stateMutability": "view",
					"type": "function"
				},
				{
					"inputs": [
						{
							"internalType": "uint256",
							"name": "tokenId",
							"type": "uint256"
						}
					],
					"name": "ownerOf",
					"outputs": [
						{
							"internalType": "address",
							"name": "owner",
							"type": "address"
						}
					],
					"stateMutability": "view",
					"type": "function"
				},
				{
					"inputs": [],
					"name": "price",
					"outputs": [
						{
							"internalType": "uint256",
							"name": "",
							"type": "uint256"
						}
					],
					"stateMutability": "view",
					"type": "function"
				},
				{
					"inputs": [
						{
							"internalType": "uint256",
							"name": "ticketId",
							"type": "uint256"
						}
					],
					"name": "priceOf",
					"outputs": [
						{
							"internalType": "uint256",
							"name": "",
							"type": "uint256"
						}
					],
					"stateMutability": "view",
					"type": "function"
				},
				{
					"inputs": [
						{
							"internalType": "uint256",
							"name": "ticketId",
							"type": "uint256"
						}
					],
					"name": "purchase",
					"outputs": [],
					"stateMutability": "payable",
					"type": "function"
				},
				{
					"inputs": [],
					"name": "purchased",
					"outputs": [
						{
							"internalType": "uint256",
							"name": "",
							"type": "uint256"
						}
					],
					"stateMutability": "view",
					"type": "function"
				},
				{
					"inputs": [
						{
							"internalType": "uint256",
							"name": "__royalty",
							"type": "uint256"
						},
						{
							"internalType": "address",
							"name": "__royaltyRecipient",
							"type": "address"
						}
					],
					"name": "setRoyalties",
					"outputs": [],
					"stateMutability": "payable",
					"type": "function"
				},
				{
					"inputs": [
						{
							"internalType": "bytes4",
							"name": "",
							"type": "bytes4"
						}
					],
					"name": "supportsInterface",
					"outputs": [
						{
							"internalType": "bool",
							"name": "",
							"type": "bool"
						}
					],
					"stateMutability": "pure",
					"type": "function"
				},
				{
					"inputs": [
						{
							"internalType": "uint256",
							"name": "",
							"type": "uint256"
						}
					],
					"name": "tokenURI",
					"outputs": [
						{
							"internalType": "string",
							"name": "",
							"type": "string"
						}
					],
					"stateMutability": "view",
					"type": "function"
				},
				{
					"inputs": [],
					"name": "totalSupply",
					"outputs": [
						{
							"internalType": "uint256",
							"name": "",
							"type": "uint256"
						}
					],
					"stateMutability": "view",
					"type": "function"
				},
				{
					"inputs": [
						{
							"internalType": "address",
							"name": "to",
							"type": "address"
						},
						{
							"internalType": "uint256",
							"name": "ticketId",
							"type": "uint256"
						}
					],
					"name": "transfer",
					"outputs": [],
					"stateMutability": "payable",
					"type": "function"
				},
				{
					"inputs": [
						{
							"internalType": "address",
							"name": "newOwner",
							"type": "address"
						}
					],
					"name": "transferOwnership",
					"outputs": [],
					"stateMutability": "nonpayable",
					"type": "function"
				},
				{
					"inputs": [],
					"name": "withdraw",
					"outputs": [],
					"stateMutability": "nonpayable",
					"type": "function"
				}
			],
			"devdoc": {
				"kind": "dev",
				"methods": {
					"balanceOf(address)": {
						"details": "See {IERC721-balanceOf}."
					},
					"detach()": {
						"details": "Factory can detach itself from this contract"
					},
					"getRoyalty()": {
						"details": "Returns the contracts royalty"
					},
					"owner()": {
						"details": "Returns the address of the current owner."
					},
					"setRoyalties(uint256,address)": {
						"details": "set the native royalty and beneficiary, only owner"
					},
					"tokenURI(uint256)": {
						"details": "Returns the Uniform Resource Identifier (URI) for `tokenId` token."
					},
					"transferOwnership(address)": {
						"details": "Transfers ownership of the contract to a new account (`newOwner`). Can only be called by the current owner."
					}
				},
				"version": 1
			},
			"evm": {
				"assembly": "    /* \"contracts/DvTicket.sol\":315:5317  contract DvTicket is Context, DeVest, ReentrancyGuard, VestingToken {... */\n  mstore(0x40, 0x80)\n    /* \"@devest/contracts/DeVest.sol\":1006:1007  0 */\n  0x00\n    /* \"@devest/contracts/DeVest.sol\":978:1007  uint256 internal _royalty = 0 */\n  0x03\n  sstore\n    /* \"contracts/DvTicket.sol\":657:658  0 */\n  0x00\n    /* \"contracts/DvTicket.sol\":630:658  uint256 public purchased = 0 */\n  0x08\n  sstore\n    /* \"contracts/DvTicket.sol\":1323:1645  constructor(address _tokenAddress, string memory __name, string memory __symbol, string memory __tokenURI, address _factory, address _owner)... */\n  callvalue\n  dup1\n  iszero\n  tag_1\n  jumpi\n  0x00\n  dup1\n  revert\ntag_1:\n  pop\n  mload(0x40)\n  sub(codesize, bytecodeSize)\n  dup1\n  bytecodeSize\n  dup4\n  codecopy\n  dup2\n  dup2\n  add\n  0x40\n  mstore\n  dup2\n  add\n  swap1\n  tag_2\n  swap2\n  swap1\n  tag_3\n  jump\t// in\ntag_2:\n    /* \"contracts/DvTicket.sol\":1506:1519  _tokenAddress */\n  dup6\n    /* \"contracts/DvTicket.sol\":1475:1481  _owner */\n  dup2\n    /* \"contracts/DvTicket.sol\":1483:1491  _factory */\n  dup4\n    /* \"@devest/contracts/DeVest.sol\":1180:1187  factory */\n  dup1\n    /* \"@devest/contracts/DeVest.sol\":1159:1167  _factory */\n  0x00\n  dup1\n    /* \"@devest/contracts/DeVest.sol\":1159:1188  _factory = DvFactory(factory) */\n  0x0100\n  exp\n  dup2\n  sload\n  dup2\n  0xffffffffffffffffffffffffffffffffffffffff\n  mul\n  not\n  and\n  swap1\n  dup4\n  0xffffffffffffffffffffffffffffffffffffffff\n  and\n  mul\n  or\n  swap1\n  sstore\n  pop\n    /* \"@devest/contracts/DeVest.sol\":1207:1214  __owner */\n  dup2\n    /* \"@devest/contracts/DeVest.sol\":1198:1204  _owner */\n  0x01\n  0x00\n    /* \"@devest/contracts/DeVest.sol\":1198:1214  _owner = __owner */\n  0x0100\n  exp\n  dup2\n  sload\n  dup2\n  0xffffffffffffffffffffffffffffffffffffffff\n  mul\n  not\n  and\n  swap1\n  dup4\n  0xffffffffffffffffffffffffffffffffffffffff\n  and\n  mul\n  or\n  swap1\n  sstore\n  pop\n    /* \"@devest/contracts/DeVest.sol\":1103:1221  constructor(address __owner, address factory) {... */\n  pop\n  pop\n    /* \"@openzeppelin/contracts/security/ReentrancyGuard.sol\":1716:1717  1 */\n  0x01\n    /* \"@openzeppelin/contracts/security/ReentrancyGuard.sol\":1821:1828  _status */\n  0x04\n    /* \"@openzeppelin/contracts/security/ReentrancyGuard.sol\":1821:1843  _status = _NOT_ENTERED */\n  dup2\n  swap1\n  sstore\n  pop\n    /* \"@devest/contracts/VestingToken.sol\":241:253  tokenAddress */\n  dup1\n    /* \"@devest/contracts/VestingToken.sol\":225:238  _vestingToken */\n  0x05\n  0x00\n    /* \"@devest/contracts/VestingToken.sol\":225:253  _vestingToken = tokenAddress */\n  0x0100\n  exp\n  dup2\n  sload\n  dup2\n  0xffffffffffffffffffffffffffffffffffffffff\n  mul\n  not\n  and\n  swap1\n  dup4\n  0xffffffffffffffffffffffffffffffffffffffff\n  and\n  mul\n  or\n  swap1\n  sstore\n  pop\n    /* \"@devest/contracts/VestingToken.sol\":182:260  constructor(address tokenAddress){... */\n  pop\n    /* \"contracts/DvTicket.sol\":1572:1580  __symbol */\n  dup4\n    /* \"contracts/DvTicket.sol\":1549:1581  abi.encodePacked(\"% \", __symbol) */\n  add(0x20, mload(0x40))\n  tag_12\n  swap2\n  swap1\n  tag_13\n  jump\t// in\ntag_12:\n  mload(0x40)\n  0x20\n  dup2\n  dup4\n  sub\n  sub\n  dup2\n  mstore\n  swap1\n  0x40\n  mstore\n    /* \"contracts/DvTicket.sol\":1532:1539  _symbol */\n  0x0e\n    /* \"contracts/DvTicket.sol\":1532:1582  _symbol = string(abi.encodePacked(\"% \", __symbol)) */\n  swap1\n  dup1\n  mload\n  swap1\n  0x20\n  add\n  swap1\n  tag_14\n  swap3\n  swap2\n  swap1\n  tag_15\n  jump\t// in\ntag_14:\n  pop\n    /* \"contracts/DvTicket.sol\":1600:1606  __name */\n  dup5\n    /* \"contracts/DvTicket.sol\":1592:1597  _name */\n  0x0d\n    /* \"contracts/DvTicket.sol\":1592:1606  _name = __name */\n  swap1\n  dup1\n  mload\n  swap1\n  0x20\n  add\n  swap1\n  tag_16\n  swap3\n  swap2\n  swap1\n  tag_15\n  jump\t// in\ntag_16:\n  pop\n    /* \"contracts/DvTicket.sol\":1628:1638  __tokenURI */\n  dup3\n    /* \"contracts/DvTicket.sol\":1616:1625  _tokenURI */\n  0x0f\n    /* \"contracts/DvTicket.sol\":1616:1638  _tokenURI = __tokenURI */\n  swap1\n  dup1\n  mload\n  swap1\n  0x20\n  add\n  swap1\n  tag_17\n  swap3\n  swap2\n  swap1\n  tag_15\n  jump\t// in\ntag_17:\n  pop\n    /* \"contracts/DvTicket.sol\":1323:1645  constructor(address _tokenAddress, string memory __name, string memory __symbol, string memory __tokenURI, address _factory, address _owner)... */\n  pop\n  pop\n  pop\n  pop\n  pop\n  pop\n    /* \"contracts/DvTicket.sol\":315:5317  contract DvTicket is Context, DeVest, ReentrancyGuard, VestingToken {... */\n  jump(tag_18)\ntag_15:\n  dup3\n  dup1\n  sload\n  tag_19\n  swap1\n  tag_20\n  jump\t// in\ntag_19:\n  swap1\n  0x00\n  mstore\n  keccak256(0x00, 0x20)\n  swap1\n  0x1f\n  add\n  0x20\n  swap1\n  div\n  dup2\n  add\n  swap3\n  dup3\n  tag_22\n  jumpi\n  0x00\n  dup6\n  sstore\n  jump(tag_21)\ntag_22:\n  dup3\n  0x1f\n  lt\n  tag_23\n  jumpi\n  dup1\n  mload\n  not(0xff)\n  and\n  dup4\n  dup1\n  add\n  or\n  dup6\n  sstore\n  jump(tag_21)\ntag_23:\n  dup3\n  dup1\n  add\n  0x01\n  add\n  dup6\n  sstore\n  dup3\n  iszero\n  tag_21\n  jumpi\n  swap2\n  dup3\n  add\ntag_24:\n  dup3\n  dup2\n  gt\n  iszero\n  tag_25\n  jumpi\n  dup3\n  mload\n  dup3\n  sstore\n  swap2\n  0x20\n  add\n  swap2\n  swap1\n  0x01\n  add\n  swap1\n  jump(tag_24)\ntag_25:\ntag_21:\n  pop\n  swap1\n  pop\n  tag_26\n  swap2\n  swap1\n  tag_27\n  jump\t// in\ntag_26:\n  pop\n  swap1\n  jump\t// out\ntag_27:\ntag_28:\n  dup1\n  dup3\n  gt\n  iszero\n  tag_29\n  jumpi\n  0x00\n  dup2\n  0x00\n  swap1\n  sstore\n  pop\n  0x01\n  add\n  jump(tag_28)\ntag_29:\n  pop\n  swap1\n  jump\t// out\n    /* \"#utility.yul\":7:82   */\ntag_30:\n    /* \"#utility.yul\":40:46   */\n  0x00\n    /* \"#utility.yul\":73:75   */\n  0x40\n    /* \"#utility.yul\":67:76   */\n  mload\n    /* \"#utility.yul\":57:76   */\n  swap1\n  pop\n    /* \"#utility.yul\":7:82   */\n  swap1\n  jump\t// out\n    /* \"#utility.yul\":88:205   */\ntag_31:\n    /* \"#utility.yul\":197:198   */\n  0x00\n    /* \"#utility.yul\":194:195   */\n  dup1\n    /* \"#utility.yul\":187:199   */\n  revert\n    /* \"#utility.yul\":211:328   */\ntag_32:\n    /* \"#utility.yul\":320:321   */\n  0x00\n    /* \"#utility.yul\":317:318   */\n  dup1\n    /* \"#utility.yul\":310:322   */\n  revert\n    /* \"#utility.yul\":334:460   */\ntag_33:\n    /* \"#utility.yul\":371:378   */\n  0x00\n    /* \"#utility.yul\":411:453   */\n  0xffffffffffffffffffffffffffffffffffffffff\n    /* \"#utility.yul\":404:409   */\n  dup3\n    /* \"#utility.yul\":400:454   */\n  and\n    /* \"#utility.yul\":389:454   */\n  swap1\n  pop\n    /* \"#utility.yul\":334:460   */\n  swap2\n  swap1\n  pop\n  jump\t// out\n    /* \"#utility.yul\":466:562   */\ntag_34:\n    /* \"#utility.yul\":503:510   */\n  0x00\n    /* \"#utility.yul\":532:556   */\n  tag_59\n    /* \"#utility.yul\":550:555   */\n  dup3\n    /* \"#utility.yul\":532:556   */\n  tag_33\n  jump\t// in\ntag_59:\n    /* \"#utility.yul\":521:556   */\n  swap1\n  pop\n    /* \"#utility.yul\":466:562   */\n  swap2\n  swap1\n  pop\n  jump\t// out\n    /* \"#utility.yul\":568:690   */\ntag_35:\n    /* \"#utility.yul\":641:665   */\n  tag_61\n    /* \"#utility.yul\":659:664   */\n  dup2\n    /* \"#utility.yul\":641:665   */\n  tag_34\n  jump\t// in\ntag_61:\n    /* \"#utility.yul\":634:639   */\n  dup2\n    /* \"#utility.yul\":631:666   */\n  eq\n    /* \"#utility.yul\":621:684   */\n  tag_62\n  jumpi\n    /* \"#utility.yul\":680:681   */\n  0x00\n    /* \"#utility.yul\":677:678   */\n  dup1\n    /* \"#utility.yul\":670:682   */\n  revert\n    /* \"#utility.yul\":621:684   */\ntag_62:\n    /* \"#utility.yul\":568:690   */\n  pop\n  jump\t// out\n    /* \"#utility.yul\":696:839   */\ntag_36:\n    /* \"#utility.yul\":753:758   */\n  0x00\n    /* \"#utility.yul\":784:790   */\n  dup2\n    /* \"#utility.yul\":778:791   */\n  mload\n    /* \"#utility.yul\":769:791   */\n  swap1\n  pop\n    /* \"#utility.yul\":800:833   */\n  tag_64\n    /* \"#utility.yul\":827:832   */\n  dup2\n    /* \"#utility.yul\":800:833   */\n  tag_35\n  jump\t// in\ntag_64:\n    /* \"#utility.yul\":696:839   */\n  swap3\n  swap2\n  pop\n  pop\n  jump\t// out\n    /* \"#utility.yul\":845:962   */\ntag_37:\n    /* \"#utility.yul\":954:955   */\n  0x00\n    /* \"#utility.yul\":951:952   */\n  dup1\n    /* \"#utility.yul\":944:956   */\n  revert\n    /* \"#utility.yul\":968:1085   */\ntag_38:\n    /* \"#utility.yul\":1077:1078   */\n  0x00\n    /* \"#utility.yul\":1074:1075   */\n  dup1\n    /* \"#utility.yul\":1067:1079   */\n  revert\n    /* \"#utility.yul\":1091:1193   */\ntag_39:\n    /* \"#utility.yul\":1132:1138   */\n  0x00\n    /* \"#utility.yul\":1183:1185   */\n  0x1f\n    /* \"#utility.yul\":1179:1186   */\n  not\n    /* \"#utility.yul\":1174:1176   */\n  0x1f\n    /* \"#utility.yul\":1167:1172   */\n  dup4\n    /* \"#utility.yul\":1163:1177   */\n  add\n    /* \"#utility.yul\":1159:1187   */\n  and\n    /* \"#utility.yul\":1149:1187   */\n  swap1\n  pop\n    /* \"#utility.yul\":1091:1193   */\n  swap2\n  swap1\n  pop\n  jump\t// out\n    /* \"#utility.yul\":1199:1379   */\ntag_40:\n    /* \"#utility.yul\":1247:1324   */\n  0x4e487b7100000000000000000000000000000000000000000000000000000000\n    /* \"#utility.yul\":1244:1245   */\n  0x00\n    /* \"#utility.yul\":1237:1325   */\n  mstore\n    /* \"#utility.yul\":1344:1348   */\n  0x41\n    /* \"#utility.yul\":1341:1342   */\n  0x04\n    /* \"#utility.yul\":1334:1349   */\n  mstore\n    /* \"#utility.yul\":1368:1372   */\n  0x24\n    /* \"#utility.yul\":1365:1366   */\n  0x00\n    /* \"#utility.yul\":1358:1373   */\n  revert\n    /* \"#utility.yul\":1385:1666   */\ntag_41:\n    /* \"#utility.yul\":1468:1495   */\n  tag_70\n    /* \"#utility.yul\":1490:1494   */\n  dup3\n    /* \"#utility.yul\":1468:1495   */\n  tag_39\n  jump\t// in\ntag_70:\n    /* \"#utility.yul\":1460:1466   */\n  dup2\n    /* \"#utility.yul\":1456:1496   */\n  add\n    /* \"#utility.yul\":1598:1604   */\n  dup2\n    /* \"#utility.yul\":1586:1596   */\n  dup2\n    /* \"#utility.yul\":1583:1605   */\n  lt\n    /* \"#utility.yul\":1562:1580   */\n  0xffffffffffffffff\n    /* \"#utility.yul\":1550:1560   */\n  dup3\n    /* \"#utility.yul\":1547:1581   */\n  gt\n    /* \"#utility.yul\":1544:1606   */\n  or\n    /* \"#utility.yul\":1541:1629   */\n  iszero\n  tag_71\n  jumpi\n    /* \"#utility.yul\":1609:1627   */\n  tag_72\n  tag_40\n  jump\t// in\ntag_72:\n    /* \"#utility.yul\":1541:1629   */\ntag_71:\n    /* \"#utility.yul\":1649:1659   */\n  dup1\n    /* \"#utility.yul\":1645:1647   */\n  0x40\n    /* \"#utility.yul\":1638:1660   */\n  mstore\n    /* \"#utility.yul\":1428:1666   */\n  pop\n    /* \"#utility.yul\":1385:1666   */\n  pop\n  pop\n  jump\t// out\n    /* \"#utility.yul\":1672:1801   */\ntag_42:\n    /* \"#utility.yul\":1706:1712   */\n  0x00\n    /* \"#utility.yul\":1733:1753   */\n  tag_74\n  tag_30\n  jump\t// in\ntag_74:\n    /* \"#utility.yul\":1723:1753   */\n  swap1\n  pop\n    /* \"#utility.yul\":1762:1795   */\n  tag_75\n    /* \"#utility.yul\":1790:1794   */\n  dup3\n    /* \"#utility.yul\":1782:1788   */\n  dup3\n    /* \"#utility.yul\":1762:1795   */\n  tag_41\n  jump\t// in\ntag_75:\n    /* \"#utility.yul\":1672:1801   */\n  swap2\n  swap1\n  pop\n  jump\t// out\n    /* \"#utility.yul\":1807:2115   */\ntag_43:\n    /* \"#utility.yul\":1869:1873   */\n  0x00\n    /* \"#utility.yul\":1959:1977   */\n  0xffffffffffffffff\n    /* \"#utility.yul\":1951:1957   */\n  dup3\n    /* \"#utility.yul\":1948:1978   */\n  gt\n    /* \"#utility.yul\":1945:2001   */\n  iszero\n  tag_77\n  jumpi\n    /* \"#utility.yul\":1981:1999   */\n  tag_78\n  tag_40\n  jump\t// in\ntag_78:\n    /* \"#utility.yul\":1945:2001   */\ntag_77:\n    /* \"#utility.yul\":2019:2048   */\n  tag_79\n    /* \"#utility.yul\":2041:2047   */\n  dup3\n    /* \"#utility.yul\":2019:2048   */\n  tag_39\n  jump\t// in\ntag_79:\n    /* \"#utility.yul\":2011:2048   */\n  swap1\n  pop\n    /* \"#utility.yul\":2103:2107   */\n  0x20\n    /* \"#utility.yul\":2097:2101   */\n  dup2\n    /* \"#utility.yul\":2093:2108   */\n  add\n    /* \"#utility.yul\":2085:2108   */\n  swap1\n  pop\n    /* \"#utility.yul\":1807:2115   */\n  swap2\n  swap1\n  pop\n  jump\t// out\n    /* \"#utility.yul\":2121:2428   */\ntag_44:\n    /* \"#utility.yul\":2189:2190   */\n  0x00\n    /* \"#utility.yul\":2199:2312   */\ntag_81:\n    /* \"#utility.yul\":2213:2219   */\n  dup4\n    /* \"#utility.yul\":2210:2211   */\n  dup2\n    /* \"#utility.yul\":2207:2220   */\n  lt\n    /* \"#utility.yul\":2199:2312   */\n  iszero\n  tag_83\n  jumpi\n    /* \"#utility.yul\":2298:2299   */\n  dup1\n    /* \"#utility.yul\":2293:2296   */\n  dup3\n    /* \"#utility.yul\":2289:2300   */\n  add\n    /* \"#utility.yul\":2283:2301   */\n  mload\n    /* \"#utility.yul\":2279:2280   */\n  dup2\n    /* \"#utility.yul\":2274:2277   */\n  dup5\n    /* \"#utility.yul\":2270:2281   */\n  add\n    /* \"#utility.yul\":2263:2302   */\n  mstore\n    /* \"#utility.yul\":2235:2237   */\n  0x20\n    /* \"#utility.yul\":2232:2233   */\n  dup2\n    /* \"#utility.yul\":2228:2238   */\n  add\n    /* \"#utility.yul\":2223:2238   */\n  swap1\n  pop\n    /* \"#utility.yul\":2199:2312   */\n  jump(tag_81)\ntag_83:\n    /* \"#utility.yul\":2330:2336   */\n  dup4\n    /* \"#utility.yul\":2327:2328   */\n  dup2\n    /* \"#utility.yul\":2324:2337   */\n  gt\n    /* \"#utility.yul\":2321:2422   */\n  iszero\n  tag_84\n  jumpi\n    /* \"#utility.yul\":2410:2411   */\n  0x00\n    /* \"#utility.yul\":2401:2407   */\n  dup5\n    /* \"#utility.yul\":2396:2399   */\n  dup5\n    /* \"#utility.yul\":2392:2408   */\n  add\n    /* \"#utility.yul\":2385:2412   */\n  mstore\n    /* \"#utility.yul\":2321:2422   */\ntag_84:\n    /* \"#utility.yul\":2170:2428   */\n  pop\n    /* \"#utility.yul\":2121:2428   */\n  pop\n  pop\n  pop\n  jump\t// out\n    /* \"#utility.yul\":2434:2855   */\ntag_45:\n    /* \"#utility.yul\":2523:2528   */\n  0x00\n    /* \"#utility.yul\":2548:2614   */\n  tag_86\n    /* \"#utility.yul\":2564:2613   */\n  tag_87\n    /* \"#utility.yul\":2606:2612   */\n  dup5\n    /* \"#utility.yul\":2564:2613   */\n  tag_43\n  jump\t// in\ntag_87:\n    /* \"#utility.yul\":2548:2614   */\n  tag_42\n  jump\t// in\ntag_86:\n    /* \"#utility.yul\":2539:2614   */\n  swap1\n  pop\n    /* \"#utility.yul\":2637:2643   */\n  dup3\n    /* \"#utility.yul\":2630:2635   */\n  dup2\n    /* \"#utility.yul\":2623:2644   */\n  mstore\n    /* \"#utility.yul\":2675:2679   */\n  0x20\n    /* \"#utility.yul\":2668:2673   */\n  dup2\n    /* \"#utility.yul\":2664:2680   */\n  add\n    /* \"#utility.yul\":2713:2716   */\n  dup5\n    /* \"#utility.yul\":2704:2710   */\n  dup5\n    /* \"#utility.yul\":2699:2702   */\n  dup5\n    /* \"#utility.yul\":2695:2711   */\n  add\n    /* \"#utility.yul\":2692:2717   */\n  gt\n    /* \"#utility.yul\":2689:2801   */\n  iszero\n  tag_88\n  jumpi\n    /* \"#utility.yul\":2720:2799   */\n  tag_89\n  tag_38\n  jump\t// in\ntag_89:\n    /* \"#utility.yul\":2689:2801   */\ntag_88:\n    /* \"#utility.yul\":2810:2849   */\n  tag_90\n    /* \"#utility.yul\":2842:2848   */\n  dup5\n    /* \"#utility.yul\":2837:2840   */\n  dup3\n    /* \"#utility.yul\":2832:2835   */\n  dup6\n    /* \"#utility.yul\":2810:2849   */\n  tag_44\n  jump\t// in\ntag_90:\n    /* \"#utility.yul\":2529:2855   */\n  pop\n    /* \"#utility.yul\":2434:2855   */\n  swap4\n  swap3\n  pop\n  pop\n  pop\n  jump\t// out\n    /* \"#utility.yul\":2875:3230   */\ntag_46:\n    /* \"#utility.yul\":2942:2947   */\n  0x00\n    /* \"#utility.yul\":2991:2994   */\n  dup3\n    /* \"#utility.yul\":2984:2988   */\n  0x1f\n    /* \"#utility.yul\":2976:2982   */\n  dup4\n    /* \"#utility.yul\":2972:2989   */\n  add\n    /* \"#utility.yul\":2968:2995   */\n  slt\n    /* \"#utility.yul\":2958:3080   */\n  tag_92\n  jumpi\n    /* \"#utility.yul\":2999:3078   */\n  tag_93\n  tag_37\n  jump\t// in\ntag_93:\n    /* \"#utility.yul\":2958:3080   */\ntag_92:\n    /* \"#utility.yul\":3109:3115   */\n  dup2\n    /* \"#utility.yul\":3103:3116   */\n  mload\n    /* \"#utility.yul\":3134:3224   */\n  tag_94\n    /* \"#utility.yul\":3220:3223   */\n  dup5\n    /* \"#utility.yul\":3212:3218   */\n  dup3\n    /* \"#utility.yul\":3205:3209   */\n  0x20\n    /* \"#utility.yul\":3197:3203   */\n  dup7\n    /* \"#utility.yul\":3193:3210   */\n  add\n    /* \"#utility.yul\":3134:3224   */\n  tag_45\n  jump\t// in\ntag_94:\n    /* \"#utility.yul\":3125:3224   */\n  swap2\n  pop\n    /* \"#utility.yul\":2948:3230   */\n  pop\n    /* \"#utility.yul\":2875:3230   */\n  swap3\n  swap2\n  pop\n  pop\n  jump\t// out\n    /* \"#utility.yul\":3236:4889   */\ntag_3:\n    /* \"#utility.yul\":3381:3387   */\n  0x00\n    /* \"#utility.yul\":3389:3395   */\n  dup1\n    /* \"#utility.yul\":3397:3403   */\n  0x00\n    /* \"#utility.yul\":3405:3411   */\n  dup1\n    /* \"#utility.yul\":3413:3419   */\n  0x00\n    /* \"#utility.yul\":3421:3427   */\n  dup1\n    /* \"#utility.yul\":3470:3473   */\n  0xc0\n    /* \"#utility.yul\":3458:3467   */\n  dup8\n    /* \"#utility.yul\":3449:3456   */\n  dup10\n    /* \"#utility.yul\":3445:3468   */\n  sub\n    /* \"#utility.yul\":3441:3474   */\n  slt\n    /* \"#utility.yul\":3438:3558   */\n  iszero\n  tag_96\n  jumpi\n    /* \"#utility.yul\":3477:3556   */\n  tag_97\n  tag_31\n  jump\t// in\ntag_97:\n    /* \"#utility.yul\":3438:3558   */\ntag_96:\n    /* \"#utility.yul\":3597:3598   */\n  0x00\n    /* \"#utility.yul\":3622:3686   */\n  tag_98\n    /* \"#utility.yul\":3678:3685   */\n  dup10\n    /* \"#utility.yul\":3669:3675   */\n  dup3\n    /* \"#utility.yul\":3658:3667   */\n  dup11\n    /* \"#utility.yul\":3654:3676   */\n  add\n    /* \"#utility.yul\":3622:3686   */\n  tag_36\n  jump\t// in\ntag_98:\n    /* \"#utility.yul\":3612:3686   */\n  swap7\n  pop\n    /* \"#utility.yul\":3568:3696   */\n  pop\n    /* \"#utility.yul\":3756:3758   */\n  0x20\n    /* \"#utility.yul\":3745:3754   */\n  dup8\n    /* \"#utility.yul\":3741:3759   */\n  add\n    /* \"#utility.yul\":3735:3760   */\n  mload\n    /* \"#utility.yul\":3787:3805   */\n  0xffffffffffffffff\n    /* \"#utility.yul\":3779:3785   */\n  dup2\n    /* \"#utility.yul\":3776:3806   */\n  gt\n    /* \"#utility.yul\":3773:3890   */\n  iszero\n  tag_99\n  jumpi\n    /* \"#utility.yul\":3809:3888   */\n  tag_100\n  tag_32\n  jump\t// in\ntag_100:\n    /* \"#utility.yul\":3773:3890   */\ntag_99:\n    /* \"#utility.yul\":3914:3988   */\n  tag_101\n    /* \"#utility.yul\":3980:3987   */\n  dup10\n    /* \"#utility.yul\":3971:3977   */\n  dup3\n    /* \"#utility.yul\":3960:3969   */\n  dup11\n    /* \"#utility.yul\":3956:3978   */\n  add\n    /* \"#utility.yul\":3914:3988   */\n  tag_46\n  jump\t// in\ntag_101:\n    /* \"#utility.yul\":3904:3988   */\n  swap6\n  pop\n    /* \"#utility.yul\":3706:3998   */\n  pop\n    /* \"#utility.yul\":4058:4060   */\n  0x40\n    /* \"#utility.yul\":4047:4056   */\n  dup8\n    /* \"#utility.yul\":4043:4061   */\n  add\n    /* \"#utility.yul\":4037:4062   */\n  mload\n    /* \"#utility.yul\":4089:4107   */\n  0xffffffffffffffff\n    /* \"#utility.yul\":4081:4087   */\n  dup2\n    /* \"#utility.yul\":4078:4108   */\n  gt\n    /* \"#utility.yul\":4075:4192   */\n  iszero\n  tag_102\n  jumpi\n    /* \"#utility.yul\":4111:4190   */\n  tag_103\n  tag_32\n  jump\t// in\ntag_103:\n    /* \"#utility.yul\":4075:4192   */\ntag_102:\n    /* \"#utility.yul\":4216:4290   */\n  tag_104\n    /* \"#utility.yul\":4282:4289   */\n  dup10\n    /* \"#utility.yul\":4273:4279   */\n  dup3\n    /* \"#utility.yul\":4262:4271   */\n  dup11\n    /* \"#utility.yul\":4258:4280   */\n  add\n    /* \"#utility.yul\":4216:4290   */\n  tag_46\n  jump\t// in\ntag_104:\n    /* \"#utility.yul\":4206:4290   */\n  swap5\n  pop\n    /* \"#utility.yul\":4008:4300   */\n  pop\n    /* \"#utility.yul\":4360:4362   */\n  0x60\n    /* \"#utility.yul\":4349:4358   */\n  dup8\n    /* \"#utility.yul\":4345:4363   */\n  add\n    /* \"#utility.yul\":4339:4364   */\n  mload\n    /* \"#utility.yul\":4391:4409   */\n  0xffffffffffffffff\n    /* \"#utility.yul\":4383:4389   */\n  dup2\n    /* \"#utility.yul\":4380:4410   */\n  gt\n    /* \"#utility.yul\":4377:4494   */\n  iszero\n  tag_105\n  jumpi\n    /* \"#utility.yul\":4413:4492   */\n  tag_106\n  tag_32\n  jump\t// in\ntag_106:\n    /* \"#utility.yul\":4377:4494   */\ntag_105:\n    /* \"#utility.yul\":4518:4592   */\n  tag_107\n    /* \"#utility.yul\":4584:4591   */\n  dup10\n    /* \"#utility.yul\":4575:4581   */\n  dup3\n    /* \"#utility.yul\":4564:4573   */\n  dup11\n    /* \"#utility.yul\":4560:4582   */\n  add\n    /* \"#utility.yul\":4518:4592   */\n  tag_46\n  jump\t// in\ntag_107:\n    /* \"#utility.yul\":4508:4592   */\n  swap4\n  pop\n    /* \"#utility.yul\":4310:4602   */\n  pop\n    /* \"#utility.yul\":4641:4644   */\n  0x80\n    /* \"#utility.yul\":4668:4732   */\n  tag_108\n    /* \"#utility.yul\":4724:4731   */\n  dup10\n    /* \"#utility.yul\":4715:4721   */\n  dup3\n    /* \"#utility.yul\":4704:4713   */\n  dup11\n    /* \"#utility.yul\":4700:4722   */\n  add\n    /* \"#utility.yul\":4668:4732   */\n  tag_36\n  jump\t// in\ntag_108:\n    /* \"#utility.yul\":4658:4732   */\n  swap3\n  pop\n    /* \"#utility.yul\":4612:4742   */\n  pop\n    /* \"#utility.yul\":4781:4784   */\n  0xa0\n    /* \"#utility.yul\":4808:4872   */\n  tag_109\n    /* \"#utility.yul\":4864:4871   */\n  dup10\n    /* \"#utility.yul\":4855:4861   */\n  dup3\n    /* \"#utility.yul\":4844:4853   */\n  dup11\n    /* \"#utility.yul\":4840:4862   */\n  add\n    /* \"#utility.yul\":4808:4872   */\n  tag_36\n  jump\t// in\ntag_109:\n    /* \"#utility.yul\":4798:4872   */\n  swap2\n  pop\n    /* \"#utility.yul\":4752:4882   */\n  pop\n    /* \"#utility.yul\":3236:4889   */\n  swap3\n  swap6\n  pop\n  swap3\n  swap6\n  pop\n  swap3\n  swap6\n  jump\t// out\n    /* \"#utility.yul\":4895:5043   */\ntag_47:\n    /* \"#utility.yul\":4997:5008   */\n  0x00\n    /* \"#utility.yul\":5034:5037   */\n  dup2\n    /* \"#utility.yul\":5019:5037   */\n  swap1\n  pop\n    /* \"#utility.yul\":4895:5043   */\n  swap3\n  swap2\n  pop\n  pop\n  jump\t// out\n    /* \"#utility.yul\":5049:5201   */\ntag_48:\n    /* \"#utility.yul\":5189:5193   */\n  0x2520000000000000000000000000000000000000000000000000000000000000\n    /* \"#utility.yul\":5185:5186   */\n  0x00\n    /* \"#utility.yul\":5177:5183   */\n  dup3\n    /* \"#utility.yul\":5173:5187   */\n  add\n    /* \"#utility.yul\":5166:5194   */\n  mstore\n    /* \"#utility.yul\":5049:5201   */\n  pop\n  jump\t// out\n    /* \"#utility.yul\":5207:5607   */\ntag_49:\n    /* \"#utility.yul\":5367:5370   */\n  0x00\n    /* \"#utility.yul\":5388:5472   */\n  tag_113\n    /* \"#utility.yul\":5470:5471   */\n  0x02\n    /* \"#utility.yul\":5465:5468   */\n  dup4\n    /* \"#utility.yul\":5388:5472   */\n  tag_47\n  jump\t// in\ntag_113:\n    /* \"#utility.yul\":5381:5472   */\n  swap2\n  pop\n    /* \"#utility.yul\":5481:5574   */\n  tag_114\n    /* \"#utility.yul\":5570:5573   */\n  dup3\n    /* \"#utility.yul\":5481:5574   */\n  tag_48\n  jump\t// in\ntag_114:\n    /* \"#utility.yul\":5599:5600   */\n  0x02\n    /* \"#utility.yul\":5594:5597   */\n  dup3\n    /* \"#utility.yul\":5590:5601   */\n  add\n    /* \"#utility.yul\":5583:5601   */\n  swap1\n  pop\n    /* \"#utility.yul\":5207:5607   */\n  swap2\n  swap1\n  pop\n  jump\t// out\n    /* \"#utility.yul\":5613:5712   */\ntag_50:\n    /* \"#utility.yul\":5665:5671   */\n  0x00\n    /* \"#utility.yul\":5699:5704   */\n  dup2\n    /* \"#utility.yul\":5693:5705   */\n  mload\n    /* \"#utility.yul\":5683:5705   */\n  swap1\n  pop\n    /* \"#utility.yul\":5613:5712   */\n  swap2\n  swap1\n  pop\n  jump\t// out\n    /* \"#utility.yul\":5718:6095   */\ntag_51:\n    /* \"#utility.yul\":5824:5827   */\n  0x00\n    /* \"#utility.yul\":5852:5891   */\n  tag_117\n    /* \"#utility.yul\":5885:5890   */\n  dup3\n    /* \"#utility.yul\":5852:5891   */\n  tag_50\n  jump\t// in\ntag_117:\n    /* \"#utility.yul\":5907:5996   */\n  tag_118\n    /* \"#utility.yul\":5989:5995   */\n  dup2\n    /* \"#utility.yul\":5984:5987   */\n  dup6\n    /* \"#utility.yul\":5907:5996   */\n  tag_47\n  jump\t// in\ntag_118:\n    /* \"#utility.yul\":5900:5996   */\n  swap4\n  pop\n    /* \"#utility.yul\":6005:6057   */\n  tag_119\n    /* \"#utility.yul\":6050:6056   */\n  dup2\n    /* \"#utility.yul\":6045:6048   */\n  dup6\n    /* \"#utility.yul\":6038:6042   */\n  0x20\n    /* \"#utility.yul\":6031:6036   */\n  dup7\n    /* \"#utility.yul\":6027:6043   */\n  add\n    /* \"#utility.yul\":6005:6057   */\n  tag_44\n  jump\t// in\ntag_119:\n    /* \"#utility.yul\":6082:6088   */\n  dup1\n    /* \"#utility.yul\":6077:6080   */\n  dup5\n    /* \"#utility.yul\":6073:6089   */\n  add\n    /* \"#utility.yul\":6066:6089   */\n  swap2\n  pop\n    /* \"#utility.yul\":5828:6095   */\n  pop\n    /* \"#utility.yul\":5718:6095   */\n  swap3\n  swap2\n  pop\n  pop\n  jump\t// out\n    /* \"#utility.yul\":6101:6642   */\ntag_13:\n    /* \"#utility.yul\":6334:6337   */\n  0x00\n    /* \"#utility.yul\":6356:6504   */\n  tag_121\n    /* \"#utility.yul\":6500:6503   */\n  dup3\n    /* \"#utility.yul\":6356:6504   */\n  tag_49\n  jump\t// in\ntag_121:\n    /* \"#utility.yul\":6349:6504   */\n  swap2\n  pop\n    /* \"#utility.yul\":6521:6616   */\n  tag_122\n    /* \"#utility.yul\":6612:6615   */\n  dup3\n    /* \"#utility.yul\":6603:6609   */\n  dup5\n    /* \"#utility.yul\":6521:6616   */\n  tag_51\n  jump\t// in\ntag_122:\n    /* \"#utility.yul\":6514:6616   */\n  swap2\n  pop\n    /* \"#utility.yul\":6633:6636   */\n  dup2\n    /* \"#utility.yul\":6626:6636   */\n  swap1\n  pop\n    /* \"#utility.yul\":6101:6642   */\n  swap3\n  swap2\n  pop\n  pop\n  jump\t// out\n    /* \"#utility.yul\":6648:6828   */\ntag_52:\n    /* \"#utility.yul\":6696:6773   */\n  0x4e487b7100000000000000000000000000000000000000000000000000000000\n    /* \"#utility.yul\":6693:6694   */\n  0x00\n    /* \"#utility.yul\":6686:6774   */\n  mstore\n    /* \"#utility.yul\":6793:6797   */\n  0x22\n    /* \"#utility.yul\":6790:6791   */\n  0x04\n    /* \"#utility.yul\":6783:6798   */\n  mstore\n    /* \"#utility.yul\":6817:6821   */\n  0x24\n    /* \"#utility.yul\":6814:6815   */\n  0x00\n    /* \"#utility.yul\":6807:6822   */\n  revert\n    /* \"#utility.yul\":6834:7154   */\ntag_20:\n    /* \"#utility.yul\":6878:6884   */\n  0x00\n    /* \"#utility.yul\":6915:6916   */\n  0x02\n    /* \"#utility.yul\":6909:6913   */\n  dup3\n    /* \"#utility.yul\":6905:6917   */\n  div\n    /* \"#utility.yul\":6895:6917   */\n  swap1\n  pop\n    /* \"#utility.yul\":6962:6963   */\n  0x01\n    /* \"#utility.yul\":6956:6960   */\n  dup3\n    /* \"#utility.yul\":6952:6964   */\n  and\n    /* \"#utility.yul\":6983:7001   */\n  dup1\n    /* \"#utility.yul\":6973:7054   */\n  tag_125\n  jumpi\n    /* \"#utility.yul\":7039:7043   */\n  0x7f\n    /* \"#utility.yul\":7031:7037   */\n  dup3\n    /* \"#utility.yul\":7027:7044   */\n  and\n    /* \"#utility.yul\":7017:7044   */\n  swap2\n  pop\n    /* \"#utility.yul\":6973:7054   */\ntag_125:\n    /* \"#utility.yul\":7101:7103   */\n  0x20\n    /* \"#utility.yul\":7093:7099   */\n  dup3\n    /* \"#utility.yul\":7090:7104   */\n  lt\n    /* \"#utility.yul\":7070:7088   */\n  dup2\n    /* \"#utility.yul\":7067:7105   */\n  sub\n    /* \"#utility.yul\":7064:7148   */\n  tag_126\n  jumpi\n    /* \"#utility.yul\":7120:7138   */\n  tag_127\n  tag_52\n  jump\t// in\ntag_127:\n    /* \"#utility.yul\":7064:7148   */\ntag_126:\n    /* \"#utility.yul\":6885:7154   */\n  pop\n    /* \"#utility.yul\":6834:7154   */\n  swap2\n  swap1\n  pop\n  jump\t// out\n    /* \"contracts/DvTicket.sol\":315:5317  contract DvTicket is Context, DeVest, ReentrancyGuard, VestingToken {... */\ntag_18:\n  dataSize(sub_0)\n  dup1\n  dataOffset(sub_0)\n  0x00\n  codecopy\n  0x00\n  return\nstop\n\nsub_0: assembly {\n        /* \"contracts/DvTicket.sol\":315:5317  contract DvTicket is Context, DeVest, ReentrancyGuard, VestingToken {... */\n      mstore(0x40, 0x80)\n      jumpi(tag_1, lt(calldatasize, 0x04))\n      shr(0xe0, calldataload(0x00))\n      dup1\n      0x8546d002\n      gt\n      tag_21\n      jumpi\n      dup1\n      0xa9059cbb\n      gt\n      tag_22\n      jumpi\n      dup1\n      0xa9059cbb\n      eq\n      tag_16\n      jumpi\n      dup1\n      0xb9186d7d\n      eq\n      tag_17\n      jumpi\n      dup1\n      0xc87b56dd\n      eq\n      tag_18\n      jumpi\n      dup1\n      0xefef39a1\n      eq\n      tag_19\n      jumpi\n      dup1\n      0xf2fde38b\n      eq\n      tag_20\n      jumpi\n      jump(tag_1)\n    tag_22:\n      dup1\n      0x8546d002\n      eq\n      tag_11\n      jumpi\n      dup1\n      0x879f9c96\n      eq\n      tag_12\n      jumpi\n      dup1\n      0x8da5cb5b\n      eq\n      tag_13\n      jumpi\n      dup1\n      0xa035b1fe\n      eq\n      tag_14\n      jumpi\n      dup1\n      0xa1920586\n      eq\n      tag_15\n      jumpi\n      jump(tag_1)\n    tag_21:\n      dup1\n      0x4d47732a\n      gt\n      tag_23\n      jumpi\n      dup1\n      0x4d47732a\n      eq\n      tag_6\n      jumpi\n      dup1\n      0x5de42985\n      eq\n      tag_7\n      jumpi\n      dup1\n      0x6352211e\n      eq\n      tag_8\n      jumpi\n      dup1\n      0x70a08231\n      eq\n      tag_9\n      jumpi\n      dup1\n      0x80d85911\n      eq\n      tag_10\n      jumpi\n      jump(tag_1)\n    tag_23:\n      dup1\n      0x01ffc9a7\n      eq\n      tag_2\n      jumpi\n      dup1\n      0x18160ddd\n      eq\n      tag_3\n      jumpi\n      dup1\n      0x225435c0\n      eq\n      tag_4\n      jumpi\n      dup1\n      0x3ccfd60b\n      eq\n      tag_5\n      jumpi\n    tag_1:\n      0x00\n      dup1\n      revert\n        /* \"contracts/DvTicket.sol\":5207:5315  function supportsInterface(bytes4 /*interfaceId*/) external pure returns (bool){... */\n    tag_2:\n      callvalue\n      dup1\n      iszero\n      tag_24\n      jumpi\n      0x00\n      dup1\n      revert\n    tag_24:\n      pop\n      tag_25\n      0x04\n      dup1\n      calldatasize\n      sub\n      dup2\n      add\n      swap1\n      tag_26\n      swap2\n      swap1\n      tag_27\n      jump\t// in\n    tag_26:\n      tag_28\n      jump\t// in\n    tag_25:\n      mload(0x40)\n      tag_29\n      swap2\n      swap1\n      tag_30\n      jump\t// in\n    tag_29:\n      mload(0x40)\n      dup1\n      swap2\n      sub\n      swap1\n      return\n        /* \"contracts/DvTicket.sol\":598:624  uint256 public totalSupply */\n    tag_3:\n      callvalue\n      dup1\n      iszero\n      tag_31\n      jumpi\n      0x00\n      dup1\n      revert\n    tag_31:\n      pop\n      tag_32\n      tag_33\n      jump\t// in\n    tag_32:\n      mload(0x40)\n      tag_34\n      swap2\n      swap1\n      tag_35\n      jump\t// in\n    tag_34:\n      mload(0x40)\n      dup1\n      swap2\n      sub\n      swap1\n      return\n        /* \"@devest/contracts/DeVest.sol\":3183:3351  function detach() public virtual {... */\n    tag_4:\n      callvalue\n      dup1\n      iszero\n      tag_36\n      jumpi\n      0x00\n      dup1\n      revert\n    tag_36:\n      pop\n      tag_37\n      tag_38\n      jump\t// in\n    tag_37:\n      stop\n        /* \"contracts/DvTicket.sol\":4890:4992  function withdraw() external onlyOwner {... */\n    tag_5:\n      callvalue\n      dup1\n      iszero\n      tag_39\n      jumpi\n      0x00\n      dup1\n      revert\n    tag_39:\n      pop\n      tag_40\n      tag_41\n      jump\t// in\n    tag_40:\n      stop\n        /* \"@devest/contracts/DeVest.sol\":3012:3104  function getRoyalty() public view virtual returns (uint256) {... */\n    tag_6:\n      callvalue\n      dup1\n      iszero\n      tag_42\n      jumpi\n      0x00\n      dup1\n      revert\n    tag_42:\n      pop\n      tag_43\n      tag_44\n      jump\t// in\n    tag_43:\n      mload(0x40)\n      tag_45\n      swap2\n      swap1\n      tag_35\n      jump\t// in\n    tag_45:\n      mload(0x40)\n      dup1\n      swap2\n      sub\n      swap1\n      return\n        /* \"@devest/contracts/DeVest.sol\":2025:2188  function setRoyalties(uint256 __royalty, address __royaltyRecipient) public payable takeFee onlyOwner {... */\n    tag_7:\n      tag_46\n      0x04\n      dup1\n      calldatasize\n      sub\n      dup2\n      add\n      swap1\n      tag_47\n      swap2\n      swap1\n      tag_48\n      jump\t// in\n    tag_47:\n      tag_49\n      jump\t// in\n    tag_46:\n      stop\n        /* \"contracts/DvTicket.sol\":2086:2197  function ownerOf(uint256 tokenId) public view returns (address owner) {... */\n    tag_8:\n      callvalue\n      dup1\n      iszero\n      tag_50\n      jumpi\n      0x00\n      dup1\n      revert\n    tag_50:\n      pop\n      tag_51\n      0x04\n      dup1\n      calldatasize\n      sub\n      dup2\n      add\n      swap1\n      tag_52\n      swap2\n      swap1\n      tag_53\n      jump\t// in\n    tag_52:\n      tag_54\n      jump\t// in\n    tag_51:\n      mload(0x40)\n      tag_55\n      swap2\n      swap1\n      tag_56\n      jump\t// in\n    tag_55:\n      mload(0x40)\n      dup1\n      swap2\n      sub\n      swap1\n      return\n        /* \"contracts/DvTicket.sol\":2256:2443  function balanceOf(address owner) public view virtual returns (uint256) {... */\n    tag_9:\n      callvalue\n      dup1\n      iszero\n      tag_57\n      jumpi\n      0x00\n      dup1\n      revert\n    tag_57:\n      pop\n      tag_58\n      0x04\n      dup1\n      calldatasize\n      sub\n      dup2\n      add\n      swap1\n      tag_59\n      swap2\n      swap1\n      tag_60\n      jump\t// in\n    tag_59:\n      tag_61\n      jump\t// in\n    tag_58:\n      mload(0x40)\n      tag_62\n      swap2\n      swap1\n      tag_35\n      jump\t// in\n    tag_62:\n      mload(0x40)\n      dup1\n      swap2\n      sub\n      swap1\n      return\n        /* \"contracts/DvTicket.sol\":1702:2080  function initialize(uint tax, uint256 _totalSupply, uint256 _price) public onlyOwner nonReentrant virtual{... */\n    tag_10:\n      callvalue\n      dup1\n      iszero\n      tag_63\n      jumpi\n      0x00\n      dup1\n      revert\n    tag_63:\n      pop\n      tag_64\n      0x04\n      dup1\n      calldatasize\n      sub\n      dup2\n      add\n      swap1\n      tag_65\n      swap2\n      swap1\n      tag_66\n      jump\t// in\n    tag_65:\n      tag_67\n      jump\t// in\n    tag_64:\n      stop\n        /* \"contracts/DvTicket.sol\":4197:4324  function isForSale(uint256 ticketId) public view returns (bool) {... */\n    tag_11:\n      callvalue\n      dup1\n      iszero\n      tag_68\n      jumpi\n      0x00\n      dup1\n      revert\n    tag_68:\n      pop\n      tag_69\n      0x04\n      dup1\n      calldatasize\n      sub\n      dup2\n      add\n      swap1\n      tag_70\n      swap2\n      swap1\n      tag_53\n      jump\t// in\n    tag_70:\n      tag_71\n      jump\t// in\n    tag_69:\n      mload(0x40)\n      tag_72\n      swap2\n      swap1\n      tag_30\n      jump\t// in\n    tag_72:\n      mload(0x40)\n      dup1\n      swap2\n      sub\n      swap1\n      return\n        /* \"contracts/DvTicket.sol\":630:658  uint256 public purchased = 0 */\n    tag_12:\n      callvalue\n      dup1\n      iszero\n      tag_73\n      jumpi\n      0x00\n      dup1\n      revert\n    tag_73:\n      pop\n      tag_74\n      tag_75\n      jump\t// in\n    tag_74:\n      mload(0x40)\n      tag_76\n      swap2\n      swap1\n      tag_35\n      jump\t// in\n    tag_76:\n      mload(0x40)\n      dup1\n      swap2\n      sub\n      swap1\n      return\n        /* \"@devest/contracts/DeVest.sol\":2862:2947  function owner() public view virtual returns (address) {... */\n    tag_13:\n      callvalue\n      dup1\n      iszero\n      tag_77\n      jumpi\n      0x00\n      dup1\n      revert\n    tag_77:\n      pop\n      tag_78\n      tag_79\n      jump\t// in\n    tag_78:\n      mload(0x40)\n      tag_80\n      swap2\n      swap1\n      tag_56\n      jump\t// in\n    tag_80:\n      mload(0x40)\n      dup1\n      swap2\n      sub\n      swap1\n      return\n        /* \"contracts/DvTicket.sol\":571:591  uint256 public price */\n    tag_14:\n      callvalue\n      dup1\n      iszero\n      tag_81\n      jumpi\n      0x00\n      dup1\n      revert\n    tag_81:\n      pop\n      tag_82\n      tag_83\n      jump\t// in\n    tag_82:\n      mload(0x40)\n      tag_84\n      swap2\n      swap1\n      tag_35\n      jump\t// in\n    tag_84:\n      mload(0x40)\n      dup1\n      swap2\n      sub\n      swap1\n      return\n        /* \"contracts/DvTicket.sol\":4496:4811  function offer(uint256 ticketId, uint256 _price) public payable takeFee {... */\n    tag_15:\n      tag_85\n      0x04\n      dup1\n      calldatasize\n      sub\n      dup2\n      add\n      swap1\n      tag_86\n      swap2\n      swap1\n      tag_87\n      jump\t// in\n    tag_86:\n      tag_88\n      jump\t// in\n    tag_85:\n      stop\n        /* \"contracts/DvTicket.sol\":2472:2858  function transfer(address to, uint256 ticketId) external payable takeFee {... */\n    tag_16:\n      tag_89\n      0x04\n      dup1\n      calldatasize\n      sub\n      dup2\n      add\n      swap1\n      tag_90\n      swap2\n      swap1\n      tag_91\n      jump\t// in\n    tag_90:\n      tag_92\n      jump\t// in\n    tag_89:\n      stop\n        /* \"contracts/DvTicket.sol\":4330:4443  function priceOf(uint256 ticketId) public view returns (uint256) {... */\n    tag_17:\n      callvalue\n      dup1\n      iszero\n      tag_93\n      jumpi\n      0x00\n      dup1\n      revert\n    tag_93:\n      pop\n      tag_94\n      0x04\n      dup1\n      calldatasize\n      sub\n      dup2\n      add\n      swap1\n      tag_95\n      swap2\n      swap1\n      tag_53\n      jump\t// in\n    tag_95:\n      tag_96\n      jump\t// in\n    tag_94:\n      mload(0x40)\n      tag_97\n      swap2\n      swap1\n      tag_35\n      jump\t// in\n    tag_97:\n      mload(0x40)\n      dup1\n      swap2\n      sub\n      swap1\n      return\n        /* \"contracts/DvTicket.sol\":5092:5201  function tokenURI(uint256 /*tokenId*/) external view returns (string memory){... */\n    tag_18:\n      callvalue\n      dup1\n      iszero\n      tag_98\n      jumpi\n      0x00\n      dup1\n      revert\n    tag_98:\n      pop\n      tag_99\n      0x04\n      dup1\n      calldatasize\n      sub\n      dup2\n      add\n      swap1\n      tag_100\n      swap2\n      swap1\n      tag_53\n      jump\t// in\n    tag_100:\n      tag_101\n      jump\t// in\n    tag_99:\n      mload(0x40)\n      tag_102\n      swap2\n      swap1\n      tag_103\n      jump\t// in\n    tag_102:\n      mload(0x40)\n      dup1\n      swap2\n      sub\n      swap1\n      return\n        /* \"contracts/DvTicket.sol\":2887:4191  function purchase(uint256 ticketId) external payable {... */\n    tag_19:\n      tag_104\n      0x04\n      dup1\n      calldatasize\n      sub\n      dup2\n      add\n      swap1\n      tag_105\n      swap2\n      swap1\n      tag_53\n      jump\t// in\n    tag_105:\n      tag_106\n      jump\t// in\n    tag_104:\n      stop\n        /* \"@devest/contracts/DeVest.sol\":2599:2786  function transferOwnership(address newOwner) public virtual onlyOwner {... */\n    tag_20:\n      callvalue\n      dup1\n      iszero\n      tag_107\n      jumpi\n      0x00\n      dup1\n      revert\n    tag_107:\n      pop\n      tag_108\n      0x04\n      dup1\n      calldatasize\n      sub\n      dup2\n      add\n      swap1\n      tag_109\n      swap2\n      swap1\n      tag_60\n      jump\t// in\n    tag_109:\n      tag_110\n      jump\t// in\n    tag_108:\n      stop\n        /* \"contracts/DvTicket.sol\":5207:5315  function supportsInterface(bytes4 /*interfaceId*/) external pure returns (bool){... */\n    tag_28:\n        /* \"contracts/DvTicket.sol\":5281:5285  bool */\n      0x00\n        /* \"contracts/DvTicket.sol\":5207:5315  function supportsInterface(bytes4 /*interfaceId*/) external pure returns (bool){... */\n      swap2\n      swap1\n      pop\n      jump\t// out\n        /* \"contracts/DvTicket.sol\":598:624  uint256 public totalSupply */\n    tag_33:\n      sload(0x07)\n      dup2\n      jump\t// out\n        /* \"@devest/contracts/DeVest.sol\":3183:3351  function detach() public virtual {... */\n    tag_38:\n        /* \"@devest/contracts/DeVest.sol\":3255:3267  _msgSender() */\n      tag_113\n        /* \"@devest/contracts/DeVest.sol\":3255:3265  _msgSender */\n      tag_114\n        /* \"@devest/contracts/DeVest.sol\":3255:3267  _msgSender() */\n      jump\t// in\n    tag_113:\n        /* \"@devest/contracts/DeVest.sol\":3234:3267  address(_factory) == _msgSender() */\n      0xffffffffffffffffffffffffffffffffffffffff\n      and\n        /* \"@devest/contracts/DeVest.sol\":3242:3250  _factory */\n      0x00\n      dup1\n      sload\n      swap1\n      0x0100\n      exp\n      swap1\n      div\n      0xffffffffffffffffffffffffffffffffffffffff\n      and\n        /* \"@devest/contracts/DeVest.sol\":3234:3267  address(_factory) == _msgSender() */\n      0xffffffffffffffffffffffffffffffffffffffff\n      and\n      eq\n        /* \"@devest/contracts/DeVest.sol\":3226:3302  require(address(_factory) == _msgSender(), \"Only factory can detach itself\") */\n      tag_115\n      jumpi\n      mload(0x40)\n      0x08c379a000000000000000000000000000000000000000000000000000000000\n      dup2\n      mstore\n      0x04\n      add\n      tag_116\n      swap1\n      tag_117\n      jump\t// in\n    tag_116:\n      mload(0x40)\n      dup1\n      swap2\n      sub\n      swap1\n      revert\n    tag_115:\n        /* \"@devest/contracts/DeVest.sol\":3341:3342  0 */\n      0x00\n        /* \"@devest/contracts/DeVest.sol\":3312:3320  _factory */\n      dup1\n      0x00\n        /* \"@devest/contracts/DeVest.sol\":3312:3344  _factory = DvFactory(address(0)) */\n      0x0100\n      exp\n      dup2\n      sload\n      dup2\n      0xffffffffffffffffffffffffffffffffffffffff\n      mul\n      not\n      and\n      swap1\n      dup4\n      0xffffffffffffffffffffffffffffffffffffffff\n      and\n      mul\n      or\n      swap1\n      sstore\n      pop\n        /* \"@devest/contracts/DeVest.sol\":3183:3351  function detach() public virtual {... */\n      jump\t// out\n        /* \"contracts/DvTicket.sol\":4890:4992  function withdraw() external onlyOwner {... */\n    tag_41:\n        /* \"@devest/contracts/DeVest.sol\":1357:1369  _msgSender() */\n      tag_119\n        /* \"@devest/contracts/DeVest.sol\":1357:1367  _msgSender */\n      tag_114\n        /* \"@devest/contracts/DeVest.sol\":1357:1369  _msgSender() */\n      jump\t// in\n    tag_119:\n        /* \"@devest/contracts/DeVest.sol\":1347:1369  _owner == _msgSender() */\n      0xffffffffffffffffffffffffffffffffffffffff\n      and\n        /* \"@devest/contracts/DeVest.sol\":1347:1353  _owner */\n      0x01\n      0x00\n      swap1\n      sload\n      swap1\n      0x0100\n      exp\n      swap1\n      div\n      0xffffffffffffffffffffffffffffffffffffffff\n      and\n        /* \"@devest/contracts/DeVest.sol\":1347:1369  _owner == _msgSender() */\n      0xffffffffffffffffffffffffffffffffffffffff\n      and\n      eq\n        /* \"@devest/contracts/DeVest.sol\":1339:1404  require(_owner == _msgSender(), \"Owner: caller is not the owner\") */\n      tag_120\n      jumpi\n      mload(0x40)\n      0x08c379a000000000000000000000000000000000000000000000000000000000\n      dup2\n      mstore\n      0x04\n      add\n      tag_121\n      swap1\n      tag_122\n      jump\t// in\n    tag_121:\n      mload(0x40)\n      dup1\n      swap2\n      sub\n      swap1\n      revert\n    tag_120:\n        /* \"contracts/DvTicket.sol\":4939:4985  __transfer(_owner, __balanceOf(address(this))) */\n      tag_124\n        /* \"contracts/DvTicket.sol\":4950:4956  _owner */\n      0x01\n      0x00\n      swap1\n      sload\n      swap1\n      0x0100\n      exp\n      swap1\n      div\n      0xffffffffffffffffffffffffffffffffffffffff\n      and\n        /* \"contracts/DvTicket.sol\":4958:4984  __balanceOf(address(this)) */\n      tag_125\n        /* \"contracts/DvTicket.sol\":4978:4982  this */\n      address\n        /* \"contracts/DvTicket.sol\":4958:4969  __balanceOf */\n      tag_126\n        /* \"contracts/DvTicket.sol\":4958:4984  __balanceOf(address(this)) */\n      jump\t// in\n    tag_125:\n        /* \"contracts/DvTicket.sol\":4939:4949  __transfer */\n      tag_127\n        /* \"contracts/DvTicket.sol\":4939:4985  __transfer(_owner, __balanceOf(address(this))) */\n      jump\t// in\n    tag_124:\n        /* \"contracts/DvTicket.sol\":4890:4992  function withdraw() external onlyOwner {... */\n      jump\t// out\n        /* \"@devest/contracts/DeVest.sol\":3012:3104  function getRoyalty() public view virtual returns (uint256) {... */\n    tag_44:\n        /* \"@devest/contracts/DeVest.sol\":3063:3070  uint256 */\n      0x00\n        /* \"@devest/contracts/DeVest.sol\":3089:3097  _royalty */\n      sload(0x03)\n        /* \"@devest/contracts/DeVest.sol\":3082:3097  return _royalty */\n      swap1\n      pop\n        /* \"@devest/contracts/DeVest.sol\":3012:3104  function getRoyalty() public view virtual returns (uint256) {... */\n      swap1\n      jump\t// out\n        /* \"@devest/contracts/DeVest.sol\":2025:2188  function setRoyalties(uint256 __royalty, address __royaltyRecipient) public payable takeFee onlyOwner {... */\n    tag_49:\n        /* \"@devest/contracts/DeVest.sol\":1617:1618  0 */\n      0x00\n        /* \"@devest/contracts/DeVest.sol\":1587:1620  _factory == DvFactory(address(0)) */\n      0xffffffffffffffffffffffffffffffffffffffff\n      and\n        /* \"@devest/contracts/DeVest.sol\":1587:1595  _factory */\n      0x00\n      dup1\n      sload\n      swap1\n      0x0100\n      exp\n      swap1\n      div\n      0xffffffffffffffffffffffffffffffffffffffff\n      and\n        /* \"@devest/contracts/DeVest.sol\":1587:1620  _factory == DvFactory(address(0)) */\n      0xffffffffffffffffffffffffffffffffffffffff\n      and\n      sub\n        /* \"@devest/contracts/DeVest.sol\":1583:1641  if (_factory == DvFactory(address(0)))... */\n      iszero\n        /* \"@devest/contracts/DeVest.sol\":1634:1641  return; */\n      tag_129\n        /* \"@devest/contracts/DeVest.sol\":1583:1641  if (_factory == DvFactory(address(0)))... */\n      jumpi\n        /* \"@devest/contracts/DeVest.sol\":1651:1668  address recipient */\n      0x00\n        /* \"@devest/contracts/DeVest.sol\":1678:1689  uint256 fee */\n      dup1\n        /* \"@devest/contracts/DeVest.sol\":1751:1759  _factory */\n      0x00\n      dup1\n      sload\n      swap1\n      0x0100\n      exp\n      swap1\n      div\n      0xffffffffffffffffffffffffffffffffffffffff\n      and\n        /* \"@devest/contracts/DeVest.sol\":1751:1766  _factory.getFee */\n      0xffffffffffffffffffffffffffffffffffffffff\n      and\n      0xced72f87\n        /* \"@devest/contracts/DeVest.sol\":1751:1768  _factory.getFee() */\n      mload(0x40)\n      dup2\n      0xffffffff\n      and\n      0xe0\n      shl\n      dup2\n      mstore\n      0x04\n      add\n      0x40\n      dup1\n      mload\n      dup1\n      dup4\n      sub\n      dup2\n      dup7\n      gas\n      staticcall\n      iszero\n      dup1\n      iszero\n      tag_132\n      jumpi\n      returndatasize\n      0x00\n      dup1\n      returndatacopy\n      revert(0x00, returndatasize)\n    tag_132:\n      pop\n      pop\n      pop\n      pop\n      mload(0x40)\n      returndatasize\n      not(0x1f)\n      0x1f\n      dup3\n      add\n      and\n      dup3\n      add\n      dup1\n      0x40\n      mstore\n      pop\n      dup2\n      add\n      swap1\n      tag_133\n      swap2\n      swap1\n      tag_134\n      jump\t// in\n    tag_133:\n        /* \"@devest/contracts/DeVest.sol\":1734:1768  (fee,recipient)= _factory.getFee() */\n      dup1\n      swap4\n      pop\n      dup2\n      swap3\n      pop\n      pop\n      pop\n        /* \"@devest/contracts/DeVest.sol\":1847:1850  fee */\n      dup1\n        /* \"@devest/contracts/DeVest.sol\":1834:1843  msg.value */\n      callvalue\n        /* \"@devest/contracts/DeVest.sol\":1834:1850  msg.value >= fee */\n      lt\n      iszero\n        /* \"@devest/contracts/DeVest.sol\":1826:1880  require(msg.value >= fee, \"Please provide enough fee\") */\n      tag_135\n      jumpi\n      mload(0x40)\n      0x08c379a000000000000000000000000000000000000000000000000000000000\n      dup2\n      mstore\n      0x04\n      add\n      tag_136\n      swap1\n      tag_137\n      jump\t// in\n    tag_136:\n      mload(0x40)\n      dup1\n      swap2\n      sub\n      swap1\n      revert\n    tag_135:\n        /* \"@devest/contracts/DeVest.sol\":1898:1907  recipient */\n      dup2\n        /* \"@devest/contracts/DeVest.sol\":1890:1917  payable(recipient).transfer */\n      0xffffffffffffffffffffffffffffffffffffffff\n      and\n        /* \"@devest/contracts/DeVest.sol\":1890:1922  payable(recipient).transfer(fee) */\n      0x08fc\n        /* \"@devest/contracts/DeVest.sol\":1918:1921  fee */\n      dup3\n        /* \"@devest/contracts/DeVest.sol\":1890:1922  payable(recipient).transfer(fee) */\n      swap1\n      dup2\n      iszero\n      mul\n      swap1\n      mload(0x40)\n      0x00\n      mload(0x40)\n      dup1\n      dup4\n      sub\n      dup2\n      dup6\n      dup9\n      dup9\n      call\n      swap4\n      pop\n      pop\n      pop\n      pop\n      iszero\n      dup1\n      iszero\n      tag_139\n      jumpi\n      returndatasize\n      0x00\n      dup1\n      returndatacopy\n      revert(0x00, returndatasize)\n    tag_139:\n      pop\n        /* \"@devest/contracts/DeVest.sol\":1357:1369  _msgSender() */\n      tag_141\n        /* \"@devest/contracts/DeVest.sol\":1357:1367  _msgSender */\n      tag_114\n        /* \"@devest/contracts/DeVest.sol\":1357:1369  _msgSender() */\n      jump\t// in\n    tag_141:\n        /* \"@devest/contracts/DeVest.sol\":1347:1369  _owner == _msgSender() */\n      0xffffffffffffffffffffffffffffffffffffffff\n      and\n        /* \"@devest/contracts/DeVest.sol\":1347:1353  _owner */\n      0x01\n      0x00\n      swap1\n      sload\n      swap1\n      0x0100\n      exp\n      swap1\n      div\n      0xffffffffffffffffffffffffffffffffffffffff\n      and\n        /* \"@devest/contracts/DeVest.sol\":1347:1369  _owner == _msgSender() */\n      0xffffffffffffffffffffffffffffffffffffffff\n      and\n      eq\n        /* \"@devest/contracts/DeVest.sol\":1339:1404  require(_owner == _msgSender(), \"Owner: caller is not the owner\") */\n      tag_142\n      jumpi\n      mload(0x40)\n      0x08c379a000000000000000000000000000000000000000000000000000000000\n      dup2\n      mstore\n      0x04\n      add\n      tag_143\n      swap1\n      tag_122\n      jump\t// in\n    tag_143:\n      mload(0x40)\n      dup1\n      swap2\n      sub\n      swap1\n      revert\n    tag_142:\n        /* \"@devest/contracts/DeVest.sol\":2137:2181  _setRoyalties(__royalty, __royaltyRecipient) */\n      tag_145\n        /* \"@devest/contracts/DeVest.sol\":2151:2160  __royalty */\n      dup5\n        /* \"@devest/contracts/DeVest.sol\":2162:2180  __royaltyRecipient */\n      dup5\n        /* \"@devest/contracts/DeVest.sol\":2137:2150  _setRoyalties */\n      tag_146\n        /* \"@devest/contracts/DeVest.sol\":2137:2181  _setRoyalties(__royalty, __royaltyRecipient) */\n      jump\t// in\n    tag_145:\n        /* \"@devest/contracts/DeVest.sol\":1518:1940  {... */\n      pop\n      pop\n        /* \"@devest/contracts/DeVest.sol\":2025:2188  function setRoyalties(uint256 __royalty, address __royaltyRecipient) public payable takeFee onlyOwner {... */\n    tag_129:\n      pop\n      pop\n      jump\t// out\n        /* \"contracts/DvTicket.sol\":2086:2197  function ownerOf(uint256 tokenId) public view returns (address owner) {... */\n    tag_54:\n        /* \"contracts/DvTicket.sol\":2141:2154  address owner */\n      0x00\n        /* \"contracts/DvTicket.sol\":2173:2181  _tickets */\n      0x09\n        /* \"contracts/DvTicket.sol\":2173:2190  _tickets[tokenId] */\n      0x00\n        /* \"contracts/DvTicket.sol\":2182:2189  tokenId */\n      dup4\n        /* \"contracts/DvTicket.sol\":2173:2190  _tickets[tokenId] */\n      dup2\n      mstore\n      0x20\n      add\n      swap1\n      dup2\n      mstore\n      0x20\n      add\n      0x00\n      keccak256\n      0x00\n      swap1\n      sload\n      swap1\n      0x0100\n      exp\n      swap1\n      div\n      0xffffffffffffffffffffffffffffffffffffffff\n      and\n        /* \"contracts/DvTicket.sol\":2166:2190  return _tickets[tokenId] */\n      swap1\n      pop\n        /* \"contracts/DvTicket.sol\":2086:2197  function ownerOf(uint256 tokenId) public view returns (address owner) {... */\n      swap2\n      swap1\n      pop\n      jump\t// out\n        /* \"contracts/DvTicket.sol\":2256:2443  function balanceOf(address owner) public view virtual returns (uint256) {... */\n    tag_61:\n        /* \"contracts/DvTicket.sol\":2319:2326  uint256 */\n      0x00\n        /* \"contracts/DvTicket.sol\":2363:2364  0 */\n      dup1\n        /* \"contracts/DvTicket.sol\":2346:2365  owner != address(0) */\n      0xffffffffffffffffffffffffffffffffffffffff\n      and\n        /* \"contracts/DvTicket.sol\":2346:2351  owner */\n      dup3\n        /* \"contracts/DvTicket.sol\":2346:2365  owner != address(0) */\n      0xffffffffffffffffffffffffffffffffffffffff\n      and\n      sub\n        /* \"contracts/DvTicket.sol\":2338:2403  require(owner != address(0), \"Address zero is not a valid owner\") */\n      tag_149\n      jumpi\n      mload(0x40)\n      0x08c379a000000000000000000000000000000000000000000000000000000000\n      dup2\n      mstore\n      0x04\n      add\n      tag_150\n      swap1\n      tag_151\n      jump\t// in\n    tag_150:\n      mload(0x40)\n      dup1\n      swap2\n      sub\n      swap1\n      revert\n    tag_149:\n        /* \"contracts/DvTicket.sol\":2420:2429  _balances */\n      0x0a\n        /* \"contracts/DvTicket.sol\":2420:2436  _balances[owner] */\n      0x00\n        /* \"contracts/DvTicket.sol\":2430:2435  owner */\n      dup4\n        /* \"contracts/DvTicket.sol\":2420:2436  _balances[owner] */\n      0xffffffffffffffffffffffffffffffffffffffff\n      and\n      0xffffffffffffffffffffffffffffffffffffffff\n      and\n      dup2\n      mstore\n      0x20\n      add\n      swap1\n      dup2\n      mstore\n      0x20\n      add\n      0x00\n      keccak256\n      sload\n        /* \"contracts/DvTicket.sol\":2413:2436  return _balances[owner] */\n      swap1\n      pop\n        /* \"contracts/DvTicket.sol\":2256:2443  function balanceOf(address owner) public view virtual returns (uint256) {... */\n      swap2\n      swap1\n      pop\n      jump\t// out\n        /* \"contracts/DvTicket.sol\":1702:2080  function initialize(uint tax, uint256 _totalSupply, uint256 _price) public onlyOwner nonReentrant virtual{... */\n    tag_67:\n        /* \"@devest/contracts/DeVest.sol\":1357:1369  _msgSender() */\n      tag_153\n        /* \"@devest/contracts/DeVest.sol\":1357:1367  _msgSender */\n      tag_114\n        /* \"@devest/contracts/DeVest.sol\":1357:1369  _msgSender() */\n      jump\t// in\n    tag_153:\n        /* \"@devest/contracts/DeVest.sol\":1347:1369  _owner == _msgSender() */\n      0xffffffffffffffffffffffffffffffffffffffff\n      and\n        /* \"@devest/contracts/DeVest.sol\":1347:1353  _owner */\n      0x01\n      0x00\n      swap1\n      sload\n      swap1\n      0x0100\n      exp\n      swap1\n      div\n      0xffffffffffffffffffffffffffffffffffffffff\n      and\n        /* \"@devest/contracts/DeVest.sol\":1347:1369  _owner == _msgSender() */\n      0xffffffffffffffffffffffffffffffffffffffff\n      and\n      eq\n        /* \"@devest/contracts/DeVest.sol\":1339:1404  require(_owner == _msgSender(), \"Owner: caller is not the owner\") */\n      tag_154\n      jumpi\n      mload(0x40)\n      0x08c379a000000000000000000000000000000000000000000000000000000000\n      dup2\n      mstore\n      0x04\n      add\n      tag_155\n      swap1\n      tag_122\n      jump\t// in\n    tag_155:\n      mload(0x40)\n      dup1\n      swap2\n      sub\n      swap1\n      revert\n    tag_154:\n        /* \"@openzeppelin/contracts/security/ReentrancyGuard.sol\":2261:2282  _nonReentrantBefore() */\n      tag_157\n        /* \"@openzeppelin/contracts/security/ReentrancyGuard.sol\":2261:2280  _nonReentrantBefore */\n      tag_158\n        /* \"@openzeppelin/contracts/security/ReentrancyGuard.sol\":2261:2282  _nonReentrantBefore() */\n      jump\t// in\n    tag_157:\n        /* \"contracts/DvTicket.sol\":1832:1833  0 */\n      0x00\n        /* \"contracts/DvTicket.sol\":1825:1828  tax */\n      dup4\n        /* \"contracts/DvTicket.sol\":1825:1833  tax >= 0 */\n      lt\n      iszero\n        /* \"contracts/DvTicket.sol\":1825:1848  tax >= 0 && tax <= 1000 */\n      dup1\n      iszero\n      tag_160\n      jumpi\n      pop\n        /* \"contracts/DvTicket.sol\":1844:1848  1000 */\n      0x03e8\n        /* \"contracts/DvTicket.sol\":1837:1840  tax */\n      dup4\n        /* \"contracts/DvTicket.sol\":1837:1848  tax <= 1000 */\n      gt\n      iszero\n        /* \"contracts/DvTicket.sol\":1825:1848  tax >= 0 && tax <= 1000 */\n    tag_160:\n        /* \"contracts/DvTicket.sol\":1817:1870  require(tax >= 0 && tax <= 1000, 'Invalid tax value') */\n      tag_161\n      jumpi\n      mload(0x40)\n      0x08c379a000000000000000000000000000000000000000000000000000000000\n      dup2\n      mstore\n      0x04\n      add\n      tag_162\n      swap1\n      tag_163\n      jump\t// in\n    tag_162:\n      mload(0x40)\n      dup1\n      swap2\n      sub\n      swap1\n      revert\n    tag_161:\n        /* \"contracts/DvTicket.sol\":1903:1904  0 */\n      0x00\n        /* \"contracts/DvTicket.sol\":1888:1899  totalSupply */\n      sload(0x07)\n        /* \"contracts/DvTicket.sol\":1888:1904  totalSupply >= 0 */\n      lt\n      iszero\n        /* \"contracts/DvTicket.sol\":1888:1928  totalSupply >= 0 && totalSupply <= 10000 */\n      dup1\n      iszero\n      tag_164\n      jumpi\n      pop\n        /* \"contracts/DvTicket.sol\":1923:1928  10000 */\n      0x2710\n        /* \"contracts/DvTicket.sol\":1908:1919  totalSupply */\n      sload(0x07)\n        /* \"contracts/DvTicket.sol\":1908:1928  totalSupply <= 10000 */\n      gt\n      iszero\n        /* \"contracts/DvTicket.sol\":1888:1928  totalSupply >= 0 && totalSupply <= 10000 */\n    tag_164:\n        /* \"contracts/DvTicket.sol\":1880:1948  require(totalSupply >= 0 && totalSupply <= 10000, 'Max 10 decimals') */\n      tag_165\n      jumpi\n      mload(0x40)\n      0x08c379a000000000000000000000000000000000000000000000000000000000\n      dup2\n      mstore\n      0x04\n      add\n      tag_166\n      swap1\n      tag_167\n      jump\t// in\n    tag_166:\n      mload(0x40)\n      dup1\n      swap2\n      sub\n      swap1\n      revert\n    tag_165:\n        /* \"contracts/DvTicket.sol\":1973:1985  _totalSupply */\n      dup2\n        /* \"contracts/DvTicket.sol\":1959:1970  totalSupply */\n      0x07\n        /* \"contracts/DvTicket.sol\":1959:1985  totalSupply = _totalSupply */\n      dup2\n      swap1\n      sstore\n      pop\n        /* \"contracts/DvTicket.sol\":2003:2009  _price */\n      dup1\n        /* \"contracts/DvTicket.sol\":1995:2000  price */\n      0x06\n        /* \"contracts/DvTicket.sol\":1995:2009  price = _price */\n      dup2\n      swap1\n      sstore\n      pop\n        /* \"contracts/DvTicket.sol\":2046:2073  _setRoyalties(tax, owner()) */\n      tag_168\n        /* \"contracts/DvTicket.sol\":2060:2063  tax */\n      dup4\n        /* \"contracts/DvTicket.sol\":2065:2072  owner() */\n      tag_169\n        /* \"contracts/DvTicket.sol\":2065:2070  owner */\n      tag_79\n        /* \"contracts/DvTicket.sol\":2065:2072  owner() */\n      jump\t// in\n    tag_169:\n        /* \"contracts/DvTicket.sol\":2046:2059  _setRoyalties */\n      tag_146\n        /* \"contracts/DvTicket.sol\":2046:2073  _setRoyalties(tax, owner()) */\n      jump\t// in\n    tag_168:\n        /* \"@openzeppelin/contracts/security/ReentrancyGuard.sol\":2303:2323  _nonReentrantAfter() */\n      tag_170\n        /* \"@openzeppelin/contracts/security/ReentrancyGuard.sol\":2303:2321  _nonReentrantAfter */\n      tag_171\n        /* \"@openzeppelin/contracts/security/ReentrancyGuard.sol\":2303:2323  _nonReentrantAfter() */\n      jump\t// in\n    tag_170:\n        /* \"contracts/DvTicket.sol\":1702:2080  function initialize(uint tax, uint256 _totalSupply, uint256 _price) public onlyOwner nonReentrant virtual{... */\n      pop\n      pop\n      pop\n      jump\t// out\n        /* \"contracts/DvTicket.sol\":4197:4324  function isForSale(uint256 ticketId) public view returns (bool) {... */\n    tag_71:\n        /* \"contracts/DvTicket.sol\":4255:4259  bool */\n      0x00\n        /* \"contracts/DvTicket.sol\":4315:4316  0 */\n      dup1\n        /* \"contracts/DvTicket.sol\":4278:4317  _offeredTickets[ticketId] != address(0) */\n      0xffffffffffffffffffffffffffffffffffffffff\n      and\n        /* \"contracts/DvTicket.sol\":4278:4293  _offeredTickets */\n      0x0b\n        /* \"contracts/DvTicket.sol\":4278:4303  _offeredTickets[ticketId] */\n      0x00\n        /* \"contracts/DvTicket.sol\":4294:4302  ticketId */\n      dup5\n        /* \"contracts/DvTicket.sol\":4278:4303  _offeredTickets[ticketId] */\n      dup2\n      mstore\n      0x20\n      add\n      swap1\n      dup2\n      mstore\n      0x20\n      add\n      0x00\n      keccak256\n      0x00\n      swap1\n      sload\n      swap1\n      0x0100\n      exp\n      swap1\n      div\n      0xffffffffffffffffffffffffffffffffffffffff\n      and\n        /* \"contracts/DvTicket.sol\":4278:4317  _offeredTickets[ticketId] != address(0) */\n      0xffffffffffffffffffffffffffffffffffffffff\n      and\n      eq\n      iszero\n        /* \"contracts/DvTicket.sol\":4271:4317  return _offeredTickets[ticketId] != address(0) */\n      swap1\n      pop\n        /* \"contracts/DvTicket.sol\":4197:4324  function isForSale(uint256 ticketId) public view returns (bool) {... */\n      swap2\n      swap1\n      pop\n      jump\t// out\n        /* \"contracts/DvTicket.sol\":630:658  uint256 public purchased = 0 */\n    tag_75:\n      sload(0x08)\n      dup2\n      jump\t// out\n        /* \"@devest/contracts/DeVest.sol\":2862:2947  function owner() public view virtual returns (address) {... */\n    tag_79:\n        /* \"@devest/contracts/DeVest.sol\":2908:2915  address */\n      0x00\n        /* \"@devest/contracts/DeVest.sol\":2934:2940  _owner */\n      0x01\n      0x00\n      swap1\n      sload\n      swap1\n      0x0100\n      exp\n      swap1\n      div\n      0xffffffffffffffffffffffffffffffffffffffff\n      and\n        /* \"@devest/contracts/DeVest.sol\":2927:2940  return _owner */\n      swap1\n      pop\n        /* \"@devest/contracts/DeVest.sol\":2862:2947  function owner() public view virtual returns (address) {... */\n      swap1\n      jump\t// out\n        /* \"contracts/DvTicket.sol\":571:591  uint256 public price */\n    tag_83:\n      sload(0x06)\n      dup2\n      jump\t// out\n        /* \"contracts/DvTicket.sol\":4496:4811  function offer(uint256 ticketId, uint256 _price) public payable takeFee {... */\n    tag_88:\n        /* \"@devest/contracts/DeVest.sol\":1617:1618  0 */\n      0x00\n        /* \"@devest/contracts/DeVest.sol\":1587:1620  _factory == DvFactory(address(0)) */\n      0xffffffffffffffffffffffffffffffffffffffff\n      and\n        /* \"@devest/contracts/DeVest.sol\":1587:1595  _factory */\n      0x00\n      dup1\n      sload\n      swap1\n      0x0100\n      exp\n      swap1\n      div\n      0xffffffffffffffffffffffffffffffffffffffff\n      and\n        /* \"@devest/contracts/DeVest.sol\":1587:1620  _factory == DvFactory(address(0)) */\n      0xffffffffffffffffffffffffffffffffffffffff\n      and\n      sub\n        /* \"@devest/contracts/DeVest.sol\":1583:1641  if (_factory == DvFactory(address(0)))... */\n      iszero\n        /* \"@devest/contracts/DeVest.sol\":1634:1641  return; */\n      tag_174\n        /* \"@devest/contracts/DeVest.sol\":1583:1641  if (_factory == DvFactory(address(0)))... */\n      jumpi\n        /* \"@devest/contracts/DeVest.sol\":1651:1668  address recipient */\n      0x00\n        /* \"@devest/contracts/DeVest.sol\":1678:1689  uint256 fee */\n      dup1\n        /* \"@devest/contracts/DeVest.sol\":1751:1759  _factory */\n      0x00\n      dup1\n      sload\n      swap1\n      0x0100\n      exp\n      swap1\n      div\n      0xffffffffffffffffffffffffffffffffffffffff\n      and\n        /* \"@devest/contracts/DeVest.sol\":1751:1766  _factory.getFee */\n      0xffffffffffffffffffffffffffffffffffffffff\n      and\n      0xced72f87\n        /* \"@devest/contracts/DeVest.sol\":1751:1768  _factory.getFee() */\n      mload(0x40)\n      dup2\n      0xffffffff\n      and\n      0xe0\n      shl\n      dup2\n      mstore\n      0x04\n      add\n      0x40\n      dup1\n      mload\n      dup1\n      dup4\n      sub\n      dup2\n      dup7\n      gas\n      staticcall\n      iszero\n      dup1\n      iszero\n      tag_177\n      jumpi\n      returndatasize\n      0x00\n      dup1\n      returndatacopy\n      revert(0x00, returndatasize)\n    tag_177:\n      pop\n      pop\n      pop\n      pop\n      mload(0x40)\n      returndatasize\n      not(0x1f)\n      0x1f\n      dup3\n      add\n      and\n      dup3\n      add\n      dup1\n      0x40\n      mstore\n      pop\n      dup2\n      add\n      swap1\n      tag_178\n      swap2\n      swap1\n      tag_134\n      jump\t// in\n    tag_178:\n        /* \"@devest/contracts/DeVest.sol\":1734:1768  (fee,recipient)= _factory.getFee() */\n      dup1\n      swap4\n      pop\n      dup2\n      swap3\n      pop\n      pop\n      pop\n        /* \"@devest/contracts/DeVest.sol\":1847:1850  fee */\n      dup1\n        /* \"@devest/contracts/DeVest.sol\":1834:1843  msg.value */\n      callvalue\n        /* \"@devest/contracts/DeVest.sol\":1834:1850  msg.value >= fee */\n      lt\n      iszero\n        /* \"@devest/contracts/DeVest.sol\":1826:1880  require(msg.value >= fee, \"Please provide enough fee\") */\n      tag_179\n      jumpi\n      mload(0x40)\n      0x08c379a000000000000000000000000000000000000000000000000000000000\n      dup2\n      mstore\n      0x04\n      add\n      tag_180\n      swap1\n      tag_137\n      jump\t// in\n    tag_180:\n      mload(0x40)\n      dup1\n      swap2\n      sub\n      swap1\n      revert\n    tag_179:\n        /* \"@devest/contracts/DeVest.sol\":1898:1907  recipient */\n      dup2\n        /* \"@devest/contracts/DeVest.sol\":1890:1917  payable(recipient).transfer */\n      0xffffffffffffffffffffffffffffffffffffffff\n      and\n        /* \"@devest/contracts/DeVest.sol\":1890:1922  payable(recipient).transfer(fee) */\n      0x08fc\n        /* \"@devest/contracts/DeVest.sol\":1918:1921  fee */\n      dup3\n        /* \"@devest/contracts/DeVest.sol\":1890:1922  payable(recipient).transfer(fee) */\n      swap1\n      dup2\n      iszero\n      mul\n      swap1\n      mload(0x40)\n      0x00\n      mload(0x40)\n      dup1\n      dup4\n      sub\n      dup2\n      dup6\n      dup9\n      dup9\n      call\n      swap4\n      pop\n      pop\n      pop\n      pop\n      iszero\n      dup1\n      iszero\n      tag_182\n      jumpi\n      returndatasize\n      0x00\n      dup1\n      returndatacopy\n      revert(0x00, returndatasize)\n    tag_182:\n      pop\n        /* \"contracts/DvTicket.sol\":4607:4619  _msgSender() */\n      tag_184\n        /* \"contracts/DvTicket.sol\":4607:4617  _msgSender */\n      tag_114\n        /* \"contracts/DvTicket.sol\":4607:4619  _msgSender() */\n      jump\t// in\n    tag_184:\n        /* \"contracts/DvTicket.sol\":4586:4619  ownerOf(ticketId) == _msgSender() */\n      0xffffffffffffffffffffffffffffffffffffffff\n      and\n        /* \"contracts/DvTicket.sol\":4586:4603  ownerOf(ticketId) */\n      tag_185\n        /* \"contracts/DvTicket.sol\":4594:4602  ticketId */\n      dup6\n        /* \"contracts/DvTicket.sol\":4586:4593  ownerOf */\n      tag_54\n        /* \"contracts/DvTicket.sol\":4586:4603  ownerOf(ticketId) */\n      jump\t// in\n    tag_185:\n        /* \"contracts/DvTicket.sol\":4586:4619  ownerOf(ticketId) == _msgSender() */\n      0xffffffffffffffffffffffffffffffffffffffff\n      and\n      eq\n        /* \"contracts/DvTicket.sol\":4578:4649  require(ownerOf(ticketId) == _msgSender(), \"You don't own this ticket\") */\n      tag_186\n      jumpi\n      mload(0x40)\n      0x08c379a000000000000000000000000000000000000000000000000000000000\n      dup2\n      mstore\n      0x04\n      add\n      tag_187\n      swap1\n      tag_188\n      jump\t// in\n    tag_187:\n      mload(0x40)\n      dup1\n      swap2\n      sub\n      swap1\n      revert\n    tag_186:\n        /* \"contracts/DvTicket.sol\":4675:4676  0 */\n      0x00\n        /* \"contracts/DvTicket.sol\":4667:4672  price */\n      sload(0x06)\n        /* \"contracts/DvTicket.sol\":4667:4676  price > 0 */\n      gt\n        /* \"contracts/DvTicket.sol\":4659:4712  require(price > 0, \"Price must be greater than zero\") */\n      tag_189\n      jumpi\n      mload(0x40)\n      0x08c379a000000000000000000000000000000000000000000000000000000000\n      dup2\n      mstore\n      0x04\n      add\n      tag_190\n      swap1\n      tag_191\n      jump\t// in\n    tag_190:\n      mload(0x40)\n      dup1\n      swap2\n      sub\n      swap1\n      revert\n    tag_189:\n        /* \"contracts/DvTicket.sol\":4751:4761  msg.sender */\n      caller\n        /* \"contracts/DvTicket.sol\":4723:4738  _offeredTickets */\n      0x0b\n        /* \"contracts/DvTicket.sol\":4723:4748  _offeredTickets[ticketId] */\n      0x00\n        /* \"contracts/DvTicket.sol\":4739:4747  ticketId */\n      dup7\n        /* \"contracts/DvTicket.sol\":4723:4748  _offeredTickets[ticketId] */\n      dup2\n      mstore\n      0x20\n      add\n      swap1\n      dup2\n      mstore\n      0x20\n      add\n      0x00\n      keccak256\n      0x00\n        /* \"contracts/DvTicket.sol\":4723:4761  _offeredTickets[ticketId] = msg.sender */\n      0x0100\n      exp\n      dup2\n      sload\n      dup2\n      0xffffffffffffffffffffffffffffffffffffffff\n      mul\n      not\n      and\n      swap1\n      dup4\n      0xffffffffffffffffffffffffffffffffffffffff\n      and\n      mul\n      or\n      swap1\n      sstore\n      pop\n        /* \"contracts/DvTicket.sol\":4798:4804  _price */\n      dup3\n        /* \"contracts/DvTicket.sol\":4771:4785  _offeredPrices */\n      0x0c\n        /* \"contracts/DvTicket.sol\":4771:4795  _offeredPrices[ticketId] */\n      0x00\n        /* \"contracts/DvTicket.sol\":4786:4794  ticketId */\n      dup7\n        /* \"contracts/DvTicket.sol\":4771:4795  _offeredPrices[ticketId] */\n      dup2\n      mstore\n      0x20\n      add\n      swap1\n      dup2\n      mstore\n      0x20\n      add\n      0x00\n      keccak256\n        /* \"contracts/DvTicket.sol\":4771:4804  _offeredPrices[ticketId] = _price */\n      dup2\n      swap1\n      sstore\n      pop\n        /* \"@devest/contracts/DeVest.sol\":1518:1940  {... */\n      pop\n      pop\n        /* \"contracts/DvTicket.sol\":4496:4811  function offer(uint256 ticketId, uint256 _price) public payable takeFee {... */\n    tag_174:\n      pop\n      pop\n      jump\t// out\n        /* \"contracts/DvTicket.sol\":2472:2858  function transfer(address to, uint256 ticketId) external payable takeFee {... */\n    tag_92:\n        /* \"@devest/contracts/DeVest.sol\":1617:1618  0 */\n      0x00\n        /* \"@devest/contracts/DeVest.sol\":1587:1620  _factory == DvFactory(address(0)) */\n      0xffffffffffffffffffffffffffffffffffffffff\n      and\n        /* \"@devest/contracts/DeVest.sol\":1587:1595  _factory */\n      0x00\n      dup1\n      sload\n      swap1\n      0x0100\n      exp\n      swap1\n      div\n      0xffffffffffffffffffffffffffffffffffffffff\n      and\n        /* \"@devest/contracts/DeVest.sol\":1587:1620  _factory == DvFactory(address(0)) */\n      0xffffffffffffffffffffffffffffffffffffffff\n      and\n      sub\n        /* \"@devest/contracts/DeVest.sol\":1583:1641  if (_factory == DvFactory(address(0)))... */\n      iszero\n        /* \"@devest/contracts/DeVest.sol\":1634:1641  return; */\n      tag_192\n        /* \"@devest/contracts/DeVest.sol\":1583:1641  if (_factory == DvFactory(address(0)))... */\n      jumpi\n        /* \"@devest/contracts/DeVest.sol\":1651:1668  address recipient */\n      0x00\n        /* \"@devest/contracts/DeVest.sol\":1678:1689  uint256 fee */\n      dup1\n        /* \"@devest/contracts/DeVest.sol\":1751:1759  _factory */\n      0x00\n      dup1\n      sload\n      swap1\n      0x0100\n      exp\n      swap1\n      div\n      0xffffffffffffffffffffffffffffffffffffffff\n      and\n        /* \"@devest/contracts/DeVest.sol\":1751:1766  _factory.getFee */\n      0xffffffffffffffffffffffffffffffffffffffff\n      and\n      0xced72f87\n        /* \"@devest/contracts/DeVest.sol\":1751:1768  _factory.getFee() */\n      mload(0x40)\n      dup2\n      0xffffffff\n      and\n      0xe0\n      shl\n      dup2\n      mstore\n      0x04\n      add\n      0x40\n      dup1\n      mload\n      dup1\n      dup4\n      sub\n      dup2\n      dup7\n      gas\n      staticcall\n      iszero\n      dup1\n      iszero\n      tag_195\n      jumpi\n      returndatasize\n      0x00\n      dup1\n      returndatacopy\n      revert(0x00, returndatasize)\n    tag_195:\n      pop\n      pop\n      pop\n      pop\n      mload(0x40)\n      returndatasize\n      not(0x1f)\n      0x1f\n      dup3\n      add\n      and\n      dup3\n      add\n      dup1\n      0x40\n      mstore\n      pop\n      dup2\n      add\n      swap1\n      tag_196\n      swap2\n      swap1\n      tag_134\n      jump\t// in\n    tag_196:\n        /* \"@devest/contracts/DeVest.sol\":1734:1768  (fee,recipient)= _factory.getFee() */\n      dup1\n      swap4\n      pop\n      dup2\n      swap3\n      pop\n      pop\n      pop\n        /* \"@devest/contracts/DeVest.sol\":1847:1850  fee */\n      dup1\n        /* \"@devest/contracts/DeVest.sol\":1834:1843  msg.value */\n      callvalue\n        /* \"@devest/contracts/DeVest.sol\":1834:1850  msg.value >= fee */\n      lt\n      iszero\n        /* \"@devest/contracts/DeVest.sol\":1826:1880  require(msg.value >= fee, \"Please provide enough fee\") */\n      tag_197\n      jumpi\n      mload(0x40)\n      0x08c379a000000000000000000000000000000000000000000000000000000000\n      dup2\n      mstore\n      0x04\n      add\n      tag_198\n      swap1\n      tag_137\n      jump\t// in\n    tag_198:\n      mload(0x40)\n      dup1\n      swap2\n      sub\n      swap1\n      revert\n    tag_197:\n        /* \"@devest/contracts/DeVest.sol\":1898:1907  recipient */\n      dup2\n        /* \"@devest/contracts/DeVest.sol\":1890:1917  payable(recipient).transfer */\n      0xffffffffffffffffffffffffffffffffffffffff\n      and\n        /* \"@devest/contracts/DeVest.sol\":1890:1922  payable(recipient).transfer(fee) */\n      0x08fc\n        /* \"@devest/contracts/DeVest.sol\":1918:1921  fee */\n      dup3\n        /* \"@devest/contracts/DeVest.sol\":1890:1922  payable(recipient).transfer(fee) */\n      swap1\n      dup2\n      iszero\n      mul\n      swap1\n      mload(0x40)\n      0x00\n      mload(0x40)\n      dup1\n      dup4\n      sub\n      dup2\n      dup6\n      dup9\n      dup9\n      call\n      swap4\n      pop\n      pop\n      pop\n      pop\n      iszero\n      dup1\n      iszero\n      tag_200\n      jumpi\n      returndatasize\n      0x00\n      dup1\n      returndatacopy\n      revert(0x00, returndatasize)\n    tag_200:\n      pop\n        /* \"contracts/DvTicket.sol\":2579:2596  ownerOf(ticketId) */\n      tag_202\n        /* \"contracts/DvTicket.sol\":2587:2595  ticketId */\n      dup4\n        /* \"contracts/DvTicket.sol\":2579:2586  ownerOf */\n      tag_54\n        /* \"contracts/DvTicket.sol\":2579:2596  ownerOf(ticketId) */\n      jump\t// in\n    tag_202:\n        /* \"contracts/DvTicket.sol\":2563:2596  _msgSender() == ownerOf(ticketId) */\n      0xffffffffffffffffffffffffffffffffffffffff\n      and\n        /* \"contracts/DvTicket.sol\":2563:2575  _msgSender() */\n      tag_203\n        /* \"contracts/DvTicket.sol\":2563:2573  _msgSender */\n      tag_114\n        /* \"contracts/DvTicket.sol\":2563:2575  _msgSender() */\n      jump\t// in\n    tag_203:\n        /* \"contracts/DvTicket.sol\":2563:2596  _msgSender() == ownerOf(ticketId) */\n      0xffffffffffffffffffffffffffffffffffffffff\n      and\n      eq\n        /* \"contracts/DvTicket.sol\":2555:2629  require(_msgSender() == ownerOf(ticketId), \"Transfer caller is not owner\") */\n      tag_204\n      jumpi\n      mload(0x40)\n      0x08c379a000000000000000000000000000000000000000000000000000000000\n      dup2\n      mstore\n      0x04\n      add\n      tag_205\n      swap1\n      tag_206\n      jump\t// in\n    tag_205:\n      mload(0x40)\n      dup1\n      swap2\n      sub\n      swap1\n      revert\n    tag_204:\n        /* \"contracts/DvTicket.sol\":2661:2662  0 */\n      0x00\n        /* \"contracts/DvTicket.sol\":2647:2663  to != address(0) */\n      0xffffffffffffffffffffffffffffffffffffffff\n      and\n        /* \"contracts/DvTicket.sol\":2647:2649  to */\n      dup5\n        /* \"contracts/DvTicket.sol\":2647:2663  to != address(0) */\n      0xffffffffffffffffffffffffffffffffffffffff\n      and\n      sub\n        /* \"contracts/DvTicket.sol\":2639:2696  require(to != address(0), \"Transfer to the zero address\") */\n      tag_207\n      jumpi\n      mload(0x40)\n      0x08c379a000000000000000000000000000000000000000000000000000000000\n      dup2\n      mstore\n      0x04\n      add\n      tag_208\n      swap1\n      tag_209\n      jump\t// in\n    tag_208:\n      mload(0x40)\n      dup1\n      swap2\n      sub\n      swap1\n      revert\n    tag_207:\n        /* \"contracts/DvTicket.sol\":2728:2730  to */\n      dup4\n        /* \"contracts/DvTicket.sol\":2707:2715  _tickets */\n      0x09\n        /* \"contracts/DvTicket.sol\":2707:2725  _tickets[ticketId] */\n      0x00\n        /* \"contracts/DvTicket.sol\":2716:2724  ticketId */\n      dup6\n        /* \"contracts/DvTicket.sol\":2707:2725  _tickets[ticketId] */\n      dup2\n      mstore\n      0x20\n      add\n      swap1\n      dup2\n      mstore\n      0x20\n      add\n      0x00\n      keccak256\n      0x00\n        /* \"contracts/DvTicket.sol\":2707:2730  _tickets[ticketId] = to */\n      0x0100\n      exp\n      dup2\n      sload\n      dup2\n      0xffffffffffffffffffffffffffffffffffffffff\n      mul\n      not\n      and\n      swap1\n      dup4\n      0xffffffffffffffffffffffffffffffffffffffff\n      and\n      mul\n      or\n      swap1\n      sstore\n      pop\n        /* \"contracts/DvTicket.sol\":2767:2768  1 */\n      0x01\n        /* \"contracts/DvTicket.sol\":2740:2749  _balances */\n      0x0a\n        /* \"contracts/DvTicket.sol\":2740:2763  _balances[_msgSender()] */\n      0x00\n        /* \"contracts/DvTicket.sol\":2750:2762  _msgSender() */\n      tag_210\n        /* \"contracts/DvTicket.sol\":2750:2760  _msgSender */\n      tag_114\n        /* \"contracts/DvTicket.sol\":2750:2762  _msgSender() */\n      jump\t// in\n    tag_210:\n        /* \"contracts/DvTicket.sol\":2740:2763  _balances[_msgSender()] */\n      0xffffffffffffffffffffffffffffffffffffffff\n      and\n      0xffffffffffffffffffffffffffffffffffffffff\n      and\n      dup2\n      mstore\n      0x20\n      add\n      swap1\n      dup2\n      mstore\n      0x20\n      add\n      0x00\n      keccak256\n      0x00\n        /* \"contracts/DvTicket.sol\":2740:2768  _balances[_msgSender()] -= 1 */\n      dup3\n      dup3\n      sload\n      tag_211\n      swap2\n      swap1\n      tag_212\n      jump\t// in\n    tag_211:\n      swap3\n      pop\n      pop\n      dup2\n      swap1\n      sstore\n      pop\n        /* \"contracts/DvTicket.sol\":2795:2796  1 */\n      0x01\n        /* \"contracts/DvTicket.sol\":2778:2787  _balances */\n      0x0a\n        /* \"contracts/DvTicket.sol\":2778:2791  _balances[to] */\n      0x00\n        /* \"contracts/DvTicket.sol\":2788:2790  to */\n      dup7\n        /* \"contracts/DvTicket.sol\":2778:2791  _balances[to] */\n      0xffffffffffffffffffffffffffffffffffffffff\n      and\n      0xffffffffffffffffffffffffffffffffffffffff\n      and\n      dup2\n      mstore\n      0x20\n      add\n      swap1\n      dup2\n      mstore\n      0x20\n      add\n      0x00\n      keccak256\n      0x00\n        /* \"contracts/DvTicket.sol\":2778:2796  _balances[to] += 1 */\n      dup3\n      dup3\n      sload\n      tag_213\n      swap2\n      swap1\n      tag_214\n      jump\t// in\n    tag_213:\n      swap3\n      pop\n      pop\n      dup2\n      swap1\n      sstore\n      pop\n        /* \"contracts/DvTicket.sol\":2842:2850  ticketId */\n      dup3\n        /* \"contracts/DvTicket.sol\":2838:2840  to */\n      dup5\n        /* \"contracts/DvTicket.sol\":2812:2851  transferred(_msgSender(), to, ticketId) */\n      0xffffffffffffffffffffffffffffffffffffffff\n      and\n        /* \"contracts/DvTicket.sol\":2824:2836  _msgSender() */\n      tag_215\n        /* \"contracts/DvTicket.sol\":2824:2834  _msgSender */\n      tag_114\n        /* \"contracts/DvTicket.sol\":2824:2836  _msgSender() */\n      jump\t// in\n    tag_215:\n        /* \"contracts/DvTicket.sol\":2812:2851  transferred(_msgSender(), to, ticketId) */\n      0xffffffffffffffffffffffffffffffffffffffff\n      and\n      0x8baf29b4b5af24ec8170355f2819a9135840321dd4e65b88a080dfc3054fe99c\n      mload(0x40)\n      mload(0x40)\n      dup1\n      swap2\n      sub\n      swap1\n      log4\n        /* \"@devest/contracts/DeVest.sol\":1518:1940  {... */\n      pop\n      pop\n        /* \"contracts/DvTicket.sol\":2472:2858  function transfer(address to, uint256 ticketId) external payable takeFee {... */\n    tag_192:\n      pop\n      pop\n      jump\t// out\n        /* \"contracts/DvTicket.sol\":4330:4443  function priceOf(uint256 ticketId) public view returns (uint256) {... */\n    tag_96:\n        /* \"contracts/DvTicket.sol\":4386:4393  uint256 */\n      0x00\n        /* \"contracts/DvTicket.sol\":4412:4426  _offeredPrices */\n      0x0c\n        /* \"contracts/DvTicket.sol\":4412:4436  _offeredPrices[ticketId] */\n      0x00\n        /* \"contracts/DvTicket.sol\":4427:4435  ticketId */\n      dup4\n        /* \"contracts/DvTicket.sol\":4412:4436  _offeredPrices[ticketId] */\n      dup2\n      mstore\n      0x20\n      add\n      swap1\n      dup2\n      mstore\n      0x20\n      add\n      0x00\n      keccak256\n      sload\n        /* \"contracts/DvTicket.sol\":4405:4436  return _offeredPrices[ticketId] */\n      swap1\n      pop\n        /* \"contracts/DvTicket.sol\":4330:4443  function priceOf(uint256 ticketId) public view returns (uint256) {... */\n      swap2\n      swap1\n      pop\n      jump\t// out\n        /* \"contracts/DvTicket.sol\":5092:5201  function tokenURI(uint256 /*tokenId*/) external view returns (string memory){... */\n    tag_101:\n        /* \"contracts/DvTicket.sol\":5154:5167  string memory */\n      0x60\n        /* \"contracts/DvTicket.sol\":5185:5194  _tokenURI */\n      0x0f\n        /* \"contracts/DvTicket.sol\":5178:5194  return _tokenURI */\n      dup1\n      sload\n      tag_218\n      swap1\n      tag_219\n      jump\t// in\n    tag_218:\n      dup1\n      0x1f\n      add\n      0x20\n      dup1\n      swap2\n      div\n      mul\n      0x20\n      add\n      mload(0x40)\n      swap1\n      dup2\n      add\n      0x40\n      mstore\n      dup1\n      swap3\n      swap2\n      swap1\n      dup2\n      dup2\n      mstore\n      0x20\n      add\n      dup3\n      dup1\n      sload\n      tag_220\n      swap1\n      tag_219\n      jump\t// in\n    tag_220:\n      dup1\n      iszero\n      tag_221\n      jumpi\n      dup1\n      0x1f\n      lt\n      tag_222\n      jumpi\n      0x0100\n      dup1\n      dup4\n      sload\n      div\n      mul\n      dup4\n      mstore\n      swap2\n      0x20\n      add\n      swap2\n      jump(tag_221)\n    tag_222:\n      dup3\n      add\n      swap2\n      swap1\n      0x00\n      mstore\n      keccak256(0x00, 0x20)\n      swap1\n    tag_223:\n      dup2\n      sload\n      dup2\n      mstore\n      swap1\n      0x01\n      add\n      swap1\n      0x20\n      add\n      dup1\n      dup4\n      gt\n      tag_223\n      jumpi\n      dup3\n      swap1\n      sub\n      0x1f\n      and\n      dup3\n      add\n      swap2\n    tag_221:\n      pop\n      pop\n      pop\n      pop\n      pop\n      swap1\n      pop\n        /* \"contracts/DvTicket.sol\":5092:5201  function tokenURI(uint256 /*tokenId*/) external view returns (string memory){... */\n      swap2\n      swap1\n      pop\n      jump\t// out\n        /* \"contracts/DvTicket.sol\":2887:4191  function purchase(uint256 ticketId) external payable {... */\n    tag_106:\n        /* \"contracts/DvTicket.sol\":2973:2990  ownerOf(ticketId) */\n      tag_225\n        /* \"contracts/DvTicket.sol\":2981:2989  ticketId */\n      dup2\n        /* \"contracts/DvTicket.sol\":2973:2980  ownerOf */\n      tag_54\n        /* \"contracts/DvTicket.sol\":2973:2990  ownerOf(ticketId) */\n      jump\t// in\n    tag_225:\n        /* \"contracts/DvTicket.sol\":2959:2990  address(0) == ownerOf(ticketId) */\n      0xffffffffffffffffffffffffffffffffffffffff\n      and\n        /* \"contracts/DvTicket.sol\":2967:2968  0 */\n      0x00\n        /* \"contracts/DvTicket.sol\":2959:2990  address(0) == ownerOf(ticketId) */\n      0xffffffffffffffffffffffffffffffffffffffff\n      and\n      eq\n        /* \"contracts/DvTicket.sol\":2951:3015  require(address(0) == ownerOf(ticketId), \"Ticket not available\") */\n      tag_226\n      jumpi\n      mload(0x40)\n      0x08c379a000000000000000000000000000000000000000000000000000000000\n      dup2\n      mstore\n      0x04\n      add\n      tag_227\n      swap1\n      tag_228\n      jump\t// in\n    tag_227:\n      mload(0x40)\n      dup1\n      swap2\n      sub\n      swap1\n      revert\n    tag_226:\n        /* \"contracts/DvTicket.sol\":3025:3057  __allowance(_msgSender(), price) */\n      tag_229\n        /* \"contracts/DvTicket.sol\":3037:3049  _msgSender() */\n      tag_230\n        /* \"contracts/DvTicket.sol\":3037:3047  _msgSender */\n      tag_114\n        /* \"contracts/DvTicket.sol\":3037:3049  _msgSender() */\n      jump\t// in\n    tag_230:\n        /* \"contracts/DvTicket.sol\":3051:3056  price */\n      sload(0x06)\n        /* \"contracts/DvTicket.sol\":3025:3036  __allowance */\n      tag_231\n        /* \"contracts/DvTicket.sol\":3025:3057  __allowance(_msgSender(), price) */\n      jump\t// in\n    tag_229:\n        /* \"contracts/DvTicket.sol\":3067:3117  __transferFrom(_msgSender(), address(this), price) */\n      tag_232\n        /* \"contracts/DvTicket.sol\":3082:3094  _msgSender() */\n      tag_233\n        /* \"contracts/DvTicket.sol\":3082:3092  _msgSender */\n      tag_114\n        /* \"contracts/DvTicket.sol\":3082:3094  _msgSender() */\n      jump\t// in\n    tag_233:\n        /* \"contracts/DvTicket.sol\":3104:3108  this */\n      address\n        /* \"contracts/DvTicket.sol\":3111:3116  price */\n      sload(0x06)\n        /* \"contracts/DvTicket.sol\":3067:3081  __transferFrom */\n      tag_234\n        /* \"contracts/DvTicket.sol\":3067:3117  __transferFrom(_msgSender(), address(this), price) */\n      jump\t// in\n    tag_232:\n        /* \"contracts/DvTicket.sol\":3164:3173  purchased */\n      0x08\n      0x00\n        /* \"contracts/DvTicket.sol\":3164:3175  purchased++ */\n      dup2\n      sload\n      dup1\n      swap3\n      swap2\n      swap1\n      tag_235\n      swap1\n      tag_236\n      jump\t// in\n    tag_235:\n      swap2\n      swap1\n      pop\n      sstore\n      pop\n        /* \"contracts/DvTicket.sol\":3206:3218  _msgSender() */\n      tag_237\n        /* \"contracts/DvTicket.sol\":3206:3216  _msgSender */\n      tag_114\n        /* \"contracts/DvTicket.sol\":3206:3218  _msgSender() */\n      jump\t// in\n    tag_237:\n        /* \"contracts/DvTicket.sol\":3185:3193  _tickets */\n      0x09\n        /* \"contracts/DvTicket.sol\":3185:3203  _tickets[ticketId] */\n      0x00\n        /* \"contracts/DvTicket.sol\":3194:3202  ticketId */\n      dup4\n        /* \"contracts/DvTicket.sol\":3185:3203  _tickets[ticketId] */\n      dup2\n      mstore\n      0x20\n      add\n      swap1\n      dup2\n      mstore\n      0x20\n      add\n      0x00\n      keccak256\n      0x00\n        /* \"contracts/DvTicket.sol\":3185:3218  _tickets[ticketId] = _msgSender() */\n      0x0100\n      exp\n      dup2\n      sload\n      dup2\n      0xffffffffffffffffffffffffffffffffffffffff\n      mul\n      not\n      and\n      swap1\n      dup4\n      0xffffffffffffffffffffffffffffffffffffffff\n      and\n      mul\n      or\n      swap1\n      sstore\n      pop\n        /* \"contracts/DvTicket.sol\":3255:3256  1 */\n      0x01\n        /* \"contracts/DvTicket.sol\":3228:3237  _balances */\n      0x0a\n        /* \"contracts/DvTicket.sol\":3228:3251  _balances[_msgSender()] */\n      0x00\n        /* \"contracts/DvTicket.sol\":3238:3250  _msgSender() */\n      tag_238\n        /* \"contracts/DvTicket.sol\":3238:3248  _msgSender */\n      tag_114\n        /* \"contracts/DvTicket.sol\":3238:3250  _msgSender() */\n      jump\t// in\n    tag_238:\n        /* \"contracts/DvTicket.sol\":3228:3251  _balances[_msgSender()] */\n      0xffffffffffffffffffffffffffffffffffffffff\n      and\n      0xffffffffffffffffffffffffffffffffffffffff\n      and\n      dup2\n      mstore\n      0x20\n      add\n      swap1\n      dup2\n      mstore\n      0x20\n      add\n      0x00\n      keccak256\n      0x00\n        /* \"contracts/DvTicket.sol\":3228:3256  _balances[_msgSender()] += 1 */\n      dup3\n      dup3\n      sload\n      tag_239\n      swap2\n      swap1\n      tag_214\n      jump\t// in\n    tag_239:\n      swap3\n      pop\n      pop\n      dup2\n      swap1\n      sstore\n      pop\n        /* \"contracts/DvTicket.sol\":4175:4183  ticketId */\n      dup1\n        /* \"contracts/DvTicket.sol\":4161:4173  _msgSender() */\n      tag_240\n        /* \"contracts/DvTicket.sol\":4161:4171  _msgSender */\n      tag_114\n        /* \"contracts/DvTicket.sol\":4161:4173  _msgSender() */\n      jump\t// in\n    tag_240:\n        /* \"contracts/DvTicket.sol\":4154:4184  booked(_msgSender(), ticketId) */\n      0xffffffffffffffffffffffffffffffffffffffff\n      and\n      0x48dde1ed76eb2bb4c3af46b59060ddb6d9a74d35c3c6af84e27f370036ae784e\n      mload(0x40)\n      mload(0x40)\n      dup1\n      swap2\n      sub\n      swap1\n      log3\n        /* \"contracts/DvTicket.sol\":2887:4191  function purchase(uint256 ticketId) external payable {... */\n      pop\n      jump\t// out\n        /* \"@devest/contracts/DeVest.sol\":2599:2786  function transferOwnership(address newOwner) public virtual onlyOwner {... */\n    tag_110:\n        /* \"@devest/contracts/DeVest.sol\":1357:1369  _msgSender() */\n      tag_242\n        /* \"@devest/contracts/DeVest.sol\":1357:1367  _msgSender */\n      tag_114\n        /* \"@devest/contracts/DeVest.sol\":1357:1369  _msgSender() */\n      jump\t// in\n    tag_242:\n        /* \"@devest/contracts/DeVest.sol\":1347:1369  _owner == _msgSender() */\n      0xffffffffffffffffffffffffffffffffffffffff\n      and\n        /* \"@devest/contracts/DeVest.sol\":1347:1353  _owner */\n      0x01\n      0x00\n      swap1\n      sload\n      swap1\n      0x0100\n      exp\n      swap1\n      div\n      0xffffffffffffffffffffffffffffffffffffffff\n      and\n        /* \"@devest/contracts/DeVest.sol\":1347:1369  _owner == _msgSender() */\n      0xffffffffffffffffffffffffffffffffffffffff\n      and\n      eq\n        /* \"@devest/contracts/DeVest.sol\":1339:1404  require(_owner == _msgSender(), \"Owner: caller is not the owner\") */\n      tag_243\n      jumpi\n      mload(0x40)\n      0x08c379a000000000000000000000000000000000000000000000000000000000\n      dup2\n      mstore\n      0x04\n      add\n      tag_244\n      swap1\n      tag_122\n      jump\t// in\n    tag_244:\n      mload(0x40)\n      dup1\n      swap2\n      sub\n      swap1\n      revert\n    tag_243:\n        /* \"@devest/contracts/DeVest.sol\":2707:2708  0 */\n      0x00\n        /* \"@devest/contracts/DeVest.sol\":2687:2709  newOwner != address(0) */\n      0xffffffffffffffffffffffffffffffffffffffff\n      and\n        /* \"@devest/contracts/DeVest.sol\":2687:2695  newOwner */\n      dup2\n        /* \"@devest/contracts/DeVest.sol\":2687:2709  newOwner != address(0) */\n      0xffffffffffffffffffffffffffffffffffffffff\n      and\n      sub\n        /* \"@devest/contracts/DeVest.sol\":2679:2752  require(newOwner != address(0), \"Ownable: new owner is the zero address\") */\n      tag_246\n      jumpi\n      mload(0x40)\n      0x08c379a000000000000000000000000000000000000000000000000000000000\n      dup2\n      mstore\n      0x04\n      add\n      tag_247\n      swap1\n      tag_248\n      jump\t// in\n    tag_247:\n      mload(0x40)\n      dup1\n      swap2\n      sub\n      swap1\n      revert\n    tag_246:\n        /* \"@devest/contracts/DeVest.sol\":2771:2779  newOwner */\n      dup1\n        /* \"@devest/contracts/DeVest.sol\":2762:2768  _owner */\n      0x01\n      0x00\n        /* \"@devest/contracts/DeVest.sol\":2762:2779  _owner = newOwner */\n      0x0100\n      exp\n      dup2\n      sload\n      dup2\n      0xffffffffffffffffffffffffffffffffffffffff\n      mul\n      not\n      and\n      swap1\n      dup4\n      0xffffffffffffffffffffffffffffffffffffffff\n      and\n      mul\n      or\n      swap1\n      sstore\n      pop\n        /* \"@devest/contracts/DeVest.sol\":2599:2786  function transferOwnership(address newOwner) public virtual onlyOwner {... */\n      pop\n      jump\t// out\n        /* \"@openzeppelin/contracts/utils/Context.sol\":640:736  function _msgSender() internal view virtual returns (address) {... */\n    tag_114:\n        /* \"@openzeppelin/contracts/utils/Context.sol\":693:700  address */\n      0x00\n        /* \"@openzeppelin/contracts/utils/Context.sol\":719:729  msg.sender */\n      caller\n        /* \"@openzeppelin/contracts/utils/Context.sol\":712:729  return msg.sender */\n      swap1\n      pop\n        /* \"@openzeppelin/contracts/utils/Context.sol\":640:736  function _msgSender() internal view virtual returns (address) {... */\n      swap1\n      jump\t// out\n        /* \"@devest/contracts/VestingToken.sol\":1061:1349  function __balanceOf(address account) internal view returns (uint256) {... */\n    tag_126:\n        /* \"@devest/contracts/VestingToken.sol\":1122:1129  uint256 */\n      0x00\n        /* \"@devest/contracts/VestingToken.sol\":1170:1171  0 */\n      dup1\n        /* \"@devest/contracts/VestingToken.sol\":1145:1172  _vestingToken == address(0) */\n      0xffffffffffffffffffffffffffffffffffffffff\n      and\n        /* \"@devest/contracts/VestingToken.sol\":1145:1158  _vestingToken */\n      0x05\n      0x00\n      swap1\n      sload\n      swap1\n      0x0100\n      exp\n      swap1\n      div\n      0xffffffffffffffffffffffffffffffffffffffff\n      and\n        /* \"@devest/contracts/VestingToken.sol\":1145:1172  _vestingToken == address(0) */\n      0xffffffffffffffffffffffffffffffffffffffff\n      and\n      sub\n        /* \"@devest/contracts/VestingToken.sol\":1141:1343  if (_vestingToken == address(0)){... */\n      tag_251\n      jumpi\n        /* \"@devest/contracts/VestingToken.sol\":1202:1209  account */\n      dup2\n        /* \"@devest/contracts/VestingToken.sol\":1194:1218  address(account).balance */\n      0xffffffffffffffffffffffffffffffffffffffff\n      and\n      balance\n        /* \"@devest/contracts/VestingToken.sol\":1187:1218  return address(account).balance */\n      swap1\n      pop\n      jump(tag_250)\n        /* \"@devest/contracts/VestingToken.sol\":1141:1343  if (_vestingToken == address(0)){... */\n    tag_251:\n        /* \"@devest/contracts/VestingToken.sol\":1249:1262  IERC20 _token */\n      0x00\n        /* \"@devest/contracts/VestingToken.sol\":1272:1285  _vestingToken */\n      0x05\n      0x00\n      swap1\n      sload\n      swap1\n      0x0100\n      exp\n      swap1\n      div\n      0xffffffffffffffffffffffffffffffffffffffff\n      and\n        /* \"@devest/contracts/VestingToken.sol\":1249:1286  IERC20 _token = IERC20(_vestingToken) */\n      swap1\n      pop\n        /* \"@devest/contracts/VestingToken.sol\":1307:1313  _token */\n      dup1\n        /* \"@devest/contracts/VestingToken.sol\":1307:1323  _token.balanceOf */\n      0xffffffffffffffffffffffffffffffffffffffff\n      and\n      0x70a08231\n        /* \"@devest/contracts/VestingToken.sol\":1324:1331  account */\n      dup5\n        /* \"@devest/contracts/VestingToken.sol\":1307:1332  _token.balanceOf(account) */\n      mload(0x40)\n      dup3\n      0xffffffff\n      and\n      0xe0\n      shl\n      dup2\n      mstore\n      0x04\n      add\n      tag_253\n      swap2\n      swap1\n      tag_56\n      jump\t// in\n    tag_253:\n      0x20\n      mload(0x40)\n      dup1\n      dup4\n      sub\n      dup2\n      dup7\n      gas\n      staticcall\n      iszero\n      dup1\n      iszero\n      tag_255\n      jumpi\n      returndatasize\n      0x00\n      dup1\n      returndatacopy\n      revert(0x00, returndatasize)\n    tag_255:\n      pop\n      pop\n      pop\n      pop\n      mload(0x40)\n      returndatasize\n      not(0x1f)\n      0x1f\n      dup3\n      add\n      and\n      dup3\n      add\n      dup1\n      0x40\n      mstore\n      pop\n      dup2\n      add\n      swap1\n      tag_256\n      swap2\n      swap1\n      tag_257\n      jump\t// in\n    tag_256:\n        /* \"@devest/contracts/VestingToken.sol\":1300:1332  return _token.balanceOf(account) */\n      swap2\n      pop\n      pop\n        /* \"@devest/contracts/VestingToken.sol\":1061:1349  function __balanceOf(address account) internal view returns (uint256) {... */\n    tag_250:\n      swap2\n      swap1\n      pop\n      jump\t// out\n        /* \"@devest/contracts/VestingToken.sol\":314:599  function __transfer(address receiver, uint256 amount) internal {... */\n    tag_127:\n        /* \"@devest/contracts/VestingToken.sol\":416:417  0 */\n      0x00\n        /* \"@devest/contracts/VestingToken.sol\":391:418  _vestingToken == address(0) */\n      0xffffffffffffffffffffffffffffffffffffffff\n      and\n        /* \"@devest/contracts/VestingToken.sol\":391:404  _vestingToken */\n      0x05\n      0x00\n      swap1\n      sload\n      swap1\n      0x0100\n      exp\n      swap1\n      div\n      0xffffffffffffffffffffffffffffffffffffffff\n      and\n        /* \"@devest/contracts/VestingToken.sol\":391:418  _vestingToken == address(0) */\n      0xffffffffffffffffffffffffffffffffffffffff\n      and\n      sub\n        /* \"@devest/contracts/VestingToken.sol\":387:593  if (_vestingToken == address(0)){... */\n      tag_259\n      jumpi\n        /* \"@devest/contracts/VestingToken.sol\":441:449  receiver */\n      dup2\n        /* \"@devest/contracts/VestingToken.sol\":433:459  payable(receiver).transfer */\n      0xffffffffffffffffffffffffffffffffffffffff\n      and\n        /* \"@devest/contracts/VestingToken.sol\":433:467  payable(receiver).transfer(amount) */\n      0x08fc\n        /* \"@devest/contracts/VestingToken.sol\":460:466  amount */\n      dup3\n        /* \"@devest/contracts/VestingToken.sol\":433:467  payable(receiver).transfer(amount) */\n      swap1\n      dup2\n      iszero\n      mul\n      swap1\n      mload(0x40)\n      0x00\n      mload(0x40)\n      dup1\n      dup4\n      sub\n      dup2\n      dup6\n      dup9\n      dup9\n      call\n      swap4\n      pop\n      pop\n      pop\n      pop\n      iszero\n      dup1\n      iszero\n      tag_261\n      jumpi\n      returndatasize\n      0x00\n      dup1\n      returndatacopy\n      revert(0x00, returndatasize)\n    tag_261:\n      pop\n        /* \"@devest/contracts/VestingToken.sol\":387:593  if (_vestingToken == address(0)){... */\n      jump(tag_262)\n    tag_259:\n        /* \"@devest/contracts/VestingToken.sol\":498:511  IERC20 _token */\n      0x00\n        /* \"@devest/contracts/VestingToken.sol\":521:534  _vestingToken */\n      0x05\n      0x00\n      swap1\n      sload\n      swap1\n      0x0100\n      exp\n      swap1\n      div\n      0xffffffffffffffffffffffffffffffffffffffff\n      and\n        /* \"@devest/contracts/VestingToken.sol\":498:535  IERC20 _token = IERC20(_vestingToken) */\n      swap1\n      pop\n        /* \"@devest/contracts/VestingToken.sol\":549:555  _token */\n      dup1\n        /* \"@devest/contracts/VestingToken.sol\":549:564  _token.transfer */\n      0xffffffffffffffffffffffffffffffffffffffff\n      and\n      0xa9059cbb\n        /* \"@devest/contracts/VestingToken.sol\":565:573  receiver */\n      dup5\n        /* \"@devest/contracts/VestingToken.sol\":575:581  amount */\n      dup5\n        /* \"@devest/contracts/VestingToken.sol\":549:582  _token.transfer(receiver, amount) */\n      mload(0x40)\n      dup4\n      0xffffffff\n      and\n      0xe0\n      shl\n      dup2\n      mstore\n      0x04\n      add\n      tag_263\n      swap3\n      swap2\n      swap1\n      tag_264\n      jump\t// in\n    tag_263:\n      0x20\n      mload(0x40)\n      dup1\n      dup4\n      sub\n      dup2\n      0x00\n      dup8\n      gas\n      call\n      iszero\n      dup1\n      iszero\n      tag_266\n      jumpi\n      returndatasize\n      0x00\n      dup1\n      returndatacopy\n      revert(0x00, returndatasize)\n    tag_266:\n      pop\n      pop\n      pop\n      pop\n      mload(0x40)\n      returndatasize\n      not(0x1f)\n      0x1f\n      dup3\n      add\n      and\n      dup3\n      add\n      dup1\n      0x40\n      mstore\n      pop\n      dup2\n      add\n      swap1\n      tag_267\n      swap2\n      swap1\n      tag_268\n      jump\t// in\n    tag_267:\n      pop\n        /* \"@devest/contracts/VestingToken.sol\":484:593  {... */\n      pop\n        /* \"@devest/contracts/VestingToken.sol\":387:593  if (_vestingToken == address(0)){... */\n    tag_262:\n        /* \"@devest/contracts/VestingToken.sol\":314:599  function __transfer(address receiver, uint256 amount) internal {... */\n      pop\n      pop\n      jump\t// out\n        /* \"@devest/contracts/DeVest.sol\":2194:2450  function _setRoyalties(uint256 __royalty, address __royaltyRecipient) internal {... */\n    tag_146:\n        /* \"@devest/contracts/DeVest.sol\":2304:2305  0 */\n      0x00\n        /* \"@devest/contracts/DeVest.sol\":2291:2300  __royalty */\n      dup3\n        /* \"@devest/contracts/DeVest.sol\":2291:2305  __royalty >= 0 */\n      lt\n      iszero\n        /* \"@devest/contracts/DeVest.sol\":2291:2326  __royalty >= 0 && __royalty <= 1000 */\n      dup1\n      iszero\n      tag_270\n      jumpi\n      pop\n        /* \"@devest/contracts/DeVest.sol\":2322:2326  1000 */\n      0x03e8\n        /* \"@devest/contracts/DeVest.sol\":2309:2318  __royalty */\n      dup3\n        /* \"@devest/contracts/DeVest.sol\":2309:2326  __royalty <= 1000 */\n      gt\n      iszero\n        /* \"@devest/contracts/DeVest.sol\":2291:2326  __royalty >= 0 && __royalty <= 1000 */\n    tag_270:\n        /* \"@devest/contracts/DeVest.sol\":2283:2365  require(__royalty >= 0 && __royalty <= 1000, 'Royalty must be between 0 and 1000') */\n      tag_271\n      jumpi\n      mload(0x40)\n      0x08c379a000000000000000000000000000000000000000000000000000000000\n      dup2\n      mstore\n      0x04\n      add\n      tag_272\n      swap1\n      tag_273\n      jump\t// in\n    tag_272:\n      mload(0x40)\n      dup1\n      swap2\n      sub\n      swap1\n      revert\n    tag_271:\n        /* \"@devest/contracts/DeVest.sol\":2386:2395  __royalty */\n      dup2\n        /* \"@devest/contracts/DeVest.sol\":2375:2383  _royalty */\n      0x03\n        /* \"@devest/contracts/DeVest.sol\":2375:2395  _royalty = __royalty */\n      dup2\n      swap1\n      sstore\n      pop\n        /* \"@devest/contracts/DeVest.sol\":2425:2443  __royaltyRecipient */\n      dup1\n        /* \"@devest/contracts/DeVest.sol\":2405:2422  _royaltyRecipient */\n      0x02\n      0x00\n        /* \"@devest/contracts/DeVest.sol\":2405:2443  _royaltyRecipient = __royaltyRecipient */\n      0x0100\n      exp\n      dup2\n      sload\n      dup2\n      0xffffffffffffffffffffffffffffffffffffffff\n      mul\n      not\n      and\n      swap1\n      dup4\n      0xffffffffffffffffffffffffffffffffffffffff\n      and\n      mul\n      or\n      swap1\n      sstore\n      pop\n        /* \"@devest/contracts/DeVest.sol\":2194:2450  function _setRoyalties(uint256 __royalty, address __royaltyRecipient) internal {... */\n      pop\n      pop\n      jump\t// out\n        /* \"@openzeppelin/contracts/security/ReentrancyGuard.sol\":2336:2623  function _nonReentrantBefore() private {... */\n    tag_158:\n        /* \"@openzeppelin/contracts/security/ReentrancyGuard.sol\":1759:1760  2 */\n      0x02\n        /* \"@openzeppelin/contracts/security/ReentrancyGuard.sol\":2468:2475  _status */\n      sload(0x04)\n        /* \"@openzeppelin/contracts/security/ReentrancyGuard.sol\":2468:2487  _status != _ENTERED */\n      sub\n        /* \"@openzeppelin/contracts/security/ReentrancyGuard.sol\":2460:2523  require(_status != _ENTERED, \"ReentrancyGuard: reentrant call\") */\n      tag_275\n      jumpi\n      mload(0x40)\n      0x08c379a000000000000000000000000000000000000000000000000000000000\n      dup2\n      mstore\n      0x04\n      add\n      tag_276\n      swap1\n      tag_277\n      jump\t// in\n    tag_276:\n      mload(0x40)\n      dup1\n      swap2\n      sub\n      swap1\n      revert\n    tag_275:\n        /* \"@openzeppelin/contracts/security/ReentrancyGuard.sol\":1759:1760  2 */\n      0x02\n        /* \"@openzeppelin/contracts/security/ReentrancyGuard.sol\":2598:2605  _status */\n      0x04\n        /* \"@openzeppelin/contracts/security/ReentrancyGuard.sol\":2598:2616  _status = _ENTERED */\n      dup2\n      swap1\n      sstore\n      pop\n        /* \"@openzeppelin/contracts/security/ReentrancyGuard.sol\":2336:2623  function _nonReentrantBefore() private {... */\n      jump\t// out\n        /* \"@openzeppelin/contracts/security/ReentrancyGuard.sol\":2629:2838  function _nonReentrantAfter() private {... */\n    tag_171:\n        /* \"@openzeppelin/contracts/security/ReentrancyGuard.sol\":1716:1717  1 */\n      0x01\n        /* \"@openzeppelin/contracts/security/ReentrancyGuard.sol\":2809:2816  _status */\n      0x04\n        /* \"@openzeppelin/contracts/security/ReentrancyGuard.sol\":2809:2831  _status = _NOT_ENTERED */\n      dup2\n      swap1\n      sstore\n      pop\n        /* \"@openzeppelin/contracts/security/ReentrancyGuard.sol\":2629:2838  function _nonReentrantAfter() private {... */\n      jump\t// out\n        /* \"@devest/contracts/VestingToken.sol\":1404:1838  function __allowance(address account, uint256 amount) internal {... */\n    tag_231:\n        /* \"@devest/contracts/VestingToken.sol\":1506:1507  0 */\n      0x00\n        /* \"@devest/contracts/VestingToken.sol\":1481:1508  _vestingToken == address(0) */\n      0xffffffffffffffffffffffffffffffffffffffff\n      and\n        /* \"@devest/contracts/VestingToken.sol\":1481:1494  _vestingToken */\n      0x05\n      0x00\n      swap1\n      sload\n      swap1\n      0x0100\n      exp\n      swap1\n      div\n      0xffffffffffffffffffffffffffffffffffffffff\n      and\n        /* \"@devest/contracts/VestingToken.sol\":1481:1508  _vestingToken == address(0) */\n      0xffffffffffffffffffffffffffffffffffffffff\n      and\n      sub\n        /* \"@devest/contracts/VestingToken.sol\":1477:1832  if (_vestingToken == address(0)){... */\n      tag_280\n      jumpi\n        /* \"@devest/contracts/VestingToken.sol\":1550:1551  0 */\n      0x00\n        /* \"@devest/contracts/VestingToken.sol\":1531:1552  account != address(0) */\n      0xffffffffffffffffffffffffffffffffffffffff\n      and\n        /* \"@devest/contracts/VestingToken.sol\":1531:1538  account */\n      dup3\n        /* \"@devest/contracts/VestingToken.sol\":1531:1552  account != address(0) */\n      0xffffffffffffffffffffffffffffffffffffffff\n      and\n      sub\n        /* \"@devest/contracts/VestingToken.sol\":1523:1571  require(account != address(0), 'Invalid sender') */\n      tag_281\n      jumpi\n      mload(0x40)\n      0x08c379a000000000000000000000000000000000000000000000000000000000\n      dup2\n      mstore\n      0x04\n      add\n      tag_282\n      swap1\n      tag_283\n      jump\t// in\n    tag_282:\n      mload(0x40)\n      dup1\n      swap2\n      sub\n      swap1\n      revert\n    tag_281:\n        /* \"@devest/contracts/VestingToken.sol\":1606:1612  amount */\n      dup1\n        /* \"@devest/contracts/VestingToken.sol\":1593:1602  msg.value */\n      callvalue\n        /* \"@devest/contracts/VestingToken.sol\":1593:1612  msg.value >= amount */\n      lt\n      iszero\n        /* \"@devest/contracts/VestingToken.sol\":1585:1645  require(msg.value >= amount, 'Insufficient token submitted') */\n      tag_284\n      jumpi\n      mload(0x40)\n      0x08c379a000000000000000000000000000000000000000000000000000000000\n      dup2\n      mstore\n      0x04\n      add\n      tag_285\n      swap1\n      tag_286\n      jump\t// in\n    tag_285:\n      mload(0x40)\n      dup1\n      swap2\n      sub\n      swap1\n      revert\n    tag_284:\n        /* \"@devest/contracts/VestingToken.sol\":1477:1832  if (_vestingToken == address(0)){... */\n      jump(tag_287)\n    tag_280:\n        /* \"@devest/contracts/VestingToken.sol\":1676:1689  IERC20 _token */\n      0x00\n        /* \"@devest/contracts/VestingToken.sol\":1699:1712  _vestingToken */\n      0x05\n      0x00\n      swap1\n      sload\n      swap1\n      0x0100\n      exp\n      swap1\n      div\n      0xffffffffffffffffffffffffffffffffffffffff\n      and\n        /* \"@devest/contracts/VestingToken.sol\":1676:1713  IERC20 _token = IERC20(_vestingToken) */\n      swap1\n      pop\n        /* \"@devest/contracts/VestingToken.sol\":1779:1785  amount */\n      dup2\n        /* \"@devest/contracts/VestingToken.sol\":1735:1741  _token */\n      dup2\n        /* \"@devest/contracts/VestingToken.sol\":1735:1751  _token.allowance */\n      0xffffffffffffffffffffffffffffffffffffffff\n      and\n      0xdd62ed3e\n        /* \"@devest/contracts/VestingToken.sol\":1752:1759  account */\n      dup6\n        /* \"@devest/contracts/VestingToken.sol\":1769:1773  this */\n      address\n        /* \"@devest/contracts/VestingToken.sol\":1735:1775  _token.allowance(account, address(this)) */\n      mload(0x40)\n      dup4\n      0xffffffff\n      and\n      0xe0\n      shl\n      dup2\n      mstore\n      0x04\n      add\n      tag_288\n      swap3\n      swap2\n      swap1\n      tag_289\n      jump\t// in\n    tag_288:\n      0x20\n      mload(0x40)\n      dup1\n      dup4\n      sub\n      dup2\n      dup7\n      gas\n      staticcall\n      iszero\n      dup1\n      iszero\n      tag_291\n      jumpi\n      returndatasize\n      0x00\n      dup1\n      returndatacopy\n      revert(0x00, returndatasize)\n    tag_291:\n      pop\n      pop\n      pop\n      pop\n      mload(0x40)\n      returndatasize\n      not(0x1f)\n      0x1f\n      dup3\n      add\n      and\n      dup3\n      add\n      dup1\n      0x40\n      mstore\n      pop\n      dup2\n      add\n      swap1\n      tag_292\n      swap2\n      swap1\n      tag_257\n      jump\t// in\n    tag_292:\n        /* \"@devest/contracts/VestingToken.sol\":1735:1785  _token.allowance(account, address(this)) >= amount */\n      lt\n      iszero\n        /* \"@devest/contracts/VestingToken.sol\":1727:1821  require(_token.allowance(account, address(this)) >= amount, 'Insufficient allowance provided') */\n      tag_293\n      jumpi\n      mload(0x40)\n      0x08c379a000000000000000000000000000000000000000000000000000000000\n      dup2\n      mstore\n      0x04\n      add\n      tag_294\n      swap1\n      tag_295\n      jump\t// in\n    tag_294:\n      mload(0x40)\n      dup1\n      swap2\n      sub\n      swap1\n      revert\n    tag_293:\n        /* \"@devest/contracts/VestingToken.sol\":1662:1832  {... */\n      pop\n        /* \"@devest/contracts/VestingToken.sol\":1477:1832  if (_vestingToken == address(0)){... */\n    tag_287:\n        /* \"@devest/contracts/VestingToken.sol\":1404:1838  function __allowance(address account, uint256 amount) internal {... */\n      pop\n      pop\n      jump\t// out\n        /* \"@devest/contracts/VestingToken.sol\":657:1009  function __transferFrom(address sender, address receiver, uint256 amount) internal {... */\n    tag_234:\n        /* \"@devest/contracts/VestingToken.sol\":779:780  0 */\n      0x00\n        /* \"@devest/contracts/VestingToken.sol\":754:781  _vestingToken == address(0) */\n      0xffffffffffffffffffffffffffffffffffffffff\n      and\n        /* \"@devest/contracts/VestingToken.sol\":754:767  _vestingToken */\n      0x05\n      0x00\n      swap1\n      sload\n      swap1\n      0x0100\n      exp\n      swap1\n      div\n      0xffffffffffffffffffffffffffffffffffffffff\n      and\n        /* \"@devest/contracts/VestingToken.sol\":754:781  _vestingToken == address(0) */\n      0xffffffffffffffffffffffffffffffffffffffff\n      and\n      sub\n        /* \"@devest/contracts/VestingToken.sol\":750:1003  if (_vestingToken == address(0)){... */\n      tag_297\n      jumpi\n        /* \"@devest/contracts/VestingToken.sol\":818:824  amount */\n      dup1\n        /* \"@devest/contracts/VestingToken.sol\":804:813  msg.value */\n      callvalue\n        /* \"@devest/contracts/VestingToken.sol\":804:825  msg.value >= (amount) */\n      lt\n      iszero\n        /* \"@devest/contracts/VestingToken.sol\":796:865  require(msg.value >= (amount), \"Insufficient funds provided (value)\") */\n      tag_298\n      jumpi\n      mload(0x40)\n      0x08c379a000000000000000000000000000000000000000000000000000000000\n      dup2\n      mstore\n      0x04\n      add\n      tag_299\n      swap1\n      tag_300\n      jump\t// in\n    tag_299:\n      mload(0x40)\n      dup1\n      swap2\n      sub\n      swap1\n      revert\n    tag_298:\n        /* \"@devest/contracts/VestingToken.sol\":750:1003  if (_vestingToken == address(0)){... */\n      jump(tag_301)\n    tag_297:\n        /* \"@devest/contracts/VestingToken.sol\":896:909  IERC20 _token */\n      0x00\n        /* \"@devest/contracts/VestingToken.sol\":919:932  _vestingToken */\n      0x05\n      0x00\n      swap1\n      sload\n      swap1\n      0x0100\n      exp\n      swap1\n      div\n      0xffffffffffffffffffffffffffffffffffffffff\n      and\n        /* \"@devest/contracts/VestingToken.sol\":896:933  IERC20 _token = IERC20(_vestingToken) */\n      swap1\n      pop\n        /* \"@devest/contracts/VestingToken.sol\":947:953  _token */\n      dup1\n        /* \"@devest/contracts/VestingToken.sol\":947:966  _token.transferFrom */\n      0xffffffffffffffffffffffffffffffffffffffff\n      and\n      0x23b872dd\n        /* \"@devest/contracts/VestingToken.sol\":967:973  sender */\n      dup6\n        /* \"@devest/contracts/VestingToken.sol\":975:983  receiver */\n      dup6\n        /* \"@devest/contracts/VestingToken.sol\":985:991  amount */\n      dup6\n        /* \"@devest/contracts/VestingToken.sol\":947:992  _token.transferFrom(sender, receiver, amount) */\n      mload(0x40)\n      dup5\n      0xffffffff\n      and\n      0xe0\n      shl\n      dup2\n      mstore\n      0x04\n      add\n      tag_302\n      swap4\n      swap3\n      swap2\n      swap1\n      tag_303\n      jump\t// in\n    tag_302:\n      0x20\n      mload(0x40)\n      dup1\n      dup4\n      sub\n      dup2\n      0x00\n      dup8\n      gas\n      call\n      iszero\n      dup1\n      iszero\n      tag_305\n      jumpi\n      returndatasize\n      0x00\n      dup1\n      returndatacopy\n      revert(0x00, returndatasize)\n    tag_305:\n      pop\n      pop\n      pop\n      pop\n      mload(0x40)\n      returndatasize\n      not(0x1f)\n      0x1f\n      dup3\n      add\n      and\n      dup3\n      add\n      dup1\n      0x40\n      mstore\n      pop\n      dup2\n      add\n      swap1\n      tag_306\n      swap2\n      swap1\n      tag_268\n      jump\t// in\n    tag_306:\n      pop\n        /* \"@devest/contracts/VestingToken.sol\":882:1003  {... */\n      pop\n        /* \"@devest/contracts/VestingToken.sol\":750:1003  if (_vestingToken == address(0)){... */\n    tag_301:\n        /* \"@devest/contracts/VestingToken.sol\":657:1009  function __transferFrom(address sender, address receiver, uint256 amount) internal {... */\n      pop\n      pop\n      pop\n      jump\t// out\n        /* \"#utility.yul\":88:205   */\n    tag_308:\n        /* \"#utility.yul\":197:198   */\n      0x00\n        /* \"#utility.yul\":194:195   */\n      dup1\n        /* \"#utility.yul\":187:199   */\n      revert\n        /* \"#utility.yul\":334:483   */\n    tag_310:\n        /* \"#utility.yul\":370:377   */\n      0x00\n        /* \"#utility.yul\":410:476   */\n      0xffffffff00000000000000000000000000000000000000000000000000000000\n        /* \"#utility.yul\":403:408   */\n      dup3\n        /* \"#utility.yul\":399:477   */\n      and\n        /* \"#utility.yul\":388:477   */\n      swap1\n      pop\n        /* \"#utility.yul\":334:483   */\n      swap2\n      swap1\n      pop\n      jump\t// out\n        /* \"#utility.yul\":489:609   */\n    tag_311:\n        /* \"#utility.yul\":561:584   */\n      tag_377\n        /* \"#utility.yul\":578:583   */\n      dup2\n        /* \"#utility.yul\":561:584   */\n      tag_310\n      jump\t// in\n    tag_377:\n        /* \"#utility.yul\":554:559   */\n      dup2\n        /* \"#utility.yul\":551:585   */\n      eq\n        /* \"#utility.yul\":541:603   */\n      tag_378\n      jumpi\n        /* \"#utility.yul\":599:600   */\n      0x00\n        /* \"#utility.yul\":596:597   */\n      dup1\n        /* \"#utility.yul\":589:601   */\n      revert\n        /* \"#utility.yul\":541:603   */\n    tag_378:\n        /* \"#utility.yul\":489:609   */\n      pop\n      jump\t// out\n        /* \"#utility.yul\":615:752   */\n    tag_312:\n        /* \"#utility.yul\":660:665   */\n      0x00\n        /* \"#utility.yul\":698:704   */\n      dup2\n        /* \"#utility.yul\":685:705   */\n      calldataload\n        /* \"#utility.yul\":676:705   */\n      swap1\n      pop\n        /* \"#utility.yul\":714:746   */\n      tag_380\n        /* \"#utility.yul\":740:745   */\n      dup2\n        /* \"#utility.yul\":714:746   */\n      tag_311\n      jump\t// in\n    tag_380:\n        /* \"#utility.yul\":615:752   */\n      swap3\n      swap2\n      pop\n      pop\n      jump\t// out\n        /* \"#utility.yul\":758:1085   */\n    tag_27:\n        /* \"#utility.yul\":816:822   */\n      0x00\n        /* \"#utility.yul\":865:867   */\n      0x20\n        /* \"#utility.yul\":853:862   */\n      dup3\n        /* \"#utility.yul\":844:851   */\n      dup5\n        /* \"#utility.yul\":840:863   */\n      sub\n        /* \"#utility.yul\":836:868   */\n      slt\n        /* \"#utility.yul\":833:952   */\n      iszero\n      tag_382\n      jumpi\n        /* \"#utility.yul\":871:950   */\n      tag_383\n      tag_308\n      jump\t// in\n    tag_383:\n        /* \"#utility.yul\":833:952   */\n    tag_382:\n        /* \"#utility.yul\":991:992   */\n      0x00\n        /* \"#utility.yul\":1016:1068   */\n      tag_384\n        /* \"#utility.yul\":1060:1067   */\n      dup5\n        /* \"#utility.yul\":1051:1057   */\n      dup3\n        /* \"#utility.yul\":1040:1049   */\n      dup6\n        /* \"#utility.yul\":1036:1058   */\n      add\n        /* \"#utility.yul\":1016:1068   */\n      tag_312\n      jump\t// in\n    tag_384:\n        /* \"#utility.yul\":1006:1068   */\n      swap2\n      pop\n        /* \"#utility.yul\":962:1078   */\n      pop\n        /* \"#utility.yul\":758:1085   */\n      swap3\n      swap2\n      pop\n      pop\n      jump\t// out\n        /* \"#utility.yul\":1091:1181   */\n    tag_313:\n        /* \"#utility.yul\":1125:1132   */\n      0x00\n        /* \"#utility.yul\":1168:1173   */\n      dup2\n        /* \"#utility.yul\":1161:1174   */\n      iszero\n        /* \"#utility.yul\":1154:1175   */\n      iszero\n        /* \"#utility.yul\":1143:1175   */\n      swap1\n      pop\n        /* \"#utility.yul\":1091:1181   */\n      swap2\n      swap1\n      pop\n      jump\t// out\n        /* \"#utility.yul\":1187:1296   */\n    tag_314:\n        /* \"#utility.yul\":1268:1289   */\n      tag_387\n        /* \"#utility.yul\":1283:1288   */\n      dup2\n        /* \"#utility.yul\":1268:1289   */\n      tag_313\n      jump\t// in\n    tag_387:\n        /* \"#utility.yul\":1263:1266   */\n      dup3\n        /* \"#utility.yul\":1256:1290   */\n      mstore\n        /* \"#utility.yul\":1187:1296   */\n      pop\n      pop\n      jump\t// out\n        /* \"#utility.yul\":1302:1512   */\n    tag_30:\n        /* \"#utility.yul\":1389:1393   */\n      0x00\n        /* \"#utility.yul\":1427:1429   */\n      0x20\n        /* \"#utility.yul\":1416:1425   */\n      dup3\n        /* \"#utility.yul\":1412:1430   */\n      add\n        /* \"#utility.yul\":1404:1430   */\n      swap1\n      pop\n        /* \"#utility.yul\":1440:1505   */\n      tag_389\n        /* \"#utility.yul\":1502:1503   */\n      0x00\n        /* \"#utility.yul\":1491:1500   */\n      dup4\n        /* \"#utility.yul\":1487:1504   */\n      add\n        /* \"#utility.yul\":1478:1484   */\n      dup5\n        /* \"#utility.yul\":1440:1505   */\n      tag_314\n      jump\t// in\n    tag_389:\n        /* \"#utility.yul\":1302:1512   */\n      swap3\n      swap2\n      pop\n      pop\n      jump\t// out\n        /* \"#utility.yul\":1518:1595   */\n    tag_315:\n        /* \"#utility.yul\":1555:1562   */\n      0x00\n        /* \"#utility.yul\":1584:1589   */\n      dup2\n        /* \"#utility.yul\":1573:1589   */\n      swap1\n      pop\n        /* \"#utility.yul\":1518:1595   */\n      swap2\n      swap1\n      pop\n      jump\t// out\n        /* \"#utility.yul\":1601:1719   */\n    tag_316:\n        /* \"#utility.yul\":1688:1712   */\n      tag_392\n        /* \"#utility.yul\":1706:1711   */\n      dup2\n        /* \"#utility.yul\":1688:1712   */\n      tag_315\n      jump\t// in\n    tag_392:\n        /* \"#utility.yul\":1683:1686   */\n      dup3\n        /* \"#utility.yul\":1676:1713   */\n      mstore\n        /* \"#utility.yul\":1601:1719   */\n      pop\n      pop\n      jump\t// out\n        /* \"#utility.yul\":1725:1947   */\n    tag_35:\n        /* \"#utility.yul\":1818:1822   */\n      0x00\n        /* \"#utility.yul\":1856:1858   */\n      0x20\n        /* \"#utility.yul\":1845:1854   */\n      dup3\n        /* \"#utility.yul\":1841:1859   */\n      add\n        /* \"#utility.yul\":1833:1859   */\n      swap1\n      pop\n        /* \"#utility.yul\":1869:1940   */\n      tag_394\n        /* \"#utility.yul\":1937:1938   */\n      0x00\n        /* \"#utility.yul\":1926:1935   */\n      dup4\n        /* \"#utility.yul\":1922:1939   */\n      add\n        /* \"#utility.yul\":1913:1919   */\n      dup5\n        /* \"#utility.yul\":1869:1940   */\n      tag_316\n      jump\t// in\n    tag_394:\n        /* \"#utility.yul\":1725:1947   */\n      swap3\n      swap2\n      pop\n      pop\n      jump\t// out\n        /* \"#utility.yul\":1953:2075   */\n    tag_317:\n        /* \"#utility.yul\":2026:2050   */\n      tag_396\n        /* \"#utility.yul\":2044:2049   */\n      dup2\n        /* \"#utility.yul\":2026:2050   */\n      tag_315\n      jump\t// in\n    tag_396:\n        /* \"#utility.yul\":2019:2024   */\n      dup2\n        /* \"#utility.yul\":2016:2051   */\n      eq\n        /* \"#utility.yul\":2006:2069   */\n      tag_397\n      jumpi\n        /* \"#utility.yul\":2065:2066   */\n      0x00\n        /* \"#utility.yul\":2062:2063   */\n      dup1\n        /* \"#utility.yul\":2055:2067   */\n      revert\n        /* \"#utility.yul\":2006:2069   */\n    tag_397:\n        /* \"#utility.yul\":1953:2075   */\n      pop\n      jump\t// out\n        /* \"#utility.yul\":2081:2220   */\n    tag_318:\n        /* \"#utility.yul\":2127:2132   */\n      0x00\n        /* \"#utility.yul\":2165:2171   */\n      dup2\n        /* \"#utility.yul\":2152:2172   */\n      calldataload\n        /* \"#utility.yul\":2143:2172   */\n      swap1\n      pop\n        /* \"#utility.yul\":2181:2214   */\n      tag_399\n        /* \"#utility.yul\":2208:2213   */\n      dup2\n        /* \"#utility.yul\":2181:2214   */\n      tag_317\n      jump\t// in\n    tag_399:\n        /* \"#utility.yul\":2081:2220   */\n      swap3\n      swap2\n      pop\n      pop\n      jump\t// out\n        /* \"#utility.yul\":2226:2352   */\n    tag_319:\n        /* \"#utility.yul\":2263:2270   */\n      0x00\n        /* \"#utility.yul\":2303:2345   */\n      0xffffffffffffffffffffffffffffffffffffffff\n        /* \"#utility.yul\":2296:2301   */\n      dup3\n        /* \"#utility.yul\":2292:2346   */\n      and\n        /* \"#utility.yul\":2281:2346   */\n      swap1\n      pop\n        /* \"#utility.yul\":2226:2352   */\n      swap2\n      swap1\n      pop\n      jump\t// out\n        /* \"#utility.yul\":2358:2454   */\n    tag_320:\n        /* \"#utility.yul\":2395:2402   */\n      0x00\n        /* \"#utility.yul\":2424:2448   */\n      tag_402\n        /* \"#utility.yul\":2442:2447   */\n      dup3\n        /* \"#utility.yul\":2424:2448   */\n      tag_319\n      jump\t// in\n    tag_402:\n        /* \"#utility.yul\":2413:2448   */\n      swap1\n      pop\n        /* \"#utility.yul\":2358:2454   */\n      swap2\n      swap1\n      pop\n      jump\t// out\n        /* \"#utility.yul\":2460:2582   */\n    tag_321:\n        /* \"#utility.yul\":2533:2557   */\n      tag_404\n        /* \"#utility.yul\":2551:2556   */\n      dup2\n        /* \"#utility.yul\":2533:2557   */\n      tag_320\n      jump\t// in\n    tag_404:\n        /* \"#utility.yul\":2526:2531   */\n      dup2\n        /* \"#utility.yul\":2523:2558   */\n      eq\n        /* \"#utility.yul\":2513:2576   */\n      tag_405\n      jumpi\n        /* \"#utility.yul\":2572:2573   */\n      0x00\n        /* \"#utility.yul\":2569:2570   */\n      dup1\n        /* \"#utility.yul\":2562:2574   */\n      revert\n        /* \"#utility.yul\":2513:2576   */\n    tag_405:\n        /* \"#utility.yul\":2460:2582   */\n      pop\n      jump\t// out\n        /* \"#utility.yul\":2588:2727   */\n    tag_322:\n        /* \"#utility.yul\":2634:2639   */\n      0x00\n        /* \"#utility.yul\":2672:2678   */\n      dup2\n        /* \"#utility.yul\":2659:2679   */\n      calldataload\n        /* \"#utility.yul\":2650:2679   */\n      swap1\n      pop\n        /* \"#utility.yul\":2688:2721   */\n      tag_407\n        /* \"#utility.yul\":2715:2720   */\n      dup2\n        /* \"#utility.yul\":2688:2721   */\n      tag_321\n      jump\t// in\n    tag_407:\n        /* \"#utility.yul\":2588:2727   */\n      swap3\n      swap2\n      pop\n      pop\n      jump\t// out\n        /* \"#utility.yul\":2733:3207   */\n    tag_48:\n        /* \"#utility.yul\":2801:2807   */\n      0x00\n        /* \"#utility.yul\":2809:2815   */\n      dup1\n        /* \"#utility.yul\":2858:2860   */\n      0x40\n        /* \"#utility.yul\":2846:2855   */\n      dup4\n        /* \"#utility.yul\":2837:2844   */\n      dup6\n        /* \"#utility.yul\":2833:2856   */\n      sub\n        /* \"#utility.yul\":2829:2861   */\n      slt\n        /* \"#utility.yul\":2826:2945   */\n      iszero\n      tag_409\n      jumpi\n        /* \"#utility.yul\":2864:2943   */\n      tag_410\n      tag_308\n      jump\t// in\n    tag_410:\n        /* \"#utility.yul\":2826:2945   */\n    tag_409:\n        /* \"#utility.yul\":2984:2985   */\n      0x00\n        /* \"#utility.yul\":3009:3062   */\n      tag_411\n        /* \"#utility.yul\":3054:3061   */\n      dup6\n        /* \"#utility.yul\":3045:3051   */\n      dup3\n        /* \"#utility.yul\":3034:3043   */\n      dup7\n        /* \"#utility.yul\":3030:3052   */\n      add\n        /* \"#utility.yul\":3009:3062   */\n      tag_318\n      jump\t// in\n    tag_411:\n        /* \"#utility.yul\":2999:3062   */\n      swap3\n      pop\n        /* \"#utility.yul\":2955:3072   */\n      pop\n        /* \"#utility.yul\":3111:3113   */\n      0x20\n        /* \"#utility.yul\":3137:3190   */\n      tag_412\n        /* \"#utility.yul\":3182:3189   */\n      dup6\n        /* \"#utility.yul\":3173:3179   */\n      dup3\n        /* \"#utility.yul\":3162:3171   */\n      dup7\n        /* \"#utility.yul\":3158:3180   */\n      add\n        /* \"#utility.yul\":3137:3190   */\n      tag_322\n      jump\t// in\n    tag_412:\n        /* \"#utility.yul\":3127:3190   */\n      swap2\n      pop\n        /* \"#utility.yul\":3082:3200   */\n      pop\n        /* \"#utility.yul\":2733:3207   */\n      swap3\n      pop\n      swap3\n      swap1\n      pop\n      jump\t// out\n        /* \"#utility.yul\":3213:3542   */\n    tag_53:\n        /* \"#utility.yul\":3272:3278   */\n      0x00\n        /* \"#utility.yul\":3321:3323   */\n      0x20\n        /* \"#utility.yul\":3309:3318   */\n      dup3\n        /* \"#utility.yul\":3300:3307   */\n      dup5\n        /* \"#utility.yul\":3296:3319   */\n      sub\n        /* \"#utility.yul\":3292:3324   */\n      slt\n        /* \"#utility.yul\":3289:3408   */\n      iszero\n      tag_414\n      jumpi\n        /* \"#utility.yul\":3327:3406   */\n      tag_415\n      tag_308\n      jump\t// in\n    tag_415:\n        /* \"#utility.yul\":3289:3408   */\n    tag_414:\n        /* \"#utility.yul\":3447:3448   */\n      0x00\n        /* \"#utility.yul\":3472:3525   */\n      tag_416\n        /* \"#utility.yul\":3517:3524   */\n      dup5\n        /* \"#utility.yul\":3508:3514   */\n      dup3\n        /* \"#utility.yul\":3497:3506   */\n      dup6\n        /* \"#utility.yul\":3493:3515   */\n      add\n        /* \"#utility.yul\":3472:3525   */\n      tag_318\n      jump\t// in\n    tag_416:\n        /* \"#utility.yul\":3462:3525   */\n      swap2\n      pop\n        /* \"#utility.yul\":3418:3535   */\n      pop\n        /* \"#utility.yul\":3213:3542   */\n      swap3\n      swap2\n      pop\n      pop\n      jump\t// out\n        /* \"#utility.yul\":3548:3666   */\n    tag_323:\n        /* \"#utility.yul\":3635:3659   */\n      tag_418\n        /* \"#utility.yul\":3653:3658   */\n      dup2\n        /* \"#utility.yul\":3635:3659   */\n      tag_320\n      jump\t// in\n    tag_418:\n        /* \"#utility.yul\":3630:3633   */\n      dup3\n        /* \"#utility.yul\":3623:3660   */\n      mstore\n        /* \"#utility.yul\":3548:3666   */\n      pop\n      pop\n      jump\t// out\n        /* \"#utility.yul\":3672:3894   */\n    tag_56:\n        /* \"#utility.yul\":3765:3769   */\n      0x00\n        /* \"#utility.yul\":3803:3805   */\n      0x20\n        /* \"#utility.yul\":3792:3801   */\n      dup3\n        /* \"#utility.yul\":3788:3806   */\n      add\n        /* \"#utility.yul\":3780:3806   */\n      swap1\n      pop\n        /* \"#utility.yul\":3816:3887   */\n      tag_420\n        /* \"#utility.yul\":3884:3885   */\n      0x00\n        /* \"#utility.yul\":3873:3882   */\n      dup4\n        /* \"#utility.yul\":3869:3886   */\n      add\n        /* \"#utility.yul\":3860:3866   */\n      dup5\n        /* \"#utility.yul\":3816:3887   */\n      tag_323\n      jump\t// in\n    tag_420:\n        /* \"#utility.yul\":3672:3894   */\n      swap3\n      swap2\n      pop\n      pop\n      jump\t// out\n        /* \"#utility.yul\":3900:4229   */\n    tag_60:\n        /* \"#utility.yul\":3959:3965   */\n      0x00\n        /* \"#utility.yul\":4008:4010   */\n      0x20\n        /* \"#utility.yul\":3996:4005   */\n      dup3\n        /* \"#utility.yul\":3987:3994   */\n      dup5\n        /* \"#utility.yul\":3983:4006   */\n      sub\n        /* \"#utility.yul\":3979:4011   */\n      slt\n        /* \"#utility.yul\":3976:4095   */\n      iszero\n      tag_422\n      jumpi\n        /* \"#utility.yul\":4014:4093   */\n      tag_423\n      tag_308\n      jump\t// in\n    tag_423:\n        /* \"#utility.yul\":3976:4095   */\n    tag_422:\n        /* \"#utility.yul\":4134:4135   */\n      0x00\n        /* \"#utility.yul\":4159:4212   */\n      tag_424\n        /* \"#utility.yul\":4204:4211   */\n      dup5\n        /* \"#utility.yul\":4195:4201   */\n      dup3\n        /* \"#utility.yul\":4184:4193   */\n      dup6\n        /* \"#utility.yul\":4180:4202   */\n      add\n        /* \"#utility.yul\":4159:4212   */\n      tag_322\n      jump\t// in\n    tag_424:\n        /* \"#utility.yul\":4149:4212   */\n      swap2\n      pop\n        /* \"#utility.yul\":4105:4222   */\n      pop\n        /* \"#utility.yul\":3900:4229   */\n      swap3\n      swap2\n      pop\n      pop\n      jump\t// out\n        /* \"#utility.yul\":4235:4854   */\n    tag_66:\n        /* \"#utility.yul\":4312:4318   */\n      0x00\n        /* \"#utility.yul\":4320:4326   */\n      dup1\n        /* \"#utility.yul\":4328:4334   */\n      0x00\n        /* \"#utility.yul\":4377:4379   */\n      0x60\n        /* \"#utility.yul\":4365:4374   */\n      dup5\n        /* \"#utility.yul\":4356:4363   */\n      dup7\n        /* \"#utility.yul\":4352:4375   */\n      sub\n        /* \"#utility.yul\":4348:4380   */\n      slt\n        /* \"#utility.yul\":4345:4464   */\n      iszero\n      tag_426\n      jumpi\n        /* \"#utility.yul\":4383:4462   */\n      tag_427\n      tag_308\n      jump\t// in\n    tag_427:\n        /* \"#utility.yul\":4345:4464   */\n    tag_426:\n        /* \"#utility.yul\":4503:4504   */\n      0x00\n        /* \"#utility.yul\":4528:4581   */\n      tag_428\n        /* \"#utility.yul\":4573:4580   */\n      dup7\n        /* \"#utility.yul\":4564:4570   */\n      dup3\n        /* \"#utility.yul\":4553:4562   */\n      dup8\n        /* \"#utility.yul\":4549:4571   */\n      add\n        /* \"#utility.yul\":4528:4581   */\n      tag_318\n      jump\t// in\n    tag_428:\n        /* \"#utility.yul\":4518:4581   */\n      swap4\n      pop\n        /* \"#utility.yul\":4474:4591   */\n      pop\n        /* \"#utility.yul\":4630:4632   */\n      0x20\n        /* \"#utility.yul\":4656:4709   */\n      tag_429\n        /* \"#utility.yul\":4701:4708   */\n      dup7\n        /* \"#utility.yul\":4692:4698   */\n      dup3\n        /* \"#utility.yul\":4681:4690   */\n      dup8\n        /* \"#utility.yul\":4677:4699   */\n      add\n        /* \"#utility.yul\":4656:4709   */\n      tag_318\n      jump\t// in\n    tag_429:\n        /* \"#utility.yul\":4646:4709   */\n      swap3\n      pop\n        /* \"#utility.yul\":4601:4719   */\n      pop\n        /* \"#utility.yul\":4758:4760   */\n      0x40\n        /* \"#utility.yul\":4784:4837   */\n      tag_430\n        /* \"#utility.yul\":4829:4836   */\n      dup7\n        /* \"#utility.yul\":4820:4826   */\n      dup3\n        /* \"#utility.yul\":4809:4818   */\n      dup8\n        /* \"#utility.yul\":4805:4827   */\n      add\n        /* \"#utility.yul\":4784:4837   */\n      tag_318\n      jump\t// in\n    tag_430:\n        /* \"#utility.yul\":4774:4837   */\n      swap2\n      pop\n        /* \"#utility.yul\":4729:4847   */\n      pop\n        /* \"#utility.yul\":4235:4854   */\n      swap3\n      pop\n      swap3\n      pop\n      swap3\n      jump\t// out\n        /* \"#utility.yul\":4860:5334   */\n    tag_87:\n        /* \"#utility.yul\":4928:4934   */\n      0x00\n        /* \"#utility.yul\":4936:4942   */\n      dup1\n        /* \"#utility.yul\":4985:4987   */\n      0x40\n        /* \"#utility.yul\":4973:4982   */\n      dup4\n        /* \"#utility.yul\":4964:4971   */\n      dup6\n        /* \"#utility.yul\":4960:4983   */\n      sub\n        /* \"#utility.yul\":4956:4988   */\n      slt\n        /* \"#utility.yul\":4953:5072   */\n      iszero\n      tag_432\n      jumpi\n        /* \"#utility.yul\":4991:5070   */\n      tag_433\n      tag_308\n      jump\t// in\n    tag_433:\n        /* \"#utility.yul\":4953:5072   */\n    tag_432:\n        /* \"#utility.yul\":5111:5112   */\n      0x00\n        /* \"#utility.yul\":5136:5189   */\n      tag_434\n        /* \"#utility.yul\":5181:5188   */\n      dup6\n        /* \"#utility.yul\":5172:5178   */\n      dup3\n        /* \"#utility.yul\":5161:5170   */\n      dup7\n        /* \"#utility.yul\":5157:5179   */\n      add\n        /* \"#utility.yul\":5136:5189   */\n      tag_318\n      jump\t// in\n    tag_434:\n        /* \"#utility.yul\":5126:5189   */\n      swap3\n      pop\n        /* \"#utility.yul\":5082:5199   */\n      pop\n        /* \"#utility.yul\":5238:5240   */\n      0x20\n        /* \"#utility.yul\":5264:5317   */\n      tag_435\n        /* \"#utility.yul\":5309:5316   */\n      dup6\n        /* \"#utility.yul\":5300:5306   */\n      dup3\n        /* \"#utility.yul\":5289:5298   */\n      dup7\n        /* \"#utility.yul\":5285:5307   */\n      add\n        /* \"#utility.yul\":5264:5317   */\n      tag_318\n      jump\t// in\n    tag_435:\n        /* \"#utility.yul\":5254:5317   */\n      swap2\n      pop\n        /* \"#utility.yul\":5209:5327   */\n      pop\n        /* \"#utility.yul\":4860:5334   */\n      swap3\n      pop\n      swap3\n      swap1\n      pop\n      jump\t// out\n        /* \"#utility.yul\":5340:5814   */\n    tag_91:\n        /* \"#utility.yul\":5408:5414   */\n      0x00\n        /* \"#utility.yul\":5416:5422   */\n      dup1\n        /* \"#utility.yul\":5465:5467   */\n      0x40\n        /* \"#utility.yul\":5453:5462   */\n      dup4\n        /* \"#utility.yul\":5444:5451   */\n      dup6\n        /* \"#utility.yul\":5440:5463   */\n      sub\n        /* \"#utility.yul\":5436:5468   */\n      slt\n        /* \"#utility.yul\":5433:5552   */\n      iszero\n      tag_437\n      jumpi\n        /* \"#utility.yul\":5471:5550   */\n      tag_438\n      tag_308\n      jump\t// in\n    tag_438:\n        /* \"#utility.yul\":5433:5552   */\n    tag_437:\n        /* \"#utility.yul\":5591:5592   */\n      0x00\n        /* \"#utility.yul\":5616:5669   */\n      tag_439\n        /* \"#utility.yul\":5661:5668   */\n      dup6\n        /* \"#utility.yul\":5652:5658   */\n      dup3\n        /* \"#utility.yul\":5641:5650   */\n      dup7\n        /* \"#utility.yul\":5637:5659   */\n      add\n        /* \"#utility.yul\":5616:5669   */\n      tag_322\n      jump\t// in\n    tag_439:\n        /* \"#utility.yul\":5606:5669   */\n      swap3\n      pop\n        /* \"#utility.yul\":5562:5679   */\n      pop\n        /* \"#utility.yul\":5718:5720   */\n      0x20\n        /* \"#utility.yul\":5744:5797   */\n      tag_440\n        /* \"#utility.yul\":5789:5796   */\n      dup6\n        /* \"#utility.yul\":5780:5786   */\n      dup3\n        /* \"#utility.yul\":5769:5778   */\n      dup7\n        /* \"#utility.yul\":5765:5787   */\n      add\n        /* \"#utility.yul\":5744:5797   */\n      tag_318\n      jump\t// in\n    tag_440:\n        /* \"#utility.yul\":5734:5797   */\n      swap2\n      pop\n        /* \"#utility.yul\":5689:5807   */\n      pop\n        /* \"#utility.yul\":5340:5814   */\n      swap3\n      pop\n      swap3\n      swap1\n      pop\n      jump\t// out\n        /* \"#utility.yul\":5820:5919   */\n    tag_324:\n        /* \"#utility.yul\":5872:5878   */\n      0x00\n        /* \"#utility.yul\":5906:5911   */\n      dup2\n        /* \"#utility.yul\":5900:5912   */\n      mload\n        /* \"#utility.yul\":5890:5912   */\n      swap1\n      pop\n        /* \"#utility.yul\":5820:5919   */\n      swap2\n      swap1\n      pop\n      jump\t// out\n        /* \"#utility.yul\":5925:6094   */\n    tag_325:\n        /* \"#utility.yul\":6009:6020   */\n      0x00\n        /* \"#utility.yul\":6043:6049   */\n      dup3\n        /* \"#utility.yul\":6038:6041   */\n      dup3\n        /* \"#utility.yul\":6031:6050   */\n      mstore\n        /* \"#utility.yul\":6083:6087   */\n      0x20\n        /* \"#utility.yul\":6078:6081   */\n      dup3\n        /* \"#utility.yul\":6074:6088   */\n      add\n        /* \"#utility.yul\":6059:6088   */\n      swap1\n      pop\n        /* \"#utility.yul\":5925:6094   */\n      swap3\n      swap2\n      pop\n      pop\n      jump\t// out\n        /* \"#utility.yul\":6100:6407   */\n    tag_326:\n        /* \"#utility.yul\":6168:6169   */\n      0x00\n        /* \"#utility.yul\":6178:6291   */\n    tag_444:\n        /* \"#utility.yul\":6192:6198   */\n      dup4\n        /* \"#utility.yul\":6189:6190   */\n      dup2\n        /* \"#utility.yul\":6186:6199   */\n      lt\n        /* \"#utility.yul\":6178:6291   */\n      iszero\n      tag_446\n      jumpi\n        /* \"#utility.yul\":6277:6278   */\n      dup1\n        /* \"#utility.yul\":6272:6275   */\n      dup3\n        /* \"#utility.yul\":6268:6279   */\n      add\n        /* \"#utility.yul\":6262:6280   */\n      mload\n        /* \"#utility.yul\":6258:6259   */\n      dup2\n        /* \"#utility.yul\":6253:6256   */\n      dup5\n        /* \"#utility.yul\":6249:6260   */\n      add\n        /* \"#utility.yul\":6242:6281   */\n      mstore\n        /* \"#utility.yul\":6214:6216   */\n      0x20\n        /* \"#utility.yul\":6211:6212   */\n      dup2\n        /* \"#utility.yul\":6207:6217   */\n      add\n        /* \"#utility.yul\":6202:6217   */\n      swap1\n      pop\n        /* \"#utility.yul\":6178:6291   */\n      jump(tag_444)\n    tag_446:\n        /* \"#utility.yul\":6309:6315   */\n      dup4\n        /* \"#utility.yul\":6306:6307   */\n      dup2\n        /* \"#utility.yul\":6303:6316   */\n      gt\n        /* \"#utility.yul\":6300:6401   */\n      iszero\n      tag_447\n      jumpi\n        /* \"#utility.yul\":6389:6390   */\n      0x00\n        /* \"#utility.yul\":6380:6386   */\n      dup5\n        /* \"#utility.yul\":6375:6378   */\n      dup5\n        /* \"#utility.yul\":6371:6387   */\n      add\n        /* \"#utility.yul\":6364:6391   */\n      mstore\n        /* \"#utility.yul\":6300:6401   */\n    tag_447:\n        /* \"#utility.yul\":6149:6407   */\n      pop\n        /* \"#utility.yul\":6100:6407   */\n      pop\n      pop\n      pop\n      jump\t// out\n        /* \"#utility.yul\":6413:6515   */\n    tag_327:\n        /* \"#utility.yul\":6454:6460   */\n      0x00\n        /* \"#utility.yul\":6505:6507   */\n      0x1f\n        /* \"#utility.yul\":6501:6508   */\n      not\n        /* \"#utility.yul\":6496:6498   */\n      0x1f\n        /* \"#utility.yul\":6489:6494   */\n      dup4\n        /* \"#utility.yul\":6485:6499   */\n      add\n        /* \"#utility.yul\":6481:6509   */\n      and\n        /* \"#utility.yul\":6471:6509   */\n      swap1\n      pop\n        /* \"#utility.yul\":6413:6515   */\n      swap2\n      swap1\n      pop\n      jump\t// out\n        /* \"#utility.yul\":6521:6885   */\n    tag_328:\n        /* \"#utility.yul\":6609:6612   */\n      0x00\n        /* \"#utility.yul\":6637:6676   */\n      tag_450\n        /* \"#utility.yul\":6670:6675   */\n      dup3\n        /* \"#utility.yul\":6637:6676   */\n      tag_324\n      jump\t// in\n    tag_450:\n        /* \"#utility.yul\":6692:6763   */\n      tag_451\n        /* \"#utility.yul\":6756:6762   */\n      dup2\n        /* \"#utility.yul\":6751:6754   */\n      dup6\n        /* \"#utility.yul\":6692:6763   */\n      tag_325\n      jump\t// in\n    tag_451:\n        /* \"#utility.yul\":6685:6763   */\n      swap4\n      pop\n        /* \"#utility.yul\":6772:6824   */\n      tag_452\n        /* \"#utility.yul\":6817:6823   */\n      dup2\n        /* \"#utility.yul\":6812:6815   */\n      dup6\n        /* \"#utility.yul\":6805:6809   */\n      0x20\n        /* \"#utility.yul\":6798:6803   */\n      dup7\n        /* \"#utility.yul\":6794:6810   */\n      add\n        /* \"#utility.yul\":6772:6824   */\n      tag_326\n      jump\t// in\n    tag_452:\n        /* \"#utility.yul\":6849:6878   */\n      tag_453\n        /* \"#utility.yul\":6871:6877   */\n      dup2\n        /* \"#utility.yul\":6849:6878   */\n      tag_327\n      jump\t// in\n    tag_453:\n        /* \"#utility.yul\":6844:6847   */\n      dup5\n        /* \"#utility.yul\":6840:6879   */\n      add\n        /* \"#utility.yul\":6833:6879   */\n      swap2\n      pop\n        /* \"#utility.yul\":6613:6885   */\n      pop\n        /* \"#utility.yul\":6521:6885   */\n      swap3\n      swap2\n      pop\n      pop\n      jump\t// out\n        /* \"#utility.yul\":6891:7204   */\n    tag_103:\n        /* \"#utility.yul\":7004:7008   */\n      0x00\n        /* \"#utility.yul\":7042:7044   */\n      0x20\n        /* \"#utility.yul\":7031:7040   */\n      dup3\n        /* \"#utility.yul\":7027:7045   */\n      add\n        /* \"#utility.yul\":7019:7045   */\n      swap1\n      pop\n        /* \"#utility.yul\":7091:7100   */\n      dup2\n        /* \"#utility.yul\":7085:7089   */\n      dup2\n        /* \"#utility.yul\":7081:7101   */\n      sub\n        /* \"#utility.yul\":7077:7078   */\n      0x00\n        /* \"#utility.yul\":7066:7075   */\n      dup4\n        /* \"#utility.yul\":7062:7079   */\n      add\n        /* \"#utility.yul\":7055:7102   */\n      mstore\n        /* \"#utility.yul\":7119:7197   */\n      tag_455\n        /* \"#utility.yul\":7192:7196   */\n      dup2\n        /* \"#utility.yul\":7183:7189   */\n      dup5\n        /* \"#utility.yul\":7119:7197   */\n      tag_328\n      jump\t// in\n    tag_455:\n        /* \"#utility.yul\":7111:7197   */\n      swap1\n      pop\n        /* \"#utility.yul\":6891:7204   */\n      swap3\n      swap2\n      pop\n      pop\n      jump\t// out\n        /* \"#utility.yul\":7210:7390   */\n    tag_329:\n        /* \"#utility.yul\":7350:7382   */\n      0x4f6e6c7920666163746f72792063616e2064657461636820697473656c660000\n        /* \"#utility.yul\":7346:7347   */\n      0x00\n        /* \"#utility.yul\":7338:7344   */\n      dup3\n        /* \"#utility.yul\":7334:7348   */\n      add\n        /* \"#utility.yul\":7327:7383   */\n      mstore\n        /* \"#utility.yul\":7210:7390   */\n      pop\n      jump\t// out\n        /* \"#utility.yul\":7396:7762   */\n    tag_330:\n        /* \"#utility.yul\":7538:7541   */\n      0x00\n        /* \"#utility.yul\":7559:7626   */\n      tag_458\n        /* \"#utility.yul\":7623:7625   */\n      0x1e\n        /* \"#utility.yul\":7618:7621   */\n      dup4\n        /* \"#utility.yul\":7559:7626   */\n      tag_325\n      jump\t// in\n    tag_458:\n        /* \"#utility.yul\":7552:7626   */\n      swap2\n      pop\n        /* \"#utility.yul\":7635:7728   */\n      tag_459\n        /* \"#utility.yul\":7724:7727   */\n      dup3\n        /* \"#utility.yul\":7635:7728   */\n      tag_329\n      jump\t// in\n    tag_459:\n        /* \"#utility.yul\":7753:7755   */\n      0x20\n        /* \"#utility.yul\":7748:7751   */\n      dup3\n        /* \"#utility.yul\":7744:7756   */\n      add\n        /* \"#utility.yul\":7737:7756   */\n      swap1\n      pop\n        /* \"#utility.yul\":7396:7762   */\n      swap2\n      swap1\n      pop\n      jump\t// out\n        /* \"#utility.yul\":7768:8187   */\n    tag_117:\n        /* \"#utility.yul\":7934:7938   */\n      0x00\n        /* \"#utility.yul\":7972:7974   */\n      0x20\n        /* \"#utility.yul\":7961:7970   */\n      dup3\n        /* \"#utility.yul\":7957:7975   */\n      add\n        /* \"#utility.yul\":7949:7975   */\n      swap1\n      pop\n        /* \"#utility.yul\":8021:8030   */\n      dup2\n        /* \"#utility.yul\":8015:8019   */\n      dup2\n        /* \"#utility.yul\":8011:8031   */\n      sub\n        /* \"#utility.yul\":8007:8008   */\n      0x00\n        /* \"#utility.yul\":7996:8005   */\n      dup4\n        /* \"#utility.yul\":7992:8009   */\n      add\n        /* \"#utility.yul\":7985:8032   */\n      mstore\n        /* \"#utility.yul\":8049:8180   */\n      tag_461\n        /* \"#utility.yul\":8175:8179   */\n      dup2\n        /* \"#utility.yul\":8049:8180   */\n      tag_330\n      jump\t// in\n    tag_461:\n        /* \"#utility.yul\":8041:8180   */\n      swap1\n      pop\n        /* \"#utility.yul\":7768:8187   */\n      swap2\n      swap1\n      pop\n      jump\t// out\n        /* \"#utility.yul\":8193:8373   */\n    tag_331:\n        /* \"#utility.yul\":8333:8365   */\n      0x4f776e65723a2063616c6c6572206973206e6f7420746865206f776e65720000\n        /* \"#utility.yul\":8329:8330   */\n      0x00\n        /* \"#utility.yul\":8321:8327   */\n      dup3\n        /* \"#utility.yul\":8317:8331   */\n      add\n        /* \"#utility.yul\":8310:8366   */\n      mstore\n        /* \"#utility.yul\":8193:8373   */\n      pop\n      jump\t// out\n        /* \"#utility.yul\":8379:8745   */\n    tag_332:\n        /* \"#utility.yul\":8521:8524   */\n      0x00\n        /* \"#utility.yul\":8542:8609   */\n      tag_464\n        /* \"#utility.yul\":8606:8608   */\n      0x1e\n        /* \"#utility.yul\":8601:8604   */\n      dup4\n        /* \"#utility.yul\":8542:8609   */\n      tag_325\n      jump\t// in\n    tag_464:\n        /* \"#utility.yul\":8535:8609   */\n      swap2\n      pop\n        /* \"#utility.yul\":8618:8711   */\n      tag_465\n        /* \"#utility.yul\":8707:8710   */\n      dup3\n        /* \"#utility.yul\":8618:8711   */\n      tag_331\n      jump\t// in\n    tag_465:\n        /* \"#utility.yul\":8736:8738   */\n      0x20\n        /* \"#utility.yul\":8731:8734   */\n      dup3\n        /* \"#utility.yul\":8727:8739   */\n      add\n        /* \"#utility.yul\":8720:8739   */\n      swap1\n      pop\n        /* \"#utility.yul\":8379:8745   */\n      swap2\n      swap1\n      pop\n      jump\t// out\n        /* \"#utility.yul\":8751:9170   */\n    tag_122:\n        /* \"#utility.yul\":8917:8921   */\n      0x00\n        /* \"#utility.yul\":8955:8957   */\n      0x20\n        /* \"#utility.yul\":8944:8953   */\n      dup3\n        /* \"#utility.yul\":8940:8958   */\n      add\n        /* \"#utility.yul\":8932:8958   */\n      swap1\n      pop\n        /* \"#utility.yul\":9004:9013   */\n      dup2\n        /* \"#utility.yul\":8998:9002   */\n      dup2\n        /* \"#utility.yul\":8994:9014   */\n      sub\n        /* \"#utility.yul\":8990:8991   */\n      0x00\n        /* \"#utility.yul\":8979:8988   */\n      dup4\n        /* \"#utility.yul\":8975:8992   */\n      add\n        /* \"#utility.yul\":8968:9015   */\n      mstore\n        /* \"#utility.yul\":9032:9163   */\n      tag_467\n        /* \"#utility.yul\":9158:9162   */\n      dup2\n        /* \"#utility.yul\":9032:9163   */\n      tag_332\n      jump\t// in\n    tag_467:\n        /* \"#utility.yul\":9024:9163   */\n      swap1\n      pop\n        /* \"#utility.yul\":8751:9170   */\n      swap2\n      swap1\n      pop\n      jump\t// out\n        /* \"#utility.yul\":9176:9319   */\n    tag_333:\n        /* \"#utility.yul\":9233:9238   */\n      0x00\n        /* \"#utility.yul\":9264:9270   */\n      dup2\n        /* \"#utility.yul\":9258:9271   */\n      mload\n        /* \"#utility.yul\":9249:9271   */\n      swap1\n      pop\n        /* \"#utility.yul\":9280:9313   */\n      tag_469\n        /* \"#utility.yul\":9307:9312   */\n      dup2\n        /* \"#utility.yul\":9280:9313   */\n      tag_317\n      jump\t// in\n    tag_469:\n        /* \"#utility.yul\":9176:9319   */\n      swap3\n      swap2\n      pop\n      pop\n      jump\t// out\n        /* \"#utility.yul\":9325:9468   */\n    tag_334:\n        /* \"#utility.yul\":9382:9387   */\n      0x00\n        /* \"#utility.yul\":9413:9419   */\n      dup2\n        /* \"#utility.yul\":9407:9420   */\n      mload\n        /* \"#utility.yul\":9398:9420   */\n      swap1\n      pop\n        /* \"#utility.yul\":9429:9462   */\n      tag_471\n        /* \"#utility.yul\":9456:9461   */\n      dup2\n        /* \"#utility.yul\":9429:9462   */\n      tag_321\n      jump\t// in\n    tag_471:\n        /* \"#utility.yul\":9325:9468   */\n      swap3\n      swap2\n      pop\n      pop\n      jump\t// out\n        /* \"#utility.yul\":9474:9981   */\n    tag_134:\n        /* \"#utility.yul\":9553:9559   */\n      0x00\n        /* \"#utility.yul\":9561:9567   */\n      dup1\n        /* \"#utility.yul\":9610:9612   */\n      0x40\n        /* \"#utility.yul\":9598:9607   */\n      dup4\n        /* \"#utility.yul\":9589:9596   */\n      dup6\n        /* \"#utility.yul\":9585:9608   */\n      sub\n        /* \"#utility.yul\":9581:9613   */\n      slt\n        /* \"#utility.yul\":9578:9697   */\n      iszero\n      tag_473\n      jumpi\n        /* \"#utility.yul\":9616:9695   */\n      tag_474\n      tag_308\n      jump\t// in\n    tag_474:\n        /* \"#utility.yul\":9578:9697   */\n    tag_473:\n        /* \"#utility.yul\":9736:9737   */\n      0x00\n        /* \"#utility.yul\":9761:9825   */\n      tag_475\n        /* \"#utility.yul\":9817:9824   */\n      dup6\n        /* \"#utility.yul\":9808:9814   */\n      dup3\n        /* \"#utility.yul\":9797:9806   */\n      dup7\n        /* \"#utility.yul\":9793:9815   */\n      add\n        /* \"#utility.yul\":9761:9825   */\n      tag_333\n      jump\t// in\n    tag_475:\n        /* \"#utility.yul\":9751:9825   */\n      swap3\n      pop\n        /* \"#utility.yul\":9707:9835   */\n      pop\n        /* \"#utility.yul\":9874:9876   */\n      0x20\n        /* \"#utility.yul\":9900:9964   */\n      tag_476\n        /* \"#utility.yul\":9956:9963   */\n      dup6\n        /* \"#utility.yul\":9947:9953   */\n      dup3\n        /* \"#utility.yul\":9936:9945   */\n      dup7\n        /* \"#utility.yul\":9932:9954   */\n      add\n        /* \"#utility.yul\":9900:9964   */\n      tag_334\n      jump\t// in\n    tag_476:\n        /* \"#utility.yul\":9890:9964   */\n      swap2\n      pop\n        /* \"#utility.yul\":9845:9974   */\n      pop\n        /* \"#utility.yul\":9474:9981   */\n      swap3\n      pop\n      swap3\n      swap1\n      pop\n      jump\t// out\n        /* \"#utility.yul\":9987:10162   */\n    tag_335:\n        /* \"#utility.yul\":10127:10154   */\n      0x506c656173652070726f7669646520656e6f7567682066656500000000000000\n        /* \"#utility.yul\":10123:10124   */\n      0x00\n        /* \"#utility.yul\":10115:10121   */\n      dup3\n        /* \"#utility.yul\":10111:10125   */\n      add\n        /* \"#utility.yul\":10104:10155   */\n      mstore\n        /* \"#utility.yul\":9987:10162   */\n      pop\n      jump\t// out\n        /* \"#utility.yul\":10168:10534   */\n    tag_336:\n        /* \"#utility.yul\":10310:10313   */\n      0x00\n        /* \"#utility.yul\":10331:10398   */\n      tag_479\n        /* \"#utility.yul\":10395:10397   */\n      0x19\n        /* \"#utility.yul\":10390:10393   */\n      dup4\n        /* \"#utility.yul\":10331:10398   */\n      tag_325\n      jump\t// in\n    tag_479:\n        /* \"#utility.yul\":10324:10398   */\n      swap2\n      pop\n        /* \"#utility.yul\":10407:10500   */\n      tag_480\n        /* \"#utility.yul\":10496:10499   */\n      dup3\n        /* \"#utility.yul\":10407:10500   */\n      tag_335\n      jump\t// in\n    tag_480:\n        /* \"#utility.yul\":10525:10527   */\n      0x20\n        /* \"#utility.yul\":10520:10523   */\n      dup3\n        /* \"#utility.yul\":10516:10528   */\n      add\n        /* \"#utility.yul\":10509:10528   */\n      swap1\n      pop\n        /* \"#utility.yul\":10168:10534   */\n      swap2\n      swap1\n      pop\n      jump\t// out\n        /* \"#utility.yul\":10540:10959   */\n    tag_137:\n        /* \"#utility.yul\":10706:10710   */\n      0x00\n        /* \"#utility.yul\":10744:10746   */\n      0x20\n        /* \"#utility.yul\":10733:10742   */\n      dup3\n        /* \"#utility.yul\":10729:10747   */\n      add\n        /* \"#utility.yul\":10721:10747   */\n      swap1\n      pop\n        /* \"#utility.yul\":10793:10802   */\n      dup2\n        /* \"#utility.yul\":10787:10791   */\n      dup2\n        /* \"#utility.yul\":10783:10803   */\n      sub\n        /* \"#utility.yul\":10779:10780   */\n      0x00\n        /* \"#utility.yul\":10768:10777   */\n      dup4\n        /* \"#utility.yul\":10764:10781   */\n      add\n        /* \"#utility.yul\":10757:10804   */\n      mstore\n        /* \"#utility.yul\":10821:10952   */\n      tag_482\n        /* \"#utility.yul\":10947:10951   */\n      dup2\n        /* \"#utility.yul\":10821:10952   */\n      tag_336\n      jump\t// in\n    tag_482:\n        /* \"#utility.yul\":10813:10952   */\n      swap1\n      pop\n        /* \"#utility.yul\":10540:10959   */\n      swap2\n      swap1\n      pop\n      jump\t// out\n        /* \"#utility.yul\":10965:11185   */\n    tag_337:\n        /* \"#utility.yul\":11105:11139   */\n      0x41646472657373207a65726f206973206e6f7420612076616c6964206f776e65\n        /* \"#utility.yul\":11101:11102   */\n      0x00\n        /* \"#utility.yul\":11093:11099   */\n      dup3\n        /* \"#utility.yul\":11089:11103   */\n      add\n        /* \"#utility.yul\":11082:11140   */\n      mstore\n        /* \"#utility.yul\":11174:11177   */\n      0x7200000000000000000000000000000000000000000000000000000000000000\n        /* \"#utility.yul\":11169:11171   */\n      0x20\n        /* \"#utility.yul\":11161:11167   */\n      dup3\n        /* \"#utility.yul\":11157:11172   */\n      add\n        /* \"#utility.yul\":11150:11178   */\n      mstore\n        /* \"#utility.yul\":10965:11185   */\n      pop\n      jump\t// out\n        /* \"#utility.yul\":11191:11557   */\n    tag_338:\n        /* \"#utility.yul\":11333:11336   */\n      0x00\n        /* \"#utility.yul\":11354:11421   */\n      tag_485\n        /* \"#utility.yul\":11418:11420   */\n      0x21\n        /* \"#utility.yul\":11413:11416   */\n      dup4\n        /* \"#utility.yul\":11354:11421   */\n      tag_325\n      jump\t// in\n    tag_485:\n        /* \"#utility.yul\":11347:11421   */\n      swap2\n      pop\n        /* \"#utility.yul\":11430:11523   */\n      tag_486\n        /* \"#utility.yul\":11519:11522   */\n      dup3\n        /* \"#utility.yul\":11430:11523   */\n      tag_337\n      jump\t// in\n    tag_486:\n        /* \"#utility.yul\":11548:11550   */\n      0x40\n        /* \"#utility.yul\":11543:11546   */\n      dup3\n        /* \"#utility.yul\":11539:11551   */\n      add\n        /* \"#utility.yul\":11532:11551   */\n      swap1\n      pop\n        /* \"#utility.yul\":11191:11557   */\n      swap2\n      swap1\n      pop\n      jump\t// out\n        /* \"#utility.yul\":11563:11982   */\n    tag_151:\n        /* \"#utility.yul\":11729:11733   */\n      0x00\n        /* \"#utility.yul\":11767:11769   */\n      0x20\n        /* \"#utility.yul\":11756:11765   */\n      dup3\n        /* \"#utility.yul\":11752:11770   */\n      add\n        /* \"#utility.yul\":11744:11770   */\n      swap1\n      pop\n        /* \"#utility.yul\":11816:11825   */\n      dup2\n        /* \"#utility.yul\":11810:11814   */\n      dup2\n        /* \"#utility.yul\":11806:11826   */\n      sub\n        /* \"#utility.yul\":11802:11803   */\n      0x00\n        /* \"#utility.yul\":11791:11800   */\n      dup4\n        /* \"#utility.yul\":11787:11804   */\n      add\n        /* \"#utility.yul\":11780:11827   */\n      mstore\n        /* \"#utility.yul\":11844:11975   */\n      tag_488\n        /* \"#utility.yul\":11970:11974   */\n      dup2\n        /* \"#utility.yul\":11844:11975   */\n      tag_338\n      jump\t// in\n    tag_488:\n        /* \"#utility.yul\":11836:11975   */\n      swap1\n      pop\n        /* \"#utility.yul\":11563:11982   */\n      swap2\n      swap1\n      pop\n      jump\t// out\n        /* \"#utility.yul\":11988:12155   */\n    tag_339:\n        /* \"#utility.yul\":12128:12147   */\n      0x496e76616c6964207461782076616c7565000000000000000000000000000000\n        /* \"#utility.yul\":12124:12125   */\n      0x00\n        /* \"#utility.yul\":12116:12122   */\n      dup3\n        /* \"#utility.yul\":12112:12126   */\n      add\n        /* \"#utility.yul\":12105:12148   */\n      mstore\n        /* \"#utility.yul\":11988:12155   */\n      pop\n      jump\t// out\n        /* \"#utility.yul\":12161:12527   */\n    tag_340:\n        /* \"#utility.yul\":12303:12306   */\n      0x00\n        /* \"#utility.yul\":12324:12391   */\n      tag_491\n        /* \"#utility.yul\":12388:12390   */\n      0x11\n        /* \"#utility.yul\":12383:12386   */\n      dup4\n        /* \"#utility.yul\":12324:12391   */\n      tag_325\n      jump\t// in\n    tag_491:\n        /* \"#utility.yul\":12317:12391   */\n      swap2\n      pop\n        /* \"#utility.yul\":12400:12493   */\n      tag_492\n        /* \"#utility.yul\":12489:12492   */\n      dup3\n        /* \"#utility.yul\":12400:12493   */\n      tag_339\n      jump\t// in\n    tag_492:\n        /* \"#utility.yul\":12518:12520   */\n      0x20\n        /* \"#utility.yul\":12513:12516   */\n      dup3\n        /* \"#utility.yul\":12509:12521   */\n      add\n        /* \"#utility.yul\":12502:12521   */\n      swap1\n      pop\n        /* \"#utility.yul\":12161:12527   */\n      swap2\n      swap1\n      pop\n      jump\t// out\n        /* \"#utility.yul\":12533:12952   */\n    tag_163:\n        /* \"#utility.yul\":12699:12703   */\n      0x00\n        /* \"#utility.yul\":12737:12739   */\n      0x20\n        /* \"#utility.yul\":12726:12735   */\n      dup3\n        /* \"#utility.yul\":12722:12740   */\n      add\n        /* \"#utility.yul\":12714:12740   */\n      swap1\n      pop\n        /* \"#utility.yul\":12786:12795   */\n      dup2\n        /* \"#utility.yul\":12780:12784   */\n      dup2\n        /* \"#utility.yul\":12776:12796   */\n      sub\n        /* \"#utility.yul\":12772:12773   */\n      0x00\n        /* \"#utility.yul\":12761:12770   */\n      dup4\n        /* \"#utility.yul\":12757:12774   */\n      add\n        /* \"#utility.yul\":12750:12797   */\n      mstore\n        /* \"#utility.yul\":12814:12945   */\n      tag_494\n        /* \"#utility.yul\":12940:12944   */\n      dup2\n        /* \"#utility.yul\":12814:12945   */\n      tag_340\n      jump\t// in\n    tag_494:\n        /* \"#utility.yul\":12806:12945   */\n      swap1\n      pop\n        /* \"#utility.yul\":12533:12952   */\n      swap2\n      swap1\n      pop\n      jump\t// out\n        /* \"#utility.yul\":12958:13123   */\n    tag_341:\n        /* \"#utility.yul\":13098:13115   */\n      0x4d617820313020646563696d616c730000000000000000000000000000000000\n        /* \"#utility.yul\":13094:13095   */\n      0x00\n        /* \"#utility.yul\":13086:13092   */\n      dup3\n        /* \"#utility.yul\":13082:13096   */\n      add\n        /* \"#utility.yul\":13075:13116   */\n      mstore\n        /* \"#utility.yul\":12958:13123   */\n      pop\n      jump\t// out\n        /* \"#utility.yul\":13129:13495   */\n    tag_342:\n        /* \"#utility.yul\":13271:13274   */\n      0x00\n        /* \"#utility.yul\":13292:13359   */\n      tag_497\n        /* \"#utility.yul\":13356:13358   */\n      0x0f\n        /* \"#utility.yul\":13351:13354   */\n      dup4\n        /* \"#utility.yul\":13292:13359   */\n      tag_325\n      jump\t// in\n    tag_497:\n        /* \"#utility.yul\":13285:13359   */\n      swap2\n      pop\n        /* \"#utility.yul\":13368:13461   */\n      tag_498\n        /* \"#utility.yul\":13457:13460   */\n      dup3\n        /* \"#utility.yul\":13368:13461   */\n      tag_341\n      jump\t// in\n    tag_498:\n        /* \"#utility.yul\":13486:13488   */\n      0x20\n        /* \"#utility.yul\":13481:13484   */\n      dup3\n        /* \"#utility.yul\":13477:13489   */\n      add\n        /* \"#utility.yul\":13470:13489   */\n      swap1\n      pop\n        /* \"#utility.yul\":13129:13495   */\n      swap2\n      swap1\n      pop\n      jump\t// out\n        /* \"#utility.yul\":13501:13920   */\n    tag_167:\n        /* \"#utility.yul\":13667:13671   */\n      0x00\n        /* \"#utility.yul\":13705:13707   */\n      0x20\n        /* \"#utility.yul\":13694:13703   */\n      dup3\n        /* \"#utility.yul\":13690:13708   */\n      add\n        /* \"#utility.yul\":13682:13708   */\n      swap1\n      pop\n        /* \"#utility.yul\":13754:13763   */\n      dup2\n        /* \"#utility.yul\":13748:13752   */\n      dup2\n        /* \"#utility.yul\":13744:13764   */\n      sub\n        /* \"#utility.yul\":13740:13741   */\n      0x00\n        /* \"#utility.yul\":13729:13738   */\n      dup4\n        /* \"#utility.yul\":13725:13742   */\n      add\n        /* \"#utility.yul\":13718:13765   */\n      mstore\n        /* \"#utility.yul\":13782:13913   */\n      tag_500\n        /* \"#utility.yul\":13908:13912   */\n      dup2\n        /* \"#utility.yul\":13782:13913   */\n      tag_342\n      jump\t// in\n    tag_500:\n        /* \"#utility.yul\":13774:13913   */\n      swap1\n      pop\n        /* \"#utility.yul\":13501:13920   */\n      swap2\n      swap1\n      pop\n      jump\t// out\n        /* \"#utility.yul\":13926:14101   */\n    tag_343:\n        /* \"#utility.yul\":14066:14093   */\n      0x596f7520646f6e2774206f776e2074686973207469636b657400000000000000\n        /* \"#utility.yul\":14062:14063   */\n      0x00\n        /* \"#utility.yul\":14054:14060   */\n      dup3\n        /* \"#utility.yul\":14050:14064   */\n      add\n        /* \"#utility.yul\":14043:14094   */\n      mstore\n        /* \"#utility.yul\":13926:14101   */\n      pop\n      jump\t// out\n        /* \"#utility.yul\":14107:14473   */\n    tag_344:\n        /* \"#utility.yul\":14249:14252   */\n      0x00\n        /* \"#utility.yul\":14270:14337   */\n      tag_503\n        /* \"#utility.yul\":14334:14336   */\n      0x19\n        /* \"#utility.yul\":14329:14332   */\n      dup4\n        /* \"#utility.yul\":14270:14337   */\n      tag_325\n      jump\t// in\n    tag_503:\n        /* \"#utility.yul\":14263:14337   */\n      swap2\n      pop\n        /* \"#utility.yul\":14346:14439   */\n      tag_504\n        /* \"#utility.yul\":14435:14438   */\n      dup3\n        /* \"#utility.yul\":14346:14439   */\n      tag_343\n      jump\t// in\n    tag_504:\n        /* \"#utility.yul\":14464:14466   */\n      0x20\n        /* \"#utility.yul\":14459:14462   */\n      dup3\n        /* \"#utility.yul\":14455:14467   */\n      add\n        /* \"#utility.yul\":14448:14467   */\n      swap1\n      pop\n        /* \"#utility.yul\":14107:14473   */\n      swap2\n      swap1\n      pop\n      jump\t// out\n        /* \"#utility.yul\":14479:14898   */\n    tag_188:\n        /* \"#utility.yul\":14645:14649   */\n      0x00\n        /* \"#utility.yul\":14683:14685   */\n      0x20\n        /* \"#utility.yul\":14672:14681   */\n      dup3\n        /* \"#utility.yul\":14668:14686   */\n      add\n        /* \"#utility.yul\":14660:14686   */\n      swap1\n      pop\n        /* \"#utility.yul\":14732:14741   */\n      dup2\n        /* \"#utility.yul\":14726:14730   */\n      dup2\n        /* \"#utility.yul\":14722:14742   */\n      sub\n        /* \"#utility.yul\":14718:14719   */\n      0x00\n        /* \"#utility.yul\":14707:14716   */\n      dup4\n        /* \"#utility.yul\":14703:14720   */\n      add\n        /* \"#utility.yul\":14696:14743   */\n      mstore\n        /* \"#utility.yul\":14760:14891   */\n      tag_506\n        /* \"#utility.yul\":14886:14890   */\n      dup2\n        /* \"#utility.yul\":14760:14891   */\n      tag_344\n      jump\t// in\n    tag_506:\n        /* \"#utility.yul\":14752:14891   */\n      swap1\n      pop\n        /* \"#utility.yul\":14479:14898   */\n      swap2\n      swap1\n      pop\n      jump\t// out\n        /* \"#utility.yul\":14904:15085   */\n    tag_345:\n        /* \"#utility.yul\":15044:15077   */\n      0x5072696365206d7573742062652067726561746572207468616e207a65726f00\n        /* \"#utility.yul\":15040:15041   */\n      0x00\n        /* \"#utility.yul\":15032:15038   */\n      dup3\n        /* \"#utility.yul\":15028:15042   */\n      add\n        /* \"#utility.yul\":15021:15078   */\n      mstore\n        /* \"#utility.yul\":14904:15085   */\n      pop\n      jump\t// out\n        /* \"#utility.yul\":15091:15457   */\n    tag_346:\n        /* \"#utility.yul\":15233:15236   */\n      0x00\n        /* \"#utility.yul\":15254:15321   */\n      tag_509\n        /* \"#utility.yul\":15318:15320   */\n      0x1f\n        /* \"#utility.yul\":15313:15316   */\n      dup4\n        /* \"#utility.yul\":15254:15321   */\n      tag_325\n      jump\t// in\n    tag_509:\n        /* \"#utility.yul\":15247:15321   */\n      swap2\n      pop\n        /* \"#utility.yul\":15330:15423   */\n      tag_510\n        /* \"#utility.yul\":15419:15422   */\n      dup3\n        /* \"#utility.yul\":15330:15423   */\n      tag_345\n      jump\t// in\n    tag_510:\n        /* \"#utility.yul\":15448:15450   */\n      0x20\n        /* \"#utility.yul\":15443:15446   */\n      dup3\n        /* \"#utility.yul\":15439:15451   */\n      add\n        /* \"#utility.yul\":15432:15451   */\n      swap1\n      pop\n        /* \"#utility.yul\":15091:15457   */\n      swap2\n      swap1\n      pop\n      jump\t// out\n        /* \"#utility.yul\":15463:15882   */\n    tag_191:\n        /* \"#utility.yul\":15629:15633   */\n      0x00\n        /* \"#utility.yul\":15667:15669   */\n      0x20\n        /* \"#utility.yul\":15656:15665   */\n      dup3\n        /* \"#utility.yul\":15652:15670   */\n      add\n        /* \"#utility.yul\":15644:15670   */\n      swap1\n      pop\n        /* \"#utility.yul\":15716:15725   */\n      dup2\n        /* \"#utility.yul\":15710:15714   */\n      dup2\n        /* \"#utility.yul\":15706:15726   */\n      sub\n        /* \"#utility.yul\":15702:15703   */\n      0x00\n        /* \"#utility.yul\":15691:15700   */\n      dup4\n        /* \"#utility.yul\":15687:15704   */\n      add\n        /* \"#utility.yul\":15680:15727   */\n      mstore\n        /* \"#utility.yul\":15744:15875   */\n      tag_512\n        /* \"#utility.yul\":15870:15874   */\n      dup2\n        /* \"#utility.yul\":15744:15875   */\n      tag_346\n      jump\t// in\n    tag_512:\n        /* \"#utility.yul\":15736:15875   */\n      swap1\n      pop\n        /* \"#utility.yul\":15463:15882   */\n      swap2\n      swap1\n      pop\n      jump\t// out\n        /* \"#utility.yul\":15888:16066   */\n    tag_347:\n        /* \"#utility.yul\":16028:16058   */\n      0x5472616e736665722063616c6c6572206973206e6f74206f776e657200000000\n        /* \"#utility.yul\":16024:16025   */\n      0x00\n        /* \"#utility.yul\":16016:16022   */\n      dup3\n        /* \"#utility.yul\":16012:16026   */\n      add\n        /* \"#utility.yul\":16005:16059   */\n      mstore\n        /* \"#utility.yul\":15888:16066   */\n      pop\n      jump\t// out\n        /* \"#utility.yul\":16072:16438   */\n    tag_348:\n        /* \"#utility.yul\":16214:16217   */\n      0x00\n        /* \"#utility.yul\":16235:16302   */\n      tag_515\n        /* \"#utility.yul\":16299:16301   */\n      0x1c\n        /* \"#utility.yul\":16294:16297   */\n      dup4\n        /* \"#utility.yul\":16235:16302   */\n      tag_325\n      jump\t// in\n    tag_515:\n        /* \"#utility.yul\":16228:16302   */\n      swap2\n      pop\n        /* \"#utility.yul\":16311:16404   */\n      tag_516\n        /* \"#utility.yul\":16400:16403   */\n      dup3\n        /* \"#utility.yul\":16311:16404   */\n      tag_347\n      jump\t// in\n    tag_516:\n        /* \"#utility.yul\":16429:16431   */\n      0x20\n        /* \"#utility.yul\":16424:16427   */\n      dup3\n        /* \"#utility.yul\":16420:16432   */\n      add\n        /* \"#utility.yul\":16413:16432   */\n      swap1\n      pop\n        /* \"#utility.yul\":16072:16438   */\n      swap2\n      swap1\n      pop\n      jump\t// out\n        /* \"#utility.yul\":16444:16863   */\n    tag_206:\n        /* \"#utility.yul\":16610:16614   */\n      0x00\n        /* \"#utility.yul\":16648:16650   */\n      0x20\n        /* \"#utility.yul\":16637:16646   */\n      dup3\n        /* \"#utility.yul\":16633:16651   */\n      add\n        /* \"#utility.yul\":16625:16651   */\n      swap1\n      pop\n        /* \"#utility.yul\":16697:16706   */\n      dup2\n        /* \"#utility.yul\":16691:16695   */\n      dup2\n        /* \"#utility.yul\":16687:16707   */\n      sub\n        /* \"#utility.yul\":16683:16684   */\n      0x00\n        /* \"#utility.yul\":16672:16681   */\n      dup4\n        /* \"#utility.yul\":16668:16685   */\n      add\n        /* \"#utility.yul\":16661:16708   */\n      mstore\n        /* \"#utility.yul\":16725:16856   */\n      tag_518\n        /* \"#utility.yul\":16851:16855   */\n      dup2\n        /* \"#utility.yul\":16725:16856   */\n      tag_348\n      jump\t// in\n    tag_518:\n        /* \"#utility.yul\":16717:16856   */\n      swap1\n      pop\n        /* \"#utility.yul\":16444:16863   */\n      swap2\n      swap1\n      pop\n      jump\t// out\n        /* \"#utility.yul\":16869:17047   */\n    tag_349:\n        /* \"#utility.yul\":17009:17039   */\n      0x5472616e7366657220746f20746865207a65726f206164647265737300000000\n        /* \"#utility.yul\":17005:17006   */\n      0x00\n        /* \"#utility.yul\":16997:17003   */\n      dup3\n        /* \"#utility.yul\":16993:17007   */\n      add\n        /* \"#utility.yul\":16986:17040   */\n      mstore\n        /* \"#utility.yul\":16869:17047   */\n      pop\n      jump\t// out\n        /* \"#utility.yul\":17053:17419   */\n    tag_350:\n        /* \"#utility.yul\":17195:17198   */\n      0x00\n        /* \"#utility.yul\":17216:17283   */\n      tag_521\n        /* \"#utility.yul\":17280:17282   */\n      0x1c\n        /* \"#utility.yul\":17275:17278   */\n      dup4\n        /* \"#utility.yul\":17216:17283   */\n      tag_325\n      jump\t// in\n    tag_521:\n        /* \"#utility.yul\":17209:17283   */\n      swap2\n      pop\n        /* \"#utility.yul\":17292:17385   */\n      tag_522\n        /* \"#utility.yul\":17381:17384   */\n      dup3\n        /* \"#utility.yul\":17292:17385   */\n      tag_349\n      jump\t// in\n    tag_522:\n        /* \"#utility.yul\":17410:17412   */\n      0x20\n        /* \"#utility.yul\":17405:17408   */\n      dup3\n        /* \"#utility.yul\":17401:17413   */\n      add\n        /* \"#utility.yul\":17394:17413   */\n      swap1\n      pop\n        /* \"#utility.yul\":17053:17419   */\n      swap2\n      swap1\n      pop\n      jump\t// out\n        /* \"#utility.yul\":17425:17844   */\n    tag_209:\n        /* \"#utility.yul\":17591:17595   */\n      0x00\n        /* \"#utility.yul\":17629:17631   */\n      0x20\n        /* \"#utility.yul\":17618:17627   */\n      dup3\n        /* \"#utility.yul\":17614:17632   */\n      add\n        /* \"#utility.yul\":17606:17632   */\n      swap1\n      pop\n        /* \"#utility.yul\":17678:17687   */\n      dup2\n        /* \"#utility.yul\":17672:17676   */\n      dup2\n        /* \"#utility.yul\":17668:17688   */\n      sub\n        /* \"#utility.yul\":17664:17665   */\n      0x00\n        /* \"#utility.yul\":17653:17662   */\n      dup4\n        /* \"#utility.yul\":17649:17666   */\n      add\n        /* \"#utility.yul\":17642:17689   */\n      mstore\n        /* \"#utility.yul\":17706:17837   */\n      tag_524\n        /* \"#utility.yul\":17832:17836   */\n      dup2\n        /* \"#utility.yul\":17706:17837   */\n      tag_350\n      jump\t// in\n    tag_524:\n        /* \"#utility.yul\":17698:17837   */\n      swap1\n      pop\n        /* \"#utility.yul\":17425:17844   */\n      swap2\n      swap1\n      pop\n      jump\t// out\n        /* \"#utility.yul\":17850:18030   */\n    tag_351:\n        /* \"#utility.yul\":17898:17975   */\n      0x4e487b7100000000000000000000000000000000000000000000000000000000\n        /* \"#utility.yul\":17895:17896   */\n      0x00\n        /* \"#utility.yul\":17888:17976   */\n      mstore\n        /* \"#utility.yul\":17995:17999   */\n      0x11\n        /* \"#utility.yul\":17992:17993   */\n      0x04\n        /* \"#utility.yul\":17985:18000   */\n      mstore\n        /* \"#utility.yul\":18019:18023   */\n      0x24\n        /* \"#utility.yul\":18016:18017   */\n      0x00\n        /* \"#utility.yul\":18009:18024   */\n      revert\n        /* \"#utility.yul\":18036:18227   */\n    tag_212:\n        /* \"#utility.yul\":18076:18080   */\n      0x00\n        /* \"#utility.yul\":18096:18116   */\n      tag_527\n        /* \"#utility.yul\":18114:18115   */\n      dup3\n        /* \"#utility.yul\":18096:18116   */\n      tag_315\n      jump\t// in\n    tag_527:\n        /* \"#utility.yul\":18091:18116   */\n      swap2\n      pop\n        /* \"#utility.yul\":18130:18150   */\n      tag_528\n        /* \"#utility.yul\":18148:18149   */\n      dup4\n        /* \"#utility.yul\":18130:18150   */\n      tag_315\n      jump\t// in\n    tag_528:\n        /* \"#utility.yul\":18125:18150   */\n      swap3\n      pop\n        /* \"#utility.yul\":18169:18170   */\n      dup3\n        /* \"#utility.yul\":18166:18167   */\n      dup3\n        /* \"#utility.yul\":18163:18171   */\n      lt\n        /* \"#utility.yul\":18160:18194   */\n      iszero\n      tag_529\n      jumpi\n        /* \"#utility.yul\":18174:18192   */\n      tag_530\n      tag_351\n      jump\t// in\n    tag_530:\n        /* \"#utility.yul\":18160:18194   */\n    tag_529:\n        /* \"#utility.yul\":18219:18220   */\n      dup3\n        /* \"#utility.yul\":18216:18217   */\n      dup3\n        /* \"#utility.yul\":18212:18221   */\n      sub\n        /* \"#utility.yul\":18204:18221   */\n      swap1\n      pop\n        /* \"#utility.yul\":18036:18227   */\n      swap3\n      swap2\n      pop\n      pop\n      jump\t// out\n        /* \"#utility.yul\":18233:18538   */\n    tag_214:\n        /* \"#utility.yul\":18273:18276   */\n      0x00\n        /* \"#utility.yul\":18292:18312   */\n      tag_532\n        /* \"#utility.yul\":18310:18311   */\n      dup3\n        /* \"#utility.yul\":18292:18312   */\n      tag_315\n      jump\t// in\n    tag_532:\n        /* \"#utility.yul\":18287:18312   */\n      swap2\n      pop\n        /* \"#utility.yul\":18326:18346   */\n      tag_533\n        /* \"#utility.yul\":18344:18345   */\n      dup4\n        /* \"#utility.yul\":18326:18346   */\n      tag_315\n      jump\t// in\n    tag_533:\n        /* \"#utility.yul\":18321:18346   */\n      swap3\n      pop\n        /* \"#utility.yul\":18480:18481   */\n      dup3\n        /* \"#utility.yul\":18412:18478   */\n      0xffffffffffffffffffffffffffffffffffffffffffffffffffffffffffffffff\n        /* \"#utility.yul\":18408:18482   */\n      sub\n        /* \"#utility.yul\":18405:18406   */\n      dup3\n        /* \"#utility.yul\":18402:18483   */\n      gt\n        /* \"#utility.yul\":18399:18506   */\n      iszero\n      tag_534\n      jumpi\n        /* \"#utility.yul\":18486:18504   */\n      tag_535\n      tag_351\n      jump\t// in\n    tag_535:\n        /* \"#utility.yul\":18399:18506   */\n    tag_534:\n        /* \"#utility.yul\":18530:18531   */\n      dup3\n        /* \"#utility.yul\":18527:18528   */\n      dup3\n        /* \"#utility.yul\":18523:18532   */\n      add\n        /* \"#utility.yul\":18516:18532   */\n      swap1\n      pop\n        /* \"#utility.yul\":18233:18538   */\n      swap3\n      swap2\n      pop\n      pop\n      jump\t// out\n        /* \"#utility.yul\":18544:18724   */\n    tag_352:\n        /* \"#utility.yul\":18592:18669   */\n      0x4e487b7100000000000000000000000000000000000000000000000000000000\n        /* \"#utility.yul\":18589:18590   */\n      0x00\n        /* \"#utility.yul\":18582:18670   */\n      mstore\n        /* \"#utility.yul\":18689:18693   */\n      0x22\n        /* \"#utility.yul\":18686:18687   */\n      0x04\n        /* \"#utility.yul\":18679:18694   */\n      mstore\n        /* \"#utility.yul\":18713:18717   */\n      0x24\n        /* \"#utility.yul\":18710:18711   */\n      0x00\n        /* \"#utility.yul\":18703:18718   */\n      revert\n        /* \"#utility.yul\":18730:19050   */\n    tag_219:\n        /* \"#utility.yul\":18774:18780   */\n      0x00\n        /* \"#utility.yul\":18811:18812   */\n      0x02\n        /* \"#utility.yul\":18805:18809   */\n      dup3\n        /* \"#utility.yul\":18801:18813   */\n      div\n        /* \"#utility.yul\":18791:18813   */\n      swap1\n      pop\n        /* \"#utility.yul\":18858:18859   */\n      0x01\n        /* \"#utility.yul\":18852:18856   */\n      dup3\n        /* \"#utility.yul\":18848:18860   */\n      and\n        /* \"#utility.yul\":18879:18897   */\n      dup1\n        /* \"#utility.yul\":18869:18950   */\n      tag_538\n      jumpi\n        /* \"#utility.yul\":18935:18939   */\n      0x7f\n        /* \"#utility.yul\":18927:18933   */\n      dup3\n        /* \"#utility.yul\":18923:18940   */\n      and\n        /* \"#utility.yul\":18913:18940   */\n      swap2\n      pop\n        /* \"#utility.yul\":18869:18950   */\n    tag_538:\n        /* \"#utility.yul\":18997:18999   */\n      0x20\n        /* \"#utility.yul\":18989:18995   */\n      dup3\n        /* \"#utility.yul\":18986:19000   */\n      lt\n        /* \"#utility.yul\":18966:18984   */\n      dup2\n        /* \"#utility.yul\":18963:19001   */\n      sub\n        /* \"#utility.yul\":18960:19044   */\n      tag_539\n      jumpi\n        /* \"#utility.yul\":19016:19034   */\n      tag_540\n      tag_352\n      jump\t// in\n    tag_540:\n        /* \"#utility.yul\":18960:19044   */\n    tag_539:\n        /* \"#utility.yul\":18781:19050   */\n      pop\n        /* \"#utility.yul\":18730:19050   */\n      swap2\n      swap1\n      pop\n      jump\t// out\n        /* \"#utility.yul\":19056:19226   */\n    tag_353:\n        /* \"#utility.yul\":19196:19218   */\n      0x5469636b6574206e6f7420617661696c61626c65000000000000000000000000\n        /* \"#utility.yul\":19192:19193   */\n      0x00\n        /* \"#utility.yul\":19184:19190   */\n      dup3\n        /* \"#utility.yul\":19180:19194   */\n      add\n        /* \"#utility.yul\":19173:19219   */\n      mstore\n        /* \"#utility.yul\":19056:19226   */\n      pop\n      jump\t// out\n        /* \"#utility.yul\":19232:19598   */\n    tag_354:\n        /* \"#utility.yul\":19374:19377   */\n      0x00\n        /* \"#utility.yul\":19395:19462   */\n      tag_543\n        /* \"#utility.yul\":19459:19461   */\n      0x14\n        /* \"#utility.yul\":19454:19457   */\n      dup4\n        /* \"#utility.yul\":19395:19462   */\n      tag_325\n      jump\t// in\n    tag_543:\n        /* \"#utility.yul\":19388:19462   */\n      swap2\n      pop\n        /* \"#utility.yul\":19471:19564   */\n      tag_544\n        /* \"#utility.yul\":19560:19563   */\n      dup3\n        /* \"#utility.yul\":19471:19564   */\n      tag_353\n      jump\t// in\n    tag_544:\n        /* \"#utility.yul\":19589:19591   */\n      0x20\n        /* \"#utility.yul\":19584:19587   */\n      dup3\n        /* \"#utility.yul\":19580:19592   */\n      add\n        /* \"#utility.yul\":19573:19592   */\n      swap1\n      pop\n        /* \"#utility.yul\":19232:19598   */\n      swap2\n      swap1\n      pop\n      jump\t// out\n        /* \"#utility.yul\":19604:20023   */\n    tag_228:\n        /* \"#utility.yul\":19770:19774   */\n      0x00\n        /* \"#utility.yul\":19808:19810   */\n      0x20\n        /* \"#utility.yul\":19797:19806   */\n      dup3\n        /* \"#utility.yul\":19793:19811   */\n      add\n        /* \"#utility.yul\":19785:19811   */\n      swap1\n      pop\n        /* \"#utility.yul\":19857:19866   */\n      dup2\n        /* \"#utility.yul\":19851:19855   */\n      dup2\n        /* \"#utility.yul\":19847:19867   */\n      sub\n        /* \"#utility.yul\":19843:19844   */\n      0x00\n        /* \"#utility.yul\":19832:19841   */\n      dup4\n        /* \"#utility.yul\":19828:19845   */\n      add\n        /* \"#utility.yul\":19821:19868   */\n      mstore\n        /* \"#utility.yul\":19885:20016   */\n      tag_546\n        /* \"#utility.yul\":20011:20015   */\n      dup2\n        /* \"#utility.yul\":19885:20016   */\n      tag_354\n      jump\t// in\n    tag_546:\n        /* \"#utility.yul\":19877:20016   */\n      swap1\n      pop\n        /* \"#utility.yul\":19604:20023   */\n      swap2\n      swap1\n      pop\n      jump\t// out\n        /* \"#utility.yul\":20029:20262   */\n    tag_236:\n        /* \"#utility.yul\":20068:20071   */\n      0x00\n        /* \"#utility.yul\":20091:20115   */\n      tag_548\n        /* \"#utility.yul\":20109:20114   */\n      dup3\n        /* \"#utility.yul\":20091:20115   */\n      tag_315\n      jump\t// in\n    tag_548:\n        /* \"#utility.yul\":20082:20115   */\n      swap2\n      pop\n        /* \"#utility.yul\":20137:20203   */\n      0xffffffffffffffffffffffffffffffffffffffffffffffffffffffffffffffff\n        /* \"#utility.yul\":20130:20135   */\n      dup3\n        /* \"#utility.yul\":20127:20204   */\n      sub\n        /* \"#utility.yul\":20124:20227   */\n      tag_549\n      jumpi\n        /* \"#utility.yul\":20207:20225   */\n      tag_550\n      tag_351\n      jump\t// in\n    tag_550:\n        /* \"#utility.yul\":20124:20227   */\n    tag_549:\n        /* \"#utility.yul\":20254:20255   */\n      0x01\n        /* \"#utility.yul\":20247:20252   */\n      dup3\n        /* \"#utility.yul\":20243:20256   */\n      add\n        /* \"#utility.yul\":20236:20256   */\n      swap1\n      pop\n        /* \"#utility.yul\":20029:20262   */\n      swap2\n      swap1\n      pop\n      jump\t// out\n        /* \"#utility.yul\":20268:20493   */\n    tag_355:\n        /* \"#utility.yul\":20408:20442   */\n      0x4f776e61626c653a206e6577206f776e657220697320746865207a65726f2061\n        /* \"#utility.yul\":20404:20405   */\n      0x00\n        /* \"#utility.yul\":20396:20402   */\n      dup3\n        /* \"#utility.yul\":20392:20406   */\n      add\n        /* \"#utility.yul\":20385:20443   */\n      mstore\n        /* \"#utility.yul\":20477:20485   */\n      0x6464726573730000000000000000000000000000000000000000000000000000\n        /* \"#utility.yul\":20472:20474   */\n      0x20\n        /* \"#utility.yul\":20464:20470   */\n      dup3\n        /* \"#utility.yul\":20460:20475   */\n      add\n        /* \"#utility.yul\":20453:20486   */\n      mstore\n        /* \"#utility.yul\":20268:20493   */\n      pop\n      jump\t// out\n        /* \"#utility.yul\":20499:20865   */\n    tag_356:\n        /* \"#utility.yul\":20641:20644   */\n      0x00\n        /* \"#utility.yul\":20662:20729   */\n      tag_553\n        /* \"#utility.yul\":20726:20728   */\n      0x26\n        /* \"#utility.yul\":20721:20724   */\n      dup4\n        /* \"#utility.yul\":20662:20729   */\n      tag_325\n      jump\t// in\n    tag_553:\n        /* \"#utility.yul\":20655:20729   */\n      swap2\n      pop\n        /* \"#utility.yul\":20738:20831   */\n      tag_554\n        /* \"#utility.yul\":20827:20830   */\n      dup3\n        /* \"#utility.yul\":20738:20831   */\n      tag_355\n      jump\t// in\n    tag_554:\n        /* \"#utility.yul\":20856:20858   */\n      0x40\n        /* \"#utility.yul\":20851:20854   */\n      dup3\n        /* \"#utility.yul\":20847:20859   */\n      add\n        /* \"#utility.yul\":20840:20859   */\n      swap1\n      pop\n        /* \"#utility.yul\":20499:20865   */\n      swap2\n      swap1\n      pop\n      jump\t// out\n        /* \"#utility.yul\":20871:21290   */\n    tag_248:\n        /* \"#utility.yul\":21037:21041   */\n      0x00\n        /* \"#utility.yul\":21075:21077   */\n      0x20\n        /* \"#utility.yul\":21064:21073   */\n      dup3\n        /* \"#utility.yul\":21060:21078   */\n      add\n        /* \"#utility.yul\":21052:21078   */\n      swap1\n      pop\n        /* \"#utility.yul\":21124:21133   */\n      dup2\n        /* \"#utility.yul\":21118:21122   */\n      dup2\n        /* \"#utility.yul\":21114:21134   */\n      sub\n        /* \"#utility.yul\":21110:21111   */\n      0x00\n        /* \"#utility.yul\":21099:21108   */\n      dup4\n        /* \"#utility.yul\":21095:21112   */\n      add\n        /* \"#utility.yul\":21088:21135   */\n      mstore\n        /* \"#utility.yul\":21152:21283   */\n      tag_556\n        /* \"#utility.yul\":21278:21282   */\n      dup2\n        /* \"#utility.yul\":21152:21283   */\n      tag_356\n      jump\t// in\n    tag_556:\n        /* \"#utility.yul\":21144:21283   */\n      swap1\n      pop\n        /* \"#utility.yul\":20871:21290   */\n      swap2\n      swap1\n      pop\n      jump\t// out\n        /* \"#utility.yul\":21296:21647   */\n    tag_257:\n        /* \"#utility.yul\":21366:21372   */\n      0x00\n        /* \"#utility.yul\":21415:21417   */\n      0x20\n        /* \"#utility.yul\":21403:21412   */\n      dup3\n        /* \"#utility.yul\":21394:21401   */\n      dup5\n        /* \"#utility.yul\":21390:21413   */\n      sub\n        /* \"#utility.yul\":21386:21418   */\n      slt\n        /* \"#utility.yul\":21383:21502   */\n      iszero\n      tag_558\n      jumpi\n        /* \"#utility.yul\":21421:21500   */\n      tag_559\n      tag_308\n      jump\t// in\n    tag_559:\n        /* \"#utility.yul\":21383:21502   */\n    tag_558:\n        /* \"#utility.yul\":21541:21542   */\n      0x00\n        /* \"#utility.yul\":21566:21630   */\n      tag_560\n        /* \"#utility.yul\":21622:21629   */\n      dup5\n        /* \"#utility.yul\":21613:21619   */\n      dup3\n        /* \"#utility.yul\":21602:21611   */\n      dup6\n        /* \"#utility.yul\":21598:21620   */\n      add\n        /* \"#utility.yul\":21566:21630   */\n      tag_333\n      jump\t// in\n    tag_560:\n        /* \"#utility.yul\":21556:21630   */\n      swap2\n      pop\n        /* \"#utility.yul\":21512:21640   */\n      pop\n        /* \"#utility.yul\":21296:21647   */\n      swap3\n      swap2\n      pop\n      pop\n      jump\t// out\n        /* \"#utility.yul\":21653:21985   */\n    tag_264:\n        /* \"#utility.yul\":21774:21778   */\n      0x00\n        /* \"#utility.yul\":21812:21814   */\n      0x40\n        /* \"#utility.yul\":21801:21810   */\n      dup3\n        /* \"#utility.yul\":21797:21815   */\n      add\n        /* \"#utility.yul\":21789:21815   */\n      swap1\n      pop\n        /* \"#utility.yul\":21825:21896   */\n      tag_562\n        /* \"#utility.yul\":21893:21894   */\n      0x00\n        /* \"#utility.yul\":21882:21891   */\n      dup4\n        /* \"#utility.yul\":21878:21895   */\n      add\n        /* \"#utility.yul\":21869:21875   */\n      dup6\n        /* \"#utility.yul\":21825:21896   */\n      tag_323\n      jump\t// in\n    tag_562:\n        /* \"#utility.yul\":21906:21978   */\n      tag_563\n        /* \"#utility.yul\":21974:21976   */\n      0x20\n        /* \"#utility.yul\":21963:21972   */\n      dup4\n        /* \"#utility.yul\":21959:21977   */\n      add\n        /* \"#utility.yul\":21950:21956   */\n      dup5\n        /* \"#utility.yul\":21906:21978   */\n      tag_316\n      jump\t// in\n    tag_563:\n        /* \"#utility.yul\":21653:21985   */\n      swap4\n      swap3\n      pop\n      pop\n      pop\n      jump\t// out\n        /* \"#utility.yul\":21991:22107   */\n    tag_357:\n        /* \"#utility.yul\":22061:22082   */\n      tag_565\n        /* \"#utility.yul\":22076:22081   */\n      dup2\n        /* \"#utility.yul\":22061:22082   */\n      tag_313\n      jump\t// in\n    tag_565:\n        /* \"#utility.yul\":22054:22059   */\n      dup2\n        /* \"#utility.yul\":22051:22083   */\n      eq\n        /* \"#utility.yul\":22041:22101   */\n      tag_566\n      jumpi\n        /* \"#utility.yul\":22097:22098   */\n      0x00\n        /* \"#utility.yul\":22094:22095   */\n      dup1\n        /* \"#utility.yul\":22087:22099   */\n      revert\n        /* \"#utility.yul\":22041:22101   */\n    tag_566:\n        /* \"#utility.yul\":21991:22107   */\n      pop\n      jump\t// out\n        /* \"#utility.yul\":22113:22250   */\n    tag_358:\n        /* \"#utility.yul\":22167:22172   */\n      0x00\n        /* \"#utility.yul\":22198:22204   */\n      dup2\n        /* \"#utility.yul\":22192:22205   */\n      mload\n        /* \"#utility.yul\":22183:22205   */\n      swap1\n      pop\n        /* \"#utility.yul\":22214:22244   */\n      tag_568\n        /* \"#utility.yul\":22238:22243   */\n      dup2\n        /* \"#utility.yul\":22214:22244   */\n      tag_357\n      jump\t// in\n    tag_568:\n        /* \"#utility.yul\":22113:22250   */\n      swap3\n      swap2\n      pop\n      pop\n      jump\t// out\n        /* \"#utility.yul\":22256:22601   */\n    tag_268:\n        /* \"#utility.yul\":22323:22329   */\n      0x00\n        /* \"#utility.yul\":22372:22374   */\n      0x20\n        /* \"#utility.yul\":22360:22369   */\n      dup3\n        /* \"#utility.yul\":22351:22358   */\n      dup5\n        /* \"#utility.yul\":22347:22370   */\n      sub\n        /* \"#utility.yul\":22343:22375   */\n      slt\n        /* \"#utility.yul\":22340:22459   */\n      iszero\n      tag_570\n      jumpi\n        /* \"#utility.yul\":22378:22457   */\n      tag_571\n      tag_308\n      jump\t// in\n    tag_571:\n        /* \"#utility.yul\":22340:22459   */\n    tag_570:\n        /* \"#utility.yul\":22498:22499   */\n      0x00\n        /* \"#utility.yul\":22523:22584   */\n      tag_572\n        /* \"#utility.yul\":22576:22583   */\n      dup5\n        /* \"#utility.yul\":22567:22573   */\n      dup3\n        /* \"#utility.yul\":22556:22565   */\n      dup6\n        /* \"#utility.yul\":22552:22574   */\n      add\n        /* \"#utility.yul\":22523:22584   */\n      tag_358\n      jump\t// in\n    tag_572:\n        /* \"#utility.yul\":22513:22584   */\n      swap2\n      pop\n        /* \"#utility.yul\":22469:22594   */\n      pop\n        /* \"#utility.yul\":22256:22601   */\n      swap3\n      swap2\n      pop\n      pop\n      jump\t// out\n        /* \"#utility.yul\":22607:22828   */\n    tag_359:\n        /* \"#utility.yul\":22747:22781   */\n      0x526f79616c7479206d757374206265206265747765656e203020616e64203130\n        /* \"#utility.yul\":22743:22744   */\n      0x00\n        /* \"#utility.yul\":22735:22741   */\n      dup3\n        /* \"#utility.yul\":22731:22745   */\n      add\n        /* \"#utility.yul\":22724:22782   */\n      mstore\n        /* \"#utility.yul\":22816:22820   */\n      0x3030000000000000000000000000000000000000000000000000000000000000\n        /* \"#utility.yul\":22811:22813   */\n      0x20\n        /* \"#utility.yul\":22803:22809   */\n      dup3\n        /* \"#utility.yul\":22799:22814   */\n      add\n        /* \"#utility.yul\":22792:22821   */\n      mstore\n        /* \"#utility.yul\":22607:22828   */\n      pop\n      jump\t// out\n        /* \"#utility.yul\":22834:23200   */\n    tag_360:\n        /* \"#utility.yul\":22976:22979   */\n      0x00\n        /* \"#utility.yul\":22997:23064   */\n      tag_575\n        /* \"#utility.yul\":23061:23063   */\n      0x22\n        /* \"#utility.yul\":23056:23059   */\n      dup4\n        /* \"#utility.yul\":22997:23064   */\n      tag_325\n      jump\t// in\n    tag_575:\n        /* \"#utility.yul\":22990:23064   */\n      swap2\n      pop\n        /* \"#utility.yul\":23073:23166   */\n      tag_576\n        /* \"#utility.yul\":23162:23165   */\n      dup3\n        /* \"#utility.yul\":23073:23166   */\n      tag_359\n      jump\t// in\n    tag_576:\n        /* \"#utility.yul\":23191:23193   */\n      0x40\n        /* \"#utility.yul\":23186:23189   */\n      dup3\n        /* \"#utility.yul\":23182:23194   */\n      add\n        /* \"#utility.yul\":23175:23194   */\n      swap1\n      pop\n        /* \"#utility.yul\":22834:23200   */\n      swap2\n      swap1\n      pop\n      jump\t// out\n        /* \"#utility.yul\":23206:23625   */\n    tag_273:\n        /* \"#utility.yul\":23372:23376   */\n      0x00\n        /* \"#utility.yul\":23410:23412   */\n      0x20\n        /* \"#utility.yul\":23399:23408   */\n      dup3\n        /* \"#utility.yul\":23395:23413   */\n      add\n        /* \"#utility.yul\":23387:23413   */\n      swap1\n      pop\n        /* \"#utility.yul\":23459:23468   */\n      dup2\n        /* \"#utility.yul\":23453:23457   */\n      dup2\n        /* \"#utility.yul\":23449:23469   */\n      sub\n        /* \"#utility.yul\":23445:23446   */\n      0x00\n        /* \"#utility.yul\":23434:23443   */\n      dup4\n        /* \"#utility.yul\":23430:23447   */\n      add\n        /* \"#utility.yul\":23423:23470   */\n      mstore\n        /* \"#utility.yul\":23487:23618   */\n      tag_578\n        /* \"#utility.yul\":23613:23617   */\n      dup2\n        /* \"#utility.yul\":23487:23618   */\n      tag_360\n      jump\t// in\n    tag_578:\n        /* \"#utility.yul\":23479:23618   */\n      swap1\n      pop\n        /* \"#utility.yul\":23206:23625   */\n      swap2\n      swap1\n      pop\n      jump\t// out\n        /* \"#utility.yul\":23631:23812   */\n    tag_361:\n        /* \"#utility.yul\":23771:23804   */\n      0x5265656e7472616e637947756172643a207265656e7472616e742063616c6c00\n        /* \"#utility.yul\":23767:23768   */\n      0x00\n        /* \"#utility.yul\":23759:23765   */\n      dup3\n        /* \"#utility.yul\":23755:23769   */\n      add\n        /* \"#utility.yul\":23748:23805   */\n      mstore\n        /* \"#utility.yul\":23631:23812   */\n      pop\n      jump\t// out\n        /* \"#utility.yul\":23818:24184   */\n    tag_362:\n        /* \"#utility.yul\":23960:23963   */\n      0x00\n        /* \"#utility.yul\":23981:24048   */\n      tag_581\n        /* \"#utility.yul\":24045:24047   */\n      0x1f\n        /* \"#utility.yul\":24040:24043   */\n      dup4\n        /* \"#utility.yul\":23981:24048   */\n      tag_325\n      jump\t// in\n    tag_581:\n        /* \"#utility.yul\":23974:24048   */\n      swap2\n      pop\n        /* \"#utility.yul\":24057:24150   */\n      tag_582\n        /* \"#utility.yul\":24146:24149   */\n      dup3\n        /* \"#utility.yul\":24057:24150   */\n      tag_361\n      jump\t// in\n    tag_582:\n        /* \"#utility.yul\":24175:24177   */\n      0x20\n        /* \"#utility.yul\":24170:24173   */\n      dup3\n        /* \"#utility.yul\":24166:24178   */\n      add\n        /* \"#utility.yul\":24159:24178   */\n      swap1\n      pop\n        /* \"#utility.yul\":23818:24184   */\n      swap2\n      swap1\n      pop\n      jump\t// out\n        /* \"#utility.yul\":24190:24609   */\n    tag_277:\n        /* \"#utility.yul\":24356:24360   */\n      0x00\n        /* \"#utility.yul\":24394:24396   */\n      0x20\n        /* \"#utility.yul\":24383:24392   */\n      dup3\n        /* \"#utility.yul\":24379:24397   */\n      add\n        /* \"#utility.yul\":24371:24397   */\n      swap1\n      pop\n        /* \"#utility.yul\":24443:24452   */\n      dup2\n        /* \"#utility.yul\":24437:24441   */\n      dup2\n        /* \"#utility.yul\":24433:24453   */\n      sub\n        /* \"#utility.yul\":24429:24430   */\n      0x00\n        /* \"#utility.yul\":24418:24427   */\n      dup4\n        /* \"#utility.yul\":24414:24431   */\n      add\n        /* \"#utility.yul\":24407:24454   */\n      mstore\n        /* \"#utility.yul\":24471:24602   */\n      tag_584\n        /* \"#utility.yul\":24597:24601   */\n      dup2\n        /* \"#utility.yul\":24471:24602   */\n      tag_362\n      jump\t// in\n    tag_584:\n        /* \"#utility.yul\":24463:24602   */\n      swap1\n      pop\n        /* \"#utility.yul\":24190:24609   */\n      swap2\n      swap1\n      pop\n      jump\t// out\n        /* \"#utility.yul\":24615:24779   */\n    tag_363:\n        /* \"#utility.yul\":24755:24771   */\n      0x496e76616c69642073656e646572000000000000000000000000000000000000\n        /* \"#utility.yul\":24751:24752   */\n      0x00\n        /* \"#utility.yul\":24743:24749   */\n      dup3\n        /* \"#utility.yul\":24739:24753   */\n      add\n        /* \"#utility.yul\":24732:24772   */\n      mstore\n        /* \"#utility.yul\":24615:24779   */\n      pop\n      jump\t// out\n        /* \"#utility.yul\":24785:25151   */\n    tag_364:\n        /* \"#utility.yul\":24927:24930   */\n      0x00\n        /* \"#utility.yul\":24948:25015   */\n      tag_587\n        /* \"#utility.yul\":25012:25014   */\n      0x0e\n        /* \"#utility.yul\":25007:25010   */\n      dup4\n        /* \"#utility.yul\":24948:25015   */\n      tag_325\n      jump\t// in\n    tag_587:\n        /* \"#utility.yul\":24941:25015   */\n      swap2\n      pop\n        /* \"#utility.yul\":25024:25117   */\n      tag_588\n        /* \"#utility.yul\":25113:25116   */\n      dup3\n        /* \"#utility.yul\":25024:25117   */\n      tag_363\n      jump\t// in\n    tag_588:\n        /* \"#utility.yul\":25142:25144   */\n      0x20\n        /* \"#utility.yul\":25137:25140   */\n      dup3\n        /* \"#utility.yul\":25133:25145   */\n      add\n        /* \"#utility.yul\":25126:25145   */\n      swap1\n      pop\n        /* \"#utility.yul\":24785:25151   */\n      swap2\n      swap1\n      pop\n      jump\t// out\n        /* \"#utility.yul\":25157:25576   */\n    tag_283:\n        /* \"#utility.yul\":25323:25327   */\n      0x00\n        /* \"#utility.yul\":25361:25363   */\n      0x20\n        /* \"#utility.yul\":25350:25359   */\n      dup3\n        /* \"#utility.yul\":25346:25364   */\n      add\n        /* \"#utility.yul\":25338:25364   */\n      swap1\n      pop\n        /* \"#utility.yul\":25410:25419   */\n      dup2\n        /* \"#utility.yul\":25404:25408   */\n      dup2\n        /* \"#utility.yul\":25400:25420   */\n      sub\n        /* \"#utility.yul\":25396:25397   */\n      0x00\n        /* \"#utility.yul\":25385:25394   */\n      dup4\n        /* \"#utility.yul\":25381:25398   */\n      add\n        /* \"#utility.yul\":25374:25421   */\n      mstore\n        /* \"#utility.yul\":25438:25569   */\n      tag_590\n        /* \"#utility.yul\":25564:25568   */\n      dup2\n        /* \"#utility.yul\":25438:25569   */\n      tag_364\n      jump\t// in\n    tag_590:\n        /* \"#utility.yul\":25430:25569   */\n      swap1\n      pop\n        /* \"#utility.yul\":25157:25576   */\n      swap2\n      swap1\n      pop\n      jump\t// out\n        /* \"#utility.yul\":25582:25760   */\n    tag_365:\n        /* \"#utility.yul\":25722:25752   */\n      0x496e73756666696369656e7420746f6b656e207375626d697474656400000000\n        /* \"#utility.yul\":25718:25719   */\n      0x00\n        /* \"#utility.yul\":25710:25716   */\n      dup3\n        /* \"#utility.yul\":25706:25720   */\n      add\n        /* \"#utility.yul\":25699:25753   */\n      mstore\n        /* \"#utility.yul\":25582:25760   */\n      pop\n      jump\t// out\n        /* \"#utility.yul\":25766:26132   */\n    tag_366:\n        /* \"#utility.yul\":25908:25911   */\n      0x00\n        /* \"#utility.yul\":25929:25996   */\n      tag_593\n        /* \"#utility.yul\":25993:25995   */\n      0x1c\n        /* \"#utility.yul\":25988:25991   */\n      dup4\n        /* \"#utility.yul\":25929:25996   */\n      tag_325\n      jump\t// in\n    tag_593:\n        /* \"#utility.yul\":25922:25996   */\n      swap2\n      pop\n        /* \"#utility.yul\":26005:26098   */\n      tag_594\n        /* \"#utility.yul\":26094:26097   */\n      dup3\n        /* \"#utility.yul\":26005:26098   */\n      tag_365\n      jump\t// in\n    tag_594:\n        /* \"#utility.yul\":26123:26125   */\n      0x20\n        /* \"#utility.yul\":26118:26121   */\n      dup3\n        /* \"#utility.yul\":26114:26126   */\n      add\n        /* \"#utility.yul\":26107:26126   */\n      swap1\n      pop\n        /* \"#utility.yul\":25766:26132   */\n      swap2\n      swap1\n      pop\n      jump\t// out\n        /* \"#utility.yul\":26138:26557   */\n    tag_286:\n        /* \"#utility.yul\":26304:26308   */\n      0x00\n        /* \"#utility.yul\":26342:26344   */\n      0x20\n        /* \"#utility.yul\":26331:26340   */\n      dup3\n        /* \"#utility.yul\":26327:26345   */\n      add\n        /* \"#utility.yul\":26319:26345   */\n      swap1\n      pop\n        /* \"#utility.yul\":26391:26400   */\n      dup2\n        /* \"#utility.yul\":26385:26389   */\n      dup2\n        /* \"#utility.yul\":26381:26401   */\n      sub\n        /* \"#utility.yul\":26377:26378   */\n      0x00\n        /* \"#utility.yul\":26366:26375   */\n      dup4\n        /* \"#utility.yul\":26362:26379   */\n      add\n        /* \"#utility.yul\":26355:26402   */\n      mstore\n        /* \"#utility.yul\":26419:26550   */\n      tag_596\n        /* \"#utility.yul\":26545:26549   */\n      dup2\n        /* \"#utility.yul\":26419:26550   */\n      tag_366\n      jump\t// in\n    tag_596:\n        /* \"#utility.yul\":26411:26550   */\n      swap1\n      pop\n        /* \"#utility.yul\":26138:26557   */\n      swap2\n      swap1\n      pop\n      jump\t// out\n        /* \"#utility.yul\":26563:26895   */\n    tag_289:\n        /* \"#utility.yul\":26684:26688   */\n      0x00\n        /* \"#utility.yul\":26722:26724   */\n      0x40\n        /* \"#utility.yul\":26711:26720   */\n      dup3\n        /* \"#utility.yul\":26707:26725   */\n      add\n        /* \"#utility.yul\":26699:26725   */\n      swap1\n      pop\n        /* \"#utility.yul\":26735:26806   */\n      tag_598\n        /* \"#utility.yul\":26803:26804   */\n      0x00\n        /* \"#utility.yul\":26792:26801   */\n      dup4\n        /* \"#utility.yul\":26788:26805   */\n      add\n        /* \"#utility.yul\":26779:26785   */\n      dup6\n        /* \"#utility.yul\":26735:26806   */\n      tag_323\n      jump\t// in\n    tag_598:\n        /* \"#utility.yul\":26816:26888   */\n      tag_599\n        /* \"#utility.yul\":26884:26886   */\n      0x20\n        /* \"#utility.yul\":26873:26882   */\n      dup4\n        /* \"#utility.yul\":26869:26887   */\n      add\n        /* \"#utility.yul\":26860:26866   */\n      dup5\n        /* \"#utility.yul\":26816:26888   */\n      tag_323\n      jump\t// in\n    tag_599:\n        /* \"#utility.yul\":26563:26895   */\n      swap4\n      swap3\n      pop\n      pop\n      pop\n      jump\t// out\n        /* \"#utility.yul\":26901:27082   */\n    tag_367:\n        /* \"#utility.yul\":27041:27074   */\n      0x496e73756666696369656e7420616c6c6f77616e63652070726f766964656400\n        /* \"#utility.yul\":27037:27038   */\n      0x00\n        /* \"#utility.yul\":27029:27035   */\n      dup3\n        /* \"#utility.yul\":27025:27039   */\n      add\n        /* \"#utility.yul\":27018:27075   */\n      mstore\n        /* \"#utility.yul\":26901:27082   */\n      pop\n      jump\t// out\n        /* \"#utility.yul\":27088:27454   */\n    tag_368:\n        /* \"#utility.yul\":27230:27233   */\n      0x00\n        /* \"#utility.yul\":27251:27318   */\n      tag_602\n        /* \"#utility.yul\":27315:27317   */\n      0x1f\n        /* \"#utility.yul\":27310:27313   */\n      dup4\n        /* \"#utility.yul\":27251:27318   */\n      tag_325\n      jump\t// in\n    tag_602:\n        /* \"#utility.yul\":27244:27318   */\n      swap2\n      pop\n        /* \"#utility.yul\":27327:27420   */\n      tag_603\n        /* \"#utility.yul\":27416:27419   */\n      dup3\n        /* \"#utility.yul\":27327:27420   */\n      tag_367\n      jump\t// in\n    tag_603:\n        /* \"#utility.yul\":27445:27447   */\n      0x20\n        /* \"#utility.yul\":27440:27443   */\n      dup3\n        /* \"#utility.yul\":27436:27448   */\n      add\n        /* \"#utility.yul\":27429:27448   */\n      swap1\n      pop\n        /* \"#utility.yul\":27088:27454   */\n      swap2\n      swap1\n      pop\n      jump\t// out\n        /* \"#utility.yul\":27460:27879   */\n    tag_295:\n        /* \"#utility.yul\":27626:27630   */\n      0x00\n        /* \"#utility.yul\":27664:27666   */\n      0x20\n        /* \"#utility.yul\":27653:27662   */\n      dup3\n        /* \"#utility.yul\":27649:27667   */\n      add\n        /* \"#utility.yul\":27641:27667   */\n      swap1\n      pop\n        /* \"#utility.yul\":27713:27722   */\n      dup2\n        /* \"#utility.yul\":27707:27711   */\n      dup2\n        /* \"#utility.yul\":27703:27723   */\n      sub\n        /* \"#utility.yul\":27699:27700   */\n      0x00\n        /* \"#utility.yul\":27688:27697   */\n      dup4\n        /* \"#utility.yul\":27684:27701   */\n      add\n        /* \"#utility.yul\":27677:27724   */\n      mstore\n        /* \"#utility.yul\":27741:27872   */\n      tag_605\n        /* \"#utility.yul\":27867:27871   */\n      dup2\n        /* \"#utility.yul\":27741:27872   */\n      tag_368\n      jump\t// in\n    tag_605:\n        /* \"#utility.yul\":27733:27872   */\n      swap1\n      pop\n        /* \"#utility.yul\":27460:27879   */\n      swap2\n      swap1\n      pop\n      jump\t// out\n        /* \"#utility.yul\":27885:28107   */\n    tag_369:\n        /* \"#utility.yul\":28025:28059   */\n      0x496e73756666696369656e742066756e64732070726f7669646564202876616c\n        /* \"#utility.yul\":28021:28022   */\n      0x00\n        /* \"#utility.yul\":28013:28019   */\n      dup3\n        /* \"#utility.yul\":28009:28023   */\n      add\n        /* \"#utility.yul\":28002:28060   */\n      mstore\n        /* \"#utility.yul\":28094:28099   */\n      0x7565290000000000000000000000000000000000000000000000000000000000\n        /* \"#utility.yul\":28089:28091   */\n      0x20\n        /* \"#utility.yul\":28081:28087   */\n      dup3\n        /* \"#utility.yul\":28077:28092   */\n      add\n        /* \"#utility.yul\":28070:28100   */\n      mstore\n        /* \"#utility.yul\":27885:28107   */\n      pop\n      jump\t// out\n        /* \"#utility.yul\":28113:28479   */\n    tag_370:\n        /* \"#utility.yul\":28255:28258   */\n      0x00\n        /* \"#utility.yul\":28276:28343   */\n      tag_608\n        /* \"#utility.yul\":28340:28342   */\n      0x23\n        /* \"#utility.yul\":28335:28338   */\n      dup4\n        /* \"#utility.yul\":28276:28343   */\n      tag_325\n      jump\t// in\n    tag_608:\n        /* \"#utility.yul\":28269:28343   */\n      swap2\n      pop\n        /* \"#utility.yul\":28352:28445   */\n      tag_609\n        /* \"#utility.yul\":28441:28444   */\n      dup3\n        /* \"#utility.yul\":28352:28445   */\n      tag_369\n      jump\t// in\n    tag_609:\n        /* \"#utility.yul\":28470:28472   */\n      0x40\n        /* \"#utility.yul\":28465:28468   */\n      dup3\n        /* \"#utility.yul\":28461:28473   */\n      add\n        /* \"#utility.yul\":28454:28473   */\n      swap1\n      pop\n        /* \"#utility.yul\":28113:28479   */\n      swap2\n      swap1\n      pop\n      jump\t// out\n        /* \"#utility.yul\":28485:28904   */\n    tag_300:\n        /* \"#utility.yul\":28651:28655   */\n      0x00\n        /* \"#utility.yul\":28689:28691   */\n      0x20\n        /* \"#utility.yul\":28678:28687   */\n      dup3\n        /* \"#utility.yul\":28674:28692   */\n      add\n        /* \"#utility.yul\":28666:28692   */\n      swap1\n      pop\n        /* \"#utility.yul\":28738:28747   */\n      dup2\n        /* \"#utility.yul\":28732:28736   */\n      dup2\n        /* \"#utility.yul\":28728:28748   */\n      sub\n        /* \"#utility.yul\":28724:28725   */\n      0x00\n        /* \"#utility.yul\":28713:28722   */\n      dup4\n        /* \"#utility.yul\":28709:28726   */\n      add\n        /* \"#utility.yul\":28702:28749   */\n      mstore\n        /* \"#utility.yul\":28766:28897   */\n      tag_611\n        /* \"#utility.yul\":28892:28896   */\n      dup2\n        /* \"#utility.yul\":28766:28897   */\n      tag_370\n      jump\t// in\n    tag_611:\n        /* \"#utility.yul\":28758:28897   */\n      swap1\n      pop\n        /* \"#utility.yul\":28485:28904   */\n      swap2\n      swap1\n      pop\n      jump\t// out\n        /* \"#utility.yul\":28910:29352   */\n    tag_303:\n        /* \"#utility.yul\":29059:29063   */\n      0x00\n        /* \"#utility.yul\":29097:29099   */\n      0x60\n        /* \"#utility.yul\":29086:29095   */\n      dup3\n        /* \"#utility.yul\":29082:29100   */\n      add\n        /* \"#utility.yul\":29074:29100   */\n      swap1\n      pop\n        /* \"#utility.yul\":29110:29181   */\n      tag_613\n        /* \"#utility.yul\":29178:29179   */\n      0x00\n        /* \"#utility.yul\":29167:29176   */\n      dup4\n        /* \"#utility.yul\":29163:29180   */\n      add\n        /* \"#utility.yul\":29154:29160   */\n      dup7\n        /* \"#utility.yul\":29110:29181   */\n      tag_323\n      jump\t// in\n    tag_613:\n        /* \"#utility.yul\":29191:29263   */\n      tag_614\n        /* \"#utility.yul\":29259:29261   */\n      0x20\n        /* \"#utility.yul\":29248:29257   */\n      dup4\n        /* \"#utility.yul\":29244:29262   */\n      add\n        /* \"#utility.yul\":29235:29241   */\n      dup6\n        /* \"#utility.yul\":29191:29263   */\n      tag_323\n      jump\t// in\n    tag_614:\n        /* \"#utility.yul\":29273:29345   */\n      tag_615\n        /* \"#utility.yul\":29341:29343   */\n      0x40\n        /* \"#utility.yul\":29330:29339   */\n      dup4\n        /* \"#utility.yul\":29326:29344   */\n      add\n        /* \"#utility.yul\":29317:29323   */\n      dup5\n        /* \"#utility.yul\":29273:29345   */\n      tag_316\n      jump\t// in\n    tag_615:\n        /* \"#utility.yul\":28910:29352   */\n      swap5\n      swap4\n      pop\n      pop\n      pop\n      pop\n      jump\t// out\n\n    auxdata: 0xa26469706673582212208165ac10122238fb5a68ce543d34f43a53b71f32f335e8287420b382aba9b42b64736f6c634300080e0033\n}\n",
				"bytecode": {
					"linkReferences": {},
					"object": "6080604052600060035560006008553480156200001b57600080fd5b50604051620031953803806200319583398181016040528101906200004191906200043b565b858183806000806101000a81548173ffffffffffffffffffffffffffffffffffffffff021916908373ffffffffffffffffffffffffffffffffffffffff16021790555081600160006101000a81548173ffffffffffffffffffffffffffffffffffffffff021916908373ffffffffffffffffffffffffffffffffffffffff1602179055505050600160048190555080600560006101000a81548173ffffffffffffffffffffffffffffffffffffffff021916908373ffffffffffffffffffffffffffffffffffffffff1602179055505083604051602001620001249190620005d1565b604051602081830303815290604052600e90805190602001906200014a92919062000189565b5084600d90805190602001906200016392919062000189565b5082600f90805190602001906200017c92919062000189565b505050505050506200065b565b828054620001979062000626565b90600052602060002090601f016020900481019282620001bb576000855562000207565b82601f10620001d657805160ff191683800117855562000207565b8280016001018555821562000207579182015b8281111562000206578251825591602001919060010190620001e9565b5b5090506200021691906200021a565b5090565b5b80821115620002355760008160009055506001016200021b565b5090565b6000604051905090565b600080fd5b600080fd5b600073ffffffffffffffffffffffffffffffffffffffff82169050919050565b60006200027a826200024d565b9050919050565b6200028c816200026d565b81146200029857600080fd5b50565b600081519050620002ac8162000281565b92915050565b600080fd5b600080fd5b6000601f19601f8301169050919050565b7f4e487b7100000000000000000000000000000000000000000000000000000000600052604160045260246000fd5b6200030782620002bc565b810181811067ffffffffffffffff82111715620003295762000328620002cd565b5b80604052505050565b60006200033e62000239565b90506200034c8282620002fc565b919050565b600067ffffffffffffffff8211156200036f576200036e620002cd565b5b6200037a82620002bc565b9050602081019050919050565b60005b83811015620003a75780820151818401526020810190506200038a565b83811115620003b7576000848401525b50505050565b6000620003d4620003ce8462000351565b62000332565b905082815260208101848484011115620003f357620003f2620002b7565b5b6200040084828562000387565b509392505050565b600082601f83011262000420576200041f620002b2565b5b815162000432848260208601620003bd565b91505092915050565b60008060008060008060c087890312156200045b576200045a62000243565b5b60006200046b89828a016200029b565b965050602087015167ffffffffffffffff8111156200048f576200048e62000248565b5b6200049d89828a0162000408565b955050604087015167ffffffffffffffff811115620004c157620004c062000248565b5b620004cf89828a0162000408565b945050606087015167ffffffffffffffff811115620004f357620004f262000248565b5b6200050189828a0162000408565b93505060806200051489828a016200029b565b92505060a06200052789828a016200029b565b9150509295509295509295565b600081905092915050565b7f2520000000000000000000000000000000000000000000000000000000000000600082015250565b60006200057760028362000534565b915062000584826200053f565b600282019050919050565b600081519050919050565b6000620005a7826200058f565b620005b3818562000534565b9350620005c581856020860162000387565b80840191505092915050565b6000620005de8262000568565b9150620005ec82846200059a565b915081905092915050565b7f4e487b7100000000000000000000000000000000000000000000000000000000600052602260045260246000fd5b600060028204905060018216806200063f57607f821691505b602082108103620006555762000654620005f7565b5b50919050565b612b2a806200066b6000396000f3fe6080604052600436106101145760003560e01c80638546d002116100a0578063a9059cbb11610064578063a9059cbb14610373578063b9186d7d1461038f578063c87b56dd146103cc578063efef39a114610409578063f2fde38b1461042557610114565b80638546d00214610299578063879f9c96146102d65780638da5cb5b14610301578063a035b1fe1461032c578063a19205861461035757610114565b80634d47732a116100e75780634d47732a146101af5780635de42985146101da5780636352211e146101f657806370a082311461023357806380d859111461027057610114565b806301ffc9a71461011957806318160ddd14610156578063225435c0146101815780633ccfd60b14610198575b600080fd5b34801561012557600080fd5b50610140600480360381019061013b9190611c77565b61044e565b60405161014d9190611cbf565b60405180910390f35b34801561016257600080fd5b5061016b610455565b6040516101789190611cf3565b60405180910390f35b34801561018d57600080fd5b5061019661045b565b005b3480156101a457600080fd5b506101ad610533565b005b3480156101bb57600080fd5b506101c4610600565b6040516101d19190611cf3565b60405180910390f35b6101f460048036038101906101ef9190611d98565b61060a565b005b34801561020257600080fd5b5061021d60048036038101906102189190611dd8565b61082a565b60405161022a9190611e14565b60405180910390f35b34801561023f57600080fd5b5061025a60048036038101906102559190611e2f565b610867565b6040516102679190611cf3565b60405180910390f35b34801561027c57600080fd5b5061029760048036038101906102929190611e5c565b61091e565b005b3480156102a557600080fd5b506102c060048036038101906102bb9190611dd8565b610a91565b6040516102cd9190611cbf565b60405180910390f35b3480156102e257600080fd5b506102eb610afd565b6040516102f89190611cf3565b60405180910390f35b34801561030d57600080fd5b50610316610b03565b6040516103239190611e14565b60405180910390f35b34801561033857600080fd5b50610341610b2d565b60405161034e9190611cf3565b60405180910390f35b610371600480360381019061036c9190611eaf565b610b33565b005b61038d60048036038101906103889190611eef565b610dde565b005b34801561039b57600080fd5b506103b660048036038101906103b19190611dd8565b6111b2565b6040516103c39190611cf3565b60405180910390f35b3480156103d857600080fd5b506103f360048036038101906103ee9190611dd8565b6111cf565b6040516104009190611fc8565b60405180910390f35b610423600480360381019061041e9190611dd8565b611263565b005b34801561043157600080fd5b5061044c60048036038101906104479190611e2f565b61141e565b005b6000919050565b60075481565b610463611568565b73ffffffffffffffffffffffffffffffffffffffff1660008054906101000a900473ffffffffffffffffffffffffffffffffffffffff1673ffffffffffffffffffffffffffffffffffffffff16146104f0576040517f08c379a00000000000000000000000000000000000000000000000000000000081526004016104e790612036565b60405180910390fd5b60008060006101000a81548173ffffffffffffffffffffffffffffffffffffffff021916908373ffffffffffffffffffffffffffffffffffffffff160217905550565b61053b611568565b73ffffffffffffffffffffffffffffffffffffffff16600160009054906101000a900473ffffffffffffffffffffffffffffffffffffffff1673ffffffffffffffffffffffffffffffffffffffff16146105ca576040517f08c379a00000000000000000000000000000000000000000000000000000000081526004016105c1906120a2565b60405180910390fd5b6105fe600160009054906101000a900473ffffffffffffffffffffffffffffffffffffffff166105f930611570565b611690565b565b6000600354905090565b600073ffffffffffffffffffffffffffffffffffffffff1660008054906101000a900473ffffffffffffffffffffffffffffffffffffffff1673ffffffffffffffffffffffffffffffffffffffff1603156108265760008060008054906101000a900473ffffffffffffffffffffffffffffffffffffffff1673ffffffffffffffffffffffffffffffffffffffff1663ced72f876040518163ffffffff1660e01b81526004016040805180830381865afa1580156106cc573d6000803e3d6000fd5b505050506040513d601f19601f820116820180604052508101906106f091906120ec565b80935081925050508034101561073b576040517f08c379a000000000000000000000000000000000000000000000000000000000815260040161073290612178565b60405180910390fd5b8173ffffffffffffffffffffffffffffffffffffffff166108fc829081150290604051600060405180830381858888f19350505050158015610781573d6000803e3d6000fd5b5061078a611568565b73ffffffffffffffffffffffffffffffffffffffff16600160009054906101000a900473ffffffffffffffffffffffffffffffffffffffff1673ffffffffffffffffffffffffffffffffffffffff1614610819576040517f08c379a0000000000000000000000000000000000000000000000000000000008152600401610810906120a2565b60405180910390fd5b61082384846117de565b50505b5050565b60006009600083815260200190815260200160002060009054906101000a900473ffffffffffffffffffffffffffffffffffffffff169050919050565b60008073ffffffffffffffffffffffffffffffffffffffff168273ffffffffffffffffffffffffffffffffffffffff16036108d7576040517f08c379a00000000000000000000000000000000000000000000000000000000081526004016108ce9061220a565b60405180910390fd5b600a60008373ffffffffffffffffffffffffffffffffffffffff1673ffffffffffffffffffffffffffffffffffffffff168152602001908152602001600020549050919050565b610926611568565b73ffffffffffffffffffffffffffffffffffffffff16600160009054906101000a900473ffffffffffffffffffffffffffffffffffffffff1673ffffffffffffffffffffffffffffffffffffffff16146109b5576040517f08c379a00000000000000000000000000000000000000000000000000000000081526004016109ac906120a2565b60405180910390fd5b6109bd61187c565b600083101580156109d057506103e88311155b610a0f576040517f08c379a0000000000000000000000000000000000000000000000000000000008152600401610a0690612276565b60405180910390fd5b600060075410158015610a26575061271060075411155b610a65576040517f08c379a0000000000000000000000000000000000000000000000000000000008152600401610a5c906122e2565b60405180910390fd5b8160078190555080600681905550610a8483610a7f610b03565b6117de565b610a8c6118cb565b505050565b60008073ffffffffffffffffffffffffffffffffffffffff16600b600084815260200190815260200160002060009054906101000a900473ffffffffffffffffffffffffffffffffffffffff1673ffffffffffffffffffffffffffffffffffffffff1614159050919050565b60085481565b6000600160009054906101000a900473ffffffffffffffffffffffffffffffffffffffff16905090565b60065481565b600073ffffffffffffffffffffffffffffffffffffffff1660008054906101000a900473ffffffffffffffffffffffffffffffffffffffff1673ffffffffffffffffffffffffffffffffffffffff160315610dda5760008060008054906101000a900473ffffffffffffffffffffffffffffffffffffffff1673ffffffffffffffffffffffffffffffffffffffff1663ced72f876040518163ffffffff1660e01b81526004016040805180830381865afa158015610bf5573d6000803e3d6000fd5b505050506040513d601f19601f82011682018060405250810190610c1991906120ec565b809350819250505080341015610c64576040517f08c379a0000000000000000000000000000000000000000000000000000000008152600401610c5b90612178565b60405180910390fd5b8173ffffffffffffffffffffffffffffffffffffffff166108fc829081150290604051600060405180830381858888f19350505050158015610caa573d6000803e3d6000fd5b50610cb3611568565b73ffffffffffffffffffffffffffffffffffffffff16610cd28561082a565b73ffffffffffffffffffffffffffffffffffffffff1614610d28576040517f08c379a0000000000000000000000000000000000000000000000000000000008152600401610d1f9061234e565b60405180910390fd5b600060065411610d6d576040517f08c379a0000000000000000000000000000000000000000000000000000000008152600401610d64906123ba565b60405180910390fd5b33600b600086815260200190815260200160002060006101000a81548173ffffffffffffffffffffffffffffffffffffffff021916908373ffffffffffffffffffffffffffffffffffffffff16021790555082600c60008681526020019081526020016000208190555050505b5050565b600073ffffffffffffffffffffffffffffffffffffffff1660008054906101000a900473ffffffffffffffffffffffffffffffffffffffff1673ffffffffffffffffffffffffffffffffffffffff1603156111ae5760008060008054906101000a900473ffffffffffffffffffffffffffffffffffffffff1673ffffffffffffffffffffffffffffffffffffffff1663ced72f876040518163ffffffff1660e01b81526004016040805180830381865afa158015610ea0573d6000803e3d6000fd5b505050506040513d601f19601f82011682018060405250810190610ec491906120ec565b809350819250505080341015610f0f576040517f08c379a0000000000000000000000000000000000000000000000000000000008152600401610f0690612178565b60405180910390fd5b8173ffffffffffffffffffffffffffffffffffffffff166108fc829081150290604051600060405180830381858888f19350505050158015610f55573d6000803e3d6000fd5b50610f5f8361082a565b73ffffffffffffffffffffffffffffffffffffffff16610f7d611568565b73ffffffffffffffffffffffffffffffffffffffff1614610fd3576040517f08c379a0000000000000000000000000000000000000000000000000000000008152600401610fca90612426565b60405180910390fd5b600073ffffffffffffffffffffffffffffffffffffffff168473ffffffffffffffffffffffffffffffffffffffff1603611042576040517f08c379a000000000000000000000000000000000000000000000000000000000815260040161103990612492565b60405180910390fd5b836009600085815260200190815260200160002060006101000a81548173ffffffffffffffffffffffffffffffffffffffff021916908373ffffffffffffffffffffffffffffffffffffffff1602179055506001600a60006110a2611568565b73ffffffffffffffffffffffffffffffffffffffff1673ffffffffffffffffffffffffffffffffffffffff16815260200190815260200160002060008282546110eb91906124e1565b925050819055506001600a60008673ffffffffffffffffffffffffffffffffffffffff1673ffffffffffffffffffffffffffffffffffffffff16815260200190815260200160002060008282546111429190612515565b92505081905550828473ffffffffffffffffffffffffffffffffffffffff16611169611568565b73ffffffffffffffffffffffffffffffffffffffff167f8baf29b4b5af24ec8170355f2819a9135840321dd4e65b88a080dfc3054fe99c60405160405180910390a450505b5050565b6000600c6000838152602001908152602001600020549050919050565b6060600f80546111de9061259a565b80601f016020809104026020016040519081016040528092919081815260200182805461120a9061259a565b80156112575780601f1061122c57610100808354040283529160200191611257565b820191906000526020600020905b81548152906001019060200180831161123a57829003601f168201915b50505050509050919050565b61126c8161082a565b73ffffffffffffffffffffffffffffffffffffffff16600073ffffffffffffffffffffffffffffffffffffffff16146112da576040517f08c379a00000000000000000000000000000000000000000000000000000000081526004016112d190612617565b60405180910390fd5b6112ed6112e5611568565b6006546118d5565b6113016112f8611568565b30600654611acd565b6008600081548092919061131490612637565b9190505550611321611568565b6009600083815260200190815260200160002060006101000a81548173ffffffffffffffffffffffffffffffffffffffff021916908373ffffffffffffffffffffffffffffffffffffffff1602179055506001600a6000611380611568565b73ffffffffffffffffffffffffffffffffffffffff1673ffffffffffffffffffffffffffffffffffffffff16815260200190815260200160002060008282546113c99190612515565b92505081905550806113d9611568565b73ffffffffffffffffffffffffffffffffffffffff167f48dde1ed76eb2bb4c3af46b59060ddb6d9a74d35c3c6af84e27f370036ae784e60405160405180910390a350565b611426611568565b73ffffffffffffffffffffffffffffffffffffffff16600160009054906101000a900473ffffffffffffffffffffffffffffffffffffffff1673ffffffffffffffffffffffffffffffffffffffff16146114b5576040517f08c379a00000000000000000000000000000000000000000000000000000000081526004016114ac906120a2565b60405180910390fd5b600073ffffffffffffffffffffffffffffffffffffffff168173ffffffffffffffffffffffffffffffffffffffff1603611524576040517f08c379a000000000000000000000000000000000000000000000000000000000815260040161151b906126f1565b60405180910390fd5b80600160006101000a81548173ffffffffffffffffffffffffffffffffffffffff021916908373ffffffffffffffffffffffffffffffffffffffff16021790555050565b600033905090565b60008073ffffffffffffffffffffffffffffffffffffffff16600560009054906101000a900473ffffffffffffffffffffffffffffffffffffffff1673ffffffffffffffffffffffffffffffffffffffff16036115e6578173ffffffffffffffffffffffffffffffffffffffff1631905061168b565b6000600560009054906101000a900473ffffffffffffffffffffffffffffffffffffffff1690508073ffffffffffffffffffffffffffffffffffffffff166370a08231846040518263ffffffff1660e01b81526004016116469190611e14565b602060405180830381865afa158015611663573d6000803e3d6000fd5b505050506040513d601f19601f820116820180604052508101906116879190612711565b9150505b919050565b600073ffffffffffffffffffffffffffffffffffffffff16600560009054906101000a900473ffffffffffffffffffffffffffffffffffffffff1673ffffffffffffffffffffffffffffffffffffffff1603611732578173ffffffffffffffffffffffffffffffffffffffff166108fc829081150290604051600060405180830381858888f1935050505015801561172c573d6000803e3d6000fd5b506117da565b6000600560009054906101000a900473ffffffffffffffffffffffffffffffffffffffff1690508073ffffffffffffffffffffffffffffffffffffffff1663a9059cbb84846040518363ffffffff1660e01b815260040161179492919061273e565b6020604051808303816000875af11580156117b3573d6000803e3d6000fd5b505050506040513d601f19601f820116820180604052508101906117d79190612793565b50505b5050565b600082101580156117f157506103e88211155b611830576040517f08c379a000000000000000000000000000000000000000000000000000000000815260040161182790612832565b60405180910390fd5b8160038190555080600260006101000a81548173ffffffffffffffffffffffffffffffffffffffff021916908373ffffffffffffffffffffffffffffffffffffffff1602179055505050565b6002600454036118c1576040517f08c379a00000000000000000000000000000000000000000000000000000000081526004016118b89061289e565b60405180910390fd5b6002600481905550565b6001600481905550565b600073ffffffffffffffffffffffffffffffffffffffff16600560009054906101000a900473ffffffffffffffffffffffffffffffffffffffff1673ffffffffffffffffffffffffffffffffffffffff16036119e257600073ffffffffffffffffffffffffffffffffffffffff168273ffffffffffffffffffffffffffffffffffffffff160361199a576040517f08c379a00000000000000000000000000000000000000000000000000000000081526004016119919061290a565b60405180910390fd5b803410156119dd576040517f08c379a00000000000000000000000000000000000000000000000000000000081526004016119d490612976565b60405180910390fd5b611ac9565b6000600560009054906101000a900473ffffffffffffffffffffffffffffffffffffffff169050818173ffffffffffffffffffffffffffffffffffffffff1663dd62ed3e85306040518363ffffffff1660e01b8152600401611a45929190612996565b602060405180830381865afa158015611a62573d6000803e3d6000fd5b505050506040513d601f19601f82011682018060405250810190611a869190612711565b1015611ac7576040517f08c379a0000000000000000000000000000000000000000000000000000000008152600401611abe90612a0b565b60405180910390fd5b505b5050565b600073ffffffffffffffffffffffffffffffffffffffff16600560009054906101000a900473ffffffffffffffffffffffffffffffffffffffff1673ffffffffffffffffffffffffffffffffffffffff1603611b6b5780341015611b66576040517f08c379a0000000000000000000000000000000000000000000000000000000008152600401611b5d90612a9d565b60405180910390fd5b611c15565b6000600560009054906101000a900473ffffffffffffffffffffffffffffffffffffffff1690508073ffffffffffffffffffffffffffffffffffffffff166323b872dd8585856040518463ffffffff1660e01b8152600401611bcf93929190612abd565b6020604051808303816000875af1158015611bee573d6000803e3d6000fd5b505050506040513d601f19601f82011682018060405250810190611c129190612793565b50505b505050565b600080fd5b60007fffffffff0000000000000000000000000000000000000000000000000000000082169050919050565b611c5481611c1f565b8114611c5f57600080fd5b50565b600081359050611c7181611c4b565b92915050565b600060208284031215611c8d57611c8c611c1a565b5b6000611c9b84828501611c62565b91505092915050565b60008115159050919050565b611cb981611ca4565b82525050565b6000602082019050611cd46000830184611cb0565b92915050565b6000819050919050565b611ced81611cda565b82525050565b6000602082019050611d086000830184611ce4565b92915050565b611d1781611cda565b8114611d2257600080fd5b50565b600081359050611d3481611d0e565b92915050565b600073ffffffffffffffffffffffffffffffffffffffff82169050919050565b6000611d6582611d3a565b9050919050565b611d7581611d5a565b8114611d8057600080fd5b50565b600081359050611d9281611d6c565b92915050565b60008060408385031215611daf57611dae611c1a565b5b6000611dbd85828601611d25565b9250506020611dce85828601611d83565b9150509250929050565b600060208284031215611dee57611ded611c1a565b5b6000611dfc84828501611d25565b91505092915050565b611e0e81611d5a565b82525050565b6000602082019050611e296000830184611e05565b92915050565b600060208284031215611e4557611e44611c1a565b5b6000611e5384828501611d83565b91505092915050565b600080600060608486031215611e7557611e74611c1a565b5b6000611e8386828701611d25565b9350506020611e9486828701611d25565b9250506040611ea586828701611d25565b9150509250925092565b60008060408385031215611ec657611ec5611c1a565b5b6000611ed485828601611d25565b9250506020611ee585828601611d25565b9150509250929050565b60008060408385031215611f0657611f05611c1a565b5b6000611f1485828601611d83565b9250506020611f2585828601611d25565b9150509250929050565b600081519050919050565b600082825260208201905092915050565b60005b83811015611f69578082015181840152602081019050611f4e565b83811115611f78576000848401525b50505050565b6000601f19601f8301169050919050565b6000611f9a82611f2f565b611fa48185611f3a565b9350611fb4818560208601611f4b565b611fbd81611f7e565b840191505092915050565b60006020820190508181036000830152611fe28184611f8f565b905092915050565b7f4f6e6c7920666163746f72792063616e2064657461636820697473656c660000600082015250565b6000612020601e83611f3a565b915061202b82611fea565b602082019050919050565b6000602082019050818103600083015261204f81612013565b9050919050565b7f4f776e65723a2063616c6c6572206973206e6f7420746865206f776e65720000600082015250565b600061208c601e83611f3a565b915061209782612056565b602082019050919050565b600060208201905081810360008301526120bb8161207f565b9050919050565b6000815190506120d181611d0e565b92915050565b6000815190506120e681611d6c565b92915050565b6000806040838503121561210357612102611c1a565b5b6000612111858286016120c2565b9250506020612122858286016120d7565b9150509250929050565b7f506c656173652070726f7669646520656e6f7567682066656500000000000000600082015250565b6000612162601983611f3a565b915061216d8261212c565b602082019050919050565b6000602082019050818103600083015261219181612155565b9050919050565b7f41646472657373207a65726f206973206e6f7420612076616c6964206f776e6560008201527f7200000000000000000000000000000000000000000000000000000000000000602082015250565b60006121f4602183611f3a565b91506121ff82612198565b604082019050919050565b60006020820190508181036000830152612223816121e7565b9050919050565b7f496e76616c6964207461782076616c7565000000000000000000000000000000600082015250565b6000612260601183611f3a565b915061226b8261222a565b602082019050919050565b6000602082019050818103600083015261228f81612253565b9050919050565b7f4d617820313020646563696d616c730000000000000000000000000000000000600082015250565b60006122cc600f83611f3a565b91506122d782612296565b602082019050919050565b600060208201905081810360008301526122fb816122bf565b9050919050565b7f596f7520646f6e2774206f776e2074686973207469636b657400000000000000600082015250565b6000612338601983611f3a565b915061234382612302565b602082019050919050565b600060208201905081810360008301526123678161232b565b9050919050565b7f5072696365206d7573742062652067726561746572207468616e207a65726f00600082015250565b60006123a4601f83611f3a565b91506123af8261236e565b602082019050919050565b600060208201905081810360008301526123d381612397565b9050919050565b7f5472616e736665722063616c6c6572206973206e6f74206f776e657200000000600082015250565b6000612410601c83611f3a565b915061241b826123da565b602082019050919050565b6000602082019050818103600083015261243f81612403565b9050919050565b7f5472616e7366657220746f20746865207a65726f206164647265737300000000600082015250565b600061247c601c83611f3a565b915061248782612446565b602082019050919050565b600060208201905081810360008301526124ab8161246f565b9050919050565b7f4e487b7100000000000000000000000000000000000000000000000000000000600052601160045260246000fd5b60006124ec82611cda565b91506124f783611cda565b92508282101561250a576125096124b2565b5b828203905092915050565b600061252082611cda565b915061252b83611cda565b9250827fffffffffffffffffffffffffffffffffffffffffffffffffffffffffffffffff038211156125605761255f6124b2565b5b828201905092915050565b7f4e487b7100000000000000000000000000000000000000000000000000000000600052602260045260246000fd5b600060028204905060018216806125b257607f821691505b6020821081036125c5576125c461256b565b5b50919050565b7f5469636b6574206e6f7420617661696c61626c65000000000000000000000000600082015250565b6000612601601483611f3a565b915061260c826125cb565b602082019050919050565b60006020820190508181036000830152612630816125f4565b9050919050565b600061264282611cda565b91507fffffffffffffffffffffffffffffffffffffffffffffffffffffffffffffffff8203612674576126736124b2565b5b600182019050919050565b7f4f776e61626c653a206e6577206f776e657220697320746865207a65726f206160008201527f6464726573730000000000000000000000000000000000000000000000000000602082015250565b60006126db602683611f3a565b91506126e68261267f565b604082019050919050565b6000602082019050818103600083015261270a816126ce565b9050919050565b60006020828403121561272757612726611c1a565b5b6000612735848285016120c2565b91505092915050565b60006040820190506127536000830185611e05565b6127606020830184611ce4565b9392505050565b61277081611ca4565b811461277b57600080fd5b50565b60008151905061278d81612767565b92915050565b6000602082840312156127a9576127a8611c1a565b5b60006127b78482850161277e565b91505092915050565b7f526f79616c7479206d757374206265206265747765656e203020616e6420313060008201527f3030000000000000000000000000000000000000000000000000000000000000602082015250565b600061281c602283611f3a565b9150612827826127c0565b604082019050919050565b6000602082019050818103600083015261284b8161280f565b9050919050565b7f5265656e7472616e637947756172643a207265656e7472616e742063616c6c00600082015250565b6000612888601f83611f3a565b915061289382612852565b602082019050919050565b600060208201905081810360008301526128b78161287b565b9050919050565b7f496e76616c69642073656e646572000000000000000000000000000000000000600082015250565b60006128f4600e83611f3a565b91506128ff826128be565b602082019050919050565b60006020820190508181036000830152612923816128e7565b9050919050565b7f496e73756666696369656e7420746f6b656e207375626d697474656400000000600082015250565b6000612960601c83611f3a565b915061296b8261292a565b602082019050919050565b6000602082019050818103600083015261298f81612953565b9050919050565b60006040820190506129ab6000830185611e05565b6129b86020830184611e05565b9392505050565b7f496e73756666696369656e7420616c6c6f77616e63652070726f766964656400600082015250565b60006129f5601f83611f3a565b9150612a00826129bf565b602082019050919050565b60006020820190508181036000830152612a24816129e8565b9050919050565b7f496e73756666696369656e742066756e64732070726f7669646564202876616c60008201527f7565290000000000000000000000000000000000000000000000000000000000602082015250565b6000612a87602383611f3a565b9150612a9282612a2b565b604082019050919050565b60006020820190508181036000830152612ab681612a7a565b9050919050565b6000606082019050612ad26000830186611e05565b612adf6020830185611e05565b612aec6040830184611ce4565b94935050505056fea26469706673582212208165ac10122238fb5a68ce543d34f43a53b71f32f335e8287420b382aba9b42b64736f6c634300080e0033",
					"opcodes": "PUSH1 0x80 PUSH1 0x40 MSTORE PUSH1 0x0 PUSH1 0x3 SSTORE PUSH1 0x0 PUSH1 0x8 SSTORE CALLVALUE DUP1 ISZERO PUSH3 0x1B JUMPI PUSH1 0x0 DUP1 REVERT JUMPDEST POP PUSH1 0x40 MLOAD PUSH3 0x3195 CODESIZE SUB DUP1 PUSH3 0x3195 DUP4 CODECOPY DUP2 DUP2 ADD PUSH1 0x40 MSTORE DUP2 ADD SWAP1 PUSH3 0x41 SWAP2 SWAP1 PUSH3 0x43B JUMP JUMPDEST DUP6 DUP2 DUP4 DUP1 PUSH1 0x0 DUP1 PUSH2 0x100 EXP DUP2 SLOAD DUP2 PUSH20 0xFFFFFFFFFFFFFFFFFFFFFFFFFFFFFFFFFFFFFFFF MUL NOT AND SWAP1 DUP4 PUSH20 0xFFFFFFFFFFFFFFFFFFFFFFFFFFFFFFFFFFFFFFFF AND MUL OR SWAP1 SSTORE POP DUP2 PUSH1 0x1 PUSH1 0x0 PUSH2 0x100 EXP DUP2 SLOAD DUP2 PUSH20 0xFFFFFFFFFFFFFFFFFFFFFFFFFFFFFFFFFFFFFFFF MUL NOT AND SWAP1 DUP4 PUSH20 0xFFFFFFFFFFFFFFFFFFFFFFFFFFFFFFFFFFFFFFFF AND MUL OR SWAP1 SSTORE POP POP POP PUSH1 0x1 PUSH1 0x4 DUP2 SWAP1 SSTORE POP DUP1 PUSH1 0x5 PUSH1 0x0 PUSH2 0x100 EXP DUP2 SLOAD DUP2 PUSH20 0xFFFFFFFFFFFFFFFFFFFFFFFFFFFFFFFFFFFFFFFF MUL NOT AND SWAP1 DUP4 PUSH20 0xFFFFFFFFFFFFFFFFFFFFFFFFFFFFFFFFFFFFFFFF AND MUL OR SWAP1 SSTORE POP POP DUP4 PUSH1 0x40 MLOAD PUSH1 0x20 ADD PUSH3 0x124 SWAP2 SWAP1 PUSH3 0x5D1 JUMP JUMPDEST PUSH1 0x40 MLOAD PUSH1 0x20 DUP2 DUP4 SUB SUB DUP2 MSTORE SWAP1 PUSH1 0x40 MSTORE PUSH1 0xE SWAP1 DUP1 MLOAD SWAP1 PUSH1 0x20 ADD SWAP1 PUSH3 0x14A SWAP3 SWAP2 SWAP1 PUSH3 0x189 JUMP JUMPDEST POP DUP5 PUSH1 0xD SWAP1 DUP1 MLOAD SWAP1 PUSH1 0x20 ADD SWAP1 PUSH3 0x163 SWAP3 SWAP2 SWAP1 PUSH3 0x189 JUMP JUMPDEST POP DUP3 PUSH1 0xF SWAP1 DUP1 MLOAD SWAP1 PUSH1 0x20 ADD SWAP1 PUSH3 0x17C SWAP3 SWAP2 SWAP1 PUSH3 0x189 JUMP JUMPDEST POP POP POP POP POP POP POP PUSH3 0x65B JUMP JUMPDEST DUP3 DUP1 SLOAD PUSH3 0x197 SWAP1 PUSH3 0x626 JUMP JUMPDEST SWAP1 PUSH1 0x0 MSTORE PUSH1 0x20 PUSH1 0x0 KECCAK256 SWAP1 PUSH1 0x1F ADD PUSH1 0x20 SWAP1 DIV DUP2 ADD SWAP3 DUP3 PUSH3 0x1BB JUMPI PUSH1 0x0 DUP6 SSTORE PUSH3 0x207 JUMP JUMPDEST DUP3 PUSH1 0x1F LT PUSH3 0x1D6 JUMPI DUP1 MLOAD PUSH1 0xFF NOT AND DUP4 DUP1 ADD OR DUP6 SSTORE PUSH3 0x207 JUMP JUMPDEST DUP3 DUP1 ADD PUSH1 0x1 ADD DUP6 SSTORE DUP3 ISZERO PUSH3 0x207 JUMPI SWAP2 DUP3 ADD JUMPDEST DUP3 DUP2 GT ISZERO PUSH3 0x206 JUMPI DUP3 MLOAD DUP3 SSTORE SWAP2 PUSH1 0x20 ADD SWAP2 SWAP1 PUSH1 0x1 ADD SWAP1 PUSH3 0x1E9 JUMP JUMPDEST JUMPDEST POP SWAP1 POP PUSH3 0x216 SWAP2 SWAP1 PUSH3 0x21A JUMP JUMPDEST POP SWAP1 JUMP JUMPDEST JUMPDEST DUP1 DUP3 GT ISZERO PUSH3 0x235 JUMPI PUSH1 0x0 DUP2 PUSH1 0x0 SWAP1 SSTORE POP PUSH1 0x1 ADD PUSH3 0x21B JUMP JUMPDEST POP SWAP1 JUMP JUMPDEST PUSH1 0x0 PUSH1 0x40 MLOAD SWAP1 POP SWAP1 JUMP JUMPDEST PUSH1 0x0 DUP1 REVERT JUMPDEST PUSH1 0x0 DUP1 REVERT JUMPDEST PUSH1 0x0 PUSH20 0xFFFFFFFFFFFFFFFFFFFFFFFFFFFFFFFFFFFFFFFF DUP3 AND SWAP1 POP SWAP2 SWAP1 POP JUMP JUMPDEST PUSH1 0x0 PUSH3 0x27A DUP3 PUSH3 0x24D JUMP JUMPDEST SWAP1 POP SWAP2 SWAP1 POP JUMP JUMPDEST PUSH3 0x28C DUP2 PUSH3 0x26D JUMP JUMPDEST DUP2 EQ PUSH3 0x298 JUMPI PUSH1 0x0 DUP1 REVERT JUMPDEST POP JUMP JUMPDEST PUSH1 0x0 DUP2 MLOAD SWAP1 POP PUSH3 0x2AC DUP2 PUSH3 0x281 JUMP JUMPDEST SWAP3 SWAP2 POP POP JUMP JUMPDEST PUSH1 0x0 DUP1 REVERT JUMPDEST PUSH1 0x0 DUP1 REVERT JUMPDEST PUSH1 0x0 PUSH1 0x1F NOT PUSH1 0x1F DUP4 ADD AND SWAP1 POP SWAP2 SWAP1 POP JUMP JUMPDEST PUSH32 0x4E487B7100000000000000000000000000000000000000000000000000000000 PUSH1 0x0 MSTORE PUSH1 0x41 PUSH1 0x4 MSTORE PUSH1 0x24 PUSH1 0x0 REVERT JUMPDEST PUSH3 0x307 DUP3 PUSH3 0x2BC JUMP JUMPDEST DUP2 ADD DUP2 DUP2 LT PUSH8 0xFFFFFFFFFFFFFFFF DUP3 GT OR ISZERO PUSH3 0x329 JUMPI PUSH3 0x328 PUSH3 0x2CD JUMP JUMPDEST JUMPDEST DUP1 PUSH1 0x40 MSTORE POP POP POP JUMP JUMPDEST PUSH1 0x0 PUSH3 0x33E PUSH3 0x239 JUMP JUMPDEST SWAP1 POP PUSH3 0x34C DUP3 DUP3 PUSH3 0x2FC JUMP JUMPDEST SWAP2 SWAP1 POP JUMP JUMPDEST PUSH1 0x0 PUSH8 0xFFFFFFFFFFFFFFFF DUP3 GT ISZERO PUSH3 0x36F JUMPI PUSH3 0x36E PUSH3 0x2CD JUMP JUMPDEST JUMPDEST PUSH3 0x37A DUP3 PUSH3 0x2BC JUMP JUMPDEST SWAP1 POP PUSH1 0x20 DUP2 ADD SWAP1 POP SWAP2 SWAP1 POP JUMP JUMPDEST PUSH1 0x0 JUMPDEST DUP4 DUP2 LT ISZERO PUSH3 0x3A7 JUMPI DUP1 DUP3 ADD MLOAD DUP2 DUP5 ADD MSTORE PUSH1 0x20 DUP2 ADD SWAP1 POP PUSH3 0x38A JUMP JUMPDEST DUP4 DUP2 GT ISZERO PUSH3 0x3B7 JUMPI PUSH1 0x0 DUP5 DUP5 ADD MSTORE JUMPDEST POP POP POP POP JUMP JUMPDEST PUSH1 0x0 PUSH3 0x3D4 PUSH3 0x3CE DUP5 PUSH3 0x351 JUMP JUMPDEST PUSH3 0x332 JUMP JUMPDEST SWAP1 POP DUP3 DUP2 MSTORE PUSH1 0x20 DUP2 ADD DUP5 DUP5 DUP5 ADD GT ISZERO PUSH3 0x3F3 JUMPI PUSH3 0x3F2 PUSH3 0x2B7 JUMP JUMPDEST JUMPDEST PUSH3 0x400 DUP5 DUP3 DUP6 PUSH3 0x387 JUMP JUMPDEST POP SWAP4 SWAP3 POP POP POP JUMP JUMPDEST PUSH1 0x0 DUP3 PUSH1 0x1F DUP4 ADD SLT PUSH3 0x420 JUMPI PUSH3 0x41F PUSH3 0x2B2 JUMP JUMPDEST JUMPDEST DUP2 MLOAD PUSH3 0x432 DUP5 DUP3 PUSH1 0x20 DUP7 ADD PUSH3 0x3BD JUMP JUMPDEST SWAP2 POP POP SWAP3 SWAP2 POP POP JUMP JUMPDEST PUSH1 0x0 DUP1 PUSH1 0x0 DUP1 PUSH1 0x0 DUP1 PUSH1 0xC0 DUP8 DUP10 SUB SLT ISZERO PUSH3 0x45B JUMPI PUSH3 0x45A PUSH3 0x243 JUMP JUMPDEST JUMPDEST PUSH1 0x0 PUSH3 0x46B DUP10 DUP3 DUP11 ADD PUSH3 0x29B JUMP JUMPDEST SWAP7 POP POP PUSH1 0x20 DUP8 ADD MLOAD PUSH8 0xFFFFFFFFFFFFFFFF DUP2 GT ISZERO PUSH3 0x48F JUMPI PUSH3 0x48E PUSH3 0x248 JUMP JUMPDEST JUMPDEST PUSH3 0x49D DUP10 DUP3 DUP11 ADD PUSH3 0x408 JUMP JUMPDEST SWAP6 POP POP PUSH1 0x40 DUP8 ADD MLOAD PUSH8 0xFFFFFFFFFFFFFFFF DUP2 GT ISZERO PUSH3 0x4C1 JUMPI PUSH3 0x4C0 PUSH3 0x248 JUMP JUMPDEST JUMPDEST PUSH3 0x4CF DUP10 DUP3 DUP11 ADD PUSH3 0x408 JUMP JUMPDEST SWAP5 POP POP PUSH1 0x60 DUP8 ADD MLOAD PUSH8 0xFFFFFFFFFFFFFFFF DUP2 GT ISZERO PUSH3 0x4F3 JUMPI PUSH3 0x4F2 PUSH3 0x248 JUMP JUMPDEST JUMPDEST PUSH3 0x501 DUP10 DUP3 DUP11 ADD PUSH3 0x408 JUMP JUMPDEST SWAP4 POP POP PUSH1 0x80 PUSH3 0x514 DUP10 DUP3 DUP11 ADD PUSH3 0x29B JUMP JUMPDEST SWAP3 POP POP PUSH1 0xA0 PUSH3 0x527 DUP10 DUP3 DUP11 ADD PUSH3 0x29B JUMP JUMPDEST SWAP2 POP POP SWAP3 SWAP6 POP SWAP3 SWAP6 POP SWAP3 SWAP6 JUMP JUMPDEST PUSH1 0x0 DUP2 SWAP1 POP SWAP3 SWAP2 POP POP JUMP JUMPDEST PUSH32 0x2520000000000000000000000000000000000000000000000000000000000000 PUSH1 0x0 DUP3 ADD MSTORE POP JUMP JUMPDEST PUSH1 0x0 PUSH3 0x577 PUSH1 0x2 DUP4 PUSH3 0x534 JUMP JUMPDEST SWAP2 POP PUSH3 0x584 DUP3 PUSH3 0x53F JUMP JUMPDEST PUSH1 0x2 DUP3 ADD SWAP1 POP SWAP2 SWAP1 POP JUMP JUMPDEST PUSH1 0x0 DUP2 MLOAD SWAP1 POP SWAP2 SWAP1 POP JUMP JUMPDEST PUSH1 0x0 PUSH3 0x5A7 DUP3 PUSH3 0x58F JUMP JUMPDEST PUSH3 0x5B3 DUP2 DUP6 PUSH3 0x534 JUMP JUMPDEST SWAP4 POP PUSH3 0x5C5 DUP2 DUP6 PUSH1 0x20 DUP7 ADD PUSH3 0x387 JUMP JUMPDEST DUP1 DUP5 ADD SWAP2 POP POP SWAP3 SWAP2 POP POP JUMP JUMPDEST PUSH1 0x0 PUSH3 0x5DE DUP3 PUSH3 0x568 JUMP JUMPDEST SWAP2 POP PUSH3 0x5EC DUP3 DUP5 PUSH3 0x59A JUMP JUMPDEST SWAP2 POP DUP2 SWAP1 POP SWAP3 SWAP2 POP POP JUMP JUMPDEST PUSH32 0x4E487B7100000000000000000000000000000000000000000000000000000000 PUSH1 0x0 MSTORE PUSH1 0x22 PUSH1 0x4 MSTORE PUSH1 0x24 PUSH1 0x0 REVERT JUMPDEST PUSH1 0x0 PUSH1 0x2 DUP3 DIV SWAP1 POP PUSH1 0x1 DUP3 AND DUP1 PUSH3 0x63F JUMPI PUSH1 0x7F DUP3 AND SWAP2 POP JUMPDEST PUSH1 0x20 DUP3 LT DUP2 SUB PUSH3 0x655 JUMPI PUSH3 0x654 PUSH3 0x5F7 JUMP JUMPDEST JUMPDEST POP SWAP2 SWAP1 POP JUMP JUMPDEST PUSH2 0x2B2A DUP1 PUSH3 0x66B PUSH1 0x0 CODECOPY PUSH1 0x0 RETURN INVALID PUSH1 0x80 PUSH1 0x40 MSTORE PUSH1 0x4 CALLDATASIZE LT PUSH2 0x114 JUMPI PUSH1 0x0 CALLDATALOAD PUSH1 0xE0 SHR DUP1 PUSH4 0x8546D002 GT PUSH2 0xA0 JUMPI DUP1 PUSH4 0xA9059CBB GT PUSH2 0x64 JUMPI DUP1 PUSH4 0xA9059CBB EQ PUSH2 0x373 JUMPI DUP1 PUSH4 0xB9186D7D EQ PUSH2 0x38F JUMPI DUP1 PUSH4 0xC87B56DD EQ PUSH2 0x3CC JUMPI DUP1 PUSH4 0xEFEF39A1 EQ PUSH2 0x409 JUMPI DUP1 PUSH4 0xF2FDE38B EQ PUSH2 0x425 JUMPI PUSH2 0x114 JUMP JUMPDEST DUP1 PUSH4 0x8546D002 EQ PUSH2 0x299 JUMPI DUP1 PUSH4 0x879F9C96 EQ PUSH2 0x2D6 JUMPI DUP1 PUSH4 0x8DA5CB5B EQ PUSH2 0x301 JUMPI DUP1 PUSH4 0xA035B1FE EQ PUSH2 0x32C JUMPI DUP1 PUSH4 0xA1920586 EQ PUSH2 0x357 JUMPI PUSH2 0x114 JUMP JUMPDEST DUP1 PUSH4 0x4D47732A GT PUSH2 0xE7 JUMPI DUP1 PUSH4 0x4D47732A EQ PUSH2 0x1AF JUMPI DUP1 PUSH4 0x5DE42985 EQ PUSH2 0x1DA JUMPI DUP1 PUSH4 0x6352211E EQ PUSH2 0x1F6 JUMPI DUP1 PUSH4 0x70A08231 EQ PUSH2 0x233 JUMPI DUP1 PUSH4 0x80D85911 EQ PUSH2 0x270 JUMPI PUSH2 0x114 JUMP JUMPDEST DUP1 PUSH4 0x1FFC9A7 EQ PUSH2 0x119 JUMPI DUP1 PUSH4 0x18160DDD EQ PUSH2 0x156 JUMPI DUP1 PUSH4 0x225435C0 EQ PUSH2 0x181 JUMPI DUP1 PUSH4 0x3CCFD60B EQ PUSH2 0x198 JUMPI JUMPDEST PUSH1 0x0 DUP1 REVERT JUMPDEST CALLVALUE DUP1 ISZERO PUSH2 0x125 JUMPI PUSH1 0x0 DUP1 REVERT JUMPDEST POP PUSH2 0x140 PUSH1 0x4 DUP1 CALLDATASIZE SUB DUP2 ADD SWAP1 PUSH2 0x13B SWAP2 SWAP1 PUSH2 0x1C77 JUMP JUMPDEST PUSH2 0x44E JUMP JUMPDEST PUSH1 0x40 MLOAD PUSH2 0x14D SWAP2 SWAP1 PUSH2 0x1CBF JUMP JUMPDEST PUSH1 0x40 MLOAD DUP1 SWAP2 SUB SWAP1 RETURN JUMPDEST CALLVALUE DUP1 ISZERO PUSH2 0x162 JUMPI PUSH1 0x0 DUP1 REVERT JUMPDEST POP PUSH2 0x16B PUSH2 0x455 JUMP JUMPDEST PUSH1 0x40 MLOAD PUSH2 0x178 SWAP2 SWAP1 PUSH2 0x1CF3 JUMP JUMPDEST PUSH1 0x40 MLOAD DUP1 SWAP2 SUB SWAP1 RETURN JUMPDEST CALLVALUE DUP1 ISZERO PUSH2 0x18D JUMPI PUSH1 0x0 DUP1 REVERT JUMPDEST POP PUSH2 0x196 PUSH2 0x45B JUMP JUMPDEST STOP JUMPDEST CALLVALUE DUP1 ISZERO PUSH2 0x1A4 JUMPI PUSH1 0x0 DUP1 REVERT JUMPDEST POP PUSH2 0x1AD PUSH2 0x533 JUMP JUMPDEST STOP JUMPDEST CALLVALUE DUP1 ISZERO PUSH2 0x1BB JUMPI PUSH1 0x0 DUP1 REVERT JUMPDEST POP PUSH2 0x1C4 PUSH2 0x600 JUMP JUMPDEST PUSH1 0x40 MLOAD PUSH2 0x1D1 SWAP2 SWAP1 PUSH2 0x1CF3 JUMP JUMPDEST PUSH1 0x40 MLOAD DUP1 SWAP2 SUB SWAP1 RETURN JUMPDEST PUSH2 0x1F4 PUSH1 0x4 DUP1 CALLDATASIZE SUB DUP2 ADD SWAP1 PUSH2 0x1EF SWAP2 SWAP1 PUSH2 0x1D98 JUMP JUMPDEST PUSH2 0x60A JUMP JUMPDEST STOP JUMPDEST CALLVALUE DUP1 ISZERO PUSH2 0x202 JUMPI PUSH1 0x0 DUP1 REVERT JUMPDEST POP PUSH2 0x21D PUSH1 0x4 DUP1 CALLDATASIZE SUB DUP2 ADD SWAP1 PUSH2 0x218 SWAP2 SWAP1 PUSH2 0x1DD8 JUMP JUMPDEST PUSH2 0x82A JUMP JUMPDEST PUSH1 0x40 MLOAD PUSH2 0x22A SWAP2 SWAP1 PUSH2 0x1E14 JUMP JUMPDEST PUSH1 0x40 MLOAD DUP1 SWAP2 SUB SWAP1 RETURN JUMPDEST CALLVALUE DUP1 ISZERO PUSH2 0x23F JUMPI PUSH1 0x0 DUP1 REVERT JUMPDEST POP PUSH2 0x25A PUSH1 0x4 DUP1 CALLDATASIZE SUB DUP2 ADD SWAP1 PUSH2 0x255 SWAP2 SWAP1 PUSH2 0x1E2F JUMP JUMPDEST PUSH2 0x867 JUMP JUMPDEST PUSH1 0x40 MLOAD PUSH2 0x267 SWAP2 SWAP1 PUSH2 0x1CF3 JUMP JUMPDEST PUSH1 0x40 MLOAD DUP1 SWAP2 SUB SWAP1 RETURN JUMPDEST CALLVALUE DUP1 ISZERO PUSH2 0x27C JUMPI PUSH1 0x0 DUP1 REVERT JUMPDEST POP PUSH2 0x297 PUSH1 0x4 DUP1 CALLDATASIZE SUB DUP2 ADD SWAP1 PUSH2 0x292 SWAP2 SWAP1 PUSH2 0x1E5C JUMP JUMPDEST PUSH2 0x91E JUMP JUMPDEST STOP JUMPDEST CALLVALUE DUP1 ISZERO PUSH2 0x2A5 JUMPI PUSH1 0x0 DUP1 REVERT JUMPDEST POP PUSH2 0x2C0 PUSH1 0x4 DUP1 CALLDATASIZE SUB DUP2 ADD SWAP1 PUSH2 0x2BB SWAP2 SWAP1 PUSH2 0x1DD8 JUMP JUMPDEST PUSH2 0xA91 JUMP JUMPDEST PUSH1 0x40 MLOAD PUSH2 0x2CD SWAP2 SWAP1 PUSH2 0x1CBF JUMP JUMPDEST PUSH1 0x40 MLOAD DUP1 SWAP2 SUB SWAP1 RETURN JUMPDEST CALLVALUE DUP1 ISZERO PUSH2 0x2E2 JUMPI PUSH1 0x0 DUP1 REVERT JUMPDEST POP PUSH2 0x2EB PUSH2 0xAFD JUMP JUMPDEST PUSH1 0x40 MLOAD PUSH2 0x2F8 SWAP2 SWAP1 PUSH2 0x1CF3 JUMP JUMPDEST PUSH1 0x40 MLOAD DUP1 SWAP2 SUB SWAP1 RETURN JUMPDEST CALLVALUE DUP1 ISZERO PUSH2 0x30D JUMPI PUSH1 0x0 DUP1 REVERT JUMPDEST POP PUSH2 0x316 PUSH2 0xB03 JUMP JUMPDEST PUSH1 0x40 MLOAD PUSH2 0x323 SWAP2 SWAP1 PUSH2 0x1E14 JUMP JUMPDEST PUSH1 0x40 MLOAD DUP1 SWAP2 SUB SWAP1 RETURN JUMPDEST CALLVALUE DUP1 ISZERO PUSH2 0x338 JUMPI PUSH1 0x0 DUP1 REVERT JUMPDEST POP PUSH2 0x341 PUSH2 0xB2D JUMP JUMPDEST PUSH1 0x40 MLOAD PUSH2 0x34E SWAP2 SWAP1 PUSH2 0x1CF3 JUMP JUMPDEST PUSH1 0x40 MLOAD DUP1 SWAP2 SUB SWAP1 RETURN JUMPDEST PUSH2 0x371 PUSH1 0x4 DUP1 CALLDATASIZE SUB DUP2 ADD SWAP1 PUSH2 0x36C SWAP2 SWAP1 PUSH2 0x1EAF JUMP JUMPDEST PUSH2 0xB33 JUMP JUMPDEST STOP JUMPDEST PUSH2 0x38D PUSH1 0x4 DUP1 CALLDATASIZE SUB DUP2 ADD SWAP1 PUSH2 0x388 SWAP2 SWAP1 PUSH2 0x1EEF JUMP JUMPDEST PUSH2 0xDDE JUMP JUMPDEST STOP JUMPDEST CALLVALUE DUP1 ISZERO PUSH2 0x39B JUMPI PUSH1 0x0 DUP1 REVERT JUMPDEST POP PUSH2 0x3B6 PUSH1 0x4 DUP1 CALLDATASIZE SUB DUP2 ADD SWAP1 PUSH2 0x3B1 SWAP2 SWAP1 PUSH2 0x1DD8 JUMP JUMPDEST PUSH2 0x11B2 JUMP JUMPDEST PUSH1 0x40 MLOAD PUSH2 0x3C3 SWAP2 SWAP1 PUSH2 0x1CF3 JUMP JUMPDEST PUSH1 0x40 MLOAD DUP1 SWAP2 SUB SWAP1 RETURN JUMPDEST CALLVALUE DUP1 ISZERO PUSH2 0x3D8 JUMPI PUSH1 0x0 DUP1 REVERT JUMPDEST POP PUSH2 0x3F3 PUSH1 0x4 DUP1 CALLDATASIZE SUB DUP2 ADD SWAP1 PUSH2 0x3EE SWAP2 SWAP1 PUSH2 0x1DD8 JUMP JUMPDEST PUSH2 0x11CF JUMP JUMPDEST PUSH1 0x40 MLOAD PUSH2 0x400 SWAP2 SWAP1 PUSH2 0x1FC8 JUMP JUMPDEST PUSH1 0x40 MLOAD DUP1 SWAP2 SUB SWAP1 RETURN JUMPDEST PUSH2 0x423 PUSH1 0x4 DUP1 CALLDATASIZE SUB DUP2 ADD SWAP1 PUSH2 0x41E SWAP2 SWAP1 PUSH2 0x1DD8 JUMP JUMPDEST PUSH2 0x1263 JUMP JUMPDEST STOP JUMPDEST CALLVALUE DUP1 ISZERO PUSH2 0x431 JUMPI PUSH1 0x0 DUP1 REVERT JUMPDEST POP PUSH2 0x44C PUSH1 0x4 DUP1 CALLDATASIZE SUB DUP2 ADD SWAP1 PUSH2 0x447 SWAP2 SWAP1 PUSH2 0x1E2F JUMP JUMPDEST PUSH2 0x141E JUMP JUMPDEST STOP JUMPDEST PUSH1 0x0 SWAP2 SWAP1 POP JUMP JUMPDEST PUSH1 0x7 SLOAD DUP2 JUMP JUMPDEST PUSH2 0x463 PUSH2 0x1568 JUMP JUMPDEST PUSH20 0xFFFFFFFFFFFFFFFFFFFFFFFFFFFFFFFFFFFFFFFF AND PUSH1 0x0 DUP1 SLOAD SWAP1 PUSH2 0x100 EXP SWAP1 DIV PUSH20 0xFFFFFFFFFFFFFFFFFFFFFFFFFFFFFFFFFFFFFFFF AND PUSH20 0xFFFFFFFFFFFFFFFFFFFFFFFFFFFFFFFFFFFFFFFF AND EQ PUSH2 0x4F0 JUMPI PUSH1 0x40 MLOAD PUSH32 0x8C379A000000000000000000000000000000000000000000000000000000000 DUP2 MSTORE PUSH1 0x4 ADD PUSH2 0x4E7 SWAP1 PUSH2 0x2036 JUMP JUMPDEST PUSH1 0x40 MLOAD DUP1 SWAP2 SUB SWAP1 REVERT JUMPDEST PUSH1 0x0 DUP1 PUSH1 0x0 PUSH2 0x100 EXP DUP2 SLOAD DUP2 PUSH20 0xFFFFFFFFFFFFFFFFFFFFFFFFFFFFFFFFFFFFFFFF MUL NOT AND SWAP1 DUP4 PUSH20 0xFFFFFFFFFFFFFFFFFFFFFFFFFFFFFFFFFFFFFFFF AND MUL OR SWAP1 SSTORE POP JUMP JUMPDEST PUSH2 0x53B PUSH2 0x1568 JUMP JUMPDEST PUSH20 0xFFFFFFFFFFFFFFFFFFFFFFFFFFFFFFFFFFFFFFFF AND PUSH1 0x1 PUSH1 0x0 SWAP1 SLOAD SWAP1 PUSH2 0x100 EXP SWAP1 DIV PUSH20 0xFFFFFFFFFFFFFFFFFFFFFFFFFFFFFFFFFFFFFFFF AND PUSH20 0xFFFFFFFFFFFFFFFFFFFFFFFFFFFFFFFFFFFFFFFF AND EQ PUSH2 0x5CA JUMPI PUSH1 0x40 MLOAD PUSH32 0x8C379A000000000000000000000000000000000000000000000000000000000 DUP2 MSTORE PUSH1 0x4 ADD PUSH2 0x5C1 SWAP1 PUSH2 0x20A2 JUMP JUMPDEST PUSH1 0x40 MLOAD DUP1 SWAP2 SUB SWAP1 REVERT JUMPDEST PUSH2 0x5FE PUSH1 0x1 PUSH1 0x0 SWAP1 SLOAD SWAP1 PUSH2 0x100 EXP SWAP1 DIV PUSH20 0xFFFFFFFFFFFFFFFFFFFFFFFFFFFFFFFFFFFFFFFF AND PUSH2 0x5F9 ADDRESS PUSH2 0x1570 JUMP JUMPDEST PUSH2 0x1690 JUMP JUMPDEST JUMP JUMPDEST PUSH1 0x0 PUSH1 0x3 SLOAD SWAP1 POP SWAP1 JUMP JUMPDEST PUSH1 0x0 PUSH20 0xFFFFFFFFFFFFFFFFFFFFFFFFFFFFFFFFFFFFFFFF AND PUSH1 0x0 DUP1 SLOAD SWAP1 PUSH2 0x100 EXP SWAP1 DIV PUSH20 0xFFFFFFFFFFFFFFFFFFFFFFFFFFFFFFFFFFFFFFFF AND PUSH20 0xFFFFFFFFFFFFFFFFFFFFFFFFFFFFFFFFFFFFFFFF AND SUB ISZERO PUSH2 0x826 JUMPI PUSH1 0x0 DUP1 PUSH1 0x0 DUP1 SLOAD SWAP1 PUSH2 0x100 EXP SWAP1 DIV PUSH20 0xFFFFFFFFFFFFFFFFFFFFFFFFFFFFFFFFFFFFFFFF AND PUSH20 0xFFFFFFFFFFFFFFFFFFFFFFFFFFFFFFFFFFFFFFFF AND PUSH4 0xCED72F87 PUSH1 0x40 MLOAD DUP2 PUSH4 0xFFFFFFFF AND PUSH1 0xE0 SHL DUP2 MSTORE PUSH1 0x4 ADD PUSH1 0x40 DUP1 MLOAD DUP1 DUP4 SUB DUP2 DUP7 GAS STATICCALL ISZERO DUP1 ISZERO PUSH2 0x6CC JUMPI RETURNDATASIZE PUSH1 0x0 DUP1 RETURNDATACOPY RETURNDATASIZE PUSH1 0x0 REVERT JUMPDEST POP POP POP POP PUSH1 0x40 MLOAD RETURNDATASIZE PUSH1 0x1F NOT PUSH1 0x1F DUP3 ADD AND DUP3 ADD DUP1 PUSH1 0x40 MSTORE POP DUP2 ADD SWAP1 PUSH2 0x6F0 SWAP2 SWAP1 PUSH2 0x20EC JUMP JUMPDEST DUP1 SWAP4 POP DUP2 SWAP3 POP POP POP DUP1 CALLVALUE LT ISZERO PUSH2 0x73B JUMPI PUSH1 0x40 MLOAD PUSH32 0x8C379A000000000000000000000000000000000000000000000000000000000 DUP2 MSTORE PUSH1 0x4 ADD PUSH2 0x732 SWAP1 PUSH2 0x2178 JUMP JUMPDEST PUSH1 0x40 MLOAD DUP1 SWAP2 SUB SWAP1 REVERT JUMPDEST DUP2 PUSH20 0xFFFFFFFFFFFFFFFFFFFFFFFFFFFFFFFFFFFFFFFF AND PUSH2 0x8FC DUP3 SWAP1 DUP2 ISZERO MUL SWAP1 PUSH1 0x40 MLOAD PUSH1 0x0 PUSH1 0x40 MLOAD DUP1 DUP4 SUB DUP2 DUP6 DUP9 DUP9 CALL SWAP4 POP POP POP POP ISZERO DUP1 ISZERO PUSH2 0x781 JUMPI RETURNDATASIZE PUSH1 0x0 DUP1 RETURNDATACOPY RETURNDATASIZE PUSH1 0x0 REVERT JUMPDEST POP PUSH2 0x78A PUSH2 0x1568 JUMP JUMPDEST PUSH20 0xFFFFFFFFFFFFFFFFFFFFFFFFFFFFFFFFFFFFFFFF AND PUSH1 0x1 PUSH1 0x0 SWAP1 SLOAD SWAP1 PUSH2 0x100 EXP SWAP1 DIV PUSH20 0xFFFFFFFFFFFFFFFFFFFFFFFFFFFFFFFFFFFFFFFF AND PUSH20 0xFFFFFFFFFFFFFFFFFFFFFFFFFFFFFFFFFFFFFFFF AND EQ PUSH2 0x819 JUMPI PUSH1 0x40 MLOAD PUSH32 0x8C379A000000000000000000000000000000000000000000000000000000000 DUP2 MSTORE PUSH1 0x4 ADD PUSH2 0x810 SWAP1 PUSH2 0x20A2 JUMP JUMPDEST PUSH1 0x40 MLOAD DUP1 SWAP2 SUB SWAP1 REVERT JUMPDEST PUSH2 0x823 DUP5 DUP5 PUSH2 0x17DE JUMP JUMPDEST POP POP JUMPDEST POP POP JUMP JUMPDEST PUSH1 0x0 PUSH1 0x9 PUSH1 0x0 DUP4 DUP2 MSTORE PUSH1 0x20 ADD SWAP1 DUP2 MSTORE PUSH1 0x20 ADD PUSH1 0x0 KECCAK256 PUSH1 0x0 SWAP1 SLOAD SWAP1 PUSH2 0x100 EXP SWAP1 DIV PUSH20 0xFFFFFFFFFFFFFFFFFFFFFFFFFFFFFFFFFFFFFFFF AND SWAP1 POP SWAP2 SWAP1 POP JUMP JUMPDEST PUSH1 0x0 DUP1 PUSH20 0xFFFFFFFFFFFFFFFFFFFFFFFFFFFFFFFFFFFFFFFF AND DUP3 PUSH20 0xFFFFFFFFFFFFFFFFFFFFFFFFFFFFFFFFFFFFFFFF AND SUB PUSH2 0x8D7 JUMPI PUSH1 0x40 MLOAD PUSH32 0x8C379A000000000000000000000000000000000000000000000000000000000 DUP2 MSTORE PUSH1 0x4 ADD PUSH2 0x8CE SWAP1 PUSH2 0x220A JUMP JUMPDEST PUSH1 0x40 MLOAD DUP1 SWAP2 SUB SWAP1 REVERT JUMPDEST PUSH1 0xA PUSH1 0x0 DUP4 PUSH20 0xFFFFFFFFFFFFFFFFFFFFFFFFFFFFFFFFFFFFFFFF AND PUSH20 0xFFFFFFFFFFFFFFFFFFFFFFFFFFFFFFFFFFFFFFFF AND DUP2 MSTORE PUSH1 0x20 ADD SWAP1 DUP2 MSTORE PUSH1 0x20 ADD PUSH1 0x0 KECCAK256 SLOAD SWAP1 POP SWAP2 SWAP1 POP JUMP JUMPDEST PUSH2 0x926 PUSH2 0x1568 JUMP JUMPDEST PUSH20 0xFFFFFFFFFFFFFFFFFFFFFFFFFFFFFFFFFFFFFFFF AND PUSH1 0x1 PUSH1 0x0 SWAP1 SLOAD SWAP1 PUSH2 0x100 EXP SWAP1 DIV PUSH20 0xFFFFFFFFFFFFFFFFFFFFFFFFFFFFFFFFFFFFFFFF AND PUSH20 0xFFFFFFFFFFFFFFFFFFFFFFFFFFFFFFFFFFFFFFFF AND EQ PUSH2 0x9B5 JUMPI PUSH1 0x40 MLOAD PUSH32 0x8C379A000000000000000000000000000000000000000000000000000000000 DUP2 MSTORE PUSH1 0x4 ADD PUSH2 0x9AC SWAP1 PUSH2 0x20A2 JUMP JUMPDEST PUSH1 0x40 MLOAD DUP1 SWAP2 SUB SWAP1 REVERT JUMPDEST PUSH2 0x9BD PUSH2 0x187C JUMP JUMPDEST PUSH1 0x0 DUP4 LT ISZERO DUP1 ISZERO PUSH2 0x9D0 JUMPI POP PUSH2 0x3E8 DUP4 GT ISZERO JUMPDEST PUSH2 0xA0F JUMPI PUSH1 0x40 MLOAD PUSH32 0x8C379A000000000000000000000000000000000000000000000000000000000 DUP2 MSTORE PUSH1 0x4 ADD PUSH2 0xA06 SWAP1 PUSH2 0x2276 JUMP JUMPDEST PUSH1 0x40 MLOAD DUP1 SWAP2 SUB SWAP1 REVERT JUMPDEST PUSH1 0x0 PUSH1 0x7 SLOAD LT ISZERO DUP1 ISZERO PUSH2 0xA26 JUMPI POP PUSH2 0x2710 PUSH1 0x7 SLOAD GT ISZERO JUMPDEST PUSH2 0xA65 JUMPI PUSH1 0x40 MLOAD PUSH32 0x8C379A000000000000000000000000000000000000000000000000000000000 DUP2 MSTORE PUSH1 0x4 ADD PUSH2 0xA5C SWAP1 PUSH2 0x22E2 JUMP JUMPDEST PUSH1 0x40 MLOAD DUP1 SWAP2 SUB SWAP1 REVERT JUMPDEST DUP2 PUSH1 0x7 DUP2 SWAP1 SSTORE POP DUP1 PUSH1 0x6 DUP2 SWAP1 SSTORE POP PUSH2 0xA84 DUP4 PUSH2 0xA7F PUSH2 0xB03 JUMP JUMPDEST PUSH2 0x17DE JUMP JUMPDEST PUSH2 0xA8C PUSH2 0x18CB JUMP JUMPDEST POP POP POP JUMP JUMPDEST PUSH1 0x0 DUP1 PUSH20 0xFFFFFFFFFFFFFFFFFFFFFFFFFFFFFFFFFFFFFFFF AND PUSH1 0xB PUSH1 0x0 DUP5 DUP2 MSTORE PUSH1 0x20 ADD SWAP1 DUP2 MSTORE PUSH1 0x20 ADD PUSH1 0x0 KECCAK256 PUSH1 0x0 SWAP1 SLOAD SWAP1 PUSH2 0x100 EXP SWAP1 DIV PUSH20 0xFFFFFFFFFFFFFFFFFFFFFFFFFFFFFFFFFFFFFFFF AND PUSH20 0xFFFFFFFFFFFFFFFFFFFFFFFFFFFFFFFFFFFFFFFF AND EQ ISZERO SWAP1 POP SWAP2 SWAP1 POP JUMP JUMPDEST PUSH1 0x8 SLOAD DUP2 JUMP JUMPDEST PUSH1 0x0 PUSH1 0x1 PUSH1 0x0 SWAP1 SLOAD SWAP1 PUSH2 0x100 EXP SWAP1 DIV PUSH20 0xFFFFFFFFFFFFFFFFFFFFFFFFFFFFFFFFFFFFFFFF AND SWAP1 POP SWAP1 JUMP JUMPDEST PUSH1 0x6 SLOAD DUP2 JUMP JUMPDEST PUSH1 0x0 PUSH20 0xFFFFFFFFFFFFFFFFFFFFFFFFFFFFFFFFFFFFFFFF AND PUSH1 0x0 DUP1 SLOAD SWAP1 PUSH2 0x100 EXP SWAP1 DIV PUSH20 0xFFFFFFFFFFFFFFFFFFFFFFFFFFFFFFFFFFFFFFFF AND PUSH20 0xFFFFFFFFFFFFFFFFFFFFFFFFFFFFFFFFFFFFFFFF AND SUB ISZERO PUSH2 0xDDA JUMPI PUSH1 0x0 DUP1 PUSH1 0x0 DUP1 SLOAD SWAP1 PUSH2 0x100 EXP SWAP1 DIV PUSH20 0xFFFFFFFFFFFFFFFFFFFFFFFFFFFFFFFFFFFFFFFF AND PUSH20 0xFFFFFFFFFFFFFFFFFFFFFFFFFFFFFFFFFFFFFFFF AND PUSH4 0xCED72F87 PUSH1 0x40 MLOAD DUP2 PUSH4 0xFFFFFFFF AND PUSH1 0xE0 SHL DUP2 MSTORE PUSH1 0x4 ADD PUSH1 0x40 DUP1 MLOAD DUP1 DUP4 SUB DUP2 DUP7 GAS STATICCALL ISZERO DUP1 ISZERO PUSH2 0xBF5 JUMPI RETURNDATASIZE PUSH1 0x0 DUP1 RETURNDATACOPY RETURNDATASIZE PUSH1 0x0 REVERT JUMPDEST POP POP POP POP PUSH1 0x40 MLOAD RETURNDATASIZE PUSH1 0x1F NOT PUSH1 0x1F DUP3 ADD AND DUP3 ADD DUP1 PUSH1 0x40 MSTORE POP DUP2 ADD SWAP1 PUSH2 0xC19 SWAP2 SWAP1 PUSH2 0x20EC JUMP JUMPDEST DUP1 SWAP4 POP DUP2 SWAP3 POP POP POP DUP1 CALLVALUE LT ISZERO PUSH2 0xC64 JUMPI PUSH1 0x40 MLOAD PUSH32 0x8C379A000000000000000000000000000000000000000000000000000000000 DUP2 MSTORE PUSH1 0x4 ADD PUSH2 0xC5B SWAP1 PUSH2 0x2178 JUMP JUMPDEST PUSH1 0x40 MLOAD DUP1 SWAP2 SUB SWAP1 REVERT JUMPDEST DUP2 PUSH20 0xFFFFFFFFFFFFFFFFFFFFFFFFFFFFFFFFFFFFFFFF AND PUSH2 0x8FC DUP3 SWAP1 DUP2 ISZERO MUL SWAP1 PUSH1 0x40 MLOAD PUSH1 0x0 PUSH1 0x40 MLOAD DUP1 DUP4 SUB DUP2 DUP6 DUP9 DUP9 CALL SWAP4 POP POP POP POP ISZERO DUP1 ISZERO PUSH2 0xCAA JUMPI RETURNDATASIZE PUSH1 0x0 DUP1 RETURNDATACOPY RETURNDATASIZE PUSH1 0x0 REVERT JUMPDEST POP PUSH2 0xCB3 PUSH2 0x1568 JUMP JUMPDEST PUSH20 0xFFFFFFFFFFFFFFFFFFFFFFFFFFFFFFFFFFFFFFFF AND PUSH2 0xCD2 DUP6 PUSH2 0x82A JUMP JUMPDEST PUSH20 0xFFFFFFFFFFFFFFFFFFFFFFFFFFFFFFFFFFFFFFFF AND EQ PUSH2 0xD28 JUMPI PUSH1 0x40 MLOAD PUSH32 0x8C379A000000000000000000000000000000000000000000000000000000000 DUP2 MSTORE PUSH1 0x4 ADD PUSH2 0xD1F SWAP1 PUSH2 0x234E JUMP JUMPDEST PUSH1 0x40 MLOAD DUP1 SWAP2 SUB SWAP1 REVERT JUMPDEST PUSH1 0x0 PUSH1 0x6 SLOAD GT PUSH2 0xD6D JUMPI PUSH1 0x40 MLOAD PUSH32 0x8C379A000000000000000000000000000000000000000000000000000000000 DUP2 MSTORE PUSH1 0x4 ADD PUSH2 0xD64 SWAP1 PUSH2 0x23BA JUMP JUMPDEST PUSH1 0x40 MLOAD DUP1 SWAP2 SUB SWAP1 REVERT JUMPDEST CALLER PUSH1 0xB PUSH1 0x0 DUP7 DUP2 MSTORE PUSH1 0x20 ADD SWAP1 DUP2 MSTORE PUSH1 0x20 ADD PUSH1 0x0 KECCAK256 PUSH1 0x0 PUSH2 0x100 EXP DUP2 SLOAD DUP2 PUSH20 0xFFFFFFFFFFFFFFFFFFFFFFFFFFFFFFFFFFFFFFFF MUL NOT AND SWAP1 DUP4 PUSH20 0xFFFFFFFFFFFFFFFFFFFFFFFFFFFFFFFFFFFFFFFF AND MUL OR SWAP1 SSTORE POP DUP3 PUSH1 0xC PUSH1 0x0 DUP7 DUP2 MSTORE PUSH1 0x20 ADD SWAP1 DUP2 MSTORE PUSH1 0x20 ADD PUSH1 0x0 KECCAK256 DUP2 SWAP1 SSTORE POP POP POP JUMPDEST POP POP JUMP JUMPDEST PUSH1 0x0 PUSH20 0xFFFFFFFFFFFFFFFFFFFFFFFFFFFFFFFFFFFFFFFF AND PUSH1 0x0 DUP1 SLOAD SWAP1 PUSH2 0x100 EXP SWAP1 DIV PUSH20 0xFFFFFFFFFFFFFFFFFFFFFFFFFFFFFFFFFFFFFFFF AND PUSH20 0xFFFFFFFFFFFFFFFFFFFFFFFFFFFFFFFFFFFFFFFF AND SUB ISZERO PUSH2 0x11AE JUMPI PUSH1 0x0 DUP1 PUSH1 0x0 DUP1 SLOAD SWAP1 PUSH2 0x100 EXP SWAP1 DIV PUSH20 0xFFFFFFFFFFFFFFFFFFFFFFFFFFFFFFFFFFFFFFFF AND PUSH20 0xFFFFFFFFFFFFFFFFFFFFFFFFFFFFFFFFFFFFFFFF AND PUSH4 0xCED72F87 PUSH1 0x40 MLOAD DUP2 PUSH4 0xFFFFFFFF AND PUSH1 0xE0 SHL DUP2 MSTORE PUSH1 0x4 ADD PUSH1 0x40 DUP1 MLOAD DUP1 DUP4 SUB DUP2 DUP7 GAS STATICCALL ISZERO DUP1 ISZERO PUSH2 0xEA0 JUMPI RETURNDATASIZE PUSH1 0x0 DUP1 RETURNDATACOPY RETURNDATASIZE PUSH1 0x0 REVERT JUMPDEST POP POP POP POP PUSH1 0x40 MLOAD RETURNDATASIZE PUSH1 0x1F NOT PUSH1 0x1F DUP3 ADD AND DUP3 ADD DUP1 PUSH1 0x40 MSTORE POP DUP2 ADD SWAP1 PUSH2 0xEC4 SWAP2 SWAP1 PUSH2 0x20EC JUMP JUMPDEST DUP1 SWAP4 POP DUP2 SWAP3 POP POP POP DUP1 CALLVALUE LT ISZERO PUSH2 0xF0F JUMPI PUSH1 0x40 MLOAD PUSH32 0x8C379A000000000000000000000000000000000000000000000000000000000 DUP2 MSTORE PUSH1 0x4 ADD PUSH2 0xF06 SWAP1 PUSH2 0x2178 JUMP JUMPDEST PUSH1 0x40 MLOAD DUP1 SWAP2 SUB SWAP1 REVERT JUMPDEST DUP2 PUSH20 0xFFFFFFFFFFFFFFFFFFFFFFFFFFFFFFFFFFFFFFFF AND PUSH2 0x8FC DUP3 SWAP1 DUP2 ISZERO MUL SWAP1 PUSH1 0x40 MLOAD PUSH1 0x0 PUSH1 0x40 MLOAD DUP1 DUP4 SUB DUP2 DUP6 DUP9 DUP9 CALL SWAP4 POP POP POP POP ISZERO DUP1 ISZERO PUSH2 0xF55 JUMPI RETURNDATASIZE PUSH1 0x0 DUP1 RETURNDATACOPY RETURNDATASIZE PUSH1 0x0 REVERT JUMPDEST POP PUSH2 0xF5F DUP4 PUSH2 0x82A JUMP JUMPDEST PUSH20 0xFFFFFFFFFFFFFFFFFFFFFFFFFFFFFFFFFFFFFFFF AND PUSH2 0xF7D PUSH2 0x1568 JUMP JUMPDEST PUSH20 0xFFFFFFFFFFFFFFFFFFFFFFFFFFFFFFFFFFFFFFFF AND EQ PUSH2 0xFD3 JUMPI PUSH1 0x40 MLOAD PUSH32 0x8C379A000000000000000000000000000000000000000000000000000000000 DUP2 MSTORE PUSH1 0x4 ADD PUSH2 0xFCA SWAP1 PUSH2 0x2426 JUMP JUMPDEST PUSH1 0x40 MLOAD DUP1 SWAP2 SUB SWAP1 REVERT JUMPDEST PUSH1 0x0 PUSH20 0xFFFFFFFFFFFFFFFFFFFFFFFFFFFFFFFFFFFFFFFF AND DUP5 PUSH20 0xFFFFFFFFFFFFFFFFFFFFFFFFFFFFFFFFFFFFFFFF AND SUB PUSH2 0x1042 JUMPI PUSH1 0x40 MLOAD PUSH32 0x8C379A000000000000000000000000000000000000000000000000000000000 DUP2 MSTORE PUSH1 0x4 ADD PUSH2 0x1039 SWAP1 PUSH2 0x2492 JUMP JUMPDEST PUSH1 0x40 MLOAD DUP1 SWAP2 SUB SWAP1 REVERT JUMPDEST DUP4 PUSH1 0x9 PUSH1 0x0 DUP6 DUP2 MSTORE PUSH1 0x20 ADD SWAP1 DUP2 MSTORE PUSH1 0x20 ADD PUSH1 0x0 KECCAK256 PUSH1 0x0 PUSH2 0x100 EXP DUP2 SLOAD DUP2 PUSH20 0xFFFFFFFFFFFFFFFFFFFFFFFFFFFFFFFFFFFFFFFF MUL NOT AND SWAP1 DUP4 PUSH20 0xFFFFFFFFFFFFFFFFFFFFFFFFFFFFFFFFFFFFFFFF AND MUL OR SWAP1 SSTORE POP PUSH1 0x1 PUSH1 0xA PUSH1 0x0 PUSH2 0x10A2 PUSH2 0x1568 JUMP JUMPDEST PUSH20 0xFFFFFFFFFFFFFFFFFFFFFFFFFFFFFFFFFFFFFFFF AND PUSH20 0xFFFFFFFFFFFFFFFFFFFFFFFFFFFFFFFFFFFFFFFF AND DUP2 MSTORE PUSH1 0x20 ADD SWAP1 DUP2 MSTORE PUSH1 0x20 ADD PUSH1 0x0 KECCAK256 PUSH1 0x0 DUP3 DUP3 SLOAD PUSH2 0x10EB SWAP2 SWAP1 PUSH2 0x24E1 JUMP JUMPDEST SWAP3 POP POP DUP2 SWAP1 SSTORE POP PUSH1 0x1 PUSH1 0xA PUSH1 0x0 DUP7 PUSH20 0xFFFFFFFFFFFFFFFFFFFFFFFFFFFFFFFFFFFFFFFF AND PUSH20 0xFFFFFFFFFFFFFFFFFFFFFFFFFFFFFFFFFFFFFFFF AND DUP2 MSTORE PUSH1 0x20 ADD SWAP1 DUP2 MSTORE PUSH1 0x20 ADD PUSH1 0x0 KECCAK256 PUSH1 0x0 DUP3 DUP3 SLOAD PUSH2 0x1142 SWAP2 SWAP1 PUSH2 0x2515 JUMP JUMPDEST SWAP3 POP POP DUP2 SWAP1 SSTORE POP DUP3 DUP5 PUSH20 0xFFFFFFFFFFFFFFFFFFFFFFFFFFFFFFFFFFFFFFFF AND PUSH2 0x1169 PUSH2 0x1568 JUMP JUMPDEST PUSH20 0xFFFFFFFFFFFFFFFFFFFFFFFFFFFFFFFFFFFFFFFF AND PUSH32 0x8BAF29B4B5AF24EC8170355F2819A9135840321DD4E65B88A080DFC3054FE99C PUSH1 0x40 MLOAD PUSH1 0x40 MLOAD DUP1 SWAP2 SUB SWAP1 LOG4 POP POP JUMPDEST POP POP JUMP JUMPDEST PUSH1 0x0 PUSH1 0xC PUSH1 0x0 DUP4 DUP2 MSTORE PUSH1 0x20 ADD SWAP1 DUP2 MSTORE PUSH1 0x20 ADD PUSH1 0x0 KECCAK256 SLOAD SWAP1 POP SWAP2 SWAP1 POP JUMP JUMPDEST PUSH1 0x60 PUSH1 0xF DUP1 SLOAD PUSH2 0x11DE SWAP1 PUSH2 0x259A JUMP JUMPDEST DUP1 PUSH1 0x1F ADD PUSH1 0x20 DUP1 SWAP2 DIV MUL PUSH1 0x20 ADD PUSH1 0x40 MLOAD SWAP1 DUP2 ADD PUSH1 0x40 MSTORE DUP1 SWAP3 SWAP2 SWAP1 DUP2 DUP2 MSTORE PUSH1 0x20 ADD DUP3 DUP1 SLOAD PUSH2 0x120A SWAP1 PUSH2 0x259A JUMP JUMPDEST DUP1 ISZERO PUSH2 0x1257 JUMPI DUP1 PUSH1 0x1F LT PUSH2 0x122C JUMPI PUSH2 0x100 DUP1 DUP4 SLOAD DIV MUL DUP4 MSTORE SWAP2 PUSH1 0x20 ADD SWAP2 PUSH2 0x1257 JUMP JUMPDEST DUP3 ADD SWAP2 SWAP1 PUSH1 0x0 MSTORE PUSH1 0x20 PUSH1 0x0 KECCAK256 SWAP1 JUMPDEST DUP2 SLOAD DUP2 MSTORE SWAP1 PUSH1 0x1 ADD SWAP1 PUSH1 0x20 ADD DUP1 DUP4 GT PUSH2 0x123A JUMPI DUP3 SWAP1 SUB PUSH1 0x1F AND DUP3 ADD SWAP2 JUMPDEST POP POP POP POP POP SWAP1 POP SWAP2 SWAP1 POP JUMP JUMPDEST PUSH2 0x126C DUP2 PUSH2 0x82A JUMP JUMPDEST PUSH20 0xFFFFFFFFFFFFFFFFFFFFFFFFFFFFFFFFFFFFFFFF AND PUSH1 0x0 PUSH20 0xFFFFFFFFFFFFFFFFFFFFFFFFFFFFFFFFFFFFFFFF AND EQ PUSH2 0x12DA JUMPI PUSH1 0x40 MLOAD PUSH32 0x8C379A000000000000000000000000000000000000000000000000000000000 DUP2 MSTORE PUSH1 0x4 ADD PUSH2 0x12D1 SWAP1 PUSH2 0x2617 JUMP JUMPDEST PUSH1 0x40 MLOAD DUP1 SWAP2 SUB SWAP1 REVERT JUMPDEST PUSH2 0x12ED PUSH2 0x12E5 PUSH2 0x1568 JUMP JUMPDEST PUSH1 0x6 SLOAD PUSH2 0x18D5 JUMP JUMPDEST PUSH2 0x1301 PUSH2 0x12F8 PUSH2 0x1568 JUMP JUMPDEST ADDRESS PUSH1 0x6 SLOAD PUSH2 0x1ACD JUMP JUMPDEST PUSH1 0x8 PUSH1 0x0 DUP2 SLOAD DUP1 SWAP3 SWAP2 SWAP1 PUSH2 0x1314 SWAP1 PUSH2 0x2637 JUMP JUMPDEST SWAP2 SWAP1 POP SSTORE POP PUSH2 0x1321 PUSH2 0x1568 JUMP JUMPDEST PUSH1 0x9 PUSH1 0x0 DUP4 DUP2 MSTORE PUSH1 0x20 ADD SWAP1 DUP2 MSTORE PUSH1 0x20 ADD PUSH1 0x0 KECCAK256 PUSH1 0x0 PUSH2 0x100 EXP DUP2 SLOAD DUP2 PUSH20 0xFFFFFFFFFFFFFFFFFFFFFFFFFFFFFFFFFFFFFFFF MUL NOT AND SWAP1 DUP4 PUSH20 0xFFFFFFFFFFFFFFFFFFFFFFFFFFFFFFFFFFFFFFFF AND MUL OR SWAP1 SSTORE POP PUSH1 0x1 PUSH1 0xA PUSH1 0x0 PUSH2 0x1380 PUSH2 0x1568 JUMP JUMPDEST PUSH20 0xFFFFFFFFFFFFFFFFFFFFFFFFFFFFFFFFFFFFFFFF AND PUSH20 0xFFFFFFFFFFFFFFFFFFFFFFFFFFFFFFFFFFFFFFFF AND DUP2 MSTORE PUSH1 0x20 ADD SWAP1 DUP2 MSTORE PUSH1 0x20 ADD PUSH1 0x0 KECCAK256 PUSH1 0x0 DUP3 DUP3 SLOAD PUSH2 0x13C9 SWAP2 SWAP1 PUSH2 0x2515 JUMP JUMPDEST SWAP3 POP POP DUP2 SWAP1 SSTORE POP DUP1 PUSH2 0x13D9 PUSH2 0x1568 JUMP JUMPDEST PUSH20 0xFFFFFFFFFFFFFFFFFFFFFFFFFFFFFFFFFFFFFFFF AND PUSH32 0x48DDE1ED76EB2BB4C3AF46B59060DDB6D9A74D35C3C6AF84E27F370036AE784E PUSH1 0x40 MLOAD PUSH1 0x40 MLOAD DUP1 SWAP2 SUB SWAP1 LOG3 POP JUMP JUMPDEST PUSH2 0x1426 PUSH2 0x1568 JUMP JUMPDEST PUSH20 0xFFFFFFFFFFFFFFFFFFFFFFFFFFFFFFFFFFFFFFFF AND PUSH1 0x1 PUSH1 0x0 SWAP1 SLOAD SWAP1 PUSH2 0x100 EXP SWAP1 DIV PUSH20 0xFFFFFFFFFFFFFFFFFFFFFFFFFFFFFFFFFFFFFFFF AND PUSH20 0xFFFFFFFFFFFFFFFFFFFFFFFFFFFFFFFFFFFFFFFF AND EQ PUSH2 0x14B5 JUMPI PUSH1 0x40 MLOAD PUSH32 0x8C379A000000000000000000000000000000000000000000000000000000000 DUP2 MSTORE PUSH1 0x4 ADD PUSH2 0x14AC SWAP1 PUSH2 0x20A2 JUMP JUMPDEST PUSH1 0x40 MLOAD DUP1 SWAP2 SUB SWAP1 REVERT JUMPDEST PUSH1 0x0 PUSH20 0xFFFFFFFFFFFFFFFFFFFFFFFFFFFFFFFFFFFFFFFF AND DUP2 PUSH20 0xFFFFFFFFFFFFFFFFFFFFFFFFFFFFFFFFFFFFFFFF AND SUB PUSH2 0x1524 JUMPI PUSH1 0x40 MLOAD PUSH32 0x8C379A000000000000000000000000000000000000000000000000000000000 DUP2 MSTORE PUSH1 0x4 ADD PUSH2 0x151B SWAP1 PUSH2 0x26F1 JUMP JUMPDEST PUSH1 0x40 MLOAD DUP1 SWAP2 SUB SWAP1 REVERT JUMPDEST DUP1 PUSH1 0x1 PUSH1 0x0 PUSH2 0x100 EXP DUP2 SLOAD DUP2 PUSH20 0xFFFFFFFFFFFFFFFFFFFFFFFFFFFFFFFFFFFFFFFF MUL NOT AND SWAP1 DUP4 PUSH20 0xFFFFFFFFFFFFFFFFFFFFFFFFFFFFFFFFFFFFFFFF AND MUL OR SWAP1 SSTORE POP POP JUMP JUMPDEST PUSH1 0x0 CALLER SWAP1 POP SWAP1 JUMP JUMPDEST PUSH1 0x0 DUP1 PUSH20 0xFFFFFFFFFFFFFFFFFFFFFFFFFFFFFFFFFFFFFFFF AND PUSH1 0x5 PUSH1 0x0 SWAP1 SLOAD SWAP1 PUSH2 0x100 EXP SWAP1 DIV PUSH20 0xFFFFFFFFFFFFFFFFFFFFFFFFFFFFFFFFFFFFFFFF AND PUSH20 0xFFFFFFFFFFFFFFFFFFFFFFFFFFFFFFFFFFFFFFFF AND SUB PUSH2 0x15E6 JUMPI DUP2 PUSH20 0xFFFFFFFFFFFFFFFFFFFFFFFFFFFFFFFFFFFFFFFF AND BALANCE SWAP1 POP PUSH2 0x168B JUMP JUMPDEST PUSH1 0x0 PUSH1 0x5 PUSH1 0x0 SWAP1 SLOAD SWAP1 PUSH2 0x100 EXP SWAP1 DIV PUSH20 0xFFFFFFFFFFFFFFFFFFFFFFFFFFFFFFFFFFFFFFFF AND SWAP1 POP DUP1 PUSH20 0xFFFFFFFFFFFFFFFFFFFFFFFFFFFFFFFFFFFFFFFF AND PUSH4 0x70A08231 DUP5 PUSH1 0x40 MLOAD DUP3 PUSH4 0xFFFFFFFF AND PUSH1 0xE0 SHL DUP2 MSTORE PUSH1 0x4 ADD PUSH2 0x1646 SWAP2 SWAP1 PUSH2 0x1E14 JUMP JUMPDEST PUSH1 0x20 PUSH1 0x40 MLOAD DUP1 DUP4 SUB DUP2 DUP7 GAS STATICCALL ISZERO DUP1 ISZERO PUSH2 0x1663 JUMPI RETURNDATASIZE PUSH1 0x0 DUP1 RETURNDATACOPY RETURNDATASIZE PUSH1 0x0 REVERT JUMPDEST POP POP POP POP PUSH1 0x40 MLOAD RETURNDATASIZE PUSH1 0x1F NOT PUSH1 0x1F DUP3 ADD AND DUP3 ADD DUP1 PUSH1 0x40 MSTORE POP DUP2 ADD SWAP1 PUSH2 0x1687 SWAP2 SWAP1 PUSH2 0x2711 JUMP JUMPDEST SWAP2 POP POP JUMPDEST SWAP2 SWAP1 POP JUMP JUMPDEST PUSH1 0x0 PUSH20 0xFFFFFFFFFFFFFFFFFFFFFFFFFFFFFFFFFFFFFFFF AND PUSH1 0x5 PUSH1 0x0 SWAP1 SLOAD SWAP1 PUSH2 0x100 EXP SWAP1 DIV PUSH20 0xFFFFFFFFFFFFFFFFFFFFFFFFFFFFFFFFFFFFFFFF AND PUSH20 0xFFFFFFFFFFFFFFFFFFFFFFFFFFFFFFFFFFFFFFFF AND SUB PUSH2 0x1732 JUMPI DUP2 PUSH20 0xFFFFFFFFFFFFFFFFFFFFFFFFFFFFFFFFFFFFFFFF AND PUSH2 0x8FC DUP3 SWAP1 DUP2 ISZERO MUL SWAP1 PUSH1 0x40 MLOAD PUSH1 0x0 PUSH1 0x40 MLOAD DUP1 DUP4 SUB DUP2 DUP6 DUP9 DUP9 CALL SWAP4 POP POP POP POP ISZERO DUP1 ISZERO PUSH2 0x172C JUMPI RETURNDATASIZE PUSH1 0x0 DUP1 RETURNDATACOPY RETURNDATASIZE PUSH1 0x0 REVERT JUMPDEST POP PUSH2 0x17DA JUMP JUMPDEST PUSH1 0x0 PUSH1 0x5 PUSH1 0x0 SWAP1 SLOAD SWAP1 PUSH2 0x100 EXP SWAP1 DIV PUSH20 0xFFFFFFFFFFFFFFFFFFFFFFFFFFFFFFFFFFFFFFFF AND SWAP1 POP DUP1 PUSH20 0xFFFFFFFFFFFFFFFFFFFFFFFFFFFFFFFFFFFFFFFF AND PUSH4 0xA9059CBB DUP5 DUP5 PUSH1 0x40 MLOAD DUP4 PUSH4 0xFFFFFFFF AND PUSH1 0xE0 SHL DUP2 MSTORE PUSH1 0x4 ADD PUSH2 0x1794 SWAP3 SWAP2 SWAP1 PUSH2 0x273E JUMP JUMPDEST PUSH1 0x20 PUSH1 0x40 MLOAD DUP1 DUP4 SUB DUP2 PUSH1 0x0 DUP8 GAS CALL ISZERO DUP1 ISZERO PUSH2 0x17B3 JUMPI RETURNDATASIZE PUSH1 0x0 DUP1 RETURNDATACOPY RETURNDATASIZE PUSH1 0x0 REVERT JUMPDEST POP POP POP POP PUSH1 0x40 MLOAD RETURNDATASIZE PUSH1 0x1F NOT PUSH1 0x1F DUP3 ADD AND DUP3 ADD DUP1 PUSH1 0x40 MSTORE POP DUP2 ADD SWAP1 PUSH2 0x17D7 SWAP2 SWAP1 PUSH2 0x2793 JUMP JUMPDEST POP POP JUMPDEST POP POP JUMP JUMPDEST PUSH1 0x0 DUP3 LT ISZERO DUP1 ISZERO PUSH2 0x17F1 JUMPI POP PUSH2 0x3E8 DUP3 GT ISZERO JUMPDEST PUSH2 0x1830 JUMPI PUSH1 0x40 MLOAD PUSH32 0x8C379A000000000000000000000000000000000000000000000000000000000 DUP2 MSTORE PUSH1 0x4 ADD PUSH2 0x1827 SWAP1 PUSH2 0x2832 JUMP JUMPDEST PUSH1 0x40 MLOAD DUP1 SWAP2 SUB SWAP1 REVERT JUMPDEST DUP2 PUSH1 0x3 DUP2 SWAP1 SSTORE POP DUP1 PUSH1 0x2 PUSH1 0x0 PUSH2 0x100 EXP DUP2 SLOAD DUP2 PUSH20 0xFFFFFFFFFFFFFFFFFFFFFFFFFFFFFFFFFFFFFFFF MUL NOT AND SWAP1 DUP4 PUSH20 0xFFFFFFFFFFFFFFFFFFFFFFFFFFFFFFFFFFFFFFFF AND MUL OR SWAP1 SSTORE POP POP POP JUMP JUMPDEST PUSH1 0x2 PUSH1 0x4 SLOAD SUB PUSH2 0x18C1 JUMPI PUSH1 0x40 MLOAD PUSH32 0x8C379A000000000000000000000000000000000000000000000000000000000 DUP2 MSTORE PUSH1 0x4 ADD PUSH2 0x18B8 SWAP1 PUSH2 0x289E JUMP JUMPDEST PUSH1 0x40 MLOAD DUP1 SWAP2 SUB SWAP1 REVERT JUMPDEST PUSH1 0x2 PUSH1 0x4 DUP2 SWAP1 SSTORE POP JUMP JUMPDEST PUSH1 0x1 PUSH1 0x4 DUP2 SWAP1 SSTORE POP JUMP JUMPDEST PUSH1 0x0 PUSH20 0xFFFFFFFFFFFFFFFFFFFFFFFFFFFFFFFFFFFFFFFF AND PUSH1 0x5 PUSH1 0x0 SWAP1 SLOAD SWAP1 PUSH2 0x100 EXP SWAP1 DIV PUSH20 0xFFFFFFFFFFFFFFFFFFFFFFFFFFFFFFFFFFFFFFFF AND PUSH20 0xFFFFFFFFFFFFFFFFFFFFFFFFFFFFFFFFFFFFFFFF AND SUB PUSH2 0x19E2 JUMPI PUSH1 0x0 PUSH20 0xFFFFFFFFFFFFFFFFFFFFFFFFFFFFFFFFFFFFFFFF AND DUP3 PUSH20 0xFFFFFFFFFFFFFFFFFFFFFFFFFFFFFFFFFFFFFFFF AND SUB PUSH2 0x199A JUMPI PUSH1 0x40 MLOAD PUSH32 0x8C379A000000000000000000000000000000000000000000000000000000000 DUP2 MSTORE PUSH1 0x4 ADD PUSH2 0x1991 SWAP1 PUSH2 0x290A JUMP JUMPDEST PUSH1 0x40 MLOAD DUP1 SWAP2 SUB SWAP1 REVERT JUMPDEST DUP1 CALLVALUE LT ISZERO PUSH2 0x19DD JUMPI PUSH1 0x40 MLOAD PUSH32 0x8C379A000000000000000000000000000000000000000000000000000000000 DUP2 MSTORE PUSH1 0x4 ADD PUSH2 0x19D4 SWAP1 PUSH2 0x2976 JUMP JUMPDEST PUSH1 0x40 MLOAD DUP1 SWAP2 SUB SWAP1 REVERT JUMPDEST PUSH2 0x1AC9 JUMP JUMPDEST PUSH1 0x0 PUSH1 0x5 PUSH1 0x0 SWAP1 SLOAD SWAP1 PUSH2 0x100 EXP SWAP1 DIV PUSH20 0xFFFFFFFFFFFFFFFFFFFFFFFFFFFFFFFFFFFFFFFF AND SWAP1 POP DUP2 DUP2 PUSH20 0xFFFFFFFFFFFFFFFFFFFFFFFFFFFFFFFFFFFFFFFF AND PUSH4 0xDD62ED3E DUP6 ADDRESS PUSH1 0x40 MLOAD DUP4 PUSH4 0xFFFFFFFF AND PUSH1 0xE0 SHL DUP2 MSTORE PUSH1 0x4 ADD PUSH2 0x1A45 SWAP3 SWAP2 SWAP1 PUSH2 0x2996 JUMP JUMPDEST PUSH1 0x20 PUSH1 0x40 MLOAD DUP1 DUP4 SUB DUP2 DUP7 GAS STATICCALL ISZERO DUP1 ISZERO PUSH2 0x1A62 JUMPI RETURNDATASIZE PUSH1 0x0 DUP1 RETURNDATACOPY RETURNDATASIZE PUSH1 0x0 REVERT JUMPDEST POP POP POP POP PUSH1 0x40 MLOAD RETURNDATASIZE PUSH1 0x1F NOT PUSH1 0x1F DUP3 ADD AND DUP3 ADD DUP1 PUSH1 0x40 MSTORE POP DUP2 ADD SWAP1 PUSH2 0x1A86 SWAP2 SWAP1 PUSH2 0x2711 JUMP JUMPDEST LT ISZERO PUSH2 0x1AC7 JUMPI PUSH1 0x40 MLOAD PUSH32 0x8C379A000000000000000000000000000000000000000000000000000000000 DUP2 MSTORE PUSH1 0x4 ADD PUSH2 0x1ABE SWAP1 PUSH2 0x2A0B JUMP JUMPDEST PUSH1 0x40 MLOAD DUP1 SWAP2 SUB SWAP1 REVERT JUMPDEST POP JUMPDEST POP POP JUMP JUMPDEST PUSH1 0x0 PUSH20 0xFFFFFFFFFFFFFFFFFFFFFFFFFFFFFFFFFFFFFFFF AND PUSH1 0x5 PUSH1 0x0 SWAP1 SLOAD SWAP1 PUSH2 0x100 EXP SWAP1 DIV PUSH20 0xFFFFFFFFFFFFFFFFFFFFFFFFFFFFFFFFFFFFFFFF AND PUSH20 0xFFFFFFFFFFFFFFFFFFFFFFFFFFFFFFFFFFFFFFFF AND SUB PUSH2 0x1B6B JUMPI DUP1 CALLVALUE LT ISZERO PUSH2 0x1B66 JUMPI PUSH1 0x40 MLOAD PUSH32 0x8C379A000000000000000000000000000000000000000000000000000000000 DUP2 MSTORE PUSH1 0x4 ADD PUSH2 0x1B5D SWAP1 PUSH2 0x2A9D JUMP JUMPDEST PUSH1 0x40 MLOAD DUP1 SWAP2 SUB SWAP1 REVERT JUMPDEST PUSH2 0x1C15 JUMP JUMPDEST PUSH1 0x0 PUSH1 0x5 PUSH1 0x0 SWAP1 SLOAD SWAP1 PUSH2 0x100 EXP SWAP1 DIV PUSH20 0xFFFFFFFFFFFFFFFFFFFFFFFFFFFFFFFFFFFFFFFF AND SWAP1 POP DUP1 PUSH20 0xFFFFFFFFFFFFFFFFFFFFFFFFFFFFFFFFFFFFFFFF AND PUSH4 0x23B872DD DUP6 DUP6 DUP6 PUSH1 0x40 MLOAD DUP5 PUSH4 0xFFFFFFFF AND PUSH1 0xE0 SHL DUP2 MSTORE PUSH1 0x4 ADD PUSH2 0x1BCF SWAP4 SWAP3 SWAP2 SWAP1 PUSH2 0x2ABD JUMP JUMPDEST PUSH1 0x20 PUSH1 0x40 MLOAD DUP1 DUP4 SUB DUP2 PUSH1 0x0 DUP8 GAS CALL ISZERO DUP1 ISZERO PUSH2 0x1BEE JUMPI RETURNDATASIZE PUSH1 0x0 DUP1 RETURNDATACOPY RETURNDATASIZE PUSH1 0x0 REVERT JUMPDEST POP POP POP POP PUSH1 0x40 MLOAD RETURNDATASIZE PUSH1 0x1F NOT PUSH1 0x1F DUP3 ADD AND DUP3 ADD DUP1 PUSH1 0x40 MSTORE POP DUP2 ADD SWAP1 PUSH2 0x1C12 SWAP2 SWAP1 PUSH2 0x2793 JUMP JUMPDEST POP POP JUMPDEST POP POP POP JUMP JUMPDEST PUSH1 0x0 DUP1 REVERT JUMPDEST PUSH1 0x0 PUSH32 0xFFFFFFFF00000000000000000000000000000000000000000000000000000000 DUP3 AND SWAP1 POP SWAP2 SWAP1 POP JUMP JUMPDEST PUSH2 0x1C54 DUP2 PUSH2 0x1C1F JUMP JUMPDEST DUP2 EQ PUSH2 0x1C5F JUMPI PUSH1 0x0 DUP1 REVERT JUMPDEST POP JUMP JUMPDEST PUSH1 0x0 DUP2 CALLDATALOAD SWAP1 POP PUSH2 0x1C71 DUP2 PUSH2 0x1C4B JUMP JUMPDEST SWAP3 SWAP2 POP POP JUMP JUMPDEST PUSH1 0x0 PUSH1 0x20 DUP3 DUP5 SUB SLT ISZERO PUSH2 0x1C8D JUMPI PUSH2 0x1C8C PUSH2 0x1C1A JUMP JUMPDEST JUMPDEST PUSH1 0x0 PUSH2 0x1C9B DUP5 DUP3 DUP6 ADD PUSH2 0x1C62 JUMP JUMPDEST SWAP2 POP POP SWAP3 SWAP2 POP POP JUMP JUMPDEST PUSH1 0x0 DUP2 ISZERO ISZERO SWAP1 POP SWAP2 SWAP1 POP JUMP JUMPDEST PUSH2 0x1CB9 DUP2 PUSH2 0x1CA4 JUMP JUMPDEST DUP3 MSTORE POP POP JUMP JUMPDEST PUSH1 0x0 PUSH1 0x20 DUP3 ADD SWAP1 POP PUSH2 0x1CD4 PUSH1 0x0 DUP4 ADD DUP5 PUSH2 0x1CB0 JUMP JUMPDEST SWAP3 SWAP2 POP POP JUMP JUMPDEST PUSH1 0x0 DUP2 SWAP1 POP SWAP2 SWAP1 POP JUMP JUMPDEST PUSH2 0x1CED DUP2 PUSH2 0x1CDA JUMP JUMPDEST DUP3 MSTORE POP POP JUMP JUMPDEST PUSH1 0x0 PUSH1 0x20 DUP3 ADD SWAP1 POP PUSH2 0x1D08 PUSH1 0x0 DUP4 ADD DUP5 PUSH2 0x1CE4 JUMP JUMPDEST SWAP3 SWAP2 POP POP JUMP JUMPDEST PUSH2 0x1D17 DUP2 PUSH2 0x1CDA JUMP JUMPDEST DUP2 EQ PUSH2 0x1D22 JUMPI PUSH1 0x0 DUP1 REVERT JUMPDEST POP JUMP JUMPDEST PUSH1 0x0 DUP2 CALLDATALOAD SWAP1 POP PUSH2 0x1D34 DUP2 PUSH2 0x1D0E JUMP JUMPDEST SWAP3 SWAP2 POP POP JUMP JUMPDEST PUSH1 0x0 PUSH20 0xFFFFFFFFFFFFFFFFFFFFFFFFFFFFFFFFFFFFFFFF DUP3 AND SWAP1 POP SWAP2 SWAP1 POP JUMP JUMPDEST PUSH1 0x0 PUSH2 0x1D65 DUP3 PUSH2 0x1D3A JUMP JUMPDEST SWAP1 POP SWAP2 SWAP1 POP JUMP JUMPDEST PUSH2 0x1D75 DUP2 PUSH2 0x1D5A JUMP JUMPDEST DUP2 EQ PUSH2 0x1D80 JUMPI PUSH1 0x0 DUP1 REVERT JUMPDEST POP JUMP JUMPDEST PUSH1 0x0 DUP2 CALLDATALOAD SWAP1 POP PUSH2 0x1D92 DUP2 PUSH2 0x1D6C JUMP JUMPDEST SWAP3 SWAP2 POP POP JUMP JUMPDEST PUSH1 0x0 DUP1 PUSH1 0x40 DUP4 DUP6 SUB SLT ISZERO PUSH2 0x1DAF JUMPI PUSH2 0x1DAE PUSH2 0x1C1A JUMP JUMPDEST JUMPDEST PUSH1 0x0 PUSH2 0x1DBD DUP6 DUP3 DUP7 ADD PUSH2 0x1D25 JUMP JUMPDEST SWAP3 POP POP PUSH1 0x20 PUSH2 0x1DCE DUP6 DUP3 DUP7 ADD PUSH2 0x1D83 JUMP JUMPDEST SWAP2 POP POP SWAP3 POP SWAP3 SWAP1 POP JUMP JUMPDEST PUSH1 0x0 PUSH1 0x20 DUP3 DUP5 SUB SLT ISZERO PUSH2 0x1DEE JUMPI PUSH2 0x1DED PUSH2 0x1C1A JUMP JUMPDEST JUMPDEST PUSH1 0x0 PUSH2 0x1DFC DUP5 DUP3 DUP6 ADD PUSH2 0x1D25 JUMP JUMPDEST SWAP2 POP POP SWAP3 SWAP2 POP POP JUMP JUMPDEST PUSH2 0x1E0E DUP2 PUSH2 0x1D5A JUMP JUMPDEST DUP3 MSTORE POP POP JUMP JUMPDEST PUSH1 0x0 PUSH1 0x20 DUP3 ADD SWAP1 POP PUSH2 0x1E29 PUSH1 0x0 DUP4 ADD DUP5 PUSH2 0x1E05 JUMP JUMPDEST SWAP3 SWAP2 POP POP JUMP JUMPDEST PUSH1 0x0 PUSH1 0x20 DUP3 DUP5 SUB SLT ISZERO PUSH2 0x1E45 JUMPI PUSH2 0x1E44 PUSH2 0x1C1A JUMP JUMPDEST JUMPDEST PUSH1 0x0 PUSH2 0x1E53 DUP5 DUP3 DUP6 ADD PUSH2 0x1D83 JUMP JUMPDEST SWAP2 POP POP SWAP3 SWAP2 POP POP JUMP JUMPDEST PUSH1 0x0 DUP1 PUSH1 0x0 PUSH1 0x60 DUP5 DUP7 SUB SLT ISZERO PUSH2 0x1E75 JUMPI PUSH2 0x1E74 PUSH2 0x1C1A JUMP JUMPDEST JUMPDEST PUSH1 0x0 PUSH2 0x1E83 DUP7 DUP3 DUP8 ADD PUSH2 0x1D25 JUMP JUMPDEST SWAP4 POP POP PUSH1 0x20 PUSH2 0x1E94 DUP7 DUP3 DUP8 ADD PUSH2 0x1D25 JUMP JUMPDEST SWAP3 POP POP PUSH1 0x40 PUSH2 0x1EA5 DUP7 DUP3 DUP8 ADD PUSH2 0x1D25 JUMP JUMPDEST SWAP2 POP POP SWAP3 POP SWAP3 POP SWAP3 JUMP JUMPDEST PUSH1 0x0 DUP1 PUSH1 0x40 DUP4 DUP6 SUB SLT ISZERO PUSH2 0x1EC6 JUMPI PUSH2 0x1EC5 PUSH2 0x1C1A JUMP JUMPDEST JUMPDEST PUSH1 0x0 PUSH2 0x1ED4 DUP6 DUP3 DUP7 ADD PUSH2 0x1D25 JUMP JUMPDEST SWAP3 POP POP PUSH1 0x20 PUSH2 0x1EE5 DUP6 DUP3 DUP7 ADD PUSH2 0x1D25 JUMP JUMPDEST SWAP2 POP POP SWAP3 POP SWAP3 SWAP1 POP JUMP JUMPDEST PUSH1 0x0 DUP1 PUSH1 0x40 DUP4 DUP6 SUB SLT ISZERO PUSH2 0x1F06 JUMPI PUSH2 0x1F05 PUSH2 0x1C1A JUMP JUMPDEST JUMPDEST PUSH1 0x0 PUSH2 0x1F14 DUP6 DUP3 DUP7 ADD PUSH2 0x1D83 JUMP JUMPDEST SWAP3 POP POP PUSH1 0x20 PUSH2 0x1F25 DUP6 DUP3 DUP7 ADD PUSH2 0x1D25 JUMP JUMPDEST SWAP2 POP POP SWAP3 POP SWAP3 SWAP1 POP JUMP JUMPDEST PUSH1 0x0 DUP2 MLOAD SWAP1 POP SWAP2 SWAP1 POP JUMP JUMPDEST PUSH1 0x0 DUP3 DUP3 MSTORE PUSH1 0x20 DUP3 ADD SWAP1 POP SWAP3 SWAP2 POP POP JUMP JUMPDEST PUSH1 0x0 JUMPDEST DUP4 DUP2 LT ISZERO PUSH2 0x1F69 JUMPI DUP1 DUP3 ADD MLOAD DUP2 DUP5 ADD MSTORE PUSH1 0x20 DUP2 ADD SWAP1 POP PUSH2 0x1F4E JUMP JUMPDEST DUP4 DUP2 GT ISZERO PUSH2 0x1F78 JUMPI PUSH1 0x0 DUP5 DUP5 ADD MSTORE JUMPDEST POP POP POP POP JUMP JUMPDEST PUSH1 0x0 PUSH1 0x1F NOT PUSH1 0x1F DUP4 ADD AND SWAP1 POP SWAP2 SWAP1 POP JUMP JUMPDEST PUSH1 0x0 PUSH2 0x1F9A DUP3 PUSH2 0x1F2F JUMP JUMPDEST PUSH2 0x1FA4 DUP2 DUP6 PUSH2 0x1F3A JUMP JUMPDEST SWAP4 POP PUSH2 0x1FB4 DUP2 DUP6 PUSH1 0x20 DUP7 ADD PUSH2 0x1F4B JUMP JUMPDEST PUSH2 0x1FBD DUP2 PUSH2 0x1F7E JUMP JUMPDEST DUP5 ADD SWAP2 POP POP SWAP3 SWAP2 POP POP JUMP JUMPDEST PUSH1 0x0 PUSH1 0x20 DUP3 ADD SWAP1 POP DUP2 DUP2 SUB PUSH1 0x0 DUP4 ADD MSTORE PUSH2 0x1FE2 DUP2 DUP5 PUSH2 0x1F8F JUMP JUMPDEST SWAP1 POP SWAP3 SWAP2 POP POP JUMP JUMPDEST PUSH32 0x4F6E6C7920666163746F72792063616E2064657461636820697473656C660000 PUSH1 0x0 DUP3 ADD MSTORE POP JUMP JUMPDEST PUSH1 0x0 PUSH2 0x2020 PUSH1 0x1E DUP4 PUSH2 0x1F3A JUMP JUMPDEST SWAP2 POP PUSH2 0x202B DUP3 PUSH2 0x1FEA JUMP JUMPDEST PUSH1 0x20 DUP3 ADD SWAP1 POP SWAP2 SWAP1 POP JUMP JUMPDEST PUSH1 0x0 PUSH1 0x20 DUP3 ADD SWAP1 POP DUP2 DUP2 SUB PUSH1 0x0 DUP4 ADD MSTORE PUSH2 0x204F DUP2 PUSH2 0x2013 JUMP JUMPDEST SWAP1 POP SWAP2 SWAP1 POP JUMP JUMPDEST PUSH32 0x4F776E65723A2063616C6C6572206973206E6F7420746865206F776E65720000 PUSH1 0x0 DUP3 ADD MSTORE POP JUMP JUMPDEST PUSH1 0x0 PUSH2 0x208C PUSH1 0x1E DUP4 PUSH2 0x1F3A JUMP JUMPDEST SWAP2 POP PUSH2 0x2097 DUP3 PUSH2 0x2056 JUMP JUMPDEST PUSH1 0x20 DUP3 ADD SWAP1 POP SWAP2 SWAP1 POP JUMP JUMPDEST PUSH1 0x0 PUSH1 0x20 DUP3 ADD SWAP1 POP DUP2 DUP2 SUB PUSH1 0x0 DUP4 ADD MSTORE PUSH2 0x20BB DUP2 PUSH2 0x207F JUMP JUMPDEST SWAP1 POP SWAP2 SWAP1 POP JUMP JUMPDEST PUSH1 0x0 DUP2 MLOAD SWAP1 POP PUSH2 0x20D1 DUP2 PUSH2 0x1D0E JUMP JUMPDEST SWAP3 SWAP2 POP POP JUMP JUMPDEST PUSH1 0x0 DUP2 MLOAD SWAP1 POP PUSH2 0x20E6 DUP2 PUSH2 0x1D6C JUMP JUMPDEST SWAP3 SWAP2 POP POP JUMP JUMPDEST PUSH1 0x0 DUP1 PUSH1 0x40 DUP4 DUP6 SUB SLT ISZERO PUSH2 0x2103 JUMPI PUSH2 0x2102 PUSH2 0x1C1A JUMP JUMPDEST JUMPDEST PUSH1 0x0 PUSH2 0x2111 DUP6 DUP3 DUP7 ADD PUSH2 0x20C2 JUMP JUMPDEST SWAP3 POP POP PUSH1 0x20 PUSH2 0x2122 DUP6 DUP3 DUP7 ADD PUSH2 0x20D7 JUMP JUMPDEST SWAP2 POP POP SWAP3 POP SWAP3 SWAP1 POP JUMP JUMPDEST PUSH32 0x506C656173652070726F7669646520656E6F7567682066656500000000000000 PUSH1 0x0 DUP3 ADD MSTORE POP JUMP JUMPDEST PUSH1 0x0 PUSH2 0x2162 PUSH1 0x19 DUP4 PUSH2 0x1F3A JUMP JUMPDEST SWAP2 POP PUSH2 0x216D DUP3 PUSH2 0x212C JUMP JUMPDEST PUSH1 0x20 DUP3 ADD SWAP1 POP SWAP2 SWAP1 POP JUMP JUMPDEST PUSH1 0x0 PUSH1 0x20 DUP3 ADD SWAP1 POP DUP2 DUP2 SUB PUSH1 0x0 DUP4 ADD MSTORE PUSH2 0x2191 DUP2 PUSH2 0x2155 JUMP JUMPDEST SWAP1 POP SWAP2 SWAP1 POP JUMP JUMPDEST PUSH32 0x41646472657373207A65726F206973206E6F7420612076616C6964206F776E65 PUSH1 0x0 DUP3 ADD MSTORE PUSH32 0x7200000000000000000000000000000000000000000000000000000000000000 PUSH1 0x20 DUP3 ADD MSTORE POP JUMP JUMPDEST PUSH1 0x0 PUSH2 0x21F4 PUSH1 0x21 DUP4 PUSH2 0x1F3A JUMP JUMPDEST SWAP2 POP PUSH2 0x21FF DUP3 PUSH2 0x2198 JUMP JUMPDEST PUSH1 0x40 DUP3 ADD SWAP1 POP SWAP2 SWAP1 POP JUMP JUMPDEST PUSH1 0x0 PUSH1 0x20 DUP3 ADD SWAP1 POP DUP2 DUP2 SUB PUSH1 0x0 DUP4 ADD MSTORE PUSH2 0x2223 DUP2 PUSH2 0x21E7 JUMP JUMPDEST SWAP1 POP SWAP2 SWAP1 POP JUMP JUMPDEST PUSH32 0x496E76616C6964207461782076616C7565000000000000000000000000000000 PUSH1 0x0 DUP3 ADD MSTORE POP JUMP JUMPDEST PUSH1 0x0 PUSH2 0x2260 PUSH1 0x11 DUP4 PUSH2 0x1F3A JUMP JUMPDEST SWAP2 POP PUSH2 0x226B DUP3 PUSH2 0x222A JUMP JUMPDEST PUSH1 0x20 DUP3 ADD SWAP1 POP SWAP2 SWAP1 POP JUMP JUMPDEST PUSH1 0x0 PUSH1 0x20 DUP3 ADD SWAP1 POP DUP2 DUP2 SUB PUSH1 0x0 DUP4 ADD MSTORE PUSH2 0x228F DUP2 PUSH2 0x2253 JUMP JUMPDEST SWAP1 POP SWAP2 SWAP1 POP JUMP JUMPDEST PUSH32 0x4D617820313020646563696D616C730000000000000000000000000000000000 PUSH1 0x0 DUP3 ADD MSTORE POP JUMP JUMPDEST PUSH1 0x0 PUSH2 0x22CC PUSH1 0xF DUP4 PUSH2 0x1F3A JUMP JUMPDEST SWAP2 POP PUSH2 0x22D7 DUP3 PUSH2 0x2296 JUMP JUMPDEST PUSH1 0x20 DUP3 ADD SWAP1 POP SWAP2 SWAP1 POP JUMP JUMPDEST PUSH1 0x0 PUSH1 0x20 DUP3 ADD SWAP1 POP DUP2 DUP2 SUB PUSH1 0x0 DUP4 ADD MSTORE PUSH2 0x22FB DUP2 PUSH2 0x22BF JUMP JUMPDEST SWAP1 POP SWAP2 SWAP1 POP JUMP JUMPDEST PUSH32 0x596F7520646F6E2774206F776E2074686973207469636B657400000000000000 PUSH1 0x0 DUP3 ADD MSTORE POP JUMP JUMPDEST PUSH1 0x0 PUSH2 0x2338 PUSH1 0x19 DUP4 PUSH2 0x1F3A JUMP JUMPDEST SWAP2 POP PUSH2 0x2343 DUP3 PUSH2 0x2302 JUMP JUMPDEST PUSH1 0x20 DUP3 ADD SWAP1 POP SWAP2 SWAP1 POP JUMP JUMPDEST PUSH1 0x0 PUSH1 0x20 DUP3 ADD SWAP1 POP DUP2 DUP2 SUB PUSH1 0x0 DUP4 ADD MSTORE PUSH2 0x2367 DUP2 PUSH2 0x232B JUMP JUMPDEST SWAP1 POP SWAP2 SWAP1 POP JUMP JUMPDEST PUSH32 0x5072696365206D7573742062652067726561746572207468616E207A65726F00 PUSH1 0x0 DUP3 ADD MSTORE POP JUMP JUMPDEST PUSH1 0x0 PUSH2 0x23A4 PUSH1 0x1F DUP4 PUSH2 0x1F3A JUMP JUMPDEST SWAP2 POP PUSH2 0x23AF DUP3 PUSH2 0x236E JUMP JUMPDEST PUSH1 0x20 DUP3 ADD SWAP1 POP SWAP2 SWAP1 POP JUMP JUMPDEST PUSH1 0x0 PUSH1 0x20 DUP3 ADD SWAP1 POP DUP2 DUP2 SUB PUSH1 0x0 DUP4 ADD MSTORE PUSH2 0x23D3 DUP2 PUSH2 0x2397 JUMP JUMPDEST SWAP1 POP SWAP2 SWAP1 POP JUMP JUMPDEST PUSH32 0x5472616E736665722063616C6C6572206973206E6F74206F776E657200000000 PUSH1 0x0 DUP3 ADD MSTORE POP JUMP JUMPDEST PUSH1 0x0 PUSH2 0x2410 PUSH1 0x1C DUP4 PUSH2 0x1F3A JUMP JUMPDEST SWAP2 POP PUSH2 0x241B DUP3 PUSH2 0x23DA JUMP JUMPDEST PUSH1 0x20 DUP3 ADD SWAP1 POP SWAP2 SWAP1 POP JUMP JUMPDEST PUSH1 0x0 PUSH1 0x20 DUP3 ADD SWAP1 POP DUP2 DUP2 SUB PUSH1 0x0 DUP4 ADD MSTORE PUSH2 0x243F DUP2 PUSH2 0x2403 JUMP JUMPDEST SWAP1 POP SWAP2 SWAP1 POP JUMP JUMPDEST PUSH32 0x5472616E7366657220746F20746865207A65726F206164647265737300000000 PUSH1 0x0 DUP3 ADD MSTORE POP JUMP JUMPDEST PUSH1 0x0 PUSH2 0x247C PUSH1 0x1C DUP4 PUSH2 0x1F3A JUMP JUMPDEST SWAP2 POP PUSH2 0x2487 DUP3 PUSH2 0x2446 JUMP JUMPDEST PUSH1 0x20 DUP3 ADD SWAP1 POP SWAP2 SWAP1 POP JUMP JUMPDEST PUSH1 0x0 PUSH1 0x20 DUP3 ADD SWAP1 POP DUP2 DUP2 SUB PUSH1 0x0 DUP4 ADD MSTORE PUSH2 0x24AB DUP2 PUSH2 0x246F JUMP JUMPDEST SWAP1 POP SWAP2 SWAP1 POP JUMP JUMPDEST PUSH32 0x4E487B7100000000000000000000000000000000000000000000000000000000 PUSH1 0x0 MSTORE PUSH1 0x11 PUSH1 0x4 MSTORE PUSH1 0x24 PUSH1 0x0 REVERT JUMPDEST PUSH1 0x0 PUSH2 0x24EC DUP3 PUSH2 0x1CDA JUMP JUMPDEST SWAP2 POP PUSH2 0x24F7 DUP4 PUSH2 0x1CDA JUMP JUMPDEST SWAP3 POP DUP3 DUP3 LT ISZERO PUSH2 0x250A JUMPI PUSH2 0x2509 PUSH2 0x24B2 JUMP JUMPDEST JUMPDEST DUP3 DUP3 SUB SWAP1 POP SWAP3 SWAP2 POP POP JUMP JUMPDEST PUSH1 0x0 PUSH2 0x2520 DUP3 PUSH2 0x1CDA JUMP JUMPDEST SWAP2 POP PUSH2 0x252B DUP4 PUSH2 0x1CDA JUMP JUMPDEST SWAP3 POP DUP3 PUSH32 0xFFFFFFFFFFFFFFFFFFFFFFFFFFFFFFFFFFFFFFFFFFFFFFFFFFFFFFFFFFFFFFFF SUB DUP3 GT ISZERO PUSH2 0x2560 JUMPI PUSH2 0x255F PUSH2 0x24B2 JUMP JUMPDEST JUMPDEST DUP3 DUP3 ADD SWAP1 POP SWAP3 SWAP2 POP POP JUMP JUMPDEST PUSH32 0x4E487B7100000000000000000000000000000000000000000000000000000000 PUSH1 0x0 MSTORE PUSH1 0x22 PUSH1 0x4 MSTORE PUSH1 0x24 PUSH1 0x0 REVERT JUMPDEST PUSH1 0x0 PUSH1 0x2 DUP3 DIV SWAP1 POP PUSH1 0x1 DUP3 AND DUP1 PUSH2 0x25B2 JUMPI PUSH1 0x7F DUP3 AND SWAP2 POP JUMPDEST PUSH1 0x20 DUP3 LT DUP2 SUB PUSH2 0x25C5 JUMPI PUSH2 0x25C4 PUSH2 0x256B JUMP JUMPDEST JUMPDEST POP SWAP2 SWAP1 POP JUMP JUMPDEST PUSH32 0x5469636B6574206E6F7420617661696C61626C65000000000000000000000000 PUSH1 0x0 DUP3 ADD MSTORE POP JUMP JUMPDEST PUSH1 0x0 PUSH2 0x2601 PUSH1 0x14 DUP4 PUSH2 0x1F3A JUMP JUMPDEST SWAP2 POP PUSH2 0x260C DUP3 PUSH2 0x25CB JUMP JUMPDEST PUSH1 0x20 DUP3 ADD SWAP1 POP SWAP2 SWAP1 POP JUMP JUMPDEST PUSH1 0x0 PUSH1 0x20 DUP3 ADD SWAP1 POP DUP2 DUP2 SUB PUSH1 0x0 DUP4 ADD MSTORE PUSH2 0x2630 DUP2 PUSH2 0x25F4 JUMP JUMPDEST SWAP1 POP SWAP2 SWAP1 POP JUMP JUMPDEST PUSH1 0x0 PUSH2 0x2642 DUP3 PUSH2 0x1CDA JUMP JUMPDEST SWAP2 POP PUSH32 0xFFFFFFFFFFFFFFFFFFFFFFFFFFFFFFFFFFFFFFFFFFFFFFFFFFFFFFFFFFFFFFFF DUP3 SUB PUSH2 0x2674 JUMPI PUSH2 0x2673 PUSH2 0x24B2 JUMP JUMPDEST JUMPDEST PUSH1 0x1 DUP3 ADD SWAP1 POP SWAP2 SWAP1 POP JUMP JUMPDEST PUSH32 0x4F776E61626C653A206E6577206F776E657220697320746865207A65726F2061 PUSH1 0x0 DUP3 ADD MSTORE PUSH32 0x6464726573730000000000000000000000000000000000000000000000000000 PUSH1 0x20 DUP3 ADD MSTORE POP JUMP JUMPDEST PUSH1 0x0 PUSH2 0x26DB PUSH1 0x26 DUP4 PUSH2 0x1F3A JUMP JUMPDEST SWAP2 POP PUSH2 0x26E6 DUP3 PUSH2 0x267F JUMP JUMPDEST PUSH1 0x40 DUP3 ADD SWAP1 POP SWAP2 SWAP1 POP JUMP JUMPDEST PUSH1 0x0 PUSH1 0x20 DUP3 ADD SWAP1 POP DUP2 DUP2 SUB PUSH1 0x0 DUP4 ADD MSTORE PUSH2 0x270A DUP2 PUSH2 0x26CE JUMP JUMPDEST SWAP1 POP SWAP2 SWAP1 POP JUMP JUMPDEST PUSH1 0x0 PUSH1 0x20 DUP3 DUP5 SUB SLT ISZERO PUSH2 0x2727 JUMPI PUSH2 0x2726 PUSH2 0x1C1A JUMP JUMPDEST JUMPDEST PUSH1 0x0 PUSH2 0x2735 DUP5 DUP3 DUP6 ADD PUSH2 0x20C2 JUMP JUMPDEST SWAP2 POP POP SWAP3 SWAP2 POP POP JUMP JUMPDEST PUSH1 0x0 PUSH1 0x40 DUP3 ADD SWAP1 POP PUSH2 0x2753 PUSH1 0x0 DUP4 ADD DUP6 PUSH2 0x1E05 JUMP JUMPDEST PUSH2 0x2760 PUSH1 0x20 DUP4 ADD DUP5 PUSH2 0x1CE4 JUMP JUMPDEST SWAP4 SWAP3 POP POP POP JUMP JUMPDEST PUSH2 0x2770 DUP2 PUSH2 0x1CA4 JUMP JUMPDEST DUP2 EQ PUSH2 0x277B JUMPI PUSH1 0x0 DUP1 REVERT JUMPDEST POP JUMP JUMPDEST PUSH1 0x0 DUP2 MLOAD SWAP1 POP PUSH2 0x278D DUP2 PUSH2 0x2767 JUMP JUMPDEST SWAP3 SWAP2 POP POP JUMP JUMPDEST PUSH1 0x0 PUSH1 0x20 DUP3 DUP5 SUB SLT ISZERO PUSH2 0x27A9 JUMPI PUSH2 0x27A8 PUSH2 0x1C1A JUMP JUMPDEST JUMPDEST PUSH1 0x0 PUSH2 0x27B7 DUP5 DUP3 DUP6 ADD PUSH2 0x277E JUMP JUMPDEST SWAP2 POP POP SWAP3 SWAP2 POP POP JUMP JUMPDEST PUSH32 0x526F79616C7479206D757374206265206265747765656E203020616E64203130 PUSH1 0x0 DUP3 ADD MSTORE PUSH32 0x3030000000000000000000000000000000000000000000000000000000000000 PUSH1 0x20 DUP3 ADD MSTORE POP JUMP JUMPDEST PUSH1 0x0 PUSH2 0x281C PUSH1 0x22 DUP4 PUSH2 0x1F3A JUMP JUMPDEST SWAP2 POP PUSH2 0x2827 DUP3 PUSH2 0x27C0 JUMP JUMPDEST PUSH1 0x40 DUP3 ADD SWAP1 POP SWAP2 SWAP1 POP JUMP JUMPDEST PUSH1 0x0 PUSH1 0x20 DUP3 ADD SWAP1 POP DUP2 DUP2 SUB PUSH1 0x0 DUP4 ADD MSTORE PUSH2 0x284B DUP2 PUSH2 0x280F JUMP JUMPDEST SWAP1 POP SWAP2 SWAP1 POP JUMP JUMPDEST PUSH32 0x5265656E7472616E637947756172643A207265656E7472616E742063616C6C00 PUSH1 0x0 DUP3 ADD MSTORE POP JUMP JUMPDEST PUSH1 0x0 PUSH2 0x2888 PUSH1 0x1F DUP4 PUSH2 0x1F3A JUMP JUMPDEST SWAP2 POP PUSH2 0x2893 DUP3 PUSH2 0x2852 JUMP JUMPDEST PUSH1 0x20 DUP3 ADD SWAP1 POP SWAP2 SWAP1 POP JUMP JUMPDEST PUSH1 0x0 PUSH1 0x20 DUP3 ADD SWAP1 POP DUP2 DUP2 SUB PUSH1 0x0 DUP4 ADD MSTORE PUSH2 0x28B7 DUP2 PUSH2 0x287B JUMP JUMPDEST SWAP1 POP SWAP2 SWAP1 POP JUMP JUMPDEST PUSH32 0x496E76616C69642073656E646572000000000000000000000000000000000000 PUSH1 0x0 DUP3 ADD MSTORE POP JUMP JUMPDEST PUSH1 0x0 PUSH2 0x28F4 PUSH1 0xE DUP4 PUSH2 0x1F3A JUMP JUMPDEST SWAP2 POP PUSH2 0x28FF DUP3 PUSH2 0x28BE JUMP JUMPDEST PUSH1 0x20 DUP3 ADD SWAP1 POP SWAP2 SWAP1 POP JUMP JUMPDEST PUSH1 0x0 PUSH1 0x20 DUP3 ADD SWAP1 POP DUP2 DUP2 SUB PUSH1 0x0 DUP4 ADD MSTORE PUSH2 0x2923 DUP2 PUSH2 0x28E7 JUMP JUMPDEST SWAP1 POP SWAP2 SWAP1 POP JUMP JUMPDEST PUSH32 0x496E73756666696369656E7420746F6B656E207375626D697474656400000000 PUSH1 0x0 DUP3 ADD MSTORE POP JUMP JUMPDEST PUSH1 0x0 PUSH2 0x2960 PUSH1 0x1C DUP4 PUSH2 0x1F3A JUMP JUMPDEST SWAP2 POP PUSH2 0x296B DUP3 PUSH2 0x292A JUMP JUMPDEST PUSH1 0x20 DUP3 ADD SWAP1 POP SWAP2 SWAP1 POP JUMP JUMPDEST PUSH1 0x0 PUSH1 0x20 DUP3 ADD SWAP1 POP DUP2 DUP2 SUB PUSH1 0x0 DUP4 ADD MSTORE PUSH2 0x298F DUP2 PUSH2 0x2953 JUMP JUMPDEST SWAP1 POP SWAP2 SWAP1 POP JUMP JUMPDEST PUSH1 0x0 PUSH1 0x40 DUP3 ADD SWAP1 POP PUSH2 0x29AB PUSH1 0x0 DUP4 ADD DUP6 PUSH2 0x1E05 JUMP JUMPDEST PUSH2 0x29B8 PUSH1 0x20 DUP4 ADD DUP5 PUSH2 0x1E05 JUMP JUMPDEST SWAP4 SWAP3 POP POP POP JUMP JUMPDEST PUSH32 0x496E73756666696369656E7420616C6C6F77616E63652070726F766964656400 PUSH1 0x0 DUP3 ADD MSTORE POP JUMP JUMPDEST PUSH1 0x0 PUSH2 0x29F5 PUSH1 0x1F DUP4 PUSH2 0x1F3A JUMP JUMPDEST SWAP2 POP PUSH2 0x2A00 DUP3 PUSH2 0x29BF JUMP JUMPDEST PUSH1 0x20 DUP3 ADD SWAP1 POP SWAP2 SWAP1 POP JUMP JUMPDEST PUSH1 0x0 PUSH1 0x20 DUP3 ADD SWAP1 POP DUP2 DUP2 SUB PUSH1 0x0 DUP4 ADD MSTORE PUSH2 0x2A24 DUP2 PUSH2 0x29E8 JUMP JUMPDEST SWAP1 POP SWAP2 SWAP1 POP JUMP JUMPDEST PUSH32 0x496E73756666696369656E742066756E64732070726F7669646564202876616C PUSH1 0x0 DUP3 ADD MSTORE PUSH32 0x7565290000000000000000000000000000000000000000000000000000000000 PUSH1 0x20 DUP3 ADD MSTORE POP JUMP JUMPDEST PUSH1 0x0 PUSH2 0x2A87 PUSH1 0x23 DUP4 PUSH2 0x1F3A JUMP JUMPDEST SWAP2 POP PUSH2 0x2A92 DUP3 PUSH2 0x2A2B JUMP JUMPDEST PUSH1 0x40 DUP3 ADD SWAP1 POP SWAP2 SWAP1 POP JUMP JUMPDEST PUSH1 0x0 PUSH1 0x20 DUP3 ADD SWAP1 POP DUP2 DUP2 SUB PUSH1 0x0 DUP4 ADD MSTORE PUSH2 0x2AB6 DUP2 PUSH2 0x2A7A JUMP JUMPDEST SWAP1 POP SWAP2 SWAP1 POP JUMP JUMPDEST PUSH1 0x0 PUSH1 0x60 DUP3 ADD SWAP1 POP PUSH2 0x2AD2 PUSH1 0x0 DUP4 ADD DUP7 PUSH2 0x1E05 JUMP JUMPDEST PUSH2 0x2ADF PUSH1 0x20 DUP4 ADD DUP6 PUSH2 0x1E05 JUMP JUMPDEST PUSH2 0x2AEC PUSH1 0x40 DUP4 ADD DUP5 PUSH2 0x1CE4 JUMP JUMPDEST SWAP5 SWAP4 POP POP POP POP JUMP INVALID LOG2 PUSH5 0x6970667358 0x22 SLT KECCAK256 DUP2 PUSH6 0xAC10122238FB GAS PUSH9 0xCE543D34F43A53B71F ORIGIN RETURN CALLDATALOAD 0xE8 0x28 PUSH21 0x20B382ABA9B42B64736F6C634300080E0033000000 "
				},
				"gasEstimates": {
					"creation": {
						"codeDepositCost": "2210000",
						"executionCost": "infinite",
						"totalCost": "infinite"
					},
					"external": {
						"balanceOf(address)": "2965",
						"detach()": "26681",
						"getRoyalty()": "2460",
						"initialize(uint256,uint256,uint256)": "infinite",
						"isForSale(uint256)": "2866",
						"offer(uint256,uint256)": "infinite",
						"owner()": "2589",
						"ownerOf(uint256)": "2932",
						"price()": "2518",
						"priceOf(uint256)": "infinite",
						"purchase(uint256)": "infinite",
						"purchased()": "2474",
						"setRoyalties(uint256,address)": "infinite",
						"supportsInterface(bytes4)": "630",
						"tokenURI(uint256)": "infinite",
						"totalSupply()": "2475",
						"transfer(address,uint256)": "infinite",
						"transferOwnership(address)": "27072",
						"withdraw()": "infinite"
					}
				},
				"methodIdentifiers": {
					"balanceOf(address)": "70a08231",
					"detach()": "225435c0",
					"getRoyalty()": "4d47732a",
					"initialize(uint256,uint256,uint256)": "80d85911",
					"isForSale(uint256)": "8546d002",
					"offer(uint256,uint256)": "a1920586",
					"owner()": "8da5cb5b",
					"ownerOf(uint256)": "6352211e",
					"price()": "a035b1fe",
					"priceOf(uint256)": "b9186d7d",
					"purchase(uint256)": "efef39a1",
					"purchased()": "879f9c96",
					"setRoyalties(uint256,address)": "5de42985",
					"supportsInterface(bytes4)": "01ffc9a7",
					"tokenURI(uint256)": "c87b56dd",
					"totalSupply()": "18160ddd",
					"transfer(address,uint256)": "a9059cbb",
					"transferOwnership(address)": "f2fde38b",
					"withdraw()": "3ccfd60b"
				}
			},
			"storageLayout": {
				"storage": [
					{
						"astId": 10,
						"contract": "contracts/DvTicket.sol:DvTicket",
						"label": "_factory",
						"offset": 0,
						"slot": "0",
						"type": "t_contract(DvFactory)322"
					},
					{
						"astId": 12,
						"contract": "contracts/DvTicket.sol:DvTicket",
						"label": "_owner",
						"offset": 0,
						"slot": "1",
						"type": "t_address"
					},
					{
						"astId": 14,
						"contract": "contracts/DvTicket.sol:DvTicket",
						"label": "_royaltyRecipient",
						"offset": 0,
						"slot": "2",
						"type": "t_address"
					},
					{
						"astId": 17,
						"contract": "contracts/DvTicket.sol:DvTicket",
						"label": "_royalty",
						"offset": 0,
						"slot": "3",
						"type": "t_uint256"
					},
					{
						"astId": 526,
						"contract": "contracts/DvTicket.sol:DvTicket",
						"label": "_status",
						"offset": 0,
						"slot": "4",
						"type": "t_uint256"
					},
					{
						"astId": 327,
						"contract": "contracts/DvTicket.sol:DvTicket",
						"label": "_vestingToken",
						"offset": 0,
						"slot": "5",
						"type": "t_address"
					},
					{
						"astId": 700,
						"contract": "contracts/DvTicket.sol:DvTicket",
						"label": "price",
						"offset": 0,
						"slot": "6",
						"type": "t_uint256"
					},
					{
						"astId": 702,
						"contract": "contracts/DvTicket.sol:DvTicket",
						"label": "totalSupply",
						"offset": 0,
						"slot": "7",
						"type": "t_uint256"
					},
					{
						"astId": 705,
						"contract": "contracts/DvTicket.sol:DvTicket",
						"label": "purchased",
						"offset": 0,
						"slot": "8",
						"type": "t_uint256"
					},
					{
						"astId": 709,
						"contract": "contracts/DvTicket.sol:DvTicket",
						"label": "_tickets",
						"offset": 0,
						"slot": "9",
						"type": "t_mapping(t_uint256,t_address)"
					},
					{
						"astId": 713,
						"contract": "contracts/DvTicket.sol:DvTicket",
						"label": "_balances",
						"offset": 0,
						"slot": "10",
						"type": "t_mapping(t_address,t_uint256)"
					},
					{
						"astId": 717,
						"contract": "contracts/DvTicket.sol:DvTicket",
						"label": "_offeredTickets",
						"offset": 0,
						"slot": "11",
						"type": "t_mapping(t_uint256,t_address)"
					},
					{
						"astId": 721,
						"contract": "contracts/DvTicket.sol:DvTicket",
						"label": "_offeredPrices",
						"offset": 0,
						"slot": "12",
						"type": "t_mapping(t_uint256,t_uint256)"
					},
					{
						"astId": 723,
						"contract": "contracts/DvTicket.sol:DvTicket",
						"label": "_name",
						"offset": 0,
						"slot": "13",
						"type": "t_string_storage"
					},
					{
						"astId": 725,
						"contract": "contracts/DvTicket.sol:DvTicket",
						"label": "_symbol",
						"offset": 0,
						"slot": "14",
						"type": "t_string_storage"
					},
					{
						"astId": 727,
						"contract": "contracts/DvTicket.sol:DvTicket",
						"label": "_tokenURI",
						"offset": 0,
						"slot": "15",
						"type": "t_string_storage"
					}
				],
				"types": {
					"t_address": {
						"encoding": "inplace",
						"label": "address",
						"numberOfBytes": "20"
					},
					"t_contract(DvFactory)322": {
						"encoding": "inplace",
						"label": "contract DvFactory",
						"numberOfBytes": "20"
					},
					"t_mapping(t_address,t_uint256)": {
						"encoding": "mapping",
						"key": "t_address",
						"label": "mapping(address => uint256)",
						"numberOfBytes": "32",
						"value": "t_uint256"
					},
					"t_mapping(t_uint256,t_address)": {
						"encoding": "mapping",
						"key": "t_uint256",
						"label": "mapping(uint256 => address)",
						"numberOfBytes": "32",
						"value": "t_address"
					},
					"t_mapping(t_uint256,t_uint256)": {
						"encoding": "mapping",
						"key": "t_uint256",
						"label": "mapping(uint256 => uint256)",
						"numberOfBytes": "32",
						"value": "t_uint256"
					},
					"t_string_storage": {
						"encoding": "bytes",
						"label": "string",
						"numberOfBytes": "32"
					},
					"t_uint256": {
						"encoding": "inplace",
						"label": "uint256",
						"numberOfBytes": "32"
					}
				}
			},
			"userdoc": {
				"kind": "user",
				"methods": {
					"initialize(uint256,uint256,uint256)": {
						"notice": "Initialize TST as tangible"
					},
					"offer(uint256,uint256)": {
						"notice": "Offer ticket for sales"
					},
					"withdraw()": {
						"notice": "Withdraw tokens from purchases from this contract"
					}
				},
				"version": 1
			}
		}
	}
}