{
	"@devest/contracts/DeVest.sol": {
		"DeVest": {
			"abi": [
				{
					"inputs": [
						{
							"internalType": "address",
							"name": "__owner",
							"type": "address"
						},
						{
							"internalType": "address",
							"name": "factory",
							"type": "address"
						}
					],
					"stateMutability": "nonpayable",
					"type": "constructor"
				},
				{
					"inputs": [],
					"name": "detach",
					"outputs": [],
					"stateMutability": "nonpayable",
					"type": "function"
				},
				{
					"inputs": [],
					"name": "getRoyalty",
					"outputs": [
						{
							"internalType": "uint256",
							"name": "",
							"type": "uint256"
						}
					],
					"stateMutability": "view",
					"type": "function"
				},
				{
					"inputs": [],
					"name": "owner",
					"outputs": [
						{
							"internalType": "address",
							"name": "",
							"type": "address"
						}
					],
					"stateMutability": "view",
					"type": "function"
				},
				{
					"inputs": [
						{
							"internalType": "uint256",
							"name": "__royalty",
							"type": "uint256"
						},
						{
							"internalType": "address",
							"name": "__royaltyRecipient",
							"type": "address"
						}
					],
					"name": "setRoyalties",
					"outputs": [],
					"stateMutability": "payable",
					"type": "function"
				},
				{
					"inputs": [
						{
							"internalType": "address",
							"name": "newOwner",
							"type": "address"
						}
					],
					"name": "transferOwnership",
					"outputs": [],
					"stateMutability": "nonpayable",
					"type": "function"
				}
			],
			"devdoc": {
				"details": "Contract module which provides revenue (in terms of fee - transaction fees) model for a beneficiary This module is used through inheritance. It will make available the modifier `onlyHost`, which can be applied to your functions to restrict their use to the host.Contract module which provides ownership and a revenue model the owner can set a royalty and a royalty recipient the royalty is taken from the sender and sent to the royalty recipient",
				"kind": "dev",
				"methods": {
					"constructor": {
						"details": "Initializes the contract by setting reference to its factory"
					},
					"detach()": {
						"details": "Factory can detach itself from this contract"
					},
					"getRoyalty()": {
						"details": "Returns the contracts royalty"
					},
					"owner()": {
						"details": "Returns the address of the current owner."
					},
					"setRoyalties(uint256,address)": {
						"details": "set the native royalty and beneficiary, only owner"
					},
					"transferOwnership(address)": {
						"details": "Transfers ownership of the contract to a new account (`newOwner`). Can only be called by the current owner."
					}
				},
				"version": 1
			},
			"evm": {
				"assembly": "    /* \"@devest/contracts/DeVest.sol\":689:3382  contract DeVest is Context {... */\n  mstore(0x40, 0x80)\n    /* \"@devest/contracts/DeVest.sol\":1006:1007  0 */\n  0x00\n    /* \"@devest/contracts/DeVest.sol\":978:1007  uint256 internal _royalty = 0 */\n  0x03\n  sstore\n    /* \"@devest/contracts/DeVest.sol\":1103:1221  constructor(address __owner, address factory) {... */\n  callvalue\n  dup1\n  iszero\n  tag_1\n  jumpi\n  0x00\n  dup1\n  revert\ntag_1:\n  pop\n  mload(0x40)\n  sub(codesize, bytecodeSize)\n  dup1\n  bytecodeSize\n  dup4\n  codecopy\n  dup2\n  dup2\n  add\n  0x40\n  mstore\n  dup2\n  add\n  swap1\n  tag_2\n  swap2\n  swap1\n  tag_3\n  jump\t// in\ntag_2:\n    /* \"@devest/contracts/DeVest.sol\":1180:1187  factory */\n  dup1\n    /* \"@devest/contracts/DeVest.sol\":1159:1167  _factory */\n  0x00\n  dup1\n    /* \"@devest/contracts/DeVest.sol\":1159:1188  _factory = DvFactory(factory) */\n  0x0100\n  exp\n  dup2\n  sload\n  dup2\n  0xffffffffffffffffffffffffffffffffffffffff\n  mul\n  not\n  and\n  swap1\n  dup4\n  0xffffffffffffffffffffffffffffffffffffffff\n  and\n  mul\n  or\n  swap1\n  sstore\n  pop\n    /* \"@devest/contracts/DeVest.sol\":1207:1214  __owner */\n  dup2\n    /* \"@devest/contracts/DeVest.sol\":1198:1204  _owner */\n  0x01\n  0x00\n    /* \"@devest/contracts/DeVest.sol\":1198:1214  _owner = __owner */\n  0x0100\n  exp\n  dup2\n  sload\n  dup2\n  0xffffffffffffffffffffffffffffffffffffffff\n  mul\n  not\n  and\n  swap1\n  dup4\n  0xffffffffffffffffffffffffffffffffffffffff\n  and\n  mul\n  or\n  swap1\n  sstore\n  pop\n    /* \"@devest/contracts/DeVest.sol\":1103:1221  constructor(address __owner, address factory) {... */\n  pop\n  pop\n    /* \"@devest/contracts/DeVest.sol\":689:3382  contract DeVest is Context {... */\n  jump(tag_6)\n    /* \"#utility.yul\":88:205   */\ntag_8:\n    /* \"#utility.yul\":197:198   */\n  0x00\n    /* \"#utility.yul\":194:195   */\n  dup1\n    /* \"#utility.yul\":187:199   */\n  revert\n    /* \"#utility.yul\":334:460   */\ntag_10:\n    /* \"#utility.yul\":371:378   */\n  0x00\n    /* \"#utility.yul\":411:453   */\n  0xffffffffffffffffffffffffffffffffffffffff\n    /* \"#utility.yul\":404:409   */\n  dup3\n    /* \"#utility.yul\":400:454   */\n  and\n    /* \"#utility.yul\":389:454   */\n  swap1\n  pop\n    /* \"#utility.yul\":334:460   */\n  swap2\n  swap1\n  pop\n  jump\t// out\n    /* \"#utility.yul\":466:562   */\ntag_11:\n    /* \"#utility.yul\":503:510   */\n  0x00\n    /* \"#utility.yul\":532:556   */\n  tag_20\n    /* \"#utility.yul\":550:555   */\n  dup3\n    /* \"#utility.yul\":532:556   */\n  tag_10\n  jump\t// in\ntag_20:\n    /* \"#utility.yul\":521:556   */\n  swap1\n  pop\n    /* \"#utility.yul\":466:562   */\n  swap2\n  swap1\n  pop\n  jump\t// out\n    /* \"#utility.yul\":568:690   */\ntag_12:\n    /* \"#utility.yul\":641:665   */\n  tag_22\n    /* \"#utility.yul\":659:664   */\n  dup2\n    /* \"#utility.yul\":641:665   */\n  tag_11\n  jump\t// in\ntag_22:\n    /* \"#utility.yul\":634:639   */\n  dup2\n    /* \"#utility.yul\":631:666   */\n  eq\n    /* \"#utility.yul\":621:684   */\n  tag_23\n  jumpi\n    /* \"#utility.yul\":680:681   */\n  0x00\n    /* \"#utility.yul\":677:678   */\n  dup1\n    /* \"#utility.yul\":670:682   */\n  revert\n    /* \"#utility.yul\":621:684   */\ntag_23:\n    /* \"#utility.yul\":568:690   */\n  pop\n  jump\t// out\n    /* \"#utility.yul\":696:839   */\ntag_13:\n    /* \"#utility.yul\":753:758   */\n  0x00\n    /* \"#utility.yul\":784:790   */\n  dup2\n    /* \"#utility.yul\":778:791   */\n  mload\n    /* \"#utility.yul\":769:791   */\n  swap1\n  pop\n    /* \"#utility.yul\":800:833   */\n  tag_25\n    /* \"#utility.yul\":827:832   */\n  dup2\n    /* \"#utility.yul\":800:833   */\n  tag_12\n  jump\t// in\ntag_25:\n    /* \"#utility.yul\":696:839   */\n  swap3\n  swap2\n  pop\n  pop\n  jump\t// out\n    /* \"#utility.yul\":845:1352   */\ntag_3:\n    /* \"#utility.yul\":924:930   */\n  0x00\n    /* \"#utility.yul\":932:938   */\n  dup1\n    /* \"#utility.yul\":981:983   */\n  0x40\n    /* \"#utility.yul\":969:978   */\n  dup4\n    /* \"#utility.yul\":960:967   */\n  dup6\n    /* \"#utility.yul\":956:979   */\n  sub\n    /* \"#utility.yul\":952:984   */\n  slt\n    /* \"#utility.yul\":949:1068   */\n  iszero\n  tag_27\n  jumpi\n    /* \"#utility.yul\":987:1066   */\n  tag_28\n  tag_8\n  jump\t// in\ntag_28:\n    /* \"#utility.yul\":949:1068   */\ntag_27:\n    /* \"#utility.yul\":1107:1108   */\n  0x00\n    /* \"#utility.yul\":1132:1196   */\n  tag_29\n    /* \"#utility.yul\":1188:1195   */\n  dup6\n    /* \"#utility.yul\":1179:1185   */\n  dup3\n    /* \"#utility.yul\":1168:1177   */\n  dup7\n    /* \"#utility.yul\":1164:1186   */\n  add\n    /* \"#utility.yul\":1132:1196   */\n  tag_13\n  jump\t// in\ntag_29:\n    /* \"#utility.yul\":1122:1196   */\n  swap3\n  pop\n    /* \"#utility.yul\":1078:1206   */\n  pop\n    /* \"#utility.yul\":1245:1247   */\n  0x20\n    /* \"#utility.yul\":1271:1335   */\n  tag_30\n    /* \"#utility.yul\":1327:1334   */\n  dup6\n    /* \"#utility.yul\":1318:1324   */\n  dup3\n    /* \"#utility.yul\":1307:1316   */\n  dup7\n    /* \"#utility.yul\":1303:1325   */\n  add\n    /* \"#utility.yul\":1271:1335   */\n  tag_13\n  jump\t// in\ntag_30:\n    /* \"#utility.yul\":1261:1335   */\n  swap2\n  pop\n    /* \"#utility.yul\":1216:1345   */\n  pop\n    /* \"#utility.yul\":845:1352   */\n  swap3\n  pop\n  swap3\n  swap1\n  pop\n  jump\t// out\n    /* \"@devest/contracts/DeVest.sol\":689:3382  contract DeVest is Context {... */\ntag_6:\n  dataSize(sub_0)\n  dup1\n  dataOffset(sub_0)\n  0x00\n  codecopy\n  0x00\n  return\nstop\n\nsub_0: assembly {\n        /* \"@devest/contracts/DeVest.sol\":689:3382  contract DeVest is Context {... */\n      mstore(0x40, 0x80)\n      jumpi(tag_1, lt(calldatasize, 0x04))\n      shr(0xe0, calldataload(0x00))\n      dup1\n      0x225435c0\n      eq\n      tag_2\n      jumpi\n      dup1\n      0x4d47732a\n      eq\n      tag_3\n      jumpi\n      dup1\n      0x5de42985\n      eq\n      tag_4\n      jumpi\n      dup1\n      0x8da5cb5b\n      eq\n      tag_5\n      jumpi\n      dup1\n      0xf2fde38b\n      eq\n      tag_6\n      jumpi\n    tag_1:\n      0x00\n      dup1\n      revert\n        /* \"@devest/contracts/DeVest.sol\":3211:3379  function detach() public virtual {... */\n    tag_2:\n      callvalue\n      dup1\n      iszero\n      tag_7\n      jumpi\n      0x00\n      dup1\n      revert\n    tag_7:\n      pop\n      tag_8\n      tag_9\n      jump\t// in\n    tag_8:\n      stop\n        /* \"@devest/contracts/DeVest.sol\":3040:3132  function getRoyalty() public view virtual returns (uint256) {... */\n    tag_3:\n      callvalue\n      dup1\n      iszero\n      tag_10\n      jumpi\n      0x00\n      dup1\n      revert\n    tag_10:\n      pop\n      tag_11\n      tag_12\n      jump\t// in\n    tag_11:\n      mload(0x40)\n      tag_13\n      swap2\n      swap1\n      tag_14\n      jump\t// in\n    tag_13:\n      mload(0x40)\n      dup1\n      swap2\n      sub\n      swap1\n      return\n        /* \"@devest/contracts/DeVest.sol\":2053:2216  function setRoyalties(uint256 __royalty, address __royaltyRecipient) public payable takeFee onlyOwner {... */\n    tag_4:\n      tag_15\n      0x04\n      dup1\n      calldatasize\n      sub\n      dup2\n      add\n      swap1\n      tag_16\n      swap2\n      swap1\n      tag_17\n      jump\t// in\n    tag_16:\n      tag_18\n      jump\t// in\n    tag_15:\n      stop\n        /* \"@devest/contracts/DeVest.sol\":2890:2975  function owner() public view virtual returns (address) {... */\n    tag_5:\n      callvalue\n      dup1\n      iszero\n      tag_19\n      jumpi\n      0x00\n      dup1\n      revert\n    tag_19:\n      pop\n      tag_20\n      tag_21\n      jump\t// in\n    tag_20:\n      mload(0x40)\n      tag_22\n      swap2\n      swap1\n      tag_23\n      jump\t// in\n    tag_22:\n      mload(0x40)\n      dup1\n      swap2\n      sub\n      swap1\n      return\n        /* \"@devest/contracts/DeVest.sol\":2627:2814  function transferOwnership(address newOwner) public virtual onlyOwner {... */\n    tag_6:\n      callvalue\n      dup1\n      iszero\n      tag_24\n      jumpi\n      0x00\n      dup1\n      revert\n    tag_24:\n      pop\n      tag_25\n      0x04\n      dup1\n      calldatasize\n      sub\n      dup2\n      add\n      swap1\n      tag_26\n      swap2\n      swap1\n      tag_27\n      jump\t// in\n    tag_26:\n      tag_28\n      jump\t// in\n    tag_25:\n      stop\n        /* \"@devest/contracts/DeVest.sol\":3211:3379  function detach() public virtual {... */\n    tag_9:\n        /* \"@devest/contracts/DeVest.sol\":3283:3295  _msgSender() */\n      tag_30\n        /* \"@devest/contracts/DeVest.sol\":3283:3293  _msgSender */\n      tag_31\n        /* \"@devest/contracts/DeVest.sol\":3283:3295  _msgSender() */\n      jump\t// in\n    tag_30:\n        /* \"@devest/contracts/DeVest.sol\":3262:3295  address(_factory) == _msgSender() */\n      0xffffffffffffffffffffffffffffffffffffffff\n      and\n        /* \"@devest/contracts/DeVest.sol\":3270:3278  _factory */\n      0x00\n      dup1\n      sload\n      swap1\n      0x0100\n      exp\n      swap1\n      div\n      0xffffffffffffffffffffffffffffffffffffffff\n      and\n        /* \"@devest/contracts/DeVest.sol\":3262:3295  address(_factory) == _msgSender() */\n      0xffffffffffffffffffffffffffffffffffffffff\n      and\n      eq\n        /* \"@devest/contracts/DeVest.sol\":3254:3330  require(address(_factory) == _msgSender(), \"Only factory can detach itself\") */\n      tag_32\n      jumpi\n      mload(0x40)\n      0x08c379a000000000000000000000000000000000000000000000000000000000\n      dup2\n      mstore\n      0x04\n      add\n      tag_33\n      swap1\n      tag_34\n      jump\t// in\n    tag_33:\n      mload(0x40)\n      dup1\n      swap2\n      sub\n      swap1\n      revert\n    tag_32:\n        /* \"@devest/contracts/DeVest.sol\":3369:3370  0 */\n      0x00\n        /* \"@devest/contracts/DeVest.sol\":3340:3348  _factory */\n      dup1\n      0x00\n        /* \"@devest/contracts/DeVest.sol\":3340:3372  _factory = DvFactory(address(0)) */\n      0x0100\n      exp\n      dup2\n      sload\n      dup2\n      0xffffffffffffffffffffffffffffffffffffffff\n      mul\n      not\n      and\n      swap1\n      dup4\n      0xffffffffffffffffffffffffffffffffffffffff\n      and\n      mul\n      or\n      swap1\n      sstore\n      pop\n        /* \"@devest/contracts/DeVest.sol\":3211:3379  function detach() public virtual {... */\n      jump\t// out\n        /* \"@devest/contracts/DeVest.sol\":3040:3132  function getRoyalty() public view virtual returns (uint256) {... */\n    tag_12:\n        /* \"@devest/contracts/DeVest.sol\":3091:3098  uint256 */\n      0x00\n        /* \"@devest/contracts/DeVest.sol\":3117:3125  _royalty */\n      sload(0x03)\n        /* \"@devest/contracts/DeVest.sol\":3110:3125  return _royalty */\n      swap1\n      pop\n        /* \"@devest/contracts/DeVest.sol\":3040:3132  function getRoyalty() public view virtual returns (uint256) {... */\n      swap1\n      jump\t// out\n        /* \"@devest/contracts/DeVest.sol\":2053:2216  function setRoyalties(uint256 __royalty, address __royaltyRecipient) public payable takeFee onlyOwner {... */\n    tag_18:\n        /* \"@devest/contracts/DeVest.sol\":1617:1618  0 */\n      0x00\n        /* \"@devest/contracts/DeVest.sol\":1587:1620  _factory == DvFactory(address(0)) */\n      0xffffffffffffffffffffffffffffffffffffffff\n      and\n        /* \"@devest/contracts/DeVest.sol\":1587:1595  _factory */\n      0x00\n      dup1\n      sload\n      swap1\n      0x0100\n      exp\n      swap1\n      div\n      0xffffffffffffffffffffffffffffffffffffffff\n      and\n        /* \"@devest/contracts/DeVest.sol\":1587:1620  _factory == DvFactory(address(0)) */\n      0xffffffffffffffffffffffffffffffffffffffff\n      and\n      sub\n        /* \"@devest/contracts/DeVest.sol\":1583:1641  if (_factory == DvFactory(address(0)))... */\n      iszero\n        /* \"@devest/contracts/DeVest.sol\":1634:1641  return; */\n      tag_36\n        /* \"@devest/contracts/DeVest.sol\":1583:1641  if (_factory == DvFactory(address(0)))... */\n      jumpi\n        /* \"@devest/contracts/DeVest.sol\":1651:1668  address recipient */\n      0x00\n        /* \"@devest/contracts/DeVest.sol\":1678:1689  uint256 fee */\n      dup1\n        /* \"@devest/contracts/DeVest.sol\":1699:1715  uint256 issueFee */\n      0x00\n        /* \"@devest/contracts/DeVest.sol\":1779:1787  _factory */\n      dup1\n      0x00\n      swap1\n      sload\n      swap1\n      0x0100\n      exp\n      swap1\n      div\n      0xffffffffffffffffffffffffffffffffffffffff\n      and\n        /* \"@devest/contracts/DeVest.sol\":1779:1794  _factory.getFee */\n      0xffffffffffffffffffffffffffffffffffffffff\n      and\n      0xced72f87\n        /* \"@devest/contracts/DeVest.sol\":1779:1796  _factory.getFee() */\n      mload(0x40)\n      dup2\n      0xffffffff\n      and\n      0xe0\n      shl\n      dup2\n      mstore\n      0x04\n      add\n      0x40\n      dup1\n      mload\n      dup1\n      dup4\n      sub\n      dup2\n      dup7\n      gas\n      staticcall\n      iszero\n      dup1\n      iszero\n      tag_39\n      jumpi\n      returndatasize\n      0x00\n      dup1\n      returndatacopy\n      revert(0x00, returndatasize)\n    tag_39:\n      pop\n      pop\n      pop\n      pop\n      mload(0x40)\n      returndatasize\n      not(0x1f)\n      0x1f\n      dup3\n      add\n      and\n      dup3\n      add\n      dup1\n      0x40\n      mstore\n      pop\n      dup2\n      add\n      swap1\n      tag_40\n      swap2\n      swap1\n      tag_41\n      jump\t// in\n    tag_40:\n        /* \"@devest/contracts/DeVest.sol\":1760:1796  (fee, recipient) = _factory.getFee() */\n      dup1\n      swap5\n      pop\n      dup2\n      swap4\n      pop\n      pop\n      pop\n        /* \"@devest/contracts/DeVest.sol\":1875:1878  fee */\n      dup2\n        /* \"@devest/contracts/DeVest.sol\":1862:1871  msg.value */\n      callvalue\n        /* \"@devest/contracts/DeVest.sol\":1862:1878  msg.value >= fee */\n      lt\n      iszero\n        /* \"@devest/contracts/DeVest.sol\":1854:1908  require(msg.value >= fee, \"Please provide enough fee\") */\n      tag_42\n      jumpi\n      mload(0x40)\n      0x08c379a000000000000000000000000000000000000000000000000000000000\n      dup2\n      mstore\n      0x04\n      add\n      tag_43\n      swap1\n      tag_44\n      jump\t// in\n    tag_43:\n      mload(0x40)\n      dup1\n      swap2\n      sub\n      swap1\n      revert\n    tag_42:\n        /* \"@devest/contracts/DeVest.sol\":1926:1935  recipient */\n      dup3\n        /* \"@devest/contracts/DeVest.sol\":1918:1945  payable(recipient).transfer */\n      0xffffffffffffffffffffffffffffffffffffffff\n      and\n        /* \"@devest/contracts/DeVest.sol\":1918:1950  payable(recipient).transfer(fee) */\n      0x08fc\n        /* \"@devest/contracts/DeVest.sol\":1946:1949  fee */\n      dup4\n        /* \"@devest/contracts/DeVest.sol\":1918:1950  payable(recipient).transfer(fee) */\n      swap1\n      dup2\n      iszero\n      mul\n      swap1\n      mload(0x40)\n      0x00\n      mload(0x40)\n      dup1\n      dup4\n      sub\n      dup2\n      dup6\n      dup9\n      dup9\n      call\n      swap4\n      pop\n      pop\n      pop\n      pop\n      iszero\n      dup1\n      iszero\n      tag_46\n      jumpi\n      returndatasize\n      0x00\n      dup1\n      returndatacopy\n      revert(0x00, returndatasize)\n    tag_46:\n      pop\n        /* \"@devest/contracts/DeVest.sol\":1357:1369  _msgSender() */\n      tag_48\n        /* \"@devest/contracts/DeVest.sol\":1357:1367  _msgSender */\n      tag_31\n        /* \"@devest/contracts/DeVest.sol\":1357:1369  _msgSender() */\n      jump\t// in\n    tag_48:\n        /* \"@devest/contracts/DeVest.sol\":1347:1369  _owner == _msgSender() */\n      0xffffffffffffffffffffffffffffffffffffffff\n      and\n        /* \"@devest/contracts/DeVest.sol\":1347:1353  _owner */\n      0x01\n      0x00\n      swap1\n      sload\n      swap1\n      0x0100\n      exp\n      swap1\n      div\n      0xffffffffffffffffffffffffffffffffffffffff\n      and\n        /* \"@devest/contracts/DeVest.sol\":1347:1369  _owner == _msgSender() */\n      0xffffffffffffffffffffffffffffffffffffffff\n      and\n      eq\n        /* \"@devest/contracts/DeVest.sol\":1339:1404  require(_owner == _msgSender(), \"Owner: caller is not the owner\") */\n      tag_49\n      jumpi\n      mload(0x40)\n      0x08c379a000000000000000000000000000000000000000000000000000000000\n      dup2\n      mstore\n      0x04\n      add\n      tag_50\n      swap1\n      tag_51\n      jump\t// in\n    tag_50:\n      mload(0x40)\n      dup1\n      swap2\n      sub\n      swap1\n      revert\n    tag_49:\n        /* \"@devest/contracts/DeVest.sol\":2165:2209  _setRoyalties(__royalty, __royaltyRecipient) */\n      tag_53\n        /* \"@devest/contracts/DeVest.sol\":2179:2188  __royalty */\n      dup6\n        /* \"@devest/contracts/DeVest.sol\":2190:2208  __royaltyRecipient */\n      dup6\n        /* \"@devest/contracts/DeVest.sol\":2165:2178  _setRoyalties */\n      tag_54\n        /* \"@devest/contracts/DeVest.sol\":2165:2209  _setRoyalties(__royalty, __royaltyRecipient) */\n      jump\t// in\n    tag_53:\n        /* \"@devest/contracts/DeVest.sol\":1518:1968  {... */\n      pop\n      pop\n      pop\n        /* \"@devest/contracts/DeVest.sol\":2053:2216  function setRoyalties(uint256 __royalty, address __royaltyRecipient) public payable takeFee onlyOwner {... */\n    tag_36:\n      pop\n      pop\n      jump\t// out\n        /* \"@devest/contracts/DeVest.sol\":2890:2975  function owner() public view virtual returns (address) {... */\n    tag_21:\n        /* \"@devest/contracts/DeVest.sol\":2936:2943  address */\n      0x00\n        /* \"@devest/contracts/DeVest.sol\":2962:2968  _owner */\n      0x01\n      0x00\n      swap1\n      sload\n      swap1\n      0x0100\n      exp\n      swap1\n      div\n      0xffffffffffffffffffffffffffffffffffffffff\n      and\n        /* \"@devest/contracts/DeVest.sol\":2955:2968  return _owner */\n      swap1\n      pop\n        /* \"@devest/contracts/DeVest.sol\":2890:2975  function owner() public view virtual returns (address) {... */\n      swap1\n      jump\t// out\n        /* \"@devest/contracts/DeVest.sol\":2627:2814  function transferOwnership(address newOwner) public virtual onlyOwner {... */\n    tag_28:\n        /* \"@devest/contracts/DeVest.sol\":1357:1369  _msgSender() */\n      tag_57\n        /* \"@devest/contracts/DeVest.sol\":1357:1367  _msgSender */\n      tag_31\n        /* \"@devest/contracts/DeVest.sol\":1357:1369  _msgSender() */\n      jump\t// in\n    tag_57:\n        /* \"@devest/contracts/DeVest.sol\":1347:1369  _owner == _msgSender() */\n      0xffffffffffffffffffffffffffffffffffffffff\n      and\n        /* \"@devest/contracts/DeVest.sol\":1347:1353  _owner */\n      0x01\n      0x00\n      swap1\n      sload\n      swap1\n      0x0100\n      exp\n      swap1\n      div\n      0xffffffffffffffffffffffffffffffffffffffff\n      and\n        /* \"@devest/contracts/DeVest.sol\":1347:1369  _owner == _msgSender() */\n      0xffffffffffffffffffffffffffffffffffffffff\n      and\n      eq\n        /* \"@devest/contracts/DeVest.sol\":1339:1404  require(_owner == _msgSender(), \"Owner: caller is not the owner\") */\n      tag_58\n      jumpi\n      mload(0x40)\n      0x08c379a000000000000000000000000000000000000000000000000000000000\n      dup2\n      mstore\n      0x04\n      add\n      tag_59\n      swap1\n      tag_51\n      jump\t// in\n    tag_59:\n      mload(0x40)\n      dup1\n      swap2\n      sub\n      swap1\n      revert\n    tag_58:\n        /* \"@devest/contracts/DeVest.sol\":2735:2736  0 */\n      0x00\n        /* \"@devest/contracts/DeVest.sol\":2715:2737  newOwner != address(0) */\n      0xffffffffffffffffffffffffffffffffffffffff\n      and\n        /* \"@devest/contracts/DeVest.sol\":2715:2723  newOwner */\n      dup2\n        /* \"@devest/contracts/DeVest.sol\":2715:2737  newOwner != address(0) */\n      0xffffffffffffffffffffffffffffffffffffffff\n      and\n      sub\n        /* \"@devest/contracts/DeVest.sol\":2707:2780  require(newOwner != address(0), \"Ownable: new owner is the zero address\") */\n      tag_61\n      jumpi\n      mload(0x40)\n      0x08c379a000000000000000000000000000000000000000000000000000000000\n      dup2\n      mstore\n      0x04\n      add\n      tag_62\n      swap1\n      tag_63\n      jump\t// in\n    tag_62:\n      mload(0x40)\n      dup1\n      swap2\n      sub\n      swap1\n      revert\n    tag_61:\n        /* \"@devest/contracts/DeVest.sol\":2799:2807  newOwner */\n      dup1\n        /* \"@devest/contracts/DeVest.sol\":2790:2796  _owner */\n      0x01\n      0x00\n        /* \"@devest/contracts/DeVest.sol\":2790:2807  _owner = newOwner */\n      0x0100\n      exp\n      dup2\n      sload\n      dup2\n      0xffffffffffffffffffffffffffffffffffffffff\n      mul\n      not\n      and\n      swap1\n      dup4\n      0xffffffffffffffffffffffffffffffffffffffff\n      and\n      mul\n      or\n      swap1\n      sstore\n      pop\n        /* \"@devest/contracts/DeVest.sol\":2627:2814  function transferOwnership(address newOwner) public virtual onlyOwner {... */\n      pop\n      jump\t// out\n        /* \"@openzeppelin/contracts/utils/Context.sol\":655:751  function _msgSender() internal view virtual returns (address) {... */\n    tag_31:\n        /* \"@openzeppelin/contracts/utils/Context.sol\":708:715  address */\n      0x00\n        /* \"@openzeppelin/contracts/utils/Context.sol\":734:744  msg.sender */\n      caller\n        /* \"@openzeppelin/contracts/utils/Context.sol\":727:744  return msg.sender */\n      swap1\n      pop\n        /* \"@openzeppelin/contracts/utils/Context.sol\":655:751  function _msgSender() internal view virtual returns (address) {... */\n      swap1\n      jump\t// out\n        /* \"@devest/contracts/DeVest.sol\":2222:2478  function _setRoyalties(uint256 __royalty, address __royaltyRecipient) internal {... */\n    tag_54:\n        /* \"@devest/contracts/DeVest.sol\":2332:2333  0 */\n      0x00\n        /* \"@devest/contracts/DeVest.sol\":2319:2328  __royalty */\n      dup3\n        /* \"@devest/contracts/DeVest.sol\":2319:2333  __royalty >= 0 */\n      lt\n      iszero\n        /* \"@devest/contracts/DeVest.sol\":2319:2354  __royalty >= 0 && __royalty <= 1000 */\n      dup1\n      iszero\n      tag_66\n      jumpi\n      pop\n        /* \"@devest/contracts/DeVest.sol\":2350:2354  1000 */\n      0x03e8\n        /* \"@devest/contracts/DeVest.sol\":2337:2346  __royalty */\n      dup3\n        /* \"@devest/contracts/DeVest.sol\":2337:2354  __royalty <= 1000 */\n      gt\n      iszero\n        /* \"@devest/contracts/DeVest.sol\":2319:2354  __royalty >= 0 && __royalty <= 1000 */\n    tag_66:\n        /* \"@devest/contracts/DeVest.sol\":2311:2393  require(__royalty >= 0 && __royalty <= 1000, 'Royalty must be between 0 and 1000') */\n      tag_67\n      jumpi\n      mload(0x40)\n      0x08c379a000000000000000000000000000000000000000000000000000000000\n      dup2\n      mstore\n      0x04\n      add\n      tag_68\n      swap1\n      tag_69\n      jump\t// in\n    tag_68:\n      mload(0x40)\n      dup1\n      swap2\n      sub\n      swap1\n      revert\n    tag_67:\n        /* \"@devest/contracts/DeVest.sol\":2414:2423  __royalty */\n      dup2\n        /* \"@devest/contracts/DeVest.sol\":2403:2411  _royalty */\n      0x03\n        /* \"@devest/contracts/DeVest.sol\":2403:2423  _royalty = __royalty */\n      dup2\n      swap1\n      sstore\n      pop\n        /* \"@devest/contracts/DeVest.sol\":2453:2471  __royaltyRecipient */\n      dup1\n        /* \"@devest/contracts/DeVest.sol\":2433:2450  _royaltyRecipient */\n      0x02\n      0x00\n        /* \"@devest/contracts/DeVest.sol\":2433:2471  _royaltyRecipient = __royaltyRecipient */\n      0x0100\n      exp\n      dup2\n      sload\n      dup2\n      0xffffffffffffffffffffffffffffffffffffffff\n      mul\n      not\n      and\n      swap1\n      dup4\n      0xffffffffffffffffffffffffffffffffffffffff\n      and\n      mul\n      or\n      swap1\n      sstore\n      pop\n        /* \"@devest/contracts/DeVest.sol\":2222:2478  function _setRoyalties(uint256 __royalty, address __royaltyRecipient) internal {... */\n      pop\n      pop\n      jump\t// out\n        /* \"#utility.yul\":7:84   */\n    tag_70:\n        /* \"#utility.yul\":44:51   */\n      0x00\n        /* \"#utility.yul\":73:78   */\n      dup2\n        /* \"#utility.yul\":62:78   */\n      swap1\n      pop\n        /* \"#utility.yul\":7:84   */\n      swap2\n      swap1\n      pop\n      jump\t// out\n        /* \"#utility.yul\":90:208   */\n    tag_71:\n        /* \"#utility.yul\":177:201   */\n      tag_98\n        /* \"#utility.yul\":195:200   */\n      dup2\n        /* \"#utility.yul\":177:201   */\n      tag_70\n      jump\t// in\n    tag_98:\n        /* \"#utility.yul\":172:175   */\n      dup3\n        /* \"#utility.yul\":165:202   */\n      mstore\n        /* \"#utility.yul\":90:208   */\n      pop\n      pop\n      jump\t// out\n        /* \"#utility.yul\":214:436   */\n    tag_14:\n        /* \"#utility.yul\":307:311   */\n      0x00\n        /* \"#utility.yul\":345:347   */\n      0x20\n        /* \"#utility.yul\":334:343   */\n      dup3\n        /* \"#utility.yul\":330:348   */\n      add\n        /* \"#utility.yul\":322:348   */\n      swap1\n      pop\n        /* \"#utility.yul\":358:429   */\n      tag_100\n        /* \"#utility.yul\":426:427   */\n      0x00\n        /* \"#utility.yul\":415:424   */\n      dup4\n        /* \"#utility.yul\":411:428   */\n      add\n        /* \"#utility.yul\":402:408   */\n      dup5\n        /* \"#utility.yul\":358:429   */\n      tag_71\n      jump\t// in\n    tag_100:\n        /* \"#utility.yul\":214:436   */\n      swap3\n      swap2\n      pop\n      pop\n      jump\t// out\n        /* \"#utility.yul\":523:640   */\n    tag_73:\n        /* \"#utility.yul\":632:633   */\n      0x00\n        /* \"#utility.yul\":629:630   */\n      dup1\n        /* \"#utility.yul\":622:634   */\n      revert\n        /* \"#utility.yul\":769:891   */\n    tag_75:\n        /* \"#utility.yul\":842:866   */\n      tag_105\n        /* \"#utility.yul\":860:865   */\n      dup2\n        /* \"#utility.yul\":842:866   */\n      tag_70\n      jump\t// in\n    tag_105:\n        /* \"#utility.yul\":835:840   */\n      dup2\n        /* \"#utility.yul\":832:867   */\n      eq\n        /* \"#utility.yul\":822:885   */\n      tag_106\n      jumpi\n        /* \"#utility.yul\":881:882   */\n      0x00\n        /* \"#utility.yul\":878:879   */\n      dup1\n        /* \"#utility.yul\":871:883   */\n      revert\n        /* \"#utility.yul\":822:885   */\n    tag_106:\n        /* \"#utility.yul\":769:891   */\n      pop\n      jump\t// out\n        /* \"#utility.yul\":897:1036   */\n    tag_76:\n        /* \"#utility.yul\":943:948   */\n      0x00\n        /* \"#utility.yul\":981:987   */\n      dup2\n        /* \"#utility.yul\":968:988   */\n      calldataload\n        /* \"#utility.yul\":959:988   */\n      swap1\n      pop\n        /* \"#utility.yul\":997:1030   */\n      tag_108\n        /* \"#utility.yul\":1024:1029   */\n      dup2\n        /* \"#utility.yul\":997:1030   */\n      tag_75\n      jump\t// in\n    tag_108:\n        /* \"#utility.yul\":897:1036   */\n      swap3\n      swap2\n      pop\n      pop\n      jump\t// out\n        /* \"#utility.yul\":1042:1168   */\n    tag_77:\n        /* \"#utility.yul\":1079:1086   */\n      0x00\n        /* \"#utility.yul\":1119:1161   */\n      0xffffffffffffffffffffffffffffffffffffffff\n        /* \"#utility.yul\":1112:1117   */\n      dup3\n        /* \"#utility.yul\":1108:1162   */\n      and\n        /* \"#utility.yul\":1097:1162   */\n      swap1\n      pop\n        /* \"#utility.yul\":1042:1168   */\n      swap2\n      swap1\n      pop\n      jump\t// out\n        /* \"#utility.yul\":1174:1270   */\n    tag_78:\n        /* \"#utility.yul\":1211:1218   */\n      0x00\n        /* \"#utility.yul\":1240:1264   */\n      tag_111\n        /* \"#utility.yul\":1258:1263   */\n      dup3\n        /* \"#utility.yul\":1240:1264   */\n      tag_77\n      jump\t// in\n    tag_111:\n        /* \"#utility.yul\":1229:1264   */\n      swap1\n      pop\n        /* \"#utility.yul\":1174:1270   */\n      swap2\n      swap1\n      pop\n      jump\t// out\n        /* \"#utility.yul\":1276:1398   */\n    tag_79:\n        /* \"#utility.yul\":1349:1373   */\n      tag_113\n        /* \"#utility.yul\":1367:1372   */\n      dup2\n        /* \"#utility.yul\":1349:1373   */\n      tag_78\n      jump\t// in\n    tag_113:\n        /* \"#utility.yul\":1342:1347   */\n      dup2\n        /* \"#utility.yul\":1339:1374   */\n      eq\n        /* \"#utility.yul\":1329:1392   */\n      tag_114\n      jumpi\n        /* \"#utility.yul\":1388:1389   */\n      0x00\n        /* \"#utility.yul\":1385:1386   */\n      dup1\n        /* \"#utility.yul\":1378:1390   */\n      revert\n        /* \"#utility.yul\":1329:1392   */\n    tag_114:\n        /* \"#utility.yul\":1276:1398   */\n      pop\n      jump\t// out\n        /* \"#utility.yul\":1404:1543   */\n    tag_80:\n        /* \"#utility.yul\":1450:1455   */\n      0x00\n        /* \"#utility.yul\":1488:1494   */\n      dup2\n        /* \"#utility.yul\":1475:1495   */\n      calldataload\n        /* \"#utility.yul\":1466:1495   */\n      swap1\n      pop\n        /* \"#utility.yul\":1504:1537   */\n      tag_116\n        /* \"#utility.yul\":1531:1536   */\n      dup2\n        /* \"#utility.yul\":1504:1537   */\n      tag_79\n      jump\t// in\n    tag_116:\n        /* \"#utility.yul\":1404:1543   */\n      swap3\n      swap2\n      pop\n      pop\n      jump\t// out\n        /* \"#utility.yul\":1549:2023   */\n    tag_17:\n        /* \"#utility.yul\":1617:1623   */\n      0x00\n        /* \"#utility.yul\":1625:1631   */\n      dup1\n        /* \"#utility.yul\":1674:1676   */\n      0x40\n        /* \"#utility.yul\":1662:1671   */\n      dup4\n        /* \"#utility.yul\":1653:1660   */\n      dup6\n        /* \"#utility.yul\":1649:1672   */\n      sub\n        /* \"#utility.yul\":1645:1677   */\n      slt\n        /* \"#utility.yul\":1642:1761   */\n      iszero\n      tag_118\n      jumpi\n        /* \"#utility.yul\":1680:1759   */\n      tag_119\n      tag_73\n      jump\t// in\n    tag_119:\n        /* \"#utility.yul\":1642:1761   */\n    tag_118:\n        /* \"#utility.yul\":1800:1801   */\n      0x00\n        /* \"#utility.yul\":1825:1878   */\n      tag_120\n        /* \"#utility.yul\":1870:1877   */\n      dup6\n        /* \"#utility.yul\":1861:1867   */\n      dup3\n        /* \"#utility.yul\":1850:1859   */\n      dup7\n        /* \"#utility.yul\":1846:1868   */\n      add\n        /* \"#utility.yul\":1825:1878   */\n      tag_76\n      jump\t// in\n    tag_120:\n        /* \"#utility.yul\":1815:1878   */\n      swap3\n      pop\n        /* \"#utility.yul\":1771:1888   */\n      pop\n        /* \"#utility.yul\":1927:1929   */\n      0x20\n        /* \"#utility.yul\":1953:2006   */\n      tag_121\n        /* \"#utility.yul\":1998:2005   */\n      dup6\n        /* \"#utility.yul\":1989:1995   */\n      dup3\n        /* \"#utility.yul\":1978:1987   */\n      dup7\n        /* \"#utility.yul\":1974:1996   */\n      add\n        /* \"#utility.yul\":1953:2006   */\n      tag_80\n      jump\t// in\n    tag_121:\n        /* \"#utility.yul\":1943:2006   */\n      swap2\n      pop\n        /* \"#utility.yul\":1898:2016   */\n      pop\n        /* \"#utility.yul\":1549:2023   */\n      swap3\n      pop\n      swap3\n      swap1\n      pop\n      jump\t// out\n        /* \"#utility.yul\":2029:2147   */\n    tag_81:\n        /* \"#utility.yul\":2116:2140   */\n      tag_123\n        /* \"#utility.yul\":2134:2139   */\n      dup2\n        /* \"#utility.yul\":2116:2140   */\n      tag_78\n      jump\t// in\n    tag_123:\n        /* \"#utility.yul\":2111:2114   */\n      dup3\n        /* \"#utility.yul\":2104:2141   */\n      mstore\n        /* \"#utility.yul\":2029:2147   */\n      pop\n      pop\n      jump\t// out\n        /* \"#utility.yul\":2153:2375   */\n    tag_23:\n        /* \"#utility.yul\":2246:2250   */\n      0x00\n        /* \"#utility.yul\":2284:2286   */\n      0x20\n        /* \"#utility.yul\":2273:2282   */\n      dup3\n        /* \"#utility.yul\":2269:2287   */\n      add\n        /* \"#utility.yul\":2261:2287   */\n      swap1\n      pop\n        /* \"#utility.yul\":2297:2368   */\n      tag_125\n        /* \"#utility.yul\":2365:2366   */\n      0x00\n        /* \"#utility.yul\":2354:2363   */\n      dup4\n        /* \"#utility.yul\":2350:2367   */\n      add\n        /* \"#utility.yul\":2341:2347   */\n      dup5\n        /* \"#utility.yul\":2297:2368   */\n      tag_81\n      jump\t// in\n    tag_125:\n        /* \"#utility.yul\":2153:2375   */\n      swap3\n      swap2\n      pop\n      pop\n      jump\t// out\n        /* \"#utility.yul\":2381:2710   */\n    tag_27:\n        /* \"#utility.yul\":2440:2446   */\n      0x00\n        /* \"#utility.yul\":2489:2491   */\n      0x20\n        /* \"#utility.yul\":2477:2486   */\n      dup3\n        /* \"#utility.yul\":2468:2475   */\n      dup5\n        /* \"#utility.yul\":2464:2487   */\n      sub\n        /* \"#utility.yul\":2460:2492   */\n      slt\n        /* \"#utility.yul\":2457:2576   */\n      iszero\n      tag_127\n      jumpi\n        /* \"#utility.yul\":2495:2574   */\n      tag_128\n      tag_73\n      jump\t// in\n    tag_128:\n        /* \"#utility.yul\":2457:2576   */\n    tag_127:\n        /* \"#utility.yul\":2615:2616   */\n      0x00\n        /* \"#utility.yul\":2640:2693   */\n      tag_129\n        /* \"#utility.yul\":2685:2692   */\n      dup5\n        /* \"#utility.yul\":2676:2682   */\n      dup3\n        /* \"#utility.yul\":2665:2674   */\n      dup6\n        /* \"#utility.yul\":2661:2683   */\n      add\n        /* \"#utility.yul\":2640:2693   */\n      tag_80\n      jump\t// in\n    tag_129:\n        /* \"#utility.yul\":2630:2693   */\n      swap2\n      pop\n        /* \"#utility.yul\":2586:2703   */\n      pop\n        /* \"#utility.yul\":2381:2710   */\n      swap3\n      swap2\n      pop\n      pop\n      jump\t// out\n        /* \"#utility.yul\":2716:2885   */\n    tag_82:\n        /* \"#utility.yul\":2800:2811   */\n      0x00\n        /* \"#utility.yul\":2834:2840   */\n      dup3\n        /* \"#utility.yul\":2829:2832   */\n      dup3\n        /* \"#utility.yul\":2822:2841   */\n      mstore\n        /* \"#utility.yul\":2874:2878   */\n      0x20\n        /* \"#utility.yul\":2869:2872   */\n      dup3\n        /* \"#utility.yul\":2865:2879   */\n      add\n        /* \"#utility.yul\":2850:2879   */\n      swap1\n      pop\n        /* \"#utility.yul\":2716:2885   */\n      swap3\n      swap2\n      pop\n      pop\n      jump\t// out\n        /* \"#utility.yul\":2891:3071   */\n    tag_83:\n        /* \"#utility.yul\":3031:3063   */\n      0x4f6e6c7920666163746f72792063616e2064657461636820697473656c660000\n        /* \"#utility.yul\":3027:3028   */\n      0x00\n        /* \"#utility.yul\":3019:3025   */\n      dup3\n        /* \"#utility.yul\":3015:3029   */\n      add\n        /* \"#utility.yul\":3008:3064   */\n      mstore\n        /* \"#utility.yul\":2891:3071   */\n      pop\n      jump\t// out\n        /* \"#utility.yul\":3077:3443   */\n    tag_84:\n        /* \"#utility.yul\":3219:3222   */\n      0x00\n        /* \"#utility.yul\":3240:3307   */\n      tag_133\n        /* \"#utility.yul\":3304:3306   */\n      0x1e\n        /* \"#utility.yul\":3299:3302   */\n      dup4\n        /* \"#utility.yul\":3240:3307   */\n      tag_82\n      jump\t// in\n    tag_133:\n        /* \"#utility.yul\":3233:3307   */\n      swap2\n      pop\n        /* \"#utility.yul\":3316:3409   */\n      tag_134\n        /* \"#utility.yul\":3405:3408   */\n      dup3\n        /* \"#utility.yul\":3316:3409   */\n      tag_83\n      jump\t// in\n    tag_134:\n        /* \"#utility.yul\":3434:3436   */\n      0x20\n        /* \"#utility.yul\":3429:3432   */\n      dup3\n        /* \"#utility.yul\":3425:3437   */\n      add\n        /* \"#utility.yul\":3418:3437   */\n      swap1\n      pop\n        /* \"#utility.yul\":3077:3443   */\n      swap2\n      swap1\n      pop\n      jump\t// out\n        /* \"#utility.yul\":3449:3868   */\n    tag_34:\n        /* \"#utility.yul\":3615:3619   */\n      0x00\n        /* \"#utility.yul\":3653:3655   */\n      0x20\n        /* \"#utility.yul\":3642:3651   */\n      dup3\n        /* \"#utility.yul\":3638:3656   */\n      add\n        /* \"#utility.yul\":3630:3656   */\n      swap1\n      pop\n        /* \"#utility.yul\":3702:3711   */\n      dup2\n        /* \"#utility.yul\":3696:3700   */\n      dup2\n        /* \"#utility.yul\":3692:3712   */\n      sub\n        /* \"#utility.yul\":3688:3689   */\n      0x00\n        /* \"#utility.yul\":3677:3686   */\n      dup4\n        /* \"#utility.yul\":3673:3690   */\n      add\n        /* \"#utility.yul\":3666:3713   */\n      mstore\n        /* \"#utility.yul\":3730:3861   */\n      tag_136\n        /* \"#utility.yul\":3856:3860   */\n      dup2\n        /* \"#utility.yul\":3730:3861   */\n      tag_84\n      jump\t// in\n    tag_136:\n        /* \"#utility.yul\":3722:3861   */\n      swap1\n      pop\n        /* \"#utility.yul\":3449:3868   */\n      swap2\n      swap1\n      pop\n      jump\t// out\n        /* \"#utility.yul\":3874:4017   */\n    tag_85:\n        /* \"#utility.yul\":3931:3936   */\n      0x00\n        /* \"#utility.yul\":3962:3968   */\n      dup2\n        /* \"#utility.yul\":3956:3969   */\n      mload\n        /* \"#utility.yul\":3947:3969   */\n      swap1\n      pop\n        /* \"#utility.yul\":3978:4011   */\n      tag_138\n        /* \"#utility.yul\":4005:4010   */\n      dup2\n        /* \"#utility.yul\":3978:4011   */\n      tag_75\n      jump\t// in\n    tag_138:\n        /* \"#utility.yul\":3874:4017   */\n      swap3\n      swap2\n      pop\n      pop\n      jump\t// out\n        /* \"#utility.yul\":4023:4166   */\n    tag_86:\n        /* \"#utility.yul\":4080:4085   */\n      0x00\n        /* \"#utility.yul\":4111:4117   */\n      dup2\n        /* \"#utility.yul\":4105:4118   */\n      mload\n        /* \"#utility.yul\":4096:4118   */\n      swap1\n      pop\n        /* \"#utility.yul\":4127:4160   */\n      tag_140\n        /* \"#utility.yul\":4154:4159   */\n      dup2\n        /* \"#utility.yul\":4127:4160   */\n      tag_79\n      jump\t// in\n    tag_140:\n        /* \"#utility.yul\":4023:4166   */\n      swap3\n      swap2\n      pop\n      pop\n      jump\t// out\n        /* \"#utility.yul\":4172:4679   */\n    tag_41:\n        /* \"#utility.yul\":4251:4257   */\n      0x00\n        /* \"#utility.yul\":4259:4265   */\n      dup1\n        /* \"#utility.yul\":4308:4310   */\n      0x40\n        /* \"#utility.yul\":4296:4305   */\n      dup4\n        /* \"#utility.yul\":4287:4294   */\n      dup6\n        /* \"#utility.yul\":4283:4306   */\n      sub\n        /* \"#utility.yul\":4279:4311   */\n      slt\n        /* \"#utility.yul\":4276:4395   */\n      iszero\n      tag_142\n      jumpi\n        /* \"#utility.yul\":4314:4393   */\n      tag_143\n      tag_73\n      jump\t// in\n    tag_143:\n        /* \"#utility.yul\":4276:4395   */\n    tag_142:\n        /* \"#utility.yul\":4434:4435   */\n      0x00\n        /* \"#utility.yul\":4459:4523   */\n      tag_144\n        /* \"#utility.yul\":4515:4522   */\n      dup6\n        /* \"#utility.yul\":4506:4512   */\n      dup3\n        /* \"#utility.yul\":4495:4504   */\n      dup7\n        /* \"#utility.yul\":4491:4513   */\n      add\n        /* \"#utility.yul\":4459:4523   */\n      tag_85\n      jump\t// in\n    tag_144:\n        /* \"#utility.yul\":4449:4523   */\n      swap3\n      pop\n        /* \"#utility.yul\":4405:4533   */\n      pop\n        /* \"#utility.yul\":4572:4574   */\n      0x20\n        /* \"#utility.yul\":4598:4662   */\n      tag_145\n        /* \"#utility.yul\":4654:4661   */\n      dup6\n        /* \"#utility.yul\":4645:4651   */\n      dup3\n        /* \"#utility.yul\":4634:4643   */\n      dup7\n        /* \"#utility.yul\":4630:4652   */\n      add\n        /* \"#utility.yul\":4598:4662   */\n      tag_86\n      jump\t// in\n    tag_145:\n        /* \"#utility.yul\":4588:4662   */\n      swap2\n      pop\n        /* \"#utility.yul\":4543:4672   */\n      pop\n        /* \"#utility.yul\":4172:4679   */\n      swap3\n      pop\n      swap3\n      swap1\n      pop\n      jump\t// out\n        /* \"#utility.yul\":4685:4860   */\n    tag_87:\n        /* \"#utility.yul\":4825:4852   */\n      0x506c656173652070726f7669646520656e6f7567682066656500000000000000\n        /* \"#utility.yul\":4821:4822   */\n      0x00\n        /* \"#utility.yul\":4813:4819   */\n      dup3\n        /* \"#utility.yul\":4809:4823   */\n      add\n        /* \"#utility.yul\":4802:4853   */\n      mstore\n        /* \"#utility.yul\":4685:4860   */\n      pop\n      jump\t// out\n        /* \"#utility.yul\":4866:5232   */\n    tag_88:\n        /* \"#utility.yul\":5008:5011   */\n      0x00\n        /* \"#utility.yul\":5029:5096   */\n      tag_148\n        /* \"#utility.yul\":5093:5095   */\n      0x19\n        /* \"#utility.yul\":5088:5091   */\n      dup4\n        /* \"#utility.yul\":5029:5096   */\n      tag_82\n      jump\t// in\n    tag_148:\n        /* \"#utility.yul\":5022:5096   */\n      swap2\n      pop\n        /* \"#utility.yul\":5105:5198   */\n      tag_149\n        /* \"#utility.yul\":5194:5197   */\n      dup3\n        /* \"#utility.yul\":5105:5198   */\n      tag_87\n      jump\t// in\n    tag_149:\n        /* \"#utility.yul\":5223:5225   */\n      0x20\n        /* \"#utility.yul\":5218:5221   */\n      dup3\n        /* \"#utility.yul\":5214:5226   */\n      add\n        /* \"#utility.yul\":5207:5226   */\n      swap1\n      pop\n        /* \"#utility.yul\":4866:5232   */\n      swap2\n      swap1\n      pop\n      jump\t// out\n        /* \"#utility.yul\":5238:5657   */\n    tag_44:\n        /* \"#utility.yul\":5404:5408   */\n      0x00\n        /* \"#utility.yul\":5442:5444   */\n      0x20\n        /* \"#utility.yul\":5431:5440   */\n      dup3\n        /* \"#utility.yul\":5427:5445   */\n      add\n        /* \"#utility.yul\":5419:5445   */\n      swap1\n      pop\n        /* \"#utility.yul\":5491:5500   */\n      dup2\n        /* \"#utility.yul\":5485:5489   */\n      dup2\n        /* \"#utility.yul\":5481:5501   */\n      sub\n        /* \"#utility.yul\":5477:5478   */\n      0x00\n        /* \"#utility.yul\":5466:5475   */\n      dup4\n        /* \"#utility.yul\":5462:5479   */\n      add\n        /* \"#utility.yul\":5455:5502   */\n      mstore\n        /* \"#utility.yul\":5519:5650   */\n      tag_151\n        /* \"#utility.yul\":5645:5649   */\n      dup2\n        /* \"#utility.yul\":5519:5650   */\n      tag_88\n      jump\t// in\n    tag_151:\n        /* \"#utility.yul\":5511:5650   */\n      swap1\n      pop\n        /* \"#utility.yul\":5238:5657   */\n      swap2\n      swap1\n      pop\n      jump\t// out\n        /* \"#utility.yul\":5663:5843   */\n    tag_89:\n        /* \"#utility.yul\":5803:5835   */\n      0x4f776e65723a2063616c6c6572206973206e6f7420746865206f776e65720000\n        /* \"#utility.yul\":5799:5800   */\n      0x00\n        /* \"#utility.yul\":5791:5797   */\n      dup3\n        /* \"#utility.yul\":5787:5801   */\n      add\n        /* \"#utility.yul\":5780:5836   */\n      mstore\n        /* \"#utility.yul\":5663:5843   */\n      pop\n      jump\t// out\n        /* \"#utility.yul\":5849:6215   */\n    tag_90:\n        /* \"#utility.yul\":5991:5994   */\n      0x00\n        /* \"#utility.yul\":6012:6079   */\n      tag_154\n        /* \"#utility.yul\":6076:6078   */\n      0x1e\n        /* \"#utility.yul\":6071:6074   */\n      dup4\n        /* \"#utility.yul\":6012:6079   */\n      tag_82\n      jump\t// in\n    tag_154:\n        /* \"#utility.yul\":6005:6079   */\n      swap2\n      pop\n        /* \"#utility.yul\":6088:6181   */\n      tag_155\n        /* \"#utility.yul\":6177:6180   */\n      dup3\n        /* \"#utility.yul\":6088:6181   */\n      tag_89\n      jump\t// in\n    tag_155:\n        /* \"#utility.yul\":6206:6208   */\n      0x20\n        /* \"#utility.yul\":6201:6204   */\n      dup3\n        /* \"#utility.yul\":6197:6209   */\n      add\n        /* \"#utility.yul\":6190:6209   */\n      swap1\n      pop\n        /* \"#utility.yul\":5849:6215   */\n      swap2\n      swap1\n      pop\n      jump\t// out\n        /* \"#utility.yul\":6221:6640   */\n    tag_51:\n        /* \"#utility.yul\":6387:6391   */\n      0x00\n        /* \"#utility.yul\":6425:6427   */\n      0x20\n        /* \"#utility.yul\":6414:6423   */\n      dup3\n        /* \"#utility.yul\":6410:6428   */\n      add\n        /* \"#utility.yul\":6402:6428   */\n      swap1\n      pop\n        /* \"#utility.yul\":6474:6483   */\n      dup2\n        /* \"#utility.yul\":6468:6472   */\n      dup2\n        /* \"#utility.yul\":6464:6484   */\n      sub\n        /* \"#utility.yul\":6460:6461   */\n      0x00\n        /* \"#utility.yul\":6449:6458   */\n      dup4\n        /* \"#utility.yul\":6445:6462   */\n      add\n        /* \"#utility.yul\":6438:6485   */\n      mstore\n        /* \"#utility.yul\":6502:6633   */\n      tag_157\n        /* \"#utility.yul\":6628:6632   */\n      dup2\n        /* \"#utility.yul\":6502:6633   */\n      tag_90\n      jump\t// in\n    tag_157:\n        /* \"#utility.yul\":6494:6633   */\n      swap1\n      pop\n        /* \"#utility.yul\":6221:6640   */\n      swap2\n      swap1\n      pop\n      jump\t// out\n        /* \"#utility.yul\":6646:6871   */\n    tag_91:\n        /* \"#utility.yul\":6786:6820   */\n      0x4f776e61626c653a206e6577206f776e657220697320746865207a65726f2061\n        /* \"#utility.yul\":6782:6783   */\n      0x00\n        /* \"#utility.yul\":6774:6780   */\n      dup3\n        /* \"#utility.yul\":6770:6784   */\n      add\n        /* \"#utility.yul\":6763:6821   */\n      mstore\n        /* \"#utility.yul\":6855:6863   */\n      0x6464726573730000000000000000000000000000000000000000000000000000\n        /* \"#utility.yul\":6850:6852   */\n      0x20\n        /* \"#utility.yul\":6842:6848   */\n      dup3\n        /* \"#utility.yul\":6838:6853   */\n      add\n        /* \"#utility.yul\":6831:6864   */\n      mstore\n        /* \"#utility.yul\":6646:6871   */\n      pop\n      jump\t// out\n        /* \"#utility.yul\":6877:7243   */\n    tag_92:\n        /* \"#utility.yul\":7019:7022   */\n      0x00\n        /* \"#utility.yul\":7040:7107   */\n      tag_160\n        /* \"#utility.yul\":7104:7106   */\n      0x26\n        /* \"#utility.yul\":7099:7102   */\n      dup4\n        /* \"#utility.yul\":7040:7107   */\n      tag_82\n      jump\t// in\n    tag_160:\n        /* \"#utility.yul\":7033:7107   */\n      swap2\n      pop\n        /* \"#utility.yul\":7116:7209   */\n      tag_161\n        /* \"#utility.yul\":7205:7208   */\n      dup3\n        /* \"#utility.yul\":7116:7209   */\n      tag_91\n      jump\t// in\n    tag_161:\n        /* \"#utility.yul\":7234:7236   */\n      0x40\n        /* \"#utility.yul\":7229:7232   */\n      dup3\n        /* \"#utility.yul\":7225:7237   */\n      add\n        /* \"#utility.yul\":7218:7237   */\n      swap1\n      pop\n        /* \"#utility.yul\":6877:7243   */\n      swap2\n      swap1\n      pop\n      jump\t// out\n        /* \"#utility.yul\":7249:7668   */\n    tag_63:\n        /* \"#utility.yul\":7415:7419   */\n      0x00\n        /* \"#utility.yul\":7453:7455   */\n      0x20\n        /* \"#utility.yul\":7442:7451   */\n      dup3\n        /* \"#utility.yul\":7438:7456   */\n      add\n        /* \"#utility.yul\":7430:7456   */\n      swap1\n      pop\n        /* \"#utility.yul\":7502:7511   */\n      dup2\n        /* \"#utility.yul\":7496:7500   */\n      dup2\n        /* \"#utility.yul\":7492:7512   */\n      sub\n        /* \"#utility.yul\":7488:7489   */\n      0x00\n        /* \"#utility.yul\":7477:7486   */\n      dup4\n        /* \"#utility.yul\":7473:7490   */\n      add\n        /* \"#utility.yul\":7466:7513   */\n      mstore\n        /* \"#utility.yul\":7530:7661   */\n      tag_163\n        /* \"#utility.yul\":7656:7660   */\n      dup2\n        /* \"#utility.yul\":7530:7661   */\n      tag_92\n      jump\t// in\n    tag_163:\n        /* \"#utility.yul\":7522:7661   */\n      swap1\n      pop\n        /* \"#utility.yul\":7249:7668   */\n      swap2\n      swap1\n      pop\n      jump\t// out\n        /* \"#utility.yul\":7674:7895   */\n    tag_93:\n        /* \"#utility.yul\":7814:7848   */\n      0x526f79616c7479206d757374206265206265747765656e203020616e64203130\n        /* \"#utility.yul\":7810:7811   */\n      0x00\n        /* \"#utility.yul\":7802:7808   */\n      dup3\n        /* \"#utility.yul\":7798:7812   */\n      add\n        /* \"#utility.yul\":7791:7849   */\n      mstore\n        /* \"#utility.yul\":7883:7887   */\n      0x3030000000000000000000000000000000000000000000000000000000000000\n        /* \"#utility.yul\":7878:7880   */\n      0x20\n        /* \"#utility.yul\":7870:7876   */\n      dup3\n        /* \"#utility.yul\":7866:7881   */\n      add\n        /* \"#utility.yul\":7859:7888   */\n      mstore\n        /* \"#utility.yul\":7674:7895   */\n      pop\n      jump\t// out\n        /* \"#utility.yul\":7901:8267   */\n    tag_94:\n        /* \"#utility.yul\":8043:8046   */\n      0x00\n        /* \"#utility.yul\":8064:8131   */\n      tag_166\n        /* \"#utility.yul\":8128:8130   */\n      0x22\n        /* \"#utility.yul\":8123:8126   */\n      dup4\n        /* \"#utility.yul\":8064:8131   */\n      tag_82\n      jump\t// in\n    tag_166:\n        /* \"#utility.yul\":8057:8131   */\n      swap2\n      pop\n        /* \"#utility.yul\":8140:8233   */\n      tag_167\n        /* \"#utility.yul\":8229:8232   */\n      dup3\n        /* \"#utility.yul\":8140:8233   */\n      tag_93\n      jump\t// in\n    tag_167:\n        /* \"#utility.yul\":8258:8260   */\n      0x40\n        /* \"#utility.yul\":8253:8256   */\n      dup3\n        /* \"#utility.yul\":8249:8261   */\n      add\n        /* \"#utility.yul\":8242:8261   */\n      swap1\n      pop\n        /* \"#utility.yul\":7901:8267   */\n      swap2\n      swap1\n      pop\n      jump\t// out\n        /* \"#utility.yul\":8273:8692   */\n    tag_69:\n        /* \"#utility.yul\":8439:8443   */\n      0x00\n        /* \"#utility.yul\":8477:8479   */\n      0x20\n        /* \"#utility.yul\":8466:8475   */\n      dup3\n        /* \"#utility.yul\":8462:8480   */\n      add\n        /* \"#utility.yul\":8454:8480   */\n      swap1\n      pop\n        /* \"#utility.yul\":8526:8535   */\n      dup2\n        /* \"#utility.yul\":8520:8524   */\n      dup2\n        /* \"#utility.yul\":8516:8536   */\n      sub\n        /* \"#utility.yul\":8512:8513   */\n      0x00\n        /* \"#utility.yul\":8501:8510   */\n      dup4\n        /* \"#utility.yul\":8497:8514   */\n      add\n        /* \"#utility.yul\":8490:8537   */\n      mstore\n        /* \"#utility.yul\":8554:8685   */\n      tag_169\n        /* \"#utility.yul\":8680:8684   */\n      dup2\n        /* \"#utility.yul\":8554:8685   */\n      tag_94\n      jump\t// in\n    tag_169:\n        /* \"#utility.yul\":8546:8685   */\n      swap1\n      pop\n        /* \"#utility.yul\":8273:8692   */\n      swap2\n      swap1\n      pop\n      jump\t// out\n\n    auxdata: 0xa264697066735822122091a0fade7c89b31d109d37adbe6e10fc35836826efaeaa57727b77b8c011153d64736f6c63430008180033\n}\n",
				"bytecode": {
					"linkReferences": {},
					"object": "60806040525f600355348015610013575f80fd5b50604051610bb2380380610bb283398181016040528101906100359190610119565b805f806101000a81548173ffffffffffffffffffffffffffffffffffffffff021916908373ffffffffffffffffffffffffffffffffffffffff1602179055508160015f6101000a81548173ffffffffffffffffffffffffffffffffffffffff021916908373ffffffffffffffffffffffffffffffffffffffff1602179055505050610157565b5f80fd5b5f73ffffffffffffffffffffffffffffffffffffffff82169050919050565b5f6100e8826100bf565b9050919050565b6100f8816100de565b8114610102575f80fd5b50565b5f81519050610113816100ef565b92915050565b5f806040838503121561012f5761012e6100bb565b5b5f61013c85828601610105565b925050602061014d85828601610105565b9150509250929050565b610a4e806101645f395ff3fe608060405260043610610049575f3560e01c8063225435c01461004d5780634d47732a146100635780635de429851461008d5780638da5cb5b146100a9578063f2fde38b146100d3575b5f80fd5b348015610058575f80fd5b506100616100fb565b005b34801561006e575f80fd5b506100776101d0565b604051610084919061061c565b60405180910390f35b6100a760048036038101906100a291906106bd565b6101d9565b005b3480156100b4575f80fd5b506100bd6103f2565b6040516100ca919061070a565b60405180910390f35b3480156100de575f80fd5b506100f960048036038101906100f49190610723565b61041a565b005b610103610561565b73ffffffffffffffffffffffffffffffffffffffff165f8054906101000a900473ffffffffffffffffffffffffffffffffffffffff1673ffffffffffffffffffffffffffffffffffffffff161461018f576040517f08c379a0000000000000000000000000000000000000000000000000000000008152600401610186906107a8565b60405180910390fd5b5f805f6101000a81548173ffffffffffffffffffffffffffffffffffffffff021916908373ffffffffffffffffffffffffffffffffffffffff160217905550565b5f600354905090565b5f73ffffffffffffffffffffffffffffffffffffffff165f8054906101000a900473ffffffffffffffffffffffffffffffffffffffff1673ffffffffffffffffffffffffffffffffffffffff1603156103ee575f805f805f9054906101000a900473ffffffffffffffffffffffffffffffffffffffff1673ffffffffffffffffffffffffffffffffffffffff1663ced72f876040518163ffffffff1660e01b81526004016040805180830381865afa158015610297573d5f803e3d5ffd5b505050506040513d601f19601f820116820180604052508101906102bb91906107ee565b809450819350505081341015610306576040517f08c379a00000000000000000000000000000000000000000000000000000000081526004016102fd90610876565b60405180910390fd5b8273ffffffffffffffffffffffffffffffffffffffff166108fc8390811502906040515f60405180830381858888f19350505050158015610349573d5f803e3d5ffd5b50610352610561565b73ffffffffffffffffffffffffffffffffffffffff1660015f9054906101000a900473ffffffffffffffffffffffffffffffffffffffff1673ffffffffffffffffffffffffffffffffffffffff16146103e0576040517f08c379a00000000000000000000000000000000000000000000000000000000081526004016103d7906108de565b60405180910390fd5b6103ea8585610568565b5050505b5050565b5f60015f9054906101000a900473ffffffffffffffffffffffffffffffffffffffff16905090565b610422610561565b73ffffffffffffffffffffffffffffffffffffffff1660015f9054906101000a900473ffffffffffffffffffffffffffffffffffffffff1673ffffffffffffffffffffffffffffffffffffffff16146104b0576040517f08c379a00000000000000000000000000000000000000000000000000000000081526004016104a7906108de565b60405180910390fd5b5f73ffffffffffffffffffffffffffffffffffffffff168173ffffffffffffffffffffffffffffffffffffffff160361051e576040517f08c379a00000000000000000000000000000000000000000000000000000000081526004016105159061096c565b60405180910390fd5b8060015f6101000a81548173ffffffffffffffffffffffffffffffffffffffff021916908373ffffffffffffffffffffffffffffffffffffffff16021790555050565b5f33905090565b5f821015801561057a57506103e88211155b6105b9576040517f08c379a00000000000000000000000000000000000000000000000000000000081526004016105b0906109fa565b60405180910390fd5b816003819055508060025f6101000a81548173ffffffffffffffffffffffffffffffffffffffff021916908373ffffffffffffffffffffffffffffffffffffffff1602179055505050565b5f819050919050565b61061681610604565b82525050565b5f60208201905061062f5f83018461060d565b92915050565b5f80fd5b61064281610604565b811461064c575f80fd5b50565b5f8135905061065d81610639565b92915050565b5f73ffffffffffffffffffffffffffffffffffffffff82169050919050565b5f61068c82610663565b9050919050565b61069c81610682565b81146106a6575f80fd5b50565b5f813590506106b781610693565b92915050565b5f80604083850312156106d3576106d2610635565b5b5f6106e08582860161064f565b92505060206106f1858286016106a9565b9150509250929050565b61070481610682565b82525050565b5f60208201905061071d5f8301846106fb565b92915050565b5f6020828403121561073857610737610635565b5b5f610745848285016106a9565b91505092915050565b5f82825260208201905092915050565b7f4f6e6c7920666163746f72792063616e2064657461636820697473656c6600005f82015250565b5f610792601e8361074e565b915061079d8261075e565b602082019050919050565b5f6020820190508181035f8301526107bf81610786565b9050919050565b5f815190506107d481610639565b92915050565b5f815190506107e881610693565b92915050565b5f806040838503121561080457610803610635565b5b5f610811858286016107c6565b9250506020610822858286016107da565b9150509250929050565b7f506c656173652070726f7669646520656e6f75676820666565000000000000005f82015250565b5f61086060198361074e565b915061086b8261082c565b602082019050919050565b5f6020820190508181035f83015261088d81610854565b9050919050565b7f4f776e65723a2063616c6c6572206973206e6f7420746865206f776e657200005f82015250565b5f6108c8601e8361074e565b91506108d382610894565b602082019050919050565b5f6020820190508181035f8301526108f5816108bc565b9050919050565b7f4f776e61626c653a206e6577206f776e657220697320746865207a65726f20615f8201527f6464726573730000000000000000000000000000000000000000000000000000602082015250565b5f61095660268361074e565b9150610961826108fc565b604082019050919050565b5f6020820190508181035f8301526109838161094a565b9050919050565b7f526f79616c7479206d757374206265206265747765656e203020616e642031305f8201527f3030000000000000000000000000000000000000000000000000000000000000602082015250565b5f6109e460228361074e565b91506109ef8261098a565b604082019050919050565b5f6020820190508181035f830152610a11816109d8565b905091905056fea264697066735822122091a0fade7c89b31d109d37adbe6e10fc35836826efaeaa57727b77b8c011153d64736f6c63430008180033",
					"opcodes": "PUSH1 0x80 PUSH1 0x40 MSTORE PUSH0 PUSH1 0x3 SSTORE CALLVALUE DUP1 ISZERO PUSH2 0x13 JUMPI PUSH0 DUP1 REVERT JUMPDEST POP PUSH1 0x40 MLOAD PUSH2 0xBB2 CODESIZE SUB DUP1 PUSH2 0xBB2 DUP4 CODECOPY DUP2 DUP2 ADD PUSH1 0x40 MSTORE DUP2 ADD SWAP1 PUSH2 0x35 SWAP2 SWAP1 PUSH2 0x119 JUMP JUMPDEST DUP1 PUSH0 DUP1 PUSH2 0x100 EXP DUP2 SLOAD DUP2 PUSH20 0xFFFFFFFFFFFFFFFFFFFFFFFFFFFFFFFFFFFFFFFF MUL NOT AND SWAP1 DUP4 PUSH20 0xFFFFFFFFFFFFFFFFFFFFFFFFFFFFFFFFFFFFFFFF AND MUL OR SWAP1 SSTORE POP DUP2 PUSH1 0x1 PUSH0 PUSH2 0x100 EXP DUP2 SLOAD DUP2 PUSH20 0xFFFFFFFFFFFFFFFFFFFFFFFFFFFFFFFFFFFFFFFF MUL NOT AND SWAP1 DUP4 PUSH20 0xFFFFFFFFFFFFFFFFFFFFFFFFFFFFFFFFFFFFFFFF AND MUL OR SWAP1 SSTORE POP POP POP PUSH2 0x157 JUMP JUMPDEST PUSH0 DUP1 REVERT JUMPDEST PUSH0 PUSH20 0xFFFFFFFFFFFFFFFFFFFFFFFFFFFFFFFFFFFFFFFF DUP3 AND SWAP1 POP SWAP2 SWAP1 POP JUMP JUMPDEST PUSH0 PUSH2 0xE8 DUP3 PUSH2 0xBF JUMP JUMPDEST SWAP1 POP SWAP2 SWAP1 POP JUMP JUMPDEST PUSH2 0xF8 DUP2 PUSH2 0xDE JUMP JUMPDEST DUP2 EQ PUSH2 0x102 JUMPI PUSH0 DUP1 REVERT JUMPDEST POP JUMP JUMPDEST PUSH0 DUP2 MLOAD SWAP1 POP PUSH2 0x113 DUP2 PUSH2 0xEF JUMP JUMPDEST SWAP3 SWAP2 POP POP JUMP JUMPDEST PUSH0 DUP1 PUSH1 0x40 DUP4 DUP6 SUB SLT ISZERO PUSH2 0x12F JUMPI PUSH2 0x12E PUSH2 0xBB JUMP JUMPDEST JUMPDEST PUSH0 PUSH2 0x13C DUP6 DUP3 DUP7 ADD PUSH2 0x105 JUMP JUMPDEST SWAP3 POP POP PUSH1 0x20 PUSH2 0x14D DUP6 DUP3 DUP7 ADD PUSH2 0x105 JUMP JUMPDEST SWAP2 POP POP SWAP3 POP SWAP3 SWAP1 POP JUMP JUMPDEST PUSH2 0xA4E DUP1 PUSH2 0x164 PUSH0 CODECOPY PUSH0 RETURN INVALID PUSH1 0x80 PUSH1 0x40 MSTORE PUSH1 0x4 CALLDATASIZE LT PUSH2 0x49 JUMPI PUSH0 CALLDATALOAD PUSH1 0xE0 SHR DUP1 PUSH4 0x225435C0 EQ PUSH2 0x4D JUMPI DUP1 PUSH4 0x4D47732A EQ PUSH2 0x63 JUMPI DUP1 PUSH4 0x5DE42985 EQ PUSH2 0x8D JUMPI DUP1 PUSH4 0x8DA5CB5B EQ PUSH2 0xA9 JUMPI DUP1 PUSH4 0xF2FDE38B EQ PUSH2 0xD3 JUMPI JUMPDEST PUSH0 DUP1 REVERT JUMPDEST CALLVALUE DUP1 ISZERO PUSH2 0x58 JUMPI PUSH0 DUP1 REVERT JUMPDEST POP PUSH2 0x61 PUSH2 0xFB JUMP JUMPDEST STOP JUMPDEST CALLVALUE DUP1 ISZERO PUSH2 0x6E JUMPI PUSH0 DUP1 REVERT JUMPDEST POP PUSH2 0x77 PUSH2 0x1D0 JUMP JUMPDEST PUSH1 0x40 MLOAD PUSH2 0x84 SWAP2 SWAP1 PUSH2 0x61C JUMP JUMPDEST PUSH1 0x40 MLOAD DUP1 SWAP2 SUB SWAP1 RETURN JUMPDEST PUSH2 0xA7 PUSH1 0x4 DUP1 CALLDATASIZE SUB DUP2 ADD SWAP1 PUSH2 0xA2 SWAP2 SWAP1 PUSH2 0x6BD JUMP JUMPDEST PUSH2 0x1D9 JUMP JUMPDEST STOP JUMPDEST CALLVALUE DUP1 ISZERO PUSH2 0xB4 JUMPI PUSH0 DUP1 REVERT JUMPDEST POP PUSH2 0xBD PUSH2 0x3F2 JUMP JUMPDEST PUSH1 0x40 MLOAD PUSH2 0xCA SWAP2 SWAP1 PUSH2 0x70A JUMP JUMPDEST PUSH1 0x40 MLOAD DUP1 SWAP2 SUB SWAP1 RETURN JUMPDEST CALLVALUE DUP1 ISZERO PUSH2 0xDE JUMPI PUSH0 DUP1 REVERT JUMPDEST POP PUSH2 0xF9 PUSH1 0x4 DUP1 CALLDATASIZE SUB DUP2 ADD SWAP1 PUSH2 0xF4 SWAP2 SWAP1 PUSH2 0x723 JUMP JUMPDEST PUSH2 0x41A JUMP JUMPDEST STOP JUMPDEST PUSH2 0x103 PUSH2 0x561 JUMP JUMPDEST PUSH20 0xFFFFFFFFFFFFFFFFFFFFFFFFFFFFFFFFFFFFFFFF AND PUSH0 DUP1 SLOAD SWAP1 PUSH2 0x100 EXP SWAP1 DIV PUSH20 0xFFFFFFFFFFFFFFFFFFFFFFFFFFFFFFFFFFFFFFFF AND PUSH20 0xFFFFFFFFFFFFFFFFFFFFFFFFFFFFFFFFFFFFFFFF AND EQ PUSH2 0x18F JUMPI PUSH1 0x40 MLOAD PUSH32 0x8C379A000000000000000000000000000000000000000000000000000000000 DUP2 MSTORE PUSH1 0x4 ADD PUSH2 0x186 SWAP1 PUSH2 0x7A8 JUMP JUMPDEST PUSH1 0x40 MLOAD DUP1 SWAP2 SUB SWAP1 REVERT JUMPDEST PUSH0 DUP1 PUSH0 PUSH2 0x100 EXP DUP2 SLOAD DUP2 PUSH20 0xFFFFFFFFFFFFFFFFFFFFFFFFFFFFFFFFFFFFFFFF MUL NOT AND SWAP1 DUP4 PUSH20 0xFFFFFFFFFFFFFFFFFFFFFFFFFFFFFFFFFFFFFFFF AND MUL OR SWAP1 SSTORE POP JUMP JUMPDEST PUSH0 PUSH1 0x3 SLOAD SWAP1 POP SWAP1 JUMP JUMPDEST PUSH0 PUSH20 0xFFFFFFFFFFFFFFFFFFFFFFFFFFFFFFFFFFFFFFFF AND PUSH0 DUP1 SLOAD SWAP1 PUSH2 0x100 EXP SWAP1 DIV PUSH20 0xFFFFFFFFFFFFFFFFFFFFFFFFFFFFFFFFFFFFFFFF AND PUSH20 0xFFFFFFFFFFFFFFFFFFFFFFFFFFFFFFFFFFFFFFFF AND SUB ISZERO PUSH2 0x3EE JUMPI PUSH0 DUP1 PUSH0 DUP1 PUSH0 SWAP1 SLOAD SWAP1 PUSH2 0x100 EXP SWAP1 DIV PUSH20 0xFFFFFFFFFFFFFFFFFFFFFFFFFFFFFFFFFFFFFFFF AND PUSH20 0xFFFFFFFFFFFFFFFFFFFFFFFFFFFFFFFFFFFFFFFF AND PUSH4 0xCED72F87 PUSH1 0x40 MLOAD DUP2 PUSH4 0xFFFFFFFF AND PUSH1 0xE0 SHL DUP2 MSTORE PUSH1 0x4 ADD PUSH1 0x40 DUP1 MLOAD DUP1 DUP4 SUB DUP2 DUP7 GAS STATICCALL ISZERO DUP1 ISZERO PUSH2 0x297 JUMPI RETURNDATASIZE PUSH0 DUP1 RETURNDATACOPY RETURNDATASIZE PUSH0 REVERT JUMPDEST POP POP POP POP PUSH1 0x40 MLOAD RETURNDATASIZE PUSH1 0x1F NOT PUSH1 0x1F DUP3 ADD AND DUP3 ADD DUP1 PUSH1 0x40 MSTORE POP DUP2 ADD SWAP1 PUSH2 0x2BB SWAP2 SWAP1 PUSH2 0x7EE JUMP JUMPDEST DUP1 SWAP5 POP DUP2 SWAP4 POP POP POP DUP2 CALLVALUE LT ISZERO PUSH2 0x306 JUMPI PUSH1 0x40 MLOAD PUSH32 0x8C379A000000000000000000000000000000000000000000000000000000000 DUP2 MSTORE PUSH1 0x4 ADD PUSH2 0x2FD SWAP1 PUSH2 0x876 JUMP JUMPDEST PUSH1 0x40 MLOAD DUP1 SWAP2 SUB SWAP1 REVERT JUMPDEST DUP3 PUSH20 0xFFFFFFFFFFFFFFFFFFFFFFFFFFFFFFFFFFFFFFFF AND PUSH2 0x8FC DUP4 SWAP1 DUP2 ISZERO MUL SWAP1 PUSH1 0x40 MLOAD PUSH0 PUSH1 0x40 MLOAD DUP1 DUP4 SUB DUP2 DUP6 DUP9 DUP9 CALL SWAP4 POP POP POP POP ISZERO DUP1 ISZERO PUSH2 0x349 JUMPI RETURNDATASIZE PUSH0 DUP1 RETURNDATACOPY RETURNDATASIZE PUSH0 REVERT JUMPDEST POP PUSH2 0x352 PUSH2 0x561 JUMP JUMPDEST PUSH20 0xFFFFFFFFFFFFFFFFFFFFFFFFFFFFFFFFFFFFFFFF AND PUSH1 0x1 PUSH0 SWAP1 SLOAD SWAP1 PUSH2 0x100 EXP SWAP1 DIV PUSH20 0xFFFFFFFFFFFFFFFFFFFFFFFFFFFFFFFFFFFFFFFF AND PUSH20 0xFFFFFFFFFFFFFFFFFFFFFFFFFFFFFFFFFFFFFFFF AND EQ PUSH2 0x3E0 JUMPI PUSH1 0x40 MLOAD PUSH32 0x8C379A000000000000000000000000000000000000000000000000000000000 DUP2 MSTORE PUSH1 0x4 ADD PUSH2 0x3D7 SWAP1 PUSH2 0x8DE JUMP JUMPDEST PUSH1 0x40 MLOAD DUP1 SWAP2 SUB SWAP1 REVERT JUMPDEST PUSH2 0x3EA DUP6 DUP6 PUSH2 0x568 JUMP JUMPDEST POP POP POP JUMPDEST POP POP JUMP JUMPDEST PUSH0 PUSH1 0x1 PUSH0 SWAP1 SLOAD SWAP1 PUSH2 0x100 EXP SWAP1 DIV PUSH20 0xFFFFFFFFFFFFFFFFFFFFFFFFFFFFFFFFFFFFFFFF AND SWAP1 POP SWAP1 JUMP JUMPDEST PUSH2 0x422 PUSH2 0x561 JUMP JUMPDEST PUSH20 0xFFFFFFFFFFFFFFFFFFFFFFFFFFFFFFFFFFFFFFFF AND PUSH1 0x1 PUSH0 SWAP1 SLOAD SWAP1 PUSH2 0x100 EXP SWAP1 DIV PUSH20 0xFFFFFFFFFFFFFFFFFFFFFFFFFFFFFFFFFFFFFFFF AND PUSH20 0xFFFFFFFFFFFFFFFFFFFFFFFFFFFFFFFFFFFFFFFF AND EQ PUSH2 0x4B0 JUMPI PUSH1 0x40 MLOAD PUSH32 0x8C379A000000000000000000000000000000000000000000000000000000000 DUP2 MSTORE PUSH1 0x4 ADD PUSH2 0x4A7 SWAP1 PUSH2 0x8DE JUMP JUMPDEST PUSH1 0x40 MLOAD DUP1 SWAP2 SUB SWAP1 REVERT JUMPDEST PUSH0 PUSH20 0xFFFFFFFFFFFFFFFFFFFFFFFFFFFFFFFFFFFFFFFF AND DUP2 PUSH20 0xFFFFFFFFFFFFFFFFFFFFFFFFFFFFFFFFFFFFFFFF AND SUB PUSH2 0x51E JUMPI PUSH1 0x40 MLOAD PUSH32 0x8C379A000000000000000000000000000000000000000000000000000000000 DUP2 MSTORE PUSH1 0x4 ADD PUSH2 0x515 SWAP1 PUSH2 0x96C JUMP JUMPDEST PUSH1 0x40 MLOAD DUP1 SWAP2 SUB SWAP1 REVERT JUMPDEST DUP1 PUSH1 0x1 PUSH0 PUSH2 0x100 EXP DUP2 SLOAD DUP2 PUSH20 0xFFFFFFFFFFFFFFFFFFFFFFFFFFFFFFFFFFFFFFFF MUL NOT AND SWAP1 DUP4 PUSH20 0xFFFFFFFFFFFFFFFFFFFFFFFFFFFFFFFFFFFFFFFF AND MUL OR SWAP1 SSTORE POP POP JUMP JUMPDEST PUSH0 CALLER SWAP1 POP SWAP1 JUMP JUMPDEST PUSH0 DUP3 LT ISZERO DUP1 ISZERO PUSH2 0x57A JUMPI POP PUSH2 0x3E8 DUP3 GT ISZERO JUMPDEST PUSH2 0x5B9 JUMPI PUSH1 0x40 MLOAD PUSH32 0x8C379A000000000000000000000000000000000000000000000000000000000 DUP2 MSTORE PUSH1 0x4 ADD PUSH2 0x5B0 SWAP1 PUSH2 0x9FA JUMP JUMPDEST PUSH1 0x40 MLOAD DUP1 SWAP2 SUB SWAP1 REVERT JUMPDEST DUP2 PUSH1 0x3 DUP2 SWAP1 SSTORE POP DUP1 PUSH1 0x2 PUSH0 PUSH2 0x100 EXP DUP2 SLOAD DUP2 PUSH20 0xFFFFFFFFFFFFFFFFFFFFFFFFFFFFFFFFFFFFFFFF MUL NOT AND SWAP1 DUP4 PUSH20 0xFFFFFFFFFFFFFFFFFFFFFFFFFFFFFFFFFFFFFFFF AND MUL OR SWAP1 SSTORE POP POP POP JUMP JUMPDEST PUSH0 DUP2 SWAP1 POP SWAP2 SWAP1 POP JUMP JUMPDEST PUSH2 0x616 DUP2 PUSH2 0x604 JUMP JUMPDEST DUP3 MSTORE POP POP JUMP JUMPDEST PUSH0 PUSH1 0x20 DUP3 ADD SWAP1 POP PUSH2 0x62F PUSH0 DUP4 ADD DUP5 PUSH2 0x60D JUMP JUMPDEST SWAP3 SWAP2 POP POP JUMP JUMPDEST PUSH0 DUP1 REVERT JUMPDEST PUSH2 0x642 DUP2 PUSH2 0x604 JUMP JUMPDEST DUP2 EQ PUSH2 0x64C JUMPI PUSH0 DUP1 REVERT JUMPDEST POP JUMP JUMPDEST PUSH0 DUP2 CALLDATALOAD SWAP1 POP PUSH2 0x65D DUP2 PUSH2 0x639 JUMP JUMPDEST SWAP3 SWAP2 POP POP JUMP JUMPDEST PUSH0 PUSH20 0xFFFFFFFFFFFFFFFFFFFFFFFFFFFFFFFFFFFFFFFF DUP3 AND SWAP1 POP SWAP2 SWAP1 POP JUMP JUMPDEST PUSH0 PUSH2 0x68C DUP3 PUSH2 0x663 JUMP JUMPDEST SWAP1 POP SWAP2 SWAP1 POP JUMP JUMPDEST PUSH2 0x69C DUP2 PUSH2 0x682 JUMP JUMPDEST DUP2 EQ PUSH2 0x6A6 JUMPI PUSH0 DUP1 REVERT JUMPDEST POP JUMP JUMPDEST PUSH0 DUP2 CALLDATALOAD SWAP1 POP PUSH2 0x6B7 DUP2 PUSH2 0x693 JUMP JUMPDEST SWAP3 SWAP2 POP POP JUMP JUMPDEST PUSH0 DUP1 PUSH1 0x40 DUP4 DUP6 SUB SLT ISZERO PUSH2 0x6D3 JUMPI PUSH2 0x6D2 PUSH2 0x635 JUMP JUMPDEST JUMPDEST PUSH0 PUSH2 0x6E0 DUP6 DUP3 DUP7 ADD PUSH2 0x64F JUMP JUMPDEST SWAP3 POP POP PUSH1 0x20 PUSH2 0x6F1 DUP6 DUP3 DUP7 ADD PUSH2 0x6A9 JUMP JUMPDEST SWAP2 POP POP SWAP3 POP SWAP3 SWAP1 POP JUMP JUMPDEST PUSH2 0x704 DUP2 PUSH2 0x682 JUMP JUMPDEST DUP3 MSTORE POP POP JUMP JUMPDEST PUSH0 PUSH1 0x20 DUP3 ADD SWAP1 POP PUSH2 0x71D PUSH0 DUP4 ADD DUP5 PUSH2 0x6FB JUMP JUMPDEST SWAP3 SWAP2 POP POP JUMP JUMPDEST PUSH0 PUSH1 0x20 DUP3 DUP5 SUB SLT ISZERO PUSH2 0x738 JUMPI PUSH2 0x737 PUSH2 0x635 JUMP JUMPDEST JUMPDEST PUSH0 PUSH2 0x745 DUP5 DUP3 DUP6 ADD PUSH2 0x6A9 JUMP JUMPDEST SWAP2 POP POP SWAP3 SWAP2 POP POP JUMP JUMPDEST PUSH0 DUP3 DUP3 MSTORE PUSH1 0x20 DUP3 ADD SWAP1 POP SWAP3 SWAP2 POP POP JUMP JUMPDEST PUSH32 0x4F6E6C7920666163746F72792063616E2064657461636820697473656C660000 PUSH0 DUP3 ADD MSTORE POP JUMP JUMPDEST PUSH0 PUSH2 0x792 PUSH1 0x1E DUP4 PUSH2 0x74E JUMP JUMPDEST SWAP2 POP PUSH2 0x79D DUP3 PUSH2 0x75E JUMP JUMPDEST PUSH1 0x20 DUP3 ADD SWAP1 POP SWAP2 SWAP1 POP JUMP JUMPDEST PUSH0 PUSH1 0x20 DUP3 ADD SWAP1 POP DUP2 DUP2 SUB PUSH0 DUP4 ADD MSTORE PUSH2 0x7BF DUP2 PUSH2 0x786 JUMP JUMPDEST SWAP1 POP SWAP2 SWAP1 POP JUMP JUMPDEST PUSH0 DUP2 MLOAD SWAP1 POP PUSH2 0x7D4 DUP2 PUSH2 0x639 JUMP JUMPDEST SWAP3 SWAP2 POP POP JUMP JUMPDEST PUSH0 DUP2 MLOAD SWAP1 POP PUSH2 0x7E8 DUP2 PUSH2 0x693 JUMP JUMPDEST SWAP3 SWAP2 POP POP JUMP JUMPDEST PUSH0 DUP1 PUSH1 0x40 DUP4 DUP6 SUB SLT ISZERO PUSH2 0x804 JUMPI PUSH2 0x803 PUSH2 0x635 JUMP JUMPDEST JUMPDEST PUSH0 PUSH2 0x811 DUP6 DUP3 DUP7 ADD PUSH2 0x7C6 JUMP JUMPDEST SWAP3 POP POP PUSH1 0x20 PUSH2 0x822 DUP6 DUP3 DUP7 ADD PUSH2 0x7DA JUMP JUMPDEST SWAP2 POP POP SWAP3 POP SWAP3 SWAP1 POP JUMP JUMPDEST PUSH32 0x506C656173652070726F7669646520656E6F7567682066656500000000000000 PUSH0 DUP3 ADD MSTORE POP JUMP JUMPDEST PUSH0 PUSH2 0x860 PUSH1 0x19 DUP4 PUSH2 0x74E JUMP JUMPDEST SWAP2 POP PUSH2 0x86B DUP3 PUSH2 0x82C JUMP JUMPDEST PUSH1 0x20 DUP3 ADD SWAP1 POP SWAP2 SWAP1 POP JUMP JUMPDEST PUSH0 PUSH1 0x20 DUP3 ADD SWAP1 POP DUP2 DUP2 SUB PUSH0 DUP4 ADD MSTORE PUSH2 0x88D DUP2 PUSH2 0x854 JUMP JUMPDEST SWAP1 POP SWAP2 SWAP1 POP JUMP JUMPDEST PUSH32 0x4F776E65723A2063616C6C6572206973206E6F7420746865206F776E65720000 PUSH0 DUP3 ADD MSTORE POP JUMP JUMPDEST PUSH0 PUSH2 0x8C8 PUSH1 0x1E DUP4 PUSH2 0x74E JUMP JUMPDEST SWAP2 POP PUSH2 0x8D3 DUP3 PUSH2 0x894 JUMP JUMPDEST PUSH1 0x20 DUP3 ADD SWAP1 POP SWAP2 SWAP1 POP JUMP JUMPDEST PUSH0 PUSH1 0x20 DUP3 ADD SWAP1 POP DUP2 DUP2 SUB PUSH0 DUP4 ADD MSTORE PUSH2 0x8F5 DUP2 PUSH2 0x8BC JUMP JUMPDEST SWAP1 POP SWAP2 SWAP1 POP JUMP JUMPDEST PUSH32 0x4F776E61626C653A206E6577206F776E657220697320746865207A65726F2061 PUSH0 DUP3 ADD MSTORE PUSH32 0x6464726573730000000000000000000000000000000000000000000000000000 PUSH1 0x20 DUP3 ADD MSTORE POP JUMP JUMPDEST PUSH0 PUSH2 0x956 PUSH1 0x26 DUP4 PUSH2 0x74E JUMP JUMPDEST SWAP2 POP PUSH2 0x961 DUP3 PUSH2 0x8FC JUMP JUMPDEST PUSH1 0x40 DUP3 ADD SWAP1 POP SWAP2 SWAP1 POP JUMP JUMPDEST PUSH0 PUSH1 0x20 DUP3 ADD SWAP1 POP DUP2 DUP2 SUB PUSH0 DUP4 ADD MSTORE PUSH2 0x983 DUP2 PUSH2 0x94A JUMP JUMPDEST SWAP1 POP SWAP2 SWAP1 POP JUMP JUMPDEST PUSH32 0x526F79616C7479206D757374206265206265747765656E203020616E64203130 PUSH0 DUP3 ADD MSTORE PUSH32 0x3030000000000000000000000000000000000000000000000000000000000000 PUSH1 0x20 DUP3 ADD MSTORE POP JUMP JUMPDEST PUSH0 PUSH2 0x9E4 PUSH1 0x22 DUP4 PUSH2 0x74E JUMP JUMPDEST SWAP2 POP PUSH2 0x9EF DUP3 PUSH2 0x98A JUMP JUMPDEST PUSH1 0x40 DUP3 ADD SWAP1 POP SWAP2 SWAP1 POP JUMP JUMPDEST PUSH0 PUSH1 0x20 DUP3 ADD SWAP1 POP DUP2 DUP2 SUB PUSH0 DUP4 ADD MSTORE PUSH2 0xA11 DUP2 PUSH2 0x9D8 JUMP JUMPDEST SWAP1 POP SWAP2 SWAP1 POP JUMP INVALID LOG2 PUSH5 0x6970667358 0x22 SLT KECCAK256 SWAP2 LOG0 STATICCALL 0xDE PUSH29 0x89B31D109D37ADBE6E10FC35836826EFAEAA57727B77B8C011153D6473 PUSH16 0x6C634300081800330000000000000000 "
				},
				"gasEstimates": {
					"creation": {
						"codeDepositCost": "527600",
						"executionCost": "infinite",
						"totalCost": "infinite"
					},
					"external": {
						"detach()": "26586",
						"getRoyalty()": "2432",
						"owner()": "2559",
						"setRoyalties(uint256,address)": "infinite",
						"transferOwnership(address)": "27018"
					},
					"internal": {
						"_setRoyalties(uint256,address)": "infinite"
					}
				},
				"methodIdentifiers": {
					"detach()": "225435c0",
					"getRoyalty()": "4d47732a",
					"owner()": "8da5cb5b",
					"setRoyalties(uint256,address)": "5de42985",
					"transferOwnership(address)": "f2fde38b"
				}
			},
			"storageLayout": {
				"storage": [
					{
						"astId": 10,
						"contract": "@devest/contracts/DeVest.sol:DeVest",
						"label": "_factory",
						"offset": 0,
						"slot": "0",
						"type": "t_contract(DvFactory)339"
					},
					{
						"astId": 12,
						"contract": "@devest/contracts/DeVest.sol:DeVest",
						"label": "_owner",
						"offset": 0,
						"slot": "1",
						"type": "t_address"
					},
					{
						"astId": 14,
						"contract": "@devest/contracts/DeVest.sol:DeVest",
						"label": "_royaltyRecipient",
						"offset": 0,
						"slot": "2",
						"type": "t_address"
					},
					{
						"astId": 17,
						"contract": "@devest/contracts/DeVest.sol:DeVest",
						"label": "_royalty",
						"offset": 0,
						"slot": "3",
						"type": "t_uint256"
					}
				],
				"types": {
					"t_address": {
						"encoding": "inplace",
						"label": "address",
						"numberOfBytes": "20"
					},
					"t_contract(DvFactory)339": {
						"encoding": "inplace",
						"label": "contract DvFactory",
						"numberOfBytes": "20"
					},
					"t_uint256": {
						"encoding": "inplace",
						"label": "uint256",
						"numberOfBytes": "32"
					}
				}
			},
			"userdoc": {
				"kind": "user",
				"methods": {},
				"version": 1
			}
		}
	}
}