{
	"contracts/DvTicket.sol": {
		"DvTicket": {
			"abi": [
				{
					"inputs": [
						{
							"internalType": "address",
							"name": "_tokenAddress",
							"type": "address"
						},
						{
							"internalType": "string",
							"name": "__name",
							"type": "string"
						},
						{
							"internalType": "string",
							"name": "__symbol",
							"type": "string"
						},
						{
							"internalType": "string",
							"name": "__tokenURI",
							"type": "string"
						},
						{
							"internalType": "address",
							"name": "_factory",
							"type": "address"
						},
						{
							"internalType": "address",
							"name": "_owner",
							"type": "address"
						}
					],
					"stateMutability": "nonpayable",
					"type": "constructor"
				},
				{
					"anonymous": false,
					"inputs": [
						{
							"indexed": true,
							"internalType": "address",
							"name": "owner",
							"type": "address"
						},
						{
							"indexed": true,
							"internalType": "uint256",
							"name": "ticketId",
							"type": "uint256"
						}
					],
					"name": "canceled",
					"type": "event"
				},
				{
					"anonymous": false,
					"inputs": [
						{
							"indexed": true,
							"internalType": "address",
							"name": "owner",
							"type": "address"
						},
						{
							"indexed": true,
							"internalType": "uint256",
							"name": "ticketId",
							"type": "uint256"
						},
						{
							"indexed": false,
							"internalType": "uint256",
							"name": "price",
							"type": "uint256"
						}
					],
					"name": "offered",
					"type": "event"
				},
				{
					"anonymous": false,
					"inputs": [
						{
							"indexed": true,
							"internalType": "address",
							"name": "customer",
							"type": "address"
						},
						{
							"indexed": true,
							"internalType": "uint256",
							"name": "ticketId",
							"type": "uint256"
						}
					],
					"name": "purchased",
					"type": "event"
				},
				{
					"anonymous": false,
					"inputs": [
						{
							"indexed": true,
							"internalType": "address",
							"name": "sender",
							"type": "address"
						},
						{
							"indexed": true,
							"internalType": "address",
							"name": "reciver",
							"type": "address"
						},
						{
							"indexed": true,
							"internalType": "uint256",
							"name": "ticketId",
							"type": "uint256"
						}
					],
					"name": "transferred",
					"type": "event"
				},
				{
					"inputs": [
						{
							"internalType": "address",
							"name": "owner",
							"type": "address"
						}
					],
					"name": "balanceOf",
					"outputs": [
						{
							"internalType": "uint256",
							"name": "",
							"type": "uint256"
						}
					],
					"stateMutability": "view",
					"type": "function"
				},
				{
					"inputs": [
						{
							"internalType": "uint256",
							"name": "ticketId",
							"type": "uint256"
						}
					],
					"name": "cancel",
					"outputs": [],
					"stateMutability": "payable",
					"type": "function"
				},
				{
					"inputs": [],
					"name": "detach",
					"outputs": [],
					"stateMutability": "nonpayable",
					"type": "function"
				},
				{
					"inputs": [],
					"name": "getRoyalty",
					"outputs": [
						{
							"internalType": "uint256",
							"name": "",
							"type": "uint256"
						}
					],
					"stateMutability": "view",
					"type": "function"
				},
				{
					"inputs": [
						{
							"internalType": "uint256",
							"name": "tax",
							"type": "uint256"
						},
						{
							"internalType": "uint256",
							"name": "_totalSupply",
							"type": "uint256"
						},
						{
							"internalType": "uint256",
							"name": "_price",
							"type": "uint256"
						},
						{
							"internalType": "bool",
							"name": "_tradable",
							"type": "bool"
						}
					],
					"name": "initialize",
					"outputs": [],
					"stateMutability": "nonpayable",
					"type": "function"
				},
				{
					"inputs": [
						{
							"internalType": "uint256",
							"name": "ticketId",
							"type": "uint256"
						}
					],
					"name": "isForSale",
					"outputs": [
						{
							"internalType": "bool",
							"name": "",
							"type": "bool"
						}
					],
					"stateMutability": "view",
					"type": "function"
				},
				{
					"inputs": [
						{
							"internalType": "uint256",
							"name": "ticketId",
							"type": "uint256"
						},
						{
							"internalType": "uint256",
							"name": "_price",
							"type": "uint256"
						}
					],
					"name": "offer",
					"outputs": [],
					"stateMutability": "payable",
					"type": "function"
				},
				{
					"inputs": [],
					"name": "owner",
					"outputs": [
						{
							"internalType": "address",
							"name": "",
							"type": "address"
						}
					],
					"stateMutability": "view",
					"type": "function"
				},
				{
					"inputs": [
						{
							"internalType": "uint256",
							"name": "tokenId",
							"type": "uint256"
						}
					],
					"name": "ownerOf",
					"outputs": [
						{
							"internalType": "address",
							"name": "owner",
							"type": "address"
						}
					],
					"stateMutability": "view",
					"type": "function"
				},
				{
					"inputs": [],
					"name": "preSale",
					"outputs": [
						{
							"internalType": "bool",
							"name": "",
							"type": "bool"
						}
					],
					"stateMutability": "view",
					"type": "function"
				},
				{
					"inputs": [],
					"name": "price",
					"outputs": [
						{
							"internalType": "uint256",
							"name": "",
							"type": "uint256"
						}
					],
					"stateMutability": "view",
					"type": "function"
				},
				{
					"inputs": [
						{
							"internalType": "uint256",
							"name": "ticketId",
							"type": "uint256"
						}
					],
					"name": "priceOf",
					"outputs": [
						{
							"internalType": "uint256",
							"name": "",
							"type": "uint256"
						}
					],
					"stateMutability": "view",
					"type": "function"
				},
				{
					"inputs": [
						{
							"internalType": "uint256",
							"name": "ticketId",
							"type": "uint256"
						}
					],
					"name": "purchase",
					"outputs": [],
					"stateMutability": "payable",
					"type": "function"
				},
				{
					"inputs": [
						{
							"internalType": "uint256",
							"name": "__royalty",
							"type": "uint256"
						},
						{
							"internalType": "address",
							"name": "__royaltyRecipient",
							"type": "address"
						}
					],
					"name": "setRoyalties",
					"outputs": [],
					"stateMutability": "payable",
					"type": "function"
				},
				{
					"inputs": [
						{
							"internalType": "bytes4",
							"name": "interfaceId",
							"type": "bytes4"
						}
					],
					"name": "supportsInterface",
					"outputs": [
						{
							"internalType": "bool",
							"name": "",
							"type": "bool"
						}
					],
					"stateMutability": "pure",
					"type": "function"
				},
				{
					"inputs": [
						{
							"internalType": "uint256",
							"name": "",
							"type": "uint256"
						}
					],
					"name": "tokenURI",
					"outputs": [
						{
							"internalType": "string",
							"name": "",
							"type": "string"
						}
					],
					"stateMutability": "view",
					"type": "function"
				},
				{
					"inputs": [],
					"name": "totalPurchased",
					"outputs": [
						{
							"internalType": "uint256",
							"name": "",
							"type": "uint256"
						}
					],
					"stateMutability": "view",
					"type": "function"
				},
				{
					"inputs": [],
					"name": "totalSupply",
					"outputs": [
						{
							"internalType": "uint256",
							"name": "",
							"type": "uint256"
						}
					],
					"stateMutability": "view",
					"type": "function"
				},
				{
					"inputs": [],
					"name": "tradable",
					"outputs": [
						{
							"internalType": "bool",
							"name": "",
							"type": "bool"
						}
					],
					"stateMutability": "view",
					"type": "function"
				},
				{
					"inputs": [
						{
							"internalType": "address",
							"name": "to",
							"type": "address"
						},
						{
							"internalType": "uint256",
							"name": "ticketId",
							"type": "uint256"
						}
					],
					"name": "transfer",
					"outputs": [],
					"stateMutability": "payable",
					"type": "function"
				},
				{
					"inputs": [
						{
							"internalType": "address",
							"name": "newOwner",
							"type": "address"
						}
					],
					"name": "transferOwnership",
					"outputs": [],
					"stateMutability": "nonpayable",
					"type": "function"
				}
			],
			"devdoc": {
				"author": "[Don Miguel] (DeVest 2025)",
				"kind": "dev",
				"methods": {
					"balanceOf(address)": {
						"details": "See {IERC721-balanceOf}."
					},
					"detach()": {
						"details": "Factory can detach itself from this contract"
					},
					"getRoyalty()": {
						"details": "Returns the contracts royalty"
					},
					"owner()": {
						"details": "Returns the address of the current owner."
					},
					"ownerOf(uint256)": {
						"details": "See {IERC721-balanceOf}."
					},
					"setRoyalties(uint256,address)": {
						"details": "set the native royalty and beneficiary, only owner"
					},
					"supportsInterface(bytes4)": {
						"details": "See {IERC721Metadata-name}."
					},
					"tokenURI(uint256)": {
						"details": "Returns the Uniform Resource Identifier (URI) for `tokenId` token."
					},
					"transferOwnership(address)": {
						"details": "Transfers ownership of the contract to a new account (`newOwner`). Can only be called by the current owner."
					}
				},
				"title": "DvTicket Contract",
				"version": 1
			},
			"evm": {
				"assembly": "    /* \"contracts/DvTicket.sol\":700:7098  contract DvTicket is Context, DeVest, ReentrancyGuard, VestingToken {... */\n  mstore(0x40, 0x80)\n    /* \"@devest/contracts/DeVest.sol\":1006:1007  0 */\n  0x00\n    /* \"@devest/contracts/DeVest.sol\":978:1007  uint256 internal _royalty = 0 */\n  0x03\n  sstore\n    /* \"contracts/DvTicket.sol\":1341:1342  0 */\n  0x00\n    /* \"contracts/DvTicket.sol\":1309:1342  uint256 public totalPurchased = 0 */\n  0x08\n  sstore\n    /* \"contracts/DvTicket.sol\":1420:1424  true */\n  0x01\n    /* \"contracts/DvTicket.sol\":1398:1424  bool public preSale = true */\n  0x09\n  exp(0x0100, 0x00)\n  dup2\n  sload\n  dup2\n  0xff\n  mul\n  not\n  and\n  swap1\n  dup4\n  iszero\n  iszero\n  mul\n  or\n  swap1\n  sstore\n  pop\n    /* \"contracts/DvTicket.sol\":1528:1533  false */\n  0x00\n    /* \"contracts/DvTicket.sol\":1505:1533  bool public tradable = false */\n  0x09\n  exp(0x0100, 0x01)\n  dup2\n  sload\n  dup2\n  0xff\n  mul\n  not\n  and\n  swap1\n  dup4\n  iszero\n  iszero\n  mul\n  or\n  swap1\n  sstore\n  pop\n    /* \"contracts/DvTicket.sol\":2217:2508  constructor(address _tokenAddress, string memory __name, string memory __symbol, string memory __tokenURI, address _factory, address _owner)... */\n  callvalue\n  dup1\n  iszero\n  tag_1\n  jumpi\n  0x00\n  dup1\n  revert\ntag_1:\n  pop\n  mload(0x40)\n  sub(codesize, bytecodeSize)\n  dup1\n  bytecodeSize\n  dup4\n  codecopy\n  dup2\n  dup2\n  add\n  0x40\n  mstore\n  dup2\n  add\n  swap1\n  tag_2\n  swap2\n  swap1\n  tag_3\n  jump\t// in\ntag_2:\n    /* \"contracts/DvTicket.sol\":2400:2413  _tokenAddress */\n  dup6\n    /* \"contracts/DvTicket.sol\":2369:2375  _owner */\n  dup2\n    /* \"contracts/DvTicket.sol\":2377:2385  _factory */\n  dup4\n    /* \"@devest/contracts/DeVest.sol\":1180:1187  factory */\n  dup1\n    /* \"@devest/contracts/DeVest.sol\":1159:1167  _factory */\n  0x00\n  dup1\n    /* \"@devest/contracts/DeVest.sol\":1159:1188  _factory = DvFactory(factory) */\n  0x0100\n  exp\n  dup2\n  sload\n  dup2\n  0xffffffffffffffffffffffffffffffffffffffff\n  mul\n  not\n  and\n  swap1\n  dup4\n  0xffffffffffffffffffffffffffffffffffffffff\n  and\n  mul\n  or\n  swap1\n  sstore\n  pop\n    /* \"@devest/contracts/DeVest.sol\":1207:1214  __owner */\n  dup2\n    /* \"@devest/contracts/DeVest.sol\":1198:1204  _owner */\n  0x01\n  0x00\n    /* \"@devest/contracts/DeVest.sol\":1198:1214  _owner = __owner */\n  0x0100\n  exp\n  dup2\n  sload\n  dup2\n  0xffffffffffffffffffffffffffffffffffffffff\n  mul\n  not\n  and\n  swap1\n  dup4\n  0xffffffffffffffffffffffffffffffffffffffff\n  and\n  mul\n  or\n  swap1\n  sstore\n  pop\n    /* \"@devest/contracts/DeVest.sol\":1103:1221  constructor(address __owner, address factory) {... */\n  pop\n  pop\n    /* \"@openzeppelin/contracts/security/ReentrancyGuard.sol\":1716:1717  1 */\n  0x01\n    /* \"@openzeppelin/contracts/security/ReentrancyGuard.sol\":1821:1828  _status */\n  0x04\n    /* \"@openzeppelin/contracts/security/ReentrancyGuard.sol\":1821:1843  _status = _NOT_ENTERED */\n  dup2\n  swap1\n  sstore\n  pop\n    /* \"@devest/contracts/VestingToken.sol\":241:253  tokenAddress */\n  dup1\n    /* \"@devest/contracts/VestingToken.sol\":225:238  _vestingToken */\n  0x05\n  0x00\n    /* \"@devest/contracts/VestingToken.sol\":225:253  _vestingToken = tokenAddress */\n  0x0100\n  exp\n  dup2\n  sload\n  dup2\n  0xffffffffffffffffffffffffffffffffffffffff\n  mul\n  not\n  and\n  swap1\n  dup4\n  0xffffffffffffffffffffffffffffffffffffffff\n  and\n  mul\n  or\n  swap1\n  sstore\n  pop\n    /* \"@devest/contracts/VestingToken.sol\":182:260  constructor(address tokenAddress){... */\n  pop\n    /* \"contracts/DvTicket.sol\":2437:2445  __symbol */\n  dup4\n    /* \"contracts/DvTicket.sol\":2426:2433  _symbol */\n  0x0e\n    /* \"contracts/DvTicket.sol\":2426:2445  _symbol =  __symbol */\n  swap1\n  dup2\n  tag_12\n  swap2\n  swap1\n  tag_13\n  jump\t// in\ntag_12:\n  pop\n    /* \"contracts/DvTicket.sol\":2463:2469  __name */\n  dup5\n    /* \"contracts/DvTicket.sol\":2455:2460  _name */\n  0x0d\n    /* \"contracts/DvTicket.sol\":2455:2469  _name = __name */\n  swap1\n  dup2\n  tag_14\n  swap2\n  swap1\n  tag_13\n  jump\t// in\ntag_14:\n  pop\n    /* \"contracts/DvTicket.sol\":2491:2501  __tokenURI */\n  dup3\n    /* \"contracts/DvTicket.sol\":2479:2488  _tokenURI */\n  0x0f\n    /* \"contracts/DvTicket.sol\":2479:2501  _tokenURI = __tokenURI */\n  swap1\n  dup2\n  tag_15\n  swap2\n  swap1\n  tag_13\n  jump\t// in\ntag_15:\n  pop\n    /* \"contracts/DvTicket.sol\":2217:2508  constructor(address _tokenAddress, string memory __name, string memory __symbol, string memory __tokenURI, address _factory, address _owner)... */\n  pop\n  pop\n  pop\n  pop\n  pop\n  pop\n    /* \"contracts/DvTicket.sol\":700:7098  contract DvTicket is Context, DeVest, ReentrancyGuard, VestingToken {... */\n  jump(tag_16)\n    /* \"#utility.yul\":7:82   */\ntag_17:\n    /* \"#utility.yul\":40:46   */\n  0x00\n    /* \"#utility.yul\":73:75   */\n  0x40\n    /* \"#utility.yul\":67:76   */\n  mload\n    /* \"#utility.yul\":57:76   */\n  swap1\n  pop\n    /* \"#utility.yul\":7:82   */\n  swap1\n  jump\t// out\n    /* \"#utility.yul\":88:205   */\ntag_18:\n    /* \"#utility.yul\":197:198   */\n  0x00\n    /* \"#utility.yul\":194:195   */\n  dup1\n    /* \"#utility.yul\":187:199   */\n  revert\n    /* \"#utility.yul\":211:328   */\ntag_19:\n    /* \"#utility.yul\":320:321   */\n  0x00\n    /* \"#utility.yul\":317:318   */\n  dup1\n    /* \"#utility.yul\":310:322   */\n  revert\n    /* \"#utility.yul\":334:460   */\ntag_20:\n    /* \"#utility.yul\":371:378   */\n  0x00\n    /* \"#utility.yul\":411:453   */\n  0xffffffffffffffffffffffffffffffffffffffff\n    /* \"#utility.yul\":404:409   */\n  dup3\n    /* \"#utility.yul\":400:454   */\n  and\n    /* \"#utility.yul\":389:454   */\n  swap1\n  pop\n    /* \"#utility.yul\":334:460   */\n  swap2\n  swap1\n  pop\n  jump\t// out\n    /* \"#utility.yul\":466:562   */\ntag_21:\n    /* \"#utility.yul\":503:510   */\n  0x00\n    /* \"#utility.yul\":532:556   */\n  tag_59\n    /* \"#utility.yul\":550:555   */\n  dup3\n    /* \"#utility.yul\":532:556   */\n  tag_20\n  jump\t// in\ntag_59:\n    /* \"#utility.yul\":521:556   */\n  swap1\n  pop\n    /* \"#utility.yul\":466:562   */\n  swap2\n  swap1\n  pop\n  jump\t// out\n    /* \"#utility.yul\":568:690   */\ntag_22:\n    /* \"#utility.yul\":641:665   */\n  tag_61\n    /* \"#utility.yul\":659:664   */\n  dup2\n    /* \"#utility.yul\":641:665   */\n  tag_21\n  jump\t// in\ntag_61:\n    /* \"#utility.yul\":634:639   */\n  dup2\n    /* \"#utility.yul\":631:666   */\n  eq\n    /* \"#utility.yul\":621:684   */\n  tag_62\n  jumpi\n    /* \"#utility.yul\":680:681   */\n  0x00\n    /* \"#utility.yul\":677:678   */\n  dup1\n    /* \"#utility.yul\":670:682   */\n  revert\n    /* \"#utility.yul\":621:684   */\ntag_62:\n    /* \"#utility.yul\":568:690   */\n  pop\n  jump\t// out\n    /* \"#utility.yul\":696:839   */\ntag_23:\n    /* \"#utility.yul\":753:758   */\n  0x00\n    /* \"#utility.yul\":784:790   */\n  dup2\n    /* \"#utility.yul\":778:791   */\n  mload\n    /* \"#utility.yul\":769:791   */\n  swap1\n  pop\n    /* \"#utility.yul\":800:833   */\n  tag_64\n    /* \"#utility.yul\":827:832   */\n  dup2\n    /* \"#utility.yul\":800:833   */\n  tag_22\n  jump\t// in\ntag_64:\n    /* \"#utility.yul\":696:839   */\n  swap3\n  swap2\n  pop\n  pop\n  jump\t// out\n    /* \"#utility.yul\":845:962   */\ntag_24:\n    /* \"#utility.yul\":954:955   */\n  0x00\n    /* \"#utility.yul\":951:952   */\n  dup1\n    /* \"#utility.yul\":944:956   */\n  revert\n    /* \"#utility.yul\":968:1085   */\ntag_25:\n    /* \"#utility.yul\":1077:1078   */\n  0x00\n    /* \"#utility.yul\":1074:1075   */\n  dup1\n    /* \"#utility.yul\":1067:1079   */\n  revert\n    /* \"#utility.yul\":1091:1193   */\ntag_26:\n    /* \"#utility.yul\":1132:1138   */\n  0x00\n    /* \"#utility.yul\":1183:1185   */\n  0x1f\n    /* \"#utility.yul\":1179:1186   */\n  not\n    /* \"#utility.yul\":1174:1176   */\n  0x1f\n    /* \"#utility.yul\":1167:1172   */\n  dup4\n    /* \"#utility.yul\":1163:1177   */\n  add\n    /* \"#utility.yul\":1159:1187   */\n  and\n    /* \"#utility.yul\":1149:1187   */\n  swap1\n  pop\n    /* \"#utility.yul\":1091:1193   */\n  swap2\n  swap1\n  pop\n  jump\t// out\n    /* \"#utility.yul\":1199:1379   */\ntag_27:\n    /* \"#utility.yul\":1247:1324   */\n  0x4e487b7100000000000000000000000000000000000000000000000000000000\n    /* \"#utility.yul\":1244:1245   */\n  0x00\n    /* \"#utility.yul\":1237:1325   */\n  mstore\n    /* \"#utility.yul\":1344:1348   */\n  0x41\n    /* \"#utility.yul\":1341:1342   */\n  0x04\n    /* \"#utility.yul\":1334:1349   */\n  mstore\n    /* \"#utility.yul\":1368:1372   */\n  0x24\n    /* \"#utility.yul\":1365:1366   */\n  0x00\n    /* \"#utility.yul\":1358:1373   */\n  revert\n    /* \"#utility.yul\":1385:1666   */\ntag_28:\n    /* \"#utility.yul\":1468:1495   */\n  tag_70\n    /* \"#utility.yul\":1490:1494   */\n  dup3\n    /* \"#utility.yul\":1468:1495   */\n  tag_26\n  jump\t// in\ntag_70:\n    /* \"#utility.yul\":1460:1466   */\n  dup2\n    /* \"#utility.yul\":1456:1496   */\n  add\n    /* \"#utility.yul\":1598:1604   */\n  dup2\n    /* \"#utility.yul\":1586:1596   */\n  dup2\n    /* \"#utility.yul\":1583:1605   */\n  lt\n    /* \"#utility.yul\":1562:1580   */\n  0xffffffffffffffff\n    /* \"#utility.yul\":1550:1560   */\n  dup3\n    /* \"#utility.yul\":1547:1581   */\n  gt\n    /* \"#utility.yul\":1544:1606   */\n  or\n    /* \"#utility.yul\":1541:1629   */\n  iszero\n  tag_71\n  jumpi\n    /* \"#utility.yul\":1609:1627   */\n  tag_72\n  tag_27\n  jump\t// in\ntag_72:\n    /* \"#utility.yul\":1541:1629   */\ntag_71:\n    /* \"#utility.yul\":1649:1659   */\n  dup1\n    /* \"#utility.yul\":1645:1647   */\n  0x40\n    /* \"#utility.yul\":1638:1660   */\n  mstore\n    /* \"#utility.yul\":1428:1666   */\n  pop\n    /* \"#utility.yul\":1385:1666   */\n  pop\n  pop\n  jump\t// out\n    /* \"#utility.yul\":1672:1801   */\ntag_29:\n    /* \"#utility.yul\":1706:1712   */\n  0x00\n    /* \"#utility.yul\":1733:1753   */\n  tag_74\n  tag_17\n  jump\t// in\ntag_74:\n    /* \"#utility.yul\":1723:1753   */\n  swap1\n  pop\n    /* \"#utility.yul\":1762:1795   */\n  tag_75\n    /* \"#utility.yul\":1790:1794   */\n  dup3\n    /* \"#utility.yul\":1782:1788   */\n  dup3\n    /* \"#utility.yul\":1762:1795   */\n  tag_28\n  jump\t// in\ntag_75:\n    /* \"#utility.yul\":1672:1801   */\n  swap2\n  swap1\n  pop\n  jump\t// out\n    /* \"#utility.yul\":1807:2115   */\ntag_30:\n    /* \"#utility.yul\":1869:1873   */\n  0x00\n    /* \"#utility.yul\":1959:1977   */\n  0xffffffffffffffff\n    /* \"#utility.yul\":1951:1957   */\n  dup3\n    /* \"#utility.yul\":1948:1978   */\n  gt\n    /* \"#utility.yul\":1945:2001   */\n  iszero\n  tag_77\n  jumpi\n    /* \"#utility.yul\":1981:1999   */\n  tag_78\n  tag_27\n  jump\t// in\ntag_78:\n    /* \"#utility.yul\":1945:2001   */\ntag_77:\n    /* \"#utility.yul\":2019:2048   */\n  tag_79\n    /* \"#utility.yul\":2041:2047   */\n  dup3\n    /* \"#utility.yul\":2019:2048   */\n  tag_26\n  jump\t// in\ntag_79:\n    /* \"#utility.yul\":2011:2048   */\n  swap1\n  pop\n    /* \"#utility.yul\":2103:2107   */\n  0x20\n    /* \"#utility.yul\":2097:2101   */\n  dup2\n    /* \"#utility.yul\":2093:2108   */\n  add\n    /* \"#utility.yul\":2085:2108   */\n  swap1\n  pop\n    /* \"#utility.yul\":1807:2115   */\n  swap2\n  swap1\n  pop\n  jump\t// out\n    /* \"#utility.yul\":2121:2367   */\ntag_31:\n    /* \"#utility.yul\":2202:2203   */\n  0x00\n    /* \"#utility.yul\":2212:2325   */\ntag_81:\n    /* \"#utility.yul\":2226:2232   */\n  dup4\n    /* \"#utility.yul\":2223:2224   */\n  dup2\n    /* \"#utility.yul\":2220:2233   */\n  lt\n    /* \"#utility.yul\":2212:2325   */\n  iszero\n  tag_83\n  jumpi\n    /* \"#utility.yul\":2311:2312   */\n  dup1\n    /* \"#utility.yul\":2306:2309   */\n  dup3\n    /* \"#utility.yul\":2302:2313   */\n  add\n    /* \"#utility.yul\":2296:2314   */\n  mload\n    /* \"#utility.yul\":2292:2293   */\n  dup2\n    /* \"#utility.yul\":2287:2290   */\n  dup5\n    /* \"#utility.yul\":2283:2294   */\n  add\n    /* \"#utility.yul\":2276:2315   */\n  mstore\n    /* \"#utility.yul\":2248:2250   */\n  0x20\n    /* \"#utility.yul\":2245:2246   */\n  dup2\n    /* \"#utility.yul\":2241:2251   */\n  add\n    /* \"#utility.yul\":2236:2251   */\n  swap1\n  pop\n    /* \"#utility.yul\":2212:2325   */\n  jump(tag_81)\ntag_83:\n    /* \"#utility.yul\":2359:2360   */\n  0x00\n    /* \"#utility.yul\":2350:2356   */\n  dup5\n    /* \"#utility.yul\":2345:2348   */\n  dup5\n    /* \"#utility.yul\":2341:2357   */\n  add\n    /* \"#utility.yul\":2334:2361   */\n  mstore\n    /* \"#utility.yul\":2183:2367   */\n  pop\n    /* \"#utility.yul\":2121:2367   */\n  pop\n  pop\n  pop\n  jump\t// out\n    /* \"#utility.yul\":2373:2807   */\ntag_32:\n    /* \"#utility.yul\":2462:2467   */\n  0x00\n    /* \"#utility.yul\":2487:2553   */\n  tag_85\n    /* \"#utility.yul\":2503:2552   */\n  tag_86\n    /* \"#utility.yul\":2545:2551   */\n  dup5\n    /* \"#utility.yul\":2503:2552   */\n  tag_30\n  jump\t// in\ntag_86:\n    /* \"#utility.yul\":2487:2553   */\n  tag_29\n  jump\t// in\ntag_85:\n    /* \"#utility.yul\":2478:2553   */\n  swap1\n  pop\n    /* \"#utility.yul\":2576:2582   */\n  dup3\n    /* \"#utility.yul\":2569:2574   */\n  dup2\n    /* \"#utility.yul\":2562:2583   */\n  mstore\n    /* \"#utility.yul\":2614:2618   */\n  0x20\n    /* \"#utility.yul\":2607:2612   */\n  dup2\n    /* \"#utility.yul\":2603:2619   */\n  add\n    /* \"#utility.yul\":2652:2655   */\n  dup5\n    /* \"#utility.yul\":2643:2649   */\n  dup5\n    /* \"#utility.yul\":2638:2641   */\n  dup5\n    /* \"#utility.yul\":2634:2650   */\n  add\n    /* \"#utility.yul\":2631:2656   */\n  gt\n    /* \"#utility.yul\":2628:2740   */\n  iszero\n  tag_87\n  jumpi\n    /* \"#utility.yul\":2659:2738   */\n  tag_88\n  tag_25\n  jump\t// in\ntag_88:\n    /* \"#utility.yul\":2628:2740   */\ntag_87:\n    /* \"#utility.yul\":2749:2801   */\n  tag_89\n    /* \"#utility.yul\":2794:2800   */\n  dup5\n    /* \"#utility.yul\":2789:2792   */\n  dup3\n    /* \"#utility.yul\":2784:2787   */\n  dup6\n    /* \"#utility.yul\":2749:2801   */\n  tag_31\n  jump\t// in\ntag_89:\n    /* \"#utility.yul\":2468:2807   */\n  pop\n    /* \"#utility.yul\":2373:2807   */\n  swap4\n  swap3\n  pop\n  pop\n  pop\n  jump\t// out\n    /* \"#utility.yul\":2827:3182   */\ntag_33:\n    /* \"#utility.yul\":2894:2899   */\n  0x00\n    /* \"#utility.yul\":2943:2946   */\n  dup3\n    /* \"#utility.yul\":2936:2940   */\n  0x1f\n    /* \"#utility.yul\":2928:2934   */\n  dup4\n    /* \"#utility.yul\":2924:2941   */\n  add\n    /* \"#utility.yul\":2920:2947   */\n  slt\n    /* \"#utility.yul\":2910:3032   */\n  tag_91\n  jumpi\n    /* \"#utility.yul\":2951:3030   */\n  tag_92\n  tag_24\n  jump\t// in\ntag_92:\n    /* \"#utility.yul\":2910:3032   */\ntag_91:\n    /* \"#utility.yul\":3061:3067   */\n  dup2\n    /* \"#utility.yul\":3055:3068   */\n  mload\n    /* \"#utility.yul\":3086:3176   */\n  tag_93\n    /* \"#utility.yul\":3172:3175   */\n  dup5\n    /* \"#utility.yul\":3164:3170   */\n  dup3\n    /* \"#utility.yul\":3157:3161   */\n  0x20\n    /* \"#utility.yul\":3149:3155   */\n  dup7\n    /* \"#utility.yul\":3145:3162   */\n  add\n    /* \"#utility.yul\":3086:3176   */\n  tag_32\n  jump\t// in\ntag_93:\n    /* \"#utility.yul\":3077:3176   */\n  swap2\n  pop\n    /* \"#utility.yul\":2900:3182   */\n  pop\n    /* \"#utility.yul\":2827:3182   */\n  swap3\n  swap2\n  pop\n  pop\n  jump\t// out\n    /* \"#utility.yul\":3188:4841   */\ntag_3:\n    /* \"#utility.yul\":3333:3339   */\n  0x00\n    /* \"#utility.yul\":3341:3347   */\n  dup1\n    /* \"#utility.yul\":3349:3355   */\n  0x00\n    /* \"#utility.yul\":3357:3363   */\n  dup1\n    /* \"#utility.yul\":3365:3371   */\n  0x00\n    /* \"#utility.yul\":3373:3379   */\n  dup1\n    /* \"#utility.yul\":3422:3425   */\n  0xc0\n    /* \"#utility.yul\":3410:3419   */\n  dup8\n    /* \"#utility.yul\":3401:3408   */\n  dup10\n    /* \"#utility.yul\":3397:3420   */\n  sub\n    /* \"#utility.yul\":3393:3426   */\n  slt\n    /* \"#utility.yul\":3390:3510   */\n  iszero\n  tag_95\n  jumpi\n    /* \"#utility.yul\":3429:3508   */\n  tag_96\n  tag_18\n  jump\t// in\ntag_96:\n    /* \"#utility.yul\":3390:3510   */\ntag_95:\n    /* \"#utility.yul\":3549:3550   */\n  0x00\n    /* \"#utility.yul\":3574:3638   */\n  tag_97\n    /* \"#utility.yul\":3630:3637   */\n  dup10\n    /* \"#utility.yul\":3621:3627   */\n  dup3\n    /* \"#utility.yul\":3610:3619   */\n  dup11\n    /* \"#utility.yul\":3606:3628   */\n  add\n    /* \"#utility.yul\":3574:3638   */\n  tag_23\n  jump\t// in\ntag_97:\n    /* \"#utility.yul\":3564:3638   */\n  swap7\n  pop\n    /* \"#utility.yul\":3520:3648   */\n  pop\n    /* \"#utility.yul\":3708:3710   */\n  0x20\n    /* \"#utility.yul\":3697:3706   */\n  dup8\n    /* \"#utility.yul\":3693:3711   */\n  add\n    /* \"#utility.yul\":3687:3712   */\n  mload\n    /* \"#utility.yul\":3739:3757   */\n  0xffffffffffffffff\n    /* \"#utility.yul\":3731:3737   */\n  dup2\n    /* \"#utility.yul\":3728:3758   */\n  gt\n    /* \"#utility.yul\":3725:3842   */\n  iszero\n  tag_98\n  jumpi\n    /* \"#utility.yul\":3761:3840   */\n  tag_99\n  tag_19\n  jump\t// in\ntag_99:\n    /* \"#utility.yul\":3725:3842   */\ntag_98:\n    /* \"#utility.yul\":3866:3940   */\n  tag_100\n    /* \"#utility.yul\":3932:3939   */\n  dup10\n    /* \"#utility.yul\":3923:3929   */\n  dup3\n    /* \"#utility.yul\":3912:3921   */\n  dup11\n    /* \"#utility.yul\":3908:3930   */\n  add\n    /* \"#utility.yul\":3866:3940   */\n  tag_33\n  jump\t// in\ntag_100:\n    /* \"#utility.yul\":3856:3940   */\n  swap6\n  pop\n    /* \"#utility.yul\":3658:3950   */\n  pop\n    /* \"#utility.yul\":4010:4012   */\n  0x40\n    /* \"#utility.yul\":3999:4008   */\n  dup8\n    /* \"#utility.yul\":3995:4013   */\n  add\n    /* \"#utility.yul\":3989:4014   */\n  mload\n    /* \"#utility.yul\":4041:4059   */\n  0xffffffffffffffff\n    /* \"#utility.yul\":4033:4039   */\n  dup2\n    /* \"#utility.yul\":4030:4060   */\n  gt\n    /* \"#utility.yul\":4027:4144   */\n  iszero\n  tag_101\n  jumpi\n    /* \"#utility.yul\":4063:4142   */\n  tag_102\n  tag_19\n  jump\t// in\ntag_102:\n    /* \"#utility.yul\":4027:4144   */\ntag_101:\n    /* \"#utility.yul\":4168:4242   */\n  tag_103\n    /* \"#utility.yul\":4234:4241   */\n  dup10\n    /* \"#utility.yul\":4225:4231   */\n  dup3\n    /* \"#utility.yul\":4214:4223   */\n  dup11\n    /* \"#utility.yul\":4210:4232   */\n  add\n    /* \"#utility.yul\":4168:4242   */\n  tag_33\n  jump\t// in\ntag_103:\n    /* \"#utility.yul\":4158:4242   */\n  swap5\n  pop\n    /* \"#utility.yul\":3960:4252   */\n  pop\n    /* \"#utility.yul\":4312:4314   */\n  0x60\n    /* \"#utility.yul\":4301:4310   */\n  dup8\n    /* \"#utility.yul\":4297:4315   */\n  add\n    /* \"#utility.yul\":4291:4316   */\n  mload\n    /* \"#utility.yul\":4343:4361   */\n  0xffffffffffffffff\n    /* \"#utility.yul\":4335:4341   */\n  dup2\n    /* \"#utility.yul\":4332:4362   */\n  gt\n    /* \"#utility.yul\":4329:4446   */\n  iszero\n  tag_104\n  jumpi\n    /* \"#utility.yul\":4365:4444   */\n  tag_105\n  tag_19\n  jump\t// in\ntag_105:\n    /* \"#utility.yul\":4329:4446   */\ntag_104:\n    /* \"#utility.yul\":4470:4544   */\n  tag_106\n    /* \"#utility.yul\":4536:4543   */\n  dup10\n    /* \"#utility.yul\":4527:4533   */\n  dup3\n    /* \"#utility.yul\":4516:4525   */\n  dup11\n    /* \"#utility.yul\":4512:4534   */\n  add\n    /* \"#utility.yul\":4470:4544   */\n  tag_33\n  jump\t// in\ntag_106:\n    /* \"#utility.yul\":4460:4544   */\n  swap4\n  pop\n    /* \"#utility.yul\":4262:4554   */\n  pop\n    /* \"#utility.yul\":4593:4596   */\n  0x80\n    /* \"#utility.yul\":4620:4684   */\n  tag_107\n    /* \"#utility.yul\":4676:4683   */\n  dup10\n    /* \"#utility.yul\":4667:4673   */\n  dup3\n    /* \"#utility.yul\":4656:4665   */\n  dup11\n    /* \"#utility.yul\":4652:4674   */\n  add\n    /* \"#utility.yul\":4620:4684   */\n  tag_23\n  jump\t// in\ntag_107:\n    /* \"#utility.yul\":4610:4684   */\n  swap3\n  pop\n    /* \"#utility.yul\":4564:4694   */\n  pop\n    /* \"#utility.yul\":4733:4736   */\n  0xa0\n    /* \"#utility.yul\":4760:4824   */\n  tag_108\n    /* \"#utility.yul\":4816:4823   */\n  dup10\n    /* \"#utility.yul\":4807:4813   */\n  dup3\n    /* \"#utility.yul\":4796:4805   */\n  dup11\n    /* \"#utility.yul\":4792:4814   */\n  add\n    /* \"#utility.yul\":4760:4824   */\n  tag_23\n  jump\t// in\ntag_108:\n    /* \"#utility.yul\":4750:4824   */\n  swap2\n  pop\n    /* \"#utility.yul\":4704:4834   */\n  pop\n    /* \"#utility.yul\":3188:4841   */\n  swap3\n  swap6\n  pop\n  swap3\n  swap6\n  pop\n  swap3\n  swap6\n  jump\t// out\n    /* \"#utility.yul\":4847:4946   */\ntag_34:\n    /* \"#utility.yul\":4899:4905   */\n  0x00\n    /* \"#utility.yul\":4933:4938   */\n  dup2\n    /* \"#utility.yul\":4927:4939   */\n  mload\n    /* \"#utility.yul\":4917:4939   */\n  swap1\n  pop\n    /* \"#utility.yul\":4847:4946   */\n  swap2\n  swap1\n  pop\n  jump\t// out\n    /* \"#utility.yul\":4952:5132   */\ntag_35:\n    /* \"#utility.yul\":5000:5077   */\n  0x4e487b7100000000000000000000000000000000000000000000000000000000\n    /* \"#utility.yul\":4997:4998   */\n  0x00\n    /* \"#utility.yul\":4990:5078   */\n  mstore\n    /* \"#utility.yul\":5097:5101   */\n  0x22\n    /* \"#utility.yul\":5094:5095   */\n  0x04\n    /* \"#utility.yul\":5087:5102   */\n  mstore\n    /* \"#utility.yul\":5121:5125   */\n  0x24\n    /* \"#utility.yul\":5118:5119   */\n  0x00\n    /* \"#utility.yul\":5111:5126   */\n  revert\n    /* \"#utility.yul\":5138:5458   */\ntag_36:\n    /* \"#utility.yul\":5182:5188   */\n  0x00\n    /* \"#utility.yul\":5219:5220   */\n  0x02\n    /* \"#utility.yul\":5213:5217   */\n  dup3\n    /* \"#utility.yul\":5209:5221   */\n  div\n    /* \"#utility.yul\":5199:5221   */\n  swap1\n  pop\n    /* \"#utility.yul\":5266:5267   */\n  0x01\n    /* \"#utility.yul\":5260:5264   */\n  dup3\n    /* \"#utility.yul\":5256:5268   */\n  and\n    /* \"#utility.yul\":5287:5305   */\n  dup1\n    /* \"#utility.yul\":5277:5358   */\n  tag_112\n  jumpi\n    /* \"#utility.yul\":5343:5347   */\n  0x7f\n    /* \"#utility.yul\":5335:5341   */\n  dup3\n    /* \"#utility.yul\":5331:5348   */\n  and\n    /* \"#utility.yul\":5321:5348   */\n  swap2\n  pop\n    /* \"#utility.yul\":5277:5358   */\ntag_112:\n    /* \"#utility.yul\":5405:5407   */\n  0x20\n    /* \"#utility.yul\":5397:5403   */\n  dup3\n    /* \"#utility.yul\":5394:5408   */\n  lt\n    /* \"#utility.yul\":5374:5392   */\n  dup2\n    /* \"#utility.yul\":5371:5409   */\n  sub\n    /* \"#utility.yul\":5368:5452   */\n  tag_113\n  jumpi\n    /* \"#utility.yul\":5424:5442   */\n  tag_114\n  tag_35\n  jump\t// in\ntag_114:\n    /* \"#utility.yul\":5368:5452   */\ntag_113:\n    /* \"#utility.yul\":5189:5458   */\n  pop\n    /* \"#utility.yul\":5138:5458   */\n  swap2\n  swap1\n  pop\n  jump\t// out\n    /* \"#utility.yul\":5464:5605   */\ntag_37:\n    /* \"#utility.yul\":5513:5517   */\n  0x00\n    /* \"#utility.yul\":5536:5539   */\n  dup2\n    /* \"#utility.yul\":5528:5539   */\n  swap1\n  pop\n    /* \"#utility.yul\":5559:5562   */\n  dup2\n    /* \"#utility.yul\":5556:5557   */\n  0x00\n    /* \"#utility.yul\":5549:5563   */\n  mstore\n    /* \"#utility.yul\":5593:5597   */\n  0x20\n    /* \"#utility.yul\":5590:5591   */\n  0x00\n    /* \"#utility.yul\":5580:5598   */\n  keccak256\n    /* \"#utility.yul\":5572:5598   */\n  swap1\n  pop\n    /* \"#utility.yul\":5464:5605   */\n  swap2\n  swap1\n  pop\n  jump\t// out\n    /* \"#utility.yul\":5611:5704   */\ntag_38:\n    /* \"#utility.yul\":5648:5654   */\n  0x00\n    /* \"#utility.yul\":5695:5697   */\n  0x20\n    /* \"#utility.yul\":5690:5692   */\n  0x1f\n    /* \"#utility.yul\":5683:5688   */\n  dup4\n    /* \"#utility.yul\":5679:5693   */\n  add\n    /* \"#utility.yul\":5675:5698   */\n  div\n    /* \"#utility.yul\":5665:5698   */\n  swap1\n  pop\n    /* \"#utility.yul\":5611:5704   */\n  swap2\n  swap1\n  pop\n  jump\t// out\n    /* \"#utility.yul\":5710:5817   */\ntag_39:\n    /* \"#utility.yul\":5754:5762   */\n  0x00\n    /* \"#utility.yul\":5804:5809   */\n  dup3\n    /* \"#utility.yul\":5798:5802   */\n  dup3\n    /* \"#utility.yul\":5794:5810   */\n  shl\n    /* \"#utility.yul\":5773:5810   */\n  swap1\n  pop\n    /* \"#utility.yul\":5710:5817   */\n  swap3\n  swap2\n  pop\n  pop\n  jump\t// out\n    /* \"#utility.yul\":5823:6216   */\ntag_40:\n    /* \"#utility.yul\":5892:5898   */\n  0x00\n    /* \"#utility.yul\":5942:5943   */\n  0x08\n    /* \"#utility.yul\":5930:5940   */\n  dup4\n    /* \"#utility.yul\":5926:5944   */\n  mul\n    /* \"#utility.yul\":5965:6062   */\n  tag_119\n    /* \"#utility.yul\":5995:6061   */\n  0xffffffffffffffffffffffffffffffffffffffffffffffffffffffffffffffff\n    /* \"#utility.yul\":5984:5993   */\n  dup3\n    /* \"#utility.yul\":5965:6062   */\n  tag_39\n  jump\t// in\ntag_119:\n    /* \"#utility.yul\":6083:6122   */\n  tag_120\n    /* \"#utility.yul\":6113:6121   */\n  dup7\n    /* \"#utility.yul\":6102:6111   */\n  dup4\n    /* \"#utility.yul\":6083:6122   */\n  tag_39\n  jump\t// in\ntag_120:\n    /* \"#utility.yul\":6071:6122   */\n  swap6\n  pop\n    /* \"#utility.yul\":6155:6159   */\n  dup1\n    /* \"#utility.yul\":6151:6160   */\n  not\n    /* \"#utility.yul\":6144:6149   */\n  dup5\n    /* \"#utility.yul\":6140:6161   */\n  and\n    /* \"#utility.yul\":6131:6161   */\n  swap4\n  pop\n    /* \"#utility.yul\":6204:6208   */\n  dup1\n    /* \"#utility.yul\":6194:6202   */\n  dup7\n    /* \"#utility.yul\":6190:6209   */\n  and\n    /* \"#utility.yul\":6183:6188   */\n  dup5\n    /* \"#utility.yul\":6180:6210   */\n  or\n    /* \"#utility.yul\":6170:6210   */\n  swap3\n  pop\n    /* \"#utility.yul\":5899:6216   */\n  pop\n  pop\n    /* \"#utility.yul\":5823:6216   */\n  swap4\n  swap3\n  pop\n  pop\n  pop\n  jump\t// out\n    /* \"#utility.yul\":6222:6299   */\ntag_41:\n    /* \"#utility.yul\":6259:6266   */\n  0x00\n    /* \"#utility.yul\":6288:6293   */\n  dup2\n    /* \"#utility.yul\":6277:6293   */\n  swap1\n  pop\n    /* \"#utility.yul\":6222:6299   */\n  swap2\n  swap1\n  pop\n  jump\t// out\n    /* \"#utility.yul\":6305:6365   */\ntag_42:\n    /* \"#utility.yul\":6333:6336   */\n  0x00\n    /* \"#utility.yul\":6354:6359   */\n  dup2\n    /* \"#utility.yul\":6347:6359   */\n  swap1\n  pop\n    /* \"#utility.yul\":6305:6365   */\n  swap2\n  swap1\n  pop\n  jump\t// out\n    /* \"#utility.yul\":6371:6513   */\ntag_43:\n    /* \"#utility.yul\":6421:6430   */\n  0x00\n    /* \"#utility.yul\":6454:6507   */\n  tag_124\n    /* \"#utility.yul\":6472:6506   */\n  tag_125\n    /* \"#utility.yul\":6481:6505   */\n  tag_126\n    /* \"#utility.yul\":6499:6504   */\n  dup5\n    /* \"#utility.yul\":6481:6505   */\n  tag_41\n  jump\t// in\ntag_126:\n    /* \"#utility.yul\":6472:6506   */\n  tag_42\n  jump\t// in\ntag_125:\n    /* \"#utility.yul\":6454:6507   */\n  tag_41\n  jump\t// in\ntag_124:\n    /* \"#utility.yul\":6441:6507   */\n  swap1\n  pop\n    /* \"#utility.yul\":6371:6513   */\n  swap2\n  swap1\n  pop\n  jump\t// out\n    /* \"#utility.yul\":6519:6594   */\ntag_44:\n    /* \"#utility.yul\":6562:6565   */\n  0x00\n    /* \"#utility.yul\":6583:6588   */\n  dup2\n    /* \"#utility.yul\":6576:6588   */\n  swap1\n  pop\n    /* \"#utility.yul\":6519:6594   */\n  swap2\n  swap1\n  pop\n  jump\t// out\n    /* \"#utility.yul\":6600:6869   */\ntag_45:\n    /* \"#utility.yul\":6710:6749   */\n  tag_129\n    /* \"#utility.yul\":6741:6748   */\n  dup4\n    /* \"#utility.yul\":6710:6749   */\n  tag_43\n  jump\t// in\ntag_129:\n    /* \"#utility.yul\":6771:6862   */\n  tag_130\n    /* \"#utility.yul\":6820:6861   */\n  tag_131\n    /* \"#utility.yul\":6844:6860   */\n  dup3\n    /* \"#utility.yul\":6820:6861   */\n  tag_44\n  jump\t// in\ntag_131:\n    /* \"#utility.yul\":6812:6818   */\n  dup5\n    /* \"#utility.yul\":6805:6809   */\n  dup5\n    /* \"#utility.yul\":6799:6810   */\n  sload\n    /* \"#utility.yul\":6771:6862   */\n  tag_40\n  jump\t// in\ntag_130:\n    /* \"#utility.yul\":6765:6769   */\n  dup3\n    /* \"#utility.yul\":6758:6863   */\n  sstore\n    /* \"#utility.yul\":6676:6869   */\n  pop\n    /* \"#utility.yul\":6600:6869   */\n  pop\n  pop\n  pop\n  jump\t// out\n    /* \"#utility.yul\":6875:6948   */\ntag_46:\n    /* \"#utility.yul\":6920:6923   */\n  0x00\n    /* \"#utility.yul\":6875:6948   */\n  swap1\n  jump\t// out\n    /* \"#utility.yul\":6954:7143   */\ntag_47:\n    /* \"#utility.yul\":7031:7063   */\n  tag_134\n  tag_46\n  jump\t// in\ntag_134:\n    /* \"#utility.yul\":7072:7137   */\n  tag_135\n    /* \"#utility.yul\":7130:7136   */\n  dup2\n    /* \"#utility.yul\":7122:7128   */\n  dup5\n    /* \"#utility.yul\":7116:7120   */\n  dup5\n    /* \"#utility.yul\":7072:7137   */\n  tag_45\n  jump\t// in\ntag_135:\n    /* \"#utility.yul\":7007:7143   */\n  pop\n    /* \"#utility.yul\":6954:7143   */\n  pop\n  pop\n  jump\t// out\n    /* \"#utility.yul\":7149:7335   */\ntag_48:\n    /* \"#utility.yul\":7209:7329   */\ntag_137:\n    /* \"#utility.yul\":7226:7229   */\n  dup2\n    /* \"#utility.yul\":7219:7224   */\n  dup2\n    /* \"#utility.yul\":7216:7230   */\n  lt\n    /* \"#utility.yul\":7209:7329   */\n  iszero\n  tag_139\n  jumpi\n    /* \"#utility.yul\":7280:7319   */\n  tag_140\n    /* \"#utility.yul\":7317:7318   */\n  0x00\n    /* \"#utility.yul\":7310:7315   */\n  dup3\n    /* \"#utility.yul\":7280:7319   */\n  tag_47\n  jump\t// in\ntag_140:\n    /* \"#utility.yul\":7253:7254   */\n  0x01\n    /* \"#utility.yul\":7246:7251   */\n  dup2\n    /* \"#utility.yul\":7242:7255   */\n  add\n    /* \"#utility.yul\":7233:7255   */\n  swap1\n  pop\n    /* \"#utility.yul\":7209:7329   */\n  jump(tag_137)\ntag_139:\n    /* \"#utility.yul\":7149:7335   */\n  pop\n  pop\n  jump\t// out\n    /* \"#utility.yul\":7341:7884   */\ntag_49:\n    /* \"#utility.yul\":7442:7444   */\n  0x1f\n    /* \"#utility.yul\":7437:7440   */\n  dup3\n    /* \"#utility.yul\":7434:7445   */\n  gt\n    /* \"#utility.yul\":7431:7877   */\n  iszero\n  tag_142\n  jumpi\n    /* \"#utility.yul\":7476:7514   */\n  tag_143\n    /* \"#utility.yul\":7508:7513   */\n  dup2\n    /* \"#utility.yul\":7476:7514   */\n  tag_37\n  jump\t// in\ntag_143:\n    /* \"#utility.yul\":7560:7589   */\n  tag_144\n    /* \"#utility.yul\":7578:7588   */\n  dup5\n    /* \"#utility.yul\":7560:7589   */\n  tag_38\n  jump\t// in\ntag_144:\n    /* \"#utility.yul\":7550:7558   */\n  dup2\n    /* \"#utility.yul\":7546:7590   */\n  add\n    /* \"#utility.yul\":7743:7745   */\n  0x20\n    /* \"#utility.yul\":7731:7741   */\n  dup6\n    /* \"#utility.yul\":7728:7746   */\n  lt\n    /* \"#utility.yul\":7725:7774   */\n  iszero\n  tag_145\n  jumpi\n    /* \"#utility.yul\":7764:7772   */\n  dup2\n    /* \"#utility.yul\":7749:7772   */\n  swap1\n  pop\n    /* \"#utility.yul\":7725:7774   */\ntag_145:\n    /* \"#utility.yul\":7787:7867   */\n  tag_146\n    /* \"#utility.yul\":7843:7865   */\n  tag_147\n    /* \"#utility.yul\":7861:7864   */\n  dup6\n    /* \"#utility.yul\":7843:7865   */\n  tag_38\n  jump\t// in\ntag_147:\n    /* \"#utility.yul\":7833:7841   */\n  dup4\n    /* \"#utility.yul\":7829:7866   */\n  add\n    /* \"#utility.yul\":7816:7827   */\n  dup3\n    /* \"#utility.yul\":7787:7867   */\n  tag_48\n  jump\t// in\ntag_146:\n    /* \"#utility.yul\":7446:7877   */\n  pop\n  pop\n    /* \"#utility.yul\":7431:7877   */\ntag_142:\n    /* \"#utility.yul\":7341:7884   */\n  pop\n  pop\n  pop\n  jump\t// out\n    /* \"#utility.yul\":7890:8007   */\ntag_50:\n    /* \"#utility.yul\":7944:7952   */\n  0x00\n    /* \"#utility.yul\":7994:7999   */\n  dup3\n    /* \"#utility.yul\":7988:7992   */\n  dup3\n    /* \"#utility.yul\":7984:8000   */\n  shr\n    /* \"#utility.yul\":7963:8000   */\n  swap1\n  pop\n    /* \"#utility.yul\":7890:8007   */\n  swap3\n  swap2\n  pop\n  pop\n  jump\t// out\n    /* \"#utility.yul\":8013:8182   */\ntag_51:\n    /* \"#utility.yul\":8057:8063   */\n  0x00\n    /* \"#utility.yul\":8090:8141   */\n  tag_150\n    /* \"#utility.yul\":8138:8139   */\n  0x00\n    /* \"#utility.yul\":8134:8140   */\n  not\n    /* \"#utility.yul\":8126:8131   */\n  dup5\n    /* \"#utility.yul\":8123:8124   */\n  0x08\n    /* \"#utility.yul\":8119:8132   */\n  mul\n    /* \"#utility.yul\":8090:8141   */\n  tag_50\n  jump\t// in\ntag_150:\n    /* \"#utility.yul\":8086:8142   */\n  not\n    /* \"#utility.yul\":8171:8175   */\n  dup1\n    /* \"#utility.yul\":8165:8169   */\n  dup4\n    /* \"#utility.yul\":8161:8176   */\n  and\n    /* \"#utility.yul\":8151:8176   */\n  swap2\n  pop\n    /* \"#utility.yul\":8064:8182   */\n  pop\n    /* \"#utility.yul\":8013:8182   */\n  swap3\n  swap2\n  pop\n  pop\n  jump\t// out\n    /* \"#utility.yul\":8187:8482   */\ntag_52:\n    /* \"#utility.yul\":8263:8267   */\n  0x00\n    /* \"#utility.yul\":8409:8438   */\n  tag_152\n    /* \"#utility.yul\":8434:8437   */\n  dup4\n    /* \"#utility.yul\":8428:8432   */\n  dup4\n    /* \"#utility.yul\":8409:8438   */\n  tag_51\n  jump\t// in\ntag_152:\n    /* \"#utility.yul\":8401:8438   */\n  swap2\n  pop\n    /* \"#utility.yul\":8471:8474   */\n  dup3\n    /* \"#utility.yul\":8468:8469   */\n  0x02\n    /* \"#utility.yul\":8464:8475   */\n  mul\n    /* \"#utility.yul\":8458:8462   */\n  dup3\n    /* \"#utility.yul\":8455:8476   */\n  or\n    /* \"#utility.yul\":8447:8476   */\n  swap1\n  pop\n    /* \"#utility.yul\":8187:8482   */\n  swap3\n  swap2\n  pop\n  pop\n  jump\t// out\n    /* \"#utility.yul\":8487:9882   */\ntag_13:\n    /* \"#utility.yul\":8604:8641   */\n  tag_154\n    /* \"#utility.yul\":8637:8640   */\n  dup3\n    /* \"#utility.yul\":8604:8641   */\n  tag_34\n  jump\t// in\ntag_154:\n    /* \"#utility.yul\":8706:8724   */\n  0xffffffffffffffff\n    /* \"#utility.yul\":8698:8704   */\n  dup2\n    /* \"#utility.yul\":8695:8725   */\n  gt\n    /* \"#utility.yul\":8692:8748   */\n  iszero\n  tag_155\n  jumpi\n    /* \"#utility.yul\":8728:8746   */\n  tag_156\n  tag_27\n  jump\t// in\ntag_156:\n    /* \"#utility.yul\":8692:8748   */\ntag_155:\n    /* \"#utility.yul\":8772:8810   */\n  tag_157\n    /* \"#utility.yul\":8804:8808   */\n  dup3\n    /* \"#utility.yul\":8798:8809   */\n  sload\n    /* \"#utility.yul\":8772:8810   */\n  tag_36\n  jump\t// in\ntag_157:\n    /* \"#utility.yul\":8857:8924   */\n  tag_158\n    /* \"#utility.yul\":8917:8923   */\n  dup3\n    /* \"#utility.yul\":8909:8915   */\n  dup3\n    /* \"#utility.yul\":8903:8907   */\n  dup6\n    /* \"#utility.yul\":8857:8924   */\n  tag_49\n  jump\t// in\ntag_158:\n    /* \"#utility.yul\":8951:8952   */\n  0x00\n    /* \"#utility.yul\":8975:8979   */\n  0x20\n    /* \"#utility.yul\":8962:8979   */\n  swap1\n  pop\n    /* \"#utility.yul\":9007:9009   */\n  0x1f\n    /* \"#utility.yul\":8999:9005   */\n  dup4\n    /* \"#utility.yul\":8996:9010   */\n  gt\n    /* \"#utility.yul\":9024:9025   */\n  0x01\n    /* \"#utility.yul\":9019:9637   */\n  dup2\n  eq\n  tag_160\n  jumpi\n    /* \"#utility.yul\":9681:9682   */\n  0x00\n    /* \"#utility.yul\":9698:9704   */\n  dup5\n    /* \"#utility.yul\":9695:9772   */\n  iszero\n  tag_161\n  jumpi\n    /* \"#utility.yul\":9747:9756   */\n  dup3\n    /* \"#utility.yul\":9742:9745   */\n  dup8\n    /* \"#utility.yul\":9738:9757   */\n  add\n    /* \"#utility.yul\":9732:9758   */\n  mload\n    /* \"#utility.yul\":9723:9758   */\n  swap1\n  pop\n    /* \"#utility.yul\":9695:9772   */\ntag_161:\n    /* \"#utility.yul\":9798:9865   */\n  tag_162\n    /* \"#utility.yul\":9858:9864   */\n  dup6\n    /* \"#utility.yul\":9851:9856   */\n  dup3\n    /* \"#utility.yul\":9798:9865   */\n  tag_52\n  jump\t// in\ntag_162:\n    /* \"#utility.yul\":9792:9796   */\n  dup7\n    /* \"#utility.yul\":9785:9866   */\n  sstore\n    /* \"#utility.yul\":9654:9876   */\n  pop\n    /* \"#utility.yul\":8989:9876   */\n  jump(tag_159)\n    /* \"#utility.yul\":9019:9637   */\ntag_160:\n    /* \"#utility.yul\":9071:9075   */\n  0x1f\n    /* \"#utility.yul\":9067:9076   */\n  not\n    /* \"#utility.yul\":9059:9065   */\n  dup5\n    /* \"#utility.yul\":9055:9077   */\n  and\n    /* \"#utility.yul\":9105:9142   */\n  tag_163\n    /* \"#utility.yul\":9137:9141   */\n  dup7\n    /* \"#utility.yul\":9105:9142   */\n  tag_37\n  jump\t// in\ntag_163:\n    /* \"#utility.yul\":9164:9165   */\n  0x00\n    /* \"#utility.yul\":9178:9386   */\ntag_164:\n    /* \"#utility.yul\":9192:9199   */\n  dup3\n    /* \"#utility.yul\":9189:9190   */\n  dup2\n    /* \"#utility.yul\":9186:9200   */\n  lt\n    /* \"#utility.yul\":9178:9386   */\n  iszero\n  tag_166\n  jumpi\n    /* \"#utility.yul\":9271:9280   */\n  dup5\n    /* \"#utility.yul\":9266:9269   */\n  dup10\n    /* \"#utility.yul\":9262:9281   */\n  add\n    /* \"#utility.yul\":9256:9282   */\n  mload\n    /* \"#utility.yul\":9248:9254   */\n  dup3\n    /* \"#utility.yul\":9241:9283   */\n  sstore\n    /* \"#utility.yul\":9322:9323   */\n  0x01\n    /* \"#utility.yul\":9314:9320   */\n  dup3\n    /* \"#utility.yul\":9310:9324   */\n  add\n    /* \"#utility.yul\":9300:9324   */\n  swap2\n  pop\n    /* \"#utility.yul\":9369:9371   */\n  0x20\n    /* \"#utility.yul\":9358:9367   */\n  dup6\n    /* \"#utility.yul\":9354:9372   */\n  add\n    /* \"#utility.yul\":9341:9372   */\n  swap5\n  pop\n    /* \"#utility.yul\":9215:9219   */\n  0x20\n    /* \"#utility.yul\":9212:9213   */\n  dup2\n    /* \"#utility.yul\":9208:9220   */\n  add\n    /* \"#utility.yul\":9203:9220   */\n  swap1\n  pop\n    /* \"#utility.yul\":9178:9386   */\n  jump(tag_164)\ntag_166:\n    /* \"#utility.yul\":9414:9420   */\n  dup7\n    /* \"#utility.yul\":9405:9412   */\n  dup4\n    /* \"#utility.yul\":9402:9421   */\n  lt\n    /* \"#utility.yul\":9399:9578   */\n  iszero\n  tag_167\n  jumpi\n    /* \"#utility.yul\":9472:9481   */\n  dup5\n    /* \"#utility.yul\":9467:9470   */\n  dup10\n    /* \"#utility.yul\":9463:9482   */\n  add\n    /* \"#utility.yul\":9457:9483   */\n  mload\n    /* \"#utility.yul\":9515:9563   */\n  tag_168\n    /* \"#utility.yul\":9557:9561   */\n  0x1f\n    /* \"#utility.yul\":9549:9555   */\n  dup10\n    /* \"#utility.yul\":9545:9562   */\n  and\n    /* \"#utility.yul\":9534:9543   */\n  dup3\n    /* \"#utility.yul\":9515:9563   */\n  tag_51\n  jump\t// in\ntag_168:\n    /* \"#utility.yul\":9507:9513   */\n  dup4\n    /* \"#utility.yul\":9500:9564   */\n  sstore\n    /* \"#utility.yul\":9422:9578   */\n  pop\n    /* \"#utility.yul\":9399:9578   */\ntag_167:\n    /* \"#utility.yul\":9624:9625   */\n  0x01\n    /* \"#utility.yul\":9620:9621   */\n  0x02\n    /* \"#utility.yul\":9612:9618   */\n  dup9\n    /* \"#utility.yul\":9608:9622   */\n  mul\n    /* \"#utility.yul\":9604:9626   */\n  add\n    /* \"#utility.yul\":9598:9602   */\n  dup9\n    /* \"#utility.yul\":9591:9627   */\n  sstore\n    /* \"#utility.yul\":9026:9637   */\n  pop\n  pop\n  pop\n    /* \"#utility.yul\":8989:9876   */\ntag_159:\n  pop\n    /* \"#utility.yul\":8579:9882   */\n  pop\n  pop\n  pop\n    /* \"#utility.yul\":8487:9882   */\n  pop\n  pop\n  jump\t// out\n    /* \"contracts/DvTicket.sol\":700:7098  contract DvTicket is Context, DeVest, ReentrancyGuard, VestingToken {... */\ntag_16:\n  dataSize(sub_0)\n  dup1\n  dataOffset(sub_0)\n  0x00\n  codecopy\n  0x00\n  return\nstop\n\nsub_0: assembly {\n        /* \"contracts/DvTicket.sol\":700:7098  contract DvTicket is Context, DeVest, ReentrancyGuard, VestingToken {... */\n      mstore(0x40, 0x80)\n      jumpi(tag_1, lt(calldatasize, 0x04))\n      shr(0xe0, calldataload(0x00))\n      dup1\n      0x70a08231\n      gt\n      tag_23\n      jumpi\n      dup1\n      0xa9059cbb\n      gt\n      tag_24\n      jumpi\n      dup1\n      0xa9059cbb\n      eq\n      tag_17\n      jumpi\n      dup1\n      0xb9186d7d\n      eq\n      tag_18\n      jumpi\n      dup1\n      0xc87b56dd\n      eq\n      tag_19\n      jumpi\n      dup1\n      0xe632c2f3\n      eq\n      tag_20\n      jumpi\n      dup1\n      0xefef39a1\n      eq\n      tag_21\n      jumpi\n      dup1\n      0xf2fde38b\n      eq\n      tag_22\n      jumpi\n      jump(tag_1)\n    tag_24:\n      dup1\n      0x70a08231\n      eq\n      tag_12\n      jumpi\n      dup1\n      0x8546d002\n      eq\n      tag_13\n      jumpi\n      dup1\n      0x8da5cb5b\n      eq\n      tag_14\n      jumpi\n      dup1\n      0xa035b1fe\n      eq\n      tag_15\n      jumpi\n      dup1\n      0xa1920586\n      eq\n      tag_16\n      jumpi\n      jump(tag_1)\n    tag_23:\n      dup1\n      0x54840c6e\n      gt\n      tag_25\n      jumpi\n      dup1\n      0x54840c6e\n      eq\n      tag_7\n      jumpi\n      dup1\n      0x5a7adf7f\n      eq\n      tag_8\n      jumpi\n      dup1\n      0x5de42985\n      eq\n      tag_9\n      jumpi\n      dup1\n      0x6352211e\n      eq\n      tag_10\n      jumpi\n      dup1\n      0x6a1ede9c\n      eq\n      tag_11\n      jumpi\n      jump(tag_1)\n    tag_25:\n      dup1\n      0x01ffc9a7\n      eq\n      tag_2\n      jumpi\n      dup1\n      0x18160ddd\n      eq\n      tag_3\n      jumpi\n      dup1\n      0x225435c0\n      eq\n      tag_4\n      jumpi\n      dup1\n      0x40e58ee5\n      eq\n      tag_5\n      jumpi\n      dup1\n      0x4d47732a\n      eq\n      tag_6\n      jumpi\n    tag_1:\n      0x00\n      dup1\n      revert\n        /* \"contracts/DvTicket.sol\":6904:7095  function supportsInterface(bytes4 interfaceId) external pure returns (bool){... */\n    tag_2:\n      callvalue\n      dup1\n      iszero\n      tag_26\n      jumpi\n      0x00\n      dup1\n      revert\n    tag_26:\n      pop\n      tag_27\n      0x04\n      dup1\n      calldatasize\n      sub\n      dup2\n      add\n      swap1\n      tag_28\n      swap2\n      swap1\n      tag_29\n      jump\t// in\n    tag_28:\n      tag_30\n      jump\t// in\n    tag_27:\n      mload(0x40)\n      tag_31\n      swap2\n      swap1\n      tag_32\n      jump\t// in\n    tag_31:\n      mload(0x40)\n      dup1\n      swap2\n      sub\n      swap1\n      return\n        /* \"contracts/DvTicket.sol\":1238:1264  uint256 public totalSupply */\n    tag_3:\n      callvalue\n      dup1\n      iszero\n      tag_33\n      jumpi\n      0x00\n      dup1\n      revert\n    tag_33:\n      pop\n      tag_34\n      tag_35\n      jump\t// in\n    tag_34:\n      mload(0x40)\n      tag_36\n      swap2\n      swap1\n      tag_37\n      jump\t// in\n    tag_36:\n      mload(0x40)\n      dup1\n      swap2\n      sub\n      swap1\n      return\n        /* \"@devest/contracts/DeVest.sol\":3211:3379  function detach() public virtual {... */\n    tag_4:\n      callvalue\n      dup1\n      iszero\n      tag_38\n      jumpi\n      0x00\n      dup1\n      revert\n    tag_38:\n      pop\n      tag_39\n      tag_40\n      jump\t// in\n    tag_39:\n      stop\n        /* \"contracts/DvTicket.sol\":6328:6633  function cancel(uint256 ticketId) public payable takeFee {... */\n    tag_5:\n      tag_41\n      0x04\n      dup1\n      calldatasize\n      sub\n      dup2\n      add\n      swap1\n      tag_42\n      swap2\n      swap1\n      tag_43\n      jump\t// in\n    tag_42:\n      tag_44\n      jump\t// in\n    tag_41:\n      stop\n        /* \"@devest/contracts/DeVest.sol\":3040:3132  function getRoyalty() public view virtual returns (uint256) {... */\n    tag_6:\n      callvalue\n      dup1\n      iszero\n      tag_45\n      jumpi\n      0x00\n      dup1\n      revert\n    tag_45:\n      pop\n      tag_46\n      tag_47\n      jump\t// in\n    tag_46:\n      mload(0x40)\n      tag_48\n      swap2\n      swap1\n      tag_37\n      jump\t// in\n    tag_48:\n      mload(0x40)\n      dup1\n      swap2\n      sub\n      swap1\n      return\n        /* \"contracts/DvTicket.sol\":1505:1533  bool public tradable = false */\n    tag_7:\n      callvalue\n      dup1\n      iszero\n      tag_49\n      jumpi\n      0x00\n      dup1\n      revert\n    tag_49:\n      pop\n      tag_50\n      tag_51\n      jump\t// in\n    tag_50:\n      mload(0x40)\n      tag_52\n      swap2\n      swap1\n      tag_32\n      jump\t// in\n    tag_52:\n      mload(0x40)\n      dup1\n      swap2\n      sub\n      swap1\n      return\n        /* \"contracts/DvTicket.sol\":1398:1424  bool public preSale = true */\n    tag_8:\n      callvalue\n      dup1\n      iszero\n      tag_53\n      jumpi\n      0x00\n      dup1\n      revert\n    tag_53:\n      pop\n      tag_54\n      tag_55\n      jump\t// in\n    tag_54:\n      mload(0x40)\n      tag_56\n      swap2\n      swap1\n      tag_32\n      jump\t// in\n    tag_56:\n      mload(0x40)\n      dup1\n      swap2\n      sub\n      swap1\n      return\n        /* \"@devest/contracts/DeVest.sol\":2053:2216  function setRoyalties(uint256 __royalty, address __royaltyRecipient) public payable takeFee onlyOwner {... */\n    tag_9:\n      tag_57\n      0x04\n      dup1\n      calldatasize\n      sub\n      dup2\n      add\n      swap1\n      tag_58\n      swap2\n      swap1\n      tag_59\n      jump\t// in\n    tag_58:\n      tag_60\n      jump\t// in\n    tag_57:\n      stop\n        /* \"contracts/DvTicket.sol\":3160:3271  function ownerOf(uint256 tokenId) public view returns (address owner) {... */\n    tag_10:\n      callvalue\n      dup1\n      iszero\n      tag_61\n      jumpi\n      0x00\n      dup1\n      revert\n    tag_61:\n      pop\n      tag_62\n      0x04\n      dup1\n      calldatasize\n      sub\n      dup2\n      add\n      swap1\n      tag_63\n      swap2\n      swap1\n      tag_43\n      jump\t// in\n    tag_63:\n      tag_64\n      jump\t// in\n    tag_62:\n      mload(0x40)\n      tag_65\n      swap2\n      swap1\n      tag_66\n      jump\t// in\n    tag_65:\n      mload(0x40)\n      dup1\n      swap2\n      sub\n      swap1\n      return\n        /* \"contracts/DvTicket.sol\":2565:2989  function initialize(uint tax, uint256 _totalSupply, uint256 _price, bool _tradable) public onlyOwner nonReentrant virtual{... */\n    tag_11:\n      callvalue\n      dup1\n      iszero\n      tag_67\n      jumpi\n      0x00\n      dup1\n      revert\n    tag_67:\n      pop\n      tag_68\n      0x04\n      dup1\n      calldatasize\n      sub\n      dup2\n      add\n      swap1\n      tag_69\n      swap2\n      swap1\n      tag_70\n      jump\t// in\n    tag_69:\n      tag_71\n      jump\t// in\n    tag_68:\n      stop\n        /* \"contracts/DvTicket.sol\":3330:3517  function balanceOf(address owner) public view virtual returns (uint256) {... */\n    tag_12:\n      callvalue\n      dup1\n      iszero\n      tag_72\n      jumpi\n      0x00\n      dup1\n      revert\n    tag_72:\n      pop\n      tag_73\n      0x04\n      dup1\n      calldatasize\n      sub\n      dup2\n      add\n      swap1\n      tag_74\n      swap2\n      swap1\n      tag_75\n      jump\t// in\n    tag_74:\n      tag_76\n      jump\t// in\n    tag_73:\n      mload(0x40)\n      tag_77\n      swap2\n      swap1\n      tag_37\n      jump\t// in\n    tag_77:\n      mload(0x40)\n      dup1\n      swap2\n      sub\n      swap1\n      return\n        /* \"contracts/DvTicket.sol\":6000:6160  function isForSale(uint256 ticketId) public view returns (bool) {... */\n    tag_13:\n      callvalue\n      dup1\n      iszero\n      tag_78\n      jumpi\n      0x00\n      dup1\n      revert\n    tag_78:\n      pop\n      tag_79\n      0x04\n      dup1\n      calldatasize\n      sub\n      dup2\n      add\n      swap1\n      tag_80\n      swap2\n      swap1\n      tag_43\n      jump\t// in\n    tag_80:\n      tag_81\n      jump\t// in\n    tag_79:\n      mload(0x40)\n      tag_82\n      swap2\n      swap1\n      tag_32\n      jump\t// in\n    tag_82:\n      mload(0x40)\n      dup1\n      swap2\n      sub\n      swap1\n      return\n        /* \"@devest/contracts/DeVest.sol\":2890:2975  function owner() public view virtual returns (address) {... */\n    tag_14:\n      callvalue\n      dup1\n      iszero\n      tag_83\n      jumpi\n      0x00\n      dup1\n      revert\n    tag_83:\n      pop\n      tag_84\n      tag_85\n      jump\t// in\n    tag_84:\n      mload(0x40)\n      tag_86\n      swap2\n      swap1\n      tag_66\n      jump\t// in\n    tag_86:\n      mload(0x40)\n      dup1\n      swap2\n      sub\n      swap1\n      return\n        /* \"contracts/DvTicket.sol\":1148:1168  uint256 public price */\n    tag_15:\n      callvalue\n      dup1\n      iszero\n      tag_87\n      jumpi\n      0x00\n      dup1\n      revert\n    tag_87:\n      pop\n      tag_88\n      tag_89\n      jump\t// in\n    tag_88:\n      mload(0x40)\n      tag_90\n      swap2\n      swap1\n      tag_37\n      jump\t// in\n    tag_90:\n      mload(0x40)\n      dup1\n      swap2\n      sub\n      swap1\n      return\n        /* \"contracts/DvTicket.sol\":5475:5993  function offer(uint256 ticketId, uint256 _price) public payable takeFee {... */\n    tag_16:\n      tag_91\n      0x04\n      dup1\n      calldatasize\n      sub\n      dup2\n      add\n      swap1\n      tag_92\n      swap2\n      swap1\n      tag_93\n      jump\t// in\n    tag_92:\n      tag_94\n      jump\t// in\n    tag_91:\n      stop\n        /* \"contracts/DvTicket.sol\":3591:4119  function transfer(address to, uint256 ticketId) external payable takeFee {... */\n    tag_17:\n      tag_95\n      0x04\n      dup1\n      calldatasize\n      sub\n      dup2\n      add\n      swap1\n      tag_96\n      swap2\n      swap1\n      tag_97\n      jump\t// in\n    tag_96:\n      tag_98\n      jump\t// in\n    tag_95:\n      stop\n        /* \"contracts/DvTicket.sol\":6166:6278  function priceOf(uint256 ticketId) public view returns (uint256) {... */\n    tag_18:\n      callvalue\n      dup1\n      iszero\n      tag_99\n      jumpi\n      0x00\n      dup1\n      revert\n    tag_99:\n      pop\n      tag_100\n      0x04\n      dup1\n      calldatasize\n      sub\n      dup2\n      add\n      swap1\n      tag_101\n      swap2\n      swap1\n      tag_43\n      jump\t// in\n    tag_101:\n      tag_102\n      jump\t// in\n    tag_100:\n      mload(0x40)\n      tag_103\n      swap2\n      swap1\n      tag_37\n      jump\t// in\n    tag_103:\n      mload(0x40)\n      dup1\n      swap2\n      sub\n      swap1\n      return\n        /* \"contracts/DvTicket.sol\":6733:6842  function tokenURI(uint256 /*tokenId*/) external view returns (string memory){... */\n    tag_19:\n      callvalue\n      dup1\n      iszero\n      tag_104\n      jumpi\n      0x00\n      dup1\n      revert\n    tag_104:\n      pop\n      tag_105\n      0x04\n      dup1\n      calldatasize\n      sub\n      dup2\n      add\n      swap1\n      tag_106\n      swap2\n      swap1\n      tag_43\n      jump\t// in\n    tag_106:\n      tag_107\n      jump\t// in\n    tag_105:\n      mload(0x40)\n      tag_108\n      swap2\n      swap1\n      tag_109\n      jump\t// in\n    tag_108:\n      mload(0x40)\n      dup1\n      swap2\n      sub\n      swap1\n      return\n        /* \"contracts/DvTicket.sol\":1309:1342  uint256 public totalPurchased = 0 */\n    tag_20:\n      callvalue\n      dup1\n      iszero\n      tag_110\n      jumpi\n      0x00\n      dup1\n      revert\n    tag_110:\n      pop\n      tag_111\n      tag_112\n      jump\t// in\n    tag_111:\n      mload(0x40)\n      tag_113\n      swap2\n      swap1\n      tag_37\n      jump\t// in\n    tag_113:\n      mload(0x40)\n      dup1\n      swap2\n      sub\n      swap1\n      return\n        /* \"contracts/DvTicket.sol\":4148:5423  function purchase(uint256 ticketId) external payable takeFee {... */\n    tag_21:\n      tag_114\n      0x04\n      dup1\n      calldatasize\n      sub\n      dup2\n      add\n      swap1\n      tag_115\n      swap2\n      swap1\n      tag_43\n      jump\t// in\n    tag_115:\n      tag_116\n      jump\t// in\n    tag_114:\n      stop\n        /* \"@devest/contracts/DeVest.sol\":2627:2814  function transferOwnership(address newOwner) public virtual onlyOwner {... */\n    tag_22:\n      callvalue\n      dup1\n      iszero\n      tag_117\n      jumpi\n      0x00\n      dup1\n      revert\n    tag_117:\n      pop\n      tag_118\n      0x04\n      dup1\n      calldatasize\n      sub\n      dup2\n      add\n      swap1\n      tag_119\n      swap2\n      swap1\n      tag_75\n      jump\t// in\n    tag_119:\n      tag_120\n      jump\t// in\n    tag_118:\n      stop\n        /* \"contracts/DvTicket.sol\":6904:7095  function supportsInterface(bytes4 interfaceId) external pure returns (bool){... */\n    tag_30:\n        /* \"contracts/DvTicket.sol\":6974:6978  bool */\n      0x00\n        /* \"contracts/DvTicket.sol\":7011:7036  type(IERC721).interfaceId */\n      0x80ac58cd00000000000000000000000000000000000000000000000000000000\n        /* \"contracts/DvTicket.sol\":6996:7036  interfaceId == type(IERC721).interfaceId */\n      not(0xffffffffffffffffffffffffffffffffffffffffffffffffffffffff)\n      and\n        /* \"contracts/DvTicket.sol\":6996:7007  interfaceId */\n      dup3\n        /* \"contracts/DvTicket.sol\":6996:7036  interfaceId == type(IERC721).interfaceId */\n      not(0xffffffffffffffffffffffffffffffffffffffffffffffffffffffff)\n      and\n      eq\n        /* \"contracts/DvTicket.sol\":6996:7088  interfaceId == type(IERC721).interfaceId || interfaceId == type(IERC721Metadata).interfaceId */\n      dup1\n      tag_122\n      jumpi\n      pop\n        /* \"contracts/DvTicket.sol\":7055:7088  type(IERC721Metadata).interfaceId */\n      0x5b5e139f00000000000000000000000000000000000000000000000000000000\n        /* \"contracts/DvTicket.sol\":7040:7088  interfaceId == type(IERC721Metadata).interfaceId */\n      not(0xffffffffffffffffffffffffffffffffffffffffffffffffffffffff)\n      and\n        /* \"contracts/DvTicket.sol\":7040:7051  interfaceId */\n      dup3\n        /* \"contracts/DvTicket.sol\":7040:7088  interfaceId == type(IERC721Metadata).interfaceId */\n      not(0xffffffffffffffffffffffffffffffffffffffffffffffffffffffff)\n      and\n      eq\n        /* \"contracts/DvTicket.sol\":6996:7088  interfaceId == type(IERC721).interfaceId || interfaceId == type(IERC721Metadata).interfaceId */\n    tag_122:\n        /* \"contracts/DvTicket.sol\":6989:7088  return interfaceId == type(IERC721).interfaceId || interfaceId == type(IERC721Metadata).interfaceId */\n      swap1\n      pop\n        /* \"contracts/DvTicket.sol\":6904:7095  function supportsInterface(bytes4 interfaceId) external pure returns (bool){... */\n      swap2\n      swap1\n      pop\n      jump\t// out\n        /* \"contracts/DvTicket.sol\":1238:1264  uint256 public totalSupply */\n    tag_35:\n      sload(0x07)\n      dup2\n      jump\t// out\n        /* \"@devest/contracts/DeVest.sol\":3211:3379  function detach() public virtual {... */\n    tag_40:\n        /* \"@devest/contracts/DeVest.sol\":3283:3295  _msgSender() */\n      tag_124\n        /* \"@devest/contracts/DeVest.sol\":3283:3293  _msgSender */\n      tag_125\n        /* \"@devest/contracts/DeVest.sol\":3283:3295  _msgSender() */\n      jump\t// in\n    tag_124:\n        /* \"@devest/contracts/DeVest.sol\":3262:3295  address(_factory) == _msgSender() */\n      0xffffffffffffffffffffffffffffffffffffffff\n      and\n        /* \"@devest/contracts/DeVest.sol\":3270:3278  _factory */\n      0x00\n      dup1\n      sload\n      swap1\n      0x0100\n      exp\n      swap1\n      div\n      0xffffffffffffffffffffffffffffffffffffffff\n      and\n        /* \"@devest/contracts/DeVest.sol\":3262:3295  address(_factory) == _msgSender() */\n      0xffffffffffffffffffffffffffffffffffffffff\n      and\n      eq\n        /* \"@devest/contracts/DeVest.sol\":3254:3330  require(address(_factory) == _msgSender(), \"Only factory can detach itself\") */\n      tag_126\n      jumpi\n      mload(0x40)\n      0x08c379a000000000000000000000000000000000000000000000000000000000\n      dup2\n      mstore\n      0x04\n      add\n      tag_127\n      swap1\n      tag_128\n      jump\t// in\n    tag_127:\n      mload(0x40)\n      dup1\n      swap2\n      sub\n      swap1\n      revert\n    tag_126:\n        /* \"@devest/contracts/DeVest.sol\":3369:3370  0 */\n      0x00\n        /* \"@devest/contracts/DeVest.sol\":3340:3348  _factory */\n      dup1\n      0x00\n        /* \"@devest/contracts/DeVest.sol\":3340:3372  _factory = DvFactory(address(0)) */\n      0x0100\n      exp\n      dup2\n      sload\n      dup2\n      0xffffffffffffffffffffffffffffffffffffffff\n      mul\n      not\n      and\n      swap1\n      dup4\n      0xffffffffffffffffffffffffffffffffffffffff\n      and\n      mul\n      or\n      swap1\n      sstore\n      pop\n        /* \"@devest/contracts/DeVest.sol\":3211:3379  function detach() public virtual {... */\n      jump\t// out\n        /* \"contracts/DvTicket.sol\":6328:6633  function cancel(uint256 ticketId) public payable takeFee {... */\n    tag_44:\n        /* \"@devest/contracts/DeVest.sol\":1617:1618  0 */\n      0x00\n        /* \"@devest/contracts/DeVest.sol\":1587:1620  _factory == DvFactory(address(0)) */\n      0xffffffffffffffffffffffffffffffffffffffff\n      and\n        /* \"@devest/contracts/DeVest.sol\":1587:1595  _factory */\n      0x00\n      dup1\n      sload\n      swap1\n      0x0100\n      exp\n      swap1\n      div\n      0xffffffffffffffffffffffffffffffffffffffff\n      and\n        /* \"@devest/contracts/DeVest.sol\":1587:1620  _factory == DvFactory(address(0)) */\n      0xffffffffffffffffffffffffffffffffffffffff\n      and\n      sub\n        /* \"@devest/contracts/DeVest.sol\":1583:1641  if (_factory == DvFactory(address(0)))... */\n      iszero\n        /* \"@devest/contracts/DeVest.sol\":1634:1641  return; */\n      tag_129\n        /* \"@devest/contracts/DeVest.sol\":1583:1641  if (_factory == DvFactory(address(0)))... */\n      jumpi\n        /* \"@devest/contracts/DeVest.sol\":1651:1668  address recipient */\n      0x00\n        /* \"@devest/contracts/DeVest.sol\":1678:1689  uint256 fee */\n      dup1\n        /* \"@devest/contracts/DeVest.sol\":1699:1715  uint256 issueFee */\n      0x00\n        /* \"@devest/contracts/DeVest.sol\":1779:1787  _factory */\n      dup1\n      0x00\n      swap1\n      sload\n      swap1\n      0x0100\n      exp\n      swap1\n      div\n      0xffffffffffffffffffffffffffffffffffffffff\n      and\n        /* \"@devest/contracts/DeVest.sol\":1779:1794  _factory.getFee */\n      0xffffffffffffffffffffffffffffffffffffffff\n      and\n      0xced72f87\n        /* \"@devest/contracts/DeVest.sol\":1779:1796  _factory.getFee() */\n      mload(0x40)\n      dup2\n      0xffffffff\n      and\n      0xe0\n      shl\n      dup2\n      mstore\n      0x04\n      add\n      0x40\n      dup1\n      mload\n      dup1\n      dup4\n      sub\n      dup2\n      dup7\n      gas\n      staticcall\n      iszero\n      dup1\n      iszero\n      tag_132\n      jumpi\n      returndatasize\n      0x00\n      dup1\n      returndatacopy\n      revert(0x00, returndatasize)\n    tag_132:\n      pop\n      pop\n      pop\n      pop\n      mload(0x40)\n      returndatasize\n      not(0x1f)\n      0x1f\n      dup3\n      add\n      and\n      dup3\n      add\n      dup1\n      0x40\n      mstore\n      pop\n      dup2\n      add\n      swap1\n      tag_133\n      swap2\n      swap1\n      tag_134\n      jump\t// in\n    tag_133:\n        /* \"@devest/contracts/DeVest.sol\":1760:1796  (fee, recipient) = _factory.getFee() */\n      dup1\n      swap5\n      pop\n      dup2\n      swap4\n      pop\n      pop\n      pop\n        /* \"@devest/contracts/DeVest.sol\":1875:1878  fee */\n      dup2\n        /* \"@devest/contracts/DeVest.sol\":1862:1871  msg.value */\n      callvalue\n        /* \"@devest/contracts/DeVest.sol\":1862:1878  msg.value >= fee */\n      lt\n      iszero\n        /* \"@devest/contracts/DeVest.sol\":1854:1908  require(msg.value >= fee, \"Please provide enough fee\") */\n      tag_135\n      jumpi\n      mload(0x40)\n      0x08c379a000000000000000000000000000000000000000000000000000000000\n      dup2\n      mstore\n      0x04\n      add\n      tag_136\n      swap1\n      tag_137\n      jump\t// in\n    tag_136:\n      mload(0x40)\n      dup1\n      swap2\n      sub\n      swap1\n      revert\n    tag_135:\n        /* \"@devest/contracts/DeVest.sol\":1926:1935  recipient */\n      dup3\n        /* \"@devest/contracts/DeVest.sol\":1918:1945  payable(recipient).transfer */\n      0xffffffffffffffffffffffffffffffffffffffff\n      and\n        /* \"@devest/contracts/DeVest.sol\":1918:1950  payable(recipient).transfer(fee) */\n      0x08fc\n        /* \"@devest/contracts/DeVest.sol\":1946:1949  fee */\n      dup4\n        /* \"@devest/contracts/DeVest.sol\":1918:1950  payable(recipient).transfer(fee) */\n      swap1\n      dup2\n      iszero\n      mul\n      swap1\n      mload(0x40)\n      0x00\n      mload(0x40)\n      dup1\n      dup4\n      sub\n      dup2\n      dup6\n      dup9\n      dup9\n      call\n      swap4\n      pop\n      pop\n      pop\n      pop\n      iszero\n      dup1\n      iszero\n      tag_139\n      jumpi\n      returndatasize\n      0x00\n      dup1\n      returndatacopy\n      revert(0x00, returndatasize)\n    tag_139:\n      pop\n        /* \"contracts/DvTicket.sol\":6424:6436  _msgSender() */\n      tag_141\n        /* \"contracts/DvTicket.sol\":6424:6434  _msgSender */\n      tag_125\n        /* \"contracts/DvTicket.sol\":6424:6436  _msgSender() */\n      jump\t// in\n    tag_141:\n        /* \"contracts/DvTicket.sol\":6403:6436  ownerOf(ticketId) == _msgSender() */\n      0xffffffffffffffffffffffffffffffffffffffff\n      and\n        /* \"contracts/DvTicket.sol\":6403:6420  ownerOf(ticketId) */\n      tag_142\n        /* \"contracts/DvTicket.sol\":6411:6419  ticketId */\n      dup6\n        /* \"contracts/DvTicket.sol\":6403:6410  ownerOf */\n      tag_64\n        /* \"contracts/DvTicket.sol\":6403:6420  ownerOf(ticketId) */\n      jump\t// in\n    tag_142:\n        /* \"contracts/DvTicket.sol\":6403:6436  ownerOf(ticketId) == _msgSender() */\n      0xffffffffffffffffffffffffffffffffffffffff\n      and\n      eq\n        /* \"contracts/DvTicket.sol\":6395:6466  require(ownerOf(ticketId) == _msgSender(), \"You don't own this ticket\") */\n      tag_143\n      jumpi\n      mload(0x40)\n      0x08c379a000000000000000000000000000000000000000000000000000000000\n      dup2\n      mstore\n      0x04\n      add\n      tag_144\n      swap1\n      tag_145\n      jump\t// in\n    tag_144:\n      mload(0x40)\n      dup1\n      swap2\n      sub\n      swap1\n      revert\n    tag_143:\n        /* \"contracts/DvTicket.sol\":6484:6503  isForSale(ticketId) */\n      tag_146\n        /* \"contracts/DvTicket.sol\":6494:6502  ticketId */\n      dup5\n        /* \"contracts/DvTicket.sol\":6484:6493  isForSale */\n      tag_81\n        /* \"contracts/DvTicket.sol\":6484:6503  isForSale(ticketId) */\n      jump\t// in\n    tag_146:\n        /* \"contracts/DvTicket.sol\":6476:6527  require(isForSale(ticketId), \"Ticket not for sale\") */\n      tag_147\n      jumpi\n      mload(0x40)\n      0x08c379a000000000000000000000000000000000000000000000000000000000\n      dup2\n      mstore\n      0x04\n      add\n      tag_148\n      swap1\n      tag_149\n      jump\t// in\n    tag_148:\n      mload(0x40)\n      dup1\n      swap2\n      sub\n      swap1\n      revert\n    tag_147:\n        /* \"contracts/DvTicket.sol\":6558:6578  Offer(address(0), 0) */\n      mload(0x40)\n      dup1\n      0x40\n      add\n      0x40\n      mstore\n      dup1\n        /* \"contracts/DvTicket.sol\":6572:6573  0 */\n      0x00\n        /* \"contracts/DvTicket.sol\":6558:6578  Offer(address(0), 0) */\n      0xffffffffffffffffffffffffffffffffffffffff\n      and\n      dup2\n      mstore\n      0x20\n      add\n        /* \"contracts/DvTicket.sol\":6576:6577  0 */\n      0x00\n        /* \"contracts/DvTicket.sol\":6558:6578  Offer(address(0), 0) */\n      dup2\n      mstore\n      pop\n        /* \"contracts/DvTicket.sol\":6538:6545  _market */\n      0x0c\n        /* \"contracts/DvTicket.sol\":6538:6555  _market[ticketId] */\n      0x00\n        /* \"contracts/DvTicket.sol\":6546:6554  ticketId */\n      dup7\n        /* \"contracts/DvTicket.sol\":6538:6555  _market[ticketId] */\n      dup2\n      mstore\n      0x20\n      add\n      swap1\n      dup2\n      mstore\n      0x20\n      add\n      0x00\n      keccak256\n        /* \"contracts/DvTicket.sol\":6538:6578  _market[ticketId] = Offer(address(0), 0) */\n      0x00\n      dup3\n      add\n      mload\n      dup2\n      0x00\n      add\n      exp(0x0100, 0x00)\n      dup2\n      sload\n      dup2\n      0xffffffffffffffffffffffffffffffffffffffff\n      mul\n      not\n      and\n      swap1\n      dup4\n      0xffffffffffffffffffffffffffffffffffffffff\n      and\n      mul\n      or\n      swap1\n      sstore\n      pop\n      0x20\n      dup3\n      add\n      mload\n      dup2\n      0x01\n      add\n      sstore\n      swap1\n      pop\n      pop\n        /* \"contracts/DvTicket.sol\":6617:6625  ticketId */\n      dup4\n        /* \"contracts/DvTicket.sol\":6603:6615  _msgSender() */\n      tag_150\n        /* \"contracts/DvTicket.sol\":6603:6613  _msgSender */\n      tag_125\n        /* \"contracts/DvTicket.sol\":6603:6615  _msgSender() */\n      jump\t// in\n    tag_150:\n        /* \"contracts/DvTicket.sol\":6594:6626  canceled(_msgSender(), ticketId) */\n      0xffffffffffffffffffffffffffffffffffffffff\n      and\n      0xb0fff5d2b17a855b0a22a0965386bcf2f7a8a364c81497c7ea721f3b771ba47e\n      mload(0x40)\n      mload(0x40)\n      dup1\n      swap2\n      sub\n      swap1\n      log3\n        /* \"@devest/contracts/DeVest.sol\":1518:1968  {... */\n      pop\n      pop\n      pop\n        /* \"contracts/DvTicket.sol\":6328:6633  function cancel(uint256 ticketId) public payable takeFee {... */\n    tag_129:\n      pop\n      jump\t// out\n        /* \"@devest/contracts/DeVest.sol\":3040:3132  function getRoyalty() public view virtual returns (uint256) {... */\n    tag_47:\n        /* \"@devest/contracts/DeVest.sol\":3091:3098  uint256 */\n      0x00\n        /* \"@devest/contracts/DeVest.sol\":3117:3125  _royalty */\n      sload(0x03)\n        /* \"@devest/contracts/DeVest.sol\":3110:3125  return _royalty */\n      swap1\n      pop\n        /* \"@devest/contracts/DeVest.sol\":3040:3132  function getRoyalty() public view virtual returns (uint256) {... */\n      swap1\n      jump\t// out\n        /* \"contracts/DvTicket.sol\":1505:1533  bool public tradable = false */\n    tag_51:\n      0x09\n      0x01\n      swap1\n      sload\n      swap1\n      0x0100\n      exp\n      swap1\n      div\n      0xff\n      and\n      dup2\n      jump\t// out\n        /* \"contracts/DvTicket.sol\":1398:1424  bool public preSale = true */\n    tag_55:\n      0x09\n      0x00\n      swap1\n      sload\n      swap1\n      0x0100\n      exp\n      swap1\n      div\n      0xff\n      and\n      dup2\n      jump\t// out\n        /* \"@devest/contracts/DeVest.sol\":2053:2216  function setRoyalties(uint256 __royalty, address __royaltyRecipient) public payable takeFee onlyOwner {... */\n    tag_60:\n        /* \"@devest/contracts/DeVest.sol\":1617:1618  0 */\n      0x00\n        /* \"@devest/contracts/DeVest.sol\":1587:1620  _factory == DvFactory(address(0)) */\n      0xffffffffffffffffffffffffffffffffffffffff\n      and\n        /* \"@devest/contracts/DeVest.sol\":1587:1595  _factory */\n      0x00\n      dup1\n      sload\n      swap1\n      0x0100\n      exp\n      swap1\n      div\n      0xffffffffffffffffffffffffffffffffffffffff\n      and\n        /* \"@devest/contracts/DeVest.sol\":1587:1620  _factory == DvFactory(address(0)) */\n      0xffffffffffffffffffffffffffffffffffffffff\n      and\n      sub\n        /* \"@devest/contracts/DeVest.sol\":1583:1641  if (_factory == DvFactory(address(0)))... */\n      iszero\n        /* \"@devest/contracts/DeVest.sol\":1634:1641  return; */\n      tag_152\n        /* \"@devest/contracts/DeVest.sol\":1583:1641  if (_factory == DvFactory(address(0)))... */\n      jumpi\n        /* \"@devest/contracts/DeVest.sol\":1651:1668  address recipient */\n      0x00\n        /* \"@devest/contracts/DeVest.sol\":1678:1689  uint256 fee */\n      dup1\n        /* \"@devest/contracts/DeVest.sol\":1699:1715  uint256 issueFee */\n      0x00\n        /* \"@devest/contracts/DeVest.sol\":1779:1787  _factory */\n      dup1\n      0x00\n      swap1\n      sload\n      swap1\n      0x0100\n      exp\n      swap1\n      div\n      0xffffffffffffffffffffffffffffffffffffffff\n      and\n        /* \"@devest/contracts/DeVest.sol\":1779:1794  _factory.getFee */\n      0xffffffffffffffffffffffffffffffffffffffff\n      and\n      0xced72f87\n        /* \"@devest/contracts/DeVest.sol\":1779:1796  _factory.getFee() */\n      mload(0x40)\n      dup2\n      0xffffffff\n      and\n      0xe0\n      shl\n      dup2\n      mstore\n      0x04\n      add\n      0x40\n      dup1\n      mload\n      dup1\n      dup4\n      sub\n      dup2\n      dup7\n      gas\n      staticcall\n      iszero\n      dup1\n      iszero\n      tag_155\n      jumpi\n      returndatasize\n      0x00\n      dup1\n      returndatacopy\n      revert(0x00, returndatasize)\n    tag_155:\n      pop\n      pop\n      pop\n      pop\n      mload(0x40)\n      returndatasize\n      not(0x1f)\n      0x1f\n      dup3\n      add\n      and\n      dup3\n      add\n      dup1\n      0x40\n      mstore\n      pop\n      dup2\n      add\n      swap1\n      tag_156\n      swap2\n      swap1\n      tag_134\n      jump\t// in\n    tag_156:\n        /* \"@devest/contracts/DeVest.sol\":1760:1796  (fee, recipient) = _factory.getFee() */\n      dup1\n      swap5\n      pop\n      dup2\n      swap4\n      pop\n      pop\n      pop\n        /* \"@devest/contracts/DeVest.sol\":1875:1878  fee */\n      dup2\n        /* \"@devest/contracts/DeVest.sol\":1862:1871  msg.value */\n      callvalue\n        /* \"@devest/contracts/DeVest.sol\":1862:1878  msg.value >= fee */\n      lt\n      iszero\n        /* \"@devest/contracts/DeVest.sol\":1854:1908  require(msg.value >= fee, \"Please provide enough fee\") */\n      tag_157\n      jumpi\n      mload(0x40)\n      0x08c379a000000000000000000000000000000000000000000000000000000000\n      dup2\n      mstore\n      0x04\n      add\n      tag_158\n      swap1\n      tag_137\n      jump\t// in\n    tag_158:\n      mload(0x40)\n      dup1\n      swap2\n      sub\n      swap1\n      revert\n    tag_157:\n        /* \"@devest/contracts/DeVest.sol\":1926:1935  recipient */\n      dup3\n        /* \"@devest/contracts/DeVest.sol\":1918:1945  payable(recipient).transfer */\n      0xffffffffffffffffffffffffffffffffffffffff\n      and\n        /* \"@devest/contracts/DeVest.sol\":1918:1950  payable(recipient).transfer(fee) */\n      0x08fc\n        /* \"@devest/contracts/DeVest.sol\":1946:1949  fee */\n      dup4\n        /* \"@devest/contracts/DeVest.sol\":1918:1950  payable(recipient).transfer(fee) */\n      swap1\n      dup2\n      iszero\n      mul\n      swap1\n      mload(0x40)\n      0x00\n      mload(0x40)\n      dup1\n      dup4\n      sub\n      dup2\n      dup6\n      dup9\n      dup9\n      call\n      swap4\n      pop\n      pop\n      pop\n      pop\n      iszero\n      dup1\n      iszero\n      tag_160\n      jumpi\n      returndatasize\n      0x00\n      dup1\n      returndatacopy\n      revert(0x00, returndatasize)\n    tag_160:\n      pop\n        /* \"@devest/contracts/DeVest.sol\":1357:1369  _msgSender() */\n      tag_162\n        /* \"@devest/contracts/DeVest.sol\":1357:1367  _msgSender */\n      tag_125\n        /* \"@devest/contracts/DeVest.sol\":1357:1369  _msgSender() */\n      jump\t// in\n    tag_162:\n        /* \"@devest/contracts/DeVest.sol\":1347:1369  _owner == _msgSender() */\n      0xffffffffffffffffffffffffffffffffffffffff\n      and\n        /* \"@devest/contracts/DeVest.sol\":1347:1353  _owner */\n      0x01\n      0x00\n      swap1\n      sload\n      swap1\n      0x0100\n      exp\n      swap1\n      div\n      0xffffffffffffffffffffffffffffffffffffffff\n      and\n        /* \"@devest/contracts/DeVest.sol\":1347:1369  _owner == _msgSender() */\n      0xffffffffffffffffffffffffffffffffffffffff\n      and\n      eq\n        /* \"@devest/contracts/DeVest.sol\":1339:1404  require(_owner == _msgSender(), \"Owner: caller is not the owner\") */\n      tag_163\n      jumpi\n      mload(0x40)\n      0x08c379a000000000000000000000000000000000000000000000000000000000\n      dup2\n      mstore\n      0x04\n      add\n      tag_164\n      swap1\n      tag_165\n      jump\t// in\n    tag_164:\n      mload(0x40)\n      dup1\n      swap2\n      sub\n      swap1\n      revert\n    tag_163:\n        /* \"@devest/contracts/DeVest.sol\":2165:2209  _setRoyalties(__royalty, __royaltyRecipient) */\n      tag_167\n        /* \"@devest/contracts/DeVest.sol\":2179:2188  __royalty */\n      dup6\n        /* \"@devest/contracts/DeVest.sol\":2190:2208  __royaltyRecipient */\n      dup6\n        /* \"@devest/contracts/DeVest.sol\":2165:2178  _setRoyalties */\n      tag_168\n        /* \"@devest/contracts/DeVest.sol\":2165:2209  _setRoyalties(__royalty, __royaltyRecipient) */\n      jump\t// in\n    tag_167:\n        /* \"@devest/contracts/DeVest.sol\":1518:1968  {... */\n      pop\n      pop\n      pop\n        /* \"@devest/contracts/DeVest.sol\":2053:2216  function setRoyalties(uint256 __royalty, address __royaltyRecipient) public payable takeFee onlyOwner {... */\n    tag_152:\n      pop\n      pop\n      jump\t// out\n        /* \"contracts/DvTicket.sol\":3160:3271  function ownerOf(uint256 tokenId) public view returns (address owner) {... */\n    tag_64:\n        /* \"contracts/DvTicket.sol\":3215:3228  address owner */\n      0x00\n        /* \"contracts/DvTicket.sol\":3247:3255  _tickets */\n      0x0a\n        /* \"contracts/DvTicket.sol\":3247:3264  _tickets[tokenId] */\n      0x00\n        /* \"contracts/DvTicket.sol\":3256:3263  tokenId */\n      dup4\n        /* \"contracts/DvTicket.sol\":3247:3264  _tickets[tokenId] */\n      dup2\n      mstore\n      0x20\n      add\n      swap1\n      dup2\n      mstore\n      0x20\n      add\n      0x00\n      keccak256\n      0x00\n      swap1\n      sload\n      swap1\n      0x0100\n      exp\n      swap1\n      div\n      0xffffffffffffffffffffffffffffffffffffffff\n      and\n        /* \"contracts/DvTicket.sol\":3240:3264  return _tickets[tokenId] */\n      swap1\n      pop\n        /* \"contracts/DvTicket.sol\":3160:3271  function ownerOf(uint256 tokenId) public view returns (address owner) {... */\n      swap2\n      swap1\n      pop\n      jump\t// out\n        /* \"contracts/DvTicket.sol\":2565:2989  function initialize(uint tax, uint256 _totalSupply, uint256 _price, bool _tradable) public onlyOwner nonReentrant virtual{... */\n    tag_71:\n        /* \"@devest/contracts/DeVest.sol\":1357:1369  _msgSender() */\n      tag_171\n        /* \"@devest/contracts/DeVest.sol\":1357:1367  _msgSender */\n      tag_125\n        /* \"@devest/contracts/DeVest.sol\":1357:1369  _msgSender() */\n      jump\t// in\n    tag_171:\n        /* \"@devest/contracts/DeVest.sol\":1347:1369  _owner == _msgSender() */\n      0xffffffffffffffffffffffffffffffffffffffff\n      and\n        /* \"@devest/contracts/DeVest.sol\":1347:1353  _owner */\n      0x01\n      0x00\n      swap1\n      sload\n      swap1\n      0x0100\n      exp\n      swap1\n      div\n      0xffffffffffffffffffffffffffffffffffffffff\n      and\n        /* \"@devest/contracts/DeVest.sol\":1347:1369  _owner == _msgSender() */\n      0xffffffffffffffffffffffffffffffffffffffff\n      and\n      eq\n        /* \"@devest/contracts/DeVest.sol\":1339:1404  require(_owner == _msgSender(), \"Owner: caller is not the owner\") */\n      tag_172\n      jumpi\n      mload(0x40)\n      0x08c379a000000000000000000000000000000000000000000000000000000000\n      dup2\n      mstore\n      0x04\n      add\n      tag_173\n      swap1\n      tag_165\n      jump\t// in\n    tag_173:\n      mload(0x40)\n      dup1\n      swap2\n      sub\n      swap1\n      revert\n    tag_172:\n        /* \"@openzeppelin/contracts/security/ReentrancyGuard.sol\":2261:2282  _nonReentrantBefore() */\n      tag_175\n        /* \"@openzeppelin/contracts/security/ReentrancyGuard.sol\":2261:2280  _nonReentrantBefore */\n      tag_176\n        /* \"@openzeppelin/contracts/security/ReentrancyGuard.sol\":2261:2282  _nonReentrantBefore() */\n      jump\t// in\n    tag_175:\n        /* \"contracts/DvTicket.sol\":2711:2712  0 */\n      0x00\n        /* \"contracts/DvTicket.sol\":2704:2707  tax */\n      dup5\n        /* \"contracts/DvTicket.sol\":2704:2712  tax >= 0 */\n      lt\n      iszero\n        /* \"contracts/DvTicket.sol\":2704:2727  tax >= 0 && tax <= 1000 */\n      dup1\n      iszero\n      tag_178\n      jumpi\n      pop\n        /* \"contracts/DvTicket.sol\":2723:2727  1000 */\n      0x03e8\n        /* \"contracts/DvTicket.sol\":2716:2719  tax */\n      dup5\n        /* \"contracts/DvTicket.sol\":2716:2727  tax <= 1000 */\n      gt\n      iszero\n        /* \"contracts/DvTicket.sol\":2704:2727  tax >= 0 && tax <= 1000 */\n    tag_178:\n        /* \"contracts/DvTicket.sol\":2696:2749  require(tax >= 0 && tax <= 1000, 'Invalid tax value') */\n      tag_179\n      jumpi\n      mload(0x40)\n      0x08c379a000000000000000000000000000000000000000000000000000000000\n      dup2\n      mstore\n      0x04\n      add\n      tag_180\n      swap1\n      tag_181\n      jump\t// in\n    tag_180:\n      mload(0x40)\n      dup1\n      swap2\n      sub\n      swap1\n      revert\n    tag_179:\n        /* \"contracts/DvTicket.sol\":2782:2783  0 */\n      0x00\n        /* \"contracts/DvTicket.sol\":2767:2778  totalSupply */\n      sload(0x07)\n        /* \"contracts/DvTicket.sol\":2767:2783  totalSupply >= 0 */\n      lt\n      iszero\n        /* \"contracts/DvTicket.sol\":2767:2807  totalSupply >= 0 && totalSupply <= 10000 */\n      dup1\n      iszero\n      tag_182\n      jumpi\n      pop\n        /* \"contracts/DvTicket.sol\":2802:2807  10000 */\n      0x2710\n        /* \"contracts/DvTicket.sol\":2787:2798  totalSupply */\n      sload(0x07)\n        /* \"contracts/DvTicket.sol\":2787:2807  totalSupply <= 10000 */\n      gt\n      iszero\n        /* \"contracts/DvTicket.sol\":2767:2807  totalSupply >= 0 && totalSupply <= 10000 */\n    tag_182:\n        /* \"contracts/DvTicket.sol\":2759:2827  require(totalSupply >= 0 && totalSupply <= 10000, 'Max 10 decimals') */\n      tag_183\n      jumpi\n      mload(0x40)\n      0x08c379a000000000000000000000000000000000000000000000000000000000\n      dup2\n      mstore\n      0x04\n      add\n      tag_184\n      swap1\n      tag_185\n      jump\t// in\n    tag_184:\n      mload(0x40)\n      dup1\n      swap2\n      sub\n      swap1\n      revert\n    tag_183:\n        /* \"contracts/DvTicket.sol\":2852:2864  _totalSupply */\n      dup3\n        /* \"contracts/DvTicket.sol\":2838:2849  totalSupply */\n      0x07\n        /* \"contracts/DvTicket.sol\":2838:2864  totalSupply = _totalSupply */\n      dup2\n      swap1\n      sstore\n      pop\n        /* \"contracts/DvTicket.sol\":2882:2888  _price */\n      dup2\n        /* \"contracts/DvTicket.sol\":2874:2879  price */\n      0x06\n        /* \"contracts/DvTicket.sol\":2874:2888  price = _price */\n      dup2\n      swap1\n      sstore\n      pop\n        /* \"contracts/DvTicket.sol\":2909:2918  _tradable */\n      dup1\n        /* \"contracts/DvTicket.sol\":2898:2906  tradable */\n      0x09\n      0x01\n        /* \"contracts/DvTicket.sol\":2898:2918  tradable = _tradable */\n      0x0100\n      exp\n      dup2\n      sload\n      dup2\n      0xff\n      mul\n      not\n      and\n      swap1\n      dup4\n      iszero\n      iszero\n      mul\n      or\n      swap1\n      sstore\n      pop\n        /* \"contracts/DvTicket.sol\":2955:2982  _setRoyalties(tax, owner()) */\n      tag_186\n        /* \"contracts/DvTicket.sol\":2969:2972  tax */\n      dup5\n        /* \"contracts/DvTicket.sol\":2974:2981  owner() */\n      tag_187\n        /* \"contracts/DvTicket.sol\":2974:2979  owner */\n      tag_85\n        /* \"contracts/DvTicket.sol\":2974:2981  owner() */\n      jump\t// in\n    tag_187:\n        /* \"contracts/DvTicket.sol\":2955:2968  _setRoyalties */\n      tag_168\n        /* \"contracts/DvTicket.sol\":2955:2982  _setRoyalties(tax, owner()) */\n      jump\t// in\n    tag_186:\n        /* \"@openzeppelin/contracts/security/ReentrancyGuard.sol\":2303:2323  _nonReentrantAfter() */\n      tag_188\n        /* \"@openzeppelin/contracts/security/ReentrancyGuard.sol\":2303:2321  _nonReentrantAfter */\n      tag_189\n        /* \"@openzeppelin/contracts/security/ReentrancyGuard.sol\":2303:2323  _nonReentrantAfter() */\n      jump\t// in\n    tag_188:\n        /* \"contracts/DvTicket.sol\":2565:2989  function initialize(uint tax, uint256 _totalSupply, uint256 _price, bool _tradable) public onlyOwner nonReentrant virtual{... */\n      pop\n      pop\n      pop\n      pop\n      jump\t// out\n        /* \"contracts/DvTicket.sol\":3330:3517  function balanceOf(address owner) public view virtual returns (uint256) {... */\n    tag_76:\n        /* \"contracts/DvTicket.sol\":3393:3400  uint256 */\n      0x00\n        /* \"contracts/DvTicket.sol\":3437:3438  0 */\n      dup1\n        /* \"contracts/DvTicket.sol\":3420:3439  owner != address(0) */\n      0xffffffffffffffffffffffffffffffffffffffff\n      and\n        /* \"contracts/DvTicket.sol\":3420:3425  owner */\n      dup3\n        /* \"contracts/DvTicket.sol\":3420:3439  owner != address(0) */\n      0xffffffffffffffffffffffffffffffffffffffff\n      and\n      sub\n        /* \"contracts/DvTicket.sol\":3412:3477  require(owner != address(0), \"Address zero is not a valid owner\") */\n      tag_191\n      jumpi\n      mload(0x40)\n      0x08c379a000000000000000000000000000000000000000000000000000000000\n      dup2\n      mstore\n      0x04\n      add\n      tag_192\n      swap1\n      tag_193\n      jump\t// in\n    tag_192:\n      mload(0x40)\n      dup1\n      swap2\n      sub\n      swap1\n      revert\n    tag_191:\n        /* \"contracts/DvTicket.sol\":3494:3503  _balances */\n      0x0b\n        /* \"contracts/DvTicket.sol\":3494:3510  _balances[owner] */\n      0x00\n        /* \"contracts/DvTicket.sol\":3504:3509  owner */\n      dup4\n        /* \"contracts/DvTicket.sol\":3494:3510  _balances[owner] */\n      0xffffffffffffffffffffffffffffffffffffffff\n      and\n      0xffffffffffffffffffffffffffffffffffffffff\n      and\n      dup2\n      mstore\n      0x20\n      add\n      swap1\n      dup2\n      mstore\n      0x20\n      add\n      0x00\n      keccak256\n      sload\n        /* \"contracts/DvTicket.sol\":3487:3510  return _balances[owner] */\n      swap1\n      pop\n        /* \"contracts/DvTicket.sol\":3330:3517  function balanceOf(address owner) public view virtual returns (uint256) {... */\n      swap2\n      swap1\n      pop\n      jump\t// out\n        /* \"contracts/DvTicket.sol\":6000:6160  function isForSale(uint256 ticketId) public view returns (bool) {... */\n    tag_81:\n        /* \"contracts/DvTicket.sol\":6058:6062  bool */\n      0x00\n        /* \"contracts/DvTicket.sol\":6116:6117  0 */\n      dup1\n        /* \"contracts/DvTicket.sol\":6081:6118  _market[ticketId].owner != address(0) */\n      0xffffffffffffffffffffffffffffffffffffffff\n      and\n        /* \"contracts/DvTicket.sol\":6081:6088  _market */\n      0x0c\n        /* \"contracts/DvTicket.sol\":6081:6098  _market[ticketId] */\n      0x00\n        /* \"contracts/DvTicket.sol\":6089:6097  ticketId */\n      dup5\n        /* \"contracts/DvTicket.sol\":6081:6098  _market[ticketId] */\n      dup2\n      mstore\n      0x20\n      add\n      swap1\n      dup2\n      mstore\n      0x20\n      add\n      0x00\n      keccak256\n        /* \"contracts/DvTicket.sol\":6081:6104  _market[ticketId].owner */\n      0x00\n      add\n      0x00\n      swap1\n      sload\n      swap1\n      0x0100\n      exp\n      swap1\n      div\n      0xffffffffffffffffffffffffffffffffffffffff\n      and\n        /* \"contracts/DvTicket.sol\":6081:6118  _market[ticketId].owner != address(0) */\n      0xffffffffffffffffffffffffffffffffffffffff\n      and\n      eq\n      iszero\n        /* \"contracts/DvTicket.sol\":6081:6153  _market[ticketId].owner != address(0) || ownerOf(ticketId) == address(0) */\n      dup1\n      tag_195\n      jumpi\n      pop\n        /* \"contracts/DvTicket.sol\":6151:6152  0 */\n      0x00\n        /* \"contracts/DvTicket.sol\":6122:6153  ownerOf(ticketId) == address(0) */\n      0xffffffffffffffffffffffffffffffffffffffff\n      and\n        /* \"contracts/DvTicket.sol\":6122:6139  ownerOf(ticketId) */\n      tag_196\n        /* \"contracts/DvTicket.sol\":6130:6138  ticketId */\n      dup4\n        /* \"contracts/DvTicket.sol\":6122:6129  ownerOf */\n      tag_64\n        /* \"contracts/DvTicket.sol\":6122:6139  ownerOf(ticketId) */\n      jump\t// in\n    tag_196:\n        /* \"contracts/DvTicket.sol\":6122:6153  ownerOf(ticketId) == address(0) */\n      0xffffffffffffffffffffffffffffffffffffffff\n      and\n      eq\n        /* \"contracts/DvTicket.sol\":6081:6153  _market[ticketId].owner != address(0) || ownerOf(ticketId) == address(0) */\n    tag_195:\n        /* \"contracts/DvTicket.sol\":6074:6153  return _market[ticketId].owner != address(0) || ownerOf(ticketId) == address(0) */\n      swap1\n      pop\n        /* \"contracts/DvTicket.sol\":6000:6160  function isForSale(uint256 ticketId) public view returns (bool) {... */\n      swap2\n      swap1\n      pop\n      jump\t// out\n        /* \"@devest/contracts/DeVest.sol\":2890:2975  function owner() public view virtual returns (address) {... */\n    tag_85:\n        /* \"@devest/contracts/DeVest.sol\":2936:2943  address */\n      0x00\n        /* \"@devest/contracts/DeVest.sol\":2962:2968  _owner */\n      0x01\n      0x00\n      swap1\n      sload\n      swap1\n      0x0100\n      exp\n      swap1\n      div\n      0xffffffffffffffffffffffffffffffffffffffff\n      and\n        /* \"@devest/contracts/DeVest.sol\":2955:2968  return _owner */\n      swap1\n      pop\n        /* \"@devest/contracts/DeVest.sol\":2890:2975  function owner() public view virtual returns (address) {... */\n      swap1\n      jump\t// out\n        /* \"contracts/DvTicket.sol\":1148:1168  uint256 public price */\n    tag_89:\n      sload(0x06)\n      dup2\n      jump\t// out\n        /* \"contracts/DvTicket.sol\":5475:5993  function offer(uint256 ticketId, uint256 _price) public payable takeFee {... */\n    tag_94:\n        /* \"@devest/contracts/DeVest.sol\":1617:1618  0 */\n      0x00\n        /* \"@devest/contracts/DeVest.sol\":1587:1620  _factory == DvFactory(address(0)) */\n      0xffffffffffffffffffffffffffffffffffffffff\n      and\n        /* \"@devest/contracts/DeVest.sol\":1587:1595  _factory */\n      0x00\n      dup1\n      sload\n      swap1\n      0x0100\n      exp\n      swap1\n      div\n      0xffffffffffffffffffffffffffffffffffffffff\n      and\n        /* \"@devest/contracts/DeVest.sol\":1587:1620  _factory == DvFactory(address(0)) */\n      0xffffffffffffffffffffffffffffffffffffffff\n      and\n      sub\n        /* \"@devest/contracts/DeVest.sol\":1583:1641  if (_factory == DvFactory(address(0)))... */\n      iszero\n        /* \"@devest/contracts/DeVest.sol\":1634:1641  return; */\n      tag_198\n        /* \"@devest/contracts/DeVest.sol\":1583:1641  if (_factory == DvFactory(address(0)))... */\n      jumpi\n        /* \"@devest/contracts/DeVest.sol\":1651:1668  address recipient */\n      0x00\n        /* \"@devest/contracts/DeVest.sol\":1678:1689  uint256 fee */\n      dup1\n        /* \"@devest/contracts/DeVest.sol\":1699:1715  uint256 issueFee */\n      0x00\n        /* \"@devest/contracts/DeVest.sol\":1779:1787  _factory */\n      dup1\n      0x00\n      swap1\n      sload\n      swap1\n      0x0100\n      exp\n      swap1\n      div\n      0xffffffffffffffffffffffffffffffffffffffff\n      and\n        /* \"@devest/contracts/DeVest.sol\":1779:1794  _factory.getFee */\n      0xffffffffffffffffffffffffffffffffffffffff\n      and\n      0xced72f87\n        /* \"@devest/contracts/DeVest.sol\":1779:1796  _factory.getFee() */\n      mload(0x40)\n      dup2\n      0xffffffff\n      and\n      0xe0\n      shl\n      dup2\n      mstore\n      0x04\n      add\n      0x40\n      dup1\n      mload\n      dup1\n      dup4\n      sub\n      dup2\n      dup7\n      gas\n      staticcall\n      iszero\n      dup1\n      iszero\n      tag_201\n      jumpi\n      returndatasize\n      0x00\n      dup1\n      returndatacopy\n      revert(0x00, returndatasize)\n    tag_201:\n      pop\n      pop\n      pop\n      pop\n      mload(0x40)\n      returndatasize\n      not(0x1f)\n      0x1f\n      dup3\n      add\n      and\n      dup3\n      add\n      dup1\n      0x40\n      mstore\n      pop\n      dup2\n      add\n      swap1\n      tag_202\n      swap2\n      swap1\n      tag_134\n      jump\t// in\n    tag_202:\n        /* \"@devest/contracts/DeVest.sol\":1760:1796  (fee, recipient) = _factory.getFee() */\n      dup1\n      swap5\n      pop\n      dup2\n      swap4\n      pop\n      pop\n      pop\n        /* \"@devest/contracts/DeVest.sol\":1875:1878  fee */\n      dup2\n        /* \"@devest/contracts/DeVest.sol\":1862:1871  msg.value */\n      callvalue\n        /* \"@devest/contracts/DeVest.sol\":1862:1878  msg.value >= fee */\n      lt\n      iszero\n        /* \"@devest/contracts/DeVest.sol\":1854:1908  require(msg.value >= fee, \"Please provide enough fee\") */\n      tag_203\n      jumpi\n      mload(0x40)\n      0x08c379a000000000000000000000000000000000000000000000000000000000\n      dup2\n      mstore\n      0x04\n      add\n      tag_204\n      swap1\n      tag_137\n      jump\t// in\n    tag_204:\n      mload(0x40)\n      dup1\n      swap2\n      sub\n      swap1\n      revert\n    tag_203:\n        /* \"@devest/contracts/DeVest.sol\":1926:1935  recipient */\n      dup3\n        /* \"@devest/contracts/DeVest.sol\":1918:1945  payable(recipient).transfer */\n      0xffffffffffffffffffffffffffffffffffffffff\n      and\n        /* \"@devest/contracts/DeVest.sol\":1918:1950  payable(recipient).transfer(fee) */\n      0x08fc\n        /* \"@devest/contracts/DeVest.sol\":1946:1949  fee */\n      dup4\n        /* \"@devest/contracts/DeVest.sol\":1918:1950  payable(recipient).transfer(fee) */\n      swap1\n      dup2\n      iszero\n      mul\n      swap1\n      mload(0x40)\n      0x00\n      mload(0x40)\n      dup1\n      dup4\n      sub\n      dup2\n      dup6\n      dup9\n      dup9\n      call\n      swap4\n      pop\n      pop\n      pop\n      pop\n      iszero\n      dup1\n      iszero\n      tag_206\n      jumpi\n      returndatasize\n      0x00\n      dup1\n      returndatacopy\n      revert(0x00, returndatasize)\n    tag_206:\n      pop\n        /* \"contracts/DvTicket.sol\":5576:5581  false */\n      0x00\n        /* \"contracts/DvTicket.sol\":5565:5581  preSale == false */\n      iszero\n      iszero\n        /* \"contracts/DvTicket.sol\":5565:5572  preSale */\n      0x09\n      0x00\n      swap1\n      sload\n      swap1\n      0x0100\n      exp\n      swap1\n      div\n      0xff\n      and\n        /* \"contracts/DvTicket.sol\":5565:5581  preSale == false */\n      iszero\n      iszero\n      eq\n        /* \"contracts/DvTicket.sol\":5557:5603  require(preSale == false, \"Presale is active\") */\n      tag_208\n      jumpi\n      mload(0x40)\n      0x08c379a000000000000000000000000000000000000000000000000000000000\n      dup2\n      mstore\n      0x04\n      add\n      tag_209\n      swap1\n      tag_210\n      jump\t// in\n    tag_209:\n      mload(0x40)\n      dup1\n      swap2\n      sub\n      swap1\n      revert\n    tag_208:\n        /* \"contracts/DvTicket.sol\":5633:5637  true */\n      0x01\n        /* \"contracts/DvTicket.sol\":5621:5637  tradable == true */\n      iszero\n      iszero\n        /* \"contracts/DvTicket.sol\":5621:5629  tradable */\n      0x09\n      0x01\n      swap1\n      sload\n      swap1\n      0x0100\n      exp\n      swap1\n      div\n      0xff\n      and\n        /* \"contracts/DvTicket.sol\":5621:5637  tradable == true */\n      iszero\n      iszero\n      eq\n        /* \"contracts/DvTicket.sol\":5613:5661  require(tradable == true, \"Trading is disabled\") */\n      tag_211\n      jumpi\n      mload(0x40)\n      0x08c379a000000000000000000000000000000000000000000000000000000000\n      dup2\n      mstore\n      0x04\n      add\n      tag_212\n      swap1\n      tag_213\n      jump\t// in\n    tag_212:\n      mload(0x40)\n      dup1\n      swap2\n      sub\n      swap1\n      revert\n    tag_211:\n        /* \"contracts/DvTicket.sol\":5700:5712  _msgSender() */\n      tag_214\n        /* \"contracts/DvTicket.sol\":5700:5710  _msgSender */\n      tag_125\n        /* \"contracts/DvTicket.sol\":5700:5712  _msgSender() */\n      jump\t// in\n    tag_214:\n        /* \"contracts/DvTicket.sol\":5679:5712  ownerOf(ticketId) == _msgSender() */\n      0xffffffffffffffffffffffffffffffffffffffff\n      and\n        /* \"contracts/DvTicket.sol\":5679:5696  ownerOf(ticketId) */\n      tag_215\n        /* \"contracts/DvTicket.sol\":5687:5695  ticketId */\n      dup7\n        /* \"contracts/DvTicket.sol\":5679:5686  ownerOf */\n      tag_64\n        /* \"contracts/DvTicket.sol\":5679:5696  ownerOf(ticketId) */\n      jump\t// in\n    tag_215:\n        /* \"contracts/DvTicket.sol\":5679:5712  ownerOf(ticketId) == _msgSender() */\n      0xffffffffffffffffffffffffffffffffffffffff\n      and\n      eq\n        /* \"contracts/DvTicket.sol\":5671:5742  require(ownerOf(ticketId) == _msgSender(), \"You don't own this ticket\") */\n      tag_216\n      jumpi\n      mload(0x40)\n      0x08c379a000000000000000000000000000000000000000000000000000000000\n      dup2\n      mstore\n      0x04\n      add\n      tag_217\n      swap1\n      tag_145\n      jump\t// in\n    tag_217:\n      mload(0x40)\n      dup1\n      swap2\n      sub\n      swap1\n      revert\n    tag_216:\n        /* \"contracts/DvTicket.sol\":5769:5770  0 */\n      0x00\n        /* \"contracts/DvTicket.sol\":5760:5766  _price */\n      dup5\n        /* \"contracts/DvTicket.sol\":5760:5770  _price > 0 */\n      gt\n        /* \"contracts/DvTicket.sol\":5752:5806  require(_price > 0, \"Price must be greater than zero\") */\n      tag_218\n      jumpi\n      mload(0x40)\n      0x08c379a000000000000000000000000000000000000000000000000000000000\n      dup2\n      mstore\n      0x04\n      add\n      tag_219\n      swap1\n      tag_220\n      jump\t// in\n    tag_219:\n      mload(0x40)\n      dup1\n      swap2\n      sub\n      swap1\n      revert\n    tag_218:\n        /* \"contracts/DvTicket.sol\":5847:5852  false */\n      0x00\n        /* \"contracts/DvTicket.sol\":5824:5852  isForSale(ticketId) == false */\n      iszero\n      iszero\n        /* \"contracts/DvTicket.sol\":5824:5843  isForSale(ticketId) */\n      tag_221\n        /* \"contracts/DvTicket.sol\":5834:5842  ticketId */\n      dup7\n        /* \"contracts/DvTicket.sol\":5824:5833  isForSale */\n      tag_81\n        /* \"contracts/DvTicket.sol\":5824:5843  isForSale(ticketId) */\n      jump\t// in\n    tag_221:\n        /* \"contracts/DvTicket.sol\":5824:5852  isForSale(ticketId) == false */\n      iszero\n      iszero\n      eq\n        /* \"contracts/DvTicket.sol\":5816:5873  require(isForSale(ticketId) == false, \"Already for sale\") */\n      tag_222\n      jumpi\n      mload(0x40)\n      0x08c379a000000000000000000000000000000000000000000000000000000000\n      dup2\n      mstore\n      0x04\n      add\n      tag_223\n      swap1\n      tag_224\n      jump\t// in\n    tag_223:\n      mload(0x40)\n      dup1\n      swap2\n      sub\n      swap1\n      revert\n    tag_222:\n        /* \"contracts/DvTicket.sol\":5904:5931  Offer(_msgSender(), _price) */\n      mload(0x40)\n      dup1\n      0x40\n      add\n      0x40\n      mstore\n      dup1\n        /* \"contracts/DvTicket.sol\":5910:5922  _msgSender() */\n      tag_225\n        /* \"contracts/DvTicket.sol\":5910:5920  _msgSender */\n      tag_125\n        /* \"contracts/DvTicket.sol\":5910:5922  _msgSender() */\n      jump\t// in\n    tag_225:\n        /* \"contracts/DvTicket.sol\":5904:5931  Offer(_msgSender(), _price) */\n      0xffffffffffffffffffffffffffffffffffffffff\n      and\n      dup2\n      mstore\n      0x20\n      add\n        /* \"contracts/DvTicket.sol\":5924:5930  _price */\n      dup6\n        /* \"contracts/DvTicket.sol\":5904:5931  Offer(_msgSender(), _price) */\n      dup2\n      mstore\n      pop\n        /* \"contracts/DvTicket.sol\":5884:5891  _market */\n      0x0c\n        /* \"contracts/DvTicket.sol\":5884:5901  _market[ticketId] */\n      0x00\n        /* \"contracts/DvTicket.sol\":5892:5900  ticketId */\n      dup8\n        /* \"contracts/DvTicket.sol\":5884:5901  _market[ticketId] */\n      dup2\n      mstore\n      0x20\n      add\n      swap1\n      dup2\n      mstore\n      0x20\n      add\n      0x00\n      keccak256\n        /* \"contracts/DvTicket.sol\":5884:5931  _market[ticketId] = Offer(_msgSender(), _price) */\n      0x00\n      dup3\n      add\n      mload\n      dup2\n      0x00\n      add\n      exp(0x0100, 0x00)\n      dup2\n      sload\n      dup2\n      0xffffffffffffffffffffffffffffffffffffffff\n      mul\n      not\n      and\n      swap1\n      dup4\n      0xffffffffffffffffffffffffffffffffffffffff\n      and\n      mul\n      or\n      swap1\n      sstore\n      pop\n      0x20\n      dup3\n      add\n      mload\n      dup2\n      0x01\n      add\n      sstore\n      swap1\n      pop\n      pop\n        /* \"contracts/DvTicket.sol\":5969:5977  ticketId */\n      dup5\n        /* \"contracts/DvTicket.sol\":5955:5967  _msgSender() */\n      tag_226\n        /* \"contracts/DvTicket.sol\":5955:5965  _msgSender */\n      tag_125\n        /* \"contracts/DvTicket.sol\":5955:5967  _msgSender() */\n      jump\t// in\n    tag_226:\n        /* \"contracts/DvTicket.sol\":5947:5986  offered(_msgSender(), ticketId, _price) */\n      0xffffffffffffffffffffffffffffffffffffffff\n      and\n      0x6fc989262f1a8db6159481527f1136bd8da67d0d235ae4f193118099ddd03231\n        /* \"contracts/DvTicket.sol\":5979:5985  _price */\n      dup7\n        /* \"contracts/DvTicket.sol\":5947:5986  offered(_msgSender(), ticketId, _price) */\n      mload(0x40)\n      tag_227\n      swap2\n      swap1\n      tag_37\n      jump\t// in\n    tag_227:\n      mload(0x40)\n      dup1\n      swap2\n      sub\n      swap1\n      log3\n        /* \"@devest/contracts/DeVest.sol\":1518:1968  {... */\n      pop\n      pop\n      pop\n        /* \"contracts/DvTicket.sol\":5475:5993  function offer(uint256 ticketId, uint256 _price) public payable takeFee {... */\n    tag_198:\n      pop\n      pop\n      jump\t// out\n        /* \"contracts/DvTicket.sol\":3591:4119  function transfer(address to, uint256 ticketId) external payable takeFee {... */\n    tag_98:\n        /* \"@devest/contracts/DeVest.sol\":1617:1618  0 */\n      0x00\n        /* \"@devest/contracts/DeVest.sol\":1587:1620  _factory == DvFactory(address(0)) */\n      0xffffffffffffffffffffffffffffffffffffffff\n      and\n        /* \"@devest/contracts/DeVest.sol\":1587:1595  _factory */\n      0x00\n      dup1\n      sload\n      swap1\n      0x0100\n      exp\n      swap1\n      div\n      0xffffffffffffffffffffffffffffffffffffffff\n      and\n        /* \"@devest/contracts/DeVest.sol\":1587:1620  _factory == DvFactory(address(0)) */\n      0xffffffffffffffffffffffffffffffffffffffff\n      and\n      sub\n        /* \"@devest/contracts/DeVest.sol\":1583:1641  if (_factory == DvFactory(address(0)))... */\n      iszero\n        /* \"@devest/contracts/DeVest.sol\":1634:1641  return; */\n      tag_228\n        /* \"@devest/contracts/DeVest.sol\":1583:1641  if (_factory == DvFactory(address(0)))... */\n      jumpi\n        /* \"@devest/contracts/DeVest.sol\":1651:1668  address recipient */\n      0x00\n        /* \"@devest/contracts/DeVest.sol\":1678:1689  uint256 fee */\n      dup1\n        /* \"@devest/contracts/DeVest.sol\":1699:1715  uint256 issueFee */\n      0x00\n        /* \"@devest/contracts/DeVest.sol\":1779:1787  _factory */\n      dup1\n      0x00\n      swap1\n      sload\n      swap1\n      0x0100\n      exp\n      swap1\n      div\n      0xffffffffffffffffffffffffffffffffffffffff\n      and\n        /* \"@devest/contracts/DeVest.sol\":1779:1794  _factory.getFee */\n      0xffffffffffffffffffffffffffffffffffffffff\n      and\n      0xced72f87\n        /* \"@devest/contracts/DeVest.sol\":1779:1796  _factory.getFee() */\n      mload(0x40)\n      dup2\n      0xffffffff\n      and\n      0xe0\n      shl\n      dup2\n      mstore\n      0x04\n      add\n      0x40\n      dup1\n      mload\n      dup1\n      dup4\n      sub\n      dup2\n      dup7\n      gas\n      staticcall\n      iszero\n      dup1\n      iszero\n      tag_231\n      jumpi\n      returndatasize\n      0x00\n      dup1\n      returndatacopy\n      revert(0x00, returndatasize)\n    tag_231:\n      pop\n      pop\n      pop\n      pop\n      mload(0x40)\n      returndatasize\n      not(0x1f)\n      0x1f\n      dup3\n      add\n      and\n      dup3\n      add\n      dup1\n      0x40\n      mstore\n      pop\n      dup2\n      add\n      swap1\n      tag_232\n      swap2\n      swap1\n      tag_134\n      jump\t// in\n    tag_232:\n        /* \"@devest/contracts/DeVest.sol\":1760:1796  (fee, recipient) = _factory.getFee() */\n      dup1\n      swap5\n      pop\n      dup2\n      swap4\n      pop\n      pop\n      pop\n        /* \"@devest/contracts/DeVest.sol\":1875:1878  fee */\n      dup2\n        /* \"@devest/contracts/DeVest.sol\":1862:1871  msg.value */\n      callvalue\n        /* \"@devest/contracts/DeVest.sol\":1862:1878  msg.value >= fee */\n      lt\n      iszero\n        /* \"@devest/contracts/DeVest.sol\":1854:1908  require(msg.value >= fee, \"Please provide enough fee\") */\n      tag_233\n      jumpi\n      mload(0x40)\n      0x08c379a000000000000000000000000000000000000000000000000000000000\n      dup2\n      mstore\n      0x04\n      add\n      tag_234\n      swap1\n      tag_137\n      jump\t// in\n    tag_234:\n      mload(0x40)\n      dup1\n      swap2\n      sub\n      swap1\n      revert\n    tag_233:\n        /* \"@devest/contracts/DeVest.sol\":1926:1935  recipient */\n      dup3\n        /* \"@devest/contracts/DeVest.sol\":1918:1945  payable(recipient).transfer */\n      0xffffffffffffffffffffffffffffffffffffffff\n      and\n        /* \"@devest/contracts/DeVest.sol\":1918:1950  payable(recipient).transfer(fee) */\n      0x08fc\n        /* \"@devest/contracts/DeVest.sol\":1946:1949  fee */\n      dup4\n        /* \"@devest/contracts/DeVest.sol\":1918:1950  payable(recipient).transfer(fee) */\n      swap1\n      dup2\n      iszero\n      mul\n      swap1\n      mload(0x40)\n      0x00\n      mload(0x40)\n      dup1\n      dup4\n      sub\n      dup2\n      dup6\n      dup9\n      dup9\n      call\n      swap4\n      pop\n      pop\n      pop\n      pop\n      iszero\n      dup1\n      iszero\n      tag_236\n      jumpi\n      returndatasize\n      0x00\n      dup1\n      returndatacopy\n      revert(0x00, returndatasize)\n    tag_236:\n      pop\n        /* \"contracts/DvTicket.sol\":3698:3715  ownerOf(ticketId) */\n      tag_238\n        /* \"contracts/DvTicket.sol\":3706:3714  ticketId */\n      dup5\n        /* \"contracts/DvTicket.sol\":3698:3705  ownerOf */\n      tag_64\n        /* \"contracts/DvTicket.sol\":3698:3715  ownerOf(ticketId) */\n      jump\t// in\n    tag_238:\n        /* \"contracts/DvTicket.sol\":3682:3715  _msgSender() == ownerOf(ticketId) */\n      0xffffffffffffffffffffffffffffffffffffffff\n      and\n        /* \"contracts/DvTicket.sol\":3682:3694  _msgSender() */\n      tag_239\n        /* \"contracts/DvTicket.sol\":3682:3692  _msgSender */\n      tag_125\n        /* \"contracts/DvTicket.sol\":3682:3694  _msgSender() */\n      jump\t// in\n    tag_239:\n        /* \"contracts/DvTicket.sol\":3682:3715  _msgSender() == ownerOf(ticketId) */\n      0xffffffffffffffffffffffffffffffffffffffff\n      and\n      eq\n        /* \"contracts/DvTicket.sol\":3674:3748  require(_msgSender() == ownerOf(ticketId), \"Transfer caller is not owner\") */\n      tag_240\n      jumpi\n      mload(0x40)\n      0x08c379a000000000000000000000000000000000000000000000000000000000\n      dup2\n      mstore\n      0x04\n      add\n      tag_241\n      swap1\n      tag_242\n      jump\t// in\n    tag_241:\n      mload(0x40)\n      dup1\n      swap2\n      sub\n      swap1\n      revert\n    tag_240:\n        /* \"contracts/DvTicket.sol\":3780:3781  0 */\n      0x00\n        /* \"contracts/DvTicket.sol\":3766:3782  to != address(0) */\n      0xffffffffffffffffffffffffffffffffffffffff\n      and\n        /* \"contracts/DvTicket.sol\":3766:3768  to */\n      dup6\n        /* \"contracts/DvTicket.sol\":3766:3782  to != address(0) */\n      0xffffffffffffffffffffffffffffffffffffffff\n      and\n      sub\n        /* \"contracts/DvTicket.sol\":3758:3815  require(to != address(0), \"Transfer to the zero address\") */\n      tag_243\n      jumpi\n      mload(0x40)\n      0x08c379a000000000000000000000000000000000000000000000000000000000\n      dup2\n      mstore\n      0x04\n      add\n      tag_244\n      swap1\n      tag_245\n      jump\t// in\n    tag_244:\n      mload(0x40)\n      dup1\n      swap2\n      sub\n      swap1\n      revert\n    tag_243:\n        /* \"contracts/DvTicket.sol\":3884:3903  isForSale(ticketId) */\n      tag_246\n        /* \"contracts/DvTicket.sol\":3894:3902  ticketId */\n      dup5\n        /* \"contracts/DvTicket.sol\":3884:3893  isForSale */\n      tag_81\n        /* \"contracts/DvTicket.sol\":3884:3903  isForSale(ticketId) */\n      jump\t// in\n    tag_246:\n        /* \"contracts/DvTicket.sol\":3880:3957  if (isForSale(ticketId))... */\n      iszero\n      tag_247\n      jumpi\n        /* \"contracts/DvTicket.sol\":3937:3957  Offer(address(0), 0) */\n      mload(0x40)\n      dup1\n      0x40\n      add\n      0x40\n      mstore\n      dup1\n        /* \"contracts/DvTicket.sol\":3951:3952  0 */\n      0x00\n        /* \"contracts/DvTicket.sol\":3937:3957  Offer(address(0), 0) */\n      0xffffffffffffffffffffffffffffffffffffffff\n      and\n      dup2\n      mstore\n      0x20\n      add\n        /* \"contracts/DvTicket.sol\":3955:3956  0 */\n      0x00\n        /* \"contracts/DvTicket.sol\":3937:3957  Offer(address(0), 0) */\n      dup2\n      mstore\n      pop\n        /* \"contracts/DvTicket.sol\":3917:3924  _market */\n      0x0c\n        /* \"contracts/DvTicket.sol\":3917:3934  _market[ticketId] */\n      0x00\n        /* \"contracts/DvTicket.sol\":3925:3933  ticketId */\n      dup7\n        /* \"contracts/DvTicket.sol\":3917:3934  _market[ticketId] */\n      dup2\n      mstore\n      0x20\n      add\n      swap1\n      dup2\n      mstore\n      0x20\n      add\n      0x00\n      keccak256\n        /* \"contracts/DvTicket.sol\":3917:3957  _market[ticketId] = Offer(address(0), 0) */\n      0x00\n      dup3\n      add\n      mload\n      dup2\n      0x00\n      add\n      exp(0x0100, 0x00)\n      dup2\n      sload\n      dup2\n      0xffffffffffffffffffffffffffffffffffffffff\n      mul\n      not\n      and\n      swap1\n      dup4\n      0xffffffffffffffffffffffffffffffffffffffff\n      and\n      mul\n      or\n      swap1\n      sstore\n      pop\n      0x20\n      dup3\n      add\n      mload\n      dup2\n      0x01\n      add\n      sstore\n      swap1\n      pop\n      pop\n        /* \"contracts/DvTicket.sol\":3880:3957  if (isForSale(ticketId))... */\n    tag_247:\n        /* \"contracts/DvTicket.sol\":3989:3991  to */\n      dup5\n        /* \"contracts/DvTicket.sol\":3968:3976  _tickets */\n      0x0a\n        /* \"contracts/DvTicket.sol\":3968:3986  _tickets[ticketId] */\n      0x00\n        /* \"contracts/DvTicket.sol\":3977:3985  ticketId */\n      dup7\n        /* \"contracts/DvTicket.sol\":3968:3986  _tickets[ticketId] */\n      dup2\n      mstore\n      0x20\n      add\n      swap1\n      dup2\n      mstore\n      0x20\n      add\n      0x00\n      keccak256\n      0x00\n        /* \"contracts/DvTicket.sol\":3968:3991  _tickets[ticketId] = to */\n      0x0100\n      exp\n      dup2\n      sload\n      dup2\n      0xffffffffffffffffffffffffffffffffffffffff\n      mul\n      not\n      and\n      swap1\n      dup4\n      0xffffffffffffffffffffffffffffffffffffffff\n      and\n      mul\n      or\n      swap1\n      sstore\n      pop\n        /* \"contracts/DvTicket.sol\":4028:4029  1 */\n      0x01\n        /* \"contracts/DvTicket.sol\":4001:4010  _balances */\n      0x0b\n        /* \"contracts/DvTicket.sol\":4001:4024  _balances[_msgSender()] */\n      0x00\n        /* \"contracts/DvTicket.sol\":4011:4023  _msgSender() */\n      tag_248\n        /* \"contracts/DvTicket.sol\":4011:4021  _msgSender */\n      tag_125\n        /* \"contracts/DvTicket.sol\":4011:4023  _msgSender() */\n      jump\t// in\n    tag_248:\n        /* \"contracts/DvTicket.sol\":4001:4024  _balances[_msgSender()] */\n      0xffffffffffffffffffffffffffffffffffffffff\n      and\n      0xffffffffffffffffffffffffffffffffffffffff\n      and\n      dup2\n      mstore\n      0x20\n      add\n      swap1\n      dup2\n      mstore\n      0x20\n      add\n      0x00\n      keccak256\n      0x00\n        /* \"contracts/DvTicket.sol\":4001:4029  _balances[_msgSender()] -= 1 */\n      dup3\n      dup3\n      sload\n      tag_249\n      swap2\n      swap1\n      tag_250\n      jump\t// in\n    tag_249:\n      swap3\n      pop\n      pop\n      dup2\n      swap1\n      sstore\n      pop\n        /* \"contracts/DvTicket.sol\":4056:4057  1 */\n      0x01\n        /* \"contracts/DvTicket.sol\":4039:4048  _balances */\n      0x0b\n        /* \"contracts/DvTicket.sol\":4039:4052  _balances[to] */\n      0x00\n        /* \"contracts/DvTicket.sol\":4049:4051  to */\n      dup8\n        /* \"contracts/DvTicket.sol\":4039:4052  _balances[to] */\n      0xffffffffffffffffffffffffffffffffffffffff\n      and\n      0xffffffffffffffffffffffffffffffffffffffff\n      and\n      dup2\n      mstore\n      0x20\n      add\n      swap1\n      dup2\n      mstore\n      0x20\n      add\n      0x00\n      keccak256\n      0x00\n        /* \"contracts/DvTicket.sol\":4039:4057  _balances[to] += 1 */\n      dup3\n      dup3\n      sload\n      tag_251\n      swap2\n      swap1\n      tag_252\n      jump\t// in\n    tag_251:\n      swap3\n      pop\n      pop\n      dup2\n      swap1\n      sstore\n      pop\n        /* \"contracts/DvTicket.sol\":4103:4111  ticketId */\n      dup4\n        /* \"contracts/DvTicket.sol\":4099:4101  to */\n      dup6\n        /* \"contracts/DvTicket.sol\":4073:4112  transferred(_msgSender(), to, ticketId) */\n      0xffffffffffffffffffffffffffffffffffffffff\n      and\n        /* \"contracts/DvTicket.sol\":4085:4097  _msgSender() */\n      tag_253\n        /* \"contracts/DvTicket.sol\":4085:4095  _msgSender */\n      tag_125\n        /* \"contracts/DvTicket.sol\":4085:4097  _msgSender() */\n      jump\t// in\n    tag_253:\n        /* \"contracts/DvTicket.sol\":4073:4112  transferred(_msgSender(), to, ticketId) */\n      0xffffffffffffffffffffffffffffffffffffffff\n      and\n      0x8baf29b4b5af24ec8170355f2819a9135840321dd4e65b88a080dfc3054fe99c\n      mload(0x40)\n      mload(0x40)\n      dup1\n      swap2\n      sub\n      swap1\n      log4\n        /* \"@devest/contracts/DeVest.sol\":1518:1968  {... */\n      pop\n      pop\n      pop\n        /* \"contracts/DvTicket.sol\":3591:4119  function transfer(address to, uint256 ticketId) external payable takeFee {... */\n    tag_228:\n      pop\n      pop\n      jump\t// out\n        /* \"contracts/DvTicket.sol\":6166:6278  function priceOf(uint256 ticketId) public view returns (uint256) {... */\n    tag_102:\n        /* \"contracts/DvTicket.sol\":6222:6229  uint256 */\n      0x00\n        /* \"contracts/DvTicket.sol\":6248:6255  _market */\n      0x0c\n        /* \"contracts/DvTicket.sol\":6248:6265  _market[ticketId] */\n      0x00\n        /* \"contracts/DvTicket.sol\":6256:6264  ticketId */\n      dup4\n        /* \"contracts/DvTicket.sol\":6248:6265  _market[ticketId] */\n      dup2\n      mstore\n      0x20\n      add\n      swap1\n      dup2\n      mstore\n      0x20\n      add\n      0x00\n      keccak256\n        /* \"contracts/DvTicket.sol\":6248:6271  _market[ticketId].price */\n      0x01\n      add\n      sload\n        /* \"contracts/DvTicket.sol\":6241:6271  return _market[ticketId].price */\n      swap1\n      pop\n        /* \"contracts/DvTicket.sol\":6166:6278  function priceOf(uint256 ticketId) public view returns (uint256) {... */\n      swap2\n      swap1\n      pop\n      jump\t// out\n        /* \"contracts/DvTicket.sol\":6733:6842  function tokenURI(uint256 /*tokenId*/) external view returns (string memory){... */\n    tag_107:\n        /* \"contracts/DvTicket.sol\":6795:6808  string memory */\n      0x60\n        /* \"contracts/DvTicket.sol\":6826:6835  _tokenURI */\n      0x0f\n        /* \"contracts/DvTicket.sol\":6819:6835  return _tokenURI */\n      dup1\n      sload\n      tag_256\n      swap1\n      tag_257\n      jump\t// in\n    tag_256:\n      dup1\n      0x1f\n      add\n      0x20\n      dup1\n      swap2\n      div\n      mul\n      0x20\n      add\n      mload(0x40)\n      swap1\n      dup2\n      add\n      0x40\n      mstore\n      dup1\n      swap3\n      swap2\n      swap1\n      dup2\n      dup2\n      mstore\n      0x20\n      add\n      dup3\n      dup1\n      sload\n      tag_258\n      swap1\n      tag_257\n      jump\t// in\n    tag_258:\n      dup1\n      iszero\n      tag_259\n      jumpi\n      dup1\n      0x1f\n      lt\n      tag_260\n      jumpi\n      0x0100\n      dup1\n      dup4\n      sload\n      div\n      mul\n      dup4\n      mstore\n      swap2\n      0x20\n      add\n      swap2\n      jump(tag_259)\n    tag_260:\n      dup3\n      add\n      swap2\n      swap1\n      0x00\n      mstore\n      keccak256(0x00, 0x20)\n      swap1\n    tag_261:\n      dup2\n      sload\n      dup2\n      mstore\n      swap1\n      0x01\n      add\n      swap1\n      0x20\n      add\n      dup1\n      dup4\n      gt\n      tag_261\n      jumpi\n      dup3\n      swap1\n      sub\n      0x1f\n      and\n      dup3\n      add\n      swap2\n    tag_259:\n      pop\n      pop\n      pop\n      pop\n      pop\n      swap1\n      pop\n        /* \"contracts/DvTicket.sol\":6733:6842  function tokenURI(uint256 /*tokenId*/) external view returns (string memory){... */\n      swap2\n      swap1\n      pop\n      jump\t// out\n        /* \"contracts/DvTicket.sol\":1309:1342  uint256 public totalPurchased = 0 */\n    tag_112:\n      sload(0x08)\n      dup2\n      jump\t// out\n        /* \"contracts/DvTicket.sol\":4148:5423  function purchase(uint256 ticketId) external payable takeFee {... */\n    tag_116:\n        /* \"@devest/contracts/DeVest.sol\":1617:1618  0 */\n      0x00\n        /* \"@devest/contracts/DeVest.sol\":1587:1620  _factory == DvFactory(address(0)) */\n      0xffffffffffffffffffffffffffffffffffffffff\n      and\n        /* \"@devest/contracts/DeVest.sol\":1587:1595  _factory */\n      0x00\n      dup1\n      sload\n      swap1\n      0x0100\n      exp\n      swap1\n      div\n      0xffffffffffffffffffffffffffffffffffffffff\n      and\n        /* \"@devest/contracts/DeVest.sol\":1587:1620  _factory == DvFactory(address(0)) */\n      0xffffffffffffffffffffffffffffffffffffffff\n      and\n      sub\n        /* \"@devest/contracts/DeVest.sol\":1583:1641  if (_factory == DvFactory(address(0)))... */\n      iszero\n        /* \"@devest/contracts/DeVest.sol\":1634:1641  return; */\n      tag_262\n        /* \"@devest/contracts/DeVest.sol\":1583:1641  if (_factory == DvFactory(address(0)))... */\n      jumpi\n        /* \"@devest/contracts/DeVest.sol\":1651:1668  address recipient */\n      0x00\n        /* \"@devest/contracts/DeVest.sol\":1678:1689  uint256 fee */\n      dup1\n        /* \"@devest/contracts/DeVest.sol\":1699:1715  uint256 issueFee */\n      0x00\n        /* \"@devest/contracts/DeVest.sol\":1779:1787  _factory */\n      dup1\n      0x00\n      swap1\n      sload\n      swap1\n      0x0100\n      exp\n      swap1\n      div\n      0xffffffffffffffffffffffffffffffffffffffff\n      and\n        /* \"@devest/contracts/DeVest.sol\":1779:1794  _factory.getFee */\n      0xffffffffffffffffffffffffffffffffffffffff\n      and\n      0xced72f87\n        /* \"@devest/contracts/DeVest.sol\":1779:1796  _factory.getFee() */\n      mload(0x40)\n      dup2\n      0xffffffff\n      and\n      0xe0\n      shl\n      dup2\n      mstore\n      0x04\n      add\n      0x40\n      dup1\n      mload\n      dup1\n      dup4\n      sub\n      dup2\n      dup7\n      gas\n      staticcall\n      iszero\n      dup1\n      iszero\n      tag_265\n      jumpi\n      returndatasize\n      0x00\n      dup1\n      returndatacopy\n      revert(0x00, returndatasize)\n    tag_265:\n      pop\n      pop\n      pop\n      pop\n      mload(0x40)\n      returndatasize\n      not(0x1f)\n      0x1f\n      dup3\n      add\n      and\n      dup3\n      add\n      dup1\n      0x40\n      mstore\n      pop\n      dup2\n      add\n      swap1\n      tag_266\n      swap2\n      swap1\n      tag_134\n      jump\t// in\n    tag_266:\n        /* \"@devest/contracts/DeVest.sol\":1760:1796  (fee, recipient) = _factory.getFee() */\n      dup1\n      swap5\n      pop\n      dup2\n      swap4\n      pop\n      pop\n      pop\n        /* \"@devest/contracts/DeVest.sol\":1875:1878  fee */\n      dup2\n        /* \"@devest/contracts/DeVest.sol\":1862:1871  msg.value */\n      callvalue\n        /* \"@devest/contracts/DeVest.sol\":1862:1878  msg.value >= fee */\n      lt\n      iszero\n        /* \"@devest/contracts/DeVest.sol\":1854:1908  require(msg.value >= fee, \"Please provide enough fee\") */\n      tag_267\n      jumpi\n      mload(0x40)\n      0x08c379a000000000000000000000000000000000000000000000000000000000\n      dup2\n      mstore\n      0x04\n      add\n      tag_268\n      swap1\n      tag_137\n      jump\t// in\n    tag_268:\n      mload(0x40)\n      dup1\n      swap2\n      sub\n      swap1\n      revert\n    tag_267:\n        /* \"@devest/contracts/DeVest.sol\":1926:1935  recipient */\n      dup3\n        /* \"@devest/contracts/DeVest.sol\":1918:1945  payable(recipient).transfer */\n      0xffffffffffffffffffffffffffffffffffffffff\n      and\n        /* \"@devest/contracts/DeVest.sol\":1918:1950  payable(recipient).transfer(fee) */\n      0x08fc\n        /* \"@devest/contracts/DeVest.sol\":1946:1949  fee */\n      dup4\n        /* \"@devest/contracts/DeVest.sol\":1918:1950  payable(recipient).transfer(fee) */\n      swap1\n      dup2\n      iszero\n      mul\n      swap1\n      mload(0x40)\n      0x00\n      mload(0x40)\n      dup1\n      dup4\n      sub\n      dup2\n      dup6\n      dup9\n      dup9\n      call\n      swap4\n      pop\n      pop\n      pop\n      pop\n      iszero\n      dup1\n      iszero\n      tag_270\n      jumpi\n      returndatasize\n      0x00\n      dup1\n      returndatacopy\n      revert(0x00, returndatasize)\n    tag_270:\n      pop\n        /* \"contracts/DvTicket.sol\":4238:4249  totalSupply */\n      sload(0x07)\n        /* \"contracts/DvTicket.sol\":4227:4235  ticketId */\n      dup5\n        /* \"contracts/DvTicket.sol\":4227:4249  ticketId < totalSupply */\n      lt\n        /* \"contracts/DvTicket.sol\":4219:4269  require(ticketId < totalSupply, \"Ticket sold out\") */\n      tag_272\n      jumpi\n      mload(0x40)\n      0x08c379a000000000000000000000000000000000000000000000000000000000\n      dup2\n      mstore\n      0x04\n      add\n      tag_273\n      swap1\n      tag_274\n      jump\t// in\n    tag_273:\n      mload(0x40)\n      dup1\n      swap2\n      sub\n      swap1\n      revert\n    tag_272:\n        /* \"contracts/DvTicket.sol\":4303:4320  ownerOf(ticketId) */\n      tag_275\n        /* \"contracts/DvTicket.sol\":4311:4319  ticketId */\n      dup5\n        /* \"contracts/DvTicket.sol\":4303:4310  ownerOf */\n      tag_64\n        /* \"contracts/DvTicket.sol\":4303:4320  ownerOf(ticketId) */\n      jump\t// in\n    tag_275:\n        /* \"contracts/DvTicket.sol\":4287:4320  _msgSender() != ownerOf(ticketId) */\n      0xffffffffffffffffffffffffffffffffffffffff\n      and\n        /* \"contracts/DvTicket.sol\":4287:4299  _msgSender() */\n      tag_276\n        /* \"contracts/DvTicket.sol\":4287:4297  _msgSender */\n      tag_125\n        /* \"contracts/DvTicket.sol\":4287:4299  _msgSender() */\n      jump\t// in\n    tag_276:\n        /* \"contracts/DvTicket.sol\":4287:4320  _msgSender() != ownerOf(ticketId) */\n      0xffffffffffffffffffffffffffffffffffffffff\n      and\n      sub\n        /* \"contracts/DvTicket.sol\":4279:4352  require(_msgSender() != ownerOf(ticketId), \"You already own this ticket\") */\n      tag_277\n      jumpi\n      mload(0x40)\n      0x08c379a000000000000000000000000000000000000000000000000000000000\n      dup2\n      mstore\n      0x04\n      add\n      tag_278\n      swap1\n      tag_279\n      jump\t// in\n    tag_278:\n      mload(0x40)\n      dup1\n      swap2\n      sub\n      swap1\n      revert\n    tag_277:\n        /* \"contracts/DvTicket.sol\":4370:4389  isForSale(ticketId) */\n      tag_280\n        /* \"contracts/DvTicket.sol\":4380:4388  ticketId */\n      dup5\n        /* \"contracts/DvTicket.sol\":4370:4379  isForSale */\n      tag_81\n        /* \"contracts/DvTicket.sol\":4370:4389  isForSale(ticketId) */\n      jump\t// in\n    tag_280:\n        /* \"contracts/DvTicket.sol\":4362:4413  require(isForSale(ticketId), \"Ticket not for sale\") */\n      tag_281\n      jumpi\n      mload(0x40)\n      0x08c379a000000000000000000000000000000000000000000000000000000000\n      dup2\n      mstore\n      0x04\n      add\n      tag_282\n      swap1\n      tag_149\n      jump\t// in\n    tag_282:\n      mload(0x40)\n      dup1\n      swap2\n      sub\n      swap1\n      revert\n    tag_281:\n        /* \"contracts/DvTicket.sol\":4529:4530  0 */\n      0x00\n        /* \"contracts/DvTicket.sol\":4494:4531  _market[ticketId].owner != address(0) */\n      0xffffffffffffffffffffffffffffffffffffffff\n      and\n        /* \"contracts/DvTicket.sol\":4494:4501  _market */\n      0x0c\n        /* \"contracts/DvTicket.sol\":4494:4511  _market[ticketId] */\n      0x00\n        /* \"contracts/DvTicket.sol\":4502:4510  ticketId */\n      dup7\n        /* \"contracts/DvTicket.sol\":4494:4511  _market[ticketId] */\n      dup2\n      mstore\n      0x20\n      add\n      swap1\n      dup2\n      mstore\n      0x20\n      add\n      0x00\n      keccak256\n        /* \"contracts/DvTicket.sol\":4494:4517  _market[ticketId].owner */\n      0x00\n      add\n      0x00\n      swap1\n      sload\n      swap1\n      0x0100\n      exp\n      swap1\n      div\n      0xffffffffffffffffffffffffffffffffffffffff\n      and\n        /* \"contracts/DvTicket.sol\":4494:4531  _market[ticketId].owner != address(0) */\n      0xffffffffffffffffffffffffffffffffffffffff\n      and\n      eq\n        /* \"contracts/DvTicket.sol\":4491:5286  if(_market[ticketId].owner != address(0)){... */\n      tag_283\n      jumpi\n        /* \"contracts/DvTicket.sol\":4546:4596  __allowance(_msgSender(), _market[ticketId].price) */\n      tag_284\n        /* \"contracts/DvTicket.sol\":4558:4570  _msgSender() */\n      tag_285\n        /* \"contracts/DvTicket.sol\":4558:4568  _msgSender */\n      tag_125\n        /* \"contracts/DvTicket.sol\":4558:4570  _msgSender() */\n      jump\t// in\n    tag_285:\n        /* \"contracts/DvTicket.sol\":4572:4579  _market */\n      0x0c\n        /* \"contracts/DvTicket.sol\":4572:4589  _market[ticketId] */\n      0x00\n        /* \"contracts/DvTicket.sol\":4580:4588  ticketId */\n      dup8\n        /* \"contracts/DvTicket.sol\":4572:4589  _market[ticketId] */\n      dup2\n      mstore\n      0x20\n      add\n      swap1\n      dup2\n      mstore\n      0x20\n      add\n      0x00\n      keccak256\n        /* \"contracts/DvTicket.sol\":4572:4595  _market[ticketId].price */\n      0x01\n      add\n      sload\n        /* \"contracts/DvTicket.sol\":4546:4557  __allowance */\n      tag_286\n        /* \"contracts/DvTicket.sol\":4546:4596  __allowance(_msgSender(), _market[ticketId].price) */\n      jump\t// in\n    tag_284:\n        /* \"contracts/DvTicket.sol\":4610:4688  __transferFrom(_msgSender(), _market[ticketId].owner, _market[ticketId].price) */\n      tag_287\n        /* \"contracts/DvTicket.sol\":4625:4637  _msgSender() */\n      tag_288\n        /* \"contracts/DvTicket.sol\":4625:4635  _msgSender */\n      tag_125\n        /* \"contracts/DvTicket.sol\":4625:4637  _msgSender() */\n      jump\t// in\n    tag_288:\n        /* \"contracts/DvTicket.sol\":4639:4646  _market */\n      0x0c\n        /* \"contracts/DvTicket.sol\":4639:4656  _market[ticketId] */\n      0x00\n        /* \"contracts/DvTicket.sol\":4647:4655  ticketId */\n      dup8\n        /* \"contracts/DvTicket.sol\":4639:4656  _market[ticketId] */\n      dup2\n      mstore\n      0x20\n      add\n      swap1\n      dup2\n      mstore\n      0x20\n      add\n      0x00\n      keccak256\n        /* \"contracts/DvTicket.sol\":4639:4662  _market[ticketId].owner */\n      0x00\n      add\n      0x00\n      swap1\n      sload\n      swap1\n      0x0100\n      exp\n      swap1\n      div\n      0xffffffffffffffffffffffffffffffffffffffff\n      and\n        /* \"contracts/DvTicket.sol\":4664:4671  _market */\n      0x0c\n        /* \"contracts/DvTicket.sol\":4664:4681  _market[ticketId] */\n      0x00\n        /* \"contracts/DvTicket.sol\":4672:4680  ticketId */\n      dup9\n        /* \"contracts/DvTicket.sol\":4664:4681  _market[ticketId] */\n      dup2\n      mstore\n      0x20\n      add\n      swap1\n      dup2\n      mstore\n      0x20\n      add\n      0x00\n      keccak256\n        /* \"contracts/DvTicket.sol\":4664:4687  _market[ticketId].price */\n      0x01\n      add\n      sload\n        /* \"contracts/DvTicket.sol\":4610:4624  __transferFrom */\n      tag_289\n        /* \"contracts/DvTicket.sol\":4610:4688  __transferFrom(_msgSender(), _market[ticketId].owner, _market[ticketId].price) */\n      jump\t// in\n    tag_287:\n        /* \"contracts/DvTicket.sol\":4782:4783  1 */\n      0x01\n        /* \"contracts/DvTicket.sol\":4744:4753  _balances */\n      0x0b\n        /* \"contracts/DvTicket.sol\":4744:4778  _balances[_market[ticketId].owner] */\n      0x00\n        /* \"contracts/DvTicket.sol\":4754:4761  _market */\n      0x0c\n        /* \"contracts/DvTicket.sol\":4754:4771  _market[ticketId] */\n      0x00\n        /* \"contracts/DvTicket.sol\":4762:4770  ticketId */\n      dup9\n        /* \"contracts/DvTicket.sol\":4754:4771  _market[ticketId] */\n      dup2\n      mstore\n      0x20\n      add\n      swap1\n      dup2\n      mstore\n      0x20\n      add\n      0x00\n      keccak256\n        /* \"contracts/DvTicket.sol\":4754:4777  _market[ticketId].owner */\n      0x00\n      add\n      0x00\n      swap1\n      sload\n      swap1\n      0x0100\n      exp\n      swap1\n      div\n      0xffffffffffffffffffffffffffffffffffffffff\n      and\n        /* \"contracts/DvTicket.sol\":4744:4778  _balances[_market[ticketId].owner] */\n      0xffffffffffffffffffffffffffffffffffffffff\n      and\n      0xffffffffffffffffffffffffffffffffffffffff\n      and\n      dup2\n      mstore\n      0x20\n      add\n      swap1\n      dup2\n      mstore\n      0x20\n      add\n      0x00\n      keccak256\n      0x00\n        /* \"contracts/DvTicket.sol\":4744:4783  _balances[_market[ticketId].owner] -= 1 */\n      dup3\n      dup3\n      sload\n      tag_290\n      swap2\n      swap1\n      tag_250\n      jump\t// in\n    tag_290:\n      swap3\n      pop\n      pop\n      dup2\n      swap1\n      sstore\n      pop\n        /* \"contracts/DvTicket.sol\":4852:4872  Offer(address(0), 0) */\n      mload(0x40)\n      dup1\n      0x40\n      add\n      0x40\n      mstore\n      dup1\n        /* \"contracts/DvTicket.sol\":4866:4867  0 */\n      0x00\n        /* \"contracts/DvTicket.sol\":4852:4872  Offer(address(0), 0) */\n      0xffffffffffffffffffffffffffffffffffffffff\n      and\n      dup2\n      mstore\n      0x20\n      add\n        /* \"contracts/DvTicket.sol\":4870:4871  0 */\n      0x00\n        /* \"contracts/DvTicket.sol\":4852:4872  Offer(address(0), 0) */\n      dup2\n      mstore\n      pop\n        /* \"contracts/DvTicket.sol\":4832:4839  _market */\n      0x0c\n        /* \"contracts/DvTicket.sol\":4832:4849  _market[ticketId] */\n      0x00\n        /* \"contracts/DvTicket.sol\":4840:4848  ticketId */\n      dup7\n        /* \"contracts/DvTicket.sol\":4832:4849  _market[ticketId] */\n      dup2\n      mstore\n      0x20\n      add\n      swap1\n      dup2\n      mstore\n      0x20\n      add\n      0x00\n      keccak256\n        /* \"contracts/DvTicket.sol\":4832:4872  _market[ticketId] = Offer(address(0), 0) */\n      0x00\n      dup3\n      add\n      mload\n      dup2\n      0x00\n      add\n      exp(0x0100, 0x00)\n      dup2\n      sload\n      dup2\n      0xffffffffffffffffffffffffffffffffffffffff\n      mul\n      not\n      and\n      swap1\n      dup4\n      0xffffffffffffffffffffffffffffffffffffffff\n      and\n      mul\n      or\n      swap1\n      sstore\n      pop\n      0x20\n      dup3\n      add\n      mload\n      dup2\n      0x01\n      add\n      sstore\n      swap1\n      pop\n      pop\n        /* \"contracts/DvTicket.sol\":4491:5286  if(_market[ticketId].owner != address(0)){... */\n      jump(tag_291)\n    tag_283:\n        /* \"contracts/DvTicket.sol\":4925:4942  ownerOf(ticketId) */\n      tag_292\n        /* \"contracts/DvTicket.sol\":4933:4941  ticketId */\n      dup5\n        /* \"contracts/DvTicket.sol\":4925:4932  ownerOf */\n      tag_64\n        /* \"contracts/DvTicket.sol\":4925:4942  ownerOf(ticketId) */\n      jump\t// in\n    tag_292:\n        /* \"contracts/DvTicket.sol\":4911:4942  address(0) == ownerOf(ticketId) */\n      0xffffffffffffffffffffffffffffffffffffffff\n      and\n        /* \"contracts/DvTicket.sol\":4919:4920  0 */\n      0x00\n        /* \"contracts/DvTicket.sol\":4911:4942  address(0) == ownerOf(ticketId) */\n      0xffffffffffffffffffffffffffffffffffffffff\n      and\n      eq\n        /* \"contracts/DvTicket.sol\":4903:4967  require(address(0) == ownerOf(ticketId), \"Ticket not available\") */\n      tag_293\n      jumpi\n      mload(0x40)\n      0x08c379a000000000000000000000000000000000000000000000000000000000\n      dup2\n      mstore\n      0x04\n      add\n      tag_294\n      swap1\n      tag_295\n      jump\t// in\n    tag_294:\n      mload(0x40)\n      dup1\n      swap2\n      sub\n      swap1\n      revert\n    tag_293:\n        /* \"contracts/DvTicket.sol\":4981:5013  __allowance(_msgSender(), price) */\n      tag_296\n        /* \"contracts/DvTicket.sol\":4993:5005  _msgSender() */\n      tag_297\n        /* \"contracts/DvTicket.sol\":4993:5003  _msgSender */\n      tag_125\n        /* \"contracts/DvTicket.sol\":4993:5005  _msgSender() */\n      jump\t// in\n    tag_297:\n        /* \"contracts/DvTicket.sol\":5007:5012  price */\n      sload(0x06)\n        /* \"contracts/DvTicket.sol\":4981:4992  __allowance */\n      tag_286\n        /* \"contracts/DvTicket.sol\":4981:5013  __allowance(_msgSender(), price) */\n      jump\t// in\n    tag_296:\n        /* \"contracts/DvTicket.sol\":5027:5071  __transferFrom(_msgSender(), owner(), price) */\n      tag_298\n        /* \"contracts/DvTicket.sol\":5042:5054  _msgSender() */\n      tag_299\n        /* \"contracts/DvTicket.sol\":5042:5052  _msgSender */\n      tag_125\n        /* \"contracts/DvTicket.sol\":5042:5054  _msgSender() */\n      jump\t// in\n    tag_299:\n        /* \"contracts/DvTicket.sol\":5056:5063  owner() */\n      tag_300\n        /* \"contracts/DvTicket.sol\":5056:5061  owner */\n      tag_85\n        /* \"contracts/DvTicket.sol\":5056:5063  owner() */\n      jump\t// in\n    tag_300:\n        /* \"contracts/DvTicket.sol\":5065:5070  price */\n      sload(0x06)\n        /* \"contracts/DvTicket.sol\":5027:5041  __transferFrom */\n      tag_289\n        /* \"contracts/DvTicket.sol\":5027:5071  __transferFrom(_msgSender(), owner(), price) */\n      jump\t// in\n    tag_298:\n        /* \"contracts/DvTicket.sol\":5125:5139  totalPurchased */\n      0x08\n      0x00\n        /* \"contracts/DvTicket.sol\":5125:5141  totalPurchased++ */\n      dup2\n      sload\n      dup1\n      swap3\n      swap2\n      swap1\n      tag_301\n      swap1\n      tag_302\n      jump\t// in\n    tag_301:\n      swap2\n      swap1\n      pop\n      sstore\n      pop\n        /* \"contracts/DvTicket.sol\":5231:5242  totalSupply */\n      sload(0x07)\n        /* \"contracts/DvTicket.sol\":5213:5227  totalPurchased */\n      sload(0x08)\n        /* \"contracts/DvTicket.sol\":5213:5242  totalPurchased == totalSupply */\n      sub\n        /* \"contracts/DvTicket.sol\":5209:5275  if (totalPurchased == totalSupply)... */\n      tag_303\n      jumpi\n        /* \"contracts/DvTicket.sol\":5270:5275  false */\n      0x00\n        /* \"contracts/DvTicket.sol\":5260:5267  preSale */\n      0x09\n      0x00\n        /* \"contracts/DvTicket.sol\":5260:5275  preSale = false */\n      0x0100\n      exp\n      dup2\n      sload\n      dup2\n      0xff\n      mul\n      not\n      and\n      swap1\n      dup4\n      iszero\n      iszero\n      mul\n      or\n      swap1\n      sstore\n      pop\n        /* \"contracts/DvTicket.sol\":5209:5275  if (totalPurchased == totalSupply)... */\n    tag_303:\n        /* \"contracts/DvTicket.sol\":4491:5286  if(_market[ticketId].owner != address(0)){... */\n    tag_291:\n        /* \"contracts/DvTicket.sol\":5317:5329  _msgSender() */\n      tag_304\n        /* \"contracts/DvTicket.sol\":5317:5327  _msgSender */\n      tag_125\n        /* \"contracts/DvTicket.sol\":5317:5329  _msgSender() */\n      jump\t// in\n    tag_304:\n        /* \"contracts/DvTicket.sol\":5296:5304  _tickets */\n      0x0a\n        /* \"contracts/DvTicket.sol\":5296:5314  _tickets[ticketId] */\n      0x00\n        /* \"contracts/DvTicket.sol\":5305:5313  ticketId */\n      dup7\n        /* \"contracts/DvTicket.sol\":5296:5314  _tickets[ticketId] */\n      dup2\n      mstore\n      0x20\n      add\n      swap1\n      dup2\n      mstore\n      0x20\n      add\n      0x00\n      keccak256\n      0x00\n        /* \"contracts/DvTicket.sol\":5296:5329  _tickets[ticketId] = _msgSender() */\n      0x0100\n      exp\n      dup2\n      sload\n      dup2\n      0xffffffffffffffffffffffffffffffffffffffff\n      mul\n      not\n      and\n      swap1\n      dup4\n      0xffffffffffffffffffffffffffffffffffffffff\n      and\n      mul\n      or\n      swap1\n      sstore\n      pop\n        /* \"contracts/DvTicket.sol\":5366:5367  1 */\n      0x01\n        /* \"contracts/DvTicket.sol\":5339:5348  _balances */\n      0x0b\n        /* \"contracts/DvTicket.sol\":5339:5362  _balances[_msgSender()] */\n      0x00\n        /* \"contracts/DvTicket.sol\":5349:5361  _msgSender() */\n      tag_305\n        /* \"contracts/DvTicket.sol\":5349:5359  _msgSender */\n      tag_125\n        /* \"contracts/DvTicket.sol\":5349:5361  _msgSender() */\n      jump\t// in\n    tag_305:\n        /* \"contracts/DvTicket.sol\":5339:5362  _balances[_msgSender()] */\n      0xffffffffffffffffffffffffffffffffffffffff\n      and\n      0xffffffffffffffffffffffffffffffffffffffff\n      and\n      dup2\n      mstore\n      0x20\n      add\n      swap1\n      dup2\n      mstore\n      0x20\n      add\n      0x00\n      keccak256\n      0x00\n        /* \"contracts/DvTicket.sol\":5339:5367  _balances[_msgSender()] += 1 */\n      dup3\n      dup3\n      sload\n      tag_306\n      swap2\n      swap1\n      tag_252\n      jump\t// in\n    tag_306:\n      swap3\n      pop\n      pop\n      dup2\n      swap1\n      sstore\n      pop\n        /* \"contracts/DvTicket.sol\":5407:5415  ticketId */\n      dup4\n        /* \"contracts/DvTicket.sol\":5393:5405  _msgSender() */\n      tag_307\n        /* \"contracts/DvTicket.sol\":5393:5403  _msgSender */\n      tag_125\n        /* \"contracts/DvTicket.sol\":5393:5405  _msgSender() */\n      jump\t// in\n    tag_307:\n        /* \"contracts/DvTicket.sol\":5383:5416  purchased(_msgSender(), ticketId) */\n      0xffffffffffffffffffffffffffffffffffffffff\n      and\n      0xe597ef12064a0ee0e5030bc6ee7111ce71a32df2a90cc813f7232a0733d89402\n      mload(0x40)\n      mload(0x40)\n      dup1\n      swap2\n      sub\n      swap1\n      log3\n        /* \"@devest/contracts/DeVest.sol\":1518:1968  {... */\n      pop\n      pop\n      pop\n        /* \"contracts/DvTicket.sol\":4148:5423  function purchase(uint256 ticketId) external payable takeFee {... */\n    tag_262:\n      pop\n      jump\t// out\n        /* \"@devest/contracts/DeVest.sol\":2627:2814  function transferOwnership(address newOwner) public virtual onlyOwner {... */\n    tag_120:\n        /* \"@devest/contracts/DeVest.sol\":1357:1369  _msgSender() */\n      tag_309\n        /* \"@devest/contracts/DeVest.sol\":1357:1367  _msgSender */\n      tag_125\n        /* \"@devest/contracts/DeVest.sol\":1357:1369  _msgSender() */\n      jump\t// in\n    tag_309:\n        /* \"@devest/contracts/DeVest.sol\":1347:1369  _owner == _msgSender() */\n      0xffffffffffffffffffffffffffffffffffffffff\n      and\n        /* \"@devest/contracts/DeVest.sol\":1347:1353  _owner */\n      0x01\n      0x00\n      swap1\n      sload\n      swap1\n      0x0100\n      exp\n      swap1\n      div\n      0xffffffffffffffffffffffffffffffffffffffff\n      and\n        /* \"@devest/contracts/DeVest.sol\":1347:1369  _owner == _msgSender() */\n      0xffffffffffffffffffffffffffffffffffffffff\n      and\n      eq\n        /* \"@devest/contracts/DeVest.sol\":1339:1404  require(_owner == _msgSender(), \"Owner: caller is not the owner\") */\n      tag_310\n      jumpi\n      mload(0x40)\n      0x08c379a000000000000000000000000000000000000000000000000000000000\n      dup2\n      mstore\n      0x04\n      add\n      tag_311\n      swap1\n      tag_165\n      jump\t// in\n    tag_311:\n      mload(0x40)\n      dup1\n      swap2\n      sub\n      swap1\n      revert\n    tag_310:\n        /* \"@devest/contracts/DeVest.sol\":2735:2736  0 */\n      0x00\n        /* \"@devest/contracts/DeVest.sol\":2715:2737  newOwner != address(0) */\n      0xffffffffffffffffffffffffffffffffffffffff\n      and\n        /* \"@devest/contracts/DeVest.sol\":2715:2723  newOwner */\n      dup2\n        /* \"@devest/contracts/DeVest.sol\":2715:2737  newOwner != address(0) */\n      0xffffffffffffffffffffffffffffffffffffffff\n      and\n      sub\n        /* \"@devest/contracts/DeVest.sol\":2707:2780  require(newOwner != address(0), \"Ownable: new owner is the zero address\") */\n      tag_313\n      jumpi\n      mload(0x40)\n      0x08c379a000000000000000000000000000000000000000000000000000000000\n      dup2\n      mstore\n      0x04\n      add\n      tag_314\n      swap1\n      tag_315\n      jump\t// in\n    tag_314:\n      mload(0x40)\n      dup1\n      swap2\n      sub\n      swap1\n      revert\n    tag_313:\n        /* \"@devest/contracts/DeVest.sol\":2799:2807  newOwner */\n      dup1\n        /* \"@devest/contracts/DeVest.sol\":2790:2796  _owner */\n      0x01\n      0x00\n        /* \"@devest/contracts/DeVest.sol\":2790:2807  _owner = newOwner */\n      0x0100\n      exp\n      dup2\n      sload\n      dup2\n      0xffffffffffffffffffffffffffffffffffffffff\n      mul\n      not\n      and\n      swap1\n      dup4\n      0xffffffffffffffffffffffffffffffffffffffff\n      and\n      mul\n      or\n      swap1\n      sstore\n      pop\n        /* \"@devest/contracts/DeVest.sol\":2627:2814  function transferOwnership(address newOwner) public virtual onlyOwner {... */\n      pop\n      jump\t// out\n        /* \"@openzeppelin/contracts/utils/Context.sol\":655:751  function _msgSender() internal view virtual returns (address) {... */\n    tag_125:\n        /* \"@openzeppelin/contracts/utils/Context.sol\":708:715  address */\n      0x00\n        /* \"@openzeppelin/contracts/utils/Context.sol\":734:744  msg.sender */\n      caller\n        /* \"@openzeppelin/contracts/utils/Context.sol\":727:744  return msg.sender */\n      swap1\n      pop\n        /* \"@openzeppelin/contracts/utils/Context.sol\":655:751  function _msgSender() internal view virtual returns (address) {... */\n      swap1\n      jump\t// out\n        /* \"@devest/contracts/DeVest.sol\":2222:2478  function _setRoyalties(uint256 __royalty, address __royaltyRecipient) internal {... */\n    tag_168:\n        /* \"@devest/contracts/DeVest.sol\":2332:2333  0 */\n      0x00\n        /* \"@devest/contracts/DeVest.sol\":2319:2328  __royalty */\n      dup3\n        /* \"@devest/contracts/DeVest.sol\":2319:2333  __royalty >= 0 */\n      lt\n      iszero\n        /* \"@devest/contracts/DeVest.sol\":2319:2354  __royalty >= 0 && __royalty <= 1000 */\n      dup1\n      iszero\n      tag_318\n      jumpi\n      pop\n        /* \"@devest/contracts/DeVest.sol\":2350:2354  1000 */\n      0x03e8\n        /* \"@devest/contracts/DeVest.sol\":2337:2346  __royalty */\n      dup3\n        /* \"@devest/contracts/DeVest.sol\":2337:2354  __royalty <= 1000 */\n      gt\n      iszero\n        /* \"@devest/contracts/DeVest.sol\":2319:2354  __royalty >= 0 && __royalty <= 1000 */\n    tag_318:\n        /* \"@devest/contracts/DeVest.sol\":2311:2393  require(__royalty >= 0 && __royalty <= 1000, 'Royalty must be between 0 and 1000') */\n      tag_319\n      jumpi\n      mload(0x40)\n      0x08c379a000000000000000000000000000000000000000000000000000000000\n      dup2\n      mstore\n      0x04\n      add\n      tag_320\n      swap1\n      tag_321\n      jump\t// in\n    tag_320:\n      mload(0x40)\n      dup1\n      swap2\n      sub\n      swap1\n      revert\n    tag_319:\n        /* \"@devest/contracts/DeVest.sol\":2414:2423  __royalty */\n      dup2\n        /* \"@devest/contracts/DeVest.sol\":2403:2411  _royalty */\n      0x03\n        /* \"@devest/contracts/DeVest.sol\":2403:2423  _royalty = __royalty */\n      dup2\n      swap1\n      sstore\n      pop\n        /* \"@devest/contracts/DeVest.sol\":2453:2471  __royaltyRecipient */\n      dup1\n        /* \"@devest/contracts/DeVest.sol\":2433:2450  _royaltyRecipient */\n      0x02\n      0x00\n        /* \"@devest/contracts/DeVest.sol\":2433:2471  _royaltyRecipient = __royaltyRecipient */\n      0x0100\n      exp\n      dup2\n      sload\n      dup2\n      0xffffffffffffffffffffffffffffffffffffffff\n      mul\n      not\n      and\n      swap1\n      dup4\n      0xffffffffffffffffffffffffffffffffffffffff\n      and\n      mul\n      or\n      swap1\n      sstore\n      pop\n        /* \"@devest/contracts/DeVest.sol\":2222:2478  function _setRoyalties(uint256 __royalty, address __royaltyRecipient) internal {... */\n      pop\n      pop\n      jump\t// out\n        /* \"@openzeppelin/contracts/security/ReentrancyGuard.sol\":2336:2623  function _nonReentrantBefore() private {... */\n    tag_176:\n        /* \"@openzeppelin/contracts/security/ReentrancyGuard.sol\":1759:1760  2 */\n      0x02\n        /* \"@openzeppelin/contracts/security/ReentrancyGuard.sol\":2468:2475  _status */\n      sload(0x04)\n        /* \"@openzeppelin/contracts/security/ReentrancyGuard.sol\":2468:2487  _status != _ENTERED */\n      sub\n        /* \"@openzeppelin/contracts/security/ReentrancyGuard.sol\":2460:2523  require(_status != _ENTERED, \"ReentrancyGuard: reentrant call\") */\n      tag_323\n      jumpi\n      mload(0x40)\n      0x08c379a000000000000000000000000000000000000000000000000000000000\n      dup2\n      mstore\n      0x04\n      add\n      tag_324\n      swap1\n      tag_325\n      jump\t// in\n    tag_324:\n      mload(0x40)\n      dup1\n      swap2\n      sub\n      swap1\n      revert\n    tag_323:\n        /* \"@openzeppelin/contracts/security/ReentrancyGuard.sol\":1759:1760  2 */\n      0x02\n        /* \"@openzeppelin/contracts/security/ReentrancyGuard.sol\":2598:2605  _status */\n      0x04\n        /* \"@openzeppelin/contracts/security/ReentrancyGuard.sol\":2598:2616  _status = _ENTERED */\n      dup2\n      swap1\n      sstore\n      pop\n        /* \"@openzeppelin/contracts/security/ReentrancyGuard.sol\":2336:2623  function _nonReentrantBefore() private {... */\n      jump\t// out\n        /* \"@openzeppelin/contracts/security/ReentrancyGuard.sol\":2629:2838  function _nonReentrantAfter() private {... */\n    tag_189:\n        /* \"@openzeppelin/contracts/security/ReentrancyGuard.sol\":1716:1717  1 */\n      0x01\n        /* \"@openzeppelin/contracts/security/ReentrancyGuard.sol\":2809:2816  _status */\n      0x04\n        /* \"@openzeppelin/contracts/security/ReentrancyGuard.sol\":2809:2831  _status = _NOT_ENTERED */\n      dup2\n      swap1\n      sstore\n      pop\n        /* \"@openzeppelin/contracts/security/ReentrancyGuard.sol\":2629:2838  function _nonReentrantAfter() private {... */\n      jump\t// out\n        /* \"@devest/contracts/VestingToken.sol\":1404:1838  function __allowance(address account, uint256 amount) internal {... */\n    tag_286:\n        /* \"@devest/contracts/VestingToken.sol\":1506:1507  0 */\n      0x00\n        /* \"@devest/contracts/VestingToken.sol\":1481:1508  _vestingToken == address(0) */\n      0xffffffffffffffffffffffffffffffffffffffff\n      and\n        /* \"@devest/contracts/VestingToken.sol\":1481:1494  _vestingToken */\n      0x05\n      0x00\n      swap1\n      sload\n      swap1\n      0x0100\n      exp\n      swap1\n      div\n      0xffffffffffffffffffffffffffffffffffffffff\n      and\n        /* \"@devest/contracts/VestingToken.sol\":1481:1508  _vestingToken == address(0) */\n      0xffffffffffffffffffffffffffffffffffffffff\n      and\n      sub\n        /* \"@devest/contracts/VestingToken.sol\":1477:1832  if (_vestingToken == address(0)){... */\n      tag_328\n      jumpi\n        /* \"@devest/contracts/VestingToken.sol\":1550:1551  0 */\n      0x00\n        /* \"@devest/contracts/VestingToken.sol\":1531:1552  account != address(0) */\n      0xffffffffffffffffffffffffffffffffffffffff\n      and\n        /* \"@devest/contracts/VestingToken.sol\":1531:1538  account */\n      dup3\n        /* \"@devest/contracts/VestingToken.sol\":1531:1552  account != address(0) */\n      0xffffffffffffffffffffffffffffffffffffffff\n      and\n      sub\n        /* \"@devest/contracts/VestingToken.sol\":1523:1571  require(account != address(0), 'Invalid sender') */\n      tag_329\n      jumpi\n      mload(0x40)\n      0x08c379a000000000000000000000000000000000000000000000000000000000\n      dup2\n      mstore\n      0x04\n      add\n      tag_330\n      swap1\n      tag_331\n      jump\t// in\n    tag_330:\n      mload(0x40)\n      dup1\n      swap2\n      sub\n      swap1\n      revert\n    tag_329:\n        /* \"@devest/contracts/VestingToken.sol\":1606:1612  amount */\n      dup1\n        /* \"@devest/contracts/VestingToken.sol\":1593:1602  msg.value */\n      callvalue\n        /* \"@devest/contracts/VestingToken.sol\":1593:1612  msg.value >= amount */\n      lt\n      iszero\n        /* \"@devest/contracts/VestingToken.sol\":1585:1645  require(msg.value >= amount, 'Insufficient token submitted') */\n      tag_332\n      jumpi\n      mload(0x40)\n      0x08c379a000000000000000000000000000000000000000000000000000000000\n      dup2\n      mstore\n      0x04\n      add\n      tag_333\n      swap1\n      tag_334\n      jump\t// in\n    tag_333:\n      mload(0x40)\n      dup1\n      swap2\n      sub\n      swap1\n      revert\n    tag_332:\n        /* \"@devest/contracts/VestingToken.sol\":1477:1832  if (_vestingToken == address(0)){... */\n      jump(tag_335)\n    tag_328:\n        /* \"@devest/contracts/VestingToken.sol\":1676:1689  IERC20 _token */\n      0x00\n        /* \"@devest/contracts/VestingToken.sol\":1699:1712  _vestingToken */\n      0x05\n      0x00\n      swap1\n      sload\n      swap1\n      0x0100\n      exp\n      swap1\n      div\n      0xffffffffffffffffffffffffffffffffffffffff\n      and\n        /* \"@devest/contracts/VestingToken.sol\":1676:1713  IERC20 _token = IERC20(_vestingToken) */\n      swap1\n      pop\n        /* \"@devest/contracts/VestingToken.sol\":1779:1785  amount */\n      dup2\n        /* \"@devest/contracts/VestingToken.sol\":1735:1741  _token */\n      dup2\n        /* \"@devest/contracts/VestingToken.sol\":1735:1751  _token.allowance */\n      0xffffffffffffffffffffffffffffffffffffffff\n      and\n      0xdd62ed3e\n        /* \"@devest/contracts/VestingToken.sol\":1752:1759  account */\n      dup6\n        /* \"@devest/contracts/VestingToken.sol\":1769:1773  this */\n      address\n        /* \"@devest/contracts/VestingToken.sol\":1735:1775  _token.allowance(account, address(this)) */\n      mload(0x40)\n      dup4\n      0xffffffff\n      and\n      0xe0\n      shl\n      dup2\n      mstore\n      0x04\n      add\n      tag_336\n      swap3\n      swap2\n      swap1\n      tag_337\n      jump\t// in\n    tag_336:\n      0x20\n      mload(0x40)\n      dup1\n      dup4\n      sub\n      dup2\n      dup7\n      gas\n      staticcall\n      iszero\n      dup1\n      iszero\n      tag_339\n      jumpi\n      returndatasize\n      0x00\n      dup1\n      returndatacopy\n      revert(0x00, returndatasize)\n    tag_339:\n      pop\n      pop\n      pop\n      pop\n      mload(0x40)\n      returndatasize\n      not(0x1f)\n      0x1f\n      dup3\n      add\n      and\n      dup3\n      add\n      dup1\n      0x40\n      mstore\n      pop\n      dup2\n      add\n      swap1\n      tag_340\n      swap2\n      swap1\n      tag_341\n      jump\t// in\n    tag_340:\n        /* \"@devest/contracts/VestingToken.sol\":1735:1785  _token.allowance(account, address(this)) >= amount */\n      lt\n      iszero\n        /* \"@devest/contracts/VestingToken.sol\":1727:1821  require(_token.allowance(account, address(this)) >= amount, 'Insufficient allowance provided') */\n      tag_342\n      jumpi\n      mload(0x40)\n      0x08c379a000000000000000000000000000000000000000000000000000000000\n      dup2\n      mstore\n      0x04\n      add\n      tag_343\n      swap1\n      tag_344\n      jump\t// in\n    tag_343:\n      mload(0x40)\n      dup1\n      swap2\n      sub\n      swap1\n      revert\n    tag_342:\n        /* \"@devest/contracts/VestingToken.sol\":1662:1832  {... */\n      pop\n        /* \"@devest/contracts/VestingToken.sol\":1477:1832  if (_vestingToken == address(0)){... */\n    tag_335:\n        /* \"@devest/contracts/VestingToken.sol\":1404:1838  function __allowance(address account, uint256 amount) internal {... */\n      pop\n      pop\n      jump\t// out\n        /* \"@devest/contracts/VestingToken.sol\":657:1009  function __transferFrom(address sender, address receiver, uint256 amount) internal {... */\n    tag_289:\n        /* \"@devest/contracts/VestingToken.sol\":779:780  0 */\n      0x00\n        /* \"@devest/contracts/VestingToken.sol\":754:781  _vestingToken == address(0) */\n      0xffffffffffffffffffffffffffffffffffffffff\n      and\n        /* \"@devest/contracts/VestingToken.sol\":754:767  _vestingToken */\n      0x05\n      0x00\n      swap1\n      sload\n      swap1\n      0x0100\n      exp\n      swap1\n      div\n      0xffffffffffffffffffffffffffffffffffffffff\n      and\n        /* \"@devest/contracts/VestingToken.sol\":754:781  _vestingToken == address(0) */\n      0xffffffffffffffffffffffffffffffffffffffff\n      and\n      sub\n        /* \"@devest/contracts/VestingToken.sol\":750:1003  if (_vestingToken == address(0)){... */\n      tag_346\n      jumpi\n        /* \"@devest/contracts/VestingToken.sol\":818:824  amount */\n      dup1\n        /* \"@devest/contracts/VestingToken.sol\":804:813  msg.value */\n      callvalue\n        /* \"@devest/contracts/VestingToken.sol\":804:825  msg.value >= (amount) */\n      lt\n      iszero\n        /* \"@devest/contracts/VestingToken.sol\":796:865  require(msg.value >= (amount), \"Insufficient funds provided (value)\") */\n      tag_347\n      jumpi\n      mload(0x40)\n      0x08c379a000000000000000000000000000000000000000000000000000000000\n      dup2\n      mstore\n      0x04\n      add\n      tag_348\n      swap1\n      tag_349\n      jump\t// in\n    tag_348:\n      mload(0x40)\n      dup1\n      swap2\n      sub\n      swap1\n      revert\n    tag_347:\n        /* \"@devest/contracts/VestingToken.sol\":750:1003  if (_vestingToken == address(0)){... */\n      jump(tag_350)\n    tag_346:\n        /* \"@devest/contracts/VestingToken.sol\":896:909  IERC20 _token */\n      0x00\n        /* \"@devest/contracts/VestingToken.sol\":919:932  _vestingToken */\n      0x05\n      0x00\n      swap1\n      sload\n      swap1\n      0x0100\n      exp\n      swap1\n      div\n      0xffffffffffffffffffffffffffffffffffffffff\n      and\n        /* \"@devest/contracts/VestingToken.sol\":896:933  IERC20 _token = IERC20(_vestingToken) */\n      swap1\n      pop\n        /* \"@devest/contracts/VestingToken.sol\":947:953  _token */\n      dup1\n        /* \"@devest/contracts/VestingToken.sol\":947:966  _token.transferFrom */\n      0xffffffffffffffffffffffffffffffffffffffff\n      and\n      0x23b872dd\n        /* \"@devest/contracts/VestingToken.sol\":967:973  sender */\n      dup6\n        /* \"@devest/contracts/VestingToken.sol\":975:983  receiver */\n      dup6\n        /* \"@devest/contracts/VestingToken.sol\":985:991  amount */\n      dup6\n        /* \"@devest/contracts/VestingToken.sol\":947:992  _token.transferFrom(sender, receiver, amount) */\n      mload(0x40)\n      dup5\n      0xffffffff\n      and\n      0xe0\n      shl\n      dup2\n      mstore\n      0x04\n      add\n      tag_351\n      swap4\n      swap3\n      swap2\n      swap1\n      tag_352\n      jump\t// in\n    tag_351:\n      0x20\n      mload(0x40)\n      dup1\n      dup4\n      sub\n      dup2\n      0x00\n      dup8\n      gas\n      call\n      iszero\n      dup1\n      iszero\n      tag_354\n      jumpi\n      returndatasize\n      0x00\n      dup1\n      returndatacopy\n      revert(0x00, returndatasize)\n    tag_354:\n      pop\n      pop\n      pop\n      pop\n      mload(0x40)\n      returndatasize\n      not(0x1f)\n      0x1f\n      dup3\n      add\n      and\n      dup3\n      add\n      dup1\n      0x40\n      mstore\n      pop\n      dup2\n      add\n      swap1\n      tag_355\n      swap2\n      swap1\n      tag_356\n      jump\t// in\n    tag_355:\n      pop\n        /* \"@devest/contracts/VestingToken.sol\":882:1003  {... */\n      pop\n        /* \"@devest/contracts/VestingToken.sol\":750:1003  if (_vestingToken == address(0)){... */\n    tag_350:\n        /* \"@devest/contracts/VestingToken.sol\":657:1009  function __transferFrom(address sender, address receiver, uint256 amount) internal {... */\n      pop\n      pop\n      pop\n      jump\t// out\n        /* \"#utility.yul\":88:205   */\n    tag_358:\n        /* \"#utility.yul\":197:198   */\n      0x00\n        /* \"#utility.yul\":194:195   */\n      dup1\n        /* \"#utility.yul\":187:199   */\n      revert\n        /* \"#utility.yul\":334:483   */\n    tag_360:\n        /* \"#utility.yul\":370:377   */\n      0x00\n        /* \"#utility.yul\":410:476   */\n      0xffffffff00000000000000000000000000000000000000000000000000000000\n        /* \"#utility.yul\":403:408   */\n      dup3\n        /* \"#utility.yul\":399:477   */\n      and\n        /* \"#utility.yul\":388:477   */\n      swap1\n      pop\n        /* \"#utility.yul\":334:483   */\n      swap2\n      swap1\n      pop\n      jump\t// out\n        /* \"#utility.yul\":489:609   */\n    tag_361:\n        /* \"#utility.yul\":561:584   */\n      tag_440\n        /* \"#utility.yul\":578:583   */\n      dup2\n        /* \"#utility.yul\":561:584   */\n      tag_360\n      jump\t// in\n    tag_440:\n        /* \"#utility.yul\":554:559   */\n      dup2\n        /* \"#utility.yul\":551:585   */\n      eq\n        /* \"#utility.yul\":541:603   */\n      tag_441\n      jumpi\n        /* \"#utility.yul\":599:600   */\n      0x00\n        /* \"#utility.yul\":596:597   */\n      dup1\n        /* \"#utility.yul\":589:601   */\n      revert\n        /* \"#utility.yul\":541:603   */\n    tag_441:\n        /* \"#utility.yul\":489:609   */\n      pop\n      jump\t// out\n        /* \"#utility.yul\":615:752   */\n    tag_362:\n        /* \"#utility.yul\":660:665   */\n      0x00\n        /* \"#utility.yul\":698:704   */\n      dup2\n        /* \"#utility.yul\":685:705   */\n      calldataload\n        /* \"#utility.yul\":676:705   */\n      swap1\n      pop\n        /* \"#utility.yul\":714:746   */\n      tag_443\n        /* \"#utility.yul\":740:745   */\n      dup2\n        /* \"#utility.yul\":714:746   */\n      tag_361\n      jump\t// in\n    tag_443:\n        /* \"#utility.yul\":615:752   */\n      swap3\n      swap2\n      pop\n      pop\n      jump\t// out\n        /* \"#utility.yul\":758:1085   */\n    tag_29:\n        /* \"#utility.yul\":816:822   */\n      0x00\n        /* \"#utility.yul\":865:867   */\n      0x20\n        /* \"#utility.yul\":853:862   */\n      dup3\n        /* \"#utility.yul\":844:851   */\n      dup5\n        /* \"#utility.yul\":840:863   */\n      sub\n        /* \"#utility.yul\":836:868   */\n      slt\n        /* \"#utility.yul\":833:952   */\n      iszero\n      tag_445\n      jumpi\n        /* \"#utility.yul\":871:950   */\n      tag_446\n      tag_358\n      jump\t// in\n    tag_446:\n        /* \"#utility.yul\":833:952   */\n    tag_445:\n        /* \"#utility.yul\":991:992   */\n      0x00\n        /* \"#utility.yul\":1016:1068   */\n      tag_447\n        /* \"#utility.yul\":1060:1067   */\n      dup5\n        /* \"#utility.yul\":1051:1057   */\n      dup3\n        /* \"#utility.yul\":1040:1049   */\n      dup6\n        /* \"#utility.yul\":1036:1058   */\n      add\n        /* \"#utility.yul\":1016:1068   */\n      tag_362\n      jump\t// in\n    tag_447:\n        /* \"#utility.yul\":1006:1068   */\n      swap2\n      pop\n        /* \"#utility.yul\":962:1078   */\n      pop\n        /* \"#utility.yul\":758:1085   */\n      swap3\n      swap2\n      pop\n      pop\n      jump\t// out\n        /* \"#utility.yul\":1091:1181   */\n    tag_363:\n        /* \"#utility.yul\":1125:1132   */\n      0x00\n        /* \"#utility.yul\":1168:1173   */\n      dup2\n        /* \"#utility.yul\":1161:1174   */\n      iszero\n        /* \"#utility.yul\":1154:1175   */\n      iszero\n        /* \"#utility.yul\":1143:1175   */\n      swap1\n      pop\n        /* \"#utility.yul\":1091:1181   */\n      swap2\n      swap1\n      pop\n      jump\t// out\n        /* \"#utility.yul\":1187:1296   */\n    tag_364:\n        /* \"#utility.yul\":1268:1289   */\n      tag_450\n        /* \"#utility.yul\":1283:1288   */\n      dup2\n        /* \"#utility.yul\":1268:1289   */\n      tag_363\n      jump\t// in\n    tag_450:\n        /* \"#utility.yul\":1263:1266   */\n      dup3\n        /* \"#utility.yul\":1256:1290   */\n      mstore\n        /* \"#utility.yul\":1187:1296   */\n      pop\n      pop\n      jump\t// out\n        /* \"#utility.yul\":1302:1512   */\n    tag_32:\n        /* \"#utility.yul\":1389:1393   */\n      0x00\n        /* \"#utility.yul\":1427:1429   */\n      0x20\n        /* \"#utility.yul\":1416:1425   */\n      dup3\n        /* \"#utility.yul\":1412:1430   */\n      add\n        /* \"#utility.yul\":1404:1430   */\n      swap1\n      pop\n        /* \"#utility.yul\":1440:1505   */\n      tag_452\n        /* \"#utility.yul\":1502:1503   */\n      0x00\n        /* \"#utility.yul\":1491:1500   */\n      dup4\n        /* \"#utility.yul\":1487:1504   */\n      add\n        /* \"#utility.yul\":1478:1484   */\n      dup5\n        /* \"#utility.yul\":1440:1505   */\n      tag_364\n      jump\t// in\n    tag_452:\n        /* \"#utility.yul\":1302:1512   */\n      swap3\n      swap2\n      pop\n      pop\n      jump\t// out\n        /* \"#utility.yul\":1518:1595   */\n    tag_365:\n        /* \"#utility.yul\":1555:1562   */\n      0x00\n        /* \"#utility.yul\":1584:1589   */\n      dup2\n        /* \"#utility.yul\":1573:1589   */\n      swap1\n      pop\n        /* \"#utility.yul\":1518:1595   */\n      swap2\n      swap1\n      pop\n      jump\t// out\n        /* \"#utility.yul\":1601:1719   */\n    tag_366:\n        /* \"#utility.yul\":1688:1712   */\n      tag_455\n        /* \"#utility.yul\":1706:1711   */\n      dup2\n        /* \"#utility.yul\":1688:1712   */\n      tag_365\n      jump\t// in\n    tag_455:\n        /* \"#utility.yul\":1683:1686   */\n      dup3\n        /* \"#utility.yul\":1676:1713   */\n      mstore\n        /* \"#utility.yul\":1601:1719   */\n      pop\n      pop\n      jump\t// out\n        /* \"#utility.yul\":1725:1947   */\n    tag_37:\n        /* \"#utility.yul\":1818:1822   */\n      0x00\n        /* \"#utility.yul\":1856:1858   */\n      0x20\n        /* \"#utility.yul\":1845:1854   */\n      dup3\n        /* \"#utility.yul\":1841:1859   */\n      add\n        /* \"#utility.yul\":1833:1859   */\n      swap1\n      pop\n        /* \"#utility.yul\":1869:1940   */\n      tag_457\n        /* \"#utility.yul\":1937:1938   */\n      0x00\n        /* \"#utility.yul\":1926:1935   */\n      dup4\n        /* \"#utility.yul\":1922:1939   */\n      add\n        /* \"#utility.yul\":1913:1919   */\n      dup5\n        /* \"#utility.yul\":1869:1940   */\n      tag_366\n      jump\t// in\n    tag_457:\n        /* \"#utility.yul\":1725:1947   */\n      swap3\n      swap2\n      pop\n      pop\n      jump\t// out\n        /* \"#utility.yul\":1953:2075   */\n    tag_367:\n        /* \"#utility.yul\":2026:2050   */\n      tag_459\n        /* \"#utility.yul\":2044:2049   */\n      dup2\n        /* \"#utility.yul\":2026:2050   */\n      tag_365\n      jump\t// in\n    tag_459:\n        /* \"#utility.yul\":2019:2024   */\n      dup2\n        /* \"#utility.yul\":2016:2051   */\n      eq\n        /* \"#utility.yul\":2006:2069   */\n      tag_460\n      jumpi\n        /* \"#utility.yul\":2065:2066   */\n      0x00\n        /* \"#utility.yul\":2062:2063   */\n      dup1\n        /* \"#utility.yul\":2055:2067   */\n      revert\n        /* \"#utility.yul\":2006:2069   */\n    tag_460:\n        /* \"#utility.yul\":1953:2075   */\n      pop\n      jump\t// out\n        /* \"#utility.yul\":2081:2220   */\n    tag_368:\n        /* \"#utility.yul\":2127:2132   */\n      0x00\n        /* \"#utility.yul\":2165:2171   */\n      dup2\n        /* \"#utility.yul\":2152:2172   */\n      calldataload\n        /* \"#utility.yul\":2143:2172   */\n      swap1\n      pop\n        /* \"#utility.yul\":2181:2214   */\n      tag_462\n        /* \"#utility.yul\":2208:2213   */\n      dup2\n        /* \"#utility.yul\":2181:2214   */\n      tag_367\n      jump\t// in\n    tag_462:\n        /* \"#utility.yul\":2081:2220   */\n      swap3\n      swap2\n      pop\n      pop\n      jump\t// out\n        /* \"#utility.yul\":2226:2555   */\n    tag_43:\n        /* \"#utility.yul\":2285:2291   */\n      0x00\n        /* \"#utility.yul\":2334:2336   */\n      0x20\n        /* \"#utility.yul\":2322:2331   */\n      dup3\n        /* \"#utility.yul\":2313:2320   */\n      dup5\n        /* \"#utility.yul\":2309:2332   */\n      sub\n        /* \"#utility.yul\":2305:2337   */\n      slt\n        /* \"#utility.yul\":2302:2421   */\n      iszero\n      tag_464\n      jumpi\n        /* \"#utility.yul\":2340:2419   */\n      tag_465\n      tag_358\n      jump\t// in\n    tag_465:\n        /* \"#utility.yul\":2302:2421   */\n    tag_464:\n        /* \"#utility.yul\":2460:2461   */\n      0x00\n        /* \"#utility.yul\":2485:2538   */\n      tag_466\n        /* \"#utility.yul\":2530:2537   */\n      dup5\n        /* \"#utility.yul\":2521:2527   */\n      dup3\n        /* \"#utility.yul\":2510:2519   */\n      dup6\n        /* \"#utility.yul\":2506:2528   */\n      add\n        /* \"#utility.yul\":2485:2538   */\n      tag_368\n      jump\t// in\n    tag_466:\n        /* \"#utility.yul\":2475:2538   */\n      swap2\n      pop\n        /* \"#utility.yul\":2431:2548   */\n      pop\n        /* \"#utility.yul\":2226:2555   */\n      swap3\n      swap2\n      pop\n      pop\n      jump\t// out\n        /* \"#utility.yul\":2561:2687   */\n    tag_369:\n        /* \"#utility.yul\":2598:2605   */\n      0x00\n        /* \"#utility.yul\":2638:2680   */\n      0xffffffffffffffffffffffffffffffffffffffff\n        /* \"#utility.yul\":2631:2636   */\n      dup3\n        /* \"#utility.yul\":2627:2681   */\n      and\n        /* \"#utility.yul\":2616:2681   */\n      swap1\n      pop\n        /* \"#utility.yul\":2561:2687   */\n      swap2\n      swap1\n      pop\n      jump\t// out\n        /* \"#utility.yul\":2693:2789   */\n    tag_370:\n        /* \"#utility.yul\":2730:2737   */\n      0x00\n        /* \"#utility.yul\":2759:2783   */\n      tag_469\n        /* \"#utility.yul\":2777:2782   */\n      dup3\n        /* \"#utility.yul\":2759:2783   */\n      tag_369\n      jump\t// in\n    tag_469:\n        /* \"#utility.yul\":2748:2783   */\n      swap1\n      pop\n        /* \"#utility.yul\":2693:2789   */\n      swap2\n      swap1\n      pop\n      jump\t// out\n        /* \"#utility.yul\":2795:2917   */\n    tag_371:\n        /* \"#utility.yul\":2868:2892   */\n      tag_471\n        /* \"#utility.yul\":2886:2891   */\n      dup2\n        /* \"#utility.yul\":2868:2892   */\n      tag_370\n      jump\t// in\n    tag_471:\n        /* \"#utility.yul\":2861:2866   */\n      dup2\n        /* \"#utility.yul\":2858:2893   */\n      eq\n        /* \"#utility.yul\":2848:2911   */\n      tag_472\n      jumpi\n        /* \"#utility.yul\":2907:2908   */\n      0x00\n        /* \"#utility.yul\":2904:2905   */\n      dup1\n        /* \"#utility.yul\":2897:2909   */\n      revert\n        /* \"#utility.yul\":2848:2911   */\n    tag_472:\n        /* \"#utility.yul\":2795:2917   */\n      pop\n      jump\t// out\n        /* \"#utility.yul\":2923:3062   */\n    tag_372:\n        /* \"#utility.yul\":2969:2974   */\n      0x00\n        /* \"#utility.yul\":3007:3013   */\n      dup2\n        /* \"#utility.yul\":2994:3014   */\n      calldataload\n        /* \"#utility.yul\":2985:3014   */\n      swap1\n      pop\n        /* \"#utility.yul\":3023:3056   */\n      tag_474\n        /* \"#utility.yul\":3050:3055   */\n      dup2\n        /* \"#utility.yul\":3023:3056   */\n      tag_371\n      jump\t// in\n    tag_474:\n        /* \"#utility.yul\":2923:3062   */\n      swap3\n      swap2\n      pop\n      pop\n      jump\t// out\n        /* \"#utility.yul\":3068:3542   */\n    tag_59:\n        /* \"#utility.yul\":3136:3142   */\n      0x00\n        /* \"#utility.yul\":3144:3150   */\n      dup1\n        /* \"#utility.yul\":3193:3195   */\n      0x40\n        /* \"#utility.yul\":3181:3190   */\n      dup4\n        /* \"#utility.yul\":3172:3179   */\n      dup6\n        /* \"#utility.yul\":3168:3191   */\n      sub\n        /* \"#utility.yul\":3164:3196   */\n      slt\n        /* \"#utility.yul\":3161:3280   */\n      iszero\n      tag_476\n      jumpi\n        /* \"#utility.yul\":3199:3278   */\n      tag_477\n      tag_358\n      jump\t// in\n    tag_477:\n        /* \"#utility.yul\":3161:3280   */\n    tag_476:\n        /* \"#utility.yul\":3319:3320   */\n      0x00\n        /* \"#utility.yul\":3344:3397   */\n      tag_478\n        /* \"#utility.yul\":3389:3396   */\n      dup6\n        /* \"#utility.yul\":3380:3386   */\n      dup3\n        /* \"#utility.yul\":3369:3378   */\n      dup7\n        /* \"#utility.yul\":3365:3387   */\n      add\n        /* \"#utility.yul\":3344:3397   */\n      tag_368\n      jump\t// in\n    tag_478:\n        /* \"#utility.yul\":3334:3397   */\n      swap3\n      pop\n        /* \"#utility.yul\":3290:3407   */\n      pop\n        /* \"#utility.yul\":3446:3448   */\n      0x20\n        /* \"#utility.yul\":3472:3525   */\n      tag_479\n        /* \"#utility.yul\":3517:3524   */\n      dup6\n        /* \"#utility.yul\":3508:3514   */\n      dup3\n        /* \"#utility.yul\":3497:3506   */\n      dup7\n        /* \"#utility.yul\":3493:3515   */\n      add\n        /* \"#utility.yul\":3472:3525   */\n      tag_372\n      jump\t// in\n    tag_479:\n        /* \"#utility.yul\":3462:3525   */\n      swap2\n      pop\n        /* \"#utility.yul\":3417:3535   */\n      pop\n        /* \"#utility.yul\":3068:3542   */\n      swap3\n      pop\n      swap3\n      swap1\n      pop\n      jump\t// out\n        /* \"#utility.yul\":3548:3666   */\n    tag_373:\n        /* \"#utility.yul\":3635:3659   */\n      tag_481\n        /* \"#utility.yul\":3653:3658   */\n      dup2\n        /* \"#utility.yul\":3635:3659   */\n      tag_370\n      jump\t// in\n    tag_481:\n        /* \"#utility.yul\":3630:3633   */\n      dup3\n        /* \"#utility.yul\":3623:3660   */\n      mstore\n        /* \"#utility.yul\":3548:3666   */\n      pop\n      pop\n      jump\t// out\n        /* \"#utility.yul\":3672:3894   */\n    tag_66:\n        /* \"#utility.yul\":3765:3769   */\n      0x00\n        /* \"#utility.yul\":3803:3805   */\n      0x20\n        /* \"#utility.yul\":3792:3801   */\n      dup3\n        /* \"#utility.yul\":3788:3806   */\n      add\n        /* \"#utility.yul\":3780:3806   */\n      swap1\n      pop\n        /* \"#utility.yul\":3816:3887   */\n      tag_483\n        /* \"#utility.yul\":3884:3885   */\n      0x00\n        /* \"#utility.yul\":3873:3882   */\n      dup4\n        /* \"#utility.yul\":3869:3886   */\n      add\n        /* \"#utility.yul\":3860:3866   */\n      dup5\n        /* \"#utility.yul\":3816:3887   */\n      tag_373\n      jump\t// in\n    tag_483:\n        /* \"#utility.yul\":3672:3894   */\n      swap3\n      swap2\n      pop\n      pop\n      jump\t// out\n        /* \"#utility.yul\":3900:4016   */\n    tag_374:\n        /* \"#utility.yul\":3970:3991   */\n      tag_485\n        /* \"#utility.yul\":3985:3990   */\n      dup2\n        /* \"#utility.yul\":3970:3991   */\n      tag_363\n      jump\t// in\n    tag_485:\n        /* \"#utility.yul\":3963:3968   */\n      dup2\n        /* \"#utility.yul\":3960:3992   */\n      eq\n        /* \"#utility.yul\":3950:4010   */\n      tag_486\n      jumpi\n        /* \"#utility.yul\":4006:4007   */\n      0x00\n        /* \"#utility.yul\":4003:4004   */\n      dup1\n        /* \"#utility.yul\":3996:4008   */\n      revert\n        /* \"#utility.yul\":3950:4010   */\n    tag_486:\n        /* \"#utility.yul\":3900:4016   */\n      pop\n      jump\t// out\n        /* \"#utility.yul\":4022:4155   */\n    tag_375:\n        /* \"#utility.yul\":4065:4070   */\n      0x00\n        /* \"#utility.yul\":4103:4109   */\n      dup2\n        /* \"#utility.yul\":4090:4110   */\n      calldataload\n        /* \"#utility.yul\":4081:4110   */\n      swap1\n      pop\n        /* \"#utility.yul\":4119:4149   */\n      tag_488\n        /* \"#utility.yul\":4143:4148   */\n      dup2\n        /* \"#utility.yul\":4119:4149   */\n      tag_374\n      jump\t// in\n    tag_488:\n        /* \"#utility.yul\":4022:4155   */\n      swap3\n      swap2\n      pop\n      pop\n      jump\t// out\n        /* \"#utility.yul\":4161:4920   */\n    tag_70:\n        /* \"#utility.yul\":4244:4250   */\n      0x00\n        /* \"#utility.yul\":4252:4258   */\n      dup1\n        /* \"#utility.yul\":4260:4266   */\n      0x00\n        /* \"#utility.yul\":4268:4274   */\n      dup1\n        /* \"#utility.yul\":4317:4320   */\n      0x80\n        /* \"#utility.yul\":4305:4314   */\n      dup6\n        /* \"#utility.yul\":4296:4303   */\n      dup8\n        /* \"#utility.yul\":4292:4315   */\n      sub\n        /* \"#utility.yul\":4288:4321   */\n      slt\n        /* \"#utility.yul\":4285:4405   */\n      iszero\n      tag_490\n      jumpi\n        /* \"#utility.yul\":4324:4403   */\n      tag_491\n      tag_358\n      jump\t// in\n    tag_491:\n        /* \"#utility.yul\":4285:4405   */\n    tag_490:\n        /* \"#utility.yul\":4444:4445   */\n      0x00\n        /* \"#utility.yul\":4469:4522   */\n      tag_492\n        /* \"#utility.yul\":4514:4521   */\n      dup8\n        /* \"#utility.yul\":4505:4511   */\n      dup3\n        /* \"#utility.yul\":4494:4503   */\n      dup9\n        /* \"#utility.yul\":4490:4512   */\n      add\n        /* \"#utility.yul\":4469:4522   */\n      tag_368\n      jump\t// in\n    tag_492:\n        /* \"#utility.yul\":4459:4522   */\n      swap5\n      pop\n        /* \"#utility.yul\":4415:4532   */\n      pop\n        /* \"#utility.yul\":4571:4573   */\n      0x20\n        /* \"#utility.yul\":4597:4650   */\n      tag_493\n        /* \"#utility.yul\":4642:4649   */\n      dup8\n        /* \"#utility.yul\":4633:4639   */\n      dup3\n        /* \"#utility.yul\":4622:4631   */\n      dup9\n        /* \"#utility.yul\":4618:4640   */\n      add\n        /* \"#utility.yul\":4597:4650   */\n      tag_368\n      jump\t// in\n    tag_493:\n        /* \"#utility.yul\":4587:4650   */\n      swap4\n      pop\n        /* \"#utility.yul\":4542:4660   */\n      pop\n        /* \"#utility.yul\":4699:4701   */\n      0x40\n        /* \"#utility.yul\":4725:4778   */\n      tag_494\n        /* \"#utility.yul\":4770:4777   */\n      dup8\n        /* \"#utility.yul\":4761:4767   */\n      dup3\n        /* \"#utility.yul\":4750:4759   */\n      dup9\n        /* \"#utility.yul\":4746:4768   */\n      add\n        /* \"#utility.yul\":4725:4778   */\n      tag_368\n      jump\t// in\n    tag_494:\n        /* \"#utility.yul\":4715:4778   */\n      swap3\n      pop\n        /* \"#utility.yul\":4670:4788   */\n      pop\n        /* \"#utility.yul\":4827:4829   */\n      0x60\n        /* \"#utility.yul\":4853:4903   */\n      tag_495\n        /* \"#utility.yul\":4895:4902   */\n      dup8\n        /* \"#utility.yul\":4886:4892   */\n      dup3\n        /* \"#utility.yul\":4875:4884   */\n      dup9\n        /* \"#utility.yul\":4871:4893   */\n      add\n        /* \"#utility.yul\":4853:4903   */\n      tag_375\n      jump\t// in\n    tag_495:\n        /* \"#utility.yul\":4843:4903   */\n      swap2\n      pop\n        /* \"#utility.yul\":4798:4913   */\n      pop\n        /* \"#utility.yul\":4161:4920   */\n      swap3\n      swap6\n      swap2\n      swap5\n      pop\n      swap3\n      pop\n      jump\t// out\n        /* \"#utility.yul\":4926:5255   */\n    tag_75:\n        /* \"#utility.yul\":4985:4991   */\n      0x00\n        /* \"#utility.yul\":5034:5036   */\n      0x20\n        /* \"#utility.yul\":5022:5031   */\n      dup3\n        /* \"#utility.yul\":5013:5020   */\n      dup5\n        /* \"#utility.yul\":5009:5032   */\n      sub\n        /* \"#utility.yul\":5005:5037   */\n      slt\n        /* \"#utility.yul\":5002:5121   */\n      iszero\n      tag_497\n      jumpi\n        /* \"#utility.yul\":5040:5119   */\n      tag_498\n      tag_358\n      jump\t// in\n    tag_498:\n        /* \"#utility.yul\":5002:5121   */\n    tag_497:\n        /* \"#utility.yul\":5160:5161   */\n      0x00\n        /* \"#utility.yul\":5185:5238   */\n      tag_499\n        /* \"#utility.yul\":5230:5237   */\n      dup5\n        /* \"#utility.yul\":5221:5227   */\n      dup3\n        /* \"#utility.yul\":5210:5219   */\n      dup6\n        /* \"#utility.yul\":5206:5228   */\n      add\n        /* \"#utility.yul\":5185:5238   */\n      tag_372\n      jump\t// in\n    tag_499:\n        /* \"#utility.yul\":5175:5238   */\n      swap2\n      pop\n        /* \"#utility.yul\":5131:5248   */\n      pop\n        /* \"#utility.yul\":4926:5255   */\n      swap3\n      swap2\n      pop\n      pop\n      jump\t// out\n        /* \"#utility.yul\":5261:5735   */\n    tag_93:\n        /* \"#utility.yul\":5329:5335   */\n      0x00\n        /* \"#utility.yul\":5337:5343   */\n      dup1\n        /* \"#utility.yul\":5386:5388   */\n      0x40\n        /* \"#utility.yul\":5374:5383   */\n      dup4\n        /* \"#utility.yul\":5365:5372   */\n      dup6\n        /* \"#utility.yul\":5361:5384   */\n      sub\n        /* \"#utility.yul\":5357:5389   */\n      slt\n        /* \"#utility.yul\":5354:5473   */\n      iszero\n      tag_501\n      jumpi\n        /* \"#utility.yul\":5392:5471   */\n      tag_502\n      tag_358\n      jump\t// in\n    tag_502:\n        /* \"#utility.yul\":5354:5473   */\n    tag_501:\n        /* \"#utility.yul\":5512:5513   */\n      0x00\n        /* \"#utility.yul\":5537:5590   */\n      tag_503\n        /* \"#utility.yul\":5582:5589   */\n      dup6\n        /* \"#utility.yul\":5573:5579   */\n      dup3\n        /* \"#utility.yul\":5562:5571   */\n      dup7\n        /* \"#utility.yul\":5558:5580   */\n      add\n        /* \"#utility.yul\":5537:5590   */\n      tag_368\n      jump\t// in\n    tag_503:\n        /* \"#utility.yul\":5527:5590   */\n      swap3\n      pop\n        /* \"#utility.yul\":5483:5600   */\n      pop\n        /* \"#utility.yul\":5639:5641   */\n      0x20\n        /* \"#utility.yul\":5665:5718   */\n      tag_504\n        /* \"#utility.yul\":5710:5717   */\n      dup6\n        /* \"#utility.yul\":5701:5707   */\n      dup3\n        /* \"#utility.yul\":5690:5699   */\n      dup7\n        /* \"#utility.yul\":5686:5708   */\n      add\n        /* \"#utility.yul\":5665:5718   */\n      tag_368\n      jump\t// in\n    tag_504:\n        /* \"#utility.yul\":5655:5718   */\n      swap2\n      pop\n        /* \"#utility.yul\":5610:5728   */\n      pop\n        /* \"#utility.yul\":5261:5735   */\n      swap3\n      pop\n      swap3\n      swap1\n      pop\n      jump\t// out\n        /* \"#utility.yul\":5741:6215   */\n    tag_97:\n        /* \"#utility.yul\":5809:5815   */\n      0x00\n        /* \"#utility.yul\":5817:5823   */\n      dup1\n        /* \"#utility.yul\":5866:5868   */\n      0x40\n        /* \"#utility.yul\":5854:5863   */\n      dup4\n        /* \"#utility.yul\":5845:5852   */\n      dup6\n        /* \"#utility.yul\":5841:5864   */\n      sub\n        /* \"#utility.yul\":5837:5869   */\n      slt\n        /* \"#utility.yul\":5834:5953   */\n      iszero\n      tag_506\n      jumpi\n        /* \"#utility.yul\":5872:5951   */\n      tag_507\n      tag_358\n      jump\t// in\n    tag_507:\n        /* \"#utility.yul\":5834:5953   */\n    tag_506:\n        /* \"#utility.yul\":5992:5993   */\n      0x00\n        /* \"#utility.yul\":6017:6070   */\n      tag_508\n        /* \"#utility.yul\":6062:6069   */\n      dup6\n        /* \"#utility.yul\":6053:6059   */\n      dup3\n        /* \"#utility.yul\":6042:6051   */\n      dup7\n        /* \"#utility.yul\":6038:6060   */\n      add\n        /* \"#utility.yul\":6017:6070   */\n      tag_372\n      jump\t// in\n    tag_508:\n        /* \"#utility.yul\":6007:6070   */\n      swap3\n      pop\n        /* \"#utility.yul\":5963:6080   */\n      pop\n        /* \"#utility.yul\":6119:6121   */\n      0x20\n        /* \"#utility.yul\":6145:6198   */\n      tag_509\n        /* \"#utility.yul\":6190:6197   */\n      dup6\n        /* \"#utility.yul\":6181:6187   */\n      dup3\n        /* \"#utility.yul\":6170:6179   */\n      dup7\n        /* \"#utility.yul\":6166:6188   */\n      add\n        /* \"#utility.yul\":6145:6198   */\n      tag_368\n      jump\t// in\n    tag_509:\n        /* \"#utility.yul\":6135:6198   */\n      swap2\n      pop\n        /* \"#utility.yul\":6090:6208   */\n      pop\n        /* \"#utility.yul\":5741:6215   */\n      swap3\n      pop\n      swap3\n      swap1\n      pop\n      jump\t// out\n        /* \"#utility.yul\":6221:6320   */\n    tag_376:\n        /* \"#utility.yul\":6273:6279   */\n      0x00\n        /* \"#utility.yul\":6307:6312   */\n      dup2\n        /* \"#utility.yul\":6301:6313   */\n      mload\n        /* \"#utility.yul\":6291:6313   */\n      swap1\n      pop\n        /* \"#utility.yul\":6221:6320   */\n      swap2\n      swap1\n      pop\n      jump\t// out\n        /* \"#utility.yul\":6326:6495   */\n    tag_377:\n        /* \"#utility.yul\":6410:6421   */\n      0x00\n        /* \"#utility.yul\":6444:6450   */\n      dup3\n        /* \"#utility.yul\":6439:6442   */\n      dup3\n        /* \"#utility.yul\":6432:6451   */\n      mstore\n        /* \"#utility.yul\":6484:6488   */\n      0x20\n        /* \"#utility.yul\":6479:6482   */\n      dup3\n        /* \"#utility.yul\":6475:6489   */\n      add\n        /* \"#utility.yul\":6460:6489   */\n      swap1\n      pop\n        /* \"#utility.yul\":6326:6495   */\n      swap3\n      swap2\n      pop\n      pop\n      jump\t// out\n        /* \"#utility.yul\":6501:6747   */\n    tag_378:\n        /* \"#utility.yul\":6582:6583   */\n      0x00\n        /* \"#utility.yul\":6592:6705   */\n    tag_513:\n        /* \"#utility.yul\":6606:6612   */\n      dup4\n        /* \"#utility.yul\":6603:6604   */\n      dup2\n        /* \"#utility.yul\":6600:6613   */\n      lt\n        /* \"#utility.yul\":6592:6705   */\n      iszero\n      tag_515\n      jumpi\n        /* \"#utility.yul\":6691:6692   */\n      dup1\n        /* \"#utility.yul\":6686:6689   */\n      dup3\n        /* \"#utility.yul\":6682:6693   */\n      add\n        /* \"#utility.yul\":6676:6694   */\n      mload\n        /* \"#utility.yul\":6672:6673   */\n      dup2\n        /* \"#utility.yul\":6667:6670   */\n      dup5\n        /* \"#utility.yul\":6663:6674   */\n      add\n        /* \"#utility.yul\":6656:6695   */\n      mstore\n        /* \"#utility.yul\":6628:6630   */\n      0x20\n        /* \"#utility.yul\":6625:6626   */\n      dup2\n        /* \"#utility.yul\":6621:6631   */\n      add\n        /* \"#utility.yul\":6616:6631   */\n      swap1\n      pop\n        /* \"#utility.yul\":6592:6705   */\n      jump(tag_513)\n    tag_515:\n        /* \"#utility.yul\":6739:6740   */\n      0x00\n        /* \"#utility.yul\":6730:6736   */\n      dup5\n        /* \"#utility.yul\":6725:6728   */\n      dup5\n        /* \"#utility.yul\":6721:6737   */\n      add\n        /* \"#utility.yul\":6714:6741   */\n      mstore\n        /* \"#utility.yul\":6563:6747   */\n      pop\n        /* \"#utility.yul\":6501:6747   */\n      pop\n      pop\n      pop\n      jump\t// out\n        /* \"#utility.yul\":6753:6855   */\n    tag_379:\n        /* \"#utility.yul\":6794:6800   */\n      0x00\n        /* \"#utility.yul\":6845:6847   */\n      0x1f\n        /* \"#utility.yul\":6841:6848   */\n      not\n        /* \"#utility.yul\":6836:6838   */\n      0x1f\n        /* \"#utility.yul\":6829:6834   */\n      dup4\n        /* \"#utility.yul\":6825:6839   */\n      add\n        /* \"#utility.yul\":6821:6849   */\n      and\n        /* \"#utility.yul\":6811:6849   */\n      swap1\n      pop\n        /* \"#utility.yul\":6753:6855   */\n      swap2\n      swap1\n      pop\n      jump\t// out\n        /* \"#utility.yul\":6861:7238   */\n    tag_380:\n        /* \"#utility.yul\":6949:6952   */\n      0x00\n        /* \"#utility.yul\":6977:7016   */\n      tag_518\n        /* \"#utility.yul\":7010:7015   */\n      dup3\n        /* \"#utility.yul\":6977:7016   */\n      tag_376\n      jump\t// in\n    tag_518:\n        /* \"#utility.yul\":7032:7103   */\n      tag_519\n        /* \"#utility.yul\":7096:7102   */\n      dup2\n        /* \"#utility.yul\":7091:7094   */\n      dup6\n        /* \"#utility.yul\":7032:7103   */\n      tag_377\n      jump\t// in\n    tag_519:\n        /* \"#utility.yul\":7025:7103   */\n      swap4\n      pop\n        /* \"#utility.yul\":7112:7177   */\n      tag_520\n        /* \"#utility.yul\":7170:7176   */\n      dup2\n        /* \"#utility.yul\":7165:7168   */\n      dup6\n        /* \"#utility.yul\":7158:7162   */\n      0x20\n        /* \"#utility.yul\":7151:7156   */\n      dup7\n        /* \"#utility.yul\":7147:7163   */\n      add\n        /* \"#utility.yul\":7112:7177   */\n      tag_378\n      jump\t// in\n    tag_520:\n        /* \"#utility.yul\":7202:7231   */\n      tag_521\n        /* \"#utility.yul\":7224:7230   */\n      dup2\n        /* \"#utility.yul\":7202:7231   */\n      tag_379\n      jump\t// in\n    tag_521:\n        /* \"#utility.yul\":7197:7200   */\n      dup5\n        /* \"#utility.yul\":7193:7232   */\n      add\n        /* \"#utility.yul\":7186:7232   */\n      swap2\n      pop\n        /* \"#utility.yul\":6953:7238   */\n      pop\n        /* \"#utility.yul\":6861:7238   */\n      swap3\n      swap2\n      pop\n      pop\n      jump\t// out\n        /* \"#utility.yul\":7244:7557   */\n    tag_109:\n        /* \"#utility.yul\":7357:7361   */\n      0x00\n        /* \"#utility.yul\":7395:7397   */\n      0x20\n        /* \"#utility.yul\":7384:7393   */\n      dup3\n        /* \"#utility.yul\":7380:7398   */\n      add\n        /* \"#utility.yul\":7372:7398   */\n      swap1\n      pop\n        /* \"#utility.yul\":7444:7453   */\n      dup2\n        /* \"#utility.yul\":7438:7442   */\n      dup2\n        /* \"#utility.yul\":7434:7454   */\n      sub\n        /* \"#utility.yul\":7430:7431   */\n      0x00\n        /* \"#utility.yul\":7419:7428   */\n      dup4\n        /* \"#utility.yul\":7415:7432   */\n      add\n        /* \"#utility.yul\":7408:7455   */\n      mstore\n        /* \"#utility.yul\":7472:7550   */\n      tag_523\n        /* \"#utility.yul\":7545:7549   */\n      dup2\n        /* \"#utility.yul\":7536:7542   */\n      dup5\n        /* \"#utility.yul\":7472:7550   */\n      tag_380\n      jump\t// in\n    tag_523:\n        /* \"#utility.yul\":7464:7550   */\n      swap1\n      pop\n        /* \"#utility.yul\":7244:7557   */\n      swap3\n      swap2\n      pop\n      pop\n      jump\t// out\n        /* \"#utility.yul\":7563:7743   */\n    tag_381:\n        /* \"#utility.yul\":7703:7735   */\n      0x4f6e6c7920666163746f72792063616e2064657461636820697473656c660000\n        /* \"#utility.yul\":7699:7700   */\n      0x00\n        /* \"#utility.yul\":7691:7697   */\n      dup3\n        /* \"#utility.yul\":7687:7701   */\n      add\n        /* \"#utility.yul\":7680:7736   */\n      mstore\n        /* \"#utility.yul\":7563:7743   */\n      pop\n      jump\t// out\n        /* \"#utility.yul\":7749:8115   */\n    tag_382:\n        /* \"#utility.yul\":7891:7894   */\n      0x00\n        /* \"#utility.yul\":7912:7979   */\n      tag_526\n        /* \"#utility.yul\":7976:7978   */\n      0x1e\n        /* \"#utility.yul\":7971:7974   */\n      dup4\n        /* \"#utility.yul\":7912:7979   */\n      tag_377\n      jump\t// in\n    tag_526:\n        /* \"#utility.yul\":7905:7979   */\n      swap2\n      pop\n        /* \"#utility.yul\":7988:8081   */\n      tag_527\n        /* \"#utility.yul\":8077:8080   */\n      dup3\n        /* \"#utility.yul\":7988:8081   */\n      tag_381\n      jump\t// in\n    tag_527:\n        /* \"#utility.yul\":8106:8108   */\n      0x20\n        /* \"#utility.yul\":8101:8104   */\n      dup3\n        /* \"#utility.yul\":8097:8109   */\n      add\n        /* \"#utility.yul\":8090:8109   */\n      swap1\n      pop\n        /* \"#utility.yul\":7749:8115   */\n      swap2\n      swap1\n      pop\n      jump\t// out\n        /* \"#utility.yul\":8121:8540   */\n    tag_128:\n        /* \"#utility.yul\":8287:8291   */\n      0x00\n        /* \"#utility.yul\":8325:8327   */\n      0x20\n        /* \"#utility.yul\":8314:8323   */\n      dup3\n        /* \"#utility.yul\":8310:8328   */\n      add\n        /* \"#utility.yul\":8302:8328   */\n      swap1\n      pop\n        /* \"#utility.yul\":8374:8383   */\n      dup2\n        /* \"#utility.yul\":8368:8372   */\n      dup2\n        /* \"#utility.yul\":8364:8384   */\n      sub\n        /* \"#utility.yul\":8360:8361   */\n      0x00\n        /* \"#utility.yul\":8349:8358   */\n      dup4\n        /* \"#utility.yul\":8345:8362   */\n      add\n        /* \"#utility.yul\":8338:8385   */\n      mstore\n        /* \"#utility.yul\":8402:8533   */\n      tag_529\n        /* \"#utility.yul\":8528:8532   */\n      dup2\n        /* \"#utility.yul\":8402:8533   */\n      tag_382\n      jump\t// in\n    tag_529:\n        /* \"#utility.yul\":8394:8533   */\n      swap1\n      pop\n        /* \"#utility.yul\":8121:8540   */\n      swap2\n      swap1\n      pop\n      jump\t// out\n        /* \"#utility.yul\":8546:8689   */\n    tag_383:\n        /* \"#utility.yul\":8603:8608   */\n      0x00\n        /* \"#utility.yul\":8634:8640   */\n      dup2\n        /* \"#utility.yul\":8628:8641   */\n      mload\n        /* \"#utility.yul\":8619:8641   */\n      swap1\n      pop\n        /* \"#utility.yul\":8650:8683   */\n      tag_531\n        /* \"#utility.yul\":8677:8682   */\n      dup2\n        /* \"#utility.yul\":8650:8683   */\n      tag_367\n      jump\t// in\n    tag_531:\n        /* \"#utility.yul\":8546:8689   */\n      swap3\n      swap2\n      pop\n      pop\n      jump\t// out\n        /* \"#utility.yul\":8695:8838   */\n    tag_384:\n        /* \"#utility.yul\":8752:8757   */\n      0x00\n        /* \"#utility.yul\":8783:8789   */\n      dup2\n        /* \"#utility.yul\":8777:8790   */\n      mload\n        /* \"#utility.yul\":8768:8790   */\n      swap1\n      pop\n        /* \"#utility.yul\":8799:8832   */\n      tag_533\n        /* \"#utility.yul\":8826:8831   */\n      dup2\n        /* \"#utility.yul\":8799:8832   */\n      tag_371\n      jump\t// in\n    tag_533:\n        /* \"#utility.yul\":8695:8838   */\n      swap3\n      swap2\n      pop\n      pop\n      jump\t// out\n        /* \"#utility.yul\":8844:9351   */\n    tag_134:\n        /* \"#utility.yul\":8923:8929   */\n      0x00\n        /* \"#utility.yul\":8931:8937   */\n      dup1\n        /* \"#utility.yul\":8980:8982   */\n      0x40\n        /* \"#utility.yul\":8968:8977   */\n      dup4\n        /* \"#utility.yul\":8959:8966   */\n      dup6\n        /* \"#utility.yul\":8955:8978   */\n      sub\n        /* \"#utility.yul\":8951:8983   */\n      slt\n        /* \"#utility.yul\":8948:9067   */\n      iszero\n      tag_535\n      jumpi\n        /* \"#utility.yul\":8986:9065   */\n      tag_536\n      tag_358\n      jump\t// in\n    tag_536:\n        /* \"#utility.yul\":8948:9067   */\n    tag_535:\n        /* \"#utility.yul\":9106:9107   */\n      0x00\n        /* \"#utility.yul\":9131:9195   */\n      tag_537\n        /* \"#utility.yul\":9187:9194   */\n      dup6\n        /* \"#utility.yul\":9178:9184   */\n      dup3\n        /* \"#utility.yul\":9167:9176   */\n      dup7\n        /* \"#utility.yul\":9163:9185   */\n      add\n        /* \"#utility.yul\":9131:9195   */\n      tag_383\n      jump\t// in\n    tag_537:\n        /* \"#utility.yul\":9121:9195   */\n      swap3\n      pop\n        /* \"#utility.yul\":9077:9205   */\n      pop\n        /* \"#utility.yul\":9244:9246   */\n      0x20\n        /* \"#utility.yul\":9270:9334   */\n      tag_538\n        /* \"#utility.yul\":9326:9333   */\n      dup6\n        /* \"#utility.yul\":9317:9323   */\n      dup3\n        /* \"#utility.yul\":9306:9315   */\n      dup7\n        /* \"#utility.yul\":9302:9324   */\n      add\n        /* \"#utility.yul\":9270:9334   */\n      tag_384\n      jump\t// in\n    tag_538:\n        /* \"#utility.yul\":9260:9334   */\n      swap2\n      pop\n        /* \"#utility.yul\":9215:9344   */\n      pop\n        /* \"#utility.yul\":8844:9351   */\n      swap3\n      pop\n      swap3\n      swap1\n      pop\n      jump\t// out\n        /* \"#utility.yul\":9357:9532   */\n    tag_385:\n        /* \"#utility.yul\":9497:9524   */\n      0x506c656173652070726f7669646520656e6f7567682066656500000000000000\n        /* \"#utility.yul\":9493:9494   */\n      0x00\n        /* \"#utility.yul\":9485:9491   */\n      dup3\n        /* \"#utility.yul\":9481:9495   */\n      add\n        /* \"#utility.yul\":9474:9525   */\n      mstore\n        /* \"#utility.yul\":9357:9532   */\n      pop\n      jump\t// out\n        /* \"#utility.yul\":9538:9904   */\n    tag_386:\n        /* \"#utility.yul\":9680:9683   */\n      0x00\n        /* \"#utility.yul\":9701:9768   */\n      tag_541\n        /* \"#utility.yul\":9765:9767   */\n      0x19\n        /* \"#utility.yul\":9760:9763   */\n      dup4\n        /* \"#utility.yul\":9701:9768   */\n      tag_377\n      jump\t// in\n    tag_541:\n        /* \"#utility.yul\":9694:9768   */\n      swap2\n      pop\n        /* \"#utility.yul\":9777:9870   */\n      tag_542\n        /* \"#utility.yul\":9866:9869   */\n      dup3\n        /* \"#utility.yul\":9777:9870   */\n      tag_385\n      jump\t// in\n    tag_542:\n        /* \"#utility.yul\":9895:9897   */\n      0x20\n        /* \"#utility.yul\":9890:9893   */\n      dup3\n        /* \"#utility.yul\":9886:9898   */\n      add\n        /* \"#utility.yul\":9879:9898   */\n      swap1\n      pop\n        /* \"#utility.yul\":9538:9904   */\n      swap2\n      swap1\n      pop\n      jump\t// out\n        /* \"#utility.yul\":9910:10329   */\n    tag_137:\n        /* \"#utility.yul\":10076:10080   */\n      0x00\n        /* \"#utility.yul\":10114:10116   */\n      0x20\n        /* \"#utility.yul\":10103:10112   */\n      dup3\n        /* \"#utility.yul\":10099:10117   */\n      add\n        /* \"#utility.yul\":10091:10117   */\n      swap1\n      pop\n        /* \"#utility.yul\":10163:10172   */\n      dup2\n        /* \"#utility.yul\":10157:10161   */\n      dup2\n        /* \"#utility.yul\":10153:10173   */\n      sub\n        /* \"#utility.yul\":10149:10150   */\n      0x00\n        /* \"#utility.yul\":10138:10147   */\n      dup4\n        /* \"#utility.yul\":10134:10151   */\n      add\n        /* \"#utility.yul\":10127:10174   */\n      mstore\n        /* \"#utility.yul\":10191:10322   */\n      tag_544\n        /* \"#utility.yul\":10317:10321   */\n      dup2\n        /* \"#utility.yul\":10191:10322   */\n      tag_386\n      jump\t// in\n    tag_544:\n        /* \"#utility.yul\":10183:10322   */\n      swap1\n      pop\n        /* \"#utility.yul\":9910:10329   */\n      swap2\n      swap1\n      pop\n      jump\t// out\n        /* \"#utility.yul\":10335:10510   */\n    tag_387:\n        /* \"#utility.yul\":10475:10502   */\n      0x596f7520646f6e2774206f776e2074686973207469636b657400000000000000\n        /* \"#utility.yul\":10471:10472   */\n      0x00\n        /* \"#utility.yul\":10463:10469   */\n      dup3\n        /* \"#utility.yul\":10459:10473   */\n      add\n        /* \"#utility.yul\":10452:10503   */\n      mstore\n        /* \"#utility.yul\":10335:10510   */\n      pop\n      jump\t// out\n        /* \"#utility.yul\":10516:10882   */\n    tag_388:\n        /* \"#utility.yul\":10658:10661   */\n      0x00\n        /* \"#utility.yul\":10679:10746   */\n      tag_547\n        /* \"#utility.yul\":10743:10745   */\n      0x19\n        /* \"#utility.yul\":10738:10741   */\n      dup4\n        /* \"#utility.yul\":10679:10746   */\n      tag_377\n      jump\t// in\n    tag_547:\n        /* \"#utility.yul\":10672:10746   */\n      swap2\n      pop\n        /* \"#utility.yul\":10755:10848   */\n      tag_548\n        /* \"#utility.yul\":10844:10847   */\n      dup3\n        /* \"#utility.yul\":10755:10848   */\n      tag_387\n      jump\t// in\n    tag_548:\n        /* \"#utility.yul\":10873:10875   */\n      0x20\n        /* \"#utility.yul\":10868:10871   */\n      dup3\n        /* \"#utility.yul\":10864:10876   */\n      add\n        /* \"#utility.yul\":10857:10876   */\n      swap1\n      pop\n        /* \"#utility.yul\":10516:10882   */\n      swap2\n      swap1\n      pop\n      jump\t// out\n        /* \"#utility.yul\":10888:11307   */\n    tag_145:\n        /* \"#utility.yul\":11054:11058   */\n      0x00\n        /* \"#utility.yul\":11092:11094   */\n      0x20\n        /* \"#utility.yul\":11081:11090   */\n      dup3\n        /* \"#utility.yul\":11077:11095   */\n      add\n        /* \"#utility.yul\":11069:11095   */\n      swap1\n      pop\n        /* \"#utility.yul\":11141:11150   */\n      dup2\n        /* \"#utility.yul\":11135:11139   */\n      dup2\n        /* \"#utility.yul\":11131:11151   */\n      sub\n        /* \"#utility.yul\":11127:11128   */\n      0x00\n        /* \"#utility.yul\":11116:11125   */\n      dup4\n        /* \"#utility.yul\":11112:11129   */\n      add\n        /* \"#utility.yul\":11105:11152   */\n      mstore\n        /* \"#utility.yul\":11169:11300   */\n      tag_550\n        /* \"#utility.yul\":11295:11299   */\n      dup2\n        /* \"#utility.yul\":11169:11300   */\n      tag_388\n      jump\t// in\n    tag_550:\n        /* \"#utility.yul\":11161:11300   */\n      swap1\n      pop\n        /* \"#utility.yul\":10888:11307   */\n      swap2\n      swap1\n      pop\n      jump\t// out\n        /* \"#utility.yul\":11313:11482   */\n    tag_389:\n        /* \"#utility.yul\":11453:11474   */\n      0x5469636b6574206e6f7420666f722073616c6500000000000000000000000000\n        /* \"#utility.yul\":11449:11450   */\n      0x00\n        /* \"#utility.yul\":11441:11447   */\n      dup3\n        /* \"#utility.yul\":11437:11451   */\n      add\n        /* \"#utility.yul\":11430:11475   */\n      mstore\n        /* \"#utility.yul\":11313:11482   */\n      pop\n      jump\t// out\n        /* \"#utility.yul\":11488:11854   */\n    tag_390:\n        /* \"#utility.yul\":11630:11633   */\n      0x00\n        /* \"#utility.yul\":11651:11718   */\n      tag_553\n        /* \"#utility.yul\":11715:11717   */\n      0x13\n        /* \"#utility.yul\":11710:11713   */\n      dup4\n        /* \"#utility.yul\":11651:11718   */\n      tag_377\n      jump\t// in\n    tag_553:\n        /* \"#utility.yul\":11644:11718   */\n      swap2\n      pop\n        /* \"#utility.yul\":11727:11820   */\n      tag_554\n        /* \"#utility.yul\":11816:11819   */\n      dup3\n        /* \"#utility.yul\":11727:11820   */\n      tag_389\n      jump\t// in\n    tag_554:\n        /* \"#utility.yul\":11845:11847   */\n      0x20\n        /* \"#utility.yul\":11840:11843   */\n      dup3\n        /* \"#utility.yul\":11836:11848   */\n      add\n        /* \"#utility.yul\":11829:11848   */\n      swap1\n      pop\n        /* \"#utility.yul\":11488:11854   */\n      swap2\n      swap1\n      pop\n      jump\t// out\n        /* \"#utility.yul\":11860:12279   */\n    tag_149:\n        /* \"#utility.yul\":12026:12030   */\n      0x00\n        /* \"#utility.yul\":12064:12066   */\n      0x20\n        /* \"#utility.yul\":12053:12062   */\n      dup3\n        /* \"#utility.yul\":12049:12067   */\n      add\n        /* \"#utility.yul\":12041:12067   */\n      swap1\n      pop\n        /* \"#utility.yul\":12113:12122   */\n      dup2\n        /* \"#utility.yul\":12107:12111   */\n      dup2\n        /* \"#utility.yul\":12103:12123   */\n      sub\n        /* \"#utility.yul\":12099:12100   */\n      0x00\n        /* \"#utility.yul\":12088:12097   */\n      dup4\n        /* \"#utility.yul\":12084:12101   */\n      add\n        /* \"#utility.yul\":12077:12124   */\n      mstore\n        /* \"#utility.yul\":12141:12272   */\n      tag_556\n        /* \"#utility.yul\":12267:12271   */\n      dup2\n        /* \"#utility.yul\":12141:12272   */\n      tag_390\n      jump\t// in\n    tag_556:\n        /* \"#utility.yul\":12133:12272   */\n      swap1\n      pop\n        /* \"#utility.yul\":11860:12279   */\n      swap2\n      swap1\n      pop\n      jump\t// out\n        /* \"#utility.yul\":12285:12465   */\n    tag_391:\n        /* \"#utility.yul\":12425:12457   */\n      0x4f776e65723a2063616c6c6572206973206e6f7420746865206f776e65720000\n        /* \"#utility.yul\":12421:12422   */\n      0x00\n        /* \"#utility.yul\":12413:12419   */\n      dup3\n        /* \"#utility.yul\":12409:12423   */\n      add\n        /* \"#utility.yul\":12402:12458   */\n      mstore\n        /* \"#utility.yul\":12285:12465   */\n      pop\n      jump\t// out\n        /* \"#utility.yul\":12471:12837   */\n    tag_392:\n        /* \"#utility.yul\":12613:12616   */\n      0x00\n        /* \"#utility.yul\":12634:12701   */\n      tag_559\n        /* \"#utility.yul\":12698:12700   */\n      0x1e\n        /* \"#utility.yul\":12693:12696   */\n      dup4\n        /* \"#utility.yul\":12634:12701   */\n      tag_377\n      jump\t// in\n    tag_559:\n        /* \"#utility.yul\":12627:12701   */\n      swap2\n      pop\n        /* \"#utility.yul\":12710:12803   */\n      tag_560\n        /* \"#utility.yul\":12799:12802   */\n      dup3\n        /* \"#utility.yul\":12710:12803   */\n      tag_391\n      jump\t// in\n    tag_560:\n        /* \"#utility.yul\":12828:12830   */\n      0x20\n        /* \"#utility.yul\":12823:12826   */\n      dup3\n        /* \"#utility.yul\":12819:12831   */\n      add\n        /* \"#utility.yul\":12812:12831   */\n      swap1\n      pop\n        /* \"#utility.yul\":12471:12837   */\n      swap2\n      swap1\n      pop\n      jump\t// out\n        /* \"#utility.yul\":12843:13262   */\n    tag_165:\n        /* \"#utility.yul\":13009:13013   */\n      0x00\n        /* \"#utility.yul\":13047:13049   */\n      0x20\n        /* \"#utility.yul\":13036:13045   */\n      dup3\n        /* \"#utility.yul\":13032:13050   */\n      add\n        /* \"#utility.yul\":13024:13050   */\n      swap1\n      pop\n        /* \"#utility.yul\":13096:13105   */\n      dup2\n        /* \"#utility.yul\":13090:13094   */\n      dup2\n        /* \"#utility.yul\":13086:13106   */\n      sub\n        /* \"#utility.yul\":13082:13083   */\n      0x00\n        /* \"#utility.yul\":13071:13080   */\n      dup4\n        /* \"#utility.yul\":13067:13084   */\n      add\n        /* \"#utility.yul\":13060:13107   */\n      mstore\n        /* \"#utility.yul\":13124:13255   */\n      tag_562\n        /* \"#utility.yul\":13250:13254   */\n      dup2\n        /* \"#utility.yul\":13124:13255   */\n      tag_392\n      jump\t// in\n    tag_562:\n        /* \"#utility.yul\":13116:13255   */\n      swap1\n      pop\n        /* \"#utility.yul\":12843:13262   */\n      swap2\n      swap1\n      pop\n      jump\t// out\n        /* \"#utility.yul\":13268:13435   */\n    tag_393:\n        /* \"#utility.yul\":13408:13427   */\n      0x496e76616c6964207461782076616c7565000000000000000000000000000000\n        /* \"#utility.yul\":13404:13405   */\n      0x00\n        /* \"#utility.yul\":13396:13402   */\n      dup3\n        /* \"#utility.yul\":13392:13406   */\n      add\n        /* \"#utility.yul\":13385:13428   */\n      mstore\n        /* \"#utility.yul\":13268:13435   */\n      pop\n      jump\t// out\n        /* \"#utility.yul\":13441:13807   */\n    tag_394:\n        /* \"#utility.yul\":13583:13586   */\n      0x00\n        /* \"#utility.yul\":13604:13671   */\n      tag_565\n        /* \"#utility.yul\":13668:13670   */\n      0x11\n        /* \"#utility.yul\":13663:13666   */\n      dup4\n        /* \"#utility.yul\":13604:13671   */\n      tag_377\n      jump\t// in\n    tag_565:\n        /* \"#utility.yul\":13597:13671   */\n      swap2\n      pop\n        /* \"#utility.yul\":13680:13773   */\n      tag_566\n        /* \"#utility.yul\":13769:13772   */\n      dup3\n        /* \"#utility.yul\":13680:13773   */\n      tag_393\n      jump\t// in\n    tag_566:\n        /* \"#utility.yul\":13798:13800   */\n      0x20\n        /* \"#utility.yul\":13793:13796   */\n      dup3\n        /* \"#utility.yul\":13789:13801   */\n      add\n        /* \"#utility.yul\":13782:13801   */\n      swap1\n      pop\n        /* \"#utility.yul\":13441:13807   */\n      swap2\n      swap1\n      pop\n      jump\t// out\n        /* \"#utility.yul\":13813:14232   */\n    tag_181:\n        /* \"#utility.yul\":13979:13983   */\n      0x00\n        /* \"#utility.yul\":14017:14019   */\n      0x20\n        /* \"#utility.yul\":14006:14015   */\n      dup3\n        /* \"#utility.yul\":14002:14020   */\n      add\n        /* \"#utility.yul\":13994:14020   */\n      swap1\n      pop\n        /* \"#utility.yul\":14066:14075   */\n      dup2\n        /* \"#utility.yul\":14060:14064   */\n      dup2\n        /* \"#utility.yul\":14056:14076   */\n      sub\n        /* \"#utility.yul\":14052:14053   */\n      0x00\n        /* \"#utility.yul\":14041:14050   */\n      dup4\n        /* \"#utility.yul\":14037:14054   */\n      add\n        /* \"#utility.yul\":14030:14077   */\n      mstore\n        /* \"#utility.yul\":14094:14225   */\n      tag_568\n        /* \"#utility.yul\":14220:14224   */\n      dup2\n        /* \"#utility.yul\":14094:14225   */\n      tag_394\n      jump\t// in\n    tag_568:\n        /* \"#utility.yul\":14086:14225   */\n      swap1\n      pop\n        /* \"#utility.yul\":13813:14232   */\n      swap2\n      swap1\n      pop\n      jump\t// out\n        /* \"#utility.yul\":14238:14403   */\n    tag_395:\n        /* \"#utility.yul\":14378:14395   */\n      0x4d617820313020646563696d616c730000000000000000000000000000000000\n        /* \"#utility.yul\":14374:14375   */\n      0x00\n        /* \"#utility.yul\":14366:14372   */\n      dup3\n        /* \"#utility.yul\":14362:14376   */\n      add\n        /* \"#utility.yul\":14355:14396   */\n      mstore\n        /* \"#utility.yul\":14238:14403   */\n      pop\n      jump\t// out\n        /* \"#utility.yul\":14409:14775   */\n    tag_396:\n        /* \"#utility.yul\":14551:14554   */\n      0x00\n        /* \"#utility.yul\":14572:14639   */\n      tag_571\n        /* \"#utility.yul\":14636:14638   */\n      0x0f\n        /* \"#utility.yul\":14631:14634   */\n      dup4\n        /* \"#utility.yul\":14572:14639   */\n      tag_377\n      jump\t// in\n    tag_571:\n        /* \"#utility.yul\":14565:14639   */\n      swap2\n      pop\n        /* \"#utility.yul\":14648:14741   */\n      tag_572\n        /* \"#utility.yul\":14737:14740   */\n      dup3\n        /* \"#utility.yul\":14648:14741   */\n      tag_395\n      jump\t// in\n    tag_572:\n        /* \"#utility.yul\":14766:14768   */\n      0x20\n        /* \"#utility.yul\":14761:14764   */\n      dup3\n        /* \"#utility.yul\":14757:14769   */\n      add\n        /* \"#utility.yul\":14750:14769   */\n      swap1\n      pop\n        /* \"#utility.yul\":14409:14775   */\n      swap2\n      swap1\n      pop\n      jump\t// out\n        /* \"#utility.yul\":14781:15200   */\n    tag_185:\n        /* \"#utility.yul\":14947:14951   */\n      0x00\n        /* \"#utility.yul\":14985:14987   */\n      0x20\n        /* \"#utility.yul\":14974:14983   */\n      dup3\n        /* \"#utility.yul\":14970:14988   */\n      add\n        /* \"#utility.yul\":14962:14988   */\n      swap1\n      pop\n        /* \"#utility.yul\":15034:15043   */\n      dup2\n        /* \"#utility.yul\":15028:15032   */\n      dup2\n        /* \"#utility.yul\":15024:15044   */\n      sub\n        /* \"#utility.yul\":15020:15021   */\n      0x00\n        /* \"#utility.yul\":15009:15018   */\n      dup4\n        /* \"#utility.yul\":15005:15022   */\n      add\n        /* \"#utility.yul\":14998:15045   */\n      mstore\n        /* \"#utility.yul\":15062:15193   */\n      tag_574\n        /* \"#utility.yul\":15188:15192   */\n      dup2\n        /* \"#utility.yul\":15062:15193   */\n      tag_396\n      jump\t// in\n    tag_574:\n        /* \"#utility.yul\":15054:15193   */\n      swap1\n      pop\n        /* \"#utility.yul\":14781:15200   */\n      swap2\n      swap1\n      pop\n      jump\t// out\n        /* \"#utility.yul\":15206:15426   */\n    tag_397:\n        /* \"#utility.yul\":15346:15380   */\n      0x41646472657373207a65726f206973206e6f7420612076616c6964206f776e65\n        /* \"#utility.yul\":15342:15343   */\n      0x00\n        /* \"#utility.yul\":15334:15340   */\n      dup3\n        /* \"#utility.yul\":15330:15344   */\n      add\n        /* \"#utility.yul\":15323:15381   */\n      mstore\n        /* \"#utility.yul\":15415:15418   */\n      0x7200000000000000000000000000000000000000000000000000000000000000\n        /* \"#utility.yul\":15410:15412   */\n      0x20\n        /* \"#utility.yul\":15402:15408   */\n      dup3\n        /* \"#utility.yul\":15398:15413   */\n      add\n        /* \"#utility.yul\":15391:15419   */\n      mstore\n        /* \"#utility.yul\":15206:15426   */\n      pop\n      jump\t// out\n        /* \"#utility.yul\":15432:15798   */\n    tag_398:\n        /* \"#utility.yul\":15574:15577   */\n      0x00\n        /* \"#utility.yul\":15595:15662   */\n      tag_577\n        /* \"#utility.yul\":15659:15661   */\n      0x21\n        /* \"#utility.yul\":15654:15657   */\n      dup4\n        /* \"#utility.yul\":15595:15662   */\n      tag_377\n      jump\t// in\n    tag_577:\n        /* \"#utility.yul\":15588:15662   */\n      swap2\n      pop\n        /* \"#utility.yul\":15671:15764   */\n      tag_578\n        /* \"#utility.yul\":15760:15763   */\n      dup3\n        /* \"#utility.yul\":15671:15764   */\n      tag_397\n      jump\t// in\n    tag_578:\n        /* \"#utility.yul\":15789:15791   */\n      0x40\n        /* \"#utility.yul\":15784:15787   */\n      dup3\n        /* \"#utility.yul\":15780:15792   */\n      add\n        /* \"#utility.yul\":15773:15792   */\n      swap1\n      pop\n        /* \"#utility.yul\":15432:15798   */\n      swap2\n      swap1\n      pop\n      jump\t// out\n        /* \"#utility.yul\":15804:16223   */\n    tag_193:\n        /* \"#utility.yul\":15970:15974   */\n      0x00\n        /* \"#utility.yul\":16008:16010   */\n      0x20\n        /* \"#utility.yul\":15997:16006   */\n      dup3\n        /* \"#utility.yul\":15993:16011   */\n      add\n        /* \"#utility.yul\":15985:16011   */\n      swap1\n      pop\n        /* \"#utility.yul\":16057:16066   */\n      dup2\n        /* \"#utility.yul\":16051:16055   */\n      dup2\n        /* \"#utility.yul\":16047:16067   */\n      sub\n        /* \"#utility.yul\":16043:16044   */\n      0x00\n        /* \"#utility.yul\":16032:16041   */\n      dup4\n        /* \"#utility.yul\":16028:16045   */\n      add\n        /* \"#utility.yul\":16021:16068   */\n      mstore\n        /* \"#utility.yul\":16085:16216   */\n      tag_580\n        /* \"#utility.yul\":16211:16215   */\n      dup2\n        /* \"#utility.yul\":16085:16216   */\n      tag_398\n      jump\t// in\n    tag_580:\n        /* \"#utility.yul\":16077:16216   */\n      swap1\n      pop\n        /* \"#utility.yul\":15804:16223   */\n      swap2\n      swap1\n      pop\n      jump\t// out\n        /* \"#utility.yul\":16229:16396   */\n    tag_399:\n        /* \"#utility.yul\":16369:16388   */\n      0x50726573616c6520697320616374697665000000000000000000000000000000\n        /* \"#utility.yul\":16365:16366   */\n      0x00\n        /* \"#utility.yul\":16357:16363   */\n      dup3\n        /* \"#utility.yul\":16353:16367   */\n      add\n        /* \"#utility.yul\":16346:16389   */\n      mstore\n        /* \"#utility.yul\":16229:16396   */\n      pop\n      jump\t// out\n        /* \"#utility.yul\":16402:16768   */\n    tag_400:\n        /* \"#utility.yul\":16544:16547   */\n      0x00\n        /* \"#utility.yul\":16565:16632   */\n      tag_583\n        /* \"#utility.yul\":16629:16631   */\n      0x11\n        /* \"#utility.yul\":16624:16627   */\n      dup4\n        /* \"#utility.yul\":16565:16632   */\n      tag_377\n      jump\t// in\n    tag_583:\n        /* \"#utility.yul\":16558:16632   */\n      swap2\n      pop\n        /* \"#utility.yul\":16641:16734   */\n      tag_584\n        /* \"#utility.yul\":16730:16733   */\n      dup3\n        /* \"#utility.yul\":16641:16734   */\n      tag_399\n      jump\t// in\n    tag_584:\n        /* \"#utility.yul\":16759:16761   */\n      0x20\n        /* \"#utility.yul\":16754:16757   */\n      dup3\n        /* \"#utility.yul\":16750:16762   */\n      add\n        /* \"#utility.yul\":16743:16762   */\n      swap1\n      pop\n        /* \"#utility.yul\":16402:16768   */\n      swap2\n      swap1\n      pop\n      jump\t// out\n        /* \"#utility.yul\":16774:17193   */\n    tag_210:\n        /* \"#utility.yul\":16940:16944   */\n      0x00\n        /* \"#utility.yul\":16978:16980   */\n      0x20\n        /* \"#utility.yul\":16967:16976   */\n      dup3\n        /* \"#utility.yul\":16963:16981   */\n      add\n        /* \"#utility.yul\":16955:16981   */\n      swap1\n      pop\n        /* \"#utility.yul\":17027:17036   */\n      dup2\n        /* \"#utility.yul\":17021:17025   */\n      dup2\n        /* \"#utility.yul\":17017:17037   */\n      sub\n        /* \"#utility.yul\":17013:17014   */\n      0x00\n        /* \"#utility.yul\":17002:17011   */\n      dup4\n        /* \"#utility.yul\":16998:17015   */\n      add\n        /* \"#utility.yul\":16991:17038   */\n      mstore\n        /* \"#utility.yul\":17055:17186   */\n      tag_586\n        /* \"#utility.yul\":17181:17185   */\n      dup2\n        /* \"#utility.yul\":17055:17186   */\n      tag_400\n      jump\t// in\n    tag_586:\n        /* \"#utility.yul\":17047:17186   */\n      swap1\n      pop\n        /* \"#utility.yul\":16774:17193   */\n      swap2\n      swap1\n      pop\n      jump\t// out\n        /* \"#utility.yul\":17199:17368   */\n    tag_401:\n        /* \"#utility.yul\":17339:17360   */\n      0x54726164696e672069732064697361626c656400000000000000000000000000\n        /* \"#utility.yul\":17335:17336   */\n      0x00\n        /* \"#utility.yul\":17327:17333   */\n      dup3\n        /* \"#utility.yul\":17323:17337   */\n      add\n        /* \"#utility.yul\":17316:17361   */\n      mstore\n        /* \"#utility.yul\":17199:17368   */\n      pop\n      jump\t// out\n        /* \"#utility.yul\":17374:17740   */\n    tag_402:\n        /* \"#utility.yul\":17516:17519   */\n      0x00\n        /* \"#utility.yul\":17537:17604   */\n      tag_589\n        /* \"#utility.yul\":17601:17603   */\n      0x13\n        /* \"#utility.yul\":17596:17599   */\n      dup4\n        /* \"#utility.yul\":17537:17604   */\n      tag_377\n      jump\t// in\n    tag_589:\n        /* \"#utility.yul\":17530:17604   */\n      swap2\n      pop\n        /* \"#utility.yul\":17613:17706   */\n      tag_590\n        /* \"#utility.yul\":17702:17705   */\n      dup3\n        /* \"#utility.yul\":17613:17706   */\n      tag_401\n      jump\t// in\n    tag_590:\n        /* \"#utility.yul\":17731:17733   */\n      0x20\n        /* \"#utility.yul\":17726:17729   */\n      dup3\n        /* \"#utility.yul\":17722:17734   */\n      add\n        /* \"#utility.yul\":17715:17734   */\n      swap1\n      pop\n        /* \"#utility.yul\":17374:17740   */\n      swap2\n      swap1\n      pop\n      jump\t// out\n        /* \"#utility.yul\":17746:18165   */\n    tag_213:\n        /* \"#utility.yul\":17912:17916   */\n      0x00\n        /* \"#utility.yul\":17950:17952   */\n      0x20\n        /* \"#utility.yul\":17939:17948   */\n      dup3\n        /* \"#utility.yul\":17935:17953   */\n      add\n        /* \"#utility.yul\":17927:17953   */\n      swap1\n      pop\n        /* \"#utility.yul\":17999:18008   */\n      dup2\n        /* \"#utility.yul\":17993:17997   */\n      dup2\n        /* \"#utility.yul\":17989:18009   */\n      sub\n        /* \"#utility.yul\":17985:17986   */\n      0x00\n        /* \"#utility.yul\":17974:17983   */\n      dup4\n        /* \"#utility.yul\":17970:17987   */\n      add\n        /* \"#utility.yul\":17963:18010   */\n      mstore\n        /* \"#utility.yul\":18027:18158   */\n      tag_592\n        /* \"#utility.yul\":18153:18157   */\n      dup2\n        /* \"#utility.yul\":18027:18158   */\n      tag_402\n      jump\t// in\n    tag_592:\n        /* \"#utility.yul\":18019:18158   */\n      swap1\n      pop\n        /* \"#utility.yul\":17746:18165   */\n      swap2\n      swap1\n      pop\n      jump\t// out\n        /* \"#utility.yul\":18171:18352   */\n    tag_403:\n        /* \"#utility.yul\":18311:18344   */\n      0x5072696365206d7573742062652067726561746572207468616e207a65726f00\n        /* \"#utility.yul\":18307:18308   */\n      0x00\n        /* \"#utility.yul\":18299:18305   */\n      dup3\n        /* \"#utility.yul\":18295:18309   */\n      add\n        /* \"#utility.yul\":18288:18345   */\n      mstore\n        /* \"#utility.yul\":18171:18352   */\n      pop\n      jump\t// out\n        /* \"#utility.yul\":18358:18724   */\n    tag_404:\n        /* \"#utility.yul\":18500:18503   */\n      0x00\n        /* \"#utility.yul\":18521:18588   */\n      tag_595\n        /* \"#utility.yul\":18585:18587   */\n      0x1f\n        /* \"#utility.yul\":18580:18583   */\n      dup4\n        /* \"#utility.yul\":18521:18588   */\n      tag_377\n      jump\t// in\n    tag_595:\n        /* \"#utility.yul\":18514:18588   */\n      swap2\n      pop\n        /* \"#utility.yul\":18597:18690   */\n      tag_596\n        /* \"#utility.yul\":18686:18689   */\n      dup3\n        /* \"#utility.yul\":18597:18690   */\n      tag_403\n      jump\t// in\n    tag_596:\n        /* \"#utility.yul\":18715:18717   */\n      0x20\n        /* \"#utility.yul\":18710:18713   */\n      dup3\n        /* \"#utility.yul\":18706:18718   */\n      add\n        /* \"#utility.yul\":18699:18718   */\n      swap1\n      pop\n        /* \"#utility.yul\":18358:18724   */\n      swap2\n      swap1\n      pop\n      jump\t// out\n        /* \"#utility.yul\":18730:19149   */\n    tag_220:\n        /* \"#utility.yul\":18896:18900   */\n      0x00\n        /* \"#utility.yul\":18934:18936   */\n      0x20\n        /* \"#utility.yul\":18923:18932   */\n      dup3\n        /* \"#utility.yul\":18919:18937   */\n      add\n        /* \"#utility.yul\":18911:18937   */\n      swap1\n      pop\n        /* \"#utility.yul\":18983:18992   */\n      dup2\n        /* \"#utility.yul\":18977:18981   */\n      dup2\n        /* \"#utility.yul\":18973:18993   */\n      sub\n        /* \"#utility.yul\":18969:18970   */\n      0x00\n        /* \"#utility.yul\":18958:18967   */\n      dup4\n        /* \"#utility.yul\":18954:18971   */\n      add\n        /* \"#utility.yul\":18947:18994   */\n      mstore\n        /* \"#utility.yul\":19011:19142   */\n      tag_598\n        /* \"#utility.yul\":19137:19141   */\n      dup2\n        /* \"#utility.yul\":19011:19142   */\n      tag_404\n      jump\t// in\n    tag_598:\n        /* \"#utility.yul\":19003:19142   */\n      swap1\n      pop\n        /* \"#utility.yul\":18730:19149   */\n      swap2\n      swap1\n      pop\n      jump\t// out\n        /* \"#utility.yul\":19155:19321   */\n    tag_405:\n        /* \"#utility.yul\":19295:19313   */\n      0x416c726561647920666f722073616c6500000000000000000000000000000000\n        /* \"#utility.yul\":19291:19292   */\n      0x00\n        /* \"#utility.yul\":19283:19289   */\n      dup3\n        /* \"#utility.yul\":19279:19293   */\n      add\n        /* \"#utility.yul\":19272:19314   */\n      mstore\n        /* \"#utility.yul\":19155:19321   */\n      pop\n      jump\t// out\n        /* \"#utility.yul\":19327:19693   */\n    tag_406:\n        /* \"#utility.yul\":19469:19472   */\n      0x00\n        /* \"#utility.yul\":19490:19557   */\n      tag_601\n        /* \"#utility.yul\":19554:19556   */\n      0x10\n        /* \"#utility.yul\":19549:19552   */\n      dup4\n        /* \"#utility.yul\":19490:19557   */\n      tag_377\n      jump\t// in\n    tag_601:\n        /* \"#utility.yul\":19483:19557   */\n      swap2\n      pop\n        /* \"#utility.yul\":19566:19659   */\n      tag_602\n        /* \"#utility.yul\":19655:19658   */\n      dup3\n        /* \"#utility.yul\":19566:19659   */\n      tag_405\n      jump\t// in\n    tag_602:\n        /* \"#utility.yul\":19684:19686   */\n      0x20\n        /* \"#utility.yul\":19679:19682   */\n      dup3\n        /* \"#utility.yul\":19675:19687   */\n      add\n        /* \"#utility.yul\":19668:19687   */\n      swap1\n      pop\n        /* \"#utility.yul\":19327:19693   */\n      swap2\n      swap1\n      pop\n      jump\t// out\n        /* \"#utility.yul\":19699:20118   */\n    tag_224:\n        /* \"#utility.yul\":19865:19869   */\n      0x00\n        /* \"#utility.yul\":19903:19905   */\n      0x20\n        /* \"#utility.yul\":19892:19901   */\n      dup3\n        /* \"#utility.yul\":19888:19906   */\n      add\n        /* \"#utility.yul\":19880:19906   */\n      swap1\n      pop\n        /* \"#utility.yul\":19952:19961   */\n      dup2\n        /* \"#utility.yul\":19946:19950   */\n      dup2\n        /* \"#utility.yul\":19942:19962   */\n      sub\n        /* \"#utility.yul\":19938:19939   */\n      0x00\n        /* \"#utility.yul\":19927:19936   */\n      dup4\n        /* \"#utility.yul\":19923:19940   */\n      add\n        /* \"#utility.yul\":19916:19963   */\n      mstore\n        /* \"#utility.yul\":19980:20111   */\n      tag_604\n        /* \"#utility.yul\":20106:20110   */\n      dup2\n        /* \"#utility.yul\":19980:20111   */\n      tag_406\n      jump\t// in\n    tag_604:\n        /* \"#utility.yul\":19972:20111   */\n      swap1\n      pop\n        /* \"#utility.yul\":19699:20118   */\n      swap2\n      swap1\n      pop\n      jump\t// out\n        /* \"#utility.yul\":20124:20302   */\n    tag_407:\n        /* \"#utility.yul\":20264:20294   */\n      0x5472616e736665722063616c6c6572206973206e6f74206f776e657200000000\n        /* \"#utility.yul\":20260:20261   */\n      0x00\n        /* \"#utility.yul\":20252:20258   */\n      dup3\n        /* \"#utility.yul\":20248:20262   */\n      add\n        /* \"#utility.yul\":20241:20295   */\n      mstore\n        /* \"#utility.yul\":20124:20302   */\n      pop\n      jump\t// out\n        /* \"#utility.yul\":20308:20674   */\n    tag_408:\n        /* \"#utility.yul\":20450:20453   */\n      0x00\n        /* \"#utility.yul\":20471:20538   */\n      tag_607\n        /* \"#utility.yul\":20535:20537   */\n      0x1c\n        /* \"#utility.yul\":20530:20533   */\n      dup4\n        /* \"#utility.yul\":20471:20538   */\n      tag_377\n      jump\t// in\n    tag_607:\n        /* \"#utility.yul\":20464:20538   */\n      swap2\n      pop\n        /* \"#utility.yul\":20547:20640   */\n      tag_608\n        /* \"#utility.yul\":20636:20639   */\n      dup3\n        /* \"#utility.yul\":20547:20640   */\n      tag_407\n      jump\t// in\n    tag_608:\n        /* \"#utility.yul\":20665:20667   */\n      0x20\n        /* \"#utility.yul\":20660:20663   */\n      dup3\n        /* \"#utility.yul\":20656:20668   */\n      add\n        /* \"#utility.yul\":20649:20668   */\n      swap1\n      pop\n        /* \"#utility.yul\":20308:20674   */\n      swap2\n      swap1\n      pop\n      jump\t// out\n        /* \"#utility.yul\":20680:21099   */\n    tag_242:\n        /* \"#utility.yul\":20846:20850   */\n      0x00\n        /* \"#utility.yul\":20884:20886   */\n      0x20\n        /* \"#utility.yul\":20873:20882   */\n      dup3\n        /* \"#utility.yul\":20869:20887   */\n      add\n        /* \"#utility.yul\":20861:20887   */\n      swap1\n      pop\n        /* \"#utility.yul\":20933:20942   */\n      dup2\n        /* \"#utility.yul\":20927:20931   */\n      dup2\n        /* \"#utility.yul\":20923:20943   */\n      sub\n        /* \"#utility.yul\":20919:20920   */\n      0x00\n        /* \"#utility.yul\":20908:20917   */\n      dup4\n        /* \"#utility.yul\":20904:20921   */\n      add\n        /* \"#utility.yul\":20897:20944   */\n      mstore\n        /* \"#utility.yul\":20961:21092   */\n      tag_610\n        /* \"#utility.yul\":21087:21091   */\n      dup2\n        /* \"#utility.yul\":20961:21092   */\n      tag_408\n      jump\t// in\n    tag_610:\n        /* \"#utility.yul\":20953:21092   */\n      swap1\n      pop\n        /* \"#utility.yul\":20680:21099   */\n      swap2\n      swap1\n      pop\n      jump\t// out\n        /* \"#utility.yul\":21105:21283   */\n    tag_409:\n        /* \"#utility.yul\":21245:21275   */\n      0x5472616e7366657220746f20746865207a65726f206164647265737300000000\n        /* \"#utility.yul\":21241:21242   */\n      0x00\n        /* \"#utility.yul\":21233:21239   */\n      dup3\n        /* \"#utility.yul\":21229:21243   */\n      add\n        /* \"#utility.yul\":21222:21276   */\n      mstore\n        /* \"#utility.yul\":21105:21283   */\n      pop\n      jump\t// out\n        /* \"#utility.yul\":21289:21655   */\n    tag_410:\n        /* \"#utility.yul\":21431:21434   */\n      0x00\n        /* \"#utility.yul\":21452:21519   */\n      tag_613\n        /* \"#utility.yul\":21516:21518   */\n      0x1c\n        /* \"#utility.yul\":21511:21514   */\n      dup4\n        /* \"#utility.yul\":21452:21519   */\n      tag_377\n      jump\t// in\n    tag_613:\n        /* \"#utility.yul\":21445:21519   */\n      swap2\n      pop\n        /* \"#utility.yul\":21528:21621   */\n      tag_614\n        /* \"#utility.yul\":21617:21620   */\n      dup3\n        /* \"#utility.yul\":21528:21621   */\n      tag_409\n      jump\t// in\n    tag_614:\n        /* \"#utility.yul\":21646:21648   */\n      0x20\n        /* \"#utility.yul\":21641:21644   */\n      dup3\n        /* \"#utility.yul\":21637:21649   */\n      add\n        /* \"#utility.yul\":21630:21649   */\n      swap1\n      pop\n        /* \"#utility.yul\":21289:21655   */\n      swap2\n      swap1\n      pop\n      jump\t// out\n        /* \"#utility.yul\":21661:22080   */\n    tag_245:\n        /* \"#utility.yul\":21827:21831   */\n      0x00\n        /* \"#utility.yul\":21865:21867   */\n      0x20\n        /* \"#utility.yul\":21854:21863   */\n      dup3\n        /* \"#utility.yul\":21850:21868   */\n      add\n        /* \"#utility.yul\":21842:21868   */\n      swap1\n      pop\n        /* \"#utility.yul\":21914:21923   */\n      dup2\n        /* \"#utility.yul\":21908:21912   */\n      dup2\n        /* \"#utility.yul\":21904:21924   */\n      sub\n        /* \"#utility.yul\":21900:21901   */\n      0x00\n        /* \"#utility.yul\":21889:21898   */\n      dup4\n        /* \"#utility.yul\":21885:21902   */\n      add\n        /* \"#utility.yul\":21878:21925   */\n      mstore\n        /* \"#utility.yul\":21942:22073   */\n      tag_616\n        /* \"#utility.yul\":22068:22072   */\n      dup2\n        /* \"#utility.yul\":21942:22073   */\n      tag_410\n      jump\t// in\n    tag_616:\n        /* \"#utility.yul\":21934:22073   */\n      swap1\n      pop\n        /* \"#utility.yul\":21661:22080   */\n      swap2\n      swap1\n      pop\n      jump\t// out\n        /* \"#utility.yul\":22086:22266   */\n    tag_411:\n        /* \"#utility.yul\":22134:22211   */\n      0x4e487b7100000000000000000000000000000000000000000000000000000000\n        /* \"#utility.yul\":22131:22132   */\n      0x00\n        /* \"#utility.yul\":22124:22212   */\n      mstore\n        /* \"#utility.yul\":22231:22235   */\n      0x11\n        /* \"#utility.yul\":22228:22229   */\n      0x04\n        /* \"#utility.yul\":22221:22236   */\n      mstore\n        /* \"#utility.yul\":22255:22259   */\n      0x24\n        /* \"#utility.yul\":22252:22253   */\n      0x00\n        /* \"#utility.yul\":22245:22260   */\n      revert\n        /* \"#utility.yul\":22272:22466   */\n    tag_250:\n        /* \"#utility.yul\":22312:22316   */\n      0x00\n        /* \"#utility.yul\":22332:22352   */\n      tag_619\n        /* \"#utility.yul\":22350:22351   */\n      dup3\n        /* \"#utility.yul\":22332:22352   */\n      tag_365\n      jump\t// in\n    tag_619:\n        /* \"#utility.yul\":22327:22352   */\n      swap2\n      pop\n        /* \"#utility.yul\":22366:22386   */\n      tag_620\n        /* \"#utility.yul\":22384:22385   */\n      dup4\n        /* \"#utility.yul\":22366:22386   */\n      tag_365\n      jump\t// in\n    tag_620:\n        /* \"#utility.yul\":22361:22386   */\n      swap3\n      pop\n        /* \"#utility.yul\":22410:22411   */\n      dup3\n        /* \"#utility.yul\":22407:22408   */\n      dup3\n        /* \"#utility.yul\":22403:22412   */\n      sub\n        /* \"#utility.yul\":22395:22412   */\n      swap1\n      pop\n        /* \"#utility.yul\":22434:22435   */\n      dup2\n        /* \"#utility.yul\":22428:22432   */\n      dup2\n        /* \"#utility.yul\":22425:22436   */\n      gt\n        /* \"#utility.yul\":22422:22459   */\n      iszero\n      tag_621\n      jumpi\n        /* \"#utility.yul\":22439:22457   */\n      tag_622\n      tag_411\n      jump\t// in\n    tag_622:\n        /* \"#utility.yul\":22422:22459   */\n    tag_621:\n        /* \"#utility.yul\":22272:22466   */\n      swap3\n      swap2\n      pop\n      pop\n      jump\t// out\n        /* \"#utility.yul\":22472:22663   */\n    tag_252:\n        /* \"#utility.yul\":22512:22515   */\n      0x00\n        /* \"#utility.yul\":22531:22551   */\n      tag_624\n        /* \"#utility.yul\":22549:22550   */\n      dup3\n        /* \"#utility.yul\":22531:22551   */\n      tag_365\n      jump\t// in\n    tag_624:\n        /* \"#utility.yul\":22526:22551   */\n      swap2\n      pop\n        /* \"#utility.yul\":22565:22585   */\n      tag_625\n        /* \"#utility.yul\":22583:22584   */\n      dup4\n        /* \"#utility.yul\":22565:22585   */\n      tag_365\n      jump\t// in\n    tag_625:\n        /* \"#utility.yul\":22560:22585   */\n      swap3\n      pop\n        /* \"#utility.yul\":22608:22609   */\n      dup3\n        /* \"#utility.yul\":22605:22606   */\n      dup3\n        /* \"#utility.yul\":22601:22610   */\n      add\n        /* \"#utility.yul\":22594:22610   */\n      swap1\n      pop\n        /* \"#utility.yul\":22629:22632   */\n      dup1\n        /* \"#utility.yul\":22626:22627   */\n      dup3\n        /* \"#utility.yul\":22623:22633   */\n      gt\n        /* \"#utility.yul\":22620:22656   */\n      iszero\n      tag_626\n      jumpi\n        /* \"#utility.yul\":22636:22654   */\n      tag_627\n      tag_411\n      jump\t// in\n    tag_627:\n        /* \"#utility.yul\":22620:22656   */\n    tag_626:\n        /* \"#utility.yul\":22472:22663   */\n      swap3\n      swap2\n      pop\n      pop\n      jump\t// out\n        /* \"#utility.yul\":22669:22849   */\n    tag_412:\n        /* \"#utility.yul\":22717:22794   */\n      0x4e487b7100000000000000000000000000000000000000000000000000000000\n        /* \"#utility.yul\":22714:22715   */\n      0x00\n        /* \"#utility.yul\":22707:22795   */\n      mstore\n        /* \"#utility.yul\":22814:22818   */\n      0x22\n        /* \"#utility.yul\":22811:22812   */\n      0x04\n        /* \"#utility.yul\":22804:22819   */\n      mstore\n        /* \"#utility.yul\":22838:22842   */\n      0x24\n        /* \"#utility.yul\":22835:22836   */\n      0x00\n        /* \"#utility.yul\":22828:22843   */\n      revert\n        /* \"#utility.yul\":22855:23175   */\n    tag_257:\n        /* \"#utility.yul\":22899:22905   */\n      0x00\n        /* \"#utility.yul\":22936:22937   */\n      0x02\n        /* \"#utility.yul\":22930:22934   */\n      dup3\n        /* \"#utility.yul\":22926:22938   */\n      div\n        /* \"#utility.yul\":22916:22938   */\n      swap1\n      pop\n        /* \"#utility.yul\":22983:22984   */\n      0x01\n        /* \"#utility.yul\":22977:22981   */\n      dup3\n        /* \"#utility.yul\":22973:22985   */\n      and\n        /* \"#utility.yul\":23004:23022   */\n      dup1\n        /* \"#utility.yul\":22994:23075   */\n      tag_630\n      jumpi\n        /* \"#utility.yul\":23060:23064   */\n      0x7f\n        /* \"#utility.yul\":23052:23058   */\n      dup3\n        /* \"#utility.yul\":23048:23065   */\n      and\n        /* \"#utility.yul\":23038:23065   */\n      swap2\n      pop\n        /* \"#utility.yul\":22994:23075   */\n    tag_630:\n        /* \"#utility.yul\":23122:23124   */\n      0x20\n        /* \"#utility.yul\":23114:23120   */\n      dup3\n        /* \"#utility.yul\":23111:23125   */\n      lt\n        /* \"#utility.yul\":23091:23109   */\n      dup2\n        /* \"#utility.yul\":23088:23126   */\n      sub\n        /* \"#utility.yul\":23085:23169   */\n      tag_631\n      jumpi\n        /* \"#utility.yul\":23141:23159   */\n      tag_632\n      tag_412\n      jump\t// in\n    tag_632:\n        /* \"#utility.yul\":23085:23169   */\n    tag_631:\n        /* \"#utility.yul\":22906:23175   */\n      pop\n        /* \"#utility.yul\":22855:23175   */\n      swap2\n      swap1\n      pop\n      jump\t// out\n        /* \"#utility.yul\":23181:23346   */\n    tag_413:\n        /* \"#utility.yul\":23321:23338   */\n      0x5469636b657420736f6c64206f75740000000000000000000000000000000000\n        /* \"#utility.yul\":23317:23318   */\n      0x00\n        /* \"#utility.yul\":23309:23315   */\n      dup3\n        /* \"#utility.yul\":23305:23319   */\n      add\n        /* \"#utility.yul\":23298:23339   */\n      mstore\n        /* \"#utility.yul\":23181:23346   */\n      pop\n      jump\t// out\n        /* \"#utility.yul\":23352:23718   */\n    tag_414:\n        /* \"#utility.yul\":23494:23497   */\n      0x00\n        /* \"#utility.yul\":23515:23582   */\n      tag_635\n        /* \"#utility.yul\":23579:23581   */\n      0x0f\n        /* \"#utility.yul\":23574:23577   */\n      dup4\n        /* \"#utility.yul\":23515:23582   */\n      tag_377\n      jump\t// in\n    tag_635:\n        /* \"#utility.yul\":23508:23582   */\n      swap2\n      pop\n        /* \"#utility.yul\":23591:23684   */\n      tag_636\n        /* \"#utility.yul\":23680:23683   */\n      dup3\n        /* \"#utility.yul\":23591:23684   */\n      tag_413\n      jump\t// in\n    tag_636:\n        /* \"#utility.yul\":23709:23711   */\n      0x20\n        /* \"#utility.yul\":23704:23707   */\n      dup3\n        /* \"#utility.yul\":23700:23712   */\n      add\n        /* \"#utility.yul\":23693:23712   */\n      swap1\n      pop\n        /* \"#utility.yul\":23352:23718   */\n      swap2\n      swap1\n      pop\n      jump\t// out\n        /* \"#utility.yul\":23724:24143   */\n    tag_274:\n        /* \"#utility.yul\":23890:23894   */\n      0x00\n        /* \"#utility.yul\":23928:23930   */\n      0x20\n        /* \"#utility.yul\":23917:23926   */\n      dup3\n        /* \"#utility.yul\":23913:23931   */\n      add\n        /* \"#utility.yul\":23905:23931   */\n      swap1\n      pop\n        /* \"#utility.yul\":23977:23986   */\n      dup2\n        /* \"#utility.yul\":23971:23975   */\n      dup2\n        /* \"#utility.yul\":23967:23987   */\n      sub\n        /* \"#utility.yul\":23963:23964   */\n      0x00\n        /* \"#utility.yul\":23952:23961   */\n      dup4\n        /* \"#utility.yul\":23948:23965   */\n      add\n        /* \"#utility.yul\":23941:23988   */\n      mstore\n        /* \"#utility.yul\":24005:24136   */\n      tag_638\n        /* \"#utility.yul\":24131:24135   */\n      dup2\n        /* \"#utility.yul\":24005:24136   */\n      tag_414\n      jump\t// in\n    tag_638:\n        /* \"#utility.yul\":23997:24136   */\n      swap1\n      pop\n        /* \"#utility.yul\":23724:24143   */\n      swap2\n      swap1\n      pop\n      jump\t// out\n        /* \"#utility.yul\":24149:24326   */\n    tag_415:\n        /* \"#utility.yul\":24289:24318   */\n      0x596f7520616c7265616479206f776e2074686973207469636b65740000000000\n        /* \"#utility.yul\":24285:24286   */\n      0x00\n        /* \"#utility.yul\":24277:24283   */\n      dup3\n        /* \"#utility.yul\":24273:24287   */\n      add\n        /* \"#utility.yul\":24266:24319   */\n      mstore\n        /* \"#utility.yul\":24149:24326   */\n      pop\n      jump\t// out\n        /* \"#utility.yul\":24332:24698   */\n    tag_416:\n        /* \"#utility.yul\":24474:24477   */\n      0x00\n        /* \"#utility.yul\":24495:24562   */\n      tag_641\n        /* \"#utility.yul\":24559:24561   */\n      0x1b\n        /* \"#utility.yul\":24554:24557   */\n      dup4\n        /* \"#utility.yul\":24495:24562   */\n      tag_377\n      jump\t// in\n    tag_641:\n        /* \"#utility.yul\":24488:24562   */\n      swap2\n      pop\n        /* \"#utility.yul\":24571:24664   */\n      tag_642\n        /* \"#utility.yul\":24660:24663   */\n      dup3\n        /* \"#utility.yul\":24571:24664   */\n      tag_415\n      jump\t// in\n    tag_642:\n        /* \"#utility.yul\":24689:24691   */\n      0x20\n        /* \"#utility.yul\":24684:24687   */\n      dup3\n        /* \"#utility.yul\":24680:24692   */\n      add\n        /* \"#utility.yul\":24673:24692   */\n      swap1\n      pop\n        /* \"#utility.yul\":24332:24698   */\n      swap2\n      swap1\n      pop\n      jump\t// out\n        /* \"#utility.yul\":24704:25123   */\n    tag_279:\n        /* \"#utility.yul\":24870:24874   */\n      0x00\n        /* \"#utility.yul\":24908:24910   */\n      0x20\n        /* \"#utility.yul\":24897:24906   */\n      dup3\n        /* \"#utility.yul\":24893:24911   */\n      add\n        /* \"#utility.yul\":24885:24911   */\n      swap1\n      pop\n        /* \"#utility.yul\":24957:24966   */\n      dup2\n        /* \"#utility.yul\":24951:24955   */\n      dup2\n        /* \"#utility.yul\":24947:24967   */\n      sub\n        /* \"#utility.yul\":24943:24944   */\n      0x00\n        /* \"#utility.yul\":24932:24941   */\n      dup4\n        /* \"#utility.yul\":24928:24945   */\n      add\n        /* \"#utility.yul\":24921:24968   */\n      mstore\n        /* \"#utility.yul\":24985:25116   */\n      tag_644\n        /* \"#utility.yul\":25111:25115   */\n      dup2\n        /* \"#utility.yul\":24985:25116   */\n      tag_416\n      jump\t// in\n    tag_644:\n        /* \"#utility.yul\":24977:25116   */\n      swap1\n      pop\n        /* \"#utility.yul\":24704:25123   */\n      swap2\n      swap1\n      pop\n      jump\t// out\n        /* \"#utility.yul\":25129:25299   */\n    tag_417:\n        /* \"#utility.yul\":25269:25291   */\n      0x5469636b6574206e6f7420617661696c61626c65000000000000000000000000\n        /* \"#utility.yul\":25265:25266   */\n      0x00\n        /* \"#utility.yul\":25257:25263   */\n      dup3\n        /* \"#utility.yul\":25253:25267   */\n      add\n        /* \"#utility.yul\":25246:25292   */\n      mstore\n        /* \"#utility.yul\":25129:25299   */\n      pop\n      jump\t// out\n        /* \"#utility.yul\":25305:25671   */\n    tag_418:\n        /* \"#utility.yul\":25447:25450   */\n      0x00\n        /* \"#utility.yul\":25468:25535   */\n      tag_647\n        /* \"#utility.yul\":25532:25534   */\n      0x14\n        /* \"#utility.yul\":25527:25530   */\n      dup4\n        /* \"#utility.yul\":25468:25535   */\n      tag_377\n      jump\t// in\n    tag_647:\n        /* \"#utility.yul\":25461:25535   */\n      swap2\n      pop\n        /* \"#utility.yul\":25544:25637   */\n      tag_648\n        /* \"#utility.yul\":25633:25636   */\n      dup3\n        /* \"#utility.yul\":25544:25637   */\n      tag_417\n      jump\t// in\n    tag_648:\n        /* \"#utility.yul\":25662:25664   */\n      0x20\n        /* \"#utility.yul\":25657:25660   */\n      dup3\n        /* \"#utility.yul\":25653:25665   */\n      add\n        /* \"#utility.yul\":25646:25665   */\n      swap1\n      pop\n        /* \"#utility.yul\":25305:25671   */\n      swap2\n      swap1\n      pop\n      jump\t// out\n        /* \"#utility.yul\":25677:26096   */\n    tag_295:\n        /* \"#utility.yul\":25843:25847   */\n      0x00\n        /* \"#utility.yul\":25881:25883   */\n      0x20\n        /* \"#utility.yul\":25870:25879   */\n      dup3\n        /* \"#utility.yul\":25866:25884   */\n      add\n        /* \"#utility.yul\":25858:25884   */\n      swap1\n      pop\n        /* \"#utility.yul\":25930:25939   */\n      dup2\n        /* \"#utility.yul\":25924:25928   */\n      dup2\n        /* \"#utility.yul\":25920:25940   */\n      sub\n        /* \"#utility.yul\":25916:25917   */\n      0x00\n        /* \"#utility.yul\":25905:25914   */\n      dup4\n        /* \"#utility.yul\":25901:25918   */\n      add\n        /* \"#utility.yul\":25894:25941   */\n      mstore\n        /* \"#utility.yul\":25958:26089   */\n      tag_650\n        /* \"#utility.yul\":26084:26088   */\n      dup2\n        /* \"#utility.yul\":25958:26089   */\n      tag_418\n      jump\t// in\n    tag_650:\n        /* \"#utility.yul\":25950:26089   */\n      swap1\n      pop\n        /* \"#utility.yul\":25677:26096   */\n      swap2\n      swap1\n      pop\n      jump\t// out\n        /* \"#utility.yul\":26102:26335   */\n    tag_302:\n        /* \"#utility.yul\":26141:26144   */\n      0x00\n        /* \"#utility.yul\":26164:26188   */\n      tag_652\n        /* \"#utility.yul\":26182:26187   */\n      dup3\n        /* \"#utility.yul\":26164:26188   */\n      tag_365\n      jump\t// in\n    tag_652:\n        /* \"#utility.yul\":26155:26188   */\n      swap2\n      pop\n        /* \"#utility.yul\":26210:26276   */\n      0xffffffffffffffffffffffffffffffffffffffffffffffffffffffffffffffff\n        /* \"#utility.yul\":26203:26208   */\n      dup3\n        /* \"#utility.yul\":26200:26277   */\n      sub\n        /* \"#utility.yul\":26197:26300   */\n      tag_653\n      jumpi\n        /* \"#utility.yul\":26280:26298   */\n      tag_654\n      tag_411\n      jump\t// in\n    tag_654:\n        /* \"#utility.yul\":26197:26300   */\n    tag_653:\n        /* \"#utility.yul\":26327:26328   */\n      0x01\n        /* \"#utility.yul\":26320:26325   */\n      dup3\n        /* \"#utility.yul\":26316:26329   */\n      add\n        /* \"#utility.yul\":26309:26329   */\n      swap1\n      pop\n        /* \"#utility.yul\":26102:26335   */\n      swap2\n      swap1\n      pop\n      jump\t// out\n        /* \"#utility.yul\":26341:26566   */\n    tag_419:\n        /* \"#utility.yul\":26481:26515   */\n      0x4f776e61626c653a206e6577206f776e657220697320746865207a65726f2061\n        /* \"#utility.yul\":26477:26478   */\n      0x00\n        /* \"#utility.yul\":26469:26475   */\n      dup3\n        /* \"#utility.yul\":26465:26479   */\n      add\n        /* \"#utility.yul\":26458:26516   */\n      mstore\n        /* \"#utility.yul\":26550:26558   */\n      0x6464726573730000000000000000000000000000000000000000000000000000\n        /* \"#utility.yul\":26545:26547   */\n      0x20\n        /* \"#utility.yul\":26537:26543   */\n      dup3\n        /* \"#utility.yul\":26533:26548   */\n      add\n        /* \"#utility.yul\":26526:26559   */\n      mstore\n        /* \"#utility.yul\":26341:26566   */\n      pop\n      jump\t// out\n        /* \"#utility.yul\":26572:26938   */\n    tag_420:\n        /* \"#utility.yul\":26714:26717   */\n      0x00\n        /* \"#utility.yul\":26735:26802   */\n      tag_657\n        /* \"#utility.yul\":26799:26801   */\n      0x26\n        /* \"#utility.yul\":26794:26797   */\n      dup4\n        /* \"#utility.yul\":26735:26802   */\n      tag_377\n      jump\t// in\n    tag_657:\n        /* \"#utility.yul\":26728:26802   */\n      swap2\n      pop\n        /* \"#utility.yul\":26811:26904   */\n      tag_658\n        /* \"#utility.yul\":26900:26903   */\n      dup3\n        /* \"#utility.yul\":26811:26904   */\n      tag_419\n      jump\t// in\n    tag_658:\n        /* \"#utility.yul\":26929:26931   */\n      0x40\n        /* \"#utility.yul\":26924:26927   */\n      dup3\n        /* \"#utility.yul\":26920:26932   */\n      add\n        /* \"#utility.yul\":26913:26932   */\n      swap1\n      pop\n        /* \"#utility.yul\":26572:26938   */\n      swap2\n      swap1\n      pop\n      jump\t// out\n        /* \"#utility.yul\":26944:27363   */\n    tag_315:\n        /* \"#utility.yul\":27110:27114   */\n      0x00\n        /* \"#utility.yul\":27148:27150   */\n      0x20\n        /* \"#utility.yul\":27137:27146   */\n      dup3\n        /* \"#utility.yul\":27133:27151   */\n      add\n        /* \"#utility.yul\":27125:27151   */\n      swap1\n      pop\n        /* \"#utility.yul\":27197:27206   */\n      dup2\n        /* \"#utility.yul\":27191:27195   */\n      dup2\n        /* \"#utility.yul\":27187:27207   */\n      sub\n        /* \"#utility.yul\":27183:27184   */\n      0x00\n        /* \"#utility.yul\":27172:27181   */\n      dup4\n        /* \"#utility.yul\":27168:27185   */\n      add\n        /* \"#utility.yul\":27161:27208   */\n      mstore\n        /* \"#utility.yul\":27225:27356   */\n      tag_660\n        /* \"#utility.yul\":27351:27355   */\n      dup2\n        /* \"#utility.yul\":27225:27356   */\n      tag_420\n      jump\t// in\n    tag_660:\n        /* \"#utility.yul\":27217:27356   */\n      swap1\n      pop\n        /* \"#utility.yul\":26944:27363   */\n      swap2\n      swap1\n      pop\n      jump\t// out\n        /* \"#utility.yul\":27369:27590   */\n    tag_421:\n        /* \"#utility.yul\":27509:27543   */\n      0x526f79616c7479206d757374206265206265747765656e203020616e64203130\n        /* \"#utility.yul\":27505:27506   */\n      0x00\n        /* \"#utility.yul\":27497:27503   */\n      dup3\n        /* \"#utility.yul\":27493:27507   */\n      add\n        /* \"#utility.yul\":27486:27544   */\n      mstore\n        /* \"#utility.yul\":27578:27582   */\n      0x3030000000000000000000000000000000000000000000000000000000000000\n        /* \"#utility.yul\":27573:27575   */\n      0x20\n        /* \"#utility.yul\":27565:27571   */\n      dup3\n        /* \"#utility.yul\":27561:27576   */\n      add\n        /* \"#utility.yul\":27554:27583   */\n      mstore\n        /* \"#utility.yul\":27369:27590   */\n      pop\n      jump\t// out\n        /* \"#utility.yul\":27596:27962   */\n    tag_422:\n        /* \"#utility.yul\":27738:27741   */\n      0x00\n        /* \"#utility.yul\":27759:27826   */\n      tag_663\n        /* \"#utility.yul\":27823:27825   */\n      0x22\n        /* \"#utility.yul\":27818:27821   */\n      dup4\n        /* \"#utility.yul\":27759:27826   */\n      tag_377\n      jump\t// in\n    tag_663:\n        /* \"#utility.yul\":27752:27826   */\n      swap2\n      pop\n        /* \"#utility.yul\":27835:27928   */\n      tag_664\n        /* \"#utility.yul\":27924:27927   */\n      dup3\n        /* \"#utility.yul\":27835:27928   */\n      tag_421\n      jump\t// in\n    tag_664:\n        /* \"#utility.yul\":27953:27955   */\n      0x40\n        /* \"#utility.yul\":27948:27951   */\n      dup3\n        /* \"#utility.yul\":27944:27956   */\n      add\n        /* \"#utility.yul\":27937:27956   */\n      swap1\n      pop\n        /* \"#utility.yul\":27596:27962   */\n      swap2\n      swap1\n      pop\n      jump\t// out\n        /* \"#utility.yul\":27968:28387   */\n    tag_321:\n        /* \"#utility.yul\":28134:28138   */\n      0x00\n        /* \"#utility.yul\":28172:28174   */\n      0x20\n        /* \"#utility.yul\":28161:28170   */\n      dup3\n        /* \"#utility.yul\":28157:28175   */\n      add\n        /* \"#utility.yul\":28149:28175   */\n      swap1\n      pop\n        /* \"#utility.yul\":28221:28230   */\n      dup2\n        /* \"#utility.yul\":28215:28219   */\n      dup2\n        /* \"#utility.yul\":28211:28231   */\n      sub\n        /* \"#utility.yul\":28207:28208   */\n      0x00\n        /* \"#utility.yul\":28196:28205   */\n      dup4\n        /* \"#utility.yul\":28192:28209   */\n      add\n        /* \"#utility.yul\":28185:28232   */\n      mstore\n        /* \"#utility.yul\":28249:28380   */\n      tag_666\n        /* \"#utility.yul\":28375:28379   */\n      dup2\n        /* \"#utility.yul\":28249:28380   */\n      tag_422\n      jump\t// in\n    tag_666:\n        /* \"#utility.yul\":28241:28380   */\n      swap1\n      pop\n        /* \"#utility.yul\":27968:28387   */\n      swap2\n      swap1\n      pop\n      jump\t// out\n        /* \"#utility.yul\":28393:28574   */\n    tag_423:\n        /* \"#utility.yul\":28533:28566   */\n      0x5265656e7472616e637947756172643a207265656e7472616e742063616c6c00\n        /* \"#utility.yul\":28529:28530   */\n      0x00\n        /* \"#utility.yul\":28521:28527   */\n      dup3\n        /* \"#utility.yul\":28517:28531   */\n      add\n        /* \"#utility.yul\":28510:28567   */\n      mstore\n        /* \"#utility.yul\":28393:28574   */\n      pop\n      jump\t// out\n        /* \"#utility.yul\":28580:28946   */\n    tag_424:\n        /* \"#utility.yul\":28722:28725   */\n      0x00\n        /* \"#utility.yul\":28743:28810   */\n      tag_669\n        /* \"#utility.yul\":28807:28809   */\n      0x1f\n        /* \"#utility.yul\":28802:28805   */\n      dup4\n        /* \"#utility.yul\":28743:28810   */\n      tag_377\n      jump\t// in\n    tag_669:\n        /* \"#utility.yul\":28736:28810   */\n      swap2\n      pop\n        /* \"#utility.yul\":28819:28912   */\n      tag_670\n        /* \"#utility.yul\":28908:28911   */\n      dup3\n        /* \"#utility.yul\":28819:28912   */\n      tag_423\n      jump\t// in\n    tag_670:\n        /* \"#utility.yul\":28937:28939   */\n      0x20\n        /* \"#utility.yul\":28932:28935   */\n      dup3\n        /* \"#utility.yul\":28928:28940   */\n      add\n        /* \"#utility.yul\":28921:28940   */\n      swap1\n      pop\n        /* \"#utility.yul\":28580:28946   */\n      swap2\n      swap1\n      pop\n      jump\t// out\n        /* \"#utility.yul\":28952:29371   */\n    tag_325:\n        /* \"#utility.yul\":29118:29122   */\n      0x00\n        /* \"#utility.yul\":29156:29158   */\n      0x20\n        /* \"#utility.yul\":29145:29154   */\n      dup3\n        /* \"#utility.yul\":29141:29159   */\n      add\n        /* \"#utility.yul\":29133:29159   */\n      swap1\n      pop\n        /* \"#utility.yul\":29205:29214   */\n      dup2\n        /* \"#utility.yul\":29199:29203   */\n      dup2\n        /* \"#utility.yul\":29195:29215   */\n      sub\n        /* \"#utility.yul\":29191:29192   */\n      0x00\n        /* \"#utility.yul\":29180:29189   */\n      dup4\n        /* \"#utility.yul\":29176:29193   */\n      add\n        /* \"#utility.yul\":29169:29216   */\n      mstore\n        /* \"#utility.yul\":29233:29364   */\n      tag_672\n        /* \"#utility.yul\":29359:29363   */\n      dup2\n        /* \"#utility.yul\":29233:29364   */\n      tag_424\n      jump\t// in\n    tag_672:\n        /* \"#utility.yul\":29225:29364   */\n      swap1\n      pop\n        /* \"#utility.yul\":28952:29371   */\n      swap2\n      swap1\n      pop\n      jump\t// out\n        /* \"#utility.yul\":29377:29541   */\n    tag_425:\n        /* \"#utility.yul\":29517:29533   */\n      0x496e76616c69642073656e646572000000000000000000000000000000000000\n        /* \"#utility.yul\":29513:29514   */\n      0x00\n        /* \"#utility.yul\":29505:29511   */\n      dup3\n        /* \"#utility.yul\":29501:29515   */\n      add\n        /* \"#utility.yul\":29494:29534   */\n      mstore\n        /* \"#utility.yul\":29377:29541   */\n      pop\n      jump\t// out\n        /* \"#utility.yul\":29547:29913   */\n    tag_426:\n        /* \"#utility.yul\":29689:29692   */\n      0x00\n        /* \"#utility.yul\":29710:29777   */\n      tag_675\n        /* \"#utility.yul\":29774:29776   */\n      0x0e\n        /* \"#utility.yul\":29769:29772   */\n      dup4\n        /* \"#utility.yul\":29710:29777   */\n      tag_377\n      jump\t// in\n    tag_675:\n        /* \"#utility.yul\":29703:29777   */\n      swap2\n      pop\n        /* \"#utility.yul\":29786:29879   */\n      tag_676\n        /* \"#utility.yul\":29875:29878   */\n      dup3\n        /* \"#utility.yul\":29786:29879   */\n      tag_425\n      jump\t// in\n    tag_676:\n        /* \"#utility.yul\":29904:29906   */\n      0x20\n        /* \"#utility.yul\":29899:29902   */\n      dup3\n        /* \"#utility.yul\":29895:29907   */\n      add\n        /* \"#utility.yul\":29888:29907   */\n      swap1\n      pop\n        /* \"#utility.yul\":29547:29913   */\n      swap2\n      swap1\n      pop\n      jump\t// out\n        /* \"#utility.yul\":29919:30338   */\n    tag_331:\n        /* \"#utility.yul\":30085:30089   */\n      0x00\n        /* \"#utility.yul\":30123:30125   */\n      0x20\n        /* \"#utility.yul\":30112:30121   */\n      dup3\n        /* \"#utility.yul\":30108:30126   */\n      add\n        /* \"#utility.yul\":30100:30126   */\n      swap1\n      pop\n        /* \"#utility.yul\":30172:30181   */\n      dup2\n        /* \"#utility.yul\":30166:30170   */\n      dup2\n        /* \"#utility.yul\":30162:30182   */\n      sub\n        /* \"#utility.yul\":30158:30159   */\n      0x00\n        /* \"#utility.yul\":30147:30156   */\n      dup4\n        /* \"#utility.yul\":30143:30160   */\n      add\n        /* \"#utility.yul\":30136:30183   */\n      mstore\n        /* \"#utility.yul\":30200:30331   */\n      tag_678\n        /* \"#utility.yul\":30326:30330   */\n      dup2\n        /* \"#utility.yul\":30200:30331   */\n      tag_426\n      jump\t// in\n    tag_678:\n        /* \"#utility.yul\":30192:30331   */\n      swap1\n      pop\n        /* \"#utility.yul\":29919:30338   */\n      swap2\n      swap1\n      pop\n      jump\t// out\n        /* \"#utility.yul\":30344:30522   */\n    tag_427:\n        /* \"#utility.yul\":30484:30514   */\n      0x496e73756666696369656e7420746f6b656e207375626d697474656400000000\n        /* \"#utility.yul\":30480:30481   */\n      0x00\n        /* \"#utility.yul\":30472:30478   */\n      dup3\n        /* \"#utility.yul\":30468:30482   */\n      add\n        /* \"#utility.yul\":30461:30515   */\n      mstore\n        /* \"#utility.yul\":30344:30522   */\n      pop\n      jump\t// out\n        /* \"#utility.yul\":30528:30894   */\n    tag_428:\n        /* \"#utility.yul\":30670:30673   */\n      0x00\n        /* \"#utility.yul\":30691:30758   */\n      tag_681\n        /* \"#utility.yul\":30755:30757   */\n      0x1c\n        /* \"#utility.yul\":30750:30753   */\n      dup4\n        /* \"#utility.yul\":30691:30758   */\n      tag_377\n      jump\t// in\n    tag_681:\n        /* \"#utility.yul\":30684:30758   */\n      swap2\n      pop\n        /* \"#utility.yul\":30767:30860   */\n      tag_682\n        /* \"#utility.yul\":30856:30859   */\n      dup3\n        /* \"#utility.yul\":30767:30860   */\n      tag_427\n      jump\t// in\n    tag_682:\n        /* \"#utility.yul\":30885:30887   */\n      0x20\n        /* \"#utility.yul\":30880:30883   */\n      dup3\n        /* \"#utility.yul\":30876:30888   */\n      add\n        /* \"#utility.yul\":30869:30888   */\n      swap1\n      pop\n        /* \"#utility.yul\":30528:30894   */\n      swap2\n      swap1\n      pop\n      jump\t// out\n        /* \"#utility.yul\":30900:31319   */\n    tag_334:\n        /* \"#utility.yul\":31066:31070   */\n      0x00\n        /* \"#utility.yul\":31104:31106   */\n      0x20\n        /* \"#utility.yul\":31093:31102   */\n      dup3\n        /* \"#utility.yul\":31089:31107   */\n      add\n        /* \"#utility.yul\":31081:31107   */\n      swap1\n      pop\n        /* \"#utility.yul\":31153:31162   */\n      dup2\n        /* \"#utility.yul\":31147:31151   */\n      dup2\n        /* \"#utility.yul\":31143:31163   */\n      sub\n        /* \"#utility.yul\":31139:31140   */\n      0x00\n        /* \"#utility.yul\":31128:31137   */\n      dup4\n        /* \"#utility.yul\":31124:31141   */\n      add\n        /* \"#utility.yul\":31117:31164   */\n      mstore\n        /* \"#utility.yul\":31181:31312   */\n      tag_684\n        /* \"#utility.yul\":31307:31311   */\n      dup2\n        /* \"#utility.yul\":31181:31312   */\n      tag_428\n      jump\t// in\n    tag_684:\n        /* \"#utility.yul\":31173:31312   */\n      swap1\n      pop\n        /* \"#utility.yul\":30900:31319   */\n      swap2\n      swap1\n      pop\n      jump\t// out\n        /* \"#utility.yul\":31325:31657   */\n    tag_337:\n        /* \"#utility.yul\":31446:31450   */\n      0x00\n        /* \"#utility.yul\":31484:31486   */\n      0x40\n        /* \"#utility.yul\":31473:31482   */\n      dup3\n        /* \"#utility.yul\":31469:31487   */\n      add\n        /* \"#utility.yul\":31461:31487   */\n      swap1\n      pop\n        /* \"#utility.yul\":31497:31568   */\n      tag_686\n        /* \"#utility.yul\":31565:31566   */\n      0x00\n        /* \"#utility.yul\":31554:31563   */\n      dup4\n        /* \"#utility.yul\":31550:31567   */\n      add\n        /* \"#utility.yul\":31541:31547   */\n      dup6\n        /* \"#utility.yul\":31497:31568   */\n      tag_373\n      jump\t// in\n    tag_686:\n        /* \"#utility.yul\":31578:31650   */\n      tag_687\n        /* \"#utility.yul\":31646:31648   */\n      0x20\n        /* \"#utility.yul\":31635:31644   */\n      dup4\n        /* \"#utility.yul\":31631:31649   */\n      add\n        /* \"#utility.yul\":31622:31628   */\n      dup5\n        /* \"#utility.yul\":31578:31650   */\n      tag_373\n      jump\t// in\n    tag_687:\n        /* \"#utility.yul\":31325:31657   */\n      swap4\n      swap3\n      pop\n      pop\n      pop\n      jump\t// out\n        /* \"#utility.yul\":31663:32014   */\n    tag_341:\n        /* \"#utility.yul\":31733:31739   */\n      0x00\n        /* \"#utility.yul\":31782:31784   */\n      0x20\n        /* \"#utility.yul\":31770:31779   */\n      dup3\n        /* \"#utility.yul\":31761:31768   */\n      dup5\n        /* \"#utility.yul\":31757:31780   */\n      sub\n        /* \"#utility.yul\":31753:31785   */\n      slt\n        /* \"#utility.yul\":31750:31869   */\n      iszero\n      tag_689\n      jumpi\n        /* \"#utility.yul\":31788:31867   */\n      tag_690\n      tag_358\n      jump\t// in\n    tag_690:\n        /* \"#utility.yul\":31750:31869   */\n    tag_689:\n        /* \"#utility.yul\":31908:31909   */\n      0x00\n        /* \"#utility.yul\":31933:31997   */\n      tag_691\n        /* \"#utility.yul\":31989:31996   */\n      dup5\n        /* \"#utility.yul\":31980:31986   */\n      dup3\n        /* \"#utility.yul\":31969:31978   */\n      dup6\n        /* \"#utility.yul\":31965:31987   */\n      add\n        /* \"#utility.yul\":31933:31997   */\n      tag_383\n      jump\t// in\n    tag_691:\n        /* \"#utility.yul\":31923:31997   */\n      swap2\n      pop\n        /* \"#utility.yul\":31879:32007   */\n      pop\n        /* \"#utility.yul\":31663:32014   */\n      swap3\n      swap2\n      pop\n      pop\n      jump\t// out\n        /* \"#utility.yul\":32020:32201   */\n    tag_429:\n        /* \"#utility.yul\":32160:32193   */\n      0x496e73756666696369656e7420616c6c6f77616e63652070726f766964656400\n        /* \"#utility.yul\":32156:32157   */\n      0x00\n        /* \"#utility.yul\":32148:32154   */\n      dup3\n        /* \"#utility.yul\":32144:32158   */\n      add\n        /* \"#utility.yul\":32137:32194   */\n      mstore\n        /* \"#utility.yul\":32020:32201   */\n      pop\n      jump\t// out\n        /* \"#utility.yul\":32207:32573   */\n    tag_430:\n        /* \"#utility.yul\":32349:32352   */\n      0x00\n        /* \"#utility.yul\":32370:32437   */\n      tag_694\n        /* \"#utility.yul\":32434:32436   */\n      0x1f\n        /* \"#utility.yul\":32429:32432   */\n      dup4\n        /* \"#utility.yul\":32370:32437   */\n      tag_377\n      jump\t// in\n    tag_694:\n        /* \"#utility.yul\":32363:32437   */\n      swap2\n      pop\n        /* \"#utility.yul\":32446:32539   */\n      tag_695\n        /* \"#utility.yul\":32535:32538   */\n      dup3\n        /* \"#utility.yul\":32446:32539   */\n      tag_429\n      jump\t// in\n    tag_695:\n        /* \"#utility.yul\":32564:32566   */\n      0x20\n        /* \"#utility.yul\":32559:32562   */\n      dup3\n        /* \"#utility.yul\":32555:32567   */\n      add\n        /* \"#utility.yul\":32548:32567   */\n      swap1\n      pop\n        /* \"#utility.yul\":32207:32573   */\n      swap2\n      swap1\n      pop\n      jump\t// out\n        /* \"#utility.yul\":32579:32998   */\n    tag_344:\n        /* \"#utility.yul\":32745:32749   */\n      0x00\n        /* \"#utility.yul\":32783:32785   */\n      0x20\n        /* \"#utility.yul\":32772:32781   */\n      dup3\n        /* \"#utility.yul\":32768:32786   */\n      add\n        /* \"#utility.yul\":32760:32786   */\n      swap1\n      pop\n        /* \"#utility.yul\":32832:32841   */\n      dup2\n        /* \"#utility.yul\":32826:32830   */\n      dup2\n        /* \"#utility.yul\":32822:32842   */\n      sub\n        /* \"#utility.yul\":32818:32819   */\n      0x00\n        /* \"#utility.yul\":32807:32816   */\n      dup4\n        /* \"#utility.yul\":32803:32820   */\n      add\n        /* \"#utility.yul\":32796:32843   */\n      mstore\n        /* \"#utility.yul\":32860:32991   */\n      tag_697\n        /* \"#utility.yul\":32986:32990   */\n      dup2\n        /* \"#utility.yul\":32860:32991   */\n      tag_430\n      jump\t// in\n    tag_697:\n        /* \"#utility.yul\":32852:32991   */\n      swap1\n      pop\n        /* \"#utility.yul\":32579:32998   */\n      swap2\n      swap1\n      pop\n      jump\t// out\n        /* \"#utility.yul\":33004:33226   */\n    tag_431:\n        /* \"#utility.yul\":33144:33178   */\n      0x496e73756666696369656e742066756e64732070726f7669646564202876616c\n        /* \"#utility.yul\":33140:33141   */\n      0x00\n        /* \"#utility.yul\":33132:33138   */\n      dup3\n        /* \"#utility.yul\":33128:33142   */\n      add\n        /* \"#utility.yul\":33121:33179   */\n      mstore\n        /* \"#utility.yul\":33213:33218   */\n      0x7565290000000000000000000000000000000000000000000000000000000000\n        /* \"#utility.yul\":33208:33210   */\n      0x20\n        /* \"#utility.yul\":33200:33206   */\n      dup3\n        /* \"#utility.yul\":33196:33211   */\n      add\n        /* \"#utility.yul\":33189:33219   */\n      mstore\n        /* \"#utility.yul\":33004:33226   */\n      pop\n      jump\t// out\n        /* \"#utility.yul\":33232:33598   */\n    tag_432:\n        /* \"#utility.yul\":33374:33377   */\n      0x00\n        /* \"#utility.yul\":33395:33462   */\n      tag_700\n        /* \"#utility.yul\":33459:33461   */\n      0x23\n        /* \"#utility.yul\":33454:33457   */\n      dup4\n        /* \"#utility.yul\":33395:33462   */\n      tag_377\n      jump\t// in\n    tag_700:\n        /* \"#utility.yul\":33388:33462   */\n      swap2\n      pop\n        /* \"#utility.yul\":33471:33564   */\n      tag_701\n        /* \"#utility.yul\":33560:33563   */\n      dup3\n        /* \"#utility.yul\":33471:33564   */\n      tag_431\n      jump\t// in\n    tag_701:\n        /* \"#utility.yul\":33589:33591   */\n      0x40\n        /* \"#utility.yul\":33584:33587   */\n      dup3\n        /* \"#utility.yul\":33580:33592   */\n      add\n        /* \"#utility.yul\":33573:33592   */\n      swap1\n      pop\n        /* \"#utility.yul\":33232:33598   */\n      swap2\n      swap1\n      pop\n      jump\t// out\n        /* \"#utility.yul\":33604:34023   */\n    tag_349:\n        /* \"#utility.yul\":33770:33774   */\n      0x00\n        /* \"#utility.yul\":33808:33810   */\n      0x20\n        /* \"#utility.yul\":33797:33806   */\n      dup3\n        /* \"#utility.yul\":33793:33811   */\n      add\n        /* \"#utility.yul\":33785:33811   */\n      swap1\n      pop\n        /* \"#utility.yul\":33857:33866   */\n      dup2\n        /* \"#utility.yul\":33851:33855   */\n      dup2\n        /* \"#utility.yul\":33847:33867   */\n      sub\n        /* \"#utility.yul\":33843:33844   */\n      0x00\n        /* \"#utility.yul\":33832:33841   */\n      dup4\n        /* \"#utility.yul\":33828:33845   */\n      add\n        /* \"#utility.yul\":33821:33868   */\n      mstore\n        /* \"#utility.yul\":33885:34016   */\n      tag_703\n        /* \"#utility.yul\":34011:34015   */\n      dup2\n        /* \"#utility.yul\":33885:34016   */\n      tag_432\n      jump\t// in\n    tag_703:\n        /* \"#utility.yul\":33877:34016   */\n      swap1\n      pop\n        /* \"#utility.yul\":33604:34023   */\n      swap2\n      swap1\n      pop\n      jump\t// out\n        /* \"#utility.yul\":34029:34471   */\n    tag_352:\n        /* \"#utility.yul\":34178:34182   */\n      0x00\n        /* \"#utility.yul\":34216:34218   */\n      0x60\n        /* \"#utility.yul\":34205:34214   */\n      dup3\n        /* \"#utility.yul\":34201:34219   */\n      add\n        /* \"#utility.yul\":34193:34219   */\n      swap1\n      pop\n        /* \"#utility.yul\":34229:34300   */\n      tag_705\n        /* \"#utility.yul\":34297:34298   */\n      0x00\n        /* \"#utility.yul\":34286:34295   */\n      dup4\n        /* \"#utility.yul\":34282:34299   */\n      add\n        /* \"#utility.yul\":34273:34279   */\n      dup7\n        /* \"#utility.yul\":34229:34300   */\n      tag_373\n      jump\t// in\n    tag_705:\n        /* \"#utility.yul\":34310:34382   */\n      tag_706\n        /* \"#utility.yul\":34378:34380   */\n      0x20\n        /* \"#utility.yul\":34367:34376   */\n      dup4\n        /* \"#utility.yul\":34363:34381   */\n      add\n        /* \"#utility.yul\":34354:34360   */\n      dup6\n        /* \"#utility.yul\":34310:34382   */\n      tag_373\n      jump\t// in\n    tag_706:\n        /* \"#utility.yul\":34392:34464   */\n      tag_707\n        /* \"#utility.yul\":34460:34462   */\n      0x40\n        /* \"#utility.yul\":34449:34458   */\n      dup4\n        /* \"#utility.yul\":34445:34463   */\n      add\n        /* \"#utility.yul\":34436:34442   */\n      dup5\n        /* \"#utility.yul\":34392:34464   */\n      tag_366\n      jump\t// in\n    tag_707:\n        /* \"#utility.yul\":34029:34471   */\n      swap5\n      swap4\n      pop\n      pop\n      pop\n      pop\n      jump\t// out\n        /* \"#utility.yul\":34477:34614   */\n    tag_433:\n        /* \"#utility.yul\":34531:34536   */\n      0x00\n        /* \"#utility.yul\":34562:34568   */\n      dup2\n        /* \"#utility.yul\":34556:34569   */\n      mload\n        /* \"#utility.yul\":34547:34569   */\n      swap1\n      pop\n        /* \"#utility.yul\":34578:34608   */\n      tag_709\n        /* \"#utility.yul\":34602:34607   */\n      dup2\n        /* \"#utility.yul\":34578:34608   */\n      tag_374\n      jump\t// in\n    tag_709:\n        /* \"#utility.yul\":34477:34614   */\n      swap3\n      swap2\n      pop\n      pop\n      jump\t// out\n        /* \"#utility.yul\":34620:34965   */\n    tag_356:\n        /* \"#utility.yul\":34687:34693   */\n      0x00\n        /* \"#utility.yul\":34736:34738   */\n      0x20\n        /* \"#utility.yul\":34724:34733   */\n      dup3\n        /* \"#utility.yul\":34715:34722   */\n      dup5\n        /* \"#utility.yul\":34711:34734   */\n      sub\n        /* \"#utility.yul\":34707:34739   */\n      slt\n        /* \"#utility.yul\":34704:34823   */\n      iszero\n      tag_711\n      jumpi\n        /* \"#utility.yul\":34742:34821   */\n      tag_712\n      tag_358\n      jump\t// in\n    tag_712:\n        /* \"#utility.yul\":34704:34823   */\n    tag_711:\n        /* \"#utility.yul\":34862:34863   */\n      0x00\n        /* \"#utility.yul\":34887:34948   */\n      tag_713\n        /* \"#utility.yul\":34940:34947   */\n      dup5\n        /* \"#utility.yul\":34931:34937   */\n      dup3\n        /* \"#utility.yul\":34920:34929   */\n      dup6\n        /* \"#utility.yul\":34916:34938   */\n      add\n        /* \"#utility.yul\":34887:34948   */\n      tag_433\n      jump\t// in\n    tag_713:\n        /* \"#utility.yul\":34877:34948   */\n      swap2\n      pop\n        /* \"#utility.yul\":34833:34958   */\n      pop\n        /* \"#utility.yul\":34620:34965   */\n      swap3\n      swap2\n      pop\n      pop\n      jump\t// out\n\n    auxdata: 0xa2646970667358221220b80bfcbcef554cc0f29a8580dc09098ea35a374fb4e54fdba9adc972c4cb30f864736f6c63430008180033\n}\n",
				"bytecode": {
					"linkReferences": {},
					"object": "60806040525f6003555f600855600160095f6101000a81548160ff0219169083151502179055505f600960016101000a81548160ff0219169083151502179055503480156200004c575f80fd5b5060405162003c5638038062003c56833981810160405281019062000072919062000367565b858183805f806101000a81548173ffffffffffffffffffffffffffffffffffffffff021916908373ffffffffffffffffffffffffffffffffffffffff1602179055508160015f6101000a81548173ffffffffffffffffffffffffffffffffffffffff021916908373ffffffffffffffffffffffffffffffffffffffff160217905550505060016004819055508060055f6101000a81548173ffffffffffffffffffffffffffffffffffffffff021916908373ffffffffffffffffffffffffffffffffffffffff1602179055505083600e908162000150919062000693565b5084600d908162000162919062000693565b5082600f908162000174919062000693565b5050505050505062000777565b5f604051905090565b5f80fd5b5f80fd5b5f73ffffffffffffffffffffffffffffffffffffffff82169050919050565b5f620001bd8262000192565b9050919050565b620001cf81620001b1565b8114620001da575f80fd5b50565b5f81519050620001ed81620001c4565b92915050565b5f80fd5b5f80fd5b5f601f19601f8301169050919050565b7f4e487b71000000000000000000000000000000000000000000000000000000005f52604160045260245ffd5b6200024382620001fb565b810181811067ffffffffffffffff821117156200026557620002646200020b565b5b80604052505050565b5f6200027962000181565b905062000287828262000238565b919050565b5f67ffffffffffffffff821115620002a957620002a86200020b565b5b620002b482620001fb565b9050602081019050919050565b5f5b83811015620002e0578082015181840152602081019050620002c3565b5f8484015250505050565b5f62000301620002fb846200028c565b6200026e565b90508281526020810184848401111562000320576200031f620001f7565b5b6200032d848285620002c1565b509392505050565b5f82601f8301126200034c576200034b620001f3565b5b81516200035e848260208601620002eb565b91505092915050565b5f805f805f8060c087890312156200038457620003836200018a565b5b5f6200039389828a01620001dd565b965050602087015167ffffffffffffffff811115620003b757620003b66200018e565b5b620003c589828a0162000335565b955050604087015167ffffffffffffffff811115620003e957620003e86200018e565b5b620003f789828a0162000335565b945050606087015167ffffffffffffffff8111156200041b576200041a6200018e565b5b6200042989828a0162000335565b93505060806200043c89828a01620001dd565b92505060a06200044f89828a01620001dd565b9150509295509295509295565b5f81519050919050565b7f4e487b71000000000000000000000000000000000000000000000000000000005f52602260045260245ffd5b5f6002820490506001821680620004ab57607f821691505b602082108103620004c157620004c062000466565b5b50919050565b5f819050815f5260205f209050919050565b5f6020601f8301049050919050565b5f82821b905092915050565b5f60088302620005257fffffffffffffffffffffffffffffffffffffffffffffffffffffffffffffffff82620004e8565b620005318683620004e8565b95508019841693508086168417925050509392505050565b5f819050919050565b5f819050919050565b5f6200057b620005756200056f8462000549565b62000552565b62000549565b9050919050565b5f819050919050565b62000596836200055b565b620005ae620005a58262000582565b848454620004f4565b825550505050565b5f90565b620005c4620005b6565b620005d18184846200058b565b505050565b5b81811015620005f857620005ec5f82620005ba565b600181019050620005d7565b5050565b601f82111562000647576200061181620004c7565b6200061c84620004d9565b810160208510156200062c578190505b620006446200063b85620004d9565b830182620005d6565b50505b505050565b5f82821c905092915050565b5f620006695f19846008026200064c565b1980831691505092915050565b5f62000683838362000658565b9150826002028217905092915050565b6200069e826200045c565b67ffffffffffffffff811115620006ba57620006b96200020b565b5b620006c6825462000493565b620006d3828285620005fc565b5f60209050601f83116001811462000709575f8415620006f4578287015190505b62000700858262000676565b8655506200076f565b601f1984166200071986620004c7565b5f5b8281101562000742578489015182556001820191506020850194506020810190506200071b565b868310156200076257848901516200075e601f89168262000658565b8355505b6001600288020188555050505b505050505050565b6134d180620007855f395ff3fe608060405260043610610129575f3560e01c806370a08231116100aa578063a9059cbb1161006e578063a9059cbb146103ab578063b9186d7d146103c7578063c87b56dd14610403578063e632c2f31461043f578063efef39a114610469578063f2fde38b1461048557610129565b806370a08231146102c35780638546d002146102ff5780638da5cb5b1461033b578063a035b1fe14610365578063a19205861461038f57610129565b806354840c6e116100f157806354840c6e146101ef5780635a7adf7f146102195780635de42985146102435780636352211e1461025f5780636a1ede9c1461029b57610129565b806301ffc9a71461012d57806318160ddd14610169578063225435c01461019357806340e58ee5146101a95780634d47732a146101c5575b5f80fd5b348015610138575f80fd5b50610153600480360381019061014e919061245d565b6104ad565b60405161016091906124a2565b60405180910390f35b348015610174575f80fd5b5061017d61057e565b60405161018a91906124d3565b60405180910390f35b34801561019e575f80fd5b506101a7610584565b005b6101c360048036038101906101be9190612516565b610659565b005b3480156101d0575f80fd5b506101d961096e565b6040516101e691906124d3565b60405180910390f35b3480156101fa575f80fd5b50610203610977565b60405161021091906124a2565b60405180910390f35b348015610224575f80fd5b5061022d61098a565b60405161023a91906124a2565b60405180910390f35b61025d6004803603810190610258919061259b565b61099c565b005b34801561026a575f80fd5b5061028560048036038101906102809190612516565b610bb5565b60405161029291906125e8565b60405180910390f35b3480156102a6575f80fd5b506102c160048036038101906102bc919061262b565b610bee565b005b3480156102ce575f80fd5b506102e960048036038101906102e4919061268f565b610d79565b6040516102f691906124d3565b60405180910390f35b34801561030a575f80fd5b5061032560048036038101906103209190612516565b610e2d565b60405161033291906124a2565b60405180910390f35b348015610346575f80fd5b5061034f610ed5565b60405161035c91906125e8565b60405180910390f35b348015610370575f80fd5b50610379610efd565b60405161038691906124d3565b60405180910390f35b6103a960048036038101906103a491906126ba565b610f03565b005b6103c560048036038101906103c091906126f8565b61131d565b005b3480156103d2575f80fd5b506103ed60048036038101906103e89190612516565b61177d565b6040516103fa91906124d3565b60405180910390f35b34801561040e575f80fd5b5061042960048036038101906104249190612516565b61179a565b60405161043691906127c0565b60405180910390f35b34801561044a575f80fd5b5061045361182c565b60405161046091906124d3565b60405180910390f35b610483600480360381019061047e9190612516565b611832565b005b348015610490575f80fd5b506104ab60048036038101906104a6919061268f565b611e8a565b005b5f7f80ac58cd000000000000000000000000000000000000000000000000000000007bffffffffffffffffffffffffffffffffffffffffffffffffffffffff1916827bffffffffffffffffffffffffffffffffffffffffffffffffffffffff1916148061057757507f5b5e139f000000000000000000000000000000000000000000000000000000007bffffffffffffffffffffffffffffffffffffffffffffffffffffffff1916827bffffffffffffffffffffffffffffffffffffffffffffffffffffffff1916145b9050919050565b60075481565b61058c611fd1565b73ffffffffffffffffffffffffffffffffffffffff165f8054906101000a900473ffffffffffffffffffffffffffffffffffffffff1673ffffffffffffffffffffffffffffffffffffffff1614610618576040517f08c379a000000000000000000000000000000000000000000000000000000000815260040161060f9061282a565b60405180910390fd5b5f805f6101000a81548173ffffffffffffffffffffffffffffffffffffffff021916908373ffffffffffffffffffffffffffffffffffffffff160217905550565b5f73ffffffffffffffffffffffffffffffffffffffff165f8054906101000a900473ffffffffffffffffffffffffffffffffffffffff1673ffffffffffffffffffffffffffffffffffffffff16031561096b575f805f805f9054906101000a900473ffffffffffffffffffffffffffffffffffffffff1673ffffffffffffffffffffffffffffffffffffffff1663ced72f876040518163ffffffff1660e01b81526004016040805180830381865afa158015610717573d5f803e3d5ffd5b505050506040513d601f19601f8201168201806040525081019061073b9190612870565b809450819350505081341015610786576040517f08c379a000000000000000000000000000000000000000000000000000000000815260040161077d906128f8565b60405180910390fd5b8273ffffffffffffffffffffffffffffffffffffffff166108fc8390811502906040515f60405180830381858888f193505050501580156107c9573d5f803e3d5ffd5b506107d2611fd1565b73ffffffffffffffffffffffffffffffffffffffff166107f185610bb5565b73ffffffffffffffffffffffffffffffffffffffff1614610847576040517f08c379a000000000000000000000000000000000000000000000000000000000815260040161083e90612960565b60405180910390fd5b61085084610e2d565b61088f576040517f08c379a0000000000000000000000000000000000000000000000000000000008152600401610886906129c8565b60405180910390fd5b60405180604001604052805f73ffffffffffffffffffffffffffffffffffffffff1681526020015f815250600c5f8681526020019081526020015f205f820151815f015f6101000a81548173ffffffffffffffffffffffffffffffffffffffff021916908373ffffffffffffffffffffffffffffffffffffffff1602179055506020820151816001015590505083610925611fd1565b73ffffffffffffffffffffffffffffffffffffffff167fb0fff5d2b17a855b0a22a0965386bcf2f7a8a364c81497c7ea721f3b771ba47e60405160405180910390a35050505b50565b5f600354905090565b600960019054906101000a900460ff1681565b60095f9054906101000a900460ff1681565b5f73ffffffffffffffffffffffffffffffffffffffff165f8054906101000a900473ffffffffffffffffffffffffffffffffffffffff1673ffffffffffffffffffffffffffffffffffffffff160315610bb1575f805f805f9054906101000a900473ffffffffffffffffffffffffffffffffffffffff1673ffffffffffffffffffffffffffffffffffffffff1663ced72f876040518163ffffffff1660e01b81526004016040805180830381865afa158015610a5a573d5f803e3d5ffd5b505050506040513d601f19601f82011682018060405250810190610a7e9190612870565b809450819350505081341015610ac9576040517f08c379a0000000000000000000000000000000000000000000000000000000008152600401610ac0906128f8565b60405180910390fd5b8273ffffffffffffffffffffffffffffffffffffffff166108fc8390811502906040515f60405180830381858888f19350505050158015610b0c573d5f803e3d5ffd5b50610b15611fd1565b73ffffffffffffffffffffffffffffffffffffffff1660015f9054906101000a900473ffffffffffffffffffffffffffffffffffffffff1673ffffffffffffffffffffffffffffffffffffffff1614610ba3576040517f08c379a0000000000000000000000000000000000000000000000000000000008152600401610b9a90612a30565b60405180910390fd5b610bad8585611fd8565b5050505b5050565b5f600a5f8381526020019081526020015f205f9054906101000a900473ffffffffffffffffffffffffffffffffffffffff169050919050565b610bf6611fd1565b73ffffffffffffffffffffffffffffffffffffffff1660015f9054906101000a900473ffffffffffffffffffffffffffffffffffffffff1673ffffffffffffffffffffffffffffffffffffffff1614610c84576040517f08c379a0000000000000000000000000000000000000000000000000000000008152600401610c7b90612a30565b60405180910390fd5b610c8c612074565b5f8410158015610c9e57506103e88411155b610cdd576040517f08c379a0000000000000000000000000000000000000000000000000000000008152600401610cd490612a98565b60405180910390fd5b5f60075410158015610cf3575061271060075411155b610d32576040517f08c379a0000000000000000000000000000000000000000000000000000000008152600401610d2990612b00565b60405180910390fd5b826007819055508160068190555080600960016101000a81548160ff021916908315150217905550610d6b84610d66610ed5565b611fd8565b610d736120c3565b50505050565b5f8073ffffffffffffffffffffffffffffffffffffffff168273ffffffffffffffffffffffffffffffffffffffff1603610de8576040517f08c379a0000000000000000000000000000000000000000000000000000000008152600401610ddf90612b8e565b60405180910390fd5b600b5f8373ffffffffffffffffffffffffffffffffffffffff1673ffffffffffffffffffffffffffffffffffffffff1681526020019081526020015f20549050919050565b5f8073ffffffffffffffffffffffffffffffffffffffff16600c5f8481526020019081526020015f205f015f9054906101000a900473ffffffffffffffffffffffffffffffffffffffff1673ffffffffffffffffffffffffffffffffffffffff16141580610ece57505f73ffffffffffffffffffffffffffffffffffffffff16610eb683610bb5565b73ffffffffffffffffffffffffffffffffffffffff16145b9050919050565b5f60015f9054906101000a900473ffffffffffffffffffffffffffffffffffffffff16905090565b60065481565b5f73ffffffffffffffffffffffffffffffffffffffff165f8054906101000a900473ffffffffffffffffffffffffffffffffffffffff1673ffffffffffffffffffffffffffffffffffffffff160315611319575f805f805f9054906101000a900473ffffffffffffffffffffffffffffffffffffffff1673ffffffffffffffffffffffffffffffffffffffff1663ced72f876040518163ffffffff1660e01b81526004016040805180830381865afa158015610fc1573d5f803e3d5ffd5b505050506040513d601f19601f82011682018060405250810190610fe59190612870565b809450819350505081341015611030576040517f08c379a0000000000000000000000000000000000000000000000000000000008152600401611027906128f8565b60405180910390fd5b8273ffffffffffffffffffffffffffffffffffffffff166108fc8390811502906040515f60405180830381858888f19350505050158015611073573d5f803e3d5ffd5b505f151560095f9054906101000a900460ff161515146110c8576040517f08c379a00000000000000000000000000000000000000000000000000000000081526004016110bf90612bf6565b60405180910390fd5b60011515600960019054906101000a900460ff1615151461111e576040517f08c379a000000000000000000000000000000000000000000000000000000000815260040161111590612c5e565b60405180910390fd5b611126611fd1565b73ffffffffffffffffffffffffffffffffffffffff1661114586610bb5565b73ffffffffffffffffffffffffffffffffffffffff161461119b576040517f08c379a000000000000000000000000000000000000000000000000000000000815260040161119290612960565b60405180910390fd5b5f84116111dd576040517f08c379a00000000000000000000000000000000000000000000000000000000081526004016111d490612cc6565b60405180910390fd5b5f15156111e986610e2d565b15151461122b576040517f08c379a000000000000000000000000000000000000000000000000000000000815260040161122290612d2e565b60405180910390fd5b604051806040016040528061123e611fd1565b73ffffffffffffffffffffffffffffffffffffffff16815260200185815250600c5f8781526020019081526020015f205f820151815f015f6101000a81548173ffffffffffffffffffffffffffffffffffffffff021916908373ffffffffffffffffffffffffffffffffffffffff16021790555060208201518160010155905050846112c8611fd1565b73ffffffffffffffffffffffffffffffffffffffff167f6fc989262f1a8db6159481527f1136bd8da67d0d235ae4f193118099ddd032318660405161130d91906124d3565b60405180910390a35050505b5050565b5f73ffffffffffffffffffffffffffffffffffffffff165f8054906101000a900473ffffffffffffffffffffffffffffffffffffffff1673ffffffffffffffffffffffffffffffffffffffff160315611779575f805f805f9054906101000a900473ffffffffffffffffffffffffffffffffffffffff1673ffffffffffffffffffffffffffffffffffffffff1663ced72f876040518163ffffffff1660e01b81526004016040805180830381865afa1580156113db573d5f803e3d5ffd5b505050506040513d601f19601f820116820180604052508101906113ff9190612870565b80945081935050508134101561144a576040517f08c379a0000000000000000000000000000000000000000000000000000000008152600401611441906128f8565b60405180910390fd5b8273ffffffffffffffffffffffffffffffffffffffff166108fc8390811502906040515f60405180830381858888f1935050505015801561148d573d5f803e3d5ffd5b5061149784610bb5565b73ffffffffffffffffffffffffffffffffffffffff166114b5611fd1565b73ffffffffffffffffffffffffffffffffffffffff161461150b576040517f08c379a000000000000000000000000000000000000000000000000000000000815260040161150290612d96565b60405180910390fd5b5f73ffffffffffffffffffffffffffffffffffffffff168573ffffffffffffffffffffffffffffffffffffffff1603611579576040517f08c379a000000000000000000000000000000000000000000000000000000000815260040161157090612dfe565b60405180910390fd5b61158284610e2d565b156116155760405180604001604052805f73ffffffffffffffffffffffffffffffffffffffff1681526020015f815250600c5f8681526020019081526020015f205f820151815f015f6101000a81548173ffffffffffffffffffffffffffffffffffffffff021916908373ffffffffffffffffffffffffffffffffffffffff160217905550602082015181600101559050505b84600a5f8681526020019081526020015f205f6101000a81548173ffffffffffffffffffffffffffffffffffffffff021916908373ffffffffffffffffffffffffffffffffffffffff1602179055506001600b5f611671611fd1565b73ffffffffffffffffffffffffffffffffffffffff1673ffffffffffffffffffffffffffffffffffffffff1681526020019081526020015f205f8282546116b89190612e49565b925050819055506001600b5f8773ffffffffffffffffffffffffffffffffffffffff1673ffffffffffffffffffffffffffffffffffffffff1681526020019081526020015f205f82825461170c9190612e7c565b92505081905550838573ffffffffffffffffffffffffffffffffffffffff16611733611fd1565b73ffffffffffffffffffffffffffffffffffffffff167f8baf29b4b5af24ec8170355f2819a9135840321dd4e65b88a080dfc3054fe99c60405160405180910390a45050505b5050565b5f600c5f8381526020019081526020015f20600101549050919050565b6060600f80546117a990612edc565b80601f01602080910402602001604051908101604052809291908181526020018280546117d590612edc565b80156118205780601f106117f757610100808354040283529160200191611820565b820191905f5260205f20905b81548152906001019060200180831161180357829003601f168201915b50505050509050919050565b60085481565b5f73ffffffffffffffffffffffffffffffffffffffff165f8054906101000a900473ffffffffffffffffffffffffffffffffffffffff1673ffffffffffffffffffffffffffffffffffffffff160315611e87575f805f805f9054906101000a900473ffffffffffffffffffffffffffffffffffffffff1673ffffffffffffffffffffffffffffffffffffffff1663ced72f876040518163ffffffff1660e01b81526004016040805180830381865afa1580156118f0573d5f803e3d5ffd5b505050506040513d601f19601f820116820180604052508101906119149190612870565b80945081935050508134101561195f576040517f08c379a0000000000000000000000000000000000000000000000000000000008152600401611956906128f8565b60405180910390fd5b8273ffffffffffffffffffffffffffffffffffffffff166108fc8390811502906040515f60405180830381858888f193505050501580156119a2573d5f803e3d5ffd5b5060075484106119e7576040517f08c379a00000000000000000000000000000000000000000000000000000000081526004016119de90612f56565b60405180910390fd5b6119f084610bb5565b73ffffffffffffffffffffffffffffffffffffffff16611a0e611fd1565b73ffffffffffffffffffffffffffffffffffffffff1603611a64576040517f08c379a0000000000000000000000000000000000000000000000000000000008152600401611a5b90612fbe565b60405180910390fd5b611a6d84610e2d565b611aac576040517f08c379a0000000000000000000000000000000000000000000000000000000008152600401611aa3906129c8565b60405180910390fd5b5f73ffffffffffffffffffffffffffffffffffffffff16600c5f8681526020019081526020015f205f015f9054906101000a900473ffffffffffffffffffffffffffffffffffffffff1673ffffffffffffffffffffffffffffffffffffffff1614611ca657611b36611b1c611fd1565b600c5f8781526020019081526020015f20600101546120cd565b611b8e611b41611fd1565b600c5f8781526020019081526020015f205f015f9054906101000a900473ffffffffffffffffffffffffffffffffffffffff16600c5f8881526020019081526020015f20600101546122be565b6001600b5f600c5f8881526020019081526020015f205f015f9054906101000a900473ffffffffffffffffffffffffffffffffffffffff1673ffffffffffffffffffffffffffffffffffffffff1673ffffffffffffffffffffffffffffffffffffffff1681526020019081526020015f205f828254611c0d9190612e49565b9250508190555060405180604001604052805f73ffffffffffffffffffffffffffffffffffffffff1681526020015f815250600c5f8681526020019081526020015f205f820151815f015f6101000a81548173ffffffffffffffffffffffffffffffffffffffff021916908373ffffffffffffffffffffffffffffffffffffffff16021790555060208201518160010155905050611d87565b611caf84610bb5565b73ffffffffffffffffffffffffffffffffffffffff165f73ffffffffffffffffffffffffffffffffffffffff1614611d1c576040517f08c379a0000000000000000000000000000000000000000000000000000000008152600401611d1390613026565b60405180910390fd5b611d2f611d27611fd1565b6006546120cd565b611d4a611d3a611fd1565b611d42610ed5565b6006546122be565b60085f815480929190611d5c90613044565b919050555060075460085403611d86575f60095f6101000a81548160ff0219169083151502179055505b5b611d8f611fd1565b600a5f8681526020019081526020015f205f6101000a81548173ffffffffffffffffffffffffffffffffffffffff021916908373ffffffffffffffffffffffffffffffffffffffff1602179055506001600b5f611dea611fd1565b73ffffffffffffffffffffffffffffffffffffffff1673ffffffffffffffffffffffffffffffffffffffff1681526020019081526020015f205f828254611e319190612e7c565b9250508190555083611e41611fd1565b73ffffffffffffffffffffffffffffffffffffffff167fe597ef12064a0ee0e5030bc6ee7111ce71a32df2a90cc813f7232a0733d8940260405160405180910390a35050505b50565b611e92611fd1565b73ffffffffffffffffffffffffffffffffffffffff1660015f9054906101000a900473ffffffffffffffffffffffffffffffffffffffff1673ffffffffffffffffffffffffffffffffffffffff1614611f20576040517f08c379a0000000000000000000000000000000000000000000000000000000008152600401611f1790612a30565b60405180910390fd5b5f73ffffffffffffffffffffffffffffffffffffffff168173ffffffffffffffffffffffffffffffffffffffff1603611f8e576040517f08c379a0000000000000000000000000000000000000000000000000000000008152600401611f85906130fb565b60405180910390fd5b8060015f6101000a81548173ffffffffffffffffffffffffffffffffffffffff021916908373ffffffffffffffffffffffffffffffffffffffff16021790555050565b5f33905090565b5f8210158015611fea57506103e88211155b612029576040517f08c379a000000000000000000000000000000000000000000000000000000000815260040161202090613189565b60405180910390fd5b816003819055508060025f6101000a81548173ffffffffffffffffffffffffffffffffffffffff021916908373ffffffffffffffffffffffffffffffffffffffff1602179055505050565b6002600454036120b9576040517f08c379a00000000000000000000000000000000000000000000000000000000081526004016120b0906131f1565b60405180910390fd5b6002600481905550565b6001600481905550565b5f73ffffffffffffffffffffffffffffffffffffffff1660055f9054906101000a900473ffffffffffffffffffffffffffffffffffffffff1673ffffffffffffffffffffffffffffffffffffffff16036121d7575f73ffffffffffffffffffffffffffffffffffffffff168273ffffffffffffffffffffffffffffffffffffffff160361218f576040517f08c379a000000000000000000000000000000000000000000000000000000000815260040161218690613259565b60405180910390fd5b803410156121d2576040517f08c379a00000000000000000000000000000000000000000000000000000000081526004016121c9906132c1565b60405180910390fd5b6122ba565b5f60055f9054906101000a900473ffffffffffffffffffffffffffffffffffffffff169050818173ffffffffffffffffffffffffffffffffffffffff1663dd62ed3e85306040518363ffffffff1660e01b81526004016122389291906132df565b602060405180830381865afa158015612253573d5f803e3d5ffd5b505050506040513d601f19601f820116820180604052508101906122779190613306565b10156122b8576040517f08c379a00000000000000000000000000000000000000000000000000000000081526004016122af9061337b565b60405180910390fd5b505b5050565b5f73ffffffffffffffffffffffffffffffffffffffff1660055f9054906101000a900473ffffffffffffffffffffffffffffffffffffffff1673ffffffffffffffffffffffffffffffffffffffff160361235a5780341015612355576040517f08c379a000000000000000000000000000000000000000000000000000000000815260040161234c90613409565b60405180910390fd5b6123ff565b5f60055f9054906101000a900473ffffffffffffffffffffffffffffffffffffffff1690508073ffffffffffffffffffffffffffffffffffffffff166323b872dd8585856040518463ffffffff1660e01b81526004016123bc93929190613427565b6020604051808303815f875af11580156123d8573d5f803e3d5ffd5b505050506040513d601f19601f820116820180604052508101906123fc9190613470565b50505b505050565b5f80fd5b5f7fffffffff0000000000000000000000000000000000000000000000000000000082169050919050565b61243c81612408565b8114612446575f80fd5b50565b5f8135905061245781612433565b92915050565b5f6020828403121561247257612471612404565b5b5f61247f84828501612449565b91505092915050565b5f8115159050919050565b61249c81612488565b82525050565b5f6020820190506124b55f830184612493565b92915050565b5f819050919050565b6124cd816124bb565b82525050565b5f6020820190506124e65f8301846124c4565b92915050565b6124f5816124bb565b81146124ff575f80fd5b50565b5f81359050612510816124ec565b92915050565b5f6020828403121561252b5761252a612404565b5b5f61253884828501612502565b91505092915050565b5f73ffffffffffffffffffffffffffffffffffffffff82169050919050565b5f61256a82612541565b9050919050565b61257a81612560565b8114612584575f80fd5b50565b5f8135905061259581612571565b92915050565b5f80604083850312156125b1576125b0612404565b5b5f6125be85828601612502565b92505060206125cf85828601612587565b9150509250929050565b6125e281612560565b82525050565b5f6020820190506125fb5f8301846125d9565b92915050565b61260a81612488565b8114612614575f80fd5b50565b5f8135905061262581612601565b92915050565b5f805f806080858703121561264357612642612404565b5b5f61265087828801612502565b945050602061266187828801612502565b935050604061267287828801612502565b925050606061268387828801612617565b91505092959194509250565b5f602082840312156126a4576126a3612404565b5b5f6126b184828501612587565b91505092915050565b5f80604083850312156126d0576126cf612404565b5b5f6126dd85828601612502565b92505060206126ee85828601612502565b9150509250929050565b5f806040838503121561270e5761270d612404565b5b5f61271b85828601612587565b925050602061272c85828601612502565b9150509250929050565b5f81519050919050565b5f82825260208201905092915050565b5f5b8381101561276d578082015181840152602081019050612752565b5f8484015250505050565b5f601f19601f8301169050919050565b5f61279282612736565b61279c8185612740565b93506127ac818560208601612750565b6127b581612778565b840191505092915050565b5f6020820190508181035f8301526127d88184612788565b905092915050565b7f4f6e6c7920666163746f72792063616e2064657461636820697473656c6600005f82015250565b5f612814601e83612740565b915061281f826127e0565b602082019050919050565b5f6020820190508181035f83015261284181612808565b9050919050565b5f81519050612856816124ec565b92915050565b5f8151905061286a81612571565b92915050565b5f806040838503121561288657612885612404565b5b5f61289385828601612848565b92505060206128a48582860161285c565b9150509250929050565b7f506c656173652070726f7669646520656e6f75676820666565000000000000005f82015250565b5f6128e2601983612740565b91506128ed826128ae565b602082019050919050565b5f6020820190508181035f83015261290f816128d6565b9050919050565b7f596f7520646f6e2774206f776e2074686973207469636b6574000000000000005f82015250565b5f61294a601983612740565b915061295582612916565b602082019050919050565b5f6020820190508181035f8301526129778161293e565b9050919050565b7f5469636b6574206e6f7420666f722073616c65000000000000000000000000005f82015250565b5f6129b2601383612740565b91506129bd8261297e565b602082019050919050565b5f6020820190508181035f8301526129df816129a6565b9050919050565b7f4f776e65723a2063616c6c6572206973206e6f7420746865206f776e657200005f82015250565b5f612a1a601e83612740565b9150612a25826129e6565b602082019050919050565b5f6020820190508181035f830152612a4781612a0e565b9050919050565b7f496e76616c6964207461782076616c75650000000000000000000000000000005f82015250565b5f612a82601183612740565b9150612a8d82612a4e565b602082019050919050565b5f6020820190508181035f830152612aaf81612a76565b9050919050565b7f4d617820313020646563696d616c7300000000000000000000000000000000005f82015250565b5f612aea600f83612740565b9150612af582612ab6565b602082019050919050565b5f6020820190508181035f830152612b1781612ade565b9050919050565b7f41646472657373207a65726f206973206e6f7420612076616c6964206f776e655f8201527f7200000000000000000000000000000000000000000000000000000000000000602082015250565b5f612b78602183612740565b9150612b8382612b1e565b604082019050919050565b5f6020820190508181035f830152612ba581612b6c565b9050919050565b7f50726573616c65206973206163746976650000000000000000000000000000005f82015250565b5f612be0601183612740565b9150612beb82612bac565b602082019050919050565b5f6020820190508181035f830152612c0d81612bd4565b9050919050565b7f54726164696e672069732064697361626c6564000000000000000000000000005f82015250565b5f612c48601383612740565b9150612c5382612c14565b602082019050919050565b5f6020820190508181035f830152612c7581612c3c565b9050919050565b7f5072696365206d7573742062652067726561746572207468616e207a65726f005f82015250565b5f612cb0601f83612740565b9150612cbb82612c7c565b602082019050919050565b5f6020820190508181035f830152612cdd81612ca4565b9050919050565b7f416c726561647920666f722073616c65000000000000000000000000000000005f82015250565b5f612d18601083612740565b9150612d2382612ce4565b602082019050919050565b5f6020820190508181035f830152612d4581612d0c565b9050919050565b7f5472616e736665722063616c6c6572206973206e6f74206f776e6572000000005f82015250565b5f612d80601c83612740565b9150612d8b82612d4c565b602082019050919050565b5f6020820190508181035f830152612dad81612d74565b9050919050565b7f5472616e7366657220746f20746865207a65726f2061646472657373000000005f82015250565b5f612de8601c83612740565b9150612df382612db4565b602082019050919050565b5f6020820190508181035f830152612e1581612ddc565b9050919050565b7f4e487b71000000000000000000000000000000000000000000000000000000005f52601160045260245ffd5b5f612e53826124bb565b9150612e5e836124bb565b9250828203905081811115612e7657612e75612e1c565b5b92915050565b5f612e86826124bb565b9150612e91836124bb565b9250828201905080821115612ea957612ea8612e1c565b5b92915050565b7f4e487b71000000000000000000000000000000000000000000000000000000005f52602260045260245ffd5b5f6002820490506001821680612ef357607f821691505b602082108103612f0657612f05612eaf565b5b50919050565b7f5469636b657420736f6c64206f757400000000000000000000000000000000005f82015250565b5f612f40600f83612740565b9150612f4b82612f0c565b602082019050919050565b5f6020820190508181035f830152612f6d81612f34565b9050919050565b7f596f7520616c7265616479206f776e2074686973207469636b657400000000005f82015250565b5f612fa8601b83612740565b9150612fb382612f74565b602082019050919050565b5f6020820190508181035f830152612fd581612f9c565b9050919050565b7f5469636b6574206e6f7420617661696c61626c650000000000000000000000005f82015250565b5f613010601483612740565b915061301b82612fdc565b602082019050919050565b5f6020820190508181035f83015261303d81613004565b9050919050565b5f61304e826124bb565b91507fffffffffffffffffffffffffffffffffffffffffffffffffffffffffffffffff82036130805761307f612e1c565b5b600182019050919050565b7f4f776e61626c653a206e6577206f776e657220697320746865207a65726f20615f8201527f6464726573730000000000000000000000000000000000000000000000000000602082015250565b5f6130e5602683612740565b91506130f08261308b565b604082019050919050565b5f6020820190508181035f830152613112816130d9565b9050919050565b7f526f79616c7479206d757374206265206265747765656e203020616e642031305f8201527f3030000000000000000000000000000000000000000000000000000000000000602082015250565b5f613173602283612740565b915061317e82613119565b604082019050919050565b5f6020820190508181035f8301526131a081613167565b9050919050565b7f5265656e7472616e637947756172643a207265656e7472616e742063616c6c005f82015250565b5f6131db601f83612740565b91506131e6826131a7565b602082019050919050565b5f6020820190508181035f830152613208816131cf565b9050919050565b7f496e76616c69642073656e6465720000000000000000000000000000000000005f82015250565b5f613243600e83612740565b915061324e8261320f565b602082019050919050565b5f6020820190508181035f83015261327081613237565b9050919050565b7f496e73756666696369656e7420746f6b656e207375626d6974746564000000005f82015250565b5f6132ab601c83612740565b91506132b682613277565b602082019050919050565b5f6020820190508181035f8301526132d88161329f565b9050919050565b5f6040820190506132f25f8301856125d9565b6132ff60208301846125d9565b9392505050565b5f6020828403121561331b5761331a612404565b5b5f61332884828501612848565b91505092915050565b7f496e73756666696369656e7420616c6c6f77616e63652070726f7669646564005f82015250565b5f613365601f83612740565b915061337082613331565b602082019050919050565b5f6020820190508181035f83015261339281613359565b9050919050565b7f496e73756666696369656e742066756e64732070726f7669646564202876616c5f8201527f7565290000000000000000000000000000000000000000000000000000000000602082015250565b5f6133f3602383612740565b91506133fe82613399565b604082019050919050565b5f6020820190508181035f830152613420816133e7565b9050919050565b5f60608201905061343a5f8301866125d9565b61344760208301856125d9565b61345460408301846124c4565b949350505050565b5f8151905061346a81612601565b92915050565b5f6020828403121561348557613484612404565b5b5f6134928482850161345c565b9150509291505056fea2646970667358221220b80bfcbcef554cc0f29a8580dc09098ea35a374fb4e54fdba9adc972c4cb30f864736f6c63430008180033",
					"opcodes": "PUSH1 0x80 PUSH1 0x40 MSTORE PUSH0 PUSH1 0x3 SSTORE PUSH0 PUSH1 0x8 SSTORE PUSH1 0x1 PUSH1 0x9 PUSH0 PUSH2 0x100 EXP DUP2 SLOAD DUP2 PUSH1 0xFF MUL NOT AND SWAP1 DUP4 ISZERO ISZERO MUL OR SWAP1 SSTORE POP PUSH0 PUSH1 0x9 PUSH1 0x1 PUSH2 0x100 EXP DUP2 SLOAD DUP2 PUSH1 0xFF MUL NOT AND SWAP1 DUP4 ISZERO ISZERO MUL OR SWAP1 SSTORE POP CALLVALUE DUP1 ISZERO PUSH3 0x4C JUMPI PUSH0 DUP1 REVERT JUMPDEST POP PUSH1 0x40 MLOAD PUSH3 0x3C56 CODESIZE SUB DUP1 PUSH3 0x3C56 DUP4 CODECOPY DUP2 DUP2 ADD PUSH1 0x40 MSTORE DUP2 ADD SWAP1 PUSH3 0x72 SWAP2 SWAP1 PUSH3 0x367 JUMP JUMPDEST DUP6 DUP2 DUP4 DUP1 PUSH0 DUP1 PUSH2 0x100 EXP DUP2 SLOAD DUP2 PUSH20 0xFFFFFFFFFFFFFFFFFFFFFFFFFFFFFFFFFFFFFFFF MUL NOT AND SWAP1 DUP4 PUSH20 0xFFFFFFFFFFFFFFFFFFFFFFFFFFFFFFFFFFFFFFFF AND MUL OR SWAP1 SSTORE POP DUP2 PUSH1 0x1 PUSH0 PUSH2 0x100 EXP DUP2 SLOAD DUP2 PUSH20 0xFFFFFFFFFFFFFFFFFFFFFFFFFFFFFFFFFFFFFFFF MUL NOT AND SWAP1 DUP4 PUSH20 0xFFFFFFFFFFFFFFFFFFFFFFFFFFFFFFFFFFFFFFFF AND MUL OR SWAP1 SSTORE POP POP POP PUSH1 0x1 PUSH1 0x4 DUP2 SWAP1 SSTORE POP DUP1 PUSH1 0x5 PUSH0 PUSH2 0x100 EXP DUP2 SLOAD DUP2 PUSH20 0xFFFFFFFFFFFFFFFFFFFFFFFFFFFFFFFFFFFFFFFF MUL NOT AND SWAP1 DUP4 PUSH20 0xFFFFFFFFFFFFFFFFFFFFFFFFFFFFFFFFFFFFFFFF AND MUL OR SWAP1 SSTORE POP POP DUP4 PUSH1 0xE SWAP1 DUP2 PUSH3 0x150 SWAP2 SWAP1 PUSH3 0x693 JUMP JUMPDEST POP DUP5 PUSH1 0xD SWAP1 DUP2 PUSH3 0x162 SWAP2 SWAP1 PUSH3 0x693 JUMP JUMPDEST POP DUP3 PUSH1 0xF SWAP1 DUP2 PUSH3 0x174 SWAP2 SWAP1 PUSH3 0x693 JUMP JUMPDEST POP POP POP POP POP POP POP PUSH3 0x777 JUMP JUMPDEST PUSH0 PUSH1 0x40 MLOAD SWAP1 POP SWAP1 JUMP JUMPDEST PUSH0 DUP1 REVERT JUMPDEST PUSH0 DUP1 REVERT JUMPDEST PUSH0 PUSH20 0xFFFFFFFFFFFFFFFFFFFFFFFFFFFFFFFFFFFFFFFF DUP3 AND SWAP1 POP SWAP2 SWAP1 POP JUMP JUMPDEST PUSH0 PUSH3 0x1BD DUP3 PUSH3 0x192 JUMP JUMPDEST SWAP1 POP SWAP2 SWAP1 POP JUMP JUMPDEST PUSH3 0x1CF DUP2 PUSH3 0x1B1 JUMP JUMPDEST DUP2 EQ PUSH3 0x1DA JUMPI PUSH0 DUP1 REVERT JUMPDEST POP JUMP JUMPDEST PUSH0 DUP2 MLOAD SWAP1 POP PUSH3 0x1ED DUP2 PUSH3 0x1C4 JUMP JUMPDEST SWAP3 SWAP2 POP POP JUMP JUMPDEST PUSH0 DUP1 REVERT JUMPDEST PUSH0 DUP1 REVERT JUMPDEST PUSH0 PUSH1 0x1F NOT PUSH1 0x1F DUP4 ADD AND SWAP1 POP SWAP2 SWAP1 POP JUMP JUMPDEST PUSH32 0x4E487B7100000000000000000000000000000000000000000000000000000000 PUSH0 MSTORE PUSH1 0x41 PUSH1 0x4 MSTORE PUSH1 0x24 PUSH0 REVERT JUMPDEST PUSH3 0x243 DUP3 PUSH3 0x1FB JUMP JUMPDEST DUP2 ADD DUP2 DUP2 LT PUSH8 0xFFFFFFFFFFFFFFFF DUP3 GT OR ISZERO PUSH3 0x265 JUMPI PUSH3 0x264 PUSH3 0x20B JUMP JUMPDEST JUMPDEST DUP1 PUSH1 0x40 MSTORE POP POP POP JUMP JUMPDEST PUSH0 PUSH3 0x279 PUSH3 0x181 JUMP JUMPDEST SWAP1 POP PUSH3 0x287 DUP3 DUP3 PUSH3 0x238 JUMP JUMPDEST SWAP2 SWAP1 POP JUMP JUMPDEST PUSH0 PUSH8 0xFFFFFFFFFFFFFFFF DUP3 GT ISZERO PUSH3 0x2A9 JUMPI PUSH3 0x2A8 PUSH3 0x20B JUMP JUMPDEST JUMPDEST PUSH3 0x2B4 DUP3 PUSH3 0x1FB JUMP JUMPDEST SWAP1 POP PUSH1 0x20 DUP2 ADD SWAP1 POP SWAP2 SWAP1 POP JUMP JUMPDEST PUSH0 JUMPDEST DUP4 DUP2 LT ISZERO PUSH3 0x2E0 JUMPI DUP1 DUP3 ADD MLOAD DUP2 DUP5 ADD MSTORE PUSH1 0x20 DUP2 ADD SWAP1 POP PUSH3 0x2C3 JUMP JUMPDEST PUSH0 DUP5 DUP5 ADD MSTORE POP POP POP POP JUMP JUMPDEST PUSH0 PUSH3 0x301 PUSH3 0x2FB DUP5 PUSH3 0x28C JUMP JUMPDEST PUSH3 0x26E JUMP JUMPDEST SWAP1 POP DUP3 DUP2 MSTORE PUSH1 0x20 DUP2 ADD DUP5 DUP5 DUP5 ADD GT ISZERO PUSH3 0x320 JUMPI PUSH3 0x31F PUSH3 0x1F7 JUMP JUMPDEST JUMPDEST PUSH3 0x32D DUP5 DUP3 DUP6 PUSH3 0x2C1 JUMP JUMPDEST POP SWAP4 SWAP3 POP POP POP JUMP JUMPDEST PUSH0 DUP3 PUSH1 0x1F DUP4 ADD SLT PUSH3 0x34C JUMPI PUSH3 0x34B PUSH3 0x1F3 JUMP JUMPDEST JUMPDEST DUP2 MLOAD PUSH3 0x35E DUP5 DUP3 PUSH1 0x20 DUP7 ADD PUSH3 0x2EB JUMP JUMPDEST SWAP2 POP POP SWAP3 SWAP2 POP POP JUMP JUMPDEST PUSH0 DUP1 PUSH0 DUP1 PUSH0 DUP1 PUSH1 0xC0 DUP8 DUP10 SUB SLT ISZERO PUSH3 0x384 JUMPI PUSH3 0x383 PUSH3 0x18A JUMP JUMPDEST JUMPDEST PUSH0 PUSH3 0x393 DUP10 DUP3 DUP11 ADD PUSH3 0x1DD JUMP JUMPDEST SWAP7 POP POP PUSH1 0x20 DUP8 ADD MLOAD PUSH8 0xFFFFFFFFFFFFFFFF DUP2 GT ISZERO PUSH3 0x3B7 JUMPI PUSH3 0x3B6 PUSH3 0x18E JUMP JUMPDEST JUMPDEST PUSH3 0x3C5 DUP10 DUP3 DUP11 ADD PUSH3 0x335 JUMP JUMPDEST SWAP6 POP POP PUSH1 0x40 DUP8 ADD MLOAD PUSH8 0xFFFFFFFFFFFFFFFF DUP2 GT ISZERO PUSH3 0x3E9 JUMPI PUSH3 0x3E8 PUSH3 0x18E JUMP JUMPDEST JUMPDEST PUSH3 0x3F7 DUP10 DUP3 DUP11 ADD PUSH3 0x335 JUMP JUMPDEST SWAP5 POP POP PUSH1 0x60 DUP8 ADD MLOAD PUSH8 0xFFFFFFFFFFFFFFFF DUP2 GT ISZERO PUSH3 0x41B JUMPI PUSH3 0x41A PUSH3 0x18E JUMP JUMPDEST JUMPDEST PUSH3 0x429 DUP10 DUP3 DUP11 ADD PUSH3 0x335 JUMP JUMPDEST SWAP4 POP POP PUSH1 0x80 PUSH3 0x43C DUP10 DUP3 DUP11 ADD PUSH3 0x1DD JUMP JUMPDEST SWAP3 POP POP PUSH1 0xA0 PUSH3 0x44F DUP10 DUP3 DUP11 ADD PUSH3 0x1DD JUMP JUMPDEST SWAP2 POP POP SWAP3 SWAP6 POP SWAP3 SWAP6 POP SWAP3 SWAP6 JUMP JUMPDEST PUSH0 DUP2 MLOAD SWAP1 POP SWAP2 SWAP1 POP JUMP JUMPDEST PUSH32 0x4E487B7100000000000000000000000000000000000000000000000000000000 PUSH0 MSTORE PUSH1 0x22 PUSH1 0x4 MSTORE PUSH1 0x24 PUSH0 REVERT JUMPDEST PUSH0 PUSH1 0x2 DUP3 DIV SWAP1 POP PUSH1 0x1 DUP3 AND DUP1 PUSH3 0x4AB JUMPI PUSH1 0x7F DUP3 AND SWAP2 POP JUMPDEST PUSH1 0x20 DUP3 LT DUP2 SUB PUSH3 0x4C1 JUMPI PUSH3 0x4C0 PUSH3 0x466 JUMP JUMPDEST JUMPDEST POP SWAP2 SWAP1 POP JUMP JUMPDEST PUSH0 DUP2 SWAP1 POP DUP2 PUSH0 MSTORE PUSH1 0x20 PUSH0 KECCAK256 SWAP1 POP SWAP2 SWAP1 POP JUMP JUMPDEST PUSH0 PUSH1 0x20 PUSH1 0x1F DUP4 ADD DIV SWAP1 POP SWAP2 SWAP1 POP JUMP JUMPDEST PUSH0 DUP3 DUP3 SHL SWAP1 POP SWAP3 SWAP2 POP POP JUMP JUMPDEST PUSH0 PUSH1 0x8 DUP4 MUL PUSH3 0x525 PUSH32 0xFFFFFFFFFFFFFFFFFFFFFFFFFFFFFFFFFFFFFFFFFFFFFFFFFFFFFFFFFFFFFFFF DUP3 PUSH3 0x4E8 JUMP JUMPDEST PUSH3 0x531 DUP7 DUP4 PUSH3 0x4E8 JUMP JUMPDEST SWAP6 POP DUP1 NOT DUP5 AND SWAP4 POP DUP1 DUP7 AND DUP5 OR SWAP3 POP POP POP SWAP4 SWAP3 POP POP POP JUMP JUMPDEST PUSH0 DUP2 SWAP1 POP SWAP2 SWAP1 POP JUMP JUMPDEST PUSH0 DUP2 SWAP1 POP SWAP2 SWAP1 POP JUMP JUMPDEST PUSH0 PUSH3 0x57B PUSH3 0x575 PUSH3 0x56F DUP5 PUSH3 0x549 JUMP JUMPDEST PUSH3 0x552 JUMP JUMPDEST PUSH3 0x549 JUMP JUMPDEST SWAP1 POP SWAP2 SWAP1 POP JUMP JUMPDEST PUSH0 DUP2 SWAP1 POP SWAP2 SWAP1 POP JUMP JUMPDEST PUSH3 0x596 DUP4 PUSH3 0x55B JUMP JUMPDEST PUSH3 0x5AE PUSH3 0x5A5 DUP3 PUSH3 0x582 JUMP JUMPDEST DUP5 DUP5 SLOAD PUSH3 0x4F4 JUMP JUMPDEST DUP3 SSTORE POP POP POP POP JUMP JUMPDEST PUSH0 SWAP1 JUMP JUMPDEST PUSH3 0x5C4 PUSH3 0x5B6 JUMP JUMPDEST PUSH3 0x5D1 DUP2 DUP5 DUP5 PUSH3 0x58B JUMP JUMPDEST POP POP POP JUMP JUMPDEST JUMPDEST DUP2 DUP2 LT ISZERO PUSH3 0x5F8 JUMPI PUSH3 0x5EC PUSH0 DUP3 PUSH3 0x5BA JUMP JUMPDEST PUSH1 0x1 DUP2 ADD SWAP1 POP PUSH3 0x5D7 JUMP JUMPDEST POP POP JUMP JUMPDEST PUSH1 0x1F DUP3 GT ISZERO PUSH3 0x647 JUMPI PUSH3 0x611 DUP2 PUSH3 0x4C7 JUMP JUMPDEST PUSH3 0x61C DUP5 PUSH3 0x4D9 JUMP JUMPDEST DUP2 ADD PUSH1 0x20 DUP6 LT ISZERO PUSH3 0x62C JUMPI DUP2 SWAP1 POP JUMPDEST PUSH3 0x644 PUSH3 0x63B DUP6 PUSH3 0x4D9 JUMP JUMPDEST DUP4 ADD DUP3 PUSH3 0x5D6 JUMP JUMPDEST POP POP JUMPDEST POP POP POP JUMP JUMPDEST PUSH0 DUP3 DUP3 SHR SWAP1 POP SWAP3 SWAP2 POP POP JUMP JUMPDEST PUSH0 PUSH3 0x669 PUSH0 NOT DUP5 PUSH1 0x8 MUL PUSH3 0x64C JUMP JUMPDEST NOT DUP1 DUP4 AND SWAP2 POP POP SWAP3 SWAP2 POP POP JUMP JUMPDEST PUSH0 PUSH3 0x683 DUP4 DUP4 PUSH3 0x658 JUMP JUMPDEST SWAP2 POP DUP3 PUSH1 0x2 MUL DUP3 OR SWAP1 POP SWAP3 SWAP2 POP POP JUMP JUMPDEST PUSH3 0x69E DUP3 PUSH3 0x45C JUMP JUMPDEST PUSH8 0xFFFFFFFFFFFFFFFF DUP2 GT ISZERO PUSH3 0x6BA JUMPI PUSH3 0x6B9 PUSH3 0x20B JUMP JUMPDEST JUMPDEST PUSH3 0x6C6 DUP3 SLOAD PUSH3 0x493 JUMP JUMPDEST PUSH3 0x6D3 DUP3 DUP3 DUP6 PUSH3 0x5FC JUMP JUMPDEST PUSH0 PUSH1 0x20 SWAP1 POP PUSH1 0x1F DUP4 GT PUSH1 0x1 DUP2 EQ PUSH3 0x709 JUMPI PUSH0 DUP5 ISZERO PUSH3 0x6F4 JUMPI DUP3 DUP8 ADD MLOAD SWAP1 POP JUMPDEST PUSH3 0x700 DUP6 DUP3 PUSH3 0x676 JUMP JUMPDEST DUP7 SSTORE POP PUSH3 0x76F JUMP JUMPDEST PUSH1 0x1F NOT DUP5 AND PUSH3 0x719 DUP7 PUSH3 0x4C7 JUMP JUMPDEST PUSH0 JUMPDEST DUP3 DUP2 LT ISZERO PUSH3 0x742 JUMPI DUP5 DUP10 ADD MLOAD DUP3 SSTORE PUSH1 0x1 DUP3 ADD SWAP2 POP PUSH1 0x20 DUP6 ADD SWAP5 POP PUSH1 0x20 DUP2 ADD SWAP1 POP PUSH3 0x71B JUMP JUMPDEST DUP7 DUP4 LT ISZERO PUSH3 0x762 JUMPI DUP5 DUP10 ADD MLOAD PUSH3 0x75E PUSH1 0x1F DUP10 AND DUP3 PUSH3 0x658 JUMP JUMPDEST DUP4 SSTORE POP JUMPDEST PUSH1 0x1 PUSH1 0x2 DUP9 MUL ADD DUP9 SSTORE POP POP POP JUMPDEST POP POP POP POP POP POP JUMP JUMPDEST PUSH2 0x34D1 DUP1 PUSH3 0x785 PUSH0 CODECOPY PUSH0 RETURN INVALID PUSH1 0x80 PUSH1 0x40 MSTORE PUSH1 0x4 CALLDATASIZE LT PUSH2 0x129 JUMPI PUSH0 CALLDATALOAD PUSH1 0xE0 SHR DUP1 PUSH4 0x70A08231 GT PUSH2 0xAA JUMPI DUP1 PUSH4 0xA9059CBB GT PUSH2 0x6E JUMPI DUP1 PUSH4 0xA9059CBB EQ PUSH2 0x3AB JUMPI DUP1 PUSH4 0xB9186D7D EQ PUSH2 0x3C7 JUMPI DUP1 PUSH4 0xC87B56DD EQ PUSH2 0x403 JUMPI DUP1 PUSH4 0xE632C2F3 EQ PUSH2 0x43F JUMPI DUP1 PUSH4 0xEFEF39A1 EQ PUSH2 0x469 JUMPI DUP1 PUSH4 0xF2FDE38B EQ PUSH2 0x485 JUMPI PUSH2 0x129 JUMP JUMPDEST DUP1 PUSH4 0x70A08231 EQ PUSH2 0x2C3 JUMPI DUP1 PUSH4 0x8546D002 EQ PUSH2 0x2FF JUMPI DUP1 PUSH4 0x8DA5CB5B EQ PUSH2 0x33B JUMPI DUP1 PUSH4 0xA035B1FE EQ PUSH2 0x365 JUMPI DUP1 PUSH4 0xA1920586 EQ PUSH2 0x38F JUMPI PUSH2 0x129 JUMP JUMPDEST DUP1 PUSH4 0x54840C6E GT PUSH2 0xF1 JUMPI DUP1 PUSH4 0x54840C6E EQ PUSH2 0x1EF JUMPI DUP1 PUSH4 0x5A7ADF7F EQ PUSH2 0x219 JUMPI DUP1 PUSH4 0x5DE42985 EQ PUSH2 0x243 JUMPI DUP1 PUSH4 0x6352211E EQ PUSH2 0x25F JUMPI DUP1 PUSH4 0x6A1EDE9C EQ PUSH2 0x29B JUMPI PUSH2 0x129 JUMP JUMPDEST DUP1 PUSH4 0x1FFC9A7 EQ PUSH2 0x12D JUMPI DUP1 PUSH4 0x18160DDD EQ PUSH2 0x169 JUMPI DUP1 PUSH4 0x225435C0 EQ PUSH2 0x193 JUMPI DUP1 PUSH4 0x40E58EE5 EQ PUSH2 0x1A9 JUMPI DUP1 PUSH4 0x4D47732A EQ PUSH2 0x1C5 JUMPI JUMPDEST PUSH0 DUP1 REVERT JUMPDEST CALLVALUE DUP1 ISZERO PUSH2 0x138 JUMPI PUSH0 DUP1 REVERT JUMPDEST POP PUSH2 0x153 PUSH1 0x4 DUP1 CALLDATASIZE SUB DUP2 ADD SWAP1 PUSH2 0x14E SWAP2 SWAP1 PUSH2 0x245D JUMP JUMPDEST PUSH2 0x4AD JUMP JUMPDEST PUSH1 0x40 MLOAD PUSH2 0x160 SWAP2 SWAP1 PUSH2 0x24A2 JUMP JUMPDEST PUSH1 0x40 MLOAD DUP1 SWAP2 SUB SWAP1 RETURN JUMPDEST CALLVALUE DUP1 ISZERO PUSH2 0x174 JUMPI PUSH0 DUP1 REVERT JUMPDEST POP PUSH2 0x17D PUSH2 0x57E JUMP JUMPDEST PUSH1 0x40 MLOAD PUSH2 0x18A SWAP2 SWAP1 PUSH2 0x24D3 JUMP JUMPDEST PUSH1 0x40 MLOAD DUP1 SWAP2 SUB SWAP1 RETURN JUMPDEST CALLVALUE DUP1 ISZERO PUSH2 0x19E JUMPI PUSH0 DUP1 REVERT JUMPDEST POP PUSH2 0x1A7 PUSH2 0x584 JUMP JUMPDEST STOP JUMPDEST PUSH2 0x1C3 PUSH1 0x4 DUP1 CALLDATASIZE SUB DUP2 ADD SWAP1 PUSH2 0x1BE SWAP2 SWAP1 PUSH2 0x2516 JUMP JUMPDEST PUSH2 0x659 JUMP JUMPDEST STOP JUMPDEST CALLVALUE DUP1 ISZERO PUSH2 0x1D0 JUMPI PUSH0 DUP1 REVERT JUMPDEST POP PUSH2 0x1D9 PUSH2 0x96E JUMP JUMPDEST PUSH1 0x40 MLOAD PUSH2 0x1E6 SWAP2 SWAP1 PUSH2 0x24D3 JUMP JUMPDEST PUSH1 0x40 MLOAD DUP1 SWAP2 SUB SWAP1 RETURN JUMPDEST CALLVALUE DUP1 ISZERO PUSH2 0x1FA JUMPI PUSH0 DUP1 REVERT JUMPDEST POP PUSH2 0x203 PUSH2 0x977 JUMP JUMPDEST PUSH1 0x40 MLOAD PUSH2 0x210 SWAP2 SWAP1 PUSH2 0x24A2 JUMP JUMPDEST PUSH1 0x40 MLOAD DUP1 SWAP2 SUB SWAP1 RETURN JUMPDEST CALLVALUE DUP1 ISZERO PUSH2 0x224 JUMPI PUSH0 DUP1 REVERT JUMPDEST POP PUSH2 0x22D PUSH2 0x98A JUMP JUMPDEST PUSH1 0x40 MLOAD PUSH2 0x23A SWAP2 SWAP1 PUSH2 0x24A2 JUMP JUMPDEST PUSH1 0x40 MLOAD DUP1 SWAP2 SUB SWAP1 RETURN JUMPDEST PUSH2 0x25D PUSH1 0x4 DUP1 CALLDATASIZE SUB DUP2 ADD SWAP1 PUSH2 0x258 SWAP2 SWAP1 PUSH2 0x259B JUMP JUMPDEST PUSH2 0x99C JUMP JUMPDEST STOP JUMPDEST CALLVALUE DUP1 ISZERO PUSH2 0x26A JUMPI PUSH0 DUP1 REVERT JUMPDEST POP PUSH2 0x285 PUSH1 0x4 DUP1 CALLDATASIZE SUB DUP2 ADD SWAP1 PUSH2 0x280 SWAP2 SWAP1 PUSH2 0x2516 JUMP JUMPDEST PUSH2 0xBB5 JUMP JUMPDEST PUSH1 0x40 MLOAD PUSH2 0x292 SWAP2 SWAP1 PUSH2 0x25E8 JUMP JUMPDEST PUSH1 0x40 MLOAD DUP1 SWAP2 SUB SWAP1 RETURN JUMPDEST CALLVALUE DUP1 ISZERO PUSH2 0x2A6 JUMPI PUSH0 DUP1 REVERT JUMPDEST POP PUSH2 0x2C1 PUSH1 0x4 DUP1 CALLDATASIZE SUB DUP2 ADD SWAP1 PUSH2 0x2BC SWAP2 SWAP1 PUSH2 0x262B JUMP JUMPDEST PUSH2 0xBEE JUMP JUMPDEST STOP JUMPDEST CALLVALUE DUP1 ISZERO PUSH2 0x2CE JUMPI PUSH0 DUP1 REVERT JUMPDEST POP PUSH2 0x2E9 PUSH1 0x4 DUP1 CALLDATASIZE SUB DUP2 ADD SWAP1 PUSH2 0x2E4 SWAP2 SWAP1 PUSH2 0x268F JUMP JUMPDEST PUSH2 0xD79 JUMP JUMPDEST PUSH1 0x40 MLOAD PUSH2 0x2F6 SWAP2 SWAP1 PUSH2 0x24D3 JUMP JUMPDEST PUSH1 0x40 MLOAD DUP1 SWAP2 SUB SWAP1 RETURN JUMPDEST CALLVALUE DUP1 ISZERO PUSH2 0x30A JUMPI PUSH0 DUP1 REVERT JUMPDEST POP PUSH2 0x325 PUSH1 0x4 DUP1 CALLDATASIZE SUB DUP2 ADD SWAP1 PUSH2 0x320 SWAP2 SWAP1 PUSH2 0x2516 JUMP JUMPDEST PUSH2 0xE2D JUMP JUMPDEST PUSH1 0x40 MLOAD PUSH2 0x332 SWAP2 SWAP1 PUSH2 0x24A2 JUMP JUMPDEST PUSH1 0x40 MLOAD DUP1 SWAP2 SUB SWAP1 RETURN JUMPDEST CALLVALUE DUP1 ISZERO PUSH2 0x346 JUMPI PUSH0 DUP1 REVERT JUMPDEST POP PUSH2 0x34F PUSH2 0xED5 JUMP JUMPDEST PUSH1 0x40 MLOAD PUSH2 0x35C SWAP2 SWAP1 PUSH2 0x25E8 JUMP JUMPDEST PUSH1 0x40 MLOAD DUP1 SWAP2 SUB SWAP1 RETURN JUMPDEST CALLVALUE DUP1 ISZERO PUSH2 0x370 JUMPI PUSH0 DUP1 REVERT JUMPDEST POP PUSH2 0x379 PUSH2 0xEFD JUMP JUMPDEST PUSH1 0x40 MLOAD PUSH2 0x386 SWAP2 SWAP1 PUSH2 0x24D3 JUMP JUMPDEST PUSH1 0x40 MLOAD DUP1 SWAP2 SUB SWAP1 RETURN JUMPDEST PUSH2 0x3A9 PUSH1 0x4 DUP1 CALLDATASIZE SUB DUP2 ADD SWAP1 PUSH2 0x3A4 SWAP2 SWAP1 PUSH2 0x26BA JUMP JUMPDEST PUSH2 0xF03 JUMP JUMPDEST STOP JUMPDEST PUSH2 0x3C5 PUSH1 0x4 DUP1 CALLDATASIZE SUB DUP2 ADD SWAP1 PUSH2 0x3C0 SWAP2 SWAP1 PUSH2 0x26F8 JUMP JUMPDEST PUSH2 0x131D JUMP JUMPDEST STOP JUMPDEST CALLVALUE DUP1 ISZERO PUSH2 0x3D2 JUMPI PUSH0 DUP1 REVERT JUMPDEST POP PUSH2 0x3ED PUSH1 0x4 DUP1 CALLDATASIZE SUB DUP2 ADD SWAP1 PUSH2 0x3E8 SWAP2 SWAP1 PUSH2 0x2516 JUMP JUMPDEST PUSH2 0x177D JUMP JUMPDEST PUSH1 0x40 MLOAD PUSH2 0x3FA SWAP2 SWAP1 PUSH2 0x24D3 JUMP JUMPDEST PUSH1 0x40 MLOAD DUP1 SWAP2 SUB SWAP1 RETURN JUMPDEST CALLVALUE DUP1 ISZERO PUSH2 0x40E JUMPI PUSH0 DUP1 REVERT JUMPDEST POP PUSH2 0x429 PUSH1 0x4 DUP1 CALLDATASIZE SUB DUP2 ADD SWAP1 PUSH2 0x424 SWAP2 SWAP1 PUSH2 0x2516 JUMP JUMPDEST PUSH2 0x179A JUMP JUMPDEST PUSH1 0x40 MLOAD PUSH2 0x436 SWAP2 SWAP1 PUSH2 0x27C0 JUMP JUMPDEST PUSH1 0x40 MLOAD DUP1 SWAP2 SUB SWAP1 RETURN JUMPDEST CALLVALUE DUP1 ISZERO PUSH2 0x44A JUMPI PUSH0 DUP1 REVERT JUMPDEST POP PUSH2 0x453 PUSH2 0x182C JUMP JUMPDEST PUSH1 0x40 MLOAD PUSH2 0x460 SWAP2 SWAP1 PUSH2 0x24D3 JUMP JUMPDEST PUSH1 0x40 MLOAD DUP1 SWAP2 SUB SWAP1 RETURN JUMPDEST PUSH2 0x483 PUSH1 0x4 DUP1 CALLDATASIZE SUB DUP2 ADD SWAP1 PUSH2 0x47E SWAP2 SWAP1 PUSH2 0x2516 JUMP JUMPDEST PUSH2 0x1832 JUMP JUMPDEST STOP JUMPDEST CALLVALUE DUP1 ISZERO PUSH2 0x490 JUMPI PUSH0 DUP1 REVERT JUMPDEST POP PUSH2 0x4AB PUSH1 0x4 DUP1 CALLDATASIZE SUB DUP2 ADD SWAP1 PUSH2 0x4A6 SWAP2 SWAP1 PUSH2 0x268F JUMP JUMPDEST PUSH2 0x1E8A JUMP JUMPDEST STOP JUMPDEST PUSH0 PUSH32 0x80AC58CD00000000000000000000000000000000000000000000000000000000 PUSH28 0xFFFFFFFFFFFFFFFFFFFFFFFFFFFFFFFFFFFFFFFFFFFFFFFFFFFFFFFF NOT AND DUP3 PUSH28 0xFFFFFFFFFFFFFFFFFFFFFFFFFFFFFFFFFFFFFFFFFFFFFFFFFFFFFFFF NOT AND EQ DUP1 PUSH2 0x577 JUMPI POP PUSH32 0x5B5E139F00000000000000000000000000000000000000000000000000000000 PUSH28 0xFFFFFFFFFFFFFFFFFFFFFFFFFFFFFFFFFFFFFFFFFFFFFFFFFFFFFFFF NOT AND DUP3 PUSH28 0xFFFFFFFFFFFFFFFFFFFFFFFFFFFFFFFFFFFFFFFFFFFFFFFFFFFFFFFF NOT AND EQ JUMPDEST SWAP1 POP SWAP2 SWAP1 POP JUMP JUMPDEST PUSH1 0x7 SLOAD DUP2 JUMP JUMPDEST PUSH2 0x58C PUSH2 0x1FD1 JUMP JUMPDEST PUSH20 0xFFFFFFFFFFFFFFFFFFFFFFFFFFFFFFFFFFFFFFFF AND PUSH0 DUP1 SLOAD SWAP1 PUSH2 0x100 EXP SWAP1 DIV PUSH20 0xFFFFFFFFFFFFFFFFFFFFFFFFFFFFFFFFFFFFFFFF AND PUSH20 0xFFFFFFFFFFFFFFFFFFFFFFFFFFFFFFFFFFFFFFFF AND EQ PUSH2 0x618 JUMPI PUSH1 0x40 MLOAD PUSH32 0x8C379A000000000000000000000000000000000000000000000000000000000 DUP2 MSTORE PUSH1 0x4 ADD PUSH2 0x60F SWAP1 PUSH2 0x282A JUMP JUMPDEST PUSH1 0x40 MLOAD DUP1 SWAP2 SUB SWAP1 REVERT JUMPDEST PUSH0 DUP1 PUSH0 PUSH2 0x100 EXP DUP2 SLOAD DUP2 PUSH20 0xFFFFFFFFFFFFFFFFFFFFFFFFFFFFFFFFFFFFFFFF MUL NOT AND SWAP1 DUP4 PUSH20 0xFFFFFFFFFFFFFFFFFFFFFFFFFFFFFFFFFFFFFFFF AND MUL OR SWAP1 SSTORE POP JUMP JUMPDEST PUSH0 PUSH20 0xFFFFFFFFFFFFFFFFFFFFFFFFFFFFFFFFFFFFFFFF AND PUSH0 DUP1 SLOAD SWAP1 PUSH2 0x100 EXP SWAP1 DIV PUSH20 0xFFFFFFFFFFFFFFFFFFFFFFFFFFFFFFFFFFFFFFFF AND PUSH20 0xFFFFFFFFFFFFFFFFFFFFFFFFFFFFFFFFFFFFFFFF AND SUB ISZERO PUSH2 0x96B JUMPI PUSH0 DUP1 PUSH0 DUP1 PUSH0 SWAP1 SLOAD SWAP1 PUSH2 0x100 EXP SWAP1 DIV PUSH20 0xFFFFFFFFFFFFFFFFFFFFFFFFFFFFFFFFFFFFFFFF AND PUSH20 0xFFFFFFFFFFFFFFFFFFFFFFFFFFFFFFFFFFFFFFFF AND PUSH4 0xCED72F87 PUSH1 0x40 MLOAD DUP2 PUSH4 0xFFFFFFFF AND PUSH1 0xE0 SHL DUP2 MSTORE PUSH1 0x4 ADD PUSH1 0x40 DUP1 MLOAD DUP1 DUP4 SUB DUP2 DUP7 GAS STATICCALL ISZERO DUP1 ISZERO PUSH2 0x717 JUMPI RETURNDATASIZE PUSH0 DUP1 RETURNDATACOPY RETURNDATASIZE PUSH0 REVERT JUMPDEST POP POP POP POP PUSH1 0x40 MLOAD RETURNDATASIZE PUSH1 0x1F NOT PUSH1 0x1F DUP3 ADD AND DUP3 ADD DUP1 PUSH1 0x40 MSTORE POP DUP2 ADD SWAP1 PUSH2 0x73B SWAP2 SWAP1 PUSH2 0x2870 JUMP JUMPDEST DUP1 SWAP5 POP DUP2 SWAP4 POP POP POP DUP2 CALLVALUE LT ISZERO PUSH2 0x786 JUMPI PUSH1 0x40 MLOAD PUSH32 0x8C379A000000000000000000000000000000000000000000000000000000000 DUP2 MSTORE PUSH1 0x4 ADD PUSH2 0x77D SWAP1 PUSH2 0x28F8 JUMP JUMPDEST PUSH1 0x40 MLOAD DUP1 SWAP2 SUB SWAP1 REVERT JUMPDEST DUP3 PUSH20 0xFFFFFFFFFFFFFFFFFFFFFFFFFFFFFFFFFFFFFFFF AND PUSH2 0x8FC DUP4 SWAP1 DUP2 ISZERO MUL SWAP1 PUSH1 0x40 MLOAD PUSH0 PUSH1 0x40 MLOAD DUP1 DUP4 SUB DUP2 DUP6 DUP9 DUP9 CALL SWAP4 POP POP POP POP ISZERO DUP1 ISZERO PUSH2 0x7C9 JUMPI RETURNDATASIZE PUSH0 DUP1 RETURNDATACOPY RETURNDATASIZE PUSH0 REVERT JUMPDEST POP PUSH2 0x7D2 PUSH2 0x1FD1 JUMP JUMPDEST PUSH20 0xFFFFFFFFFFFFFFFFFFFFFFFFFFFFFFFFFFFFFFFF AND PUSH2 0x7F1 DUP6 PUSH2 0xBB5 JUMP JUMPDEST PUSH20 0xFFFFFFFFFFFFFFFFFFFFFFFFFFFFFFFFFFFFFFFF AND EQ PUSH2 0x847 JUMPI PUSH1 0x40 MLOAD PUSH32 0x8C379A000000000000000000000000000000000000000000000000000000000 DUP2 MSTORE PUSH1 0x4 ADD PUSH2 0x83E SWAP1 PUSH2 0x2960 JUMP JUMPDEST PUSH1 0x40 MLOAD DUP1 SWAP2 SUB SWAP1 REVERT JUMPDEST PUSH2 0x850 DUP5 PUSH2 0xE2D JUMP JUMPDEST PUSH2 0x88F JUMPI PUSH1 0x40 MLOAD PUSH32 0x8C379A000000000000000000000000000000000000000000000000000000000 DUP2 MSTORE PUSH1 0x4 ADD PUSH2 0x886 SWAP1 PUSH2 0x29C8 JUMP JUMPDEST PUSH1 0x40 MLOAD DUP1 SWAP2 SUB SWAP1 REVERT JUMPDEST PUSH1 0x40 MLOAD DUP1 PUSH1 0x40 ADD PUSH1 0x40 MSTORE DUP1 PUSH0 PUSH20 0xFFFFFFFFFFFFFFFFFFFFFFFFFFFFFFFFFFFFFFFF AND DUP2 MSTORE PUSH1 0x20 ADD PUSH0 DUP2 MSTORE POP PUSH1 0xC PUSH0 DUP7 DUP2 MSTORE PUSH1 0x20 ADD SWAP1 DUP2 MSTORE PUSH1 0x20 ADD PUSH0 KECCAK256 PUSH0 DUP3 ADD MLOAD DUP2 PUSH0 ADD PUSH0 PUSH2 0x100 EXP DUP2 SLOAD DUP2 PUSH20 0xFFFFFFFFFFFFFFFFFFFFFFFFFFFFFFFFFFFFFFFF MUL NOT AND SWAP1 DUP4 PUSH20 0xFFFFFFFFFFFFFFFFFFFFFFFFFFFFFFFFFFFFFFFF AND MUL OR SWAP1 SSTORE POP PUSH1 0x20 DUP3 ADD MLOAD DUP2 PUSH1 0x1 ADD SSTORE SWAP1 POP POP DUP4 PUSH2 0x925 PUSH2 0x1FD1 JUMP JUMPDEST PUSH20 0xFFFFFFFFFFFFFFFFFFFFFFFFFFFFFFFFFFFFFFFF AND PUSH32 0xB0FFF5D2B17A855B0A22A0965386BCF2F7A8A364C81497C7EA721F3B771BA47E PUSH1 0x40 MLOAD PUSH1 0x40 MLOAD DUP1 SWAP2 SUB SWAP1 LOG3 POP POP POP JUMPDEST POP JUMP JUMPDEST PUSH0 PUSH1 0x3 SLOAD SWAP1 POP SWAP1 JUMP JUMPDEST PUSH1 0x9 PUSH1 0x1 SWAP1 SLOAD SWAP1 PUSH2 0x100 EXP SWAP1 DIV PUSH1 0xFF AND DUP2 JUMP JUMPDEST PUSH1 0x9 PUSH0 SWAP1 SLOAD SWAP1 PUSH2 0x100 EXP SWAP1 DIV PUSH1 0xFF AND DUP2 JUMP JUMPDEST PUSH0 PUSH20 0xFFFFFFFFFFFFFFFFFFFFFFFFFFFFFFFFFFFFFFFF AND PUSH0 DUP1 SLOAD SWAP1 PUSH2 0x100 EXP SWAP1 DIV PUSH20 0xFFFFFFFFFFFFFFFFFFFFFFFFFFFFFFFFFFFFFFFF AND PUSH20 0xFFFFFFFFFFFFFFFFFFFFFFFFFFFFFFFFFFFFFFFF AND SUB ISZERO PUSH2 0xBB1 JUMPI PUSH0 DUP1 PUSH0 DUP1 PUSH0 SWAP1 SLOAD SWAP1 PUSH2 0x100 EXP SWAP1 DIV PUSH20 0xFFFFFFFFFFFFFFFFFFFFFFFFFFFFFFFFFFFFFFFF AND PUSH20 0xFFFFFFFFFFFFFFFFFFFFFFFFFFFFFFFFFFFFFFFF AND PUSH4 0xCED72F87 PUSH1 0x40 MLOAD DUP2 PUSH4 0xFFFFFFFF AND PUSH1 0xE0 SHL DUP2 MSTORE PUSH1 0x4 ADD PUSH1 0x40 DUP1 MLOAD DUP1 DUP4 SUB DUP2 DUP7 GAS STATICCALL ISZERO DUP1 ISZERO PUSH2 0xA5A JUMPI RETURNDATASIZE PUSH0 DUP1 RETURNDATACOPY RETURNDATASIZE PUSH0 REVERT JUMPDEST POP POP POP POP PUSH1 0x40 MLOAD RETURNDATASIZE PUSH1 0x1F NOT PUSH1 0x1F DUP3 ADD AND DUP3 ADD DUP1 PUSH1 0x40 MSTORE POP DUP2 ADD SWAP1 PUSH2 0xA7E SWAP2 SWAP1 PUSH2 0x2870 JUMP JUMPDEST DUP1 SWAP5 POP DUP2 SWAP4 POP POP POP DUP2 CALLVALUE LT ISZERO PUSH2 0xAC9 JUMPI PUSH1 0x40 MLOAD PUSH32 0x8C379A000000000000000000000000000000000000000000000000000000000 DUP2 MSTORE PUSH1 0x4 ADD PUSH2 0xAC0 SWAP1 PUSH2 0x28F8 JUMP JUMPDEST PUSH1 0x40 MLOAD DUP1 SWAP2 SUB SWAP1 REVERT JUMPDEST DUP3 PUSH20 0xFFFFFFFFFFFFFFFFFFFFFFFFFFFFFFFFFFFFFFFF AND PUSH2 0x8FC DUP4 SWAP1 DUP2 ISZERO MUL SWAP1 PUSH1 0x40 MLOAD PUSH0 PUSH1 0x40 MLOAD DUP1 DUP4 SUB DUP2 DUP6 DUP9 DUP9 CALL SWAP4 POP POP POP POP ISZERO DUP1 ISZERO PUSH2 0xB0C JUMPI RETURNDATASIZE PUSH0 DUP1 RETURNDATACOPY RETURNDATASIZE PUSH0 REVERT JUMPDEST POP PUSH2 0xB15 PUSH2 0x1FD1 JUMP JUMPDEST PUSH20 0xFFFFFFFFFFFFFFFFFFFFFFFFFFFFFFFFFFFFFFFF AND PUSH1 0x1 PUSH0 SWAP1 SLOAD SWAP1 PUSH2 0x100 EXP SWAP1 DIV PUSH20 0xFFFFFFFFFFFFFFFFFFFFFFFFFFFFFFFFFFFFFFFF AND PUSH20 0xFFFFFFFFFFFFFFFFFFFFFFFFFFFFFFFFFFFFFFFF AND EQ PUSH2 0xBA3 JUMPI PUSH1 0x40 MLOAD PUSH32 0x8C379A000000000000000000000000000000000000000000000000000000000 DUP2 MSTORE PUSH1 0x4 ADD PUSH2 0xB9A SWAP1 PUSH2 0x2A30 JUMP JUMPDEST PUSH1 0x40 MLOAD DUP1 SWAP2 SUB SWAP1 REVERT JUMPDEST PUSH2 0xBAD DUP6 DUP6 PUSH2 0x1FD8 JUMP JUMPDEST POP POP POP JUMPDEST POP POP JUMP JUMPDEST PUSH0 PUSH1 0xA PUSH0 DUP4 DUP2 MSTORE PUSH1 0x20 ADD SWAP1 DUP2 MSTORE PUSH1 0x20 ADD PUSH0 KECCAK256 PUSH0 SWAP1 SLOAD SWAP1 PUSH2 0x100 EXP SWAP1 DIV PUSH20 0xFFFFFFFFFFFFFFFFFFFFFFFFFFFFFFFFFFFFFFFF AND SWAP1 POP SWAP2 SWAP1 POP JUMP JUMPDEST PUSH2 0xBF6 PUSH2 0x1FD1 JUMP JUMPDEST PUSH20 0xFFFFFFFFFFFFFFFFFFFFFFFFFFFFFFFFFFFFFFFF AND PUSH1 0x1 PUSH0 SWAP1 SLOAD SWAP1 PUSH2 0x100 EXP SWAP1 DIV PUSH20 0xFFFFFFFFFFFFFFFFFFFFFFFFFFFFFFFFFFFFFFFF AND PUSH20 0xFFFFFFFFFFFFFFFFFFFFFFFFFFFFFFFFFFFFFFFF AND EQ PUSH2 0xC84 JUMPI PUSH1 0x40 MLOAD PUSH32 0x8C379A000000000000000000000000000000000000000000000000000000000 DUP2 MSTORE PUSH1 0x4 ADD PUSH2 0xC7B SWAP1 PUSH2 0x2A30 JUMP JUMPDEST PUSH1 0x40 MLOAD DUP1 SWAP2 SUB SWAP1 REVERT JUMPDEST PUSH2 0xC8C PUSH2 0x2074 JUMP JUMPDEST PUSH0 DUP5 LT ISZERO DUP1 ISZERO PUSH2 0xC9E JUMPI POP PUSH2 0x3E8 DUP5 GT ISZERO JUMPDEST PUSH2 0xCDD JUMPI PUSH1 0x40 MLOAD PUSH32 0x8C379A000000000000000000000000000000000000000000000000000000000 DUP2 MSTORE PUSH1 0x4 ADD PUSH2 0xCD4 SWAP1 PUSH2 0x2A98 JUMP JUMPDEST PUSH1 0x40 MLOAD DUP1 SWAP2 SUB SWAP1 REVERT JUMPDEST PUSH0 PUSH1 0x7 SLOAD LT ISZERO DUP1 ISZERO PUSH2 0xCF3 JUMPI POP PUSH2 0x2710 PUSH1 0x7 SLOAD GT ISZERO JUMPDEST PUSH2 0xD32 JUMPI PUSH1 0x40 MLOAD PUSH32 0x8C379A000000000000000000000000000000000000000000000000000000000 DUP2 MSTORE PUSH1 0x4 ADD PUSH2 0xD29 SWAP1 PUSH2 0x2B00 JUMP JUMPDEST PUSH1 0x40 MLOAD DUP1 SWAP2 SUB SWAP1 REVERT JUMPDEST DUP3 PUSH1 0x7 DUP2 SWAP1 SSTORE POP DUP2 PUSH1 0x6 DUP2 SWAP1 SSTORE POP DUP1 PUSH1 0x9 PUSH1 0x1 PUSH2 0x100 EXP DUP2 SLOAD DUP2 PUSH1 0xFF MUL NOT AND SWAP1 DUP4 ISZERO ISZERO MUL OR SWAP1 SSTORE POP PUSH2 0xD6B DUP5 PUSH2 0xD66 PUSH2 0xED5 JUMP JUMPDEST PUSH2 0x1FD8 JUMP JUMPDEST PUSH2 0xD73 PUSH2 0x20C3 JUMP JUMPDEST POP POP POP POP JUMP JUMPDEST PUSH0 DUP1 PUSH20 0xFFFFFFFFFFFFFFFFFFFFFFFFFFFFFFFFFFFFFFFF AND DUP3 PUSH20 0xFFFFFFFFFFFFFFFFFFFFFFFFFFFFFFFFFFFFFFFF AND SUB PUSH2 0xDE8 JUMPI PUSH1 0x40 MLOAD PUSH32 0x8C379A000000000000000000000000000000000000000000000000000000000 DUP2 MSTORE PUSH1 0x4 ADD PUSH2 0xDDF SWAP1 PUSH2 0x2B8E JUMP JUMPDEST PUSH1 0x40 MLOAD DUP1 SWAP2 SUB SWAP1 REVERT JUMPDEST PUSH1 0xB PUSH0 DUP4 PUSH20 0xFFFFFFFFFFFFFFFFFFFFFFFFFFFFFFFFFFFFFFFF AND PUSH20 0xFFFFFFFFFFFFFFFFFFFFFFFFFFFFFFFFFFFFFFFF AND DUP2 MSTORE PUSH1 0x20 ADD SWAP1 DUP2 MSTORE PUSH1 0x20 ADD PUSH0 KECCAK256 SLOAD SWAP1 POP SWAP2 SWAP1 POP JUMP JUMPDEST PUSH0 DUP1 PUSH20 0xFFFFFFFFFFFFFFFFFFFFFFFFFFFFFFFFFFFFFFFF AND PUSH1 0xC PUSH0 DUP5 DUP2 MSTORE PUSH1 0x20 ADD SWAP1 DUP2 MSTORE PUSH1 0x20 ADD PUSH0 KECCAK256 PUSH0 ADD PUSH0 SWAP1 SLOAD SWAP1 PUSH2 0x100 EXP SWAP1 DIV PUSH20 0xFFFFFFFFFFFFFFFFFFFFFFFFFFFFFFFFFFFFFFFF AND PUSH20 0xFFFFFFFFFFFFFFFFFFFFFFFFFFFFFFFFFFFFFFFF AND EQ ISZERO DUP1 PUSH2 0xECE JUMPI POP PUSH0 PUSH20 0xFFFFFFFFFFFFFFFFFFFFFFFFFFFFFFFFFFFFFFFF AND PUSH2 0xEB6 DUP4 PUSH2 0xBB5 JUMP JUMPDEST PUSH20 0xFFFFFFFFFFFFFFFFFFFFFFFFFFFFFFFFFFFFFFFF AND EQ JUMPDEST SWAP1 POP SWAP2 SWAP1 POP JUMP JUMPDEST PUSH0 PUSH1 0x1 PUSH0 SWAP1 SLOAD SWAP1 PUSH2 0x100 EXP SWAP1 DIV PUSH20 0xFFFFFFFFFFFFFFFFFFFFFFFFFFFFFFFFFFFFFFFF AND SWAP1 POP SWAP1 JUMP JUMPDEST PUSH1 0x6 SLOAD DUP2 JUMP JUMPDEST PUSH0 PUSH20 0xFFFFFFFFFFFFFFFFFFFFFFFFFFFFFFFFFFFFFFFF AND PUSH0 DUP1 SLOAD SWAP1 PUSH2 0x100 EXP SWAP1 DIV PUSH20 0xFFFFFFFFFFFFFFFFFFFFFFFFFFFFFFFFFFFFFFFF AND PUSH20 0xFFFFFFFFFFFFFFFFFFFFFFFFFFFFFFFFFFFFFFFF AND SUB ISZERO PUSH2 0x1319 JUMPI PUSH0 DUP1 PUSH0 DUP1 PUSH0 SWAP1 SLOAD SWAP1 PUSH2 0x100 EXP SWAP1 DIV PUSH20 0xFFFFFFFFFFFFFFFFFFFFFFFFFFFFFFFFFFFFFFFF AND PUSH20 0xFFFFFFFFFFFFFFFFFFFFFFFFFFFFFFFFFFFFFFFF AND PUSH4 0xCED72F87 PUSH1 0x40 MLOAD DUP2 PUSH4 0xFFFFFFFF AND PUSH1 0xE0 SHL DUP2 MSTORE PUSH1 0x4 ADD PUSH1 0x40 DUP1 MLOAD DUP1 DUP4 SUB DUP2 DUP7 GAS STATICCALL ISZERO DUP1 ISZERO PUSH2 0xFC1 JUMPI RETURNDATASIZE PUSH0 DUP1 RETURNDATACOPY RETURNDATASIZE PUSH0 REVERT JUMPDEST POP POP POP POP PUSH1 0x40 MLOAD RETURNDATASIZE PUSH1 0x1F NOT PUSH1 0x1F DUP3 ADD AND DUP3 ADD DUP1 PUSH1 0x40 MSTORE POP DUP2 ADD SWAP1 PUSH2 0xFE5 SWAP2 SWAP1 PUSH2 0x2870 JUMP JUMPDEST DUP1 SWAP5 POP DUP2 SWAP4 POP POP POP DUP2 CALLVALUE LT ISZERO PUSH2 0x1030 JUMPI PUSH1 0x40 MLOAD PUSH32 0x8C379A000000000000000000000000000000000000000000000000000000000 DUP2 MSTORE PUSH1 0x4 ADD PUSH2 0x1027 SWAP1 PUSH2 0x28F8 JUMP JUMPDEST PUSH1 0x40 MLOAD DUP1 SWAP2 SUB SWAP1 REVERT JUMPDEST DUP3 PUSH20 0xFFFFFFFFFFFFFFFFFFFFFFFFFFFFFFFFFFFFFFFF AND PUSH2 0x8FC DUP4 SWAP1 DUP2 ISZERO MUL SWAP1 PUSH1 0x40 MLOAD PUSH0 PUSH1 0x40 MLOAD DUP1 DUP4 SUB DUP2 DUP6 DUP9 DUP9 CALL SWAP4 POP POP POP POP ISZERO DUP1 ISZERO PUSH2 0x1073 JUMPI RETURNDATASIZE PUSH0 DUP1 RETURNDATACOPY RETURNDATASIZE PUSH0 REVERT JUMPDEST POP PUSH0 ISZERO ISZERO PUSH1 0x9 PUSH0 SWAP1 SLOAD SWAP1 PUSH2 0x100 EXP SWAP1 DIV PUSH1 0xFF AND ISZERO ISZERO EQ PUSH2 0x10C8 JUMPI PUSH1 0x40 MLOAD PUSH32 0x8C379A000000000000000000000000000000000000000000000000000000000 DUP2 MSTORE PUSH1 0x4 ADD PUSH2 0x10BF SWAP1 PUSH2 0x2BF6 JUMP JUMPDEST PUSH1 0x40 MLOAD DUP1 SWAP2 SUB SWAP1 REVERT JUMPDEST PUSH1 0x1 ISZERO ISZERO PUSH1 0x9 PUSH1 0x1 SWAP1 SLOAD SWAP1 PUSH2 0x100 EXP SWAP1 DIV PUSH1 0xFF AND ISZERO ISZERO EQ PUSH2 0x111E JUMPI PUSH1 0x40 MLOAD PUSH32 0x8C379A000000000000000000000000000000000000000000000000000000000 DUP2 MSTORE PUSH1 0x4 ADD PUSH2 0x1115 SWAP1 PUSH2 0x2C5E JUMP JUMPDEST PUSH1 0x40 MLOAD DUP1 SWAP2 SUB SWAP1 REVERT JUMPDEST PUSH2 0x1126 PUSH2 0x1FD1 JUMP JUMPDEST PUSH20 0xFFFFFFFFFFFFFFFFFFFFFFFFFFFFFFFFFFFFFFFF AND PUSH2 0x1145 DUP7 PUSH2 0xBB5 JUMP JUMPDEST PUSH20 0xFFFFFFFFFFFFFFFFFFFFFFFFFFFFFFFFFFFFFFFF AND EQ PUSH2 0x119B JUMPI PUSH1 0x40 MLOAD PUSH32 0x8C379A000000000000000000000000000000000000000000000000000000000 DUP2 MSTORE PUSH1 0x4 ADD PUSH2 0x1192 SWAP1 PUSH2 0x2960 JUMP JUMPDEST PUSH1 0x40 MLOAD DUP1 SWAP2 SUB SWAP1 REVERT JUMPDEST PUSH0 DUP5 GT PUSH2 0x11DD JUMPI PUSH1 0x40 MLOAD PUSH32 0x8C379A000000000000000000000000000000000000000000000000000000000 DUP2 MSTORE PUSH1 0x4 ADD PUSH2 0x11D4 SWAP1 PUSH2 0x2CC6 JUMP JUMPDEST PUSH1 0x40 MLOAD DUP1 SWAP2 SUB SWAP1 REVERT JUMPDEST PUSH0 ISZERO ISZERO PUSH2 0x11E9 DUP7 PUSH2 0xE2D JUMP JUMPDEST ISZERO ISZERO EQ PUSH2 0x122B JUMPI PUSH1 0x40 MLOAD PUSH32 0x8C379A000000000000000000000000000000000000000000000000000000000 DUP2 MSTORE PUSH1 0x4 ADD PUSH2 0x1222 SWAP1 PUSH2 0x2D2E JUMP JUMPDEST PUSH1 0x40 MLOAD DUP1 SWAP2 SUB SWAP1 REVERT JUMPDEST PUSH1 0x40 MLOAD DUP1 PUSH1 0x40 ADD PUSH1 0x40 MSTORE DUP1 PUSH2 0x123E PUSH2 0x1FD1 JUMP JUMPDEST PUSH20 0xFFFFFFFFFFFFFFFFFFFFFFFFFFFFFFFFFFFFFFFF AND DUP2 MSTORE PUSH1 0x20 ADD DUP6 DUP2 MSTORE POP PUSH1 0xC PUSH0 DUP8 DUP2 MSTORE PUSH1 0x20 ADD SWAP1 DUP2 MSTORE PUSH1 0x20 ADD PUSH0 KECCAK256 PUSH0 DUP3 ADD MLOAD DUP2 PUSH0 ADD PUSH0 PUSH2 0x100 EXP DUP2 SLOAD DUP2 PUSH20 0xFFFFFFFFFFFFFFFFFFFFFFFFFFFFFFFFFFFFFFFF MUL NOT AND SWAP1 DUP4 PUSH20 0xFFFFFFFFFFFFFFFFFFFFFFFFFFFFFFFFFFFFFFFF AND MUL OR SWAP1 SSTORE POP PUSH1 0x20 DUP3 ADD MLOAD DUP2 PUSH1 0x1 ADD SSTORE SWAP1 POP POP DUP5 PUSH2 0x12C8 PUSH2 0x1FD1 JUMP JUMPDEST PUSH20 0xFFFFFFFFFFFFFFFFFFFFFFFFFFFFFFFFFFFFFFFF AND PUSH32 0x6FC989262F1A8DB6159481527F1136BD8DA67D0D235AE4F193118099DDD03231 DUP7 PUSH1 0x40 MLOAD PUSH2 0x130D SWAP2 SWAP1 PUSH2 0x24D3 JUMP JUMPDEST PUSH1 0x40 MLOAD DUP1 SWAP2 SUB SWAP1 LOG3 POP POP POP JUMPDEST POP POP JUMP JUMPDEST PUSH0 PUSH20 0xFFFFFFFFFFFFFFFFFFFFFFFFFFFFFFFFFFFFFFFF AND PUSH0 DUP1 SLOAD SWAP1 PUSH2 0x100 EXP SWAP1 DIV PUSH20 0xFFFFFFFFFFFFFFFFFFFFFFFFFFFFFFFFFFFFFFFF AND PUSH20 0xFFFFFFFFFFFFFFFFFFFFFFFFFFFFFFFFFFFFFFFF AND SUB ISZERO PUSH2 0x1779 JUMPI PUSH0 DUP1 PUSH0 DUP1 PUSH0 SWAP1 SLOAD SWAP1 PUSH2 0x100 EXP SWAP1 DIV PUSH20 0xFFFFFFFFFFFFFFFFFFFFFFFFFFFFFFFFFFFFFFFF AND PUSH20 0xFFFFFFFFFFFFFFFFFFFFFFFFFFFFFFFFFFFFFFFF AND PUSH4 0xCED72F87 PUSH1 0x40 MLOAD DUP2 PUSH4 0xFFFFFFFF AND PUSH1 0xE0 SHL DUP2 MSTORE PUSH1 0x4 ADD PUSH1 0x40 DUP1 MLOAD DUP1 DUP4 SUB DUP2 DUP7 GAS STATICCALL ISZERO DUP1 ISZERO PUSH2 0x13DB JUMPI RETURNDATASIZE PUSH0 DUP1 RETURNDATACOPY RETURNDATASIZE PUSH0 REVERT JUMPDEST POP POP POP POP PUSH1 0x40 MLOAD RETURNDATASIZE PUSH1 0x1F NOT PUSH1 0x1F DUP3 ADD AND DUP3 ADD DUP1 PUSH1 0x40 MSTORE POP DUP2 ADD SWAP1 PUSH2 0x13FF SWAP2 SWAP1 PUSH2 0x2870 JUMP JUMPDEST DUP1 SWAP5 POP DUP2 SWAP4 POP POP POP DUP2 CALLVALUE LT ISZERO PUSH2 0x144A JUMPI PUSH1 0x40 MLOAD PUSH32 0x8C379A000000000000000000000000000000000000000000000000000000000 DUP2 MSTORE PUSH1 0x4 ADD PUSH2 0x1441 SWAP1 PUSH2 0x28F8 JUMP JUMPDEST PUSH1 0x40 MLOAD DUP1 SWAP2 SUB SWAP1 REVERT JUMPDEST DUP3 PUSH20 0xFFFFFFFFFFFFFFFFFFFFFFFFFFFFFFFFFFFFFFFF AND PUSH2 0x8FC DUP4 SWAP1 DUP2 ISZERO MUL SWAP1 PUSH1 0x40 MLOAD PUSH0 PUSH1 0x40 MLOAD DUP1 DUP4 SUB DUP2 DUP6 DUP9 DUP9 CALL SWAP4 POP POP POP POP ISZERO DUP1 ISZERO PUSH2 0x148D JUMPI RETURNDATASIZE PUSH0 DUP1 RETURNDATACOPY RETURNDATASIZE PUSH0 REVERT JUMPDEST POP PUSH2 0x1497 DUP5 PUSH2 0xBB5 JUMP JUMPDEST PUSH20 0xFFFFFFFFFFFFFFFFFFFFFFFFFFFFFFFFFFFFFFFF AND PUSH2 0x14B5 PUSH2 0x1FD1 JUMP JUMPDEST PUSH20 0xFFFFFFFFFFFFFFFFFFFFFFFFFFFFFFFFFFFFFFFF AND EQ PUSH2 0x150B JUMPI PUSH1 0x40 MLOAD PUSH32 0x8C379A000000000000000000000000000000000000000000000000000000000 DUP2 MSTORE PUSH1 0x4 ADD PUSH2 0x1502 SWAP1 PUSH2 0x2D96 JUMP JUMPDEST PUSH1 0x40 MLOAD DUP1 SWAP2 SUB SWAP1 REVERT JUMPDEST PUSH0 PUSH20 0xFFFFFFFFFFFFFFFFFFFFFFFFFFFFFFFFFFFFFFFF AND DUP6 PUSH20 0xFFFFFFFFFFFFFFFFFFFFFFFFFFFFFFFFFFFFFFFF AND SUB PUSH2 0x1579 JUMPI PUSH1 0x40 MLOAD PUSH32 0x8C379A000000000000000000000000000000000000000000000000000000000 DUP2 MSTORE PUSH1 0x4 ADD PUSH2 0x1570 SWAP1 PUSH2 0x2DFE JUMP JUMPDEST PUSH1 0x40 MLOAD DUP1 SWAP2 SUB SWAP1 REVERT JUMPDEST PUSH2 0x1582 DUP5 PUSH2 0xE2D JUMP JUMPDEST ISZERO PUSH2 0x1615 JUMPI PUSH1 0x40 MLOAD DUP1 PUSH1 0x40 ADD PUSH1 0x40 MSTORE DUP1 PUSH0 PUSH20 0xFFFFFFFFFFFFFFFFFFFFFFFFFFFFFFFFFFFFFFFF AND DUP2 MSTORE PUSH1 0x20 ADD PUSH0 DUP2 MSTORE POP PUSH1 0xC PUSH0 DUP7 DUP2 MSTORE PUSH1 0x20 ADD SWAP1 DUP2 MSTORE PUSH1 0x20 ADD PUSH0 KECCAK256 PUSH0 DUP3 ADD MLOAD DUP2 PUSH0 ADD PUSH0 PUSH2 0x100 EXP DUP2 SLOAD DUP2 PUSH20 0xFFFFFFFFFFFFFFFFFFFFFFFFFFFFFFFFFFFFFFFF MUL NOT AND SWAP1 DUP4 PUSH20 0xFFFFFFFFFFFFFFFFFFFFFFFFFFFFFFFFFFFFFFFF AND MUL OR SWAP1 SSTORE POP PUSH1 0x20 DUP3 ADD MLOAD DUP2 PUSH1 0x1 ADD SSTORE SWAP1 POP POP JUMPDEST DUP5 PUSH1 0xA PUSH0 DUP7 DUP2 MSTORE PUSH1 0x20 ADD SWAP1 DUP2 MSTORE PUSH1 0x20 ADD PUSH0 KECCAK256 PUSH0 PUSH2 0x100 EXP DUP2 SLOAD DUP2 PUSH20 0xFFFFFFFFFFFFFFFFFFFFFFFFFFFFFFFFFFFFFFFF MUL NOT AND SWAP1 DUP4 PUSH20 0xFFFFFFFFFFFFFFFFFFFFFFFFFFFFFFFFFFFFFFFF AND MUL OR SWAP1 SSTORE POP PUSH1 0x1 PUSH1 0xB PUSH0 PUSH2 0x1671 PUSH2 0x1FD1 JUMP JUMPDEST PUSH20 0xFFFFFFFFFFFFFFFFFFFFFFFFFFFFFFFFFFFFFFFF AND PUSH20 0xFFFFFFFFFFFFFFFFFFFFFFFFFFFFFFFFFFFFFFFF AND DUP2 MSTORE PUSH1 0x20 ADD SWAP1 DUP2 MSTORE PUSH1 0x20 ADD PUSH0 KECCAK256 PUSH0 DUP3 DUP3 SLOAD PUSH2 0x16B8 SWAP2 SWAP1 PUSH2 0x2E49 JUMP JUMPDEST SWAP3 POP POP DUP2 SWAP1 SSTORE POP PUSH1 0x1 PUSH1 0xB PUSH0 DUP8 PUSH20 0xFFFFFFFFFFFFFFFFFFFFFFFFFFFFFFFFFFFFFFFF AND PUSH20 0xFFFFFFFFFFFFFFFFFFFFFFFFFFFFFFFFFFFFFFFF AND DUP2 MSTORE PUSH1 0x20 ADD SWAP1 DUP2 MSTORE PUSH1 0x20 ADD PUSH0 KECCAK256 PUSH0 DUP3 DUP3 SLOAD PUSH2 0x170C SWAP2 SWAP1 PUSH2 0x2E7C JUMP JUMPDEST SWAP3 POP POP DUP2 SWAP1 SSTORE POP DUP4 DUP6 PUSH20 0xFFFFFFFFFFFFFFFFFFFFFFFFFFFFFFFFFFFFFFFF AND PUSH2 0x1733 PUSH2 0x1FD1 JUMP JUMPDEST PUSH20 0xFFFFFFFFFFFFFFFFFFFFFFFFFFFFFFFFFFFFFFFF AND PUSH32 0x8BAF29B4B5AF24EC8170355F2819A9135840321DD4E65B88A080DFC3054FE99C PUSH1 0x40 MLOAD PUSH1 0x40 MLOAD DUP1 SWAP2 SUB SWAP1 LOG4 POP POP POP JUMPDEST POP POP JUMP JUMPDEST PUSH0 PUSH1 0xC PUSH0 DUP4 DUP2 MSTORE PUSH1 0x20 ADD SWAP1 DUP2 MSTORE PUSH1 0x20 ADD PUSH0 KECCAK256 PUSH1 0x1 ADD SLOAD SWAP1 POP SWAP2 SWAP1 POP JUMP JUMPDEST PUSH1 0x60 PUSH1 0xF DUP1 SLOAD PUSH2 0x17A9 SWAP1 PUSH2 0x2EDC JUMP JUMPDEST DUP1 PUSH1 0x1F ADD PUSH1 0x20 DUP1 SWAP2 DIV MUL PUSH1 0x20 ADD PUSH1 0x40 MLOAD SWAP1 DUP2 ADD PUSH1 0x40 MSTORE DUP1 SWAP3 SWAP2 SWAP1 DUP2 DUP2 MSTORE PUSH1 0x20 ADD DUP3 DUP1 SLOAD PUSH2 0x17D5 SWAP1 PUSH2 0x2EDC JUMP JUMPDEST DUP1 ISZERO PUSH2 0x1820 JUMPI DUP1 PUSH1 0x1F LT PUSH2 0x17F7 JUMPI PUSH2 0x100 DUP1 DUP4 SLOAD DIV MUL DUP4 MSTORE SWAP2 PUSH1 0x20 ADD SWAP2 PUSH2 0x1820 JUMP JUMPDEST DUP3 ADD SWAP2 SWAP1 PUSH0 MSTORE PUSH1 0x20 PUSH0 KECCAK256 SWAP1 JUMPDEST DUP2 SLOAD DUP2 MSTORE SWAP1 PUSH1 0x1 ADD SWAP1 PUSH1 0x20 ADD DUP1 DUP4 GT PUSH2 0x1803 JUMPI DUP3 SWAP1 SUB PUSH1 0x1F AND DUP3 ADD SWAP2 JUMPDEST POP POP POP POP POP SWAP1 POP SWAP2 SWAP1 POP JUMP JUMPDEST PUSH1 0x8 SLOAD DUP2 JUMP JUMPDEST PUSH0 PUSH20 0xFFFFFFFFFFFFFFFFFFFFFFFFFFFFFFFFFFFFFFFF AND PUSH0 DUP1 SLOAD SWAP1 PUSH2 0x100 EXP SWAP1 DIV PUSH20 0xFFFFFFFFFFFFFFFFFFFFFFFFFFFFFFFFFFFFFFFF AND PUSH20 0xFFFFFFFFFFFFFFFFFFFFFFFFFFFFFFFFFFFFFFFF AND SUB ISZERO PUSH2 0x1E87 JUMPI PUSH0 DUP1 PUSH0 DUP1 PUSH0 SWAP1 SLOAD SWAP1 PUSH2 0x100 EXP SWAP1 DIV PUSH20 0xFFFFFFFFFFFFFFFFFFFFFFFFFFFFFFFFFFFFFFFF AND PUSH20 0xFFFFFFFFFFFFFFFFFFFFFFFFFFFFFFFFFFFFFFFF AND PUSH4 0xCED72F87 PUSH1 0x40 MLOAD DUP2 PUSH4 0xFFFFFFFF AND PUSH1 0xE0 SHL DUP2 MSTORE PUSH1 0x4 ADD PUSH1 0x40 DUP1 MLOAD DUP1 DUP4 SUB DUP2 DUP7 GAS STATICCALL ISZERO DUP1 ISZERO PUSH2 0x18F0 JUMPI RETURNDATASIZE PUSH0 DUP1 RETURNDATACOPY RETURNDATASIZE PUSH0 REVERT JUMPDEST POP POP POP POP PUSH1 0x40 MLOAD RETURNDATASIZE PUSH1 0x1F NOT PUSH1 0x1F DUP3 ADD AND DUP3 ADD DUP1 PUSH1 0x40 MSTORE POP DUP2 ADD SWAP1 PUSH2 0x1914 SWAP2 SWAP1 PUSH2 0x2870 JUMP JUMPDEST DUP1 SWAP5 POP DUP2 SWAP4 POP POP POP DUP2 CALLVALUE LT ISZERO PUSH2 0x195F JUMPI PUSH1 0x40 MLOAD PUSH32 0x8C379A000000000000000000000000000000000000000000000000000000000 DUP2 MSTORE PUSH1 0x4 ADD PUSH2 0x1956 SWAP1 PUSH2 0x28F8 JUMP JUMPDEST PUSH1 0x40 MLOAD DUP1 SWAP2 SUB SWAP1 REVERT JUMPDEST DUP3 PUSH20 0xFFFFFFFFFFFFFFFFFFFFFFFFFFFFFFFFFFFFFFFF AND PUSH2 0x8FC DUP4 SWAP1 DUP2 ISZERO MUL SWAP1 PUSH1 0x40 MLOAD PUSH0 PUSH1 0x40 MLOAD DUP1 DUP4 SUB DUP2 DUP6 DUP9 DUP9 CALL SWAP4 POP POP POP POP ISZERO DUP1 ISZERO PUSH2 0x19A2 JUMPI RETURNDATASIZE PUSH0 DUP1 RETURNDATACOPY RETURNDATASIZE PUSH0 REVERT JUMPDEST POP PUSH1 0x7 SLOAD DUP5 LT PUSH2 0x19E7 JUMPI PUSH1 0x40 MLOAD PUSH32 0x8C379A000000000000000000000000000000000000000000000000000000000 DUP2 MSTORE PUSH1 0x4 ADD PUSH2 0x19DE SWAP1 PUSH2 0x2F56 JUMP JUMPDEST PUSH1 0x40 MLOAD DUP1 SWAP2 SUB SWAP1 REVERT JUMPDEST PUSH2 0x19F0 DUP5 PUSH2 0xBB5 JUMP JUMPDEST PUSH20 0xFFFFFFFFFFFFFFFFFFFFFFFFFFFFFFFFFFFFFFFF AND PUSH2 0x1A0E PUSH2 0x1FD1 JUMP JUMPDEST PUSH20 0xFFFFFFFFFFFFFFFFFFFFFFFFFFFFFFFFFFFFFFFF AND SUB PUSH2 0x1A64 JUMPI PUSH1 0x40 MLOAD PUSH32 0x8C379A000000000000000000000000000000000000000000000000000000000 DUP2 MSTORE PUSH1 0x4 ADD PUSH2 0x1A5B SWAP1 PUSH2 0x2FBE JUMP JUMPDEST PUSH1 0x40 MLOAD DUP1 SWAP2 SUB SWAP1 REVERT JUMPDEST PUSH2 0x1A6D DUP5 PUSH2 0xE2D JUMP JUMPDEST PUSH2 0x1AAC JUMPI PUSH1 0x40 MLOAD PUSH32 0x8C379A000000000000000000000000000000000000000000000000000000000 DUP2 MSTORE PUSH1 0x4 ADD PUSH2 0x1AA3 SWAP1 PUSH2 0x29C8 JUMP JUMPDEST PUSH1 0x40 MLOAD DUP1 SWAP2 SUB SWAP1 REVERT JUMPDEST PUSH0 PUSH20 0xFFFFFFFFFFFFFFFFFFFFFFFFFFFFFFFFFFFFFFFF AND PUSH1 0xC PUSH0 DUP7 DUP2 MSTORE PUSH1 0x20 ADD SWAP1 DUP2 MSTORE PUSH1 0x20 ADD PUSH0 KECCAK256 PUSH0 ADD PUSH0 SWAP1 SLOAD SWAP1 PUSH2 0x100 EXP SWAP1 DIV PUSH20 0xFFFFFFFFFFFFFFFFFFFFFFFFFFFFFFFFFFFFFFFF AND PUSH20 0xFFFFFFFFFFFFFFFFFFFFFFFFFFFFFFFFFFFFFFFF AND EQ PUSH2 0x1CA6 JUMPI PUSH2 0x1B36 PUSH2 0x1B1C PUSH2 0x1FD1 JUMP JUMPDEST PUSH1 0xC PUSH0 DUP8 DUP2 MSTORE PUSH1 0x20 ADD SWAP1 DUP2 MSTORE PUSH1 0x20 ADD PUSH0 KECCAK256 PUSH1 0x1 ADD SLOAD PUSH2 0x20CD JUMP JUMPDEST PUSH2 0x1B8E PUSH2 0x1B41 PUSH2 0x1FD1 JUMP JUMPDEST PUSH1 0xC PUSH0 DUP8 DUP2 MSTORE PUSH1 0x20 ADD SWAP1 DUP2 MSTORE PUSH1 0x20 ADD PUSH0 KECCAK256 PUSH0 ADD PUSH0 SWAP1 SLOAD SWAP1 PUSH2 0x100 EXP SWAP1 DIV PUSH20 0xFFFFFFFFFFFFFFFFFFFFFFFFFFFFFFFFFFFFFFFF AND PUSH1 0xC PUSH0 DUP9 DUP2 MSTORE PUSH1 0x20 ADD SWAP1 DUP2 MSTORE PUSH1 0x20 ADD PUSH0 KECCAK256 PUSH1 0x1 ADD SLOAD PUSH2 0x22BE JUMP JUMPDEST PUSH1 0x1 PUSH1 0xB PUSH0 PUSH1 0xC PUSH0 DUP9 DUP2 MSTORE PUSH1 0x20 ADD SWAP1 DUP2 MSTORE PUSH1 0x20 ADD PUSH0 KECCAK256 PUSH0 ADD PUSH0 SWAP1 SLOAD SWAP1 PUSH2 0x100 EXP SWAP1 DIV PUSH20 0xFFFFFFFFFFFFFFFFFFFFFFFFFFFFFFFFFFFFFFFF AND PUSH20 0xFFFFFFFFFFFFFFFFFFFFFFFFFFFFFFFFFFFFFFFF AND PUSH20 0xFFFFFFFFFFFFFFFFFFFFFFFFFFFFFFFFFFFFFFFF AND DUP2 MSTORE PUSH1 0x20 ADD SWAP1 DUP2 MSTORE PUSH1 0x20 ADD PUSH0 KECCAK256 PUSH0 DUP3 DUP3 SLOAD PUSH2 0x1C0D SWAP2 SWAP1 PUSH2 0x2E49 JUMP JUMPDEST SWAP3 POP POP DUP2 SWAP1 SSTORE POP PUSH1 0x40 MLOAD DUP1 PUSH1 0x40 ADD PUSH1 0x40 MSTORE DUP1 PUSH0 PUSH20 0xFFFFFFFFFFFFFFFFFFFFFFFFFFFFFFFFFFFFFFFF AND DUP2 MSTORE PUSH1 0x20 ADD PUSH0 DUP2 MSTORE POP PUSH1 0xC PUSH0 DUP7 DUP2 MSTORE PUSH1 0x20 ADD SWAP1 DUP2 MSTORE PUSH1 0x20 ADD PUSH0 KECCAK256 PUSH0 DUP3 ADD MLOAD DUP2 PUSH0 ADD PUSH0 PUSH2 0x100 EXP DUP2 SLOAD DUP2 PUSH20 0xFFFFFFFFFFFFFFFFFFFFFFFFFFFFFFFFFFFFFFFF MUL NOT AND SWAP1 DUP4 PUSH20 0xFFFFFFFFFFFFFFFFFFFFFFFFFFFFFFFFFFFFFFFF AND MUL OR SWAP1 SSTORE POP PUSH1 0x20 DUP3 ADD MLOAD DUP2 PUSH1 0x1 ADD SSTORE SWAP1 POP POP PUSH2 0x1D87 JUMP JUMPDEST PUSH2 0x1CAF DUP5 PUSH2 0xBB5 JUMP JUMPDEST PUSH20 0xFFFFFFFFFFFFFFFFFFFFFFFFFFFFFFFFFFFFFFFF AND PUSH0 PUSH20 0xFFFFFFFFFFFFFFFFFFFFFFFFFFFFFFFFFFFFFFFF AND EQ PUSH2 0x1D1C JUMPI PUSH1 0x40 MLOAD PUSH32 0x8C379A000000000000000000000000000000000000000000000000000000000 DUP2 MSTORE PUSH1 0x4 ADD PUSH2 0x1D13 SWAP1 PUSH2 0x3026 JUMP JUMPDEST PUSH1 0x40 MLOAD DUP1 SWAP2 SUB SWAP1 REVERT JUMPDEST PUSH2 0x1D2F PUSH2 0x1D27 PUSH2 0x1FD1 JUMP JUMPDEST PUSH1 0x6 SLOAD PUSH2 0x20CD JUMP JUMPDEST PUSH2 0x1D4A PUSH2 0x1D3A PUSH2 0x1FD1 JUMP JUMPDEST PUSH2 0x1D42 PUSH2 0xED5 JUMP JUMPDEST PUSH1 0x6 SLOAD PUSH2 0x22BE JUMP JUMPDEST PUSH1 0x8 PUSH0 DUP2 SLOAD DUP1 SWAP3 SWAP2 SWAP1 PUSH2 0x1D5C SWAP1 PUSH2 0x3044 JUMP JUMPDEST SWAP2 SWAP1 POP SSTORE POP PUSH1 0x7 SLOAD PUSH1 0x8 SLOAD SUB PUSH2 0x1D86 JUMPI PUSH0 PUSH1 0x9 PUSH0 PUSH2 0x100 EXP DUP2 SLOAD DUP2 PUSH1 0xFF MUL NOT AND SWAP1 DUP4 ISZERO ISZERO MUL OR SWAP1 SSTORE POP JUMPDEST JUMPDEST PUSH2 0x1D8F PUSH2 0x1FD1 JUMP JUMPDEST PUSH1 0xA PUSH0 DUP7 DUP2 MSTORE PUSH1 0x20 ADD SWAP1 DUP2 MSTORE PUSH1 0x20 ADD PUSH0 KECCAK256 PUSH0 PUSH2 0x100 EXP DUP2 SLOAD DUP2 PUSH20 0xFFFFFFFFFFFFFFFFFFFFFFFFFFFFFFFFFFFFFFFF MUL NOT AND SWAP1 DUP4 PUSH20 0xFFFFFFFFFFFFFFFFFFFFFFFFFFFFFFFFFFFFFFFF AND MUL OR SWAP1 SSTORE POP PUSH1 0x1 PUSH1 0xB PUSH0 PUSH2 0x1DEA PUSH2 0x1FD1 JUMP JUMPDEST PUSH20 0xFFFFFFFFFFFFFFFFFFFFFFFFFFFFFFFFFFFFFFFF AND PUSH20 0xFFFFFFFFFFFFFFFFFFFFFFFFFFFFFFFFFFFFFFFF AND DUP2 MSTORE PUSH1 0x20 ADD SWAP1 DUP2 MSTORE PUSH1 0x20 ADD PUSH0 KECCAK256 PUSH0 DUP3 DUP3 SLOAD PUSH2 0x1E31 SWAP2 SWAP1 PUSH2 0x2E7C JUMP JUMPDEST SWAP3 POP POP DUP2 SWAP1 SSTORE POP DUP4 PUSH2 0x1E41 PUSH2 0x1FD1 JUMP JUMPDEST PUSH20 0xFFFFFFFFFFFFFFFFFFFFFFFFFFFFFFFFFFFFFFFF AND PUSH32 0xE597EF12064A0EE0E5030BC6EE7111CE71A32DF2A90CC813F7232A0733D89402 PUSH1 0x40 MLOAD PUSH1 0x40 MLOAD DUP1 SWAP2 SUB SWAP1 LOG3 POP POP POP JUMPDEST POP JUMP JUMPDEST PUSH2 0x1E92 PUSH2 0x1FD1 JUMP JUMPDEST PUSH20 0xFFFFFFFFFFFFFFFFFFFFFFFFFFFFFFFFFFFFFFFF AND PUSH1 0x1 PUSH0 SWAP1 SLOAD SWAP1 PUSH2 0x100 EXP SWAP1 DIV PUSH20 0xFFFFFFFFFFFFFFFFFFFFFFFFFFFFFFFFFFFFFFFF AND PUSH20 0xFFFFFFFFFFFFFFFFFFFFFFFFFFFFFFFFFFFFFFFF AND EQ PUSH2 0x1F20 JUMPI PUSH1 0x40 MLOAD PUSH32 0x8C379A000000000000000000000000000000000000000000000000000000000 DUP2 MSTORE PUSH1 0x4 ADD PUSH2 0x1F17 SWAP1 PUSH2 0x2A30 JUMP JUMPDEST PUSH1 0x40 MLOAD DUP1 SWAP2 SUB SWAP1 REVERT JUMPDEST PUSH0 PUSH20 0xFFFFFFFFFFFFFFFFFFFFFFFFFFFFFFFFFFFFFFFF AND DUP2 PUSH20 0xFFFFFFFFFFFFFFFFFFFFFFFFFFFFFFFFFFFFFFFF AND SUB PUSH2 0x1F8E JUMPI PUSH1 0x40 MLOAD PUSH32 0x8C379A000000000000000000000000000000000000000000000000000000000 DUP2 MSTORE PUSH1 0x4 ADD PUSH2 0x1F85 SWAP1 PUSH2 0x30FB JUMP JUMPDEST PUSH1 0x40 MLOAD DUP1 SWAP2 SUB SWAP1 REVERT JUMPDEST DUP1 PUSH1 0x1 PUSH0 PUSH2 0x100 EXP DUP2 SLOAD DUP2 PUSH20 0xFFFFFFFFFFFFFFFFFFFFFFFFFFFFFFFFFFFFFFFF MUL NOT AND SWAP1 DUP4 PUSH20 0xFFFFFFFFFFFFFFFFFFFFFFFFFFFFFFFFFFFFFFFF AND MUL OR SWAP1 SSTORE POP POP JUMP JUMPDEST PUSH0 CALLER SWAP1 POP SWAP1 JUMP JUMPDEST PUSH0 DUP3 LT ISZERO DUP1 ISZERO PUSH2 0x1FEA JUMPI POP PUSH2 0x3E8 DUP3 GT ISZERO JUMPDEST PUSH2 0x2029 JUMPI PUSH1 0x40 MLOAD PUSH32 0x8C379A000000000000000000000000000000000000000000000000000000000 DUP2 MSTORE PUSH1 0x4 ADD PUSH2 0x2020 SWAP1 PUSH2 0x3189 JUMP JUMPDEST PUSH1 0x40 MLOAD DUP1 SWAP2 SUB SWAP1 REVERT JUMPDEST DUP2 PUSH1 0x3 DUP2 SWAP1 SSTORE POP DUP1 PUSH1 0x2 PUSH0 PUSH2 0x100 EXP DUP2 SLOAD DUP2 PUSH20 0xFFFFFFFFFFFFFFFFFFFFFFFFFFFFFFFFFFFFFFFF MUL NOT AND SWAP1 DUP4 PUSH20 0xFFFFFFFFFFFFFFFFFFFFFFFFFFFFFFFFFFFFFFFF AND MUL OR SWAP1 SSTORE POP POP POP JUMP JUMPDEST PUSH1 0x2 PUSH1 0x4 SLOAD SUB PUSH2 0x20B9 JUMPI PUSH1 0x40 MLOAD PUSH32 0x8C379A000000000000000000000000000000000000000000000000000000000 DUP2 MSTORE PUSH1 0x4 ADD PUSH2 0x20B0 SWAP1 PUSH2 0x31F1 JUMP JUMPDEST PUSH1 0x40 MLOAD DUP1 SWAP2 SUB SWAP1 REVERT JUMPDEST PUSH1 0x2 PUSH1 0x4 DUP2 SWAP1 SSTORE POP JUMP JUMPDEST PUSH1 0x1 PUSH1 0x4 DUP2 SWAP1 SSTORE POP JUMP JUMPDEST PUSH0 PUSH20 0xFFFFFFFFFFFFFFFFFFFFFFFFFFFFFFFFFFFFFFFF AND PUSH1 0x5 PUSH0 SWAP1 SLOAD SWAP1 PUSH2 0x100 EXP SWAP1 DIV PUSH20 0xFFFFFFFFFFFFFFFFFFFFFFFFFFFFFFFFFFFFFFFF AND PUSH20 0xFFFFFFFFFFFFFFFFFFFFFFFFFFFFFFFFFFFFFFFF AND SUB PUSH2 0x21D7 JUMPI PUSH0 PUSH20 0xFFFFFFFFFFFFFFFFFFFFFFFFFFFFFFFFFFFFFFFF AND DUP3 PUSH20 0xFFFFFFFFFFFFFFFFFFFFFFFFFFFFFFFFFFFFFFFF AND SUB PUSH2 0x218F JUMPI PUSH1 0x40 MLOAD PUSH32 0x8C379A000000000000000000000000000000000000000000000000000000000 DUP2 MSTORE PUSH1 0x4 ADD PUSH2 0x2186 SWAP1 PUSH2 0x3259 JUMP JUMPDEST PUSH1 0x40 MLOAD DUP1 SWAP2 SUB SWAP1 REVERT JUMPDEST DUP1 CALLVALUE LT ISZERO PUSH2 0x21D2 JUMPI PUSH1 0x40 MLOAD PUSH32 0x8C379A000000000000000000000000000000000000000000000000000000000 DUP2 MSTORE PUSH1 0x4 ADD PUSH2 0x21C9 SWAP1 PUSH2 0x32C1 JUMP JUMPDEST PUSH1 0x40 MLOAD DUP1 SWAP2 SUB SWAP1 REVERT JUMPDEST PUSH2 0x22BA JUMP JUMPDEST PUSH0 PUSH1 0x5 PUSH0 SWAP1 SLOAD SWAP1 PUSH2 0x100 EXP SWAP1 DIV PUSH20 0xFFFFFFFFFFFFFFFFFFFFFFFFFFFFFFFFFFFFFFFF AND SWAP1 POP DUP2 DUP2 PUSH20 0xFFFFFFFFFFFFFFFFFFFFFFFFFFFFFFFFFFFFFFFF AND PUSH4 0xDD62ED3E DUP6 ADDRESS PUSH1 0x40 MLOAD DUP4 PUSH4 0xFFFFFFFF AND PUSH1 0xE0 SHL DUP2 MSTORE PUSH1 0x4 ADD PUSH2 0x2238 SWAP3 SWAP2 SWAP1 PUSH2 0x32DF JUMP JUMPDEST PUSH1 0x20 PUSH1 0x40 MLOAD DUP1 DUP4 SUB DUP2 DUP7 GAS STATICCALL ISZERO DUP1 ISZERO PUSH2 0x2253 JUMPI RETURNDATASIZE PUSH0 DUP1 RETURNDATACOPY RETURNDATASIZE PUSH0 REVERT JUMPDEST POP POP POP POP PUSH1 0x40 MLOAD RETURNDATASIZE PUSH1 0x1F NOT PUSH1 0x1F DUP3 ADD AND DUP3 ADD DUP1 PUSH1 0x40 MSTORE POP DUP2 ADD SWAP1 PUSH2 0x2277 SWAP2 SWAP1 PUSH2 0x3306 JUMP JUMPDEST LT ISZERO PUSH2 0x22B8 JUMPI PUSH1 0x40 MLOAD PUSH32 0x8C379A000000000000000000000000000000000000000000000000000000000 DUP2 MSTORE PUSH1 0x4 ADD PUSH2 0x22AF SWAP1 PUSH2 0x337B JUMP JUMPDEST PUSH1 0x40 MLOAD DUP1 SWAP2 SUB SWAP1 REVERT JUMPDEST POP JUMPDEST POP POP JUMP JUMPDEST PUSH0 PUSH20 0xFFFFFFFFFFFFFFFFFFFFFFFFFFFFFFFFFFFFFFFF AND PUSH1 0x5 PUSH0 SWAP1 SLOAD SWAP1 PUSH2 0x100 EXP SWAP1 DIV PUSH20 0xFFFFFFFFFFFFFFFFFFFFFFFFFFFFFFFFFFFFFFFF AND PUSH20 0xFFFFFFFFFFFFFFFFFFFFFFFFFFFFFFFFFFFFFFFF AND SUB PUSH2 0x235A JUMPI DUP1 CALLVALUE LT ISZERO PUSH2 0x2355 JUMPI PUSH1 0x40 MLOAD PUSH32 0x8C379A000000000000000000000000000000000000000000000000000000000 DUP2 MSTORE PUSH1 0x4 ADD PUSH2 0x234C SWAP1 PUSH2 0x3409 JUMP JUMPDEST PUSH1 0x40 MLOAD DUP1 SWAP2 SUB SWAP1 REVERT JUMPDEST PUSH2 0x23FF JUMP JUMPDEST PUSH0 PUSH1 0x5 PUSH0 SWAP1 SLOAD SWAP1 PUSH2 0x100 EXP SWAP1 DIV PUSH20 0xFFFFFFFFFFFFFFFFFFFFFFFFFFFFFFFFFFFFFFFF AND SWAP1 POP DUP1 PUSH20 0xFFFFFFFFFFFFFFFFFFFFFFFFFFFFFFFFFFFFFFFF AND PUSH4 0x23B872DD DUP6 DUP6 DUP6 PUSH1 0x40 MLOAD DUP5 PUSH4 0xFFFFFFFF AND PUSH1 0xE0 SHL DUP2 MSTORE PUSH1 0x4 ADD PUSH2 0x23BC SWAP4 SWAP3 SWAP2 SWAP1 PUSH2 0x3427 JUMP JUMPDEST PUSH1 0x20 PUSH1 0x40 MLOAD DUP1 DUP4 SUB DUP2 PUSH0 DUP8 GAS CALL ISZERO DUP1 ISZERO PUSH2 0x23D8 JUMPI RETURNDATASIZE PUSH0 DUP1 RETURNDATACOPY RETURNDATASIZE PUSH0 REVERT JUMPDEST POP POP POP POP PUSH1 0x40 MLOAD RETURNDATASIZE PUSH1 0x1F NOT PUSH1 0x1F DUP3 ADD AND DUP3 ADD DUP1 PUSH1 0x40 MSTORE POP DUP2 ADD SWAP1 PUSH2 0x23FC SWAP2 SWAP1 PUSH2 0x3470 JUMP JUMPDEST POP POP JUMPDEST POP POP POP JUMP JUMPDEST PUSH0 DUP1 REVERT JUMPDEST PUSH0 PUSH32 0xFFFFFFFF00000000000000000000000000000000000000000000000000000000 DUP3 AND SWAP1 POP SWAP2 SWAP1 POP JUMP JUMPDEST PUSH2 0x243C DUP2 PUSH2 0x2408 JUMP JUMPDEST DUP2 EQ PUSH2 0x2446 JUMPI PUSH0 DUP1 REVERT JUMPDEST POP JUMP JUMPDEST PUSH0 DUP2 CALLDATALOAD SWAP1 POP PUSH2 0x2457 DUP2 PUSH2 0x2433 JUMP JUMPDEST SWAP3 SWAP2 POP POP JUMP JUMPDEST PUSH0 PUSH1 0x20 DUP3 DUP5 SUB SLT ISZERO PUSH2 0x2472 JUMPI PUSH2 0x2471 PUSH2 0x2404 JUMP JUMPDEST JUMPDEST PUSH0 PUSH2 0x247F DUP5 DUP3 DUP6 ADD PUSH2 0x2449 JUMP JUMPDEST SWAP2 POP POP SWAP3 SWAP2 POP POP JUMP JUMPDEST PUSH0 DUP2 ISZERO ISZERO SWAP1 POP SWAP2 SWAP1 POP JUMP JUMPDEST PUSH2 0x249C DUP2 PUSH2 0x2488 JUMP JUMPDEST DUP3 MSTORE POP POP JUMP JUMPDEST PUSH0 PUSH1 0x20 DUP3 ADD SWAP1 POP PUSH2 0x24B5 PUSH0 DUP4 ADD DUP5 PUSH2 0x2493 JUMP JUMPDEST SWAP3 SWAP2 POP POP JUMP JUMPDEST PUSH0 DUP2 SWAP1 POP SWAP2 SWAP1 POP JUMP JUMPDEST PUSH2 0x24CD DUP2 PUSH2 0x24BB JUMP JUMPDEST DUP3 MSTORE POP POP JUMP JUMPDEST PUSH0 PUSH1 0x20 DUP3 ADD SWAP1 POP PUSH2 0x24E6 PUSH0 DUP4 ADD DUP5 PUSH2 0x24C4 JUMP JUMPDEST SWAP3 SWAP2 POP POP JUMP JUMPDEST PUSH2 0x24F5 DUP2 PUSH2 0x24BB JUMP JUMPDEST DUP2 EQ PUSH2 0x24FF JUMPI PUSH0 DUP1 REVERT JUMPDEST POP JUMP JUMPDEST PUSH0 DUP2 CALLDATALOAD SWAP1 POP PUSH2 0x2510 DUP2 PUSH2 0x24EC JUMP JUMPDEST SWAP3 SWAP2 POP POP JUMP JUMPDEST PUSH0 PUSH1 0x20 DUP3 DUP5 SUB SLT ISZERO PUSH2 0x252B JUMPI PUSH2 0x252A PUSH2 0x2404 JUMP JUMPDEST JUMPDEST PUSH0 PUSH2 0x2538 DUP5 DUP3 DUP6 ADD PUSH2 0x2502 JUMP JUMPDEST SWAP2 POP POP SWAP3 SWAP2 POP POP JUMP JUMPDEST PUSH0 PUSH20 0xFFFFFFFFFFFFFFFFFFFFFFFFFFFFFFFFFFFFFFFF DUP3 AND SWAP1 POP SWAP2 SWAP1 POP JUMP JUMPDEST PUSH0 PUSH2 0x256A DUP3 PUSH2 0x2541 JUMP JUMPDEST SWAP1 POP SWAP2 SWAP1 POP JUMP JUMPDEST PUSH2 0x257A DUP2 PUSH2 0x2560 JUMP JUMPDEST DUP2 EQ PUSH2 0x2584 JUMPI PUSH0 DUP1 REVERT JUMPDEST POP JUMP JUMPDEST PUSH0 DUP2 CALLDATALOAD SWAP1 POP PUSH2 0x2595 DUP2 PUSH2 0x2571 JUMP JUMPDEST SWAP3 SWAP2 POP POP JUMP JUMPDEST PUSH0 DUP1 PUSH1 0x40 DUP4 DUP6 SUB SLT ISZERO PUSH2 0x25B1 JUMPI PUSH2 0x25B0 PUSH2 0x2404 JUMP JUMPDEST JUMPDEST PUSH0 PUSH2 0x25BE DUP6 DUP3 DUP7 ADD PUSH2 0x2502 JUMP JUMPDEST SWAP3 POP POP PUSH1 0x20 PUSH2 0x25CF DUP6 DUP3 DUP7 ADD PUSH2 0x2587 JUMP JUMPDEST SWAP2 POP POP SWAP3 POP SWAP3 SWAP1 POP JUMP JUMPDEST PUSH2 0x25E2 DUP2 PUSH2 0x2560 JUMP JUMPDEST DUP3 MSTORE POP POP JUMP JUMPDEST PUSH0 PUSH1 0x20 DUP3 ADD SWAP1 POP PUSH2 0x25FB PUSH0 DUP4 ADD DUP5 PUSH2 0x25D9 JUMP JUMPDEST SWAP3 SWAP2 POP POP JUMP JUMPDEST PUSH2 0x260A DUP2 PUSH2 0x2488 JUMP JUMPDEST DUP2 EQ PUSH2 0x2614 JUMPI PUSH0 DUP1 REVERT JUMPDEST POP JUMP JUMPDEST PUSH0 DUP2 CALLDATALOAD SWAP1 POP PUSH2 0x2625 DUP2 PUSH2 0x2601 JUMP JUMPDEST SWAP3 SWAP2 POP POP JUMP JUMPDEST PUSH0 DUP1 PUSH0 DUP1 PUSH1 0x80 DUP6 DUP8 SUB SLT ISZERO PUSH2 0x2643 JUMPI PUSH2 0x2642 PUSH2 0x2404 JUMP JUMPDEST JUMPDEST PUSH0 PUSH2 0x2650 DUP8 DUP3 DUP9 ADD PUSH2 0x2502 JUMP JUMPDEST SWAP5 POP POP PUSH1 0x20 PUSH2 0x2661 DUP8 DUP3 DUP9 ADD PUSH2 0x2502 JUMP JUMPDEST SWAP4 POP POP PUSH1 0x40 PUSH2 0x2672 DUP8 DUP3 DUP9 ADD PUSH2 0x2502 JUMP JUMPDEST SWAP3 POP POP PUSH1 0x60 PUSH2 0x2683 DUP8 DUP3 DUP9 ADD PUSH2 0x2617 JUMP JUMPDEST SWAP2 POP POP SWAP3 SWAP6 SWAP2 SWAP5 POP SWAP3 POP JUMP JUMPDEST PUSH0 PUSH1 0x20 DUP3 DUP5 SUB SLT ISZERO PUSH2 0x26A4 JUMPI PUSH2 0x26A3 PUSH2 0x2404 JUMP JUMPDEST JUMPDEST PUSH0 PUSH2 0x26B1 DUP5 DUP3 DUP6 ADD PUSH2 0x2587 JUMP JUMPDEST SWAP2 POP POP SWAP3 SWAP2 POP POP JUMP JUMPDEST PUSH0 DUP1 PUSH1 0x40 DUP4 DUP6 SUB SLT ISZERO PUSH2 0x26D0 JUMPI PUSH2 0x26CF PUSH2 0x2404 JUMP JUMPDEST JUMPDEST PUSH0 PUSH2 0x26DD DUP6 DUP3 DUP7 ADD PUSH2 0x2502 JUMP JUMPDEST SWAP3 POP POP PUSH1 0x20 PUSH2 0x26EE DUP6 DUP3 DUP7 ADD PUSH2 0x2502 JUMP JUMPDEST SWAP2 POP POP SWAP3 POP SWAP3 SWAP1 POP JUMP JUMPDEST PUSH0 DUP1 PUSH1 0x40 DUP4 DUP6 SUB SLT ISZERO PUSH2 0x270E JUMPI PUSH2 0x270D PUSH2 0x2404 JUMP JUMPDEST JUMPDEST PUSH0 PUSH2 0x271B DUP6 DUP3 DUP7 ADD PUSH2 0x2587 JUMP JUMPDEST SWAP3 POP POP PUSH1 0x20 PUSH2 0x272C DUP6 DUP3 DUP7 ADD PUSH2 0x2502 JUMP JUMPDEST SWAP2 POP POP SWAP3 POP SWAP3 SWAP1 POP JUMP JUMPDEST PUSH0 DUP2 MLOAD SWAP1 POP SWAP2 SWAP1 POP JUMP JUMPDEST PUSH0 DUP3 DUP3 MSTORE PUSH1 0x20 DUP3 ADD SWAP1 POP SWAP3 SWAP2 POP POP JUMP JUMPDEST PUSH0 JUMPDEST DUP4 DUP2 LT ISZERO PUSH2 0x276D JUMPI DUP1 DUP3 ADD MLOAD DUP2 DUP5 ADD MSTORE PUSH1 0x20 DUP2 ADD SWAP1 POP PUSH2 0x2752 JUMP JUMPDEST PUSH0 DUP5 DUP5 ADD MSTORE POP POP POP POP JUMP JUMPDEST PUSH0 PUSH1 0x1F NOT PUSH1 0x1F DUP4 ADD AND SWAP1 POP SWAP2 SWAP1 POP JUMP JUMPDEST PUSH0 PUSH2 0x2792 DUP3 PUSH2 0x2736 JUMP JUMPDEST PUSH2 0x279C DUP2 DUP6 PUSH2 0x2740 JUMP JUMPDEST SWAP4 POP PUSH2 0x27AC DUP2 DUP6 PUSH1 0x20 DUP7 ADD PUSH2 0x2750 JUMP JUMPDEST PUSH2 0x27B5 DUP2 PUSH2 0x2778 JUMP JUMPDEST DUP5 ADD SWAP2 POP POP SWAP3 SWAP2 POP POP JUMP JUMPDEST PUSH0 PUSH1 0x20 DUP3 ADD SWAP1 POP DUP2 DUP2 SUB PUSH0 DUP4 ADD MSTORE PUSH2 0x27D8 DUP2 DUP5 PUSH2 0x2788 JUMP JUMPDEST SWAP1 POP SWAP3 SWAP2 POP POP JUMP JUMPDEST PUSH32 0x4F6E6C7920666163746F72792063616E2064657461636820697473656C660000 PUSH0 DUP3 ADD MSTORE POP JUMP JUMPDEST PUSH0 PUSH2 0x2814 PUSH1 0x1E DUP4 PUSH2 0x2740 JUMP JUMPDEST SWAP2 POP PUSH2 0x281F DUP3 PUSH2 0x27E0 JUMP JUMPDEST PUSH1 0x20 DUP3 ADD SWAP1 POP SWAP2 SWAP1 POP JUMP JUMPDEST PUSH0 PUSH1 0x20 DUP3 ADD SWAP1 POP DUP2 DUP2 SUB PUSH0 DUP4 ADD MSTORE PUSH2 0x2841 DUP2 PUSH2 0x2808 JUMP JUMPDEST SWAP1 POP SWAP2 SWAP1 POP JUMP JUMPDEST PUSH0 DUP2 MLOAD SWAP1 POP PUSH2 0x2856 DUP2 PUSH2 0x24EC JUMP JUMPDEST SWAP3 SWAP2 POP POP JUMP JUMPDEST PUSH0 DUP2 MLOAD SWAP1 POP PUSH2 0x286A DUP2 PUSH2 0x2571 JUMP JUMPDEST SWAP3 SWAP2 POP POP JUMP JUMPDEST PUSH0 DUP1 PUSH1 0x40 DUP4 DUP6 SUB SLT ISZERO PUSH2 0x2886 JUMPI PUSH2 0x2885 PUSH2 0x2404 JUMP JUMPDEST JUMPDEST PUSH0 PUSH2 0x2893 DUP6 DUP3 DUP7 ADD PUSH2 0x2848 JUMP JUMPDEST SWAP3 POP POP PUSH1 0x20 PUSH2 0x28A4 DUP6 DUP3 DUP7 ADD PUSH2 0x285C JUMP JUMPDEST SWAP2 POP POP SWAP3 POP SWAP3 SWAP1 POP JUMP JUMPDEST PUSH32 0x506C656173652070726F7669646520656E6F7567682066656500000000000000 PUSH0 DUP3 ADD MSTORE POP JUMP JUMPDEST PUSH0 PUSH2 0x28E2 PUSH1 0x19 DUP4 PUSH2 0x2740 JUMP JUMPDEST SWAP2 POP PUSH2 0x28ED DUP3 PUSH2 0x28AE JUMP JUMPDEST PUSH1 0x20 DUP3 ADD SWAP1 POP SWAP2 SWAP1 POP JUMP JUMPDEST PUSH0 PUSH1 0x20 DUP3 ADD SWAP1 POP DUP2 DUP2 SUB PUSH0 DUP4 ADD MSTORE PUSH2 0x290F DUP2 PUSH2 0x28D6 JUMP JUMPDEST SWAP1 POP SWAP2 SWAP1 POP JUMP JUMPDEST PUSH32 0x596F7520646F6E2774206F776E2074686973207469636B657400000000000000 PUSH0 DUP3 ADD MSTORE POP JUMP JUMPDEST PUSH0 PUSH2 0x294A PUSH1 0x19 DUP4 PUSH2 0x2740 JUMP JUMPDEST SWAP2 POP PUSH2 0x2955 DUP3 PUSH2 0x2916 JUMP JUMPDEST PUSH1 0x20 DUP3 ADD SWAP1 POP SWAP2 SWAP1 POP JUMP JUMPDEST PUSH0 PUSH1 0x20 DUP3 ADD SWAP1 POP DUP2 DUP2 SUB PUSH0 DUP4 ADD MSTORE PUSH2 0x2977 DUP2 PUSH2 0x293E JUMP JUMPDEST SWAP1 POP SWAP2 SWAP1 POP JUMP JUMPDEST PUSH32 0x5469636B6574206E6F7420666F722073616C6500000000000000000000000000 PUSH0 DUP3 ADD MSTORE POP JUMP JUMPDEST PUSH0 PUSH2 0x29B2 PUSH1 0x13 DUP4 PUSH2 0x2740 JUMP JUMPDEST SWAP2 POP PUSH2 0x29BD DUP3 PUSH2 0x297E JUMP JUMPDEST PUSH1 0x20 DUP3 ADD SWAP1 POP SWAP2 SWAP1 POP JUMP JUMPDEST PUSH0 PUSH1 0x20 DUP3 ADD SWAP1 POP DUP2 DUP2 SUB PUSH0 DUP4 ADD MSTORE PUSH2 0x29DF DUP2 PUSH2 0x29A6 JUMP JUMPDEST SWAP1 POP SWAP2 SWAP1 POP JUMP JUMPDEST PUSH32 0x4F776E65723A2063616C6C6572206973206E6F7420746865206F776E65720000 PUSH0 DUP3 ADD MSTORE POP JUMP JUMPDEST PUSH0 PUSH2 0x2A1A PUSH1 0x1E DUP4 PUSH2 0x2740 JUMP JUMPDEST SWAP2 POP PUSH2 0x2A25 DUP3 PUSH2 0x29E6 JUMP JUMPDEST PUSH1 0x20 DUP3 ADD SWAP1 POP SWAP2 SWAP1 POP JUMP JUMPDEST PUSH0 PUSH1 0x20 DUP3 ADD SWAP1 POP DUP2 DUP2 SUB PUSH0 DUP4 ADD MSTORE PUSH2 0x2A47 DUP2 PUSH2 0x2A0E JUMP JUMPDEST SWAP1 POP SWAP2 SWAP1 POP JUMP JUMPDEST PUSH32 0x496E76616C6964207461782076616C7565000000000000000000000000000000 PUSH0 DUP3 ADD MSTORE POP JUMP JUMPDEST PUSH0 PUSH2 0x2A82 PUSH1 0x11 DUP4 PUSH2 0x2740 JUMP JUMPDEST SWAP2 POP PUSH2 0x2A8D DUP3 PUSH2 0x2A4E JUMP JUMPDEST PUSH1 0x20 DUP3 ADD SWAP1 POP SWAP2 SWAP1 POP JUMP JUMPDEST PUSH0 PUSH1 0x20 DUP3 ADD SWAP1 POP DUP2 DUP2 SUB PUSH0 DUP4 ADD MSTORE PUSH2 0x2AAF DUP2 PUSH2 0x2A76 JUMP JUMPDEST SWAP1 POP SWAP2 SWAP1 POP JUMP JUMPDEST PUSH32 0x4D617820313020646563696D616C730000000000000000000000000000000000 PUSH0 DUP3 ADD MSTORE POP JUMP JUMPDEST PUSH0 PUSH2 0x2AEA PUSH1 0xF DUP4 PUSH2 0x2740 JUMP JUMPDEST SWAP2 POP PUSH2 0x2AF5 DUP3 PUSH2 0x2AB6 JUMP JUMPDEST PUSH1 0x20 DUP3 ADD SWAP1 POP SWAP2 SWAP1 POP JUMP JUMPDEST PUSH0 PUSH1 0x20 DUP3 ADD SWAP1 POP DUP2 DUP2 SUB PUSH0 DUP4 ADD MSTORE PUSH2 0x2B17 DUP2 PUSH2 0x2ADE JUMP JUMPDEST SWAP1 POP SWAP2 SWAP1 POP JUMP JUMPDEST PUSH32 0x41646472657373207A65726F206973206E6F7420612076616C6964206F776E65 PUSH0 DUP3 ADD MSTORE PUSH32 0x7200000000000000000000000000000000000000000000000000000000000000 PUSH1 0x20 DUP3 ADD MSTORE POP JUMP JUMPDEST PUSH0 PUSH2 0x2B78 PUSH1 0x21 DUP4 PUSH2 0x2740 JUMP JUMPDEST SWAP2 POP PUSH2 0x2B83 DUP3 PUSH2 0x2B1E JUMP JUMPDEST PUSH1 0x40 DUP3 ADD SWAP1 POP SWAP2 SWAP1 POP JUMP JUMPDEST PUSH0 PUSH1 0x20 DUP3 ADD SWAP1 POP DUP2 DUP2 SUB PUSH0 DUP4 ADD MSTORE PUSH2 0x2BA5 DUP2 PUSH2 0x2B6C JUMP JUMPDEST SWAP1 POP SWAP2 SWAP1 POP JUMP JUMPDEST PUSH32 0x50726573616C6520697320616374697665000000000000000000000000000000 PUSH0 DUP3 ADD MSTORE POP JUMP JUMPDEST PUSH0 PUSH2 0x2BE0 PUSH1 0x11 DUP4 PUSH2 0x2740 JUMP JUMPDEST SWAP2 POP PUSH2 0x2BEB DUP3 PUSH2 0x2BAC JUMP JUMPDEST PUSH1 0x20 DUP3 ADD SWAP1 POP SWAP2 SWAP1 POP JUMP JUMPDEST PUSH0 PUSH1 0x20 DUP3 ADD SWAP1 POP DUP2 DUP2 SUB PUSH0 DUP4 ADD MSTORE PUSH2 0x2C0D DUP2 PUSH2 0x2BD4 JUMP JUMPDEST SWAP1 POP SWAP2 SWAP1 POP JUMP JUMPDEST PUSH32 0x54726164696E672069732064697361626C656400000000000000000000000000 PUSH0 DUP3 ADD MSTORE POP JUMP JUMPDEST PUSH0 PUSH2 0x2C48 PUSH1 0x13 DUP4 PUSH2 0x2740 JUMP JUMPDEST SWAP2 POP PUSH2 0x2C53 DUP3 PUSH2 0x2C14 JUMP JUMPDEST PUSH1 0x20 DUP3 ADD SWAP1 POP SWAP2 SWAP1 POP JUMP JUMPDEST PUSH0 PUSH1 0x20 DUP3 ADD SWAP1 POP DUP2 DUP2 SUB PUSH0 DUP4 ADD MSTORE PUSH2 0x2C75 DUP2 PUSH2 0x2C3C JUMP JUMPDEST SWAP1 POP SWAP2 SWAP1 POP JUMP JUMPDEST PUSH32 0x5072696365206D7573742062652067726561746572207468616E207A65726F00 PUSH0 DUP3 ADD MSTORE POP JUMP JUMPDEST PUSH0 PUSH2 0x2CB0 PUSH1 0x1F DUP4 PUSH2 0x2740 JUMP JUMPDEST SWAP2 POP PUSH2 0x2CBB DUP3 PUSH2 0x2C7C JUMP JUMPDEST PUSH1 0x20 DUP3 ADD SWAP1 POP SWAP2 SWAP1 POP JUMP JUMPDEST PUSH0 PUSH1 0x20 DUP3 ADD SWAP1 POP DUP2 DUP2 SUB PUSH0 DUP4 ADD MSTORE PUSH2 0x2CDD DUP2 PUSH2 0x2CA4 JUMP JUMPDEST SWAP1 POP SWAP2 SWAP1 POP JUMP JUMPDEST PUSH32 0x416C726561647920666F722073616C6500000000000000000000000000000000 PUSH0 DUP3 ADD MSTORE POP JUMP JUMPDEST PUSH0 PUSH2 0x2D18 PUSH1 0x10 DUP4 PUSH2 0x2740 JUMP JUMPDEST SWAP2 POP PUSH2 0x2D23 DUP3 PUSH2 0x2CE4 JUMP JUMPDEST PUSH1 0x20 DUP3 ADD SWAP1 POP SWAP2 SWAP1 POP JUMP JUMPDEST PUSH0 PUSH1 0x20 DUP3 ADD SWAP1 POP DUP2 DUP2 SUB PUSH0 DUP4 ADD MSTORE PUSH2 0x2D45 DUP2 PUSH2 0x2D0C JUMP JUMPDEST SWAP1 POP SWAP2 SWAP1 POP JUMP JUMPDEST PUSH32 0x5472616E736665722063616C6C6572206973206E6F74206F776E657200000000 PUSH0 DUP3 ADD MSTORE POP JUMP JUMPDEST PUSH0 PUSH2 0x2D80 PUSH1 0x1C DUP4 PUSH2 0x2740 JUMP JUMPDEST SWAP2 POP PUSH2 0x2D8B DUP3 PUSH2 0x2D4C JUMP JUMPDEST PUSH1 0x20 DUP3 ADD SWAP1 POP SWAP2 SWAP1 POP JUMP JUMPDEST PUSH0 PUSH1 0x20 DUP3 ADD SWAP1 POP DUP2 DUP2 SUB PUSH0 DUP4 ADD MSTORE PUSH2 0x2DAD DUP2 PUSH2 0x2D74 JUMP JUMPDEST SWAP1 POP SWAP2 SWAP1 POP JUMP JUMPDEST PUSH32 0x5472616E7366657220746F20746865207A65726F206164647265737300000000 PUSH0 DUP3 ADD MSTORE POP JUMP JUMPDEST PUSH0 PUSH2 0x2DE8 PUSH1 0x1C DUP4 PUSH2 0x2740 JUMP JUMPDEST SWAP2 POP PUSH2 0x2DF3 DUP3 PUSH2 0x2DB4 JUMP JUMPDEST PUSH1 0x20 DUP3 ADD SWAP1 POP SWAP2 SWAP1 POP JUMP JUMPDEST PUSH0 PUSH1 0x20 DUP3 ADD SWAP1 POP DUP2 DUP2 SUB PUSH0 DUP4 ADD MSTORE PUSH2 0x2E15 DUP2 PUSH2 0x2DDC JUMP JUMPDEST SWAP1 POP SWAP2 SWAP1 POP JUMP JUMPDEST PUSH32 0x4E487B7100000000000000000000000000000000000000000000000000000000 PUSH0 MSTORE PUSH1 0x11 PUSH1 0x4 MSTORE PUSH1 0x24 PUSH0 REVERT JUMPDEST PUSH0 PUSH2 0x2E53 DUP3 PUSH2 0x24BB JUMP JUMPDEST SWAP2 POP PUSH2 0x2E5E DUP4 PUSH2 0x24BB JUMP JUMPDEST SWAP3 POP DUP3 DUP3 SUB SWAP1 POP DUP2 DUP2 GT ISZERO PUSH2 0x2E76 JUMPI PUSH2 0x2E75 PUSH2 0x2E1C JUMP JUMPDEST JUMPDEST SWAP3 SWAP2 POP POP JUMP JUMPDEST PUSH0 PUSH2 0x2E86 DUP3 PUSH2 0x24BB JUMP JUMPDEST SWAP2 POP PUSH2 0x2E91 DUP4 PUSH2 0x24BB JUMP JUMPDEST SWAP3 POP DUP3 DUP3 ADD SWAP1 POP DUP1 DUP3 GT ISZERO PUSH2 0x2EA9 JUMPI PUSH2 0x2EA8 PUSH2 0x2E1C JUMP JUMPDEST JUMPDEST SWAP3 SWAP2 POP POP JUMP JUMPDEST PUSH32 0x4E487B7100000000000000000000000000000000000000000000000000000000 PUSH0 MSTORE PUSH1 0x22 PUSH1 0x4 MSTORE PUSH1 0x24 PUSH0 REVERT JUMPDEST PUSH0 PUSH1 0x2 DUP3 DIV SWAP1 POP PUSH1 0x1 DUP3 AND DUP1 PUSH2 0x2EF3 JUMPI PUSH1 0x7F DUP3 AND SWAP2 POP JUMPDEST PUSH1 0x20 DUP3 LT DUP2 SUB PUSH2 0x2F06 JUMPI PUSH2 0x2F05 PUSH2 0x2EAF JUMP JUMPDEST JUMPDEST POP SWAP2 SWAP1 POP JUMP JUMPDEST PUSH32 0x5469636B657420736F6C64206F75740000000000000000000000000000000000 PUSH0 DUP3 ADD MSTORE POP JUMP JUMPDEST PUSH0 PUSH2 0x2F40 PUSH1 0xF DUP4 PUSH2 0x2740 JUMP JUMPDEST SWAP2 POP PUSH2 0x2F4B DUP3 PUSH2 0x2F0C JUMP JUMPDEST PUSH1 0x20 DUP3 ADD SWAP1 POP SWAP2 SWAP1 POP JUMP JUMPDEST PUSH0 PUSH1 0x20 DUP3 ADD SWAP1 POP DUP2 DUP2 SUB PUSH0 DUP4 ADD MSTORE PUSH2 0x2F6D DUP2 PUSH2 0x2F34 JUMP JUMPDEST SWAP1 POP SWAP2 SWAP1 POP JUMP JUMPDEST PUSH32 0x596F7520616C7265616479206F776E2074686973207469636B65740000000000 PUSH0 DUP3 ADD MSTORE POP JUMP JUMPDEST PUSH0 PUSH2 0x2FA8 PUSH1 0x1B DUP4 PUSH2 0x2740 JUMP JUMPDEST SWAP2 POP PUSH2 0x2FB3 DUP3 PUSH2 0x2F74 JUMP JUMPDEST PUSH1 0x20 DUP3 ADD SWAP1 POP SWAP2 SWAP1 POP JUMP JUMPDEST PUSH0 PUSH1 0x20 DUP3 ADD SWAP1 POP DUP2 DUP2 SUB PUSH0 DUP4 ADD MSTORE PUSH2 0x2FD5 DUP2 PUSH2 0x2F9C JUMP JUMPDEST SWAP1 POP SWAP2 SWAP1 POP JUMP JUMPDEST PUSH32 0x5469636B6574206E6F7420617661696C61626C65000000000000000000000000 PUSH0 DUP3 ADD MSTORE POP JUMP JUMPDEST PUSH0 PUSH2 0x3010 PUSH1 0x14 DUP4 PUSH2 0x2740 JUMP JUMPDEST SWAP2 POP PUSH2 0x301B DUP3 PUSH2 0x2FDC JUMP JUMPDEST PUSH1 0x20 DUP3 ADD SWAP1 POP SWAP2 SWAP1 POP JUMP JUMPDEST PUSH0 PUSH1 0x20 DUP3 ADD SWAP1 POP DUP2 DUP2 SUB PUSH0 DUP4 ADD MSTORE PUSH2 0x303D DUP2 PUSH2 0x3004 JUMP JUMPDEST SWAP1 POP SWAP2 SWAP1 POP JUMP JUMPDEST PUSH0 PUSH2 0x304E DUP3 PUSH2 0x24BB JUMP JUMPDEST SWAP2 POP PUSH32 0xFFFFFFFFFFFFFFFFFFFFFFFFFFFFFFFFFFFFFFFFFFFFFFFFFFFFFFFFFFFFFFFF DUP3 SUB PUSH2 0x3080 JUMPI PUSH2 0x307F PUSH2 0x2E1C JUMP JUMPDEST JUMPDEST PUSH1 0x1 DUP3 ADD SWAP1 POP SWAP2 SWAP1 POP JUMP JUMPDEST PUSH32 0x4F776E61626C653A206E6577206F776E657220697320746865207A65726F2061 PUSH0 DUP3 ADD MSTORE PUSH32 0x6464726573730000000000000000000000000000000000000000000000000000 PUSH1 0x20 DUP3 ADD MSTORE POP JUMP JUMPDEST PUSH0 PUSH2 0x30E5 PUSH1 0x26 DUP4 PUSH2 0x2740 JUMP JUMPDEST SWAP2 POP PUSH2 0x30F0 DUP3 PUSH2 0x308B JUMP JUMPDEST PUSH1 0x40 DUP3 ADD SWAP1 POP SWAP2 SWAP1 POP JUMP JUMPDEST PUSH0 PUSH1 0x20 DUP3 ADD SWAP1 POP DUP2 DUP2 SUB PUSH0 DUP4 ADD MSTORE PUSH2 0x3112 DUP2 PUSH2 0x30D9 JUMP JUMPDEST SWAP1 POP SWAP2 SWAP1 POP JUMP JUMPDEST PUSH32 0x526F79616C7479206D757374206265206265747765656E203020616E64203130 PUSH0 DUP3 ADD MSTORE PUSH32 0x3030000000000000000000000000000000000000000000000000000000000000 PUSH1 0x20 DUP3 ADD MSTORE POP JUMP JUMPDEST PUSH0 PUSH2 0x3173 PUSH1 0x22 DUP4 PUSH2 0x2740 JUMP JUMPDEST SWAP2 POP PUSH2 0x317E DUP3 PUSH2 0x3119 JUMP JUMPDEST PUSH1 0x40 DUP3 ADD SWAP1 POP SWAP2 SWAP1 POP JUMP JUMPDEST PUSH0 PUSH1 0x20 DUP3 ADD SWAP1 POP DUP2 DUP2 SUB PUSH0 DUP4 ADD MSTORE PUSH2 0x31A0 DUP2 PUSH2 0x3167 JUMP JUMPDEST SWAP1 POP SWAP2 SWAP1 POP JUMP JUMPDEST PUSH32 0x5265656E7472616E637947756172643A207265656E7472616E742063616C6C00 PUSH0 DUP3 ADD MSTORE POP JUMP JUMPDEST PUSH0 PUSH2 0x31DB PUSH1 0x1F DUP4 PUSH2 0x2740 JUMP JUMPDEST SWAP2 POP PUSH2 0x31E6 DUP3 PUSH2 0x31A7 JUMP JUMPDEST PUSH1 0x20 DUP3 ADD SWAP1 POP SWAP2 SWAP1 POP JUMP JUMPDEST PUSH0 PUSH1 0x20 DUP3 ADD SWAP1 POP DUP2 DUP2 SUB PUSH0 DUP4 ADD MSTORE PUSH2 0x3208 DUP2 PUSH2 0x31CF JUMP JUMPDEST SWAP1 POP SWAP2 SWAP1 POP JUMP JUMPDEST PUSH32 0x496E76616C69642073656E646572000000000000000000000000000000000000 PUSH0 DUP3 ADD MSTORE POP JUMP JUMPDEST PUSH0 PUSH2 0x3243 PUSH1 0xE DUP4 PUSH2 0x2740 JUMP JUMPDEST SWAP2 POP PUSH2 0x324E DUP3 PUSH2 0x320F JUMP JUMPDEST PUSH1 0x20 DUP3 ADD SWAP1 POP SWAP2 SWAP1 POP JUMP JUMPDEST PUSH0 PUSH1 0x20 DUP3 ADD SWAP1 POP DUP2 DUP2 SUB PUSH0 DUP4 ADD MSTORE PUSH2 0x3270 DUP2 PUSH2 0x3237 JUMP JUMPDEST SWAP1 POP SWAP2 SWAP1 POP JUMP JUMPDEST PUSH32 0x496E73756666696369656E7420746F6B656E207375626D697474656400000000 PUSH0 DUP3 ADD MSTORE POP JUMP JUMPDEST PUSH0 PUSH2 0x32AB PUSH1 0x1C DUP4 PUSH2 0x2740 JUMP JUMPDEST SWAP2 POP PUSH2 0x32B6 DUP3 PUSH2 0x3277 JUMP JUMPDEST PUSH1 0x20 DUP3 ADD SWAP1 POP SWAP2 SWAP1 POP JUMP JUMPDEST PUSH0 PUSH1 0x20 DUP3 ADD SWAP1 POP DUP2 DUP2 SUB PUSH0 DUP4 ADD MSTORE PUSH2 0x32D8 DUP2 PUSH2 0x329F JUMP JUMPDEST SWAP1 POP SWAP2 SWAP1 POP JUMP JUMPDEST PUSH0 PUSH1 0x40 DUP3 ADD SWAP1 POP PUSH2 0x32F2 PUSH0 DUP4 ADD DUP6 PUSH2 0x25D9 JUMP JUMPDEST PUSH2 0x32FF PUSH1 0x20 DUP4 ADD DUP5 PUSH2 0x25D9 JUMP JUMPDEST SWAP4 SWAP3 POP POP POP JUMP JUMPDEST PUSH0 PUSH1 0x20 DUP3 DUP5 SUB SLT ISZERO PUSH2 0x331B JUMPI PUSH2 0x331A PUSH2 0x2404 JUMP JUMPDEST JUMPDEST PUSH0 PUSH2 0x3328 DUP5 DUP3 DUP6 ADD PUSH2 0x2848 JUMP JUMPDEST SWAP2 POP POP SWAP3 SWAP2 POP POP JUMP JUMPDEST PUSH32 0x496E73756666696369656E7420616C6C6F77616E63652070726F766964656400 PUSH0 DUP3 ADD MSTORE POP JUMP JUMPDEST PUSH0 PUSH2 0x3365 PUSH1 0x1F DUP4 PUSH2 0x2740 JUMP JUMPDEST SWAP2 POP PUSH2 0x3370 DUP3 PUSH2 0x3331 JUMP JUMPDEST PUSH1 0x20 DUP3 ADD SWAP1 POP SWAP2 SWAP1 POP JUMP JUMPDEST PUSH0 PUSH1 0x20 DUP3 ADD SWAP1 POP DUP2 DUP2 SUB PUSH0 DUP4 ADD MSTORE PUSH2 0x3392 DUP2 PUSH2 0x3359 JUMP JUMPDEST SWAP1 POP SWAP2 SWAP1 POP JUMP JUMPDEST PUSH32 0x496E73756666696369656E742066756E64732070726F7669646564202876616C PUSH0 DUP3 ADD MSTORE PUSH32 0x7565290000000000000000000000000000000000000000000000000000000000 PUSH1 0x20 DUP3 ADD MSTORE POP JUMP JUMPDEST PUSH0 PUSH2 0x33F3 PUSH1 0x23 DUP4 PUSH2 0x2740 JUMP JUMPDEST SWAP2 POP PUSH2 0x33FE DUP3 PUSH2 0x3399 JUMP JUMPDEST PUSH1 0x40 DUP3 ADD SWAP1 POP SWAP2 SWAP1 POP JUMP JUMPDEST PUSH0 PUSH1 0x20 DUP3 ADD SWAP1 POP DUP2 DUP2 SUB PUSH0 DUP4 ADD MSTORE PUSH2 0x3420 DUP2 PUSH2 0x33E7 JUMP JUMPDEST SWAP1 POP SWAP2 SWAP1 POP JUMP JUMPDEST PUSH0 PUSH1 0x60 DUP3 ADD SWAP1 POP PUSH2 0x343A PUSH0 DUP4 ADD DUP7 PUSH2 0x25D9 JUMP JUMPDEST PUSH2 0x3447 PUSH1 0x20 DUP4 ADD DUP6 PUSH2 0x25D9 JUMP JUMPDEST PUSH2 0x3454 PUSH1 0x40 DUP4 ADD DUP5 PUSH2 0x24C4 JUMP JUMPDEST SWAP5 SWAP4 POP POP POP POP JUMP JUMPDEST PUSH0 DUP2 MLOAD SWAP1 POP PUSH2 0x346A DUP2 PUSH2 0x2601 JUMP JUMPDEST SWAP3 SWAP2 POP POP JUMP JUMPDEST PUSH0 PUSH1 0x20 DUP3 DUP5 SUB SLT ISZERO PUSH2 0x3485 JUMPI PUSH2 0x3484 PUSH2 0x2404 JUMP JUMPDEST JUMPDEST PUSH0 PUSH2 0x3492 DUP5 DUP3 DUP6 ADD PUSH2 0x345C JUMP JUMPDEST SWAP2 POP POP SWAP3 SWAP2 POP POP JUMP INVALID LOG2 PUSH5 0x6970667358 0x22 SLT KECCAK256 0xB8 SIGNEXTEND 0xFC 0xBC 0xEF SSTORE 0x4C 0xC0 CALLCODE SWAP11 DUP6 DUP1 0xDC MULMOD MULMOD DUP15 LOG3 GAS CALLDATACOPY 0x4F 0xB4 0xE5 0x4F 0xDB 0xA9 0xAD 0xC9 PUSH19 0xC4CB30F864736F6C6343000818003300000000 "
				},
				"gasEstimates": {
					"creation": {
						"codeDepositCost": "2704200",
						"executionCost": "infinite",
						"totalCost": "infinite"
					},
					"external": {
						"balanceOf(address)": "2887",
						"cancel(uint256)": "infinite",
						"detach()": "26676",
						"getRoyalty()": "2544",
						"initialize(uint256,uint256,uint256,bool)": "infinite",
						"isForSale(uint256)": "5173",
						"offer(uint256,uint256)": "infinite",
						"owner()": "2582",
						"ownerOf(uint256)": "2941",
						"preSale()": "2511",
						"price()": "2514",
						"priceOf(uint256)": "infinite",
						"purchase(uint256)": "infinite",
						"setRoyalties(uint256,address)": "infinite",
						"supportsInterface(bytes4)": "699",
						"tokenURI(uint256)": "infinite",
						"totalPurchased()": "2513",
						"totalSupply()": "2471",
						"tradable()": "2540",
						"transfer(address,uint256)": "infinite",
						"transferOwnership(address)": "27084"
					}
				},
				"methodIdentifiers": {
					"balanceOf(address)": "70a08231",
					"cancel(uint256)": "40e58ee5",
					"detach()": "225435c0",
					"getRoyalty()": "4d47732a",
					"initialize(uint256,uint256,uint256,bool)": "6a1ede9c",
					"isForSale(uint256)": "8546d002",
					"offer(uint256,uint256)": "a1920586",
					"owner()": "8da5cb5b",
					"ownerOf(uint256)": "6352211e",
					"preSale()": "5a7adf7f",
					"price()": "a035b1fe",
					"priceOf(uint256)": "b9186d7d",
					"purchase(uint256)": "efef39a1",
					"setRoyalties(uint256,address)": "5de42985",
					"supportsInterface(bytes4)": "01ffc9a7",
					"tokenURI(uint256)": "c87b56dd",
					"totalPurchased()": "e632c2f3",
					"totalSupply()": "18160ddd",
					"tradable()": "54840c6e",
					"transfer(address,uint256)": "a9059cbb",
					"transferOwnership(address)": "f2fde38b"
				}
			},
			"storageLayout": {
				"storage": [
					{
						"astId": 10,
						"contract": "contracts/DvTicket.sol:DvTicket",
						"label": "_factory",
						"offset": 0,
						"slot": "0",
						"type": "t_contract(DvFactory)339"
					},
					{
						"astId": 12,
						"contract": "contracts/DvTicket.sol:DvTicket",
						"label": "_owner",
						"offset": 0,
						"slot": "1",
						"type": "t_address"
					},
					{
						"astId": 14,
						"contract": "contracts/DvTicket.sol:DvTicket",
						"label": "_royaltyRecipient",
						"offset": 0,
						"slot": "2",
						"type": "t_address"
					},
					{
						"astId": 17,
						"contract": "contracts/DvTicket.sol:DvTicket",
						"label": "_royalty",
						"offset": 0,
						"slot": "3",
						"type": "t_uint256"
					},
					{
						"astId": 543,
						"contract": "contracts/DvTicket.sol:DvTicket",
						"label": "_status",
						"offset": 0,
						"slot": "4",
						"type": "t_uint256"
					},
					{
						"astId": 344,
						"contract": "contracts/DvTicket.sol:DvTicket",
						"label": "_vestingToken",
						"offset": 0,
						"slot": "5",
						"type": "t_address"
					},
					{
						"astId": 908,
						"contract": "contracts/DvTicket.sol:DvTicket",
						"label": "price",
						"offset": 0,
						"slot": "6",
						"type": "t_uint256"
					},
					{
						"astId": 910,
						"contract": "contracts/DvTicket.sol:DvTicket",
						"label": "totalSupply",
						"offset": 0,
						"slot": "7",
						"type": "t_uint256"
					},
					{
						"astId": 913,
						"contract": "contracts/DvTicket.sol:DvTicket",
						"label": "totalPurchased",
						"offset": 0,
						"slot": "8",
						"type": "t_uint256"
					},
					{
						"astId": 916,
						"contract": "contracts/DvTicket.sol:DvTicket",
						"label": "preSale",
						"offset": 0,
						"slot": "9",
						"type": "t_bool"
					},
					{
						"astId": 919,
						"contract": "contracts/DvTicket.sol:DvTicket",
						"label": "tradable",
						"offset": 1,
						"slot": "9",
						"type": "t_bool"
					},
					{
						"astId": 923,
						"contract": "contracts/DvTicket.sol:DvTicket",
						"label": "_tickets",
						"offset": 0,
						"slot": "10",
						"type": "t_mapping(t_uint256,t_address)"
					},
					{
						"astId": 927,
						"contract": "contracts/DvTicket.sol:DvTicket",
						"label": "_balances",
						"offset": 0,
						"slot": "11",
						"type": "t_mapping(t_address,t_uint256)"
					},
					{
						"astId": 937,
						"contract": "contracts/DvTicket.sol:DvTicket",
						"label": "_market",
						"offset": 0,
						"slot": "12",
						"type": "t_mapping(t_uint256,t_struct(Offer)932_storage)"
					},
					{
						"astId": 939,
						"contract": "contracts/DvTicket.sol:DvTicket",
						"label": "_name",
						"offset": 0,
						"slot": "13",
						"type": "t_string_storage"
					},
					{
						"astId": 941,
						"contract": "contracts/DvTicket.sol:DvTicket",
						"label": "_symbol",
						"offset": 0,
						"slot": "14",
						"type": "t_string_storage"
					},
					{
						"astId": 943,
						"contract": "contracts/DvTicket.sol:DvTicket",
						"label": "_tokenURI",
						"offset": 0,
						"slot": "15",
						"type": "t_string_storage"
					}
				],
				"types": {
					"t_address": {
						"encoding": "inplace",
						"label": "address",
						"numberOfBytes": "20"
					},
					"t_bool": {
						"encoding": "inplace",
						"label": "bool",
						"numberOfBytes": "1"
					},
					"t_contract(DvFactory)339": {
						"encoding": "inplace",
						"label": "contract DvFactory",
						"numberOfBytes": "20"
					},
					"t_mapping(t_address,t_uint256)": {
						"encoding": "mapping",
						"key": "t_address",
						"label": "mapping(address => uint256)",
						"numberOfBytes": "32",
						"value": "t_uint256"
					},
					"t_mapping(t_uint256,t_address)": {
						"encoding": "mapping",
						"key": "t_uint256",
						"label": "mapping(uint256 => address)",
						"numberOfBytes": "32",
						"value": "t_address"
					},
					"t_mapping(t_uint256,t_struct(Offer)932_storage)": {
						"encoding": "mapping",
						"key": "t_uint256",
						"label": "mapping(uint256 => struct DvTicket.Offer)",
						"numberOfBytes": "32",
						"value": "t_struct(Offer)932_storage"
					},
					"t_string_storage": {
						"encoding": "bytes",
						"label": "string",
						"numberOfBytes": "32"
					},
					"t_struct(Offer)932_storage": {
						"encoding": "inplace",
						"label": "struct DvTicket.Offer",
						"members": [
							{
								"astId": 929,
								"contract": "contracts/DvTicket.sol:DvTicket",
								"label": "owner",
								"offset": 0,
								"slot": "0",
								"type": "t_address"
							},
							{
								"astId": 931,
								"contract": "contracts/DvTicket.sol:DvTicket",
								"label": "price",
								"offset": 0,
								"slot": "1",
								"type": "t_uint256"
							}
						],
						"numberOfBytes": "64"
					},
					"t_uint256": {
						"encoding": "inplace",
						"label": "uint256",
						"numberOfBytes": "32"
					}
				}
			},
			"userdoc": {
				"kind": "user",
				"methods": {
					"cancel(uint256)": {
						"notice": "Cancel ticket offer"
					},
					"initialize(uint256,uint256,uint256,bool)": {
						"notice": "Initialize TST as tangible"
					},
					"offer(uint256,uint256)": {
						"notice": "Offer ticket for sales"
					},
					"transfer(address,uint256)": {
						"notice": "Transfer ticket via ERC721 or ERC21 standard"
					}
				},
				"notice": "This contract manages the lifecycle of digital tickets for a tangible good.         It leverages the DeVest and VestingToken contracts from the DeVest library.",
				"version": 1
			}
		}
	}
}